:100000000C9429010C9453010C9453010C9453014A
:100010000C9453010C9453010C9453010C94530110
:100020000C9453010C9453010C9453010C94530100
:100030000C9453010C947A110C9453010C945301B9
:100040000C9453010C9453010C9453010C945301E0
:100050000C9453010C9453010C9453010C9481059E
:100060000C9453010C943D040C9413040C94530110
:100070000C9453010C9453010C9453010C945301B0
:100080000C9453010C9453010C9453010C945301A0
:100090000C9453010C9453010C9453010C94530190
:1000A0000C9453010C9453010C9453010C94530180
:1000B0000C9453010C9453010C9453010C94530170
:1000C0000C9453010C9453010C9453010C94530160
:1000D0000C9453010C9453010C9453010C94530150
:1000E0000C9453018C048F047E0482048804C6049B
:1000F000930497049D04A104A504AB04AF04B304C6
:10010000C604B904BD04C104FB06000705070F07B8
:100110001907920723072B0733073D0747075107A6
:1001200060076A07920774077E07880700002100AE
:10013000240027002A002D003000330001010000B8
:10014000040107010A010000200023002600290005
:100150002C002F00320000010000030106010901FC
:1001600005050505070508080808020202020A0A33
:100170000808040404040101010101010101030351
:10018000030303030303040707070C0C0C0C0C0CFC
:100190000C0C0202020206060606060606060B0BF9
:1001A0000B0B0B0B0B0B010210202008081020403A
:1001B000102040800201020108040201010204082B
:1001C00010204080804020100804020180040201B9
:1001D0008040201008040201080402010102040802
:1001E00010204080010204081020408000000A0B0B
:1001F00002090C0D0E0807030401000000000000B6
:1002000000000000000000000000000000000000EE
:1002100000000000000000001211100000000000AB
:1002200000000000000000000000000000000000CE
:10023000000000002200250028002B002E003100C5
:10024000340002010000050108010B010200C01783
:10025000EF1111241FBECFEFD1E2DEBFCDBF12E000
:10026000A0E0B2E0E6EFFBE300E00BBF02C00790C6
:100270000D92AA34B107D9F724E0AAE4B2E001C094
:100280001D92AA39B207E1F711E0C8E2D1E004C03B
:100290002197FE010E94521AC732D107C9F70E9466
:1002A00023120C94EE1D0C940000FC01918D828DA4
:1002B000981761F0828DDF01A80FB11D5D968C91BA
:1002C000928D9F5F9F73928F90E008958FEF9FEFC5
:1002D0000895FC01918D828D981731F0828DE80F81
:1002E000F11D858D90E008958FEF9FEF0895FC013B
:1002F000918D228D892F90E0805C9F4F821B910908
:100300008F739927089583E592E00E94770121E099
:10031000892B09F420E0822F0895FC01848DDF01F0
:10032000A80FB11DA35ABF4F2C91848D90E0019668
:100330008F739927848FA689B7892C93A089B18957
:100340008C9180648C93938D848D981306C0028861
:10035000F389E02D80818F7D80830895EF92FF9255
:100360000F931F93CF93DF93EC0181E0888F9B8DD8
:100370008C8D981305C0E889F989808185FD24C09A
:10038000F62E0B8D10E00F5F1F4F0F731127E02E1D
:100390008C8DE8120CC00FB607FCFACFE889F989FA
:1003A000808185FFF5CFCE010E948D01F1CF8B8D2D
:1003B000FE01E80FF11DE35AFF4FF0820B8FEA892F
:1003C000FB898081806207C0EE89FF896083E889AC
:1003D000F98980818064808381E090E0DF91CF9112
:1003E0001F910F91FF90EF900895CF93DF93EC0151
:1003F000888D8823C9F0EA89FB89808185FD05C045
:10040000A889B9898C9186FD0FC00FB607FCF5CF7E
:10041000808185FFF2CFA889B9898C9185FFEDCFC6
:10042000CE010E948D01E7CFDF91CF91089580E04A
:1004300090E0892B21F00E948301811125C080E08A
:1004400090E0892B41F080E090E0892B21F00E9420
:10045000000081111CC080E090E0892B41F080E019
:1004600090E0892B21F00E940000811113C080E0F0
:1004700090E0892BA1F080E090E0892B81F00E9430
:10048000000081110AC008950E940000D8CF0E9488
:100490000000E1CF0E940000EACF0C940000089514
:1004A0003FB7F89480914B0290914C02A0914D027D
:1004B000B0914E0226B5A89B05C02F3F19F00196BA
:1004C000A11DB11D3FBFBA2FA92F982F8827820FDA
:1004D000911DA11DB11DBC01CD0142E0660F771F2A
:1004E000881F991F4A95D1F70895CF92DF92EF9216
:1004F000FF920F931F93CF93DF93CDB7DEB729976A
:100500000FB6F894DEBF0FBECDBF8C010E94500223
:10051000D8011E96CD90DD90ED90FC905197DC01B6
:10052000CB018C199D09AE09BF09C297A105B10580
:1005300068F3F894F801848195819A838983008413
:10054000F185E02D7F018FEFE81AF80A80818B8317
:10055000D8019C915296ED91FC91539754968C91B1
:10056000992309F430C09081982B9C8390818095C9
:1005700089238D838D818E8388E08F835C816D815B
:100580004B813F812E8189819A81D701508347FD1C
:10059000252F3A952083262F39F0441F00C00000F4
:1005A0006083000000C0F2CF38E04D91608300000E
:1005B000019761F7D8015396FC93EE9352974B83C2
:1005C0003F832E833AC09081982B9C8390818095A5
:1005D00089238D838D81888788E089875C816D81FF
:1005E0004B813985288589819A81D701508347FDC0
:1005F000252F00C000C0208300C000C000C000C084
:1006000000C060830000262F3A9541F0441F00008F
:1006100000C000C000C000C000C0E8CF38E04D916D
:1006200000C0608300C0019709F7D8015396FC937E
:10063000EE9352974B83398728879A8389837894DE
:100640000E945002F80166877787808B918B2996EC
:100650000FB6F894DEBF0FBECDBFDF91CF911F91D3
:100660000F91FF90EF90DF90CF900895EF92FF925F
:100670000F931F93CF93DF9300D000D0CDB7DEB799
:100680008C01FC0175836483CB010896938382837C
:100690007C01EE0CFF1CC70149835A836B837C836A
:1006A0000E94171BF8018083918397012051310923
:1006B00049815A81240F351FDA01FC01A217B307C3
:1006C00041F08D919D91309711F091838083329606
:1006D000F5CF0F900F900F900F90DF91CF911F915A
:1006E0000F91FF90EF900895EF92FF920F931F9359
:1006F000CF93DF93EC018B016817790709F486C06B
:10070000DB0114962D913C9115978A819B8182176C
:10071000930718F5E880F9803B832A83C901880F85
:10072000991F0E94171B888399834C815D81D70193
:10073000FC0120E030E02417350761F0309729F004
:100740008D919C911197918380832F5F3F4F1296DB
:100750003296F1CFC7010E94AC1B8C819D81F801BC
:10076000448155818417950708F4AC0180E090E03E
:100770008417950791F09C01220F331FD801ED914A
:10078000FC91E20FF31F60817181E881F981E20F32
:10079000F31F718360830196EBCF8C819D81F801FB
:1007A000248135818217930768F0D80114968D91C2
:1007B0009C9115972C813D818217930738F59D8375
:1007C0008C8324C09C01220F331FD80114964D91B5
:1007D0005C9115978417950740F7F801A081B181C6
:1007E000A20FB31FE881F981E20FF31F309721F0C8
:1007F0004D915C91518340834C815D814F5F5F4F90
:100800005D834C8301962E5F3F4FDFCFCE01DF919A
:10081000CF911F910F91FF90EF900895FC0180817F
:1008200091810C94AC1B1F920F920FB60F92112462
:100830000BB60F922F933F934F935F936F937F93DA
:100840008F939F93AF93BF93EF93FF9383E592E0D2
:100850000E948D01FF91EF91BF91AF919F918F9178
:100860007F916F915F914F913F912F910F900BBEB0
:100870000F900FBE0F901F9018951F920F920FB6FA
:100880000F9211240BB60F922F938F939F93EF9398
:10089000FF93E0916302F09164028081E09169022C
:1008A000F0916A0282FD12C0908180916C028F5F8C
:1008B0008F7320916D02821751F0E0916C02F0E08D
:1008C000ED5AFD4F958F80936C0201C08081FF919E
:1008D000EF919F918F912F910F900BBE0F900FBEB4
:1008E0000F901F90189590E0FC013197E231F105CF
:1008F00008F04CC0EE58FF4F0C94521A80918000C3
:100900008F7703C0809180008F7D80938000089551
:1009100080918000877FF9CF84B58F7702C084B53E
:100920008F7D84BD08958091B0008F7703C0809142
:10093000B0008F7D8093B0000895809190008F77F4
:1009400007C0809190008F7D03C080919000877FC9
:100950008093900008958091A0008F7707C08091C8
:10096000A0008F7D03C08091A000877F8093A000AE
:100970000895809120018F7707C0809120018F7D9D
:1009800003C080912001877F8093200108951F93E9
:10099000CF93DF93282F30E0F901E451FE4F84918B
:1009A000F901EA55FE4FD491F901E05AFE4FC49186
:1009B000CC23C9F0162F81110E947304EC2FF0E0B4
:1009C000EE0FFF1FEE5CFD4FA591B4918FB7F89429
:1009D000111105C09C91ED2FE095E92302C0EC9127
:1009E000ED2BEC938FBFDF91CF911F910895CF93A3
:1009F000DF9390E0FC01EA55FE4F2491FC01E05AA0
:100A0000FE4F8491882361F190E0880F991FFC01CB
:100A1000E45DFE4FC591D491FC01EE5CFD4FA591C4
:100A2000B491611109C09FB7F89488812095822301
:100A30008883EC912E230BC0623061F49FB7F89449
:100A40003881822F809583238883EC912E2B2C93E1
:100A50009FBF06C08FB7F894E8812E2B28838FBFE5
:100A6000DF91CF910895CF93DF93EC01888599852D
:100A7000009711F00E94AC1B8E8187FD05C060E0DD
:100A8000DF91CF910C94F704DF91CF9108958F926D
:100A90009F92AF92BF92CF92DF92EF92FF926B0143
:100AA0007C010E9450024B015C01C114D104E1049D
:100AB000F104F1F00E945002DC01CB018819990980
:100AC000AA09BB09883E9340A105B10570F321E056
:100AD000C21AD108E108F10888EE880E83E0981E5A
:100AE000A11CB11CC114D104E104F10419F7DDCF3C
:100AF000FF90EF90DF90CF90BF90AF909F908F903E
:100B000008951F920F920FB60F9211242F933F93C7
:100B10008F939F93AF93BF9380914F029091500218
:100B2000A0915102B091520230914A0223E0230F6A
:100B30002D3720F40196A11DB11D05C026E8230F15
:100B40000296A11DB11D20934A0280934F029093FB
:100B50005002A0935102B093520280914B029091A7
:100B60004C02A0914D02B0914E020196A11DB11D03
:100B700080934B0290934C02A0934D02B0934E028F
:100B8000BF91AF919F918F913F912F910F900FBE89
:100B90000F901F9018950F931F93CF93DF93EC0145
:100BA00061E08A810E94C70465E070E080E090E027
:100BB0000E9447059C81963308F0965380917B00F4
:100BC000292F2870877F822B80937B0097709064F9
:100BD00090937C0080917A00806480937A00809169
:100BE0007A0086FDFCCF009178008091790010E0BA
:100BF000182B65E070E080E090E00E94470560E01F
:100C00008A810E94C7048E819F81081719071CF0F2
:100C100081E08A8701C01A86DF91CF911F910F91E1
:100C200008950F931F93CF93DF93EC0108811981EF
:100C30007B836A83CB01880F991F0E94171B9983BE
:100C400088838C819D81D80140E050E04817590786
:100C500091F0E881F9819A01220F331FE20FF31F0F
:100C6000309729F02D913C911197318320834F5F6C
:100C70005F4F1296EBCFC801DF91CF911F910F917B
:100C80000C94AC1B0F931F93CF93DF93EC0108815F
:100C900019817B836A83CB01880F991F0E94171BE0
:100CA000998388838C819D81D80140E050E048176A
:100CB000590791F0E881F9819A01220F331FE20F61
:100CC000F31F309729F02D913C91119731832083A8
:100CD0004F5F5F4F1296EBCFC801DF91CF911F910D
:100CE0000F910C94AC1BCF93DF93EC0160E08881F3
:100CF0000E94C70461E08A81DF91CF910C94C70400
:100D0000CF93DF93EC0161E08C810E94F70461E0F6
:100D100088810E94F70461E08A810E94F704DF91D4
:100D2000CF910895CF93DF93FC016287662321F072
:100D3000DF91CF910C947306EC0161E080810E94F9
:100D4000C70460E08A81DF91CF910C94C704CF92F1
:100D5000DF92EF92FF920F931F93CF93DF93EC01FB
:100D60006A017B0120E030E04FE753E4C701B601A0
:100D70000E94121B181674F020E030E0A901C70190
:100D8000B6010E94521D87FF0BC0F7FAF094F7F8E6
:100D9000F09406C0C12CD12C8FE7E82E83E4F82E06
:100DA000CE82DF82E886F986C701B6010E94DC1A8E
:100DB0006B017C018B010C80DD81C02D61E08C2FEB
:100DC0000E94F704C114D10409F4AFC00F3F11050C
:100DD00009F4ADC0FE01FF27E451FE4FE4914E2F10
:100DE00050E0FA013197E231F10508F09BC0EC5771
:100DF000FF4F0C94521A84B5806884BDC7BCA3C051
:100E000084B5806284BDC8BC9EC08091800080682B
:100E100080938000D0928900C092880094C0809115
:100E20008000806280938000D0928B00C0928A0004
:100E30008AC080918000886080938000D0928D006D
:100E4000C0928C0080C08091B00080688093B00018
:100E5000C092B30078C08091B00080628093B000EF
:100E6000C092B40070C08091900080688093900020
:100E7000D0929900C092980066C0809190008062E4
:100E800080939000D0929B00C0929A005CC08091A9
:100E90009000886080939000D0929D00C0929C004A
:100EA00052C08091A00080688093A0008091A00033
:100EB0008F7B8093A000D092A900C092A80043C06D
:100EC0008091A00080628093A000D092AB00C0927D
:100ED000AA0039C08091A00088608093A000D092C1
:100EE000AD00C092AC002FC080912001806880933B
:100EF0002001D0922901C092280125C080912001B3
:100F0000806280932001D0922B01C0922A011BC0E5
:100F100080912001886080932001D0922D01C092A1
:100F20002C0111C00038110514F460E001C061E02B
:100F30008C2FDF91CF911F910F91FF90EF90DF9059
:100F4000CF900C94C704DF91CF911F910F91FF9028
:100F5000EF90DF90CF9008954F925F926F927F92C3
:100F60008F929F92AF92BF92CF92DF92EF92FF92B9
:100F70000F931F93CF93DF93CDB7DEB72E970FB6A6
:100F8000F894DEBF0FBECDBF8C017B016A01590111
:100F9000798768875B874A873D872C87AE01485FE2
:100FA0005F4F63E070E09E01225F3F4FCE010196EC
:100FB0000E943603BE016F5F7F4FC80104960E94F6
:100FC0007403CE0101960E940E0420E030E040E060
:100FD00050E080E090E0B701772726015524D50145
:100FE000BB276A2C7C2C9E2CF801E280F3808E15A6
:100FF0009F050CF050C0F801E584F6848E159F051E
:1010000008F043C0E288E11004C0862CD72CC92C1C
:1010100019C0F12C6E9D60016F9DD00C7E9DD00C8F
:101020001124CD2C4E9C50014F9CB00C5E9CB00CFA
:101030001124DB2CAE9D5001AF9DB00CBE9DB00CB9
:1010400011248B2CF801B08CA588E388F488BA10A1
:1010500003C0E40EF51E06C0E20EF31EF701EB0D11
:10106000F11D1082F801B588F701EB0DF11DC0826A
:10107000F801C6885701AC0CB11CF501D082F8010B
:10108000D788ED0CF11CF701808201964D5F5F4F10
:101090002C5F3F4FA9CFC8010B9623893489232B9E
:1010A00011F00E9475022E960FB6F894DEBF0FBEA7
:1010B000CDBFDF91CF911F910F91FF90EF90DF9007
:1010C000CF90BF90AF909F908F907F906F905F90E8
:1010D0004F900895AF92BF92CF92DF92EF92FF921E
:1010E0000F931F93CF93DF93CDB7DEB765970FB6FE
:1010F000F894DEBF0FBECDBF8C01FC01E080F18013
:10110000A280B3801A8218861F86188A198A1A8AC2
:1011100081E08E878B871C8692E09D87898365019D
:10112000CC0CDD1CCA0CDB1CDE82CD82C6010E9409
:10113000171B9A878987009741F0A60160E070E04D
:101140000E943B1DBC82AB8204C01E821D821C8299
:101150001B82EF828A81882341F061E08E2D0E94FC
:10116000F70460E08E2D0E94C704C7019927FC0197
:10117000E05AFE4FE491F0E0EE0FFF1FEE5CFD4FF2
:10118000259134913C8B2B8BFC01EA55FE4F8491C9
:101190008D8B85E1FE013196D8011B9601900D9251
:1011A0008A95E1F7CE0101960E9433057801FBE0B4
:1011B000EF0EF11CF801818987FD08C061E00E94F3
:1011C000F70460E0F80181890E94C70481E0F8011A
:1011D000848783899489892B19F0C7010E9475023D
:1011E00065960FB6F894DEBF0FBECDBFDF91CF91ED
:1011F0001F910F91FF90EF90DF90CF90BF90AF9035
:101200000895AF92BF92CF92DF92EF92FF920F9329
:101210001F93CF93DF93CDB7DEB72E970FB6F89419
:10122000DEBF0FBECDBF8C015B016A01FC0180A156
:1012300091A19987888782A193A19B878A8784A19E
:1012400095A19D878C87AE01485F5F4F63E070E09A
:101250007801F4E0EF0EF11C9E012F5F3F4FC701B4
:101260000E94360391E0F80193871486168615864E
:10127000108A17868FEF818B128A148A138A958BB6
:10128000168A82E0878B908F118E128E138E148EA9
:10129000B182A082D382C28247E052E063E070E074
:1012A0009E01225F3F4FCE0101960E943603BE0190
:1012B0006F5F7F4FC7010E947403CE0101960E94A9
:1012C0000E042E960FB6F894DEBF0FBECDBFDF9191
:1012D000CF911F910F91FF90EF90DF90CF90BF9033
:1012E000AF9008950F931F93CF93DF93EC01088184
:1012F00019817B836A83CB01880F991F880F991FFF
:101300000E94171B88839983FC01D80120E030E0FC
:101310008C819D812817390780F4309749F04D91D1
:101320005D916D917C9113974083518362837383A8
:101330002F5F3F4F34961496EBCFC801DF91CF91CA
:101340001F910F910C94AC1BCF92DF92EF92FF9202
:101350000F931F93CF93DF937C018B01DB011496D6
:10136000CD91DC911597FC01D583C483CE010896FD
:1013700093838283880F991F880F991F0E94171BE0
:10138000D7018D939C93FC0140E050E04C175D0722
:10139000B9F0D8016D917C919F01281B390BDB01BD
:1013A000A20FB31F309741F0CD90DD90ED90FC90EF
:1013B000C082D182E282F3824F5F5F4F3496E6CFE4
:1013C000DF91CF911F910F91FF90EF90DF90CF9021
:1013D0000895AF92BF92CF92DF92EF92FF920F9358
:1013E0001F93CF93DF93EC01EC80FD8087010F5FAB
:1013F0001F4FE016F10608F050C06B018A819B81F7
:101400008017910768F59701275F3F4F8217930771
:1014100038F5A880B9803B832A83C901880F991FBA
:10142000880F991F0E94171B88839983D501FC019F
:1014300020E030E02E153F0581F0309749F04D91C6
:101440005D916D917C911397408351836283738387
:101450002F5F3F4F14963496EDCFC5010E94AC1B11
:101460008C819D819C01220F331F220F331F801717
:101470009107B0F4E881F981E20FF31F309749F04A
:10148000D6014D915D916D917C9140835183628332
:10149000738301962C5F3F4FEACF0E151F0510F4A2
:1014A0001D830C83DF91CF911F910F91FF90EF90DF
:1014B000DF90CF90BF90AF900895FC018081918123
:1014C0000C94AC1BE3E5F2E0A089B18982E08C9337
:1014D000A485B5851C92A685B7858FEC8C93108E5C
:1014E000A489B58986E08C93A289B3898C918061A7
:1014F0008C93A289B3898C9188608C93A289B389DB
:101500008C9180688C930288F389E02D80818F7D97
:1015100080830895CF92DF92EF92FF920F931F93F3
:10152000CF93DF93E0904A03F0904B03E816F9065F
:1015300008F05DC08B01EC01809148039091490354
:101540008C179D07A0F59E01285F3F4F82179307D8
:1015500070F5C0904603D090470330934903209321
:101560004803C901880F991F0E94171B90934703D6
:1015700080934603D60140E050E04E155F05A1F090
:10158000E0914603F09147039A01220F331FE20FC7
:10159000F31F309729F08D919C911197918380834F
:1015A0004F5F5F4F1296E9CFC6010E94AC1B80913E
:1015B0004A0390914B039C01220F331F8C179D0708
:1015C00088F4E0914603F0914703E20FF31F309750
:1015D00029F0D8014D915C915183408301962E5F93
:1015E0003F4FECCFD0934B03C0934A0307C08E15F7
:1015F0009F0520F490934B0380934A03DF91CF9192
:101600001F910F91FF90EF90DF90CF9008950F936F
:101610001F93CF93DF936091430370914403EB01D9
:1016200021966C177D0760F58C01809141039091A4
:1016300042038C179D0748F4675F7F4F8617970713
:1016400020F48FE393E00E94110620914303309130
:101650004403C901880F991F2C173D07A0F4E0919E
:101660003F03F0914003E80FF91F309729F0D801AC
:101670004D915C91518340832F5F3F4F0296ECCF99
:10168000C617D70720F4D0934403C0934303DF91D8
:10169000CF911F910F9108950F931F93CF93DF93D5
:1016A00020913C0330913D032817390798F58B01B1
:1016B000EC0180913A0390913B038C179D0750F405
:1016C000BE01685F7F4F8617970720F488E393E099
:1016D0000E94420680913C0390913D039C01220FA1
:1016E000331F8C179D0788F4E0913803F09139037C
:1016F000E20FF31F309729F0D8014D915C9151838F
:10170000408301962E5F3F4FECCFD0933D03C093B3
:101710003C0307C08217930720F490933D03809306
:101720003C03DF91CF911F910F9108950F931F9369
:10173000CF93DF936091A6037091A703EB012196ED
:101740006C177D0790F58C018091A4039091A503FF
:101750008C179D0748F4675F7F4F8617970720F423
:1017600082EA93E00E9472092091A6033091A703B8
:10177000C901880F991F880F991F2C173D07C0F4C6
:10178000E091A203F091A303E80FF91F309749F00D
:10179000D8014D915D916D917C914083518362831D
:1017A00073832F5F3F4F0496E8CFC617D70720F407
:1017B000D093A703C093A603DF91CF911F910F9100
:1017C0000895EF92FF920F931F93CF93DF930091B1
:1017D000A2031091A303C091A603D091A703CC0F3D
:1017E000DD1FCC0FDD1FC00FD11F0C171D0761F1CE
:1017F000F801208131813327F901E451FE4F8491B2
:10180000F901EA55FE4FE490F901E05AFE4FF490D9
:10181000FF2091F081110E947304EF2DF0E0EE0F94
:10182000FF1FEA5BFE4FA591B491EC91EE2191E090
:1018300080E021F490E002C090E080E0F801928323
:1018400083830C5F1F4FD1CFE091A203F091A303DC
:1018500082819381892B99F086819781892B91F0E0
:1018600082859385892B89F086859785892B81F0E0
:1018700082899389892B79F080E090E00EC081E025
:1018800090E00BC082E090E008C083E090E005C0EB
:1018900084E090E002C085E090E0DF91CF911F915D
:1018A0000F91FF90EF9008958F929F92AF92BF9209
:1018B000CF92DF92EF92FF920F931F93CF93DF931C
:1018C000CDB7DEB7A1970FB6F894DEBF0FBECDBF80
:1018D0006C01990FEE08FF08F7FE33C0E091530248
:1018E000F09154020190F081E02D6DE283E592E0E9
:1018F00009958C0122273327A9012C193D094E098E
:101900005F0919A2CE0181967C019AE0892E912C63
:10191000A12CB12CCA01B901A50194010E94CC1DD2
:10192000605DF70162937F01211531054105510585
:1019300089F7BF0183E592E00E94DA11080F191FB1
:1019400020C0A701960119A28E010F5D1F4F8AE0EA
:10195000C82ED12CE12CF12CCA01B901A7019601A6
:101960000E94CC1D605DF80162938F012115310545
:101970004105510589F7BF0183E592E00E94DA1124
:101980008C016EE272E083E592E00E94DA11800F32
:10199000911FA1960FB6F894DEBF0FBECDBFDF91A9
:1019A000CF911F910F91FF90EF90DF90CF90BF905C
:1019B000AF909F908F9008950F931F93CF93DF93D5
:1019C000EC018C819D81892B31F48C819D81892B47
:1019D00009F44EC027C06BE372E0888199810E94B0
:1019E000421D892B91F700E010E080914303909114
:1019F00044030817190748F7E0913F03F0914003AB
:101A00009801220F331FE20FF31F80819181FC01A7
:101A1000208131812130310511F40E94CB050F5F07
:101A20001F4FE3CF64E472E0888199810E94421DD8
:101A3000892BF1F4C0E0D0E08091430390914403FE
:101A4000C817D907A8F4E0913F03F0914003CE01F5
:101A5000880F991FE80FF91F80819181FC01208177
:101A600031812330310511F40E94CB052196E4CF5A
:101A7000DF91CF911F910F910895CF92DF92EF9256
:101A8000FF920F931F93CF93DF936C017A018B0129
:101A9000C0E0D0E0CE15DF0589F0D8016D918D0151
:101AA000D601ED91FC910190F081E02DC6010995E0
:101AB000892B11F47E0102C02196ECCFC701DF9182
:101AC000CF911F910F91FF90EF90DF90CF900895ED
:101AD0000E942D1D9091000298133DC0ECE4F2E0AD
:101AE000E4919FEF90930002E230C9F050F4EE23AE
:101AF00099F0E13081F590916F009D7F90936F0098
:101B00002AC0E43019F1E0F0E53029F59091730036
:101B10009D7F909373001FC010926E001CC0909127
:101B200070009D7F9093700091E09093B000909131
:101B3000B100987F94609093B1001092B3000BC0F5
:101B4000909171009D7F9093710005C090917200FB
:101B50009D7F9093720060E00C94C7042F923F9297
:101B60004F925F926F927F928F929F92AF92BF92AD
:101B7000CF92DF92EF92FF920F931F93CF93DF9359
:101B8000CDB7DEB727970FB6F894DEBF0FBECDBF37
:101B90009E838D8300E010E0212C312C88248A94D0
:101BA000982C540198E4492E98EE592E662463949B
:101BB000712CAD81BE8114968D919C91159728163C
:101BC000390608F03EC3AD81BE81ED91FC919F01C5
:101BD000200F311FD9018D919D910D90BC91A02DA9
:101BE00089839A83AB83BC8320E030E040E251E4F8
:101BF000BC01CD010E94121B18160CF0B6C220E0E9
:101C000030E44CE956E469817A818B819C810E94A1
:101C1000521D87FFAAC2E0905503F09056038091B1
:101C200000028E1105C0ECE4F2E0F491FF8307C1DD
:101C30008F3F09F090C2E0920002ECE4F2E0849160
:101C40008F3F09F488C2823009F480C074F588237C
:101C500009F45BC0813009F0F1C01092800010924D
:101C60008100809181008860809381008091810053
:101C7000816080938100C7019927FC01E05AFE4FE3
:101C8000E491F0E0EE0FFF1FEE5CFD4F25913491E3
:101C900030937A0420937904FC01EA55FE4FE491D5
:101CA000E0937804F1E0FF83CDC0843009F49EC056
:101CB0000CF474C0853009F0C1C01092200110925C
:101CC000210180912101886080932101809121016F
:101CD000816080932101C7019927FC01E05AFE4FE2
:101CE000E491F0E0EE0FFF1FEE5CFD4F2591349183
:101CF00030936E0420936D04FC01EA55FE4FE4918D
:101D0000E0936C04B5E0BF839DC014BC15BC84B5E2
:101D1000826084BD85B5816085BDC7019927FC01BE
:101D2000E05AFE4FE491F0E0EE0FFF1FEE5CFD4F36
:101D30002591349130937D0420937C04FC01EA5575
:101D4000FE4FE491E0937B041F827CC01092B000B0
:101D50001092B1008091B00082608093B0008091B9
:101D6000B10081608093B100C7019927FC01E05A5E
:101D7000FE4FE491F0E0EE0FFF1FEE5CFD4F25916A
:101D800034913093770420937604FC01EA55FE4F9A
:101D9000E491E093750482E08F8354C01092900028
:101DA00010929100809191008860809391008091C1
:101DB0009100816080939100C7019927FC01E05A4E
:101DC000FE4FE491F0E0EE0FFF1FEE5CFD4F25911A
:101DD00034913093740420937304FC01EA55FE4F50
:101DE000E491E093720493E09F832CC01092A000D2
:101DF0001092A1008091A10088608093A100809141
:101E0000A10081608093A100C7019927FC01E05ADD
:101E1000FE4FE491F0E0EE0FFF1FEE5CFD4F2591C9
:101E200034913093710420937004FC01EA55FE4F05
:101E3000E491E0936F04A4E0AF8304C08F83EF814B
:101E4000E7FD89C169817A818B819C810E94E31AB7
:101E500069837A838B839C8361E08E2D0E94F704D3
:101E600089819A816C01E12CF12C8F818D7F09F0A1
:101E7000ACC060E072E18AE790E0A70196010E94A1
:101E8000331A29833A834B835C83BA01A9014150F9
:101E90005109610971094F3F51056105710509F04B
:101EA00008F445C060E472E48FE090E0A701960179
:101EB0000E94331ABA01A9014150510961097109FF
:101EC0009F819230E9F44F3F51056105710509F09A
:101ED00008F4B5C160E970ED83E090E0A7019601D8
:101EE0000E94331ABA01A9014150510961097109CF
:101EF0004F3F51056105710509F0B8F583E05EC0FB
:101F00004F3F510561057105A1F098F0C301B20181
:101F1000A70196010E94331ABA01A9014150510943
:101F200061097109AF81AA2309F435C180C181E03B
:101F300001C082E0EF81EE2399F040C089819A814F
:101F4000AB81BC812AE0B595A795979587952A9591
:101F5000D1F7AC01BD01415051096109710985E01A
:101F600095B5987F892B85BD90C0C301B201A701AB
:101F700096010E94331ABA01A90141505109610921
:101F800071094F3F51056105710509F008F401C160
:101F900064E274EF80E090E0A70196010E94331A9A
:101FA000BA01A90141505109610971094F3F510519
:101FB0006105710511F008F00DC185E09091B10047
:101FC000987F892B8093B1004DC060E072E18AE771
:101FD00090E0A70196010E94331ABA01A90141506D
:101FE00051096109710941155105F1E06F0771054A
:101FF00070F0C301B201A70196010E94331ABA0121
:10200000A901415051096109710923E001C021E092
:102010008F81813039F480918100887F822B809379
:10202000810042C09F81933039F480919100887F74
:10203000822B809391005AC0AF81A43039F48091F3
:10204000A100887F822B8093A10062C0BF81B53040
:1020500049F480912101982F987F822F892B8093BA
:10206000210168C0EF81E23089F134F4EE2369F098
:10207000E13009F070C018C0FF81F43009F448C0A5
:10208000ACF1F53009F456C066C047BD80929204A9
:1020900090929304A0929404B092950480916E0063
:1020A000826080936E0057C05093890040938800EF
:1020B00080928E0490928F04A0929004B09291042A
:1020C00080916F00826080936F0045C04093B300A1
:1020D00080928A0490928B04A0928C04B0928D041A
:1020E0008091700082608093700035C05093990099
:1020F000409398008092860490928704A09288046E
:10210000B09289048091710082608093710023C035
:102110005093A9004093A800809282049092830477
:10212000A0928404B09285048091720082608093B2
:10213000720011C0509329014093280180927E04BF
:1021400090927F04A0928004B092810480917300E9
:102150008260809373006091570370915803072E3B
:10216000000C880B990B0E944705809155030E9433
:102170006A0D6091590370915A03072E000C880B69
:10218000990B0E9447058FEF281A380A0C5F1F4FE2
:1021900010CD84E013CF4F3F510561057105C1F0AB
:1021A000B8F062E17AE780E090E0A70196010E9432
:1021B000331ABA01A90141505109610971094F3F10
:1021C00051056105710511F008F0B8CE84E0C8CE64
:1021D00083E0C6CE62E17AE780E090E0A701960155
:1021E0000E94331ABA01A9014150510961097109CC
:1021F0004F3F510561057105C1F0B8F089819A81A1
:10220000AB81BC813AE0B595A795979587953A95AE
:10221000D1F7AC01BD014150510961097109BF817C
:10222000BB2309F49CCE87E0C9CE86E083CE4F3F26
:1022300051056105710509F068F684E07BCE82E006
:10224000BDCE27960FB6F894DEBF0FBECDBFDF918F
:10225000CF911F910F91FF90EF90DF90CF90BF90A3
:10226000AF909F908F907F906F905F904F903F9036
:102270002F900895EF92FF920F931F93CF93DF93C8
:10228000EC017B018A0188819981009729F02A81DC
:102290003B8124173507F8F4B8016F5F7F4F0E9428
:1022A000441C009759F0998388831B830A832C81EF
:1022B0003D81232B81F4FC0110820DC0888199811E
:1022C000009711F00E94AC1B198218821D821C829B
:1022D0001B821A8207C01D830C83B70188819981F4
:1022E0000E944B1DCE01DF91CF911F910F91FF9066
:1022F000EF9008951F920F920FB60F9211240BB614
:102300000F922F933F934F935F936F937F938F938E
:102310009F93AF93BF93EF93FF9380918A04909123
:102320008B04A0918C04B0918D04892B8A2B8B2B6C
:1023300051F180917504E0917604F09177049081D9
:102340008927808380918A0490918B04A0918C04CA
:10235000B0918D04181619061A061B06C4F4809154
:102360008A0490918B04A0918C04B0918D04019704
:10237000A109B10980938A0490938B04A0938C04E3
:10238000B0938D0404C0809100020E946A0DFF91F9
:10239000EF91BF91AF919F918F917F916F915F91DD
:1023A0004F913F912F910F900BBE0F900FBE0F904A
:1023B0001F9018956115710579F0FB0101900020BF
:1023C000E9F73197AF01461B570BDC01ED91FC910A
:1023D0000280F381E02D099480E090E00895CF938E
:1023E000DF93C8E3D3E08E859F850E94AC1B8F816D
:1023F00098850E94AC1B888199810E94AC1B89E65C
:1024000093E00E945D0A82E693E00E945D0A8BE5FC
:1024100093E00E945D0A8091A2039091A3030E9421
:10242000AC1B88EC93E00E94330581EC93E00E94A2
:102430000E048EEE93E00E94330587EE93E0DF9169
:10244000CF910C940E04CF93DF93CDB7DEB7E19715
:102450000FB6F894DEBF0FBECDBF789484B582600E
:1024600084BD84B5816084BD85B5826085BD85B538
:10247000816085BD80916E00816080936E001092B6
:102480008100809181008260809381008091810031
:1024900081608093810080918000816080938000C2
:1024A0008091B10084608093B1008091B000816020
:1024B0008093B00080919100826080939100809120
:1024C0009100816080939100809190008160809361
:1024D00090008091A10082608093A1008091A10072
:1024E00081608093A1008091A00081608093A00012
:1024F000809121018260809321018091210181607E
:10250000809321018091200181608093200180913E
:102510007A00846080937A0080917A008260809350
:102520007A0080917A00816080937A0080917A00AD
:10253000806880937A001092C10010923403109248
:10254000350310923603109237031092F202109264
:10255000F3021092F4021092F50260ED77E080E051
:1025600090E00E94470583E592E0909333038093C7
:1025700032030E94620A2FB7F89480914F02909123
:102580005002A0915102B09152022FBF8093F202EB
:102590009093F302A093F402B093F5026FE172E01E
:1025A00080913203909133030E94DA116AE070E067
:1025B00080E090E00E94470581E08093060381E679
:1025C00094E00E94800686E594E00E94800683EEF7
:1025D00093E00E946A088DEB93E00E946A08809164
:1025E000B1039091B203A091B303B091B403888F6B
:1025F000998FAA8FBB8FCE0148960E94960B80912F
:10260000B5039091B603A091B703B091B8038C8B3A
:102610009D8BAE8BBF8BCE0144960E94960B809112
:10262000AD039091AE03A091AF03B091B003888B3E
:10263000998BAA8BBB8BCE0140960E94960B809102
:10264000B9039091BA03A091BB03B091BC038C87EE
:102650009D87AE87BF87CE010C960E94960B809116
:10266000A9039091AA03A091AB03B091AC03888712
:102670009987AA87BB87CE0108960E94960B81E6B0
:1026800094E099AB88AB80913C0390913D03BE01EF
:10269000605D7F4F01960E944C0B86E594E09FA7FA
:1026A0008EA780913C0390913D03BE01625D7F4FF8
:1026B00001960E944C0B8BE494E09DA78CA7CE0161
:1026C0008C960E94070B80E494E09BA78AA7CE011A
:1026D0008A960E94070B85E394E099A788A7CE010C
:1026E00088960E94070B8AE294E09FA38EA3CE01F6
:1026F00086960E94070B8FE194E09DA38CA3CE01E8
:1027000084960E94070B84E194E09BA38AA3CE01E8
:1027100082960E94070B89E094E099A388A3CE01DA
:1027200080960E94070B83EE93E09F8F8E8F80919F
:102730004A0390914B03BE01625E7F4F01960E9457
:102740008A0A8DEB93E09D8F8C8F80914A03909144
:102750004B03BE01645E7F4F01960E948A0A80EAA5
:1027600093E090934E0380934D0320E030E040E0EF
:1027700050E060E070E083EE93E00E94AC070E94BE
:10278000620A11E00E94E10B83309105D1F06CF4F4
:1027900020915103309152038130910561F00297ED
:1027A00009F03BC32150310908C08430910549F03C
:1027B0000597B1F032C32F5F3F4F30935203209300
:1027C000510362E673E0CE0101960E94A409CE0196
:1027D00001960E94AE0DCE0101960E945D0A1DC3B6
:1027E00069E673E0CE0101960E94A409CE0101962C
:1027F0000E94AE0DCE0101960E945D0A61E372E077
:1028000083E592E00E94DA1180914F03909150038A
:102810000E94540C80914F03909150038130910598
:1028200009F4E3C08230910509F405C2892B09F04F
:10283000F0C221E330E04AEF50E061E070E083EE67
:1028400093E00E94AC0721E330E04AEF50E061E002
:1028500070E083EE93E00E94AC076AEF70E080E0E6
:1028600090E00E9447051A8219821C821B821E82F8
:102870001D8248E050E06BE372E0CE0101960E94B9
:102880003A11CE0101960E94DC0C89819A810E9446
:10289000AC1BE12CF12C8091430390914403E8168A
:1028A000F90608F09CC0E0913F03F0914003C70196
:1028B000880F991FE80FF91F0190F081E02D8081AA
:1028C0009181A0913803B0913903019709F00CC3AD
:1028D00080859185009779F58285882309F404C362
:1028E00060E08D919C910E949206E0913803F091F6
:1028F000390382819381FC0112870E947306E09163
:102900003803F091390340E050E0BA0180819181B1
:102910000E94A706E0913803F091390340E050E0AF
:1029200066E173E4828193810E94A70668EE73E0FA
:1029300080E090E0CDC28130910539F58285882311
:1029400009F4D2C28D919C91FC0112870E947306FA
:10295000E0913803F091390360E0828193810E9415
:102960009206E0913803F091390340E050E066E1CF
:1029700073E4808191810E94A706E0913803F09171
:10298000390340E050E0BA019BC2019609F0ACC2A5
:102990008285882309F4A8C28D919C91FC0112873D
:1029A0000E947306E0913803F091390360E0828160
:1029B00093810E949206E0913803F091390340E040
:1029C00050E0BA01808191810E94A706E09138030E
:1029D000F091390340E050E066E173E471C20E9477
:1029E000E10B059709F03FCFF8C122E430E04DE15B
:1029F00050E068E870E083EE93E00E94AC0722E4C8
:102A000030E04DE150E068E870E08DEB93E00E942B
:102A1000AC076AEF70E080E090E00E9447050E94FA
:102A2000E10B8330910541F52CE130E049EF50E0B6
:102A300069E770E083EE93E00E94AC072CE130E0A0
:102A400049EF50E069E770E08DEB93E00E94AC073E
:102A5000E0913803F091390360E0808191810E9418
:102A60009206E0913803F091390382819381FC0151
:102A700012870E9473062FC0843091050CF440C069
:102A80008430910509F0B8C024E130E043E550E01E
:102A900061E870E083EE93E00E94AC0724E130E04F
:102AA00043E550E061E870E08DEB93E00E94AC07F5
:102AB000E0913803F091390380819181FC01128704
:102AC0000E947306E0913803F091390360E082813F
:102AD00093810E949206E0913803F091390340E01F
:102AE00050E06AEF72E4808191810E94A706E09134
:102AF0003803F091390340E050E066E972E43EC0EB
:102B00008130910509F03FC029E230E040E050E01B
:102B100068E570E083EE93E00E94AC0729E230E0C4
:102B200040E050E068E570E08DEB93E00E94AC0778
:102B3000E0913803F091390380819181FC01128783
:102B40000E947306E0913803F091390360E08281BE
:102B500093810E949206E0913803F091390340E09E
:102B600050E06AEF72E4808191810E94A706E091B3
:102B70003803F091390340E050E0BA01828193813B
:102B80000E94A70646CF029779F525E730E04FEF80
:102B900050E06CE270E083EE93E00E94AC0725E722
:102BA00030E04FEF50E06CE270E08DEB93E00E947C
:102BB000AC07E0913803F091390380819181FC01E9
:102BC00012870E947306E0913803F091390360E0A8
:102BD000828193810E949206E0913803F09139033B
:102BE00040E050E0BA017FCFE0913803F091390323
:102BF00040E050E0BA01B7CF0597B1F7E091380354
:102C0000F091390340E050E0BA01808191810E9447
:102C1000A706E0913803F091390340E050E0BA0193
:102C2000828193810E94A7066EEE72E080E090E0C0
:102C30000E944705EEC02BE130E040E050E06EEF2F
:102C400070E083EE93E00E94AC072BE130E040E0BF
:102C500050E06EEF70E083EE93E00E94AC07E091ED
:102C60003F03F0914003409143035091440320E01F
:102C700030E080E090E02417350759F0A191B19140
:102C80006D917C916330710509F001962F5F3F4F84
:102C9000F2CF6C01CC0CDD1C01967C01EE0CFF1C0C
:102CA0001A8219821C821B821E821D8244E050E01F
:102CB00064E472E0CE0101960E943A11CE010196C1
:102CC0000E94DC0C89819A810E94AC1BE0913F0339
:102CD000F0914003EC0DFD1D0190F081E02D828507
:102CE00090E00E94540CE0913F03F0914003DF011B
:102CF000AC0DBD1D0D90BC91A02D1A968C91A0918C
:102D00003803B0913903AF014E0D5F1D882351F197
:102D1000FA0120813181F9019285911123C08D91B1
:102D20009C91FC0112870E947306E0913803F09198
:102D3000390360E0828193810E949206E09138031A
:102D4000F091390340E050E066E972E480819181BE
:102D50000E94A706E0913803F091390340E050E06B
:102D6000BA012CC0FA0120813181F90192859923A1
:102D700009F4E2C08111E0C08D919C91FC011287A1
:102D80000E947306E0913803F091390360E082817C
:102D900093810E949206E0913803F091390340E05C
:102DA00050E0BA01808191810E94A706E09138032A
:102DB000F091390340E050E066E972E4828193814A
:102DC0000E94A70660E570E080E090E00E94470561
:102DD0000E94E10B059709F063CF68EC70E080E09A
:102DE00090E00E944705E0913803F091390340E0FC
:102DF00050E0BA01808191810E94A706E0913803DA
:102E0000F091390340E050E0BA01828193810E9441
:102E1000A706109252031092510380915103909192
:102E2000520397FF03C091958195910960915303D7
:102E3000709154030E941F1A9093500380934F0384
:102E4000009779F42FEF30E040E850E060E070E068
:102E500083EE93E00E94AC072FEF30E040E850E0B3
:102E600011C08130910599F42FEF30E049E150E035
:102E700060E070E083EE93E00E94AC072FEF30E05B
:102E800049E150E060E070E08DEB93E014C0029700
:102E9000A1F422E330E040E050E06FEF70E083EE19
:102EA00093E00E94AC0722E330E040E050E06FEF97
:102EB00070E083EE93E00E94AC070E94170262CCA0
:102EC000828193810E94A7066AEF70E080E090E023
:102ED0000E94470566E470E080E090E00E944705AC
:102EE0008FEFE81AF80AD7CC8D919C91FC011287DC
:102EF0000E947306E0913803F091390360E082810B
:102F000093810E949206E0913803F091390340E0EA
:102F100050E068E473E4808191810E94A706E0910B
:102F20003803F091390340E050E068E473E48281B3
:102F300093810E94A706CECF8D919C91FC011287B0
:102F40000E947306E0913803F091390360E08281BA
:102F500093810E949206E0913803F091390340E09A
:102F600050E066E173E4808191810E94A706E091C0
:102F70003803F091390340E050E066E173E41ECF7E
:102F8000BF92CF92DF92EF92FF920F931F93CF9356
:102F9000DF9300D000D0CDB7DEB7E3E5F2E01382D7
:102FA000128288EE93E0A0E0B0E084839583A6834C
:102FB000B78381E192E09183808385EC90E09587EF
:102FC000848784EC90E09787868780EC90E0918BF3
:102FD000808B81EC90E0938B828B82EC90E0958BE0
:102FE000848B86EC90E0978B868B118E128E138EDD
:102FF000148EE0EFF2E01682178210861186128698
:1030000013861486158616861786108A118A128AE8
:10301000138A148A158A81E6C82E84E0D82E89E0A6
:1030200090E0F6019183808398E0E92EF12CF38201
:10303000E2820AE010E01583048340E050E0BA0128
:10304000C6010E94A706BB24B394F601B286C6014E
:103050000E94730626E5C22E24E0D22E87E090E07F
:10306000F6019183808386E090E09383828385E0FC
:1030700090E09583848340E050E0BA01C6010E944D
:10308000A706F601B286C6010E947306EBE4F4E0DF
:1030900085E290E09383828380E490E0958384834B
:1030A00026E930E03783268381E090E091878087AE
:1030B00091838083E0E4F4E047E250E0538342836D
:1030C00041E450E05583448337832683118610867C
:1030D00091838083E5E3F4E049E250E05383428347
:1030E00042E450E055834483378326834FEF5FEFFC
:1030F0005187408791838083EAE2F4E06DE270E0DB
:103100007383628364E470E075836483378326830A
:103110001187008791838083EFE1F4E06FE270E034
:103120007383628365E470E07583648337832683E9
:1031300026EF3FEF3187208791838083E4E1F4E03D
:1031400028E230E03383228326E330E03583248392
:1031500024EF31E0378326839187808763E0C62E92
:10316000D12CD182C082E9E0F4E08AE290E093833E
:10317000828387E390E09583848337832683518716
:103180004087D182C08246E050E06CE270E083EE7E
:1031900093E00E94010942E050E06CE070E08DEBAA
:1031A00093E00E94010986E190E09093BA03809336
:1031B000B90360E00E94F70487E190E09093B603C2
:1031C0008093B50360E00E94F70488E190E090935B
:1031D000B2038093B10360E00E94F70489E190E0BC
:1031E0009093AE038093AD0360E00E94F7048AE100
:1031F00090E09093AA038093A90360E00E94F704F3
:1032000000EA13E0F801F582E4821782168280E278
:1032100090E00E94171BF8019383828305E513E079
:103220008CE291E0F8019383828384E690E09583B9
:103230008483F186E0861386128680E290E00E9405
:10324000171BF80197838683F08AE786128A118A12
:1032500080E290E00E94171BF80196878587F78A25
:10326000E68A118E108E80E290E00E94171BF80112
:10327000958B848B80E090EDA2E0B4E4838F948FF3
:10328000A58FB68F8EEA97E9AAE0B4E4878F90A362
:10329000A1A3B2A38FE195EDA2E1B4E483A394A32B
:1032A000A5A3B6A380E090E9ABE1B4E487A390A71F
:1032B000A1A7B2A784EA90EDA4E2B4E483A794A7FF
:1032C000A5A7B6A781E79DE9AEE2B4E487A790ABD6
:1032D000A1ABB2AB8CE59FEFA8E3B4E483AB94ABB6
:1032E000A5ABB6AB8CE59FEFA3E4B4E487AB90AF9E
:1032F000A1AFB2AF8AE097EAAFE4B4E483AF94AF92
:10330000A5AFB6AF80E090E0ACE5B4E48093940361
:1033100090939503A0939603B09397038FE195E163
:10332000A9E6B4E48093980390939903A0939A0339
:10333000B0939B0388E491EFA6E7B4E480939C03E9
:1033400090939D03A0939E03B0939F038BE090E026
:103350009183808360E00E94F70460E773E08BE56F
:1033600093E00E94E90960E773E08BE593E00E9437
:10337000E9096CE973E08BE593E00E94E9096CE9E7
:1033800073E08BE593E00E94E90960E773E082E671
:1033900093E00E94E90960E773E089E693E00E9408
:1033A000E909F801638D748D858D968D9B01AC01C3
:1033B0000E94701A69837A838B839C83BE016F5F3E
:1033C0007F4F89E693E00E94E909EFE4F3E0D582BC
:1033D000C482118210821382128208E313E0F80182
:1033E000F382E2821582148280E190E00E94171B32
:1033F000F80191838083F286E1861486138680E14A
:1034000090E00E94171BF80190878783F18AE08A79
:10341000138A128A80E190E00E94171BF8019787B7
:1034200086870F900F900F900F90DF91CF911F9193
:103430000F91FF90EF90DF90CF90BF90089597FB92
:10344000072E16F4009407D077FD09D00E945B1A6E
:1034500007FC05D03EF4909581959F4F0895709597
:1034600061957F4F0895052E97FB1EF400940E94EE
:103470004A1A57FD07D00E94CC1D07FC03D04EF41A
:103480000C944A1A50954095309521953F4F4F4FD7
:103490005F4F089590958095709561957F4F8F4F00
:1034A0009F4F0895EE0FFF1F0024001C0BBE0790D6
:1034B000F691E02D0994AA1BBB1B51E107C0AA1F7E
:1034C000BB1FA617B70710F0A61BB70B881F991FC5
:1034D0005A95A9F780959095BC01CD010895505853
:1034E000BB27AA270E94871A0C94921D0E94841D54
:1034F00038F00E948B1D20F039F49F3F19F426F418
:103500000C94811D0EF4E095E7FB0C947B1DE92FD4
:103510000E94A31D58F3BA17620773078407950723
:1035200020F079F4A6F50C94C51D0EF4E0950B2E51
:10353000BA2FA02D0B01B90190010C01CA01A00105
:103540001124FF27591B99F0593F50F4503E68F160
:103550001A16F040A22F232F342F4427585FF3CFA1
:10356000469537952795A795F0405395C9F77EF472
:103570001F16BA0B620B730B840BBAF09150A1F0BB
:10358000FF0FBB1F661F771F881FC2F70EC0BA0F41
:10359000621F731F841F48F4879577956795B795C9
:1035A000F7959E3F08F0B0CF9395880F08F09927C4
:1035B000EE0F9795879508950E94E31A6894B111CC
:1035C0000C94C61D08950E94AB1D88F09F5798F07B
:1035D000B92F9927B751B0F0E1F0660F771F881F18
:1035E000991F1AF0BA95C9F714C0B13091F00E9432
:1035F000C51DB1E008950C94C51D672F782F88274D
:10360000B85F39F0B93FCCF3869577956795B39558
:10361000D9F73EF490958095709561957F4F8F4FC7
:103620009F4F08950E94571D08F48FEF0895CF9380
:10363000DF938230910510F482E090E0E0919804ED
:10364000F091990420E030E0C0E0D0E0309711F133
:103650004081518148175907C0F04817590761F454
:1036600082819381209719F09B838A832BC090934A
:1036700099048093980426C02115310519F042174A
:10368000530718F49A01BE01DF01EF010280F381B4
:10369000E02DDCCF2115310509F1281B390B243031
:1036A000310590F412968D919C91139761157105D7
:1036B00021F0FB019383828304C09093990480934B
:1036C0009804FD01329644C0FD01E20FF31F81937F
:1036D0009193225031092D933C933AC02091960446
:1036E00030919704232B41F420910302309104027E
:1036F00030939704209396042091010230910202A6
:103700002115310541F42DB73EB740910502509186
:103710000602241B350BE0919604F0919704E21702
:10372000F307A0F42E1B3F0B2817390778F0AC01E4
:103730004E5F5F4F2417350748F04E0F5F1F5093C1
:103740009704409396048193919302C0E0E0F0E0E7
:10375000CF01DF91CF9108950F931F93CF93DF9304
:10376000009709F48CC0FC013297138212820091F9
:103770009804109199040115110581F4208131817B
:10378000820F931F209196043091970428173907D0
:1037900079F5F0939704E093960471C0D80140E066
:1037A00050E0AE17BF0750F412962D913C9113973D
:1037B000AD012115310509F1D901F3CF9D01DA01E0
:1037C0003383228360817181860F971F821793074D
:1037D00069F4EC0128813981260F371F2E5F3F4F96
:1037E000318320838A819B8193838283452B29F4B3
:1037F000F0939904E093980442C01396FC93EE93DF
:103800001297ED01499159919E01240F351FE2173E
:10381000F30771F480819181840F951F02961196B0
:103820009C938E938281938113969C938E9312978F
:10383000E0E0F0E0D80112968D919C9113970097EB
:1038400019F0F8018C01F6CF8D919C9198012E5FB3
:103850003F4F820F931F20919604309197042817B1
:10386000390769F4309729F410929904109298045A
:1038700002C0138212821093970400939604DF9182
:10388000CF911F910F9108956F927F928F929F9287
:10389000AF92BF92CF92DF92EF92FF920F931F935E
:1038A000CF93DF93EC01009789F4CB01DF91CF91A7
:1038B0001F910F91FF90EF90DF90CF90BF90AF904E
:1038C0009F908F907F906F900C94171BFC01E60FD8
:1038D000F71F9C0122503109E217F30708F4ACC02E
:1038E000D9010D911C91119706171707B0F00530FB
:1038F000110508F49FC0C80104978617970708F4BC
:1039000099C002501109061B170B019311936D9377
:103910007C93CF010E94AC1B8DC05B01A01AB10A41
:103920004C01800E911EA0919804B091990440E042
:1039300050E0E12CF12C109709F44AC0A815B90504
:10394000D1F56D907C901197630182E0C80ED11C77
:10395000CA14DB0480F1A3014A195B096A0182E001
:10396000C80ED11C1296BC9012971396AC91B5E07C
:10397000CB16D10440F0B282A38351834083D90196
:103980006D937C930AC00E5F1F4FC301800F911F80
:10399000F90191838083EB2DFA2FE114F10431F0CA
:1039A000D7011396FC93EE93129744C0F0939904B9
:1039B000E09398043FC08D919C9111974817590747
:1039C00008F4AC017D0112960D90BC91A02DB3CFEF
:1039D000809196049091970488159905E1F4461713
:1039E0005707C8F48091010290910202009741F4B8
:1039F0008DB79EB74091050250910602841B950B2E
:103A0000E817F907C8F4F0939704E0939604F901D6
:103A1000718360830FC0CB010E94171B7C0100974C
:103A200059F0A801BE010E94321DCE010E94AC1BBC
:103A3000C70104C0CE0102C080E090E0DF91CF91C9
:103A40001F910F91FF90EF90DF90CF90BF90AF90BC
:103A50009F908F907F906F90089581E090E0F89410
:103A60000C94EE1DFB01DC0102C001900D9241504F
:103A70005040D8F70895DC0101C06D93415050408B
:103A8000E0F70895FB01DC018D9101908019011090
:103A9000D9F3990B0895FB01DC0101900D920020F0
:103AA000E1F708950E94571D08F481E00895990FE9
:103AB0000008550FAA0BE0E8FEEF16161706E807F8
:103AC000F907C0F012161306E407F50798F0621B19
:103AD000730B840B950B39F40A2661F0232B242BEE
:103AE000252B21F408950A2609F4A140A6958FEF0D
:103AF000811D811D089597F99F6780E870E060E05F
:103B000008959FEF80EC089500240A941616170676
:103B100018060906089500240A94121613061406BE
:103B200005060895092E0394000C11F4882352F021
:103B3000BB0F40F4BF2B11F460FF04C06F5F7F4FD9
:103B40008F4F9F4F089557FD9058440F551F59F0C0
:103B50005F3F71F04795880F97FB991F61F09F3F7A
:103B600079F087950895121613061406551FF2CFA3
:103B70004695F1DF08C0161617061806991FF1CFF3
:103B800086957105610508940895E894BB2766271A
:103B90007727CB0197F90895A1E21A2EAA1BBB1B28
:103BA000FD010DC0AA1FBB1FEE1FFF1FA217B30709
:103BB000E407F50720F0A21BB30BE40BF50B661F1F
:103BC000771F881F991F1A9469F7609570958095E3
:103BD00090959B01AC01BD01CF01089511E0C8E2B1
:103BE000D1E004C0FE010E94521A2196C932D107C9
:063BF000C9F7F894FFCFB5
:103BF600FF00009A048000000000000000000000A2
:103C060000AE013D0D770155016901F5010300562E
:103C16004D4450565F317C315F564D4450560D0A27
:103C26000063686F696365203D2000646973746191
:0A3C36006E6365006C696E650000A6
:00000001FF
