:100000000C941C010C9489050C945E050C9433052A
:100010000C9408050C94DD040C94B2040C94870431
:100020000C945C040C94030A0C94030A0C94030AC9
:100030000C9446010C949B0C0C9446010C944601C4
:100040000C9446010C9446010C9446010C94460114
:100050000C9446010C9446010C9446010C94120435
:100060000C9446010C94F8020C94CE020C944601B8
:100070000C9446010C9446010C9446010C944601E4
:100080000C9446010C9446010C9446010C944601D4
:100090000C9446010C9446010C9446010C944601C4
:1000A0000C9446010C9446010C9446010C944601B4
:1000B0000C9446010C9446010C9446010C944601A4
:1000C0000C9446010C9446010C9446010C94A40235
:1000D0000C947A020C9446010C9446010C9446014F
:1000E0000C9446014F03520341034503490389031E
:1000F00056035A036003640368036E0372037603B6
:1001000089037C03800384037C06810686069006AF
:100110009A061307A406AC06B406BE06C806D206A5
:10012000E106EB061307F506FF06090700002100AC
:10013000240027002A002D003000330001010000B8
:10014000040107010A0100002200250028002B00FD
:100150002E003100340002010000050108010B01EE
:1001600005050505070508080808020202020A0A33
:100170000808040404040101010101010101030351
:10018000030303030303040707070C0C0C0C0C0CFC
:100190000C0C0202020206060606060606060B0BF9
:1001A0000B0B0B0B0B0B010210202008081020403A
:1001B000102040800201020108040201010204082B
:1001C00010204080804020100804020180040201B9
:1001D0008040201008040201080402010102040802
:1001E00010204080010204081020408000000A0B0B
:1001F00002090C0D0E0807030401000000000000B6
:1002000000000000000000000000000000000000EE
:1002100000000000000000001211100000000000AB
:1002200000000000000000000000000000000000CE
:100230000000020006143A0D11241FBECFEFD1E2D8
:10024000DEBFCDBF12E0A0E0B2E0EEE2F5E300E0F9
:100250000BBF02C007900D92AA35B107D9F725E070
:10026000AAE5B2E001C01D92A336B207E1F711E0A2
:10027000CBE1D1E004C02197FE010E94F116CA3102
:10028000D107C9F70E946E0D0C948A1A0C940000D5
:10029000FC01A089B1898C91A689B78982FD0FC024
:1002A0009C91818D8F5F8F73228D821749F0218DF4
:1002B000DF01A20FB11D5D969C93818F08958C91F3
:1002C0000895FC01918D828D981761F0828DDF0178
:1002D000A80FB11D5D968C91928D9F5F9F73928F39
:1002E00090E008958FEF9FEF0895FC01918D828D2E
:1002F000981731F0828DE80FF11D858D90E00895FB
:100300008FEF9FEF0895FC01918D228D892F90E052
:10031000805C9F4F821B91098F73992708958EE708
:1003200092E00E94830121E0892B09F420E0822FD2
:1003300008958BE193E00E94830121E0892B09F469
:1003400020E0822F0895FC01848DDF01A80FB11DEC
:10035000A35ABF4F2C91848D90E001968F739927FB
:10036000848FA689B7892C93A089B1898C918064E8
:100370008C93938D848D981306C00288F389E02DA9
:1003800080818F7D80830895EF92FF920F931F935A
:10039000CF93DF93EC0181E0888F9B8D8C8D981338
:1003A00005C0E889F989808185FD24C0F62E0B8D72
:1003B00010E00F5F1F4F0F731127E02E8C8DE81296
:1003C0000CC00FB607FCFACFE889F989808185FF58
:1003D000F5CFCE010E94A301F1CF8B8DFE01E80F76
:1003E000F11DE35AFF4FF0820B8FEA89FB89808170
:1003F000806207C0EE89FF896083E889F98980817E
:100400008064808381E090E0DF91CF911F910F9114
:10041000FF90EF900895CF93DF93EC01888D8823B0
:10042000C9F0EA89FB89808185FD05C0A889B98961
:100430008C9186FD0FC00FB607FCF5CF808185FF3C
:10044000F2CFA889B9898C9185FFEDCFCE010E94AA
:10045000A301E7CFDF91CF91089580E090E0892B51
:1004600021F00E949901811121C080E090E0892B48
:1004700041F080E090E0892B21F00E940000811182
:1004800018C080E090E0892B21F00E948F0181113B
:1004900013C080E090E0892BA1F080E090E0892BF0
:1004A00081F00E94000081110AC008950E9400009E
:1004B000DCCF0E940000E5CF0E940000EACF0C9440
:1004C00000000895089508950E945A19FC01808142
:1004D00091810C94C218FC01218932892F5F3F4F12
:1004E000328B218B8FE292E00E943D0C87E392E0F9
:1004F0000C943D0C1F920F920FB60F9211240BB665
:100500000F922F933F934F935F936F937F938F93AC
:100510009F93AF93BF93EF93FF938EE792E00E9478
:10052000A301FF91EF91BF91AF919F918F917F9127
:100530006F915F914F913F912F910F900BBE0F9054
:100540000FBE0F901F9018951F920F920FB60F922B
:1005500011240BB60F922F933F934F935F936F939A
:100560007F938F939F93AF93BF93EF93FF938EE708
:1005700092E00E944801FF91EF91BF91AF919F914E
:100580008F917F916F915F914F913F912F910F903C
:100590000BBE0F900FBE0F901F9018951F920F92D9
:1005A0000FB60F9211240BB60F922F933F934F93D8
:1005B0005F936F937F938F939F93AF93BF93EF93CB
:1005C000FF938BE193E00E94A301FF91EF91BF9114
:1005D000AF919F918F917F916F915F914F913F91DB
:1005E0002F910F900BBE0F900FBE0F901F9018957C
:1005F0001F920F920FB60F9211240BB60F922F93EA
:100600003F934F935F936F937F938F939F93AF939A
:10061000BF93EF93FF938BE193E00E944801FF911A
:10062000EF91BF91AF919F918F917F916F915F916A
:100630004F913F912F910F900BBE0F900FBE0F90D7
:100640001F901895362F90E0FC01E451FE4F449125
:10065000FC01EA55FE4F2491FC01E05AFE4F8491C3
:10066000882309F469C0442309F453C050E0FA0117
:100670003197E231F10508F04CC0EE58FF4F0C9471
:10068000F116909180009F7707C0909180009F7D28
:1006900003C090918000977F909380003AC094B5FA
:1006A0009F7702C094B59F7D94BD33C09091B000F8
:1006B0009F7703C09091B0009F7D9093B00029C0B8
:1006C000909190009F7707C0909190009F7D03C00C
:1006D00090919000977F909390001BC09091A00004
:1006E0009F7707C09091A0009F7D03C09091A000CC
:1006F000977F9093A0000DC0909120019F7707C035
:10070000909120019F7D03C090912001977F90934D
:100710002001E82FF0E0EE0FFF1FEA5BFE4FA591EE
:10072000B4918FB7F894EC91311103C020952E232A
:1007300001C02E2B2C938FBF0895CF93DF9390E0B1
:10074000FC01EA55FE4F2491FC01E05AFE4F8491D2
:10075000882361F190E0880F991FFC01E45DFE4F52
:10076000C591D491FC01EA5BFE4FA591B491611152
:1007700009C09FB7F8948881209582238883EC91E3
:100780002E230BC0623061F49FB7F8943881822F1A
:10079000809583238883EC912E2B2C939FBF06C0DA
:1007A0008FB7F894E8812E2B28838FBFDF91CF91EC
:1007B0000895CF93DF93EC0188859985009711F018
:1007C0000E94C2188E8187FD05C060E0DF91CF9145
:1007D0000C949D03DF91CF9108953FB7F8948091D9
:1007E000760290917702A0917802B091790226B5B5
:1007F000A89B05C02F3F19F00196A11DB11D3FBF59
:10080000BA2FA92F982F8827820F911DA11DB11DE6
:10081000BC01CD0142E0660F771F881F991F4A95E2
:10082000D1F708951F920F920FB60F9211242F93B4
:100830003F938F939F93AF93BF9380917A02909150
:100840007B02A0917C02B0917D023091750223E081
:10085000230F2D3720F40196A11DB11D05C026E8F8
:10086000230F0296A11DB11D2093750280937A0279
:1008700090937B02A0937C02B0937D0280917602DC
:1008800090917702A0917802B09179020196A11D12
:10089000B11D8093760290937702A0937802B09373
:1008A0007902BF91AF919F918F913F912F910F90BE
:1008B0000FBE0F901F9018951F920F920FB60F92B8
:1008C00011240BB60F922F933F934F935F936F9327
:1008D0007F938F939F93AF93BF93EF93FF93E09199
:1008E0000E02F0910F020995FF91EF91BF91AF9128
:1008F0009F918F917F916F915F914F913F912F9138
:100900000F900BBE0F900FBE0F901F9018951F9267
:100910000F920FB60F9211240BB60F922F933F93A5
:100920004F935F936F937F938F939F93AF93BF93F7
:10093000EF93FF93E0910C02F0910D020995FF9166
:10094000EF91BF91AF919F918F917F916F915F9147
:100950004F913F912F910F900BBE0F900FBE0F90B4
:100960001F9018951F920F920FB60F9211240BB67D
:100970000F922F933F934F935F936F937F938F9338
:100980009F93AF93BF93EF93FF93E0910202F09197
:1009900003020995FF91EF91BF91AF919F918F91C4
:1009A0007F916F915F914F913F912F910F900BBE6F
:1009B0000F900FBE0F901F9018951F920F920FB6B9
:1009C0000F9211240BB60F922F933F934F935F9387
:1009D0006F937F938F939F93AF93BF93EF93FF9307
:1009E000E0910002F09101020995FF91EF91BF9112
:1009F000AF919F918F917F916F915F914F913F91B7
:100A00002F910F900BBE0F900FBE0F901F90189557
:100A10001F920F920FB60F9211240BB60F922F93C5
:100A20003F934F935F936F937F938F939F93AF9376
:100A3000BF93EF93FF93E0910A02F0910B020995A7
:100A4000FF91EF91BF91AF919F918F917F916F91A6
:100A50005F914F913F912F910F900BBE0F900FBE62
:100A60000F901F9018951F920F920FB60F9211249E
:100A70000BB60F922F933F934F935F936F937F9398
:100A80008F939F93AF93BF93EF93FF93E0910802EF
:100A9000F09109020995FF91EF91BF91AF919F915C
:100AA0008F917F916F915F914F913F912F910F9017
:100AB0000BBE0F900FBE0F901F9018951F920F92B4
:100AC0000FB60F9211240BB60F922F933F934F93B3
:100AD0005F936F937F938F939F93AF93BF93EF93A6
:100AE000FF93E0910602F09107020995FF91EF91C3
:100AF000BF91AF919F918F917F916F915F914F9136
:100B00003F912F910F900BBE0F900FBE0F901F9033
:100B100018951F920F920FB60F9211240BB60F92D9
:100B20002F933F934F935F936F937F938F939F93F5
:100B3000AF93BF93EF93FF93E0910402F09105020E
:100B40000995FF91EF91BF91AF919F918F917F9107
:100B50006F915F914F913F912F910F900BBE0F902E
:100B60000FBE0F901F9018950F931F93CF93DF9395
:100B7000EC01088119817B836A83CB01880F991F5F
:100B80000E942D18998388838C819D81D80140E033
:100B900050E04817590791F0E881F9819A01220F36
:100BA000331FE20FF31F309729F02D913C911197DD
:100BB000318320834F5F5F4F1296EBCFC801DF91E7
:100BC000CF911F910F910C94C2180F931F93CF9345
:100BD000DF93EC01088119817B836A83CB01880F45
:100BE000991F0E942D18998388838C819D81D8013B
:100BF00040E050E04817590791F0E881F9819A01E7
:100C0000220F331FE20FF31F309729F02D913C91F3
:100C10001197318320834F5F5F4F1296EBCFC8014E
:100C2000DF91CF911F910F910C94C218CF93DF9356
:100C3000EC0161E08E810E949D0361E08A810E9447
:100C40009D0361E08C810E949D03DF91CF91089507
:100C5000CF92DF92EF92FF920F931F93CF93DF9388
:100C6000EC016A017B0120E030E04FE753E4C7016B
:100C7000B6010E942318181674F020E030E0A90194
:100C8000C701B6010E94661987FF0BC0F7FAF094FE
:100C9000F7F8F09406C0C12CD12C8FE7E82E83E43E
:100CA000F82EC886D986EA86FB86C701B6010E945F
:100CB000ED176B017C018B010E80DF81C02D61E09F
:100CC0008C2F0E949D03C114D10409F4AFC00F3FC3
:100CD000110509F4ADC0FE01FF27E451FE4FE49178
:100CE0004E2F50E0FA013197E231F10508F09BC038
:100CF000EC57FF4F0C94F11684B5806884BDC7BCD7
:100D0000A3C084B5806284BDC8BC9EC080918000B1
:100D1000806880938000D0928900C092880094C03F
:100D200080918000806280938000D0928B00C0927E
:100D30008A008AC080918000886080938000D09271
:100D40008D00C0928C0080C08091B000806880933C
:100D5000B000C092B30078C08091B00080628093F0
:100D6000B000C092B40070C0809190008068809301
:100D70009000D0929900C092980066C08091900037
:100D8000806280939000D0929B00C0929A005CC0D9
:100D900080919000886080939000D0929D00C092D6
:100DA0009C0052C08091A00080688093A000809138
:100DB000A0008F7B8093A000D092A900C092A800D1
:100DC00043C08091A00080628093A000D092AB00CD
:100DD000C092AA0039C08091A00088608093A000D2
:100DE000D092AD00C092AC002FC0809120018068ED
:100DF00080932001D0922901C092280125C08091C2
:100E00002001806280932001D0922B01C0922A01A0
:100E10001BC080912001886080932001D0922D0119
:100E2000C0922C0111C00038110514F460E001C01B
:100E300061E08C2FDF91CF911F910F91FF90EF9088
:100E4000DF90CF900C942203DF91CF911F910F91EF
:100E5000FF90EF90DF90CF900895EF92FF920F9365
:100E60001F93CF93DF93EC018B016817790709F487
:100E700086C0DB0114962D913C9115978A819B8148
:100E80008217930718F5E880F9803B832A83C9010C
:100E9000880F991F0E942D18888399834C815D814A
:100EA000D701FC0120E030E02417350761F03097CE
:100EB00029F08D919C911197918380832F5F3F4FF3
:100EC00012963296F1CFC7010E94C2188C819D8183
:100ED000F801448155818417950708F4AC0180E03E
:100EE00090E08417950791F09C01220F331FD801E1
:100EF000ED91FC91E20FF31F60817181E881F9812E
:100F0000E20FF31F718360830196EBCF8C819D818B
:100F1000F801248135818217930768F0D80114966F
:100F20008D919C9115972C813D818217930738F5FF
:100F30009D838C8324C09C01220F331FD8011496FB
:100F40004D915C9115978417950740F7F801A081A2
:100F5000B181A20FB31FE881F981E20FF31F30972F
:100F600021F04D915C91518340834C815D814F5FB5
:100F70005F4F5D834C8301962E5F3F4FDFCFCE01E5
:100F8000DF91CF911F910F91FF90EF900895EF9215
:100F9000FF920F931F93CF93DF9300D000D0CDB774
:100FA000DEB78C01FC0175836483CB0108969383C3
:100FB00082837C01EE0CFF1CC70149835A836B833B
:100FC0007C830E942D18F801808391839701205122
:100FD000310949815A81240F351FDA01FC01A2171A
:100FE000B30741F08D919D91309711F091838083EB
:100FF0003296F5CF0F900F900F900F90DF91CF9119
:101000001F910F91FF90EF9008950F931F93CF932F
:10101000DF93EC01088119817B836A83CB01880F00
:10102000991F880F991F0E942D1888839983FC01AE
:10103000D80120E030E08C819D812817390780F4A9
:10104000309749F04D915D916D917C91139740835C
:101050005183628373832F5F3F4F34961496EBCF97
:10106000C801DF91CF911F910F910C94C218AF92DC
:10107000BF92CF92DF92EF92FF920F931F93CF9385
:10108000DF93EC01EC80FD8087010F5F1F4FE016BE
:10109000F10608F050C06B018A819B81801791078F
:1010A00068F59701275F3F4F8217930738F5A880AF
:1010B000B9803B832A83C901880F991F880F991F24
:1010C0000E942D1888839983D501FC0120E030E02F
:1010D0002E153F0581F0309749F04D915D916D914E
:1010E0007C91139740835183628373832F5F3F4FBB
:1010F00014963496EDCFC5010E94C2188C819D8153
:101100009C01220F331F220F331F80179107B0F469
:10111000E881F981E20FF31F309749F0D6014D9134
:101120005D916D917C9140835183628373830196BD
:101130002C5F3F4FEACF0E151F0510F41D830C8363
:10114000DF91CF911F910F91FF90EF90DF90CF90A3
:10115000BF90AF900895CF92DF92EF92FF920F93DE
:101160001F93CF93DF93CDB7DEB729970FB6F894CF
:10117000DEBF0FBECDBF8C010E94ED03D8011E96CD
:10118000CD90DD90ED90FC905197DC01CB018C1956
:101190009D09AE09BF09C297A105B10568F3F8948E
:1011A000F801848195819A8389830084F185E02DFB
:1011B0007F018FEFE81AF80A80818B83D8019C9118
:1011C0005296ED91FC91539754968C91992309F482
:1011D00030C09081982B9C839081809589238D834A
:1011E0008D818E8388E08F835C816D814B813F810F
:1011F0002E8189819A81D701508347FD252F3A9509
:101200002083262F39F0441F00C0000060830000B7
:1012100000C0F2CF38E04D9160830000019761F784
:10122000D8015396FC93EE9352974B833F832E83C2
:101230003AC09081982B9C839081809589238D83DF
:101240008D81888788E089875C816D814B813985B4
:10125000288589819A81D701508347FD252F00C0B9
:1012600000C0208300C000C000C000C000C0608378
:101270000000262F3A9541F0441F000000C000C036
:1012800000C000C000C0E8CF38E04D9100C06083CE
:1012900000C0019709F7D8015396FC93EE9352973B
:1012A0004B83398728879A83898378940E94ED033A
:1012B000F80166877787808B918B29960FB6F89413
:1012C000DEBF0FBECDBFDF91CF911F910F91FF9079
:1012D000EF90DF90CF900895AF92BF92CF92DF92C0
:1012E000EF92FF920F931F93CF93DF93CDB7DEB7AB
:1012F00065970FB6F894DEBF0FBECDBF8C01FC0121
:10130000E080F180A280B3801A8218861F86188A36
:10131000198A1A8A81E08E878B871C8692E09D87C6
:1013200089836501CC0CDD1CCA0CDB1CDE82CD82FE
:10133000C6010E942D189A878987009741F0A6015F
:1013400060E070E00E945F19BC82AB8204C01E8224
:101350001D821C821B82EF828A81882341F061E01A
:101360008E2D0E949D0360E08E2D0E942203C701F6
:101370009927FC01E05AFE4FE491F0E0EE0FFF1FC9
:10138000EA5BFE4F259134913C8B2B8BFC01EA5597
:10139000FE4F84918D8B85E1FE013196D8011B961D
:1013A00001900D928A95E1F7CE0101960E94D90332
:1013B0007801FBE0EF0EF11CF801818987FD08C080
:1013C00061E00E949D0360E0F80181890E94220390
:1013D00081E0F801848783899489892B19F0C701FA
:1013E0000E94AB0865960FB6F894DEBF0FBECDBF66
:1013F000DF91CF911F910F91FF90EF90DF90CF90F1
:10140000BF90AF9008951F920F920FB60F921124C4
:101410000F900FBE0F901F901895FC018081918155
:101420000C94C218AF92BF92CF92DF92EF92FF92CC
:101430000F931F93CF93DF93CDB7DEB72E970FB6E1
:10144000F894DEBF0FBECDBF8C015B016A01FC01C9
:1014500080A191A19987888782A193A19B878A8780
:1014600084A195A19D878C87AE01485F5F4F63E0A3
:1014700070E07801F4E0EF0EF11C9E012F5F3F4F0A
:10148000C7010E94C70791E0F8019387148616866A
:101490001586108A17868FEF818B128A148A138A19
:1014A000958B168A82E0878B908F118E128E138E09
:1014B000148EB182A082D382C28247E152E063E0FF
:1014C00070E09E01225F3F4FCE0101960E94C70748
:1014D000BE016F5F7F4FC7010E942D07CE010196AD
:1014E0000E940D0A2E960FB6F894DEBF0FBECDBF38
:1014F000DF91CF911F910F91FF90EF90DF90CF90F0
:10150000BF90AF900895CF92DF92EF92FF920F932A
:101510001F93CF93DF936C017A018B01C0E0D0E081
:10152000CE15DF0589F0D8016D918D01D601ED91C1
:10153000FC910190F081E02DC6010995892B11F4F1
:101540007E0102C02196ECCFC701DF91CF911F91A0
:101550000F91FF90EF90DF90CF900895CF92DF92A0
:10156000EF92FF920F931F93CF93DF93E090CE0300
:10157000F090CF03E816F90608F05DC08B01EC018E
:101580008091CC039091CD038C179D07A0F59E010F
:10159000285F3F4F8217930770F5C090CA03D09021
:1015A000CB033093CD032093CC03C901880F991F3F
:1015B0000E942D189093CB038093CA03D60140E07C
:1015C00050E04E155F05A1F0E091CA03F091CB0306
:1015D0009A01220F331FE20FF31F309729F08D91EC
:1015E0009C911197918380834F5F5F4F1296E9CF53
:1015F000C6010E94C2188091CE039091CF039C0136
:10160000220F331F8C179D0788F4E091CA03F091D5
:10161000CB03E20FF31F309729F0D8014D915C9175
:101620005183408301962E5F3F4FECCFD093CF0381
:10163000C093CE0307C08E159F0520F49093CF036F
:101640008093CE03DF91CF911F910F91FF90EF9088
:10165000DF90CF9008950F931F93CF93DF93609106
:10166000C7037091C803EB0121966C177D0760F5E5
:101670008C018091C5039091C6038C179D0748F497
:10168000675F7F4F8617970720F483EC93E00E94F3
:10169000B4052091C7033091C803C901880F991F71
:1016A0002C173D07A0F4E091C303F091C403E80FA9
:1016B000F91F309729F0D8014D915C9151834083F7
:1016C0002F5F3F4F0296ECCFC617D70720F4D09379
:1016D000C803C093C703DF91CF911F910F91089565
:1016E0000F931F93CF93DF932091C0033091C103D9
:1016F0002817390798F58B01EC018091BE03909172
:10170000BF038C179D0750F4BE01685F7F4F86179B
:10171000970720F48CEB93E00E94E5058091C003CD
:101720009091C1039C01220F331F8C179D0788F4F1
:10173000E091BC03F091BD03E20FF31F309729F055
:10174000D8014D915C915183408301962E5F3F4FAC
:10175000ECCFD093C103C093C00307C08217930797
:1017600020F49093C1038093C003DF91CF911F9128
:101770000F9108950F931F93CF93DF9360912E04E1
:1017800070912F04EB0121966C177D0790F58C0169
:1017900080912C0490912D048C179D0748F4675F6D
:1017A0007F4F8617970720F48AE294E00E9405088D
:1017B00020912E0430912F04C901880F991F880FA2
:1017C000991F2C173D07C0F4E0912A04F0912B04D7
:1017D000E80FF91F309749F0D8014D915D916D9157
:1017E0007C9140835183628373832F5F3F4F0496C4
:1017F000E8CFC617D70720F4D0932F04C0932E0448
:10180000DF91CF911F910F9108958F929F92AF9288
:10181000BF92CF92DF92EF92FF920E94ED034B01B5
:101820005C018CE2C82EDD24D394E12CF12C0E94C3
:10183000ED03DC01CB0188199909AA09BB09883E8F
:101840009340A105B10558F021E0C21AD108E10882
:10185000F10888EE880E83E0981EA11CB11CC1140B
:10186000D104E104F10419F7FF90EF90DF90CF90DD
:10187000BF90AF909F908F900895009769F0FC0102
:1018800001900020E9F73197AF01481B590BBC01CB
:101890008BE193E00C94830A80E090E008958F92AE
:1018A0009F92AF92BF920F931F93CF93DF93CDB7C9
:1018B000DEB7A1970FB6F894DEBF0FBECDBF19A259
:1018C000423008F44AE08E010F5D1F4F842E912CA8
:1018D000A12CB12CA50194010E94CF16E62FB901CD
:1018E000CA0101501109EA3014F4E05D01C0E95C5D
:1018F000D801EC93232B242B252B61F7C8010E94E0
:101900003D0CA1960FB6F894DEBF0FBECDBFDF91A0
:10191000CF911F910F91BF90AF909F908F9008959E
:10192000E0911B03F0911C030190F081E02D682FE2
:101930008BE193E009941F920F920FB60F9211243E
:101940000BB60F922F933F934F935F936F937F93B9
:101950008F939F93AF93BF93EF93FF9380915B051A
:1019600090915C05A0915D05B0915E05892B8A2B55
:101970008B2B59F180915A05E0915805F09159054A
:1019800090818927808380915B0590915C05A0916F
:101990005D05B0915E05181619061A061B060CF0B7
:1019A00056C080915B0590915C05A0915D05B0915A
:1019B0005E050197A109B10980935B0590935C05D1
:1019C000A0935D05B0935E0542C080911002E2E3F2
:1019D000F2E0E4919FEF90931002E230C9F050F4EE
:1019E000EE2399F0E13081F590916F009D7F909307
:1019F0006F002AC0E43019F1E0F0E53029F590914C
:101A000073009D7F909373001FC010926E001CC0E6
:101A1000909170009D7F9093700091E09093B00042
:101A20009091B100987F94609093B1001092B300B0
:101A30000BC0909171009D7F9093710005C09091B3
:101A400072009D7F9093720060E00E942203FF91DC
:101A5000EF91BF91AF919F918F917F916F915F9126
:101A60004F913F912F910F900BBE0F900FBE0F9093
:101A70001F901895CF93DF93CCEBD3E08E859F8595
:101A80000E94C2188F8198850E94C218888199810E
:101A90000E94C21881EF93E00E9466028AEE93E0F2
:101AA0000E94660283EE93E00E94660280912A04FF
:101AB00090912B040E94C21880E594E00E94D90303
:101AC00089E494E00E940D0A86E794E00E94D9031D
:101AD0008FE694E0DF91CF910C940D0ACF93DF93C2
:101AE000CDB7DEB7C754D1090FB6F894DEBF0FBE2D
:101AF000CDBF789484B5826084BD84B5816084BD97
:101B000085B5826085BD85B5816085BD80916E009B
:101B1000816080936E0010928100809181008260CC
:101B20008093810080918100816080938100809109
:101B300080008160809380008091B10084608093F8
:101B4000B1008091B00081608093B00080919100DD
:101B500082608093910080919100816080939100D8
:101B6000809190008160809390008091A1008260BC
:101B70008093A1008091A10081608093A100809159
:101B8000A00081608093A0008091210182608093F9
:101B900021018091210181608093210180912001A8
:101BA00081608093200180917A00846080937A0024
:101BB00080917A00826080937A0080917A008160BF
:101BC00080937A0080917A00806880937A001092E6
:101BD000C10089E195E00E94160685E89BEEA1E42C
:101BE000BFE38093340590933505A0933605B093F9
:101BF000370583EC95EFA0EEBFEB8093380590930B
:101C00003905A0933A05B0933B0581E99EE7ABEF18
:101C1000BCE380932C0590932D05A0932E05B093E3
:101C20002F058EE491EDA1E9BDE3809330059093FB
:101C30003105A0933205B093330540E050E0BA017E
:101C400089E195E00E9428060E94050C8EED94E043
:101C50000E94160683E596E9A1E5BFE38093F904A7
:101C60009093FA04A093FB04B093FC0489E29BECEC
:101C7000A8EEBFEB8093FD049093FE04A093FF04B5
:101C8000B09300058AE89EE8A4EEBCE38093F104DB
:101C90009093F204A093F304B093F40481E79CEAD8
:101CA000ABE8BDE38093F5049093F604A093F704AA
:101CB000B093F80440E050E0BA018EED94E00E9449
:101CC00028060E94050C8BE694E00E946C0985E4CE
:101CD00094E00E946C098091390490913A04A0919B
:101CE0003B04B0913C048E8F9F8FA8A3B9A3CE0173
:101CF0004E960E94BA0B80913D0490913E04A091B3
:101D00003F04B09140048A8F9B8FAC8FBD8FCE0172
:101D10004A960E94BA0B8091350490913604A091A6
:101D20003704B09138048E8B9F8BA88FB98FCE016A
:101D300046960E94BA0B8091410490914204A09172
:101D40004304B09144048A8B9B8BAC8BBD8BCE013A
:101D500042960E94BA0B8091310490913204A09176
:101D60003304B09134048E879F87A88BB98BCE0142
:101D70000E960E94BA0B89E195E09FAB8EAB8091E5
:101D8000C0039091C103BE016A5C7F4F01960E941F
:101D9000700B8EED94E09DAB8CAB8091C003909165
:101DA000C103BE016C5C7F4F01960E94700B83EDF6
:101DB00094E09BAB8AABCE01C2960E942B0B88ECC1
:101DC00094E099AB88ABCE01C0960E942B0B8DEBB3
:101DD00094E09FA78EA7CE018E960E942B0B82EBDC
:101DE00094E09DA78CA7CE018C960E942B0B87EACE
:101DF00094E09BA78AA7CE018A960E942B0B8CE9C0
:101E000094E099A788A7CE0188960E942B0B81E9C0
:101E100094E09FA38EA3CE0186960E942B0B8BE6A7
:101E200094E09DA38CA38091CE039091CF03BE013B
:101E30006C5D7F4F01960E94AE0A85E494E09BA3FF
:101E40008AA38091CE039091CF03BE016E5D7F4F38
:101E500001960E94AE0A88E294E09093D2038093A8
:101E6000D1038FEF90E0998788879B878A879D872A
:101E70008C87AE01485F5F4F63E070E09E01285C95
:101E80003F4FCE0101960E94C707BE016F5F7F4F93
:101E900089E494E00E942D07CE0101960E940D0A6C
:101EA000E0E0F0E060E070E040E050E08091470466
:101EB0009091480448175907DCF58091520490919D
:101EC00053044817590770F5809157042FEF882362
:101ED00021F0829FC0011124292F30915D04A0912F
:101EE0005A0480915804909159043A1303C0860F04
:101EF000971F06C08E0F9F1FDC01A30FB11D1C9200
:101F000030915A04DC01A30FB11D2C9330915B0476
:101F1000DC01A30FB11D2C9330915C04DC01A30FF5
:101F2000B11D2C934F5F5F4F6D5F7F4F3496BECFD7
:101F30008091580490915904892B21F080E594E018
:101F40000E94AB08E0912B03F0912C0382E0808388
:101F5000E0912703F09128031082E0912903F0918A
:101F60002A038FEC808310923303E0912F03F091CA
:101F7000300386E08083E0912D03F0912E03808171
:101F800080618083E0912D03F0912E038081886031
:101F90008083E0912D03F0912E03808180688083FF
:101FA000E0912D03F0912E0380818F7D808320911D
:101FB000B8033091B9034091BA035091BB0360E07C
:101FC00070E082E696E40E947B172B013C018AE3D5
:101FD00092E00E943D0CA3019201C301B2010E9454
:101FE0002818882319F08AE492E01AC0730162016C
:101FF000E894F7F82FEF3FEF4FE75FE7C701B6012F
:102000000E94281881110FC02FEF3FEF4FE75FE7C5
:10201000C701B6010E94661918162CF48EE492E0EE
:102020000E943D0C72C02FEF3FEF4FE75FE4C3010A
:10203000B2010E94231818161CF482E592E0F0CF3A
:102040002FEF3FEF4FE75FECC301B2010E9466192B
:1020500087FDF3CF20E030E0A901C301B2010E9467
:10206000661987FF07C08DE20E94900CC301B20180
:10207000905802C0C301B2012AE037ED43EA5BE3A6
:102080000E940F174B015C010E94F4176B017C0149
:102090000E946B199B01AC01C501B4010E940E178F
:1020A0004B015C014AE0C701B6010E944F0C8EE271
:1020B0000E94900C20E030E040E251E4C501B40100
:1020C0000E94CC196B017C010E94F4174B01A12CDA
:1020D000B12C4AE0C501B4010E944F0CC501B40106
:1020E0000E946B199B01AC01C701B6010E940E173B
:1020F00020E030E040E251E40E94CC190E94F41745
:1021000080E090E04AE00E944F0C87E392E00E945A
:102110003D0CE091BC03F091BD03A081B1815296CA
:102120001C921E9251970280F381E02D128A118A2F
:10213000A090BC03B090BD03D5012D903C90F1015F
:1021400061897289072E000C880B990B0E946D190A
:10215000A30192010E94661987FF20C38091D303D7
:102160009091D403A091D503B091D60325968CAF5E
:102170009DAFAEAFBFAF259720E030E040E751E420
:10218000BC01CD010E942318181654F480E090E0A1
:10219000A0E7B1E425968CAF9DAFAEAFBFAF25975A
:1021A000F101878D90A1A1A1B2A1BC01CD019058F0
:1021B00023A934A945A956A90E94CC196B017C0119
:1021C000F101838D948DA58DB68DBC01CD01905804
:1021D00027A930AD41AD52AD0E94CC199B01AC0195
:1021E000C701B6010E940F176B017C01D1019796C0
:1021F0002D913D914D915C919A9757966D917D915E
:102200008D919C915A970E94CC199B01AC01C701FA
:10221000B6010E940F176B017C01F10123A534A5C3
:1022200045A556A563897489858996890E94CC192C
:102230009B01AC01C701B6010E940F176B017C0125
:10224000D50112960D911C911397F801878D90A1DD
:10225000A1A1B2A1BC01CD01905823A934A945A9DF
:1022600056A90E94CC194B015C01F801838D948D15
:10227000A58DB68DBC01CD01905827A930AD41ADDB
:1022800052AD0E94CC199B01AC01C501B4010E9462
:102290000F174B015C01D80197962D913D914D91FF
:1022A0005C919A9757966D917D918D919C915A97DB
:1022B0000E94CC199B01AC01C501B4010E940F170B
:1022C0004B015C01F80123A534A545A556A56389FA
:1022D0007489858996890E94CC199B01AC01C5013E
:1022E000B4010E940F174B015C0120E030E048EC84
:1022F00052E4C701B6010E94231818160CF494C0CA
:1023000020E030E048EC52ECC701B6010E946619AB
:1023100020E030E048EC52E487FD38C0C501B4014C
:102320000E94231818168CF020E030E048EC52ECA4
:10233000C501B4010E94661987FF0DC0812C912C44
:1023400068ECA62E62ECB62E06C0812C912C58ECBF
:10235000A52E52E4B52EA5019401C701B6010E9435
:102360000E1769AF7BAF8C016DAF26967FAF2697B6
:1023700027968FAF279728961FAF289720E030E049
:10238000A9010E94661987FF3BC01FC0C501B401A7
:102390000E94231818160CF02BC21DAE26961FAEF5
:1023A0002697F8E42796FFAF279723EC28962FAFC0
:1023B0002897812C912C38ECA32E32E4B32EC12C1B
:1023C000D12C48ECE42E42ECF42E2DAD26963FADF8
:1023D000269727964FAD279728965FAD2897C5017A
:1023E000B4010E940F174B015C012DAD26963FAD45
:1023F000269727964FAD279728965FAD28970DC053
:1024000020E030E0A90169AD7BADC8010E9423182E
:102410001816ECF429AD3BADA801C701B6010E9426
:102420000E176B017C0113C020E030E048EC52E451
:10243000C501B4010E94231818160CF0E0C1812CCC
:10244000912C28ECA22E22E4B22E75016401D10158
:1024500050961C92509761E012968C910E94220334
:1024600060E0F10184810E942203C701B6010E944D
:10247000ED1777FD0CC0FFEFF69F9001F79F300D31
:102480001124C90164E670E00E94BB1602C060E03E
:1024900070E0072E000C880B990B0E946D19AB01A0
:1024A000BC01E091BC03F091BD03808191810E9449
:1024B0002806E091BC03F091BD0302811381D8018D
:1024C00050961C92509761E012968C910E942203C4
:1024D00060E0F80184810E942203C501B4010E94DA
:1024E000ED1777FD0CC0FFEFF69F9001F79F300DC1
:1024F0001124C90164E670E00E94BB1602C060E0CE
:1025000070E0072E000C880B990B0E946D19AB012F
:10251000BC01E091BC03F091BD03828193810E94D4
:1025200028068FB7F89440917A0250917B0260910F
:102530007C0270917D028FBFA091BC03B091BD035E
:10254000ED91FC911197218932893EAF2DAF129602
:102550000D90BC91A02D51962D913C9152971FB793
:10256000F89480917A0290917B02A0917C02B091C4
:102570007D021FBF841B950BA60BB70BC297A1054D
:10258000B10568F3A091BC03B091BD032D903C90C0
:102590001197F1010188F289E02DFCAFEBAF1296A3
:1025A0008D919C9113979AAF89AFDC0151960D9153
:1025B0001C915297021B130BCF01EDADFEAD8E1B8C
:1025C0009F0B64E170E00E94BB16072E000C880B85
:1025D000990B0E946D192DEC3CEC4CE45DE30E94DC
:1025E0007B17D1011C966D937D938D939C931F97C0
:1025F000C80164E170E00E94BB16072E000C880B36
:10260000990B0E946D192DEC3CEC4CE45DE30E94AB
:102610007B1721966CAF7DAF8EAF9FAF2197E9AD51
:10262000FAAD6487758786879787D1011C962D91AF
:102630003D914D915C911F9725966CAD7DAD8EAD12
:102640009FAD25970E940E17F10107A110A521A5A6
:1026500032A503A714A725A736A703A114A125A176
:1026600036A107A310A721A732A763A374A385A34C
:1026700096A3E9ADFAAD87A190A5A1A5B2A583A7C0
:1026800094A7A5A7B6A783A194A1A5A1B6A187A346
:1026900090A7A1A7B2A721962CAD3DAD4EAD5FADE1
:1026A000219725966CAD7DAD8EAD9FAD25970E948F
:1026B0000E17A9ADBAAD93966D937D938D939C93B0
:1026C0009697F10183A994A9A5A9B6A987AB90AF64
:1026D000A1AFB2AF87A590A9A1A9B2A983AB94ABD2
:1026E000A5ABB6ABC7A6D0AAE1AAF2AAE9ADFAADEE
:1026F00083A994A9A5A9B6A987AB90AFA1AFB2AFA2
:1027000087A590A9A1A9B2A983AB94ABA5ABB6ABA1
:1027100087A690AAA1AAB2AAEBADFCAD6F01FF0FEC
:10272000EE08FF08F7FE0CC08DE20E94900C6627B1
:102730007727CB016C197D098E099F094AE003C0F8
:102740004AE0C701B6010E944F0C86E592E00E9464
:102750003D0CE091BC03F091BD030280F381E02DBC
:10276000C188D2880D2C000CEE08FF08F7FE0CC0C3
:102770008DE20E94900C66277727CB016C197D09AA
:102780008E099F094AE003C04AE0C701B6010E94D2
:102790004F0C87E392E00E943D0CCACC40E050E031
:1027A000BA01C1010E942806E091BC03F091BD036B
:1027B00040E050E0BA01828193810E94280623E61E
:1027C00032E030930B0220930A0280916900806C02
:1027D00080936900EB9A309309022093080280915C
:1027E0006900806380936900EA9A0E942D02DFCB22
:1027F000C12CD12C98ECE92E92ECF92E95CDC12C60
:10280000D12C88ECE82E82E4F82E8ECD8F929F9208
:10281000AF92BF92CF92DF92EF92FF920F931F93EE
:10282000CF93DF9300D000D0CDB7DEB7EEE7F2E074
:102830001382128248EE53E060E070E044835583D7
:102840006683778381E292E09183808325ED30E097
:102850003587248724ED30E03787268720ED30E068
:10286000318B208B21ED30E0338B228B22ED30E059
:10287000358B248B26ED30E0378B268B118E128E14
:10288000138E148EEBE1F3E013821282448355839E
:10289000668377839183808385EC90E09587848736
:1028A00084EC90E09787868780EC90E0918B808B1A
:1028B00081EC90E0938B828B82EC90E0958B848B03
:1028C00086EC90E0978B868B118E128E138E148E71
:1028D00009E115E089E090E0F8019383828388E0C4
:1028E000E82EF12CF582E4829AE0A92EB12CB78271
:1028F000A682E4E5F5E08BE692E091838083138283
:10290000128240E050E0BA01C8010E942806DD248E
:10291000D394F801D08A60E082810E94220361E0B2
:10292000F80184810E9422030EED14E087E090E01C
:10293000F8019383828386E090E09583848385E029
:1029400090E09783868340E050E0BA01C8010E947E
:102950002806F801D08A60E082810E94220361E0AB
:10296000F80184810E942203E3EDF4E085E290E027
:102970009383828380E490E09583848324E6C22E4F
:10298000D12CD782C68201E010E011870087118325
:10299000008361E085E20E949D03E8ECF4E087E2B9
:1029A00090E09383828381E490E095838483D7824F
:1029B000C682118610861183008361E087E20E943F
:1029C0009D03EDEBF4E089E290E09383828382E45F
:1029D00090E095838483D782C68288248A94982C39
:1029E000918680861183008361E089E20E949D03C5
:1029F000E2EBF4E08DE290E09383828384E490E064
:102A000095838483D782C682B186A0861183008392
:102A100061E08DE20E949D03E7EAF4E08FE290E03E
:102A20009383828385E490E095838483D782C682F2
:102A300086EF9FEF918780871183008361E08FE2AB
:102A40000E949D03ECE9F4E088E290E093838283A6
:102A500086E390E09583848344EFA42EBB24B39453
:102A6000B782A6821187008703E010E011830083FC
:102A700061E088E20E949D03E1E9F4E08AE290E0EF
:102A80009383828387E390E095838483B782A682D1
:102A9000918680861183008361E08AE20E949D0313
:102AA00045E050E06CE270E08BE694E00E94120A90
:102AB00045E050E06CE070E085E494E00E94120A8A
:102AC00086E190E0909342048093410460E00E948C
:102AD0009D0387E190E090933E0480933D0460E085
:102AE0000E949D0388E190E090933A04809339041A
:102AF00060E00E949D0389E190E09093360480930A
:102B0000350460E00E949D038AE190E090933204D6
:102B10008093310460E00E949D0308E214E0F80114
:102B2000F582E4821782168280E290E00E942D18DE
:102B3000F801938382830DED13E08CE291E0F801BC
:102B400093838283D582C482F186E08613861286BF
:102B500080E290E00E942D18F80197838683F08A26
:102B6000E786128A118A80E290E00E942D18F8010F
:102B700096878587F78AE68A118E108E80E290E02C
:102B80000E942D18F801958B848B80E090EDA2E0D7
:102B9000B4E4838F948FA58FB68F8EEA97E9AAE06D
:102BA000B4E4878F90A3A1A3B2A38FE195EDA2E136
:102BB000B4E483A394A3A5A3B6A380E090E9ABE11A
:102BC000B4E487A390A7A1A7B2A784EA90EDA4E2FA
:102BD000B4E483A794A7A5A7B6A781E79DE9AEE2D1
:102BE000B4E487A790ABA1ABB2AB8CE59FEFA8E3B1
:102BF000B4E483AB94ABA5ABB6AB8CE59FEFA3E499
:102C0000B4E487AB90AFA1AFB2AF8AE097EAAFE48C
:102C1000B4E483AF94AFA5AFB6AF80E090E0ACE58D
:102C2000B4E480931C0490931D04A0931E04B093FD
:102C30001F048FE195E1A9E6B4E48093200490930A
:102C40002104A0932204B093230488E491EFA6E723
:102C5000B4E48093240490932504A0932604B093B5
:102C600027048BE090E09183808360E00E949D03C5
:102C700068EF73E083EE93E00E94370868EF73E03B
:102C800083EE93E00E94370864E274E083EE93E001
:102C90000E94370864E274E083EE93E00E943708F4
:102CA00068EF73E08AEE93E00E94370868EF73E004
:102CB00081EF93E00E943708F801638D748D858D54
:102CC000968D9B01AC010E940F1769837A838B83D9
:102CD0009C83BE016F5F7F4F81EF93E00E943708B6
:102CE000E7EDF3E084E090E0958384831182108225
:102CF000138212820CEB13E0F801F382E282158258
:102D0000148280E190E00E942D18F8019183808365
:102D1000F286E1861486138680E190E00E942D18E9
:102D2000F80190878783F18AE08A138A128A80E10A
:102D300090E00E942D18F801978786878CED9BEC18
:102D4000A6E1B3E48093B8039093B903A093BA03C8
:102D5000B093BB030F900F900F900F90DF91CF9126
:102D60001F910F91FF90EF90DF90CF90BF90AF90A9
:102D70009F908F90089597FB072E16F4009407D02C
:102D800077FD09D00E94FA1607FC05D03EF4909515
:102D900081959F4F0895709561957F4F0895A1E2A9
:102DA0001A2EAA1BBB1BFD010DC0AA1FBB1FEE1FC5
:102DB000FF1FA217B307E407F50720F0A21BB30B10
:102DC000E40BF50B661F771F881F991F1A9469F78C
:102DD00060957095809590959B01AC01BD01CF01E8
:102DE0000895EE0FFF1F0024001C0BBE0790F69104
:102DF000E02D0994AA1BBB1B51E107C0AA1FBB1FF2
:102E0000A617B70710F0A61BB70B881F991F5A9576
:102E1000A9F780959095BC01CD0108955058BB2726
:102E2000AA270E9426170C94501A0E94421A38F0C2
:102E30000E94491A20F039F49F3F19F426F40C94AB
:102E40003F1A0EF4E095E7FB0C94391AE92F0E9423
:102E5000611A58F3BA17620773078407950720F0C1
:102E600079F4A6F50C94831A0EF4E0950B2EBA2F84
:102E7000A02D0B01B90190010C01CA01A001112480
:102E8000FF27591B99F0593F50F4503E68F11A162C
:102E9000F040A22F232F342F4427585FF3CF4695BD
:102EA00037952795A795F0405395C9F77EF41F16DF
:102EB000BA0B620B730B840BBAF09150A1F0FF0FA9
:102EC000BB1F661F771F881FC2F70EC0BA0F621F95
:102ED000731F841F48F4879577956795B795F79585
:102EE0009E3F08F0B0CF9395880F08F09927EE0F1A
:102EF0009795879508950E948F170C94501A0E94F9
:102F0000491A58F00E94421A40F029F45F3F29F014
:102F10000C94391A51110C94841A0C943F1A0E9483
:102F2000611A68F39923B1F3552391F3951B550B5F
:102F3000BB27AA2762177307840738F09F5F5F4F8C
:102F4000220F331F441FAA1FA9F335D00E2E3AF0CB
:102F5000E0E832D091505040E695001CCAF72BD0E3
:102F6000FE2F29D0660F771F881FBB1F2617370734
:102F70004807AB07B0E809F0BB0B802DBF01FF2766
:102F800093585F4F3AF09E3F510578F00C94391AF0
:102F90000C94841A5F3FE4F3983ED4F386957795BA
:102FA0006795B795F7959F5FC9F7880F911D96951F
:102FB000879597F90895E1E0660F771F881FBB1F7B
:102FC000621773078407BA0720F0621B730B840B28
:102FD000BA0BEE1F88F7E09508950E94F4176894E5
:102FE000B1110C94841A08950E94691A88F09F57B1
:102FF00098F0B92F9927B751B0F0E1F0660F771F1D
:10300000881F991F1AF0BA95C9F714C0B13091F012
:103010000E94831AB1E008950C94831A672F782FC9
:103020008827B85F39F0B93FCCF3869577956795D7
:10303000B395D9F73EF490958095709561957F4F43
:103040008F4F9F4F08950E94A81908F48FEF08959D
:103050000E94A819880B990B0895CF93DF938230B3
:10306000910510F482E090E0E0916105F091620535
:1030700020E030E0C0E0D0E0309711F14081518194
:1030800048175907C0F04817590761F482819381A6
:10309000209719F09B838A832BC0909362058093BD
:1030A000610526C02115310519F04217530718F4A0
:1030B0009A01BE01DF01EF010280F381E02DDCCF38
:1030C0002115310509F1281B390B2430310590F405
:1030D00012968D919C9113976115710521F0FB015A
:1030E0009383828304C09093620580936105FD0100
:1030F000329644C0FD01E20FF31F81939193225059
:1031000031092D933C933AC020915F0530916005C1
:10311000232B41F420911302309114023093600567
:1031200020935F0520911102309112022115310583
:1031300041F42DB73EB74091150250911602241B61
:10314000350BE0915F05F0916005E217F307A0F4FD
:103150002E1B3F0B2817390778F0AC014E5F5F4FED
:103160002417350748F04E0F5F1F509360054093BA
:103170005F058193919302C0E0E0F0E0CF01DF9121
:10318000CF9108950F931F93CF93DF93009709F486
:103190008CC0FC013297138212820091610510915C
:1031A00062050115110581F420813181820F931F81
:1031B00020915F05309160052817390779F5F09364
:1031C0006005E0935F0571C0D80140E050E0AE17A4
:1031D000BF0750F412962D913C911397AD01211524
:1031E000310509F1D901F3CF9D01DA01338322833F
:1031F00060817181860F971F8217930769F4EC0134
:1032000028813981260F371F2E5F3F4F318320835E
:103210008A819B8193838283452B29F4F0936205F5
:10322000E093610542C01396FC93EE931297ED0173
:10323000499159919E01240F351FE217F30771F44C
:1032400080819181840F951F029611969C938E9395
:103250008281938113969C938E931297E0E0F0E025
:10326000D80112968D919C911397009719F0F8014F
:103270008C01F6CF8D919C9198012E5F3F4F820F6C
:10328000931F20915F05309160052817390769F475
:10329000309729F4109262051092610502C01382E2
:1032A00012821093600500935F05DF91CF911F910B
:1032B0000F91089581E090E0F8940C948A1ADC0153
:1032C00001C06D9341505040E0F708950E94A81945
:1032D00008F481E00895E89409C097FB3EF49095C6
:1032E0008095709561957F4F8F4F9F4F9923A9F0DF
:1032F000F92F96E9BB279395F6958795779567956E
:10330000B795F111F8CFFAF4BB0F11F460FF1BC0B1
:103310006F5F7F4F8F4F9F4F16C0882311F096E944
:1033200011C0772321F09EE8872F762F05C06623F2
:1033300071F096E8862F70E060E02AF09A95660FAB
:10334000771F881FDAF7880F9695879597F9089564
:10335000990F0008550FAA0BE0E8FEEF16161706A6
:10336000E807F907C0F012161306E407F50798F00E
:10337000621B730B840B950B39F40A2661F0232B27
:10338000242B252B21F408950A2609F4A140A695A3
:103390008FEF811D811D08950E94DF190C94501A32
:1033A0000E94421A38F00E94491A20F0952311F029
:1033B0000C94391A0C943F1A11240C94841A0E940C
:1033C000611A70F3959FC1F3950F50E0551F629FEE
:1033D000F001729FBB27F00DB11D639FAA27F00D6E
:1033E000B11DAA1F649F6627B00DA11D661F829F95
:1033F0002227B00DA11D621F739FB00DA11D621F7A
:10340000839FA00D611D221F749F3327A00D611D96
:10341000231F849F600D211D822F762F6A2F112478
:103420009F5750409AF0F1F088234AF0EE0FFF1FAB
:10343000BB1F661F771F881F91505040A9F79E3F02
:10344000510580F00C94391A0C94841A5F3FE4F310
:10345000983ED4F3869577956795B795F795E79558
:103460009F5FC1F7FE2B880F911D9695879597F961
:10347000089597F99F6780E870E060E008959FEFF6
:1034800080EC089500240A941616170618060906FB
:10349000089500240A9412161306140605060895CA
:1034A000092E0394000C11F4882352F0BB0F40F452
:1034B000BF2B11F460FF04C06F5F7F4F8F4F9F4F92
:1034C000089557FD9058440F551F59F05F3F71F014
:1034D0004795880F97FB991F61F09F3F79F087957B
:1034E0000895121613061406551FF2CF4695F1DF04
:1034F00008C0161617061806991FF1CF8695710594
:10350000610508940895E894BB2766277727CB01C7
:1035100097F9089511E0CBE1D1E004C0FE010E94CB
:0E352000F1162196CC31D107C9F7F894FFCFF0
:10352E00620262026202620262026202620262026D
:10353E00FF00006305800000000000000000000096
:10354E0000C401830A8301610175010B020400644A
:10355E006F436F756E74000D0A0074617267657447
:10356E005F7469636B73203A20006E616E00696E42
:0A357E0066006F766600202C200026
:00000001FF
