:1000000027C1000056C1000054C1000052C10000C9
:1000100050C100004EC100004CC100004AC10000A8
:1000200048C1000046C1000044C1000042C10000B8
:1000300040C100003EC100003CC100003AC10000C8
:1000400038C1000036C1000034C1000032C10000D8
:1000500030C100002EC100002CC10000ABC3000065
:1000600028C1000047C200001CC2000022C10000DD
:1000700020C100001EC100001CC100001AC1000008
:1000800018C1000016C1000014C1000012C1000018
:1000900010C100000EC100000CC100000AC1000028
:1000A00008C1000006C1000004C1000002C1000038
:1000B00000C10000FEC00000FCC00000FAC000004B
:1000C000F8C00000F6C00000F4C00000F2C000005C
:1000D000F0C00000EEC00000ECC00000EAC000006C
:1000E000E8C00000CB02CE02BD02C102C702050378
:1000F000D202D602DC02E002E402EA02EE02F202DE
:100100000503F802FC0200032E05330538054205FD
:100110004C05C50556055E05660570057A0584051E
:1001200093059D05C505A705B105BB050000220087
:10013000250028002B002E003100340002010000B1
:10014000050108010B0100002100240027002A00FE
:100150002D003000330001010000040107010A01F5
:10016000000020002300260029002C002F00320070
:100170000001000003010601090105050505070549
:1001800008080808020202020A0A08080404040413
:10019000010101010101010103030303030303033F
:1001A000040707070C0C0C0C0C0C0C0C02020202CE
:1001B00006060606060606060B0B0B0B0B0B0B0BB7
:1001C0000102102020080810204010204080020169
:1001D000020108040201010204081020408080404E
:1001E000201008040201800402018040201008044D
:1001F00002010804020101020408102040800102EB
:1002000004081020408000000A0B02090C0D0E08A3
:1002100007030401000000000000000000000000CF
:1002200000000000000000000000000000000000CE
:10023000000012111000000000000000000000008B
:10024000000000000000000000000000A40F8B0F61
:1002500011241FBECFEFD1E2DEBFCDBF00E00CBF47
:1002600012E0A0E0B2E0E0E5F6E200E00BBF02C081
:1002700007900D92AC34B107D9F723E0ACE4B2E0BB
:1002800001C01D92A83CB207E1F711E0C7E2D1E03E
:1002900000E006C021970109802FFE010E941B117A
:1002A000C632D10780E00807A9F70E944D0A0C94D6
:1002B0001713A6CEFC01918D828D981761F0828D67
:1002C000DF01A80FB11D5D968C91928D9F5F9F738A
:1002D000928F90E008958FEF9FEF0895FC01918D2C
:1002E000828D981731F0828DE80FF11D858D90E099
:1002F00008958FEF9FEF0895FC01918D228D892F36
:1003000090E0805C9F4F821B91098F73992708951D
:1003100085E992E0F1DF21E0892B09F420E0822FCA
:100320000895FC01848DDF01A80FB11DA35ABF4FB2
:100330002C91848D90E001968F739927848FA689E4
:10034000B7892C93A089B1898C9180648C93938D0B
:10035000848D981306C00288F389E02D80818F7DFB
:1003600080830895EF92FF920F931F93CF93DF93B3
:10037000EC0181E0888F9B8D8C8D981305C0E889F6
:10038000F989808185FD23C0F62E0B8D10E00F5F6B
:100390001F4F0F731127E02E8C8DE8120BC00FB684
:1003A00007FCFACFE889F989808185FFF5CFCE0176
:1003B000B8DFF2CF8B8DFE01E80FF11DE35AFF4F3E
:1003C000F0820B8FEA89FB898081806207C0EE8909
:1003D000FF896083E889F98980818064808381E076
:1003E00090E0DF91CF911F910F91FF90EF900895D2
:1003F000CF93DF93EC01888D8823C1F0EA89FB89D4
:10040000808185FD05C0A889B9898C9186FD0EC0C3
:100410000FB607FCF5CF808185FFF2CFA889B98997
:100420008C9185FFEDCFCE017CDFE8CFDF91CF91BE
:10043000089580E090E0892B19F06ADF811125C0D2
:1004400080E090E0892B41F080E090E0892B21F062
:100450000E94000081111CC080E090E0892B41F0D7
:1004600080E090E0892B21F00E940000811113C0F0
:1004700080E090E0892BA1F080E090E0892B81F072
:100480000E94000081110AC008950E940000D8CF88
:100490000E940000E1CF0E940000EACF0C9400000F
:1004A00008951F920F920FB60F9211240BB60F9260
:1004B0002F933F934F935F936F937F938F939F936C
:1004C000AF93BF93EF93FF9385E992E02ADFFF910B
:1004D000EF91BF91AF919F918F917F916F915F91BC
:1004E0004F913F912F910F900BBE0F900FBE0F9029
:1004F0001F9018951F920F920FB60F9211240BB6F2
:100500000F922F938F939F93EF93FF93E091A50208
:10051000F091A6028081E091AB02F091AC0282FDE5
:1005200012C090818091AE028F5F8F732091AF02D5
:10053000821751F0E091AE02F0E0EB56FD4F958F3F
:100540008093AE0201C08081FF91EF919F918F91C6
:100550002F910F900BBE0F900FBE0F901F9018950C
:1005600090E0FC013197E231F10508F04EC0882798
:10057000EE58FF4F8F4F0C941B11809180008F77A6
:1005800003C0809180008F7D8093800008958091CA
:100590008000877FF9CF84B58F7702C084B58F7DC7
:1005A00084BD08958091B0008F7703C08091B00022
:1005B0008F7D8093B0000895809190008F7707C061
:1005C000809190008F7D03C080919000877F809301
:1005D000900008958091A0008F7707C08091A000BF
:1005E0008F7D03C08091A000877F8093A000089535
:1005F000809120018F7707C0809120018F7D03C0FB
:1006000080912001877F8093200108951F93CF93CD
:10061000DF93282F30E0F901EA5FFD4F8491F90163
:10062000E054FE4FD491F901E658FE4FC491CC231B
:10063000C1F0162F811194DFEC2FF0E0EE0FFF1FB9
:10064000E45DFE4FA591B4918FB7F894111105C0E8
:100650009C91ED2FE095E92302C0EC91ED2BEC93FA
:100660008FBFDF91CF911F910895CF93DF9390E0DB
:10067000FC01E054FE4F2491FC01E658FE4F8491AA
:10068000882361F190E0880F991FFC01EA5BFE4F1F
:10069000C591D491FC01E45DFE4FA591B491611127
:1006A00009C09FB7F8948881209582238883EC91B4
:1006B0002E230BC0623061F49FB7F8943881822FEB
:1006C000809583238883EC912E2B2C939FBF06C0AB
:1006D0008FB7F894E8812E2B28838FBFDF91CF91BD
:1006E00008953FB7F8948091910290919202A09161
:1006F0009302B091940226B5A89B05C02F3F19F034
:100700000196A11DB11D3FBFBA2FA92F982F882791
:10071000820F911DA11DB11DBC01CD0142E0660FEC
:10072000771F881F991F4A95D1F708958F929F923E
:10073000AF92BF92CF92DF92EF92FF926B017C015A
:10074000D0DF4B015C01C114D104E104F104E9F0F4
:10075000C8DFDC01CB0188199909AA09BB09883EC9
:100760009340A105B10578F321E0C21AD108E10850
:10077000F10888EE880E83E0981EA11CB11CC114FC
:10078000D104E104F10421F7DECFFF90EF90DF9078
:10079000CF90BF90AF909F908F9008952FB7F8940F
:1007A00060918D0270918E0280918F0290919002E3
:1007B0002FBF08951F920F920FB60F9211242F93FF
:1007C0003F938F939F93AF93BF9380918D029091AE
:1007D0008E02A0918F02B091900230918C0223E0A2
:1007E000230F2D3720F40196A11DB11D05C026E869
:1007F000230F0296A11DB11D20938C0280938D02C0
:1008000090938E02A0938F02B093900280919102F8
:1008100090919202A0919302B09194020196A11D31
:10082000B11D8093910290939202A0939302B09392
:100830009402BF91AF919F918F913F912F910F9013
:100840000FBE0F901F9018950F931F93CF93DF93B8
:10085000EC01088119817B836A83CB01880F991F82
:100860000E946C11998388838C819D81D80140E01E
:1008700050E04817590791F0E881F9819A01220F59
:10088000331FE20FF31F309729F02D913C91119700
:10089000318320834F5F5F4F1296EBCFC801DF910A
:1008A000CF911F910F910C9401120F931F93CF932F
:1008B000DF93EC01088119817B836A83CB01880F68
:1008C000991F0E946C11998388838C819D81D80126
:1008D00040E050E04817590791F0E881F9819A010A
:1008E000220F331FE20FF31F309729F02D913C9117
:1008F0001197318320834F5F5F4F1296EBCFC80172
:10090000DF91CF911F910F910C940112CF93DF9340
:10091000EC0160E088817ADE61E08A81DF91CF912D
:1009200075CECF93DF93EC01E5E9F2E0A089B189C0
:1009300082E08C93A485B5851C92A685B7858FEC43
:100940008C93108EA489B58986E08C93A289B38993
:100950008C9180618C93A289B3898C9188608C93EF
:10096000A289B3898C9180688C930288F389E02DE9
:1009700080818F7D808361E08C8177DE61E088817A
:1009800074DE61E08A8171DEDF91CF910895CF93AB
:10099000DF93FC016287662319F0DF91CF91B6CF18
:1009A000EC0161E0808132DE60E08A81DF91CF91ED
:1009B0002DCECF92DF92EF92FF920F931F93CF93A2
:1009C000DF93EC016A017B0120E030E04FE753E464
:1009D000C701B6010E946811181674F020E030E0DB
:1009E000A901C701B6010E94A41287FF0BC0F7FA44
:1009F000F094F7F8F09406C0C12CD12C8FE7E82EC4
:100A000083E4F82ECE82DF82E886F986C701B6013C
:100A10000E9437116B017C018B010C80DD81C02DA0
:100A200061E08C2F22DEC114D10409F4B1C00F3F64
:100A3000110509F4AFC0FE01FF27EA5FFD4FE49105
:100A40004E2F50E0FA013197E231F10508F09DC0D8
:100A50008827EC57FF4F8F4F0C941B1184B580688B
:100A600084BDC7BCA2C084B5806284BDC8BC9DC023
:100A700080918000806880938000D0928900C0922D
:100A8000880093C080918000806280938000D09223
:100A90008B00C0928A0089C080918000886080931A
:100AA0008000D0928D00C0928C007FC08091B000F9
:100AB00080688093B000C092B30077C08091B0008E
:100AC00080628093B000C092B4006FC080919000AB
:100AD000806880939000D0929900C092980065C081
:100AE00080919000806280939000D0929B00C09291
:100AF0009A005BC080919000886080939000D092B3
:100B00009D00C0929C0051C08091A000806880939D
:100B1000A0008091A0008F7B8093A000D092A900BC
:100B2000C092A80042C08091A00080628093A00083
:100B3000D092AB00C092AA0038C08091A00088601B
:100B40008093A000D092AD00C092AC002EC08091E6
:100B50002001806880932001D0922901C092280151
:100B600024C080912001806280932001D0922B01CB
:100B7000C0922A011AC080912001886080932001D0
:100B8000D0922D01C0922C0110C00038110514F430
:100B900060E001C061E08C2FDF91CF911F910F9138
:100BA000FF90EF90DF90CF9031CDDF91CF911F91EB
:100BB0000F91FF90EF90DF90CF900895EF92FF920A
:100BC0000F931F93CF93DF93EC018B016817790785
:100BD00009F486C0DB0114962D913C9115978A810A
:100BE0009B818217930718F5E880F9803B832A835D
:100BF000C901880F991F0E946C11888399834C81C9
:100C00005D81D701FC0120E030E02417350761F059
:100C1000309729F08D919C911197918380832F5F5C
:100C20003F4F12963296F1CFC7010E9401128C817C
:100C30009D81F801448155818417950708F4AC0122
:100C400080E090E08417950791F09C01220F331FFC
:100C5000D801ED91FC91E20FF31F60817181E88171
:100C6000F981E20FF31F718360830196EBCF8C81D2
:100C70009D81F801248135818217930768F0D8019E
:100C800014968D919C9115972C813D818217930725
:100C900038F59D838C8324C09C01220F331FD8011B
:100CA00014964D915C9115978417950740F7F801BC
:100CB000A081B181A20FB31FE881F981E20FF31F78
:100CC000309721F04D915C91518340834C815D813F
:100CD0004F5F5F4F5D834C8301962E5F3F4FDFCFA9
:100CE000CE01DF91CF911F910F91FF90EF9008956A
:100CF000EF92FF920F931F93CF93DF9300D01F9239
:100D0000CDB7DEB78C01FC0175836483CB010896F7
:100D1000938382837C01EE0CFF1CC70149835A83B5
:100D20006B837C830E946C11F8018083918397010F
:100D30002051310949815A81240F351FDA01FC0104
:100D4000A217B30741F08D919D91309711F09183D7
:100D500080833296F5CF0F900F900F900F90DF9118
:100D6000CF911F910F91FF90EF9008950F931F93D4
:100D7000CF93DF93EC01088119817B836A83CB01D8
:100D8000880F991F880F991F0E946C11888399837F
:100D9000FC01D80120E030E08C819D8128173907C3
:100DA00080F4309749F04D915D916D917C9113974E
:100DB00040835183628373832F5F3F4F3496149631
:100DC000EBCFC801DF91CF911F910F910C940112CD
:100DD000CF93DF93EC0188859985009711F00E94ED
:100DE00001128E8187FD04C060E0DF91CF913DCC80
:100DF000DF91CF910895FC01808191810C940112C3
:100E0000CF92DF92EF92FF920F931F93CF93DF93D6
:100E10006C017A018B01C0E0D0E0CE15DF0589F0CE
:100E2000D8016D918D01D601ED91FC910190F08179
:100E3000E02DC6011995892B11F47E0102C021967F
:100E4000ECCFC701DF91CF911F910F91FF90EF90F1
:100E5000DF90CF9008950E9499120F931F93CF9324
:100E6000DF93CDB7DEB729970FB6F894DEBF0FBE7C
:100E7000CDBF37DC00918003109181032091820364
:100E800030918303DC01CB01801B910BA20BB30BD0
:100E9000C297A105B10568F3F8948091760390910B
:100EA00077039A838983E0917A03F0917B03DF01D2
:100EB00011968081898790917203E0918403F0916B
:100EC000850380918603992309F42EC09081982B85
:100ED00098879081809589238F838F818C8388E088
:100EE0008B8358856F8149853B812C8189819A81CB
:100EF000508347FD252F3A952083262F39F0441F34
:100F000000C000006083000000C0F2CF38E04D91C7
:100F100060830000019761F7F0938503E0938403F9
:100F200049873B832C8338C09081982B9887908188
:100F3000809589238F838F818E8388E08D83588568
:100F40006F8149853D812E8189819A81508347FD3A
:100F5000252F00C000C0208300C000C000C000C01A
:100F600000C060830000262F3A9541F0441F000026
:100F700000C000C000C000C000C0E8CF38E04D9104
:100F800000C0608300C0019709F7F0938503E093E8
:100F9000840349873D832E839A8389837894A1DBD8
:100FA0006093800370938103809382039093830303
:100FB00029960FB6F894DEBF0FBECDBFDF91CF915B
:100FC0001F910F9108954F925F926F927F928F922F
:100FD0009F92AF92BF92CF92DF92EF92FF920F93C8
:100FE0001F93CF93DF93CDB7DEB72E970FB6F8944C
:100FF000DEBF0FBECDBF7C018B016A019987888758
:101000007B876A875D874C87AE01485F5F4F63E0EF
:1010100070E09E01225F3F4FCE01019669DEBE0166
:101020006F5F7F4F8BE693E0C9DDCE010196E3DE73
:1010300060E070E040E050E080E090E0270155245F
:10104000D801BB275601BB249C2C2091670330910B
:101050006803821793070CF057C0209174033091F6
:1010600075038217930708F049C020917903211175
:1010700004C0892C102FFE2C19C030E0429E600164
:10108000439ED00C529ED00C1124FD2CA29F6001D7
:10109000A39FD00CB29FD00C11241D2DA29E6001E5
:1010A000A39ED00CB29ED00C11248D2CD0907F0327
:1010B000C0907C0320917A0330917B03DC1003C045
:1010C000240F351F07C0260F371F39016D0C711C07
:1010D000F3011082D0907C0339016D0C711CF30177
:1010E000F082F0907D036901CF0CD11CF6011083D2
:1010F00010917E03210F311DF901808201964D5F11
:101100005F4F6C5F7F4FA1CF80917A0390917B03FB
:10111000892B09F0A2DE2E960FB6F894DEBF0FBE23
:10112000CDBFDF91CF911F910F91FF90EF90DF9096
:10113000CF90BF90AF909F908F907F906F905F9077
:101140004F9008950F931F93CF93DF9320913D030A
:1011500030913E032817390790F58B01EC018091FF
:101160003B0390913C038C179D0748F4BE01685FD8
:101170007F4F8617970718F489E393E065DB80912A
:101180003D0390913E039C01220F331F8C179D0756
:1011900088F4E0913903F0913A03E20FF31F30979E
:1011A00029F0D8014D915C915183408301962E5FC7
:1011B0003F4FECCFD0933E03C0933D0307C082174F
:1011C000930720F490933E0380933D03DF91CF91EA
:1011D0001F910F9108950F931F93CF93DF93209149
:1011E0003603309137032817390790F58B01EC014E
:1011F00080913403909135038C179D0748F4BE010C
:10120000685F7F4F8617970718F482E393E04DDB02
:1012100080913603909137039C01220F331F8C1766
:101220009D0788F4E0913203F0913303E20FF31F3E
:10123000309729F0D8014D915C91518340830196FC
:101240002E5F3F4FECCFD0933703C093360307C0D8
:101250008217930720F49093370380933603DF912E
:10126000CF911F910F9108950F931F93CF93DF9309
:1012700060914E0370914F03EB0121966C177D072F
:1012800088F58C0180914C0390914D038C179D073C
:1012900040F4675F7F4F8617970718F48AE493E05E
:1012A00065DD20914E0330914F03C901880F991FCE
:1012B000880F991F2C173D07C0F4E0914A03F09165
:1012C0004B03E80FF91F309749F0D8014D915D911C
:1012D0006D917C9140835183628373832F5F3F4F75
:1012E0000496E8CFC617D70720F4D0934F03C093D6
:1012F0004E03DF91CF911F910F910895EF92FF92CE
:101300000F931F93CF93DF9300914A0310914B03E8
:10131000C0914E03D0914F03CC0FDD1FCC0FDD1FCA
:10132000C00FD11F0C171D0759F1F8012081318121
:101330003327F901EA5FFD4F8491F901E054FE4F34
:10134000E490F901E658FE4FF490FF2089F08111F6
:1013500007D9EF2DF0E0EE0FFF1FE05AFE4FA591E9
:10136000B491EC91EE2191E080E021F490E002C094
:1013700090E080E0F801928383830C5F1F4FD2CF0F
:10138000E0914A03F0914B0382819381892B99F07C
:1013900086819781892B91F082859385892B89F0AD
:1013A00086859785892B81F082899389892B79F0AD
:1013B00080E090E00EC081E090E00BC082E090E021
:1013C00008C083E090E005C084E090E002C085E0C2
:1013D00090E0DF91CF911F910F91FF90EF900895D2
:1013E0006115710579F0FB0101900020E9F7319753
:1013F000AF01461B570BDC01ED91FC910280F3819C
:10140000E02D199480E090E008954F925F926F92E2
:101410007F92EF92FF920F931F93CF93DF93CDB7FD
:10142000DEB7A1970FB6F894DEBF0FBECDBF7C012B
:10143000FA01CB0119A2223008F42AE08E010F5DD7
:101440001F4F422E512C612C712CBF01A301920120
:101450000E94F512F901CA01015011096A3014F411
:10146000605D01C0695CD8016C93232B242B252B74
:1014700061F7B801C701B4DFA1960FB6F894DEBFDB
:101480000FBECDBFDF91CF911F910F91FF90EF90D5
:101490007F906F905F904F900895CF93DF93CDB77B
:1014A000DEB7AF970FB6F894DEBF0FBECDBF78940E
:1014B00084B5826084BD84B5816084BD85B5826059
:1014C00085BD85B5816085BD80916E00816080930A
:1014D0006E00109281008091810082608093810073
:1014E0008091810081608093810080918000816083
:1014F000809380008091B10084608093B1008091DE
:10150000B00081608093B0008091910082608093F0
:101510009100809191008160809391008091900072
:101520008160809390008091A10082608093A100EF
:101530008091A10081608093A1008091A0008160D2
:101540008093A0008091210182608093210180918D
:10155000210181608093210180912001816080932D
:10156000200180917A00846080937A0080917A00D3
:10157000826080937A0080917A00816080937A0003
:1015800080917A00806880937A001092C100109256
:1015900080021092810210928202109283021092B5
:1015A0004E0210924F02109250021092510260EDC2
:1015B00077E080E090E0BAD885E992E090937F02EE
:1015C00080937E02E091A502F091A60262E0E62EF1
:1015D000E082E091A102F091A2021082E091A302C8
:1015E000F091A40280E180831092AD02E091A90203
:1015F000F091AA0286E08083E091A702F091A80210
:10160000808180618083E091A702F091A8028081AF
:1016100088608083E091A702F091A80280818068B1
:101620008083E091A702F091A80280818F7D808362
:10163000B5D860934E0270934F02809350029093FE
:1016400051026CE172E080917E0290917F02C8DECF
:101650006AE070E080E090E069D8FF24F394F092B3
:10166000520289EB93E05DD98EEA93E05AD900915A
:10167000650310916603C0906703D09068031A82D7
:1016800018861F86188A198A1A8AFE86FB861C8687
:10169000ED86F9827601EE0CFF1CEC0CFD1CFE823F
:1016A000ED82C70119D69A878987009739F0A7017B
:1016B00060E070E042D7DC82CB8204C01E821D82D3
:1016C0001C821B820F838A81882341F061E0802F76
:1016D0000E94350360E0802F0E9406031127F80165
:1016E000E658FE4FE491F0E0EE0FFF1FE45DFE4F81
:1016F000859194919C8B8B8BF801E054FE4F049163
:101700000D8B85E1FE013196A2E7B3E001900D92C9
:101710008A95E1F7CE0101965BDB8091780387FD26
:1017200008C061E00E94350360E0809178030E9468
:10173000060381E08093730380917A0390917B0389
:10174000892B09F08ADB8091590390915A03A0916B
:101750005B03B0915C038AA39BA3ACA3BDA3CE01A2
:10176000829682DD80915D0390915E03A0915F037C
:10177000B09160038E8F9F8FA8A3B9A3CE014E9620
:1017800073DD8091550390915603A0915703B0915A
:1017900058038A8F9B8FAC8FBD8FCE014A9664DD34
:1017A0008091610390916203A0916303B0916403FF
:1017B0008E8B9F8BA88FB98FCE01469655DD809179
:1017C000510390915203A0915303B0915403898324
:1017D0009A83AB83BC83CE01019646DD89EB93E00F
:1017E0009FA78EA78091360390913703BE01625D5B
:1017F0007F4F0196F0DC8EEA93E09DA78CA7809145
:10180000360390913703BE01645D7F4F0196E3DCA0
:1018100083EA93E09BA78AA780913D0390913E03C2
:10182000BE01665D7F4F01968DDC88E993E099A744
:1018300088A780913D0390913E03BE01685D7F4F74
:10184000019680DC8DE893E09FA38EA380913D03F9
:1018500090913E03BE016A5D7F4F019673DC40E0CC
:1018600050E060E070E080E090E0ADDB11E00E94CD
:10187000CE03672B682B692B41F40E94CE036230A4
:1018800071058105910508F46CC00E94CE03609338
:1018900088027093890280938A0290938B02C09091
:1018A0008402D0908502E0908602F09087026C1549
:1018B0007D058E059F0540F4609384027093850238
:1018C0008093860290938702C0908402D090850214
:1018D000E0908602F09087029B01AC012C193D0933
:1018E0004E095F0969017A013AEFC316D104E10498
:1018F000F104B8F1609384027093850280938602AC
:10190000909387020E94CE0360934E0270934F0221
:1019100080935002909351026EE272E080917E02B9
:1019200090917F025DDD66E372E080917E0290918E
:101930007F0256DD0E94CE03AB01BC012AE08091FC
:101940007E0290917F0261DD68E372E080917E0209
:1019500090917F0245DD65E070E080E090E00E94BC
:101960009603CCDC83309105D1F06CF420914203D6
:10197000309143038130910561F0029709F0A0C2D4
:101980002150310908C08430910549F0059771F064
:1019900097C22F5F3F4F30934303209342036AEF78
:1019A00070E080E090E00E9496038AC261E472E0F9
:1019B00085E992E015DDC0904003D09041030D2CE5
:1019C000000CEE08FF08F7FE14C0E0919502F091BC
:1019D00096020190F081E02D6DE285E992E0199583
:1019E00044275527BA014C195D096E097F092AE081
:1019F00003C02AE0B701A60185E992E006DD6EE3A7
:101A000072E085E992E0ECDC809140039091410323
:101A1000009759F0019709F04FC242E450E06DE1A0
:101A200070E088E890E0CFDAA0C16AEF70E080E073
:101A300090E00E94960341E350E06AEF70E081E09D
:101A400090E0C1DAA12CB12C20913D0330913E03EE
:101A50008091390390913A03A216B30608F040C072
:101A60009501220F331FFC01E20FF31FE080F1808C
:101A700061E0F70182810E940603F70184818633C9
:101A800008F0865390917B00282F2870977F922B27
:101A900090937B008770806480937C0080917A00B3
:101AA000806480937A0080917A0086FDFCCFC0909C
:101AB000780080917900D12CD82A60E0F7018281EA
:101AC0000E940603F70186819781C816D90614F093
:101AD000128702C0F7011286FFEFAF1ABF0AB4CF18
:101AE000DC016C0140E050E060E04217530781F0F8
:101AF000F601E190F1906F01F7017285772329F0EB
:101B0000E084F184EF2809F461E04F5F5F4FEDCF8F
:101B1000662379F1E0913203F091330360E0808134
:101B200091810E94C704E0913203F09133038281D6
:101B30009381FC0112870E948604E0913203F091A8
:101B4000330340E050E0BA01808191810E94D904C2
:101B5000E0913203F091330340E050E066E972E433
:101B6000828193810E94D90468EE73E080E090E066
:101B700047C07C0180E090E040E08217930781F04D
:101B8000F701619171917F01FB015285552331F07D
:101B900060857185161617060CF441E00196EDCFAD
:101BA000442389F1E0913203F091330380819181E4
:101BB000FC0112870E948604E0913203F091330306
:101BC00060E0828193810E94C704E0913203F0912A
:101BD000330340E050E066E972E4808191810E9425
:101BE000D904E0913203F091330340E050E0BA01B0
:101BF000828193810E94D9046AEF70E080E090E0D6
:101C00000E9496035DC080E090E040E08217930759
:101C100059F0ED91FD915285552321F06085718534
:101C200077FD41E00196F2CFE0913203F09133036A
:101C300080819181FC0112874423F9F00E9486047F
:101C4000E0913203F091330360E0828193810E943E
:101C5000C704E0913203F091330340E050E0BA0151
:101C6000808191810E94D904E0913203F091330385
:101C700040E050E066E972E4BBCF0E948604E09148
:101C80003203F091330360E0828193810E94C704A4
:101C9000E0913203F091330340E050E06AEF72E4E8
:101CA000808191810E94D904E0913203F091330345
:101CB00040E050E066E972E4828193810E94D90499
:101CC0001DDB059709F0BECE6AEF70E080E090E082
:101CD0000E949603E0913203F091330340E050E01C
:101CE000BA01808191810E94D904E0913203F09180
:101CF000330340E050E0BA01828193810E94D9040D
:101D0000DBC0029709F0A7C045E750E06FEF70E035
:101D10008CE290E058D9E0913203F0913303808156
:101D20009181FC0112870E948604E0913203F091B8
:101D3000330360E0828193810E94C704E091320303
:101D4000F091330340E050E0BA01808191810E941C
:101D5000D904E0913203F091330340E050E066E9AA
:101D600072E4828193810E94D9046AEF70E080E07E
:101D700090E00E949603C2DA83309105D9F44CE1D9
:101D800050E069EF70E089E790E01DD9E0913203FF
:101D9000F091330360E0808191810E94C704E0915B
:101DA0003203F091330382819381FC0112870E94F8
:101DB000860421C0843091053CF18430910509F0FE
:101DC0005DC044E150E063E570E081E890E0FBD85D
:101DD000E0913203F091330380819181FC011287FD
:101DE0000E948604E0913203F091330360E0828127
:101DF00093810E94C704E0913203F091330340E0E5
:101E000050E06AEF72E4A1CF8130910509F079CFFB
:101E100049E250E060E070E088E590E0D4D8E091DD
:101E20003203F091330380819181FC0112870E947B
:101E30008604E0913203F091330360E08281938164
:101E40000E94C704E0913203F091330340E050E078
:101E50006AEF72E407C0E0913203F091330340E08F
:101E600050E0BA01808191810E94D904E09132034F
:101E7000F091330340E050E0BA0173CF059759F772
:101E8000E0913203F091330340E050E0BA018081E9
:101E900091810E94D904E0913203F091330340E034
:101EA00050E0BA01828193810E94D9046EEE72E003
:101EB00080E090E00E949603109243031092420348
:101EC000809142039091430397FF03C091958195C0
:101ED000910960914403709145039AD19093410315
:101EE00080934003892B39F44FEF50E060E870E0B5
:101EF00080E090E068D88091400390914103019781
:101F000039F44EE350E061E070E087EE90E05BD89A
:101F10000E941902ACCCCF93DF93C2E3D3E08F8150
:101F200098856FD2888199816CD280914A03909173
:101F30004B0367D282E793E00E94E8068BE693E0CA
:101F4000DF91CF910C94FB06AF92BF92CF92DF92BC
:101F5000FF920F931F93CF93DF93CDB7DEB72E97EA
:101F60000FB6F894DEBF0FBECDBFE5E9F2E01382F5
:101F7000128288EE93E0A0E0B0E084839583A6838C
:101F8000B7838AE092E09183808385EC90E0958727
:101F9000848784EC90E09787868780EC90E0918B33
:101FA000808B81EC90E0938B828B82EC90E0958B20
:101FB000848B86EC90E0978B868B118E128E138E1D
:101FC000148E09EB13E089E090E0F801918380839F
:101FD00088E0C82ED12CD382C2828AE090E095831B
:101FE000848340E050E0BA01C8010E94D904FF2474
:101FF000F394F801F286C8010E9486040EEA13E009
:1020000087E090E0F8019183808386E090E09383FD
:10201000828395E0A92EB12CB582A48240E050E0E5
:10202000BA01C8010E94D904F801F286C8010E94D1
:102030008604E3EAF3E085E290E09383828380E420
:1020400090E09583848322E830E0378326838FEF06
:102050009FEF9187808781E090E091838083E8E91A
:10206000F3E047E250E05383428341E450E055837C
:102070004483378326831186108691838083EDE81D
:10208000F3E049E250E05383428342E450E0558359
:10209000448337832683918780879183808305E6F5
:1020A00013E0F80182A193A19987888784A195A163
:1020B0009B878A8786A197A19D878C87AE01485F01
:1020C0005F4F63E070E09E012F5F3F4F8BE693E030
:1020D0000E947806F801F5861686108A1786128AFD
:1020E000118A8FEF838B148A168A158AF78A108ECD
:1020F00082E0818FF28E138E148E158E168E8CE2F6
:1021000090E091838083B382A2821482158246E19B
:1021100052E063E070E09E01225F3F4FCE010196E6
:102120000E947806BE016F5F7F4F8BE693E00E94AE
:10213000DE05CE0101960E94FB0686E190E09093B9
:1021400062038093610360E00E94350387E190E0C1
:1021500090935E0380935D0360E00E94350388E105
:1021600090E090935A038093590360E00E943503F6
:1021700089E190E0909356038093550360E00E94BC
:1021800035038AE190E0909352038093510360E01D
:102190000E94350306E413E0F801D782C682118657
:1021A000108680E290E098D0F80195838483E0E483
:1021B000F3E082E090E095838483118210821382A1
:1021C000128202E313E0F801D382C28215821482E4
:1021D00080E190E081D0F80191838083D286C1862E
:1021E0001486138680E190E077D0F801908787838A
:1021F0002E960FB6F894DEBF0FBECDBFDF91CF9104
:102200001F910F91FF90DF90CF90BF90AF900895F6
:1022100097FB072E16F4009406D077FD08D013D054
:1022200007FC05D03EF4909581959F4F08957095D9
:1022300061957F4F0895EE0FFF1F881F8BBF07909A
:10224000F691E02D1994AA1BBB1B51E107C0AA1FF0
:10225000BB1FA617B70710F0A61BB70B881F991F47
:102260005A95A9F780959095BC01CD01089504D0A9
:102270006894B111B4C1089597D188F09F5790F038
:10228000B92F9927B751A0F0D1F0660F771F881F9B
:10229000991F1AF0BA95C9F712C0B13081F09ED1DA
:1022A000B1E008959BC1672F782F8827B85F39F078
:1022B000B93FCCF3869577956795B395D9F73EF4FA
:1022C00090958095709561957F4F8F4F9F4F0895A2
:1022D0003FD108F48FEF0895CF93DF9382309105BB
:1022E00010F482E090E0E091C603F091C70320E093
:1022F00030E0C0E0D0E0309711F1408151814817C3
:102300005907C0F04817590761F4828193812097DB
:1023100019F09B838A832BC09093C7038093C603D5
:1023200026C02115310519F04217530718F49A01F8
:10233000BE01DF01EF010280F381E02DDCCF21152A
:10234000310509F1281B390B2430310590F4129620
:102350008D919C9113976115710521F0FB01938379
:10236000828304C09093C7038093C603FD01329615
:1023700044C0FD01E20FF31F819391932250310974
:102380002D933C933AC02091C4033091C503232B75
:1023900041F420910202309103023093C50320934F
:1023A000C40320910002309101022115310541F44E
:1023B0002DB73EB74091040250910502241B350B06
:1023C000E091C403F091C503E217F307A0F42E1BBC
:1023D0003F0B2817390778F0AC014E5F5F4F241789
:1023E000350748F04E0F5F1F5093C5034093C40359
:1023F0008193919302C0E0E0F0E0CF01DF91CF91B3
:1024000008950F931F93CF93DF93009709F48CC027
:10241000FC013297138212820091C6031091C70308
:102420000115110581F420813181820F931F2091C4
:10243000C4033091C5032817390779F5F093C50314
:10244000E093C40371C0D80140E050E0AE17BF076D
:1024500050F412962D913C911397AD012115310541
:1024600009F1D901F3CF9D01DA0133832283608121
:102470007181860F971F8217930769F4EC012881F9
:102480003981260F371F2E5F3F4F318320838A818A
:102490009B8193838283452B29F4F093C703E093B8
:1024A000C60342C01396FC93EE931297ED01499137
:1024B00059919E01240F351FE217F30771F48081B3
:1024C0009181840F951F029611969C938E93828121
:1024D000938113969C938E931297E0E0F0E0D801DD
:1024E00012968D919C911397009719F0F8018C0129
:1024F000F6CF8D919C9198012E5F3F4F820F931FD5
:102500002091C4033091C5032817390769F4309727
:1025100029F41092C7031092C60302C013821282DC
:102520001093C5030093C403DF91CF911F910F91C6
:10253000089581E090E0F8947AC0DC0101C06D93C9
:1025400041505040E0F7089503D008F481E0089529
:10255000990F0008550FAA0BE0E8FEEF16161706B4
:10256000E807F907C0F012161306E407F50798F01C
:10257000621B730B840B950B39F40A2661F0232B35
:10258000242B252B21F408950A2609F4A140A695B1
:102590008FEF811D811D089557FD9058440F551FE1
:1025A00059F05F3F71F04795880F97FB991F61F0D5
:1025B0009F3F79F087950895121613061406551F4C
:1025C000F2CF4695F1DF08C0161617061806991FB8
:1025D000F1CF86957105610508940895E894BB27AD
:1025E00066277727CB0197F90895A1E21A2EAA1B37
:1025F000BB1BFD010DC0AA1FBB1FEE1FFF1FA217B3
:10260000B307E407F50720F0A21BB30BE40BF50BAF
:10261000661F771F881F991F1A9469F76095709538
:10262000809590959B01AC01BD01CF01089511E00B
:10263000C7E2D1E000E005C0802FFE01FCDD21965D
:10264000011DC832D10780E00807B1F7F894FFCF29
:102650000000C803800000000000B20100077C01F8
:102660005A016E01F801000000000000564D445070
:10267000565F317C315F564D4450560D0A00564D21
:102680004450455F31007C005F564D4450450D0A73
:0C2690000063686F696365203D20000056
:00000001FF
