:100000000C9429010C9453010C9453010C9453014A
:100010000C9453010C9453010C9453010C94530110
:100020000C9453010C944A0A0C944A0A0C944A0A00
:100030000C9453010C9478100C9453010C945301BC
:100040000C9453010C9453010C9453010C945301E0
:100050000C9453010C9453010C9453010C9483059C
:100060000C9453010C943F040C9415040C9453010C
:100070000C9453010C9453010C9453010C945301B0
:100080000C9453010C9453010C9453010C945301A0
:100090000C9453010C9453010C9453010C94530190
:1000A0000C9453010C9453010C9453010C94530180
:1000B0000C9453010C9453010C9453010C94530170
:1000C0000C9453010C9453010C9453010C94530160
:1000D0000C9453010C9453010C9453010C94530150
:1000E0000C9453018E049104800484048A04C8048F
:1000F000950499049F04A304A704AD04B104B504B6
:10010000C804BB04BF04C304E806ED06F206FC06FF
:1001100006077F071007180720072A0734073E073E
:100120004D0757077F0761076B0775070000210020
:10013000240027002A002D003000330001010000B8
:10014000040107010A0100002200250028002B00FD
:100150002E003100340002010000050108010B01EE
:1001600002000020002300260029002C002F00326E
:10017000000001000003010601090105050505074E
:100180000508080808020202020A0A080804040412
:10019000040101010101010101030303030303033E
:1001A00003040707070C0C0C0C0C0C0C0C020202CD
:1001B0000206060606060606060B0B0B0B0B0B0BC0
:1001C0000B0102102020080810204010204080025F
:1001D000010201080402010102040810204080808D
:1001E0004020100804020180040201804020100811
:1001F00004020108040201010204081020408001E9
:100200000204081020408000000A0B02090C0D0EA9
:1002100008070304010000000000000000000000C7
:1002200000000000000000000000000000000000CE
:10023000000000121110000000000000000000008B
:100240000000000000000000000000000000731823
:100250003F1811241FBECFEFD1E2DEBFCDBF12E0A9
:10026000A0E0B2E0E0EAFDE300E00BBF02C00790CF
:100270000D92A239B107D9F724E0A2E9B2E001C09A
:100280001D92A43EB207E1F711E0C8E2D1E004C03C
:100290002197FE010E94271BC732D107C9F70E9490
:1002A0005C110C94C31E0C940000FC01918D828D96
:1002B000981761F0828DDF01A80FB11D5D968C91BA
:1002C000928D9F5F9F73928F90E008958FEF9FEFC5
:1002D0000895FC01918D828D981731F0828DE80F81
:1002E000F11D858D90E008958FEF9FEF0895FC013B
:1002F000918D228D892F90E0805C9F4F821B910908
:100300008F739927089587EC92E00E94770121E08E
:10031000892B09F420E0822F0895FC01848DDF01F0
:10032000A80FB11DA35ABF4F2C91848D90E0019668
:100330008F739927848FA689B7892C93A089B18957
:100340008C9180648C93938D848D981306C0028861
:10035000F389E02D80818F7D80830895EF92FF9255
:100360000F931F93CF93DF93EC0181E0888F9B8DD8
:100370008C8D981305C0E889F989808185FD24C09A
:10038000F62E0B8D10E00F5F1F4F0F731127E02E1D
:100390008C8DE8120CC00FB607FCFACFE889F989FA
:1003A000808185FFF5CFCE010E948D01F1CF8B8D2D
:1003B000FE01E80FF11DE35AFF4FF0820B8FEA892F
:1003C000FB898081806207C0EE89FF896083E889AC
:1003D000F98980818064808381E090E0DF91CF9112
:1003E0001F910F91FF90EF900895CF93DF93EC0151
:1003F000888D8823C9F0EA89FB89808185FD05C045
:10040000A889B9898C9186FD0FC00FB607FCF5CF7E
:10041000808185FFF2CFA889B9898C9185FFEDCFC6
:10042000CE010E948D01E7CFDF91CF91089580E04A
:1004300090E0892B21F00E948301811125C080E08A
:1004400090E0892B41F080E090E0892B21F00E9420
:10045000000081111CC080E090E0892B41F080E019
:1004600090E0892B21F00E940000811113C080E0F0
:1004700090E0892BA1F080E090E0892B81F00E9430
:10048000000081110AC008950E940000D8CF0E9488
:100490000000E1CF0E940000EACF0C940000089514
:1004A0003FB7F8948091990290919A02A0919B0293
:1004B000B0919C0226B5A89B05C02F3F19F001966C
:1004C000A11DB11D3FBFBA2FA92F982F8827820FDA
:1004D000911DA11DB11DBC01CD0142E0660F771F2A
:1004E000881F991F4A95D1F70895CF92DF92EF9216
:1004F000FF920F931F93CF93DF93CDB7DEB729976A
:100500000FB6F894DEBF0FBECDBF8C010E94500223
:10051000D8011E96CD90DD90ED90FC905197DC01B6
:10052000CB018C199D09AE09BF09C297A105B10580
:1005300068F3F894F801848195819A838983008413
:10054000F185E02D7F018FEFE81AF80A80818B8317
:10055000D8019C915296ED91FC91539754968C91B1
:10056000992309F430C09081982B9C8390818095C9
:1005700089238D838D818E8388E08F835C816D815B
:100580004B813F812E8189819A81D701508347FD1C
:10059000252F3A952083262F39F0441F00C00000F4
:1005A0006083000000C0F2CF38E04D91608300000E
:1005B000019761F7D8015396FC93EE9352974B83C2
:1005C0003F832E833AC09081982B9C8390818095A5
:1005D00089238D838D81888788E089875C816D81FF
:1005E0004B813985288589819A81D701508347FDC0
:1005F000252F00C000C0208300C000C000C000C084
:1006000000C060830000262F3A9541F0441F00008F
:1006100000C000C000C000C000C0E8CF38E04D916D
:1006200000C0608300C0019709F7D8015396FC937E
:10063000EE9352974B83398728879A8389837894DE
:100640000E945002F80166877787808B918B2996EC
:100650000FB6F894DEBF0FBECDBFDF91CF911F91D3
:100660000F91FF90EF90DF90CF9008950E94021EAF
:10067000EF92FF920F931F93CF93DF9300D000D0A0
:10068000CDB7DEB78C01FC0175836483CB0108967E
:10069000938382837C01EE0CFF1CC70149835A833C
:1006A0006B837C830E94EC1BF8018083918397010C
:1006B0002051310949815A81240F351FDA01FC018B
:1006C000A217B30741F08D919D91309711F091835E
:1006D00080833296F5CF0F900F900F900F90DF919F
:1006E000CF911F910F91FF90EF900895EF92FF929D
:1006F0000F931F93CF93DF93EC018B01681779075A
:1007000009F486C0DB0114962D913C9115978A81DE
:100710009B818217930718F5E880F9803B832A8331
:10072000C901880F991F0E94EC1B888399834C8113
:100730005D81D701FC0120E030E02417350761F02E
:10074000309729F08D919C911197918380832F5F31
:100750003F4F12963296F1CFC7010E94811C8C81C7
:100760009D81F801448155818417950708F4AC01F7
:1007700080E090E08417950791F09C01220F331FD1
:10078000D801ED91FC91E20FF31F60817181E88146
:10079000F981E20FF31F718360830196EBCF8C81A7
:1007A0009D81F801248135818217930768F0D80173
:1007B00014968D919C9115972C813D8182179307FA
:1007C00038F59D838C8324C09C01220F331FD801F0
:1007D00014964D915C9115978417950740F7F80191
:1007E000A081B181A20FB31FE881F981E20FF31F4D
:1007F000309721F04D915C91518340834C815D8114
:100800004F5F5F4F5D834C8301962E5F3F4FDFCF7D
:10081000CE01DF91CF911F910F91FF90EF9008953E
:10082000FC01808191810C94811C1F920F920FB664
:100830000F9211240BB60F922F933F934F935F9318
:100840006F937F938F939F93AF93BF93EF93FF9398
:1008500087EC92E00E948D01FF91EF91BF91AF91E3
:100860009F918F917F916F915F914F913F912F91C8
:100870000F900BBE0F900FBE0F901F9018951F92F8
:100880000F920FB60F9211240BB60F922F938F93E6
:100890009F93EF93FF93E091D702F091D80280816C
:1008A000E091DD02F091DE0282FD12C09081809124
:1008B000E0028F5F8F732091E102821751F0E09187
:1008C000E002F0E0E953FD4F958F8093E00201C014
:1008D0008081FF91EF919F918F912F910F900BBE8F
:1008E0000F900FBE0F901F90189590E0FC0131976C
:1008F000E231F10508F04CC0EE58FF4F0C94271B75
:10090000809180008F7703C0809180008F7D8093DD
:100910008000089580918000877FF9CF84B58F771C
:1009200002C084B58F7D84BD08958091B0008F771B
:1009300003C08091B0008F7D8093B00008958091B6
:1009400090008F7707C0809190008F7D03C08091C9
:100950009000877F8093900008958091A0008F770A
:1009600007C08091A0008F7D03C08091A000877F89
:100970008093A0000895809120018F7707C0809117
:1009800020018F7D03C080912001877F809320010B
:1009900008951F93CF93DF93282F30E0F901E95F8B
:1009A000FD4F8491F901EF53FE4FD491F901E558C1
:1009B000FE4FC491CC23C9F0162F81110E947504FB
:1009C000EC2FF0E0EE0FFF1FEA5BFE4FA591B49114
:1009D0008FB7F894111105C09C91ED2FE095E92394
:1009E00002C0EC91ED2BEC938FBFDF91CF911F9163
:1009F0000895CF93DF9390E0FC01EF53FE4F2491D5
:100A0000FC01E558FE4F8491882361F190E0880F46
:100A1000991FFC01E45DFE4FC591D491FC01EA5B96
:100A2000FE4FA591B491611109C09FB7F8948881D8
:100A3000209582238883EC912E230BC0623061F4D1
:100A40009FB7F8943881822F809583238883EC9117
:100A50002E2B2C939FBF06C08FB7F894E8812E2BC6
:100A600028838FBFDF91CF910895CF93DF93EC015F
:100A700088859985009711F00E94811C8E8187FDE1
:100A800005C060E0DF91CF910C94F904DF91CF9124
:100A900008958F929F92AF92BF92CF92DF92EF9282
:100AA000FF926B017C010E9450024B015C01C1145A
:100AB000D104E104F104F1F00E945002DC01CB0109
:100AC00088199909AA09BB09883E9340A105B10577
:100AD00070F321E0C21AD108E108F10888EE880E0F
:100AE00083E0981EA11CB11CC114D104E104F104DF
:100AF00019F7DDCFFF90EF90DF90CF90BF90AF90D0
:100B00009F908F9008951F920F920FB60F9211240D
:100B10002F933F938F939F93AF93BF9380919202B4
:100B200090919302A0919402B09195023091980215
:100B300023E0230F2D3720F40196A11DB11D05C020
:100B400026E8230F0296A11DB11D209398028093E1
:100B5000920290939302A0939402B0939502809195
:100B6000990290919A02A0919B02B0919C020196E9
:100B7000A11DB11D8093990290939A02A0939B02AC
:100B8000B0939C02BF91AF919F918F913F912F9114
:100B90000F900FBE0F901F9018950F931F93CF9338
:100BA000DF93EC0161E08A810E94C90465E070E096
:100BB00080E090E00E9449059C81963308F09653AE
:100BC00080917B00292F2870877F822B80937B0068
:100BD0009770906490937C0080917A0080648093F9
:100BE0007A0080917A0086FDFCCF00917800809198
:100BF000790010E0182B65E070E080E090E00E9442
:100C0000490560E08A810E94C9048E819F8108178E
:100C100019071CF081E08A8701C01A86DF91CF9105
:100C20001F910F9108950F931F93CF93DF93EC01C2
:100C3000088119817B836A83CB01880F991F0E94E9
:100C4000EC1B998388838C819D81D80140E050E022
:100C50004817590791F0E881F9819A01220F331F53
:100C6000E20FF31F309729F02D913C9111973183BA
:100C700020834F5F5F4F1296EBCFC801DF91CF917A
:100C80001F910F910C94811C0F931F93CF93DF93AF
:100C9000EC01088119817B836A83CB01880F991F3E
:100CA0000E94EC1B998388838C819D81D80140E050
:100CB00050E04817590791F0E881F9819A01220F15
:100CC000331FE20FF31F309729F02D913C911197BC
:100CD000318320834F5F5F4F1296EBCFC801DF91C6
:100CE000CF911F910F910C94811CCF93DF93EC0156
:100CF00060E088810E94C90461E08A81DF91CF9120
:100D00000C94C904CF93DF93EC0161E08C810E94C5
:100D1000F90461E088810E94F90461E08A810E94FF
:100D2000F904DF91CF910895CF92DF92EF92FF9275
:100D30000F931F93CF93DF93EC016A017B0120E0B7
:100D400030E04FE753E4C701B6010E94E71B1816D5
:100D500074F020E030E0A901C701B6010E94271E0F
:100D600087FF0BC0F7FAF094F7F8F09406C0C12C97
:100D7000D12C8FE7E82E83E4F82ECE82DF82E8863E
:100D8000F986C701B6010E94B11B6B017C018B0182
:100D90000C80DD81C02D61E08C2F0E94F904C1140C
:100DA000D10409F4AFC00F3F110509F4ADC0FE0135
:100DB000FF27E95FFD4FE4914E2F50E0FA01319794
:100DC000E231F10508F09BC0EC57FF4F0C94271B54
:100DD00084B5806884BDC7BCA3C084B5806284BD6F
:100DE000C8BC9EC080918000806880938000D092B3
:100DF0008900C092880094C08091800080628093B6
:100E00008000D0928B00C0928A008AC080918000BE
:100E1000886080938000D0928D00C0928C0080C04A
:100E20008091B00080688093B000C092B30078C019
:100E30008091B00080628093B000C092B40070C016
:100E400080919000806880939000D0929900C09229
:100E5000980066C080919000806280939000D0924C
:100E60009B00C0929A005CC0809190008860809343
:100E70009000D0929D00C0929C0052C08091A00032
:100E800080688093A0008091A0008F7B8093A00059
:100E9000D092A900C092A80043C08091A0008062B7
:100EA0008093A000D092AB00C092AA0039C080917C
:100EB000A00088608093A000D092AD00C092AC00EA
:100EC0002FC080912001806880932001D092290159
:100ED000C092280125C0809120018062809320016A
:100EE000D0922B01C0922A011BC080912001886002
:100EF00080932001D0922D01C0922C0111C00038A6
:100F0000110514F460E001C061E08C2FDF91CF91F6
:100F10001F910F91FF90EF90DF90CF900C94C90438
:100F2000DF91CF911F910F91FF90EF90DF90CF90C5
:100F300008954F925F926F927F928F929F92AF929D
:100F4000BF92CF92DF92EF92FF920F931F93CF93B6
:100F5000DF93CDB7DEB72E970FB6F894DEBF0FBE86
:100F6000CDBF8C017B016A015901798768875B8756
:100F70004A873D872C87AE01485F5F4F63E070E092
:100F80009E01225F3F4FCE0101960E943803BE01B1
:100F90006F5F7F4FC80104960E947603CE010196D1
:100FA0000E94100420E030E040E050E080E090E05B
:100FB000B701772726015524D501BB276A2C7C2C45
:100FC0009E2CF801E280F3808E159F050CF050C036
:100FD000F801E584F6848E159F0508F043C0E28889
:100FE000E11004C0862CD72CC92C19C0F12C6E9DA1
:100FF00060016F9DD00C7E9DD00C1124CD2C4E9C99
:1010000050014F9CB00C5E9CB00C1124DB2CAE9DAB
:101010005001AF9DB00CBE9DB00C11248B2CF8017B
:10102000B08CA588E388F488BA1003C0E40EF51EDE
:1010300006C0E20EF31EF701EB0DF11D1082F80160
:10104000B588F701EB0DF11DC082F801C688570184
:10105000AC0CB11CF501D082F801D788ED0CF11C65
:10106000F701808201964D5F5F4F2C5F3F4FA9CF04
:10107000C8010B9623893489232B11F00E94750235
:101080002E960FB6F894DEBF0FBECDBFDF91CF9185
:101090001F910F91FF90EF90DF90CF90BF90AF9096
:1010A0009F908F907F906F905F904F900895AF9238
:1010B000BF92CF92DF92EF92FF920F931F93CF9345
:1010C000DF93CDB7DEB765970FB6F894DEBF0FBEDE
:1010D000CDBF8C01FC01E080F180A280B3801A8238
:1010E00018861F86188A198A1A8A81E08E878B874C
:1010F0001C8692E09D8789836501CC0CDD1CCA0C9F
:10110000DB1CDE82CD82C6010E94EC1B9A87898798
:10111000009741F0A60160E070E00E94101EBC82C2
:10112000AB8204C01E821D821C821B82EF828A81D8
:10113000882341F061E08E2D0E94F90460E08E2D3D
:101140000E94C904C7019927FC01E558FE4FE491AC
:10115000F0E0EE0FFF1FEA5BFE4F259134913C8BD0
:101160002B8BFC01EF53FE4F84918D8B85E1FE01AB
:101170003196D8011B9601900D928A95E1F7CE0128
:1011800001960E9435057801FBE0EF0EF11CF80195
:10119000818987FD08C061E00E94F90460E0F801E0
:1011A00081890E94C90481E0F80184878389948938
:1011B000892B19F0C7010E94750265960FB6F89445
:1011C000DEBF0FBECDBFDF91CF911F910F91FF907A
:1011D000EF90DF90CF90BF90AF900895AF92BF9205
:1011E000CF92DF92EF92FF920F931F93CF93DF93F3
:1011F000CDB7DEB72E970FB6F894DEBF0FBECDBFCA
:101200008C015B016A01FC0180A191A1998788870B
:1012100082A193A19B878A8784A195A19D878C87B2
:10122000AE01485F5F4F63E070E07801F4E0EF0EDD
:10123000F11C9E012F5F3F4FC7010E94380391E0D0
:10124000F8019387148616861586108A17868FEF05
:10125000818B128A148A138A958B168A82E0878B77
:10126000908F118E128E138E148EB182A082D38233
:10127000C28247E052E063E070E09E01225F3F4F90
:10128000CE0101960E943803BE016F5F7F4FC701F8
:101290000E947603CE0101960E9410042E960FB68E
:1012A000F894DEBF0FBECDBFDF91CF911F910F919C
:1012B000FF90EF90DF90CF90BF90AF9008950F9385
:1012C0001F93CF93DF93EC01088119817B836A839D
:1012D000CB01880F991F880F991F0E94EC1B8883F0
:1012E0009983FC01D80120E030E08C819D81281792
:1012F000390780F4309749F04D915D916D917C9163
:10130000139740835183628373832F5F3F4F3496DB
:101310001496EBCFC801DF91CF911F910F910C94E0
:10132000811CCF92DF92EF92FF920F931F93CF9386
:10133000DF937C018B01DB011496CD91DC91159735
:10134000FC01D583C483CE01089693838283880FE2
:10135000991F880F991F0E94EC1BD7018D939C93B6
:10136000FC0140E050E04C175D07B9F0D8016D91E9
:101370007C919F01281B390BDB01A20FB31F309713
:1013800041F0CD90DD90ED90FC90C082D182E28260
:10139000F3824F5F5F4F3496E6CFDF91CF911F917D
:1013A0000F91FF90EF90DF90CF900895AF92BF9292
:1013B000CF92DF92EF92FF920F931F93CF93DF9321
:1013C000EC01EC80FD8087010F5F1F4FE016F106F6
:1013D00008F050C06B018A819B818017910768F5E6
:1013E0009701275F3F4F8217930738F5A880B98090
:1013F0003B832A83C901880F991F880F991F0E9478
:10140000EC1B88839983D501FC0120E030E02E1588
:101410003F0581F0309749F04D915D916D917C9140
:10142000139740835183628373832F5F3F4F1496DA
:101430003496EDCFC5010E94811C8C819D819C0159
:10144000220F331F220F331F80179107B0F4E8815A
:10145000F981E20FF31F309749F0D6014D915D916C
:101460006D917C91408351836283738301962C5FDD
:101470003F4FEACF0E151F0510F41D830C83DF913B
:10148000CF911F910F91FF90EF90DF90CF90BF9081
:10149000AF9008951F920F920FB60F9211240F90E4
:1014A0000FBE0F901F901895FC01808191810C94C4
:1014B000811CE7ECF2E0A089B18982E08C93A485DD
:1014C000B5851C92A685B7858FEC8C93108EA48968
:1014D000B58986E08C93A289B3898C9180618C93C5
:1014E000A289B3898C9188608C93A289B3898C91ED
:1014F00080688C930288F389E02D80818F7D8083C2
:101500000895CF92DF92EF92FF920F931F93CF93A4
:10151000DF93E090BE03F090BF03E816F90608F0F1
:101520005DC08B01EC018091BC039091BD038C17D1
:101530009D07A0F59E01285F3F4F8217930770F526
:10154000C090BA03D090BB033093BD032093BC037B
:10155000C901880F991F0E94EC1B9093BB038093D5
:10156000BA03D60140E050E04E155F05A1F0E091CE
:10157000BA03F091BB039A01220F331FE20FF31F4E
:10158000309729F08D919C911197918380834F5FC3
:101590005F4F1296E9CFC6010E94811C8091BE0365
:1015A0009091BF039C01220F331F8C179D0788F475
:1015B000E091BA03F091BB03E20FF31F309729F0DB
:1015C000D8014D915C915183408301962E5F3F4F2E
:1015D000ECCFD093BF03C093BE0307C08E159F0509
:1015E00020F49093BF038093BE03DF91CF911F91AE
:1015F0000F91FF90EF90DF90CF9008950F931F937E
:10160000CF93DF936091B7037091B803EB012196FC
:101610006C177D0760F58C018091B5039091B6033E
:101620008C179D0748F4675F7F4F8617970720F454
:1016300083EB93E00E9413062091B7033091B80327
:10164000C901880F991F2C173D07A0F4E091B3033F
:10165000F091B403E80FF91F309729F0D8014D91AC
:101660005C91518340832F5F3F4F0296ECCFC617AA
:10167000D70720F4D093B803C093B703DF91CF917D
:101680001F910F9108950F931F93CF93DF93209194
:10169000B0033091B1032817390798F58B01EC019D
:1016A0008091AE039091AF038C179D0750F4BE015B
:1016B000685F7F4F8617970720F48CEA93E00E94BB
:1016C00044068091B0039091B1039C01220F331F17
:1016D0008C179D0788F4E091AC03F091AD03E20F05
:1016E000F31F309729F0D8014D915C9151834083CD
:1016F00001962E5F3F4FECCFD093B103C093B00360
:1017000007C08217930720F49093B1038093B0032E
:10171000DF91CF911F910F9108950F931F93CF9356
:10172000DF9360911A0470911B04EB0121966C17F2
:101730007D0790F58C0180911804909119048C1705
:101740009D0748F4675F7F4F8617970720F486E16F
:1017500094E00E945F0920911A0430911B04C90192
:10176000880F991F880F991F2C173D07C0F4E0912F
:101770001604F0911704E80FF91F309749F0D801CB
:101780004D915D916D917C91408351836283738310
:101790002F5F3F4F0496E8CFC617D70720F4D093AA
:1017A0001B04C0931A04DF91CF911F910F910895EC
:1017B000EF92FF920F931F93CF93DF930091160444
:1017C00010911704C0911A04D0911B04CC0FDD1F97
:1017D000CC0FDD1FC00FD11F0C171D0761F1F801E1
:1017E000208131813327F901E95FFD4F8491F901AF
:1017F000EF53FE4FE490F901E558FE4FF490FF20BF
:1018000091F081110E947504EF2DF0E0EE0FFF1FA3
:10181000EF59FE4FA591B491EC91EE2191E080E05B
:1018200021F490E002C090E080E0F801928383838D
:101830000C5F1F4FD1CFE0911604F0911704828105
:101840009381892B99F086819781892B91F08285EC
:101850009385892B89F086859785892B81F08289EC
:101860009389892B79F080E090E00EC081E090E0D0
:101870000BC082E090E008C083E090E005C084E007
:1018800090E002C085E090E0DF91CF911F910F9131
:10189000FF90EF9008950F931F93CF93DF93EC0188
:1018A0008C819D81892B31F48C819D81892B09F458
:1018B0004EC027C06BE372E0888199810E94171E99
:1018C000892B91F700E010E08091B7039091B80365
:1018D0000817190748F7E091B303F091B403980192
:1018E000220F331FE20FF31F80819181FC012081C1
:1018F00031812130310511F40E94CD050F5F1F4F5A
:10190000E3CF6CE872E0888199810E94171E892BD1
:10191000F1F4C0E0D0E08091B7039091B803C8170C
:10192000D907A8F4E091B303F091B403CE01880F76
:10193000991FE80FF91F80819181FC01208131817D
:101940002330310511F40E94CD052196E4CFDF91BB
:10195000CF911F910F9108952F923F924F925F92D6
:101960006F927F928F929F92AF92BF92CF92DF92AF
:10197000EF92FF920F931F93CF93DF93CDB7DEB714
:1019800027970FB6F894DEBF0FBECDBF9E838D8321
:1019900000E010E0212C312C88248A94982C5401EA
:1019A00098E4492E98EE592E66246394712CAD81EB
:1019B000BE8114968D919C9115972816390608F0D2
:1019C0003EC3AD81BE81ED91FC919F01200F311F7F
:1019D000D9018D919D910D90BC91A02D89839A8301
:1019E000AB83BC8320E030E040E251E4BC01CD0198
:1019F0000E94E71B18160CF0B6C220E030E44CE958
:101A000056E469817A818B819C810E94271E87FF21
:101A1000AAC2E090C903F090CA03809100028E111F
:101A200005C0E0E6F1E0F491FF8307C18F3F09F0C4
:101A300090C2E0920002E0E6F1E084918F3F09F469
:101A400088C2823009F480C074F5882309F45BC031
:101A5000813009F0F1C010928000109281008091D5
:101A600081008860809381008091810081608093F3
:101A70008100C7019927FC01E558FE4FE491F0E091
:101A8000EE0FFF1FEA5BFE4F259134913093AB02BE
:101A90002093AA02FC01EF53FE4FE491E093A902C8
:101AA000F1E0FF83CDC0843009F49EC00CF474C013
:101AB000853009F0C1C0109220011092210180915F
:101AC00021018860809321018091210181608093B0
:101AD0002101C7019927FC01E558FE4FE491F0E090
:101AE000EE0FFF1FEA5BFE4F2591349130939F026A
:101AF00020939E02FC01EF53FE4FE491E0939D0280
:101B0000B5E0BF839DC014BC15BC84B5826084BDA4
:101B100085B5816085BDC7019927FC01E558FE4F59
:101B2000E491F0E0EE0FFF1FEA5BFE4F2591349148
:101B30003093AE022093AD02FC01EF53FE4FE491CF
:101B4000E093AC021F827CC01092B0001092B100F2
:101B50008091B00082608093B0008091B10081607C
:101B60008093B100C7019927FC01E558FE4FE4912D
:101B7000F0E0EE0FFF1FEA5BFE4F259134913093AA
:101B8000A8022093A702FC01EF53FE4FE491E093DB
:101B9000A60282E08F8354C01092900010929100B0
:101BA0008091910088608093910080919100816084
:101BB00080939100C7019927FC01E558FE4FE491FD
:101BC000F0E0EE0FFF1FEA5BFE4F2591349130935A
:101BD000A5022093A402FC01EF53FE4FE491E09391
:101BE000A30293E09F832CC01092A0001092A1004A
:101BF0008091A10088608093A1008091A100816004
:101C00008093A100C7019927FC01E558FE4FE4919C
:101C1000F0E0EE0FFF1FEA5BFE4F25913491309309
:101C2000A2022093A102FC01EF53FE4FE491E09346
:101C3000A002A4E0AF8304C08F83EF81E7FD89C1D8
:101C400069817A818B819C810E94B81B69837A8328
:101C50008B839C8361E08E2D0E94F90489819A8197
:101C60006C01E12CF12C8F818D7F09F0ACC060E01C
:101C700072E18AE790E0A70196010E94081B298380
:101C80003A834B835C83BA01A90141505109610930
:101C900071094F3F51056105710509F008F445C010
:101CA00060E472E48FE090E0A70196010E94081BB7
:101CB000BA01A90141505109610971099F8192300E
:101CC000E9F44F3F51056105710509F008F4B5C10C
:101CD00060E970ED83E090E0A70196010E94081B87
:101CE000BA01A90141505109610971094F3F5105DC
:101CF0006105710509F0B8F583E05EC04F3F5105FD
:101D000061057105A1F098F0C301B201A701960128
:101D10000E94081BBA01A9014150510961097109CA
:101D2000AF81AA2309F435C180C181E001C082E0FE
:101D3000EF81EE2399F040C089819A81AB81BC810B
:101D40002AE0B595A795979587952A95D1F7AC0187
:101D5000BD01415051096109710985E095B5987F30
:101D6000892B85BD90C0C301B201A70196010E94D5
:101D7000081BBA01A90141505109610971094F3F7E
:101D800051056105710509F008F401C164E274EFC1
:101D900080E090E0A70196010E94081BBA01A9010A
:101DA00041505109610971094F3F510561057105A4
:101DB00011F008F00DC185E09091B100987F892B5A
:101DC0008093B1004DC060E072E18AE790E0A70126
:101DD00096010E94081BBA01A901415051096109ED
:101DE000710941155105F1E06F07710570F0C301EC
:101DF000B201A70196010E94081BBA01A901415036
:101E000051096109710923E001C021E08F8181300E
:101E100039F480918100887F822B8093810042C0B9
:101E20009F81933039F480919100887F822B809339
:101E300091005AC0AF81A43039F48091A100887F0D
:101E4000822B8093A10062C0BF81B53049F480919C
:101E50002101982F987F822F892B8093210168C0C0
:101E6000EF81E23089F134F4EE2369F0E13009F0DA
:101E700070C018C0FF81F43009F448C0ACF1F530EF
:101E800009F456C066C047BD8092C3029092C40256
:101E9000A092C502B092C60280916E0082608093CB
:101EA0006E0057C050938900409388008092BF0213
:101EB0009092C002A092C102B092C20280916F00C3
:101EC000826080936F0045C04093B3008092BB0254
:101ED0009092BC02A092BD02B092BE0280917000AE
:101EE00082608093700035C05093990040939800B1
:101EF0008092B7029092B802A092B902B092BA0250
:101F00008091710082608093710023C05093A9007A
:101F10004093A8008092B3029092B402A092B502BE
:101F2000B092B6028091720082608093720011C0FC
:101F300050932901409328018092AF029092B00201
:101F4000A092B102B092B20280917300826080933D
:101F500073006091CB037091CC03072E000C880BAB
:101F6000990B0E9449058091C9030E940311609159
:101F7000CD037091CE03072E000C880B990B0E94A5
:101F800049058FEF281A380A0C5F1F4F10CD84E0E7
:101F900013CF4F3F510561057105C1F0B8F062E103
:101FA0007AE780E090E0A70196010E94081BBA0141
:101FB000A90141505109610971094F3F510561055E
:101FC000710511F008F0B8CE84E0C8CE83E0C6CE2B
:101FD00062E17AE780E090E0A70196010E94081B89
:101FE000BA01A90141505109610971094F3F5105D9
:101FF00061057105C1F0B8F089819A81AB81BC811E
:102000003AE0B595A795979587953A95D1F7AC01A4
:10201000BD014150510961097109BF81BB2309F418
:102020009CCE87E0C9CE86E083CE4F3F5105610547
:10203000710509F068F684E07BCE82E0BDCE27967C
:102040000FB6F894DEBF0FBECDBFDF91CF911F91C9
:102050000F91FF90EF90DF90CF90BF90AF909F9047
:102060008F907F906F905F904F903F902F9008954A
:10207000EF92FF920F931F93CF93DF93EC017B01BD
:102080008A0188819981009729F02A813B81241750
:102090003507F8F4B8016F5F7F4F0E94191D009754
:1020A00059F0998388831B830A832C813D81232BDC
:1020B00081F4FC0110820DC088819981009711F094
:1020C0000E94811C198218821D821C821B821A8226
:1020D00007C01D830C83B701888199810E94201E4F
:1020E000CE01DF91CF911F910F91FF90EF90089556
:1020F0001F920F920FB60F9211240BB60F922F93CF
:102100003F934F935F936F937F938F939F93AF937F
:10211000BF93EF93FF938091BB029091BC02A0917B
:10212000BD02B091BE02892B8A2B8B2B51F180917D
:10213000A602E091A702F091A802908189278083EE
:102140008091BB029091BC02A091BD02B091BE02F1
:10215000181619061A061B06C4F48091BB0290914A
:10216000BC02A091BD02B091BE020197A109B109C4
:102170008093BB029093BC02A093BD02B093BE02B9
:1021800004C0809100020E940311FF91EF91BF9162
:10219000AF919F918F917F916F915F914F913F91FF
:1021A0002F910F900BBE0F900FBE0F901F901895A0
:1021B000CF92DF92EF92FF920F931F93CF93DF9313
:1021C0006C017A018B01C0E0D0E0CE15DF0589F00B
:1021D000D8016D918D01D601ED91FC910190F081B6
:1021E000E02DC6010995892B11F47E0102C02196CC
:1021F000ECCFC701DF91CF911F910F91FF90EF902E
:10220000DF90CF9008959091000298133DC0E0E6D2
:10221000F1E0E4919FEF90930002E230C9F050F4B6
:10222000EE2399F0E13081F590916F009D7F9093BE
:102230006F002AC0E43019F1E0F0E53029F5909103
:1022400073009D7F909373001FC010926E001CC09E
:10225000909170009D7F9093700091E09093B000FA
:102260009091B100987F94609093B1001092B30068
:102270000BC0909171009D7F9093710005C090916B
:1022800072009D7F9093720060E00C94C904611508
:10229000710579F0FB0101900020E9F73197AF015A
:1022A000461B570BDC01ED91FC910280F381E02D80
:1022B000099480E090E00895CF93DF93CDB7DEB727
:1022C000CB54D1090FB6F894DEBF0FBECDBF7894C2
:1022D00084B5826084BD84B5816084BD85B582602B
:1022E00085BD85B5816085BD80916E0081608093DC
:1022F0006E00109281008091810082608093810045
:102300008091810081608093810080918000816054
:10231000809380008091B10084608093B1008091AF
:10232000B00081608093B0008091910082608093C2
:102330009100809191008160809391008091900044
:102340008160809390008091A10082608093A100C1
:102350008091A10081608093A1008091A0008160A4
:102360008093A0008091210182608093210180915F
:1023700021018160809321018091200181608093FF
:10238000200180917A00846080937A0080917A00A5
:10239000826080937A0080917A00816080937A00D5
:1023A00080917A00806880937A001092C100109228
:1023B000A8031092A9031092AA031092AB031092E3
:1023C000660310926703109268031092690360ED30
:1023D00077E080E090E00E94490587EC92E09093DE
:1023E000A7038093A6030E94590A2FB7F8948091FF
:1023F000920290919302A0919402B09195022FBF06
:102400008093660390936703A0936803B093690376
:102410006FE172E08091A6039091A7030E9447119B
:102420006AE070E080E090E00E94490581E08093DE
:102430007A0385ED94E00E9482068AEC94E00E9483
:10244000820687E594E00E94570881E394E00E94A9
:1024500057088091250490912604A0912704B091FB
:1024600028048AAB9BABACABBDABCE01C2960E943D
:102470008D0B8091290490912A04A0912B04B09196
:102480002C048EA79FA7A8ABB9ABCE018E960E9455
:102490008D0B8091210490912204A0912304B0918E
:1024A00024048AA79BA7ACA7BDA7CE018A960E9449
:1024B0008D0B80912D0490912E04A0912F04B0914A
:1024C00030048EA39FA3A8A7B9A7CE0186960E9429
:1024D0008D0B80911D0490911E04A0911F04B0915A
:1024E00020048AA39BA3ACA3BDA3CE0182960E9425
:1024F0008D0B85ED94E02C969FAF8EAF2C9780913D
:10250000B0039091B103BE01665B7F4F01960E94BC
:10251000430B8AEC94E02A969FAF8EAF2A97809166
:10252000B0039091B103BE01685B7F4F01960E949A
:10253000430B8FEB94E028969FAF8EAF2897CE0188
:102540008A5B9F4F0E94FE0A84EB94E026969FAF21
:102550008EAF2697CE018C5B9F4F0E94FE0A89EAC0
:1025600094E024969FAF8EAF2497CE018E5B9F4F51
:102570000E94FE0A8EE994E022969FAF8EAF2297CA
:10258000CE01805C9F4F0E94FE0A83E994E09FAFDA
:102590008EAFCE01CE960E94FE0A88E894E09DAFF1
:1025A0008CAFCE01CC960E94FE0A8DE794E09BAFE3
:1025B0008AAFCE01CA960E94FE0A87E594E099AFE1
:1025C00088AF8091BE039091BF03BE01685C7F4FCE
:1025D00001960E94810A81E394E09FAB8EAB8091CB
:1025E000BE039091BF03BE016A5C7F4F01960E94BB
:1025F000810A84E194E09093C2038093C10320E0B8
:1026000030E040E050E060E070E087E594E00E9458
:1026100099070E94590A11E05AE0452E512C612C6D
:10262000712C0E94D80B83309105D1F06CF420916D
:10263000C5033091C6038130910561F0029709F01E
:10264000DAC32150310908C08430910549F005975B
:10265000B1F0D1C32F5F3F4F3093C6032093C50322
:1026600066ED73E0CE0101960E949109CE010196BC
:102670000E94AC0CCE0101960E94540ABCC36DEDC1
:1026800073E0CE0101960E949109CE0101960E944D
:10269000AC0CCE0101960E94540A61E372E087EC13
:1026A00092E00E944711C090C303D090C4030D2C48
:1026B000000CEE08FF08F7FE27C0E091C702F0917A
:1026C000C8020190F081E02D6DE287EC92E009955F
:1026D00022273327A9012C193D094E095F0919A2A8
:1026E000CE0181967C01CA01B901A30192010E9429
:1026F000A11E605DF70162937F012115310541053F
:10270000510589F7BF0116C0A701960119A2CE0194
:1027100081965C01CA01B901A30192010E94A11E28
:10272000605DF50162935F01211531054105510599
:1027300089F7BF0187EC92E00E9447116EE272E0D8
:1027400087EC92E00E9447118091C3039091C403EB
:102750008130910509F4F1C0F4F4892B09F047C3E5
:1027600021E330E04AEF50E061E070E087E594E07B
:102770000E94990721E330E04AEF50E061E070E009
:1027800081E394E00E9499076AEF70E080E090E0B6
:102790000E9449054FC08230910509F461C2039738
:1027A00009F025C32FEF30E040E050E06FEF70E01C
:1027B00087E594E00E9499072FEF30E040E050E079
:1027C0006FEF70E081E394E00E94990710C3A0913D
:1027D000B303B091B403F701EE0FFF1FEA0FFB1F25
:1027E0000190F081E02D808191810197E1F1ED91DF
:1027F000FC9111978285811108C01296ED91FC9190
:1028000013978285882309F45BC366E470E080E057
:1028100090E00E9449054FEFE41AF40A8091B70353
:102820009091B803E816F90690F20E94D80B05972C
:1028300009F4C1C21A8219821C821B821E821D8267
:1028400048E050E06BE372E0CE0101960E94381040
:10285000CE0101960E944B0C89819A810E94811CB5
:10286000E12CF12CDBCF80859185009709F045C0E4
:102870008285882309F4BBCFE091AC03F091AD03CE
:1028800080819181FC0112870E947506E091AC0362
:10289000F091AD03C280D380F601128661E08081A1
:1028A0000E94C90460E0F60182810E94C904E0919F
:1028B000AC03F091AD0340E050E06FE773E4828138
:1028C00093810E94940664E170E080E090E00E94B1
:1028D0004905E091AC03F091AD0340E050E0BA014E
:1028E000808191810E949406E091AC03F091AD0348
:1028F00040E050E066E173E430C38130910561F45B
:102900008285882309F473CFE091AC03F091AD0385
:1029100040E050E0BA0121C3019609F068CF8285FA
:10292000882309F464CFE091AC03F091AD0340E05B
:1029300050E0BA018081918112C322E430E04DE180
:1029400050E068E870E087E594E00E94990722E48F
:1029500030E04DE150E068E870E081E394E00E94EF
:102960009907E091AC03F091AD0380819181FC0166
:1029700012870E947506E091AC03F091AD0382814D
:102980009381FC0112870E947506E12CF12C6AEFFD
:1029900070E080E090E00E9449050E94D80B8330EF
:1029A000910509F492C03CF48130910561F00297E1
:1029B00009F44AC01AC18430910509F4C8C00597CA
:1029C00009F42BC112C129E230E040E050E068E593
:1029D00070E087E594E00E94990729E230E040E04A
:1029E00050E068E570E081E394E00E949907EA9482
:1029F000EF2809F410C164E472E087EC92E00E94D1
:102A00004711E091AC03F091AD0380819181FC010D
:102A100012870E947506E091AC03F091AD038281AC
:102A20009381FC0112870E94750665E070E080E0EA
:102A300090E00E944905E091AC03F091AD0340E0C5
:102A400050E06AEF72E4D8C025E730E04FEF50E085
:102A50006CE270E087E594E00E94990725E730E09A
:102A60004FEF50E06CE270E081E394E00E94990740
:102A7000F2E0EF16F10409F4CEC066E572E087ECEF
:102A800092E00E944711E091AC03F091AD03808188
:102A90009181FC0112870E947506E091AC03F091D0
:102AA000AD0382819381FC0112870E94750665E067
:102AB00070E080E090E00E944905E091AC03F09165
:102AC000AD0340E050E0BA0183C02CE130E049EFB3
:102AD00050E069E770E087E594E00E9499072CE1F7
:102AE00030E049EF50E069E770E081E394E00E9454
:102AF0009907F3E0EF16F10409F48DC068E672E07F
:102B000087EC92E00E944711E091AC03F091AD0395
:102B1000E080F180F701128661E080810E94C904A3
:102B200060E0F70182810E94C904E091AC03F0915A
:102B3000AD03E280F380F701128661E080810E949C
:102B4000C90460E0F70182810E94C90433C024E116
:102B500030E043E550E061E870E087E594E00E94F2
:102B6000990724E130E043E550E061E870E081E35B
:102B700094E00E949907F4E0EF16F10409F44BC0C9
:102B80006AE772E087EC92E00E944711E091AC03A3
:102B9000F091AD0380819181FC0112870E9475063E
:102BA000E091AC03F091AD0382819381FC01128727
:102BB0000E94750665E070E080E090E00E944905A3
:102BC000E091AC03F091AD0340E050E06AEF72E4B5
:102BD000808191810E949406E091AC03F091AD0355
:102BE00040E050E06AEF72E412C0E091AC03F09173
:102BF000AD0340E050E0BA01808191810E949406CB
:102C0000E091AC03F091AD0340E050E0BA01828165
:102C100093810E94940601E001C000E00E94D80B5D
:102C20007C010111B4CEE091AC03F091AD0340E022
:102C300050E0BA01808191810E949406E091AC033A
:102C4000F091AD0340E050E0BA01828193810E948F
:102C500094066EEE72E080E090E00E944905C7C0E5
:102C60002BE130E040E050E06EEF70E087E594E06B
:102C70000E9499072BE130E040E050E06EEF70E0F9
:102C800087E594E00E949907E091B303F091B403C3
:102C90002091B7033091B80380E090E0E12CF12C53
:102CA0008217930761F0A191B1914D915C914330EE
:102CB000510519F04FEFE41AF40A0196F1CF6701BC
:102CC000CC0CDD1C8FEFE81AF80AEE0CFF1CA12CCF
:102CD000B12C1A8219821C821B821E821D8244E042
:102CE00050E06CE872E0CE0101960E943810CE01EF
:102CF00001960E944B0C89819A810E94811CE0916F
:102D0000B303F091B403DF01AC0DBD1D0D90BC9178
:102D1000A02D1A968C91EE0DFF1D882391F1A081B4
:102D2000B1811A969C9191112CC0A114B10449F55E
:102D3000E091AC03F091AD0380819181FC01128799
:102D40000E947506E091AC03F091AD0382819381FE
:102D5000FC0112870E947506E091AC03F091AD036F
:102D600040E050E0BA01808191810E94940660E5C4
:102D700070E080E090E00E944905AA24A394B12C61
:102D800015C00190F081E02D92859111EBC0811169
:102D9000FFC0C5010197029708F4F4C06CE370E02E
:102DA00080E090E00E944905A12CB12C0E94D80B34
:102DB000059709F08ECF68EC70E080E090E00E940B
:102DC0004905E091AC03F091AD0340E050E0BA0159
:102DD000808191810E949406E091AC03F091AD0353
:102DE00040E050E0BA01828193810E9494061092E3
:102DF000C6031092C5038091C5039091C60397FF47
:102E000003C09195819591096091C7037091C803A2
:102E10000E94F41A9093C4038093C303009779F43B
:102E20002FEF30E040E850E060E070E087E594E0AC
:102E30000E9499072FEF30E040E850E011C0813048
:102E4000910589F42FEF30E049E150E060E070E057
:102E500087E594E00E9499072FEF30E049E150E0C8
:102E600060E070E026C08230910589F422E330E012
:102E700040E050E06FEF70E087E594E00E94990732
:102E800022E330E040E050E06FEF70E012C00397C3
:102E9000A1F42EE930E04CE650E06DEF70E087E5FC
:102EA00094E00E9499072EE930E04CE650E06DEF87
:102EB00070E081E394E00E9499070E941702B1CB71
:102EC0001496ED91FC911597828581119ECCE0912D
:102ED000AC03F091AD0380819181FC0112870E94C7
:102EE0007506E091AC03F091AD0382819381FC0102
:102EF00012870E947506E091AC03F091AD0340E0AB
:102F000050E068E473E4808191810E949406E0912E
:102F1000AC03F091AD0340E050E068E473E48281DB
:102F200093810E94940664E170E080E090E00E944A
:102F30004905E091AC03F091AD0340E050E060EA58
:102F400072E4808191810E949406E091AC03F0913B
:102F5000AD0340E050E060EA72E4828193810E9418
:102F6000940653CC882329F091E0A916B10429F4E2
:102F7000FECEAB2809F45AC00EC0E2E0AE16B10492
:102F800039F473C0F2E0AF16B10409F46EC0EFCEAD
:102F9000AB2809F403CFE091AC03F091AD0380813D
:102FA0009181FC0112870E947506E091AC03F091BB
:102FB000AD0382819381FC0112870E947506E09126
:102FC000AC03F091AD0340E050E066E173E4828130
:102FD00093810E949406E091AC03F091AD0340E030
:102FE00050E066E173E4808191810E94940664E17F
:102FF00070E080E090E00E944905E091AC03F09120
:10300000AD0340E050E060EA72E4808191810E946B
:103010009406E091AC03F091AD0340E050E060EA2B
:1030200072E4828193810E949406B8CEE091AC0351
:10303000F091AD0380819181FC0112870E94750699
:10304000E091AC03F091AD0382819381FC01128782
:103050000E947506E091AC03F091AD0340E050E0B2
:10306000BA01828193810E94940660E570E080E05D
:1030700090E00E94490582E0A82EB12C97CECF9314
:10308000DF93CCEAD3E08E859F850E94811C8F81DF
:1030900098850E94811C888199810E94811C8DEDF8
:1030A00093E00E94540A86ED93E00E94540A8FEC4C
:1030B00093E00E94540A80911604909117040E9494
:1030C000811C8CE394E00E94350585E394E00E9426
:1030D000100482E694E00E9435058BE594E0DF91D0
:1030E000CF910C9410048F929F92AF92BF92CF9287
:1030F000DF92EF92FF920F931F93CF93DF9300D055
:1031000000D0CDB7DEB7E7ECF2E01382128288EE92
:1031100093E0A0E0B0E084839583A683B78381E148
:1031200092E09183808385EC90E09587848784EC9E
:1031300090E09787868780EC90E0918B808B81EC84
:1031400090E0938B828B82EC90E0958B848B86EC65
:1031500090E0978B868B118E128E138E148EE4E680
:10316000F3E0168217821086118612861386148663
:10317000158616861786108A118A128A138A148A6F
:10318000158A05ED14E089E090E0F80191838083D1
:1031900088E0E82EF12CF382E2829AE0892E912CCD
:1031A0009582848240E050E0BA01C8010E949406F2
:1031B000DD24D394F801D286C8010E9475060AEC7A
:1031C00014E087E090E0F8019183808386E090E04E
:1031D0009383828385E090E09583848340E050E090
:1031E000BA01C8010E949406F801D286C8010E9463
:1031F0007506EFEBF4E085E290E09383828380E450
:1032000090E09583848324E6C22ED12CD782C68297
:1032100001E010E0118700871183008361E085E2FF
:103220000E94F904E4EBF4E087E290E09383828368
:1032300081E490E095838483D782C68211861086CC
:103240001183008361E087E20E94F904E9EAF4E077
:1032500089E290E09383828382E490E09583848383
:10326000D782C682AA24AA94BA2CB186A0861183DA
:10327000008361E089E20E94F904EEE9F4E08DE266
:1032800090E09383828384E490E095838483D78263
:10329000C682918680861183008361E08DE20E9460
:1032A000F904E3E9F4E08FE290E09383828385E41C
:1032B00090E095838483D782C68286EF9FEF9187C3
:1032C00080871183008361E08FE20E94F904E8E8BF
:1032D000F4E088E290E09383828386E390E0958334
:1032E000848344EF842E9924939497828682118755
:1032F000008703E010E01183008361E088E20E9410
:10330000F904EDE7F4E08AE290E09383828387E3B7
:1033100090E09583848397828682B186A08611830C
:10332000008361E08AE20E94F90446E050E06CE22A
:1033300070E087E594E00E94EE0842E050E06CE027
:1033400070E081E394E00E94EE0886E190E09093C3
:103350002E0480932D0460E00E94F90487E190E040
:1033600090932A048093290460E00E94F90488E184
:1033700090E0909326048093250460E00E94F90475
:1033800089E190E0909322048093210460E00E9400
:10339000F9048AE190E090931E0480931D0460E09C
:1033A0000E94F90404E114E0F801F582E482178236
:1033B000168280E290E00E94EC1BF80193838283E6
:1033C00009EC13E08CE291E0F80193838283D582CB
:1033D000C482F186E0861386128680E290E00E9425
:1033E000EC1BF80197838683F08AE786128A118A9C
:1033F00080E290E00E94EC1BF80196878587F78AAF
:10340000E68A118E108E80E290E00E94EC1BF8019B
:10341000958B848B80E090EDA2E0B4E4838F948F51
:10342000A58FB68F8EEA97E9AAE0B4E4878F90A3C0
:10343000A1A3B2A38FE195EDA2E1B4E483A394A389
:10344000A5A3B6A380E090E9ABE1B4E487A390A77D
:10345000A1A7B2A784EA90EDA4E2B4E483A794A75D
:10346000A5A7B6A781E79DE9AEE2B4E487A790AB34
:10347000A1ABB2AB8CE59FEFA8E3B4E483AB94AB14
:10348000A5ABB6AB8CE59FEFA3E4B4E487AB90AFFC
:10349000A1AFB2AF8AE097EAAFE4B4E483AF94AFF0
:1034A000A5AFB6AF80E090E0ACE5B4E4809308044B
:1034B00090930904A0930A04B0930B048FE195E163
:1034C000A9E6B4E480930C0490930D04A0930E0439
:1034D000B0930F0488E491EFA6E7B4E4809310045E
:1034E00090931104A0931204B09313048BE090E026
:1034F0009183808360E00E94F90464EE73E08FECB6
:1035000093E00E94D60964EE73E08FEC93E00E9492
:10351000D60960E174E08FEC93E00E94D60960E187
:1035200074E08FEC93E00E94D60964EE73E086EDC0
:1035300093E00E94D60964EE73E08DED93E00E9463
:10354000D609F801638D748D858D968D9B01AC0134
:103550000E94451B69837A838B839C83BE016F5FC6
:103560007F4F8DED93E00E94D609E3ECF3E084E019
:1035700090E09583848311821082138212820CEA78
:1035800013E0F801F382E2821582148280E190E078
:103590000E94EC1BF80191838083F286E1861486F9
:1035A000138680E190E00E94EC1BF80190878783EE
:1035B000F18AE08A138A128A80E190E00E94EC1B73
:1035C000F801978786870F900F900F900F90DF91EB
:1035D000CF911F910F91FF90EF90DF90CF90BF9010
:1035E000AF909F908F90089597FB072E16F400944C
:1035F00007D077FD09D00E94301B07FC05D03EF4B0
:10360000909581959F4F0895709561957F4F08958E
:10361000052E97FB1EF400940E941F1B57FD07D038
:103620000E94A11E07FC03D04EF40C941F1B509562
:103630004095309521953F4F4F4F5F4F089590959E
:103640008095709561957F4F8F4F9F4F0895EE0F36
:10365000FF1F0024001C0BBE0790F691E02D09947B
:10366000AA1BBB1B51E107C0AA1FBB1FA617B707A8
:1036700010F0A61BB70B881F991F5A95A9F78095C4
:103680009095BC01CD0108955058BB27AA270E94F0
:103690005C1B0C94671E0E94591E38F00E94601E2D
:1036A00020F039F49F3F19F426F40C94561E0EF4C2
:1036B000E095E7FB0C94501EE92F0E94781E58F30A
:1036C000BA17620773078407950720F079F4A6F507
:1036D0000C949A1E0EF4E0950B2EBA2FA02D0B0120
:1036E000B90190010C01CA01A0011124FF27591B47
:1036F00099F0593F50F4503E68F11A16F040A22F4D
:10370000232F342F4427585FF3CF469537952795BD
:10371000A795F0405395C9F77EF41F16BA0B620BBC
:10372000730B840BBAF09150A1F0FF0FBB1F661F03
:10373000771F881FC2F70EC0BA0F621F731F841F46
:1037400048F4879577956795B795F7959E3F08F06C
:10375000B0CF9395880F08F09927EE0F979587952E
:1037600008950E94B81B6894B1110C949B1E089593
:103770000E94801E88F09F5798F0B92F9927B75163
:10378000B0F0E1F0660F771F881F991F1AF0BA9505
:10379000C9F714C0B13091F00E949A1EB1E00895AB
:1037A0000C949A1E672F782F8827B85F39F0B93F9D
:1037B000CCF3869577956795B395D9F73EF49095B8
:1037C0008095709561957F4F8F4F9F4F08950E9410
:1037D0002C1E08F48FEF0895CF93DF93823091056C
:1037E00010F482E090E0E091E204F091E30420E044
:1037F00030E0C0E0D0E0309711F1408151814817AE
:103800005907C0F04817590761F4828193812097C6
:1038100019F09B838A832BC09093E3048093E20486
:1038200026C02115310519F04217530718F49A01E3
:10383000BE01DF01EF010280F381E02DDCCF211515
:10384000310509F1281B390B2430310590F412960B
:103850008D919C9113976115710521F0FB01938364
:10386000828304C09093E3048093E204FD013296C6
:1038700044C0FD01E20FF31F81939193225031095F
:103880002D933C933AC02091E0043091E104232B26
:1038900041F420910302309104023093E10420931B
:1038A000E00420910102309102022115310541F41A
:1038B0002DB73EB74091050250910602241B350BEF
:1038C000E091E004F091E104E217F307A0F42E1B6D
:1038D0003F0B2817390778F0AC014E5F5F4F241774
:1038E000350748F04E0F5F1F5093E1044093E0040A
:1038F0008193919302C0E0E0F0E0CF01DF91CF919E
:1039000008950F931F93CF93DF93009709F48CC012
:10391000FC013297138212820091E2041091E304B9
:103920000115110581F420813181820F931F2091AF
:10393000E0043091E1042817390779F5F093E104A8
:10394000E093E00471C0D80140E050E0AE17BF073B
:1039500050F412962D913C911397AD01211531052C
:1039600009F1D901F3CF9D01DA013383228360810C
:103970007181860F971F8217930769F4EC012881E4
:103980003981260F371F2E5F3F4F318320838A8175
:103990009B8193838283452B29F4F093E304E09386
:1039A000E20442C01396FC93EE931297ED01499105
:1039B00059919E01240F351FE217F30771F480819E
:1039C0009181840F951F029611969C938E9382810C
:1039D000938113969C938E931297E0E0F0E0D801C8
:1039E00012968D919C911397009719F0F8018C0114
:1039F000F6CF8D919C9198012E5F3F4F820F931FC0
:103A00002091E0043091E1042817390769F43097D8
:103A100029F41092E3041092E20402C0138212828D
:103A20001093E1040093E004DF91CF911F910F9177
:103A300008956F927F928F929F92AF92BF92CF9292
:103A4000DF92EF92FF920F931F93CF93DF93EC01DE
:103A5000009789F4CB01DF91CF911F910F91FF90D7
:103A6000EF90DF90CF90BF90AF909F908F907F901E
:103A70006F900C94EC1BFC01E60FF71F9C01225089
:103A80003109E217F30708F4ACC0D9010D911C917C
:103A9000119706171707B0F00530110508F49FC0FD
:103AA000C80104978617970708F499C002501109B6
:103AB000061B170B019311936D937C93CF010E940A
:103AC000811C8DC05B01A01AB10A4C01800E911EB1
:103AD000A091E204B091E30440E050E0E12CF12C2D
:103AE000109709F44AC0A815B905D1F56D907C90DE
:103AF0001197630182E0C80ED11CCA14DB0480F167
:103B0000A3014A195B096A0182E0C80ED11C129612
:103B1000BC9012971396AC91B5E0CB16D10440F04F
:103B2000B282A38351834083D9016D937C930AC0F1
:103B30000E5F1F4FC301800F911FF9019183808396
:103B4000EB2DFA2FE114F10431F0D7011396FC9319
:103B5000EE93129744C0F093E304E093E2043FC075
:103B60008D919C9111974817590708F4AC017D017C
:103B700012960D90BC91A02DB3CF8091E00490914E
:103B8000E10488159905E1F446175707C8F48091B8
:103B9000010290910202009741F48DB79EB74091C7
:103BA000050250910602841B950BE817F907C8F42B
:103BB000F093E104E093E004F901718360830FC0A6
:103BC000CB010E94EC1B7C01009759F0A801BE01BB
:103BD0000E94071ECE010E94811CC70104C0CE01B5
:103BE00002C080E090E0DF91CF911F910F91FF9094
:103BF000EF90DF90CF90BF90AF909F908F907F908D
:103C00006F90089581E090E0F8940C94C31EFB013E
:103C1000DC0102C001900D9241505040D8F7089548
:103C2000DC0101C06D9341505040E0F70895FB0165
:103C3000DC018D91019080190110D9F3990B089541
:103C4000FB01DC0101900D920020E1F708950E9434
:103C50002C1E08F481E00895990F0008550FAA0B57
:103C6000E0E8FEEF16161706E807F907C0F012168F
:103C70001306E407F50798F0621B730B840B950B92
:103C800039F40A2661F0232B242B252B21F40895E7
:103C90000A2609F4A140A6958FEF811D811D089584
:103CA00097F99F6780E870E060E008959FEF80ECEF
:103CB000089500240A941616170618060906089592
:103CC00000240A9412161306140605060895092EF8
:103CD0000394000C11F4882352F0BB0F40F4BF2B67
:103CE00011F460FF04C06F5F7F4F8F4F9F4F0895A7
:103CF00057FD9058440F551F59F05F3F71F047959D
:103D0000880F97FB991F61F09F3F79F08795089581
:103D1000121613061406551FF2CF4695F1DF08C0A0
:103D2000161617061806991FF1CF869571056105BD
:103D300008940895E894BB2766277727CB0197F965
:103D40000895A1E21A2EAA1BBB1BFD010DC0AA1FDC
:103D5000BB1FEE1FFF1FA217B307E407F50720F0F4
:103D6000A21BB30BE40BF50B661F771F881F991F6F
:103D70001A9469F760957095809590959B01AC01B8
:103D8000BD01CF01089511E0C8E2D1E004C0FE01F9
:103D90000E94271B2196C932D107C9F7F894FFCF9B
:103DA000FF0000E4048000000000000000000000AC
:103DB00000AE01D810770155016901F501040056E4
:103DC0004D4450565F317C315F564D4450560D0A7C
:103DD0000063686F696365203D20006469737461E6
:103DE0006E63650043617365203120666972737488
:103DF0002074696D650043617365203220666972C5
:103E000073742074696D65004361736520332066A7
:103E1000697273742074696D650043617365203441
:103E20002066697273742074696D65006C696E65D3
:023E3000000090
:020000021000EC
:10F000000C9472F80C9492F80C9492F80C9492F878
:10F010000C9492F80C9492F80C9492F80C9492F848
:10F020000C9492F80C9492F80C9492F80C9492F838
:10F030000C9492F80C9492F80C9492F80C9492F828
:10F040000C9492F80C9492F80C9492F80C9492F818
:10F050000C9492F80C9492F80C9492F80C9492F808
:10F060000C9492F80C9492F80C9492F80C9492F8F8
:10F070000C9492F80C9492F80C9492F80C9492F8E8
:10F080000C9492F80C9492F80C9492F80C9492F8D8
:10F090000C9492F80C9492F80C9492F80C9492F8C8
:10F0A0000C9492F80C9492F80C9492F80C9492F8B8
:10F0B0000C9492F80C9492F80C9492F80C9492F8A8
:10F0C0000C9492F80C9492F80C9492F80C9492F898
:10F0D0000C9492F80C9492F80C9492F80C9492F888
:10F0E0000C9492F811241FBECFEFD1E2DEBFCDBF4A
:10F0F00012E0A0E0B2E0EEEDFEEF01E00BBF02C0D7
:10F1000007900D92A833B107D9F71BBE13E0A8E30F
:10F11000B2E001C01D92A334B107E1F70E9412FAD8
:10F120000C946DFF0C9400F8982F959595959595F6
:10F130009595905D8F708A301CF1282F295A809107
:10F140003802813019F0823071F008958091C0004A
:10F1500085FFFCCF9093C6008091C00085FFFCCF57
:10F160002093C60008958091C80085FFFCCF90933E
:10F17000CE008091C80085FFFCCF2093CE0008957B
:10F18000282F205DDCCF982F80913802813019F034
:10F19000823041F008958091C00085FFFCCF9093AC
:10F1A000C60008958091C80085FFFCCF9093CE00E3
:10F1B0000895EF92FF920F931F9380913802813050
:10F1C00069F1823031F080E01F910F91FF90EF9054
:10F1D0000895EE24FF2487018091C80087FD17C0A1
:10F1E0000894E11CF11C011D111D81E4E81682E464
:10F1F000F8068FE0080780E0180770F3E0913A0204
:10F20000F0913B0209958091C80087FFE9CF80917A
:10F21000CE001F910F91FF90EF900895EE24FF24F0
:10F2200087018091C00087FD17C00894E11CF11C84
:10F23000011D111D81E4E81682E4F8068FE008073D
:10F2400080E0180770F3E0913A02F0913B020995D3
:10F250008091C00087FFE9CF8091C6001F910F9178
:10F26000FF90EF9008950E94D9F8982F809138026E
:10F27000813049F0823091F091366CF490330CF08B
:10F280009053892F08958091C00085FFFCCF909303
:10F29000C60091369CF39755892F08958091C80038
:10F2A00085FFFCCF9093CE00E7CF1F930E9433F9E8
:10F2B000182F0E9433F91295107F810F1F91089526
:10F2C000982F20913802992339F0213031F02230E3
:10F2D00061F091509923C9F708958091C00087FF8C
:10F2E000FCCF8091C6009150F5CF8091C80087FF78
:10F2F000FCCF8091CE009150EDCF1F93182F0E942C
:10F30000D9F8803249F0809139028F5F80933902B9
:10F31000853091F11F910895809138028130B9F0C4
:10F320008230C1F78091C80085FFFCCF84E18093D3
:10F33000CE008091C80085FFFCCF1093CE00809155
:10F34000C80085FFFCCF80E18093CE00E3CF8091A1
:10F35000C00085FFFCCF84E18093C6008091C0008F
:10F3600085FFFCCF1093C6008091C00085FFFCCFC5
:10F3700080E18093C600CECFE0913A02F0913B024B
:10F3800009951F9108950E94D9F8803241F080912B
:10F3900039028F5F80933902853029F10895809179
:10F3A0003802813089F08230C9F78091C80085FF2A
:10F3B000FCCF84E18093CE008091C80085FFFCCF14
:10F3C00080E18093CE0008958091C00085FFFCCF3E
:10F3D00084E18093C6008091C00085FFFCCF80E16E
:10F3E0008093C6000895E0913A02F0913B0209959E
:10F3F000089540E951E08823A1F02F9A28EE33E0E8
:10F40000FA013197F1F721503040D1F72F9828EECB
:10F4100033E0FA013197F1F721503040D1F78150B4
:10F4200061F708952F923F924F925F926F927F9271
:10F430008F929F92AF92BF92CF92DF92EF92FF9204
:10F440000F931F93CF93DF93000081E080933802E6
:10F4500080E18093C4001092C5001092C00086E045
:10F460008093C20088E18093C1006898709A279ABF
:10F4700081E00E94F9F9E4E1EE2E7EE1D72E67E902
:10F48000C62E53E0B52E40E1A42E9924939431E486
:10F49000832E26E5722E92E5692E80E2582E09E42D
:10F4A000402E13E5312EB0E52B2E0E94D9F8803383
:10F4B000C9F1813309F452C0803409F4C8C08134E1
:10F4C00009F4EAC0823489F1853409F4CAC0803570
:10F4D00049F1823539F1813529F1853509F4ECC0DE
:10F4E000863509F409C1843609F428C1843709F442
:10F4F000ABC1853709F473C2863709F4D9C08132AC
:10F5000009F4B7C2809139028F5F80933902853048
:10F5100061F6E0913A02F0913B0209950E94D9F818
:10F52000803339F60E94C3F9C0CF2091380293E1AD
:10F5300005C0223061F09923A9F391502130C9F719
:10F540008091C00087FFFCCF8091C600F4CF8091EE
:10F55000C80087FFFCCF8091CE00EDCF0E94D9F884
:10F56000803281F6809138028130D1F1823009F009
:10F570009CCF8091C80085FFFCCFE092CE008091A7
:10F58000C80085FFFCCF8092CE008091C80085FF27
:10F59000FCCF7092CE008091C80085FFFCCF6092B6
:10F5A000CE008091C80085FFFCCF5092CE008091A4
:10F5B000C80085FFFCCF4092CE008091C80085FF37
:10F5C000FCCF3092CE008091C80085FFFCCF209206
:10F5D000CE008091C80085FFFCCFA092CE0065CF01
:10F5E0008091C00085FFFCCFE092C6008091C000F2
:10F5F00085FFFCCF8092C6008091C00085FFFCCFC4
:10F600007092C6008091C00085FFFCCF6092C6005A
:10F610008091C00085FFFCCF5092C6008091C00051
:10F6200085FFFCCF4092C6008091C00085FFFCCFD3
:10F630003092C6008091C00085FFFCCF2092C600AA
:10F640008091C00085FFFCCFA092C6002ECF0E9403
:10F65000D9F8863808F466CF0E94D9F80E94C3F919
:10F6600024CF2091380294E0213041F0223069F01B
:10F67000992309F457CF91502130C1F78091C000F0
:10F6800087FFFCCF8091C600F3CF8091C80087FF31
:10F69000FCCF8091CE00ECCF0E94D9F8803841F1A8
:10F6A000813809F447C0823809F4CAC08839E1F0CA
:10F6B00080E00E947DF9F9CE0E94D9F880933C0247
:10F6C0000E94D9F880933D020E94C3F9EECE0E94B9
:10F6D000D9F80E94D9F8182F0E94D9F8112309F4FB
:10F6E0007EC2113009F40AC283E00E947DF9DDCEAA
:10F6F00082E00E947DF9D9CE0E94D9F8803339F397
:10F700002091380292E0213039F0223061F09923C3
:10F7100079F291502130C9F78091C00087FFFCCF6A
:10F720008091C600F4CF8091C80087FFFCCF809104
:10F73000CE00EDCF81E00E947DF9B7CE0E94D9F8CE
:10F7400080933F030E94D9F880933E038091420347
:10F750008E7F809342030E94D9F8853409F4B3C1A7
:10F7600080913E0390913F03892B89F000E010E0E7
:10F770000E94D9F8F801E25CFD4F80830F5F1F4FB4
:10F7800080913E0390913F030817190788F30E9468
:10F79000D9F8803209F0B6CE8091420380FFB2C121
:10F7A00040913C0250913D02440F551F50933D0241
:10F7B00040933C0260913E0370913F0361157105D7
:10F7C000F1F080E090E09A01280F391FFC01E25C23
:10F7D000FD4FE081F999FECF1FBA32BD21BDE0BDDA
:10F7E0000FB6F894FA9AF99A0FBE01968617970702
:10F7F00050F3460F571F50933D0240933C028091B7
:10F800003802813081F0823009F04FCE8091C800FB
:10F8100085FFFCCFE092CE008091C80085FFFCCF31
:10F82000A092CE0042CE8091C00085FFFCCFE09236
:10F83000C6008091C00085FFFCCFA092C60035CEE7
:10F8400080E10E947DF931CE0E94D9F880933F0378
:10F850000E94D9F880933E0320913C0230913D02F2
:10F8600037FD46C1809142038D7F80934203220F72
:10F87000331F30933D0220933C020E94D9F8853417
:10F8800009F430C1809142038E7F809342030E942D
:10F89000D9F8803209F009CE60913802613009F45C
:10F8A0006FC0623009F473C000913E0310913F03B2
:10F8B0000115110509F440C080914203782F717041
:10F8C000F82EF69481E0F82240913C0250913D02DE
:10F8D00020E030E013C0FF2009F060C0FA019491ED
:10F8E000613009F43BC0623009F441C0CA0101969D
:10F8F0002F5F3F4FAC0120173107D0F4772359F326
:10F90000F999FECF52BD41BDF89A90B56130F9F03A
:10F91000623061F78091C80085FFFCCF9093CE00E4
:10F92000CA0101962F5F3F4FAC012017310730F31A
:10F9300090933D0280933C02613009F4CAC062306A
:10F9400009F0B3CD8091C80085FFFCCF46CE8091F1
:10F95000C00085FFFCCF9093C600C8CF8091C00047
:10F9600085FDF9CF8091C00085FFF8CFF4CF80915D
:10F97000C80085FDD3CF8091C80085FFF8CFCECFDA
:10F980008091C00085FFFCCFE092C6008DCF8091B2
:10F99000C80085FFFCCFE092CE0086CFCA01A0E070
:10F9A000B0E080509040AF4FBF4FABBFFC0197918C
:10F9B000613061F0623009F099CF8091C80085FD17
:10F9C000ADCF8091C80085FFF8CFA8CF8091C0004F
:10F9D00085FDC1CF8091C00085FFF8CFBCCF0E94CC
:10F9E000D9F8803209F08ECD80913802813011F142
:10F9F000823009F05ACD8091C80085FFFCCFE0929B
:10FA0000CE008091C80085FFFCCFD092CE008091BF
:10FA1000C80085FFFCCFC092CE008091C80085FF52
:10FA2000FCCFB092CE008091C80085FFFCCFA092A1
:10FA3000CE003BCD8091C00085FFFCCFE092C60098
:10FA40008091C00085FFFCCFD092C6008091C0009D
:10FA500085FFFCCFC092C6008091C00085FFFCCF1F
:10FA6000B092C6008091C00085FFFCCFA092C60076
:10FA70001CCD0E94D9F8813209F017CD0E94D9F827
:10FA8000813209F012CD279A2F98109240032091CD
:10FA90003802E1E491E00EC0223009F4A4C0909352
:10FAA0004003E92FF0E0E050FE4FE0819F5FEE233E
:10FAB00009F4A0C0213081F78091C00085FFFCCF00
:10FAC000E093C600ECCF80914203816080934203B3
:10FAD00047CE8091C00085FDB7CD8091C00085FFE5
:10FAE000F8CFB2CD80914203816080934203CFCEA4
:10FAF00080914203826080934203B9CE87E90E94DD
:10FB00007DF9D3CC80913D028823880F880B892111
:10FB1000809341038BBF80913C0290913D02880FFE
:10FB2000991F90933D0280933C0280913E0380FF99
:10FB300009C080913E0390913F03019690933F034B
:10FB400080933E03F894F999FECF1127E0913C028F
:10FB5000F0913D02CEE3D2E080913E0390913F03CD
:10FB6000103091F40091570001700130D9F303E097
:10FB700000935700E8950091570001700130D9F3C8
:10FB800001E100935700E895099019900091570002
:10FB900001700130D9F301E000935700E895139507
:10FBA000103898F011270091570001700130D9F3F7
:10FBB00005E000935700E89500915700017001306F
:10FBC000D9F301E100935700E8953296029709F0C6
:10FBD000C7CF103011F00296E5CF112410CE8EE180
:10FBE0000E947DF962CC8091C80085FFFCCFE09334
:10FBF000CE0055CF7AE0B72E6DE0A62E5AE3952EB3
:10FC000040E2842E3DE3732E90E3692E81E3582E6B
:10FC1000213009F442C0223009F45FC00E94D9F8B3
:10FC2000982F20913802213089F1223009F44EC0FA
:10FC3000943709F46BC0923709F405C1973709F47A
:10FC40007BC0953799F0923609F4BDC09A3601F71A
:10FC5000E0913A02F0913B02099520913802D8CF09
:10FC60008091C00085FFFCCF9093C6000E94D9F818
:10FC7000982F80913802813099F38230B9F78091C2
:10FC8000C80085FFFCCF9093CE00F0CF8091C000DC
:10FC900085FFFCCF9093C600CBCF8091C00085FF3D
:10FCA000FCCFB092C6008091C00085FFFCCFA0922F
:10FCB000C6008091C00085FFFCCF9092C600809165
:10FCC000C00085FFFCCF8092C600A8CF8091C800FD
:10FCD00085FFFCCF9093CE00ABCF8091C80085FF0D
:10FCE000FCCFB092CE008091C80085FFFCCFA092DF
:10FCF000CE008091C80085FFFCCF9092CE0080910D
:10FD0000C80085FFFCCF8092CE0088CF1F9947C0E6
:10FD10002F9A213051F0223009F07ACF8091C8001B
:10FD200085FFFCCF6092CE0073CF8091C00085FF2D
:10FD3000FCCF6092C6006CCF0E94D9F8982F8091BA
:10FD400038028130F1F0823009F4ABC00E9455F9DD
:10FD5000082F0E9455F9182F0E94D9F8982F8091EA
:10FD600038028130A9F0823009F4A2C00E9455F90E
:10FD7000D02ECC24F601E10FF11D808320913802B2
:10FD800047CF8091C00085FFFCCF9093C600DECFA7
:10FD90008091C00085FFFCCF9093C600E7CF2F98DD
:10FDA000213051F0223009F033CF8091C80085FF17
:10FDB000FCCF5092CE002CCF8091C00085FFFCCFAD
:10FDC0005092C60025CF213041F1223081F080E8E9
:10FDD00085BF109274001092750080E091E1FC01E3
:10FDE000819180E091E13097D1F3CF01F8CF8091FC
:10FDF000C80085FFFCCF82E68093CE008091C800CA
:10FE000085FFFCCF85E78093CE008091C80085FFF9
:10FE1000FCCF83E78093CE00DACF8091C00085FFCE
:10FE2000FCCF82E68093C6008091C00085FFFCCFA6
:10FE300085E78093C6008091C00085FFFCCF83E7F3
:10FE40008093C600C4CF0E94D9F8982F80913802C1
:10FE50008130C9F08230D1F10E9455F9182F0E94EB
:10FE600055F9982F809138028130A1F0823039F114
:10FE7000F12EEE24F701E90FF11D80810E9494F824
:10FE800020913802C5CE8091C00085FFFCCF9093B1
:10FE9000C600E2CF8091C00085FFFCCF7092C60003
:10FEA000E7CF8091C80085FFFCCF9093CE004ECF66
:10FEB0008091C80085FFFCCF9093CE0057CF8091F2
:10FEC000C80085FFFCCF7092CE00D2CF8091C800D1
:0EFED00085FFFCCF9093CE00BFCFF894FFCFFC
:10FEDE0041546D656761424F4F54202F204172642B
:10FEEE0075696E6F204D656761202D20284329208E
:10FEFE0041726475696E6F204C4C43202D20303951
:08FF0E00303933300A0D008088
:040000031000F000F9
:00000001FF