:100000000C9429010C9453010C9453010C9453014A
:100010000C9453010C9453010C9453010C94530110
:100020000C9453010C9453010C9453010C94530100
:100030000C9453010C94A20E0C9453010C94530194
:100040000C9453010C9453010C9453010C945301E0
:100050000C9453010C9453010C9453010C94CF0352
:100060000C9453010C947A020C9450020C9453019A
:100070000C9453010C9453010C9453010C945301B0
:100080000C9453010C9453010C9453010C945301A0
:100090000C9453010C9453010C9453010C94530190
:1000A0000C9453010C9453010C9453010C94530180
:1000B0000C9453010C9453010C9453010C94530170
:1000C0000C9453010C9453010C9453010C94530160
:1000D0000C9453010C9453010C9453010C94530150
:1000E0000C945301C902CC02BB02BF02C502030338
:1000F000D002D402DA02DE02E202E802EC02F002EE
:100100000303F602FA02FE0249054E0553055D059A
:100110006705E0057105790581058B0595059F0546
:10012000AE05B805E005C205CC05D60500002100E6
:10013000240027002A002D003000330001010000B8
:10014000040107010A0100002200250028002B00FD
:100150002E003100340002010000050108010B01EE
:1001600002000020002300260029002C002F00326E
:10017000000001000003010601090105050505074E
:100180000508080808020202020A0A080804040412
:10019000040101010101010101030303030303033E
:1001A00003040707070C0C0C0C0C0C0C0C020202CD
:1001B0000206060606060606060B0B0B0B0B0B0BC0
:1001C0000B0102102020080810204010204080025F
:1001D000010201080402010102040810204080808D
:1001E0004020100804020180040201804020100811
:1001F00004020108040201010204081020408001E9
:100200000204081020408000000A0B02090C0D0EA9
:1002100008070304010000000000000000000000C7
:1002200000000000000000000000000000000000CE
:10023000000000121110000000000000000000008B
:1002400000000000000000000000000000006A162E
:100250003E1611241FBECFEFD1E2DEBFCDBF12E0AC
:10026000A0E0B2E0E4EEF9E300E00BBF02C00790CB
:100270000D92AA34B107D9F724E0AAE4B2E001C094
:100280001D92A837B207E1F711E0C8E2D1E004C03F
:100290002197FE010E944919C732D107C9F70E9470
:1002A00066100C94E51C0C940000FC01918D828D6D
:1002B000981761F0828DDF01A80FB11D5D968C91BA
:1002C000928D9F5F9F73928F90E008958FEF9FEFC5
:1002D0000895FC01918D828D981731F0828DE80F81
:1002E000F11D858D90E008958FEF9FEF0895FC013B
:1002F000918D228D892F90E0805C9F4F821B910908
:100300008F73992708958DE792E00E94770121E08D
:10031000892B09F420E0822F0895FC01848DDF01F0
:10032000A80FB11DA35ABF4F2C91848D90E0019668
:100330008F739927848FA689B7892C93A089B18957
:100340008C9180648C93938D848D981306C0028861
:10035000F389E02D80818F7D80830895EF92FF9255
:100360000F931F93CF93DF93EC0181E0888F9B8DD8
:100370008C8D981305C0E889F989808185FD24C09A
:10038000F62E0B8D10E00F5F1F4F0F731127E02E1D
:100390008C8DE8120CC00FB607FCFACFE889F989FA
:1003A000808185FFF5CFCE010E948D01F1CF8B8D2D
:1003B000FE01E80FF11DE35AFF4FF0820B8FEA892F
:1003C000FB898081806207C0EE89FF896083E889AC
:1003D000F98980818064808381E090E0DF91CF9112
:1003E0001F910F91FF90EF900895CF93DF93EC0151
:1003F000888D8823C9F0EA89FB89808185FD05C045
:10040000A889B9898C9186FD0FC00FB607FCF5CF7E
:10041000808185FFF2CFA889B9898C9185FFEDCFC6
:10042000CE010E948D01E7CFDF91CF91089580E04A
:1004300090E0892B21F00E948301811125C080E08A
:1004400090E0892B41F080E090E0892B21F00E9420
:10045000000081111CC080E090E0892B41F080E019
:1004600090E0892B21F00E940000811113C080E0F0
:1004700090E0892BA1F080E090E0892B81F00E9430
:10048000000081110AC008950E940000D8CF0E9488
:100490000000E1CF0E940000EACF0C940000089514
:1004A0001F920F920FB60F9211240BB60F922F933B
:1004B0003F934F935F936F937F938F939F93AF93EC
:1004C000BF93EF93FF938DE792E00E948D01FF9120
:1004D000EF91BF91AF919F918F917F916F915F91BC
:1004E0004F913F912F910F900BBE0F900FBE0F9029
:1004F0001F9018951F920F920FB60F9211240BB6F2
:100500000F922F938F939F93EF93FF93E0918D0220
:10051000F0918E028081E0919302F091940282FD2D
:1005200012C09081809196028F5F8F732091970205
:10053000821751F0E0919602F0E0E358FD4F958F5D
:100540008093960201C08081FF91EF919F918F91DE
:100550002F910F900BBE0F900FBE0F901F9018950C
:1005600090E0FC013197E231F10508F04CC0EE5803
:10057000FF4F0C944919809180008F7703C08091C0
:1005800080008F7D80938000089580918000877F18
:10059000F9CF84B58F7702C084B58F7D84BD08956F
:1005A0008091B0008F7703C08091B0008F7D8093E1
:1005B000B0000895809190008F7707C080919000DF
:1005C0008F7D03C080919000877F80939000089575
:1005D0008091A0008F7707C08091A0008F7D03C01D
:1005E0008091A000877F8093A000089580912001D2
:1005F0008F7707C0809120018F7D03C080912001FB
:10060000877F8093200108951F93CF93DF93282F36
:1006100030E0F901E95FFD4F8491F901EF53FE4F9E
:10062000D491F901E558FE4FC491CC23C9F0162F9F
:1006300081110E94B002EC2FF0E0EE0FFF1FEA5B89
:10064000FE4FA591B4918FB7F894111105C09C91FC
:10065000ED2FE095E92302C0EC91ED2BEC938FBFD9
:10066000DF91CF911F910895CF93DF9390E0FC012C
:10067000EF53FE4F2491FC01E558FE4F84918823EF
:1006800061F190E0880F991FFC01E45DFE4FC59178
:10069000D491FC01EA5BFE4FA591B491611109C0B0
:1006A0009FB7F8948881209582238883EC912E232C
:1006B0000BC0623061F49FB7F8943881822F809527
:1006C00083238883EC912E2B2C939FBF06C08FB77A
:1006D000F894E8812E2B28838FBFDF91CF91089566
:1006E0003FB7F89480914F0290915002A09151022F
:1006F000B091520226B5A89B05C02F3F19F0019674
:10070000A11DB11D3FBFBA2FA92F982F8827820F97
:10071000911DA11DB11DBC01CD0142E0660F771FE7
:10072000881F991F4A95D1F708958F929F92AF9293
:10073000BF92CF92DF92EF92FF926B017C010E94F9
:1007400070034B015C01C114D104E104F104F1F028
:100750000E947003DC01CB0188199909AA09BB0921
:10076000883E9340A105B10570F321E0C21AD1087B
:10077000E108F10888EE880E83E0981EA11CB11CE8
:10078000C114D104E104F10419F7DDCFFF90EF901B
:10079000DF90CF90BF90AF909F908F9008951F9261
:1007A0000F920FB60F9211242F933F938F939F9325
:1007B000AF93BF9380914A0290914B02A0914C025B
:1007C000B0914D0230914E0223E0230F2D3720F4DB
:1007D0000196A11DB11D05C026E8230F0296A11D9B
:1007E000B11D20934E0280934A0290934B02A09336
:1007F0004C02B0934D0280914F0290915002A09113
:100800005102B09152020196A11DB11D80934F0279
:1008100090935002A0935102B0935202BF91AF91B6
:100820009F918F913F912F910F900FBE0F901F902E
:1008300018950F931F93CF93DF93EC0161E08A81AA
:100840000E94040365E070E080E090E00E94950360
:100850009C81963308F0965380917B00292F287055
:10086000877F822B80937B009770906490937C00AD
:1008700080917A00806480937A0080917A0086FD6E
:10088000FCCF009178008091790010E0182B65E092
:1008900070E080E090E00E94950360E08A810E9411
:1008A00004038E819F81081719071CF081E08A8755
:1008B00001C01A86DF91CF911F910F9108950F9378
:1008C0001F93CF93DF93EC01088119817B836A83A7
:1008D000CB01880F991F0E940E1A998388838C81FF
:1008E0009D81D80140E050E04817590791F0E88118
:1008F000F9819A01220F331FE20FF31F309729F07D
:100900002D913C911197318320834F5F5F4F129659
:10091000EBCFC801DF91CF911F910F910C94A31AD7
:100920000F931F93CF93DF93EC01088119817B8391
:100930006A83CB01880F991F0E940E1A99838883BE
:100940008C819D81D80140E050E04817590791F013
:10095000E881F9819A01220F331FE20FF31F3097CC
:1009600029F02D913C911197318320834F5F5F4F88
:100970001296EBCFC801DF91CF911F910F910C948C
:10098000A31ACF93DF93EC0160E088810E940403F7
:1009900061E08A81DF91CF910C940403CF93DF93C0
:1009A000EC0161E08C810E94340361E088810E9447
:1009B000340361E08A810E943403DF91CF9108956E
:1009C000CF93DF93FC016287662321F0DF91CF9103
:1009D0000C94C104EC0161E080810E94040360E09A
:1009E0008A81DF91CF910C940403CF92DF92EF9232
:1009F000FF920F931F93CF93DF93EC016A017B016A
:100A000020E030E04FE753E4C701B6010E94091A25
:100A1000181674F020E030E0A901C701B6010E9469
:100A2000491C87FF0BC0F7FAF094F7F8F09406C062
:100A3000C12CD12C8FE7E82E83E4F82ECE82DF8202
:100A4000E886F986C701B6010E94D3196B017C01C3
:100A50008B010C80DD81C02D61E08C2F0E9434035E
:100A6000C114D10409F4AFC00F3F110509F4ADC0A2
:100A7000FE01FF27E95FFD4FE4914E2F50E0FA01A0
:100A80003197E231F10508F09BC0EC57FF4F0C9411
:100A9000491984B5806884BDC7BCA3C084B5806291
:100AA00084BDC8BC9EC08091800080688093800017
:100AB000D0928900C092880094C0809180008062AA
:100AC00080938000D0928B00C0928A008AC080916F
:100AD0008000886080938000D0928D00C0928C004E
:100AE00080C08091B00080688093B000C092B30055
:100AF00078C08091B00080628093B000C092B40052
:100B000070C080919000806880939000D09299008E
:100B1000C092980066C0809190008062809390009F
:100B2000D0929B00C0929A005CC080919000886037
:100B300080939000D0929D00C0929C0052C0809102
:100B4000A00080688093A0008091A0008F7B80939C
:100B5000A000D092A900C092A80043C08091A0003C
:100B600080628093A000D092AB00C092AA0039C0EE
:100B70008091A00088608093A000D092AD00C092C8
:100B8000AC002FC080912001806880932001D0921A
:100B90002901C092280125C08091200180628093A4
:100BA0002001D0922B01C0922A011BC0809120010C
:100BB000886080932001D0922D01C0922C0111C039
:100BC0000038110514F460E001C061E08C2FDF9162
:100BD000CF911F910F91FF90EF90DF90CF900C94E9
:100BE0000403DF91CF911F910F91FF90EF90DF9061
:100BF000CF900895EF92FF920F931F93CF93DF93BF
:100C0000EC018B016817790709F486C0DB011496A3
:100C10002D913C9115978A819B818217930718F536
:100C2000E880F9803B832A83C901880F991F0E94BD
:100C30000E1A888399834C815D81D701FC0120E0E5
:100C400030E02417350761F0309729F08D919C91A1
:100C50001197918380832F5F3F4F12963296F1CF89
:100C6000C7010E94A31A8C819D81F801448155819E
:100C70008417950708F4AC0180E090E0841795078D
:100C800091F09C01220F331FD801ED91FC91E20FEE
:100C9000F31F60817181E881F981E20FF31F718395
:100CA00060830196EBCF8C819D81F8012481358191
:100CB0008217930768F0D80114968D919C9115972F
:100CC0002C813D818217930738F59D838C8324C046
:100CD0009C01220F331FD80114964D915C911597FA
:100CE0008417950740F7F801A081B181A20FB31FC7
:100CF000E881F981E20FF31F309721F04D915C916B
:100D0000518340834C815D814F5F5F4F5D834C8396
:100D100001962E5F3F4FDFCFCE01DF91CF911F9124
:100D20000F91FF90EF900895EF92FF920F931F9312
:100D3000CF93DF9300D000D0CDB7DEB78C01FC019C
:100D400075836483CB010896938382837C01EE0CC8
:100D5000FF1CC70149835A836B837C830E940E1A50
:100D6000F8018083918397012051310949815A818B
:100D7000240F351FDA01FC01A217B30741F08D9152
:100D80009D91309711F0918380833296F5CF0F902B
:100D90000F900F900F90DF91CF911F910F91FF90C7
:100DA000EF9008950F931F93CF93DF93EC01088189
:100DB00019817B836A83CB01880F991F880F991F44
:100DC0000E940E1A88839983FC01D80120E030E04C
:100DD0008C819D812817390780F4309749F04D9117
:100DE0005D916D917C9113974083518362837383EE
:100DF0002F5F3F4F34961496EBCFC801DF91CF9110
:100E00001F910F910C94A31ACF92DF92EF92FF9251
:100E10000F931F93CF93DF937C018B01DB0114961B
:100E2000CD91DC911597FC01D583C483CE01089642
:100E300093838283880F991F880F991F0E940E1A2F
:100E4000D7018D939C93FC0140E050E04C175D0767
:100E5000B9F0D8016D917C919F01281B390BDB0102
:100E6000A20FB31F309741F0CD90DD90ED90FC9034
:100E7000C082D182E282F3824F5F5F4F3496E6CF29
:100E8000DF91CF911F910F91FF90EF90DF90CF9066
:100E90000895AF92BF92CF92DF92EF92FF920F939D
:100EA0001F93CF93DF93EC01EC80FD8087010F5FF0
:100EB0001F4FE016F10608F050C06B018A819B813C
:100EC0008017910768F59701275F3F4F82179307B7
:100ED00038F5A880B9803B832A83C901880F991F00
:100EE000880F991F0E940E1A88839983D501FC01EF
:100EF00020E030E02E153F0581F0309749F04D910C
:100F00005D916D917C9113974083518362837383CC
:100F10002F5F3F4F14963496EDCFC5010E94A31A60
:100F20008C819D819C01220F331F220F331F80175C
:100F30009107B0F4E881F981E20FF31F309749F08F
:100F4000D6014D915D916D917C9140835183628377
:100F5000738301962C5F3F4FEACF0E151F0510F4E7
:100F60001D830C83DF91CF911F910F91FF90EF9024
:100F7000DF90CF90BF90AF900895CF93DF93EC01B7
:100F800088859985009711F00E94A31A8E8187FDAC
:100F900005C060E0DF91CF910C943403DF91CF91D5
:100FA0000895FC01808191810C94A31AFC01808139
:100FB00091810C94A31A0E94241C4F925F926F920D
:100FC0007F928F929F92AF92BF92CF92DF92EF92D9
:100FD000FF920F931F93CF93DF93CDB7DEB72E977A
:100FE0000FB6F894DEBF0FBECDBF7C018B016A0146
:100FF000998788877B876A875D874C87AE01485FC2
:101000005F4F63E070E09E01225F3F4FCE0101968B
:101010000E949406BE016F5F7F4F8FEE93E00E94A7
:10102000FA05CE0101960E94D60760E070E040E02C
:1010300050E080E090E027015524D801BB275601FD
:10104000BB249C2C2091EB033091EC038217930777
:101050000CF057C02091F8033091F90382179307E1
:1010600008F049C02091FD03211104C0892C102FE4
:10107000FE2C19C030E0429E6001439ED00C529E6F
:10108000D00C1124FD2CA29F6001A39FD00CB29F15
:10109000D00C11241D2DA29E6001A39ED00CB29EE7
:1010A000D00C11248D2CD0900304C090000420910A
:1010B000FE033091FF03DC1003C0240F351F07C06F
:1010C000260F371F39016D0C711CF3011082D0906F
:1010D000000439016D0C711CF301F082F0900104E1
:1010E0006901CF0CD11CF601108310910204210F6D
:1010F000311DF901808201964D5F5F4F6C5F7F4F1C
:10110000A1CF8091FE039091FF03892B11F00E94E3
:101110002A0F2E960FB6F894DEBF0FBECDBFDF911B
:10112000CF911F910F91FF90EF90DF90CF90BF90E4
:10113000AF909F908F907F906F905F904F900895A9
:101140000F931F93CF93DF9360916D0370916E03A4
:10115000EB0121966C177D0760F58C0180916B0384
:1011600090916C038C179D0748F4675F7F4F86173B
:10117000970720F489E693E00E945F0420916D03B5
:1011800030916E03C901880F991F2C173D07A0F4F9
:10119000E0916903F0916A03E80FF91F309729F095
:1011A000D8014D915C91518340832F5F3F4F029650
:1011B000ECCFC617D70720F4D0936E03C0936D030E
:1011C000DF91CF911F910F9108950F931F93CF93AC
:1011D000DF9320916603309167032817390798F54C
:1011E0008B01EC0180916403909165038C179D073E
:1011F00050F4BE01685F7F4F8617970720F482E6A0
:1012000093E00E94900480916603909167039C0193
:10121000220F331F8C179D0788F4E0916203F09131
:101220006303E20FF31F309729F0D8014D915C91D1
:101230005183408301962E5F3F4FECCFD0936703DD
:10124000C093660307C08217930720F49093670347
:1012500080936603DF91CF911F910F9108950F93B3
:101260001F93CF93DF936091D2037091D303EB016F
:1012700021966C177D0790F58C018091D003909199
:10128000D1038C179D0748F4675F7F4F8617970738
:1012900020F48EEC93E00E94D2062091D20330918C
:1012A000D303C901880F991F880F991F2C173D0779
:1012B000C0F4E091CE03F091CF03E80FF91F30970F
:1012C00049F0D8014D915D916D917C91408351839E
:1012D000628373832F5F3F4F0496E8CFC617D7070B
:1012E00020F4D093D303C093D203DF91CF911F9109
:1012F0000F910895EF92FF920F931F93CF93DF9377
:101300000091CE031091CF03C091D203D091D303AB
:10131000CC0FDD1FCC0FDD1FC00FD11F0C171D0719
:1013200061F1F801208131813327F901E95FFD4F37
:101330008491F901EF53FE4FE490F901E558FE4F17
:10134000F490FF2091F081110E94B002EF2DF0E0A7
:10135000EE0FFF1FEF59FE4FA591B491EC91EE21D6
:1013600091E080E021F490E002C090E080E0F8019C
:10137000928383830C5F1F4FD1CFE091CE03F09116
:10138000CF0382819381892B99F086819781892B64
:1013900091F082859385892B89F086859785892BA5
:1013A00081F082899389892B79F080E090E00EC0EA
:1013B00081E090E00BC082E090E008C083E090E024
:1013C00005C084E090E002C085E090E0DF91CF911D
:1013D0001F910F91FF90EF9008958F929F92AF927F
:1013E000BF92CF92DF92EF92FF920F931F93CF9312
:1013F000DF93CDB7DEB7A1970FB6F894DEBF0FBE6F
:10140000CDBF6C01990FEE08FF08F7FE33C0E091E5
:101410007D02F0917E020190F081E02D6DE28DE77A
:1014200092E009958C0122273327A9012C193D0947
:101430004E095F0919A2CE0181967C019AE0892E9E
:10144000912CA12CB12CCA01B901A50194010E94D3
:10145000C31C605DF70162937F01211531054105D1
:10146000510589F7BF018DE792E00E945110080FE6
:10147000191F20C0A701960119A28E010F5D1F4FF1
:101480008AE0C82ED12CE12CF12CCA01B901A701A8
:1014900096010E94C31C605DF80162938F012115C3
:1014A00031054105510589F7BF018DE792E00E94A2
:1014B00051108C016EE272E08DE792E00E945110B3
:1014C000800F911FA1960FB6F894DEBF0FBECDBF5F
:1014D000DF91CF911F910F91FF90EF90DF90CF9010
:1014E000BF90AF909F908F9008950F931F93CF93CD
:1014F000DF93EC018C819D81892B31F48C819D815E
:10150000892B09F44EC027C06BE372E08881998172
:101510000E94391C892B91F700E010E080916D0347
:1015200090916E030817190748F7E0916903F0914D
:101530006A039801220F331FE20FF31F808191810C
:10154000FC01208131812130310511F40E94190400
:101550000F5F1F4FE3CF64E472E0888199810E949E
:10156000391C892BF1F4C0E0D0E080916D0390919B
:101570006E03C817D907A8F4E0916903F0916A03D4
:10158000CE01880F991FE80FF91F80819181FC011E
:10159000208131812330310511F40E9419042196F4
:1015A000E4CFDF91CF911F910F9108952F923F9239
:1015B0004F925F926F927F928F929F92AF92BF9263
:1015C000CF92DF92EF92FF920F931F93CF93DF930F
:1015D000CDB7DEB727970FB6F894DEBF0FBECDBFED
:1015E0009E838D8300E010E0212C312C88248A9486
:1015F000982C540198E4492E98EE592E6624639451
:10160000712CAD81BE8114968D919C9115972816F1
:10161000390608F03EC3AD81BE81ED91FC919F017A
:10162000200F311FD9018D919D910D90BC91A02D5E
:1016300089839A83AB83BC8320E030E040E251E4AD
:10164000BC01CD010E94091A18160CF0B6C220E0A8
:1016500030E44CE956E469817A818B819C810E9457
:10166000491C87FFAAC2E0907F03F090800380911D
:1016700000028E1105C0E0E6F1E0F491FF8307C19E
:101680008F3F09F090C2E0920002E0E6F1E0849121
:101690008F3F09F488C2823009F480C074F5882332
:1016A00009F45BC0813009F0F1C010928000109203
:1016B0008100809181008860809381008091810009
:1016C000816080938100C7019927FC01E558FE4F96
:1016D000E491F0E0EE0FFF1FEA5BFE4F259134919D
:1016E0003093610220936002FC01EF53FE4FE491BE
:1016F000E0935F02F1E0FF83CDC0843009F49EC027
:101700000CF474C0853009F0C1C010922001109211
:101710002101809121018860809321018091210124
:10172000816080932101C7019927FC01E558FE4F94
:10173000E491F0E0EE0FFF1FEA5BFE4F259134913C
:101740003093550220935402FC01EF53FE4FE49175
:10175000E0935302B5E0BF839DC014BC15BC84B5B3
:10176000826084BD85B5816085BDC7019927FC0174
:10177000E558FE4FE491F0E0EE0FFF1FEA5BFE4FED
:10178000259134913093640220936302FC01EF535E
:10179000FE4FE491E09362021F827CC01092B00081
:1017A0001092B1008091B00082608093B00080916F
:1017B000B10081608093B100C7019927FC01E55811
:1017C000FE4FE491F0E0EE0FFF1FEA5BFE4F259124
:1017D000349130935E0220935D02FC01EF53FE4F83
:1017E000E491E0935C0282E08F8354C010929000F9
:1017F0001092910080919100886080939100809177
:101800009100816080939100C7019927FC01E55800
:10181000FE4FE491F0E0EE0FFF1FEA5BFE4F2591D3
:10182000349130935B0220935A02FC01EF53FE4F38
:10183000E491E093590293E09F832CC01092A000A2
:101840001092A1008091A10088608093A1008091F6
:10185000A10081608093A100C7019927FC01E55890
:10186000FE4FE491F0E0EE0FFF1FEA5BFE4F259183
:1018700034913093580220935702FC01EF53FE4FEE
:10188000E491E0935602A4E0AF8304C08F83EF811C
:10189000E7FD89C169817A818B819C810E94DA1977
:1018A00069837A838B839C8361E08E2D0E9434034D
:1018B00089819A816C01E12CF12C8F818D7F09F057
:1018C000ACC060E072E18AE790E0A70196010E9457
:1018D0002A1929833A834B835C83BA01A9014150B9
:1018E0005109610971094F3F51056105710509F001
:1018F00008F445C060E472E48FE090E0A70196012F
:101900000E942A19BA01A9014150510961097109BE
:101910009F819230E9F44F3F51056105710509F04F
:1019200008F4B5C160E970ED83E090E0A70196018D
:101930000E942A19BA01A90141505109610971098E
:101940004F3F51056105710509F0B8F583E05EC0B0
:101950004F3F510561057105A1F098F0C301B20137
:10196000A70196010E942A19BA01A9014150510903
:1019700061097109AF81AA2309F435C180C181E0F1
:1019800001C082E0EF81EE2399F040C089819A8105
:10199000AB81BC812AE0B595A795979587952A9547
:1019A000D1F7AC01BD01415051096109710985E0D0
:1019B00095B5987F892B85BD90C0C301B201A70161
:1019C00096010E942A19BA01A901415051096109E1
:1019D00071094F3F51056105710509F008F401C116
:1019E00064E274EF80E090E0A70196010E942A195A
:1019F000BA01A90141505109610971094F3F5105CF
:101A00006105710511F008F00DC185E09091B100FC
:101A1000987F892B8093B1004DC060E072E18AE726
:101A200090E0A70196010E942A19BA01A90141502C
:101A300051096109710941155105F1E06F077105FF
:101A400070F0C301B201A70196010E942A19BA01E0
:101A5000A901415051096109710923E001C021E048
:101A60008F81813039F480918100887F822B80932F
:101A7000810042C09F81933039F480919100887F2A
:101A8000822B809391005AC0AF81A43039F48091A9
:101A9000A100887F822B8093A10062C0BF81B530F6
:101AA00049F480912101982F987F822F892B809370
:101AB000210168C0EF81E23089F134F4EE2369F04E
:101AC000E13009F070C018C0FF81F43009F448C05B
:101AD000ACF1F53009F456C066C047BD809279027A
:101AE00090927A02A0927B02B0927C0280916E006A
:101AF000826080936E0057C05093890040938800A5
:101B00008092750290927602A0927702B09278024B
:101B100080916F00826080936F0045C04093B30056
:101B20008092710290927202A0927302B09274023B
:101B30008091700082608093700035C0509399004E
:101B40004093980080926D0290926E02A0926F0274
:101B5000B09270028091710082608093710023C006
:101B60005093A9004093A8008092690290926A0263
:101B7000A0926B02B0926C0280917200826080939E
:101B8000720011C050932901409328018092650290
:101B900090926602A0926702B092680280917300F0
:101BA0008260809373006091810370918203072E9D
:101BB000000C880B990B0E94950380917F030E9473
:101BC0000D106091830370918403072E000C880B25
:101BD000990B0E9495038FEF281A380A0C5F1F4F4C
:101BE00010CD84E013CF4F3F510561057105C1F061
:101BF000B8F062E17AE780E090E0A70196010E94E8
:101C00002A19BA01A90141505109610971094F3FCF
:101C100051056105710511F008F0B8CE84E0C8CE19
:101C200083E0C6CE62E17AE780E090E0A70196010A
:101C30000E942A19BA01A90141505109610971098B
:101C40004F3F510561057105C1F0B8F089819A8156
:101C5000AB81BC813AE0B595A795979587953A9564
:101C6000D1F7AC01BD014150510961097109BF8132
:101C7000BB2309F49CCE87E0C9CE86E083CE4F3FDC
:101C800051056105710509F068F684E07BCE82E0BC
:101C9000BDCE27960FB6F894DEBF0FBECDBFDF9145
:101CA000CF911F910F91FF90EF90DF90CF90BF9059
:101CB000AF909F908F907F906F905F904F903F90EC
:101CC0002F900895EF92FF920F931F93CF93DF937E
:101CD000EC017B018A0188819981009729F02A8192
:101CE0003B8124173507F8F4B8016F5F7F4F0E94DE
:101CF0003B1B009759F0998388831B830A832C81AF
:101D00003D81232B81F4FC0110820DC088819981D3
:101D1000009711F00E94A31A198218821D821C825A
:101D20001B821A8207C01D830C83B70188819981A9
:101D30000E94421CCE01DF91CF911F910F91FF9025
:101D4000EF9008951F920F920FB60F9211240BB6C9
:101D50000F922F933F934F935F936F937F938F9344
:101D60009F93AF93BF93EF93FF93809171029091F4
:101D70007202A0917302B0917402892B8A2B8B2B73
:101D800051F180915C02E0915D02F0915E029081E0
:101D9000892780838091710290917202A0917302D1
:101DA000B0917402181619061A061B06C4F4809125
:101DB000710290917202A0917302B0917402019726
:101DC000A109B1098093710290937202A0937302EA
:101DD000B093740204C0809100020E940D10FF9124
:101DE000EF91BF91AF919F918F917F916F915F9193
:101DF0004F913F912F910F900BBE0F900FBE0F9000
:101E00001F901895EDE7F2E0A089B18982E08C93EC
:101E1000A485B5851C92A685B7858FEC8C93108E12
:101E2000A489B58986E08C93A289B3898C9180615D
:101E30008C93A289B3898C9188608C93A289B38991
:101E40008C9180688C930288F389E02D80818F7D4E
:101E5000808308950F931F93CF93DF93CDB7DEB7A1
:101E600029970FB6F894DEBF0FBECDBF0E94700356
:101E70000091040410910504209106043091070498
:101E8000DC01CB01801B910BA20BB30BC297A10508
:101E9000B10560F3F8948091FA039091FB039A8363
:101EA0008983E091FE03F091FF03DF0111968081A9
:101EB00089879091F603E0910804F09109048091DC
:101EC0000A04992309F42EC09081982B9887908159
:101ED000809589238F838F818C8388E08B835885BD
:101EE0006F8149853B812C8189819A81508347FD8F
:101EF000252F3A952083262F39F0441F00C000007B
:101F00006083000000C0F2CF38E04D916083000094
:101F1000019761F7F0930904E093080449873B8334
:101F20002C8338C09081982B988790818095892345
:101F30008F838F818E8388E08D8358856F8149855B
:101F40003D812E8189819A81508347FD252F00C0D4
:101F500000C0208300C000C000C000C000C060837B
:101F60000000262F3A9541F0441F000000C000C039
:101F700000C000C000C0E8CF38E04D9100C06083D1
:101F800000C0019709F7F0930904E093080449871A
:101F90003D832E839A83898378940E947003609393
:101FA0000404709305048093060490930704299613
:101FB0000FB6F894DEBF0FBECDBFDF91CF911F915A
:101FC0000F910895CF92DF92EF92FF920F931F939C
:101FD000CF93DF936C017A018B01C0E0D0E0CE1586
:101FE000DF0589F0D8016D918D01D601ED91FC914D
:101FF0000190F081E02DC6010995892B11F47E0135
:1020000002C02196ECCFC701DF91CF911F910F91B4
:10201000FF90EF90DF90CF90089590910002981379
:102020003DC0E0E6F1E0E4919FEF90930002E230E2
:10203000C9F050F4EE2399F0E13081F590916F00F2
:102040009D7F90936F002AC0E43019F1E0F0E530F5
:1020500029F5909173009D7F909373001FC010929B
:102060006E001CC0909170009D7F9093700091E075
:102070009093B0009091B100987F94609093B100DC
:102080001092B3000BC0909171009D7F90937100EE
:1020900005C0909172009D7F9093720060E00C9457
:1020A00004036115710579F0FB0101900020E9F747
:1020B0003197AF01461B570BDC01ED91FC9102807B
:1020C000F381E02D099480E090E00895CF93DF93B1
:1020D000CDB7DEB7EB970FB6F894DEBF0FBECDBF1E
:1020E000789484B5826084BD84B5816084BD85B5F3
:1020F000826085BD85B5816085BD80916E008160FF
:1021000080936E00109281008091810082608093A4
:1021100081008091810081608093810080918000A6
:102120008160809380008091B10084608093B100D1
:102130008091B00081608093B000809191008260B6
:1021400080939100809191008160809391008091B3
:1021500090008160809390008091A10082608093C4
:10216000A1008091A10081608093A1008091A000D6
:1021700081608093A0008091210182608093210181
:1021800080912101816080932101809120018160F3
:102190008093200180917A00846080937A008091FE
:1021A0007A00826080937A0080917A0081608093C7
:1021B0007A0080917A00806880937A001092C10042
:1021C00010925E0310925F031092600310926103FD
:1021D00010921C0310921D0310921E0310921F03F5
:1021E00060ED77E080E090E00E9495038DE792E05B
:1021F00090935D0380935C030E94020F2FB7F894C5
:1022000080914A0290914B02A0914C02B0914D02F4
:102210002FBF80931C0390931D03A0931E03B093C4
:102220001F036FE172E080915C0390915D030E9457
:1022300051106AE070E080E090E00E949503FF2476
:10224000F394F092300389E694E00E94CE048EE588
:1022500094E00E94CE040091E9031091EA03C0903B
:10226000EB03D090EC031A8218861F86188A198A0D
:102270001A8AFE86FB861C8682E08D87F9827601AB
:10228000EE0CFF1CEC0CFD1CFE82ED82C7010E94CF
:102290000E1A9A878987009741F0A70160E070E0E5
:1022A0000E94321CDC82CB8204C01E821D821C82F2
:1022B0001B820F838A81882341F061E0802F0E9476
:1022C000340360E0802F0E9404031127F801E558D1
:1022D000FE4FE491F0E0EE0FFF1FEA5BFE4F8591A9
:1022E00094919C8B8B8BF801EF53FE4F04910D8BD7
:1022F00085E1FE013196A6EFB3E001900D928A953B
:10230000E1F7CE0101960E94BD078091FC0387FD95
:1023100008C061E00E94340360E08091FC030E94E9
:10232000040381E08093F7038091FE039091FF0303
:10233000892B11F00E942A0F8091DD039091DE031A
:10234000A091DF03B091E0038EA39FA3A8A7B9A734
:10235000CE0186960E942F098091E1039091E203BD
:10236000A091E303B091E4038AA39BA3ACA3BDA314
:10237000CE0182960E942F098091D9039091DA03B1
:10238000A091DB03B091DC038E8F9F8FA8A3B9A32C
:10239000CE014E960E942F098091E5039091E603AD
:1023A000A091E703B091E8038A8F9B8FAC8FBD8F1C
:1023B000CE014A960E942F098091D5039091D603B1
:1023C000A091D703B091D8038E8B9F8BA88FB98F24
:1023D000CE0146960E942F0989E694E09BAF8AAF12
:1023E0008091660390916703BE01665C7F4F019602
:1023F0000E94E5088EE594E099AF88AF809166036E
:1024000090916703BE01685C7F4F01960E94E508CA
:1024100083E594E09FAB8EABCE01C6960E94A008E8
:1024200088E494E09DAB8CABCE01C4960E94A008DA
:102430008DE394E09BAB8AABCE01C2960E94A008CC
:1024400082E394E099AB88ABCE01C0960E94A008CD
:1024500087E294E09FA78EA7CE018E960E94A008E7
:102460008CE194E09DA78CA7CE018C960E94A008D9
:1024700081E194E09BA78AA7CE018A960E94A008DA
:10248000E0907403F090750387010F5F1F4FE01613
:10249000F10608F055C08091720390917303801784
:1024A0009107A0F59701275F3F4F8217930770F5BB
:1024B000C0907003D0907103309373032093720324
:1024C000C901880F991F0E940E1A9093710380937F
:1024D0007003D60140E050E04E155F05A1F0E09199
:1024E0007003F09171039A01220F331FE20FF31F63
:1024F000309729F08D919C911197918380834F5F44
:102500005F4F1296E9CFC6010E94A31A809174030F
:10251000909175039C01220F331F49EE53E0801701
:10252000910788F4E0917003F0917103E20FF31FBB
:10253000309711F05183408301962E5F3F4FEFCFCC
:102540000E151F0520F410937503009374038AEC95
:1025500093E0909378038093770340E050E060E04D
:1025600070E080E090E00E94DD070E94020F11E021
:102570000E947A0983309105D1F06CF420917B039D
:1025800030917C038130910561F0029709F0E5C23A
:102590002150310908C08430910549F00597B1F008
:1025A000DCC22F5F3F4F30937C0320937B036CE8AA
:1025B00073E0CE0101960E940407CE0101960E94AD
:1025C000D60ACE0101960E94D107C7C263E973E023
:1025D000CE0101960E940407CE0101960E94D60A00
:1025E000CE0101960E94D10761E372E08DE792E08F
:1025F0000E9451108091790390917A030E94ED0915
:102600008091790390917A038130910509F4D7C0C4
:102610008230910509F4BBC1892B09F09AC241E3CC
:1026200050E06AEF70E081E090E00E94DD076AEF21
:1026300070E080E090E00E9495031A8219821C826B
:102640001B821E821D8248E050E06BE372E0CE01E7
:1026500001960E94620ECE0101960E94750A898140
:102660009A810E94A31AE12CF12C80916D03909124
:102670006E03E816F90608F09CC0E0916903F0913A
:102680006A03C701880F991FE80FF91F0190F081B5
:10269000E02D80819181A0916203B0916303019745
:1026A00009F0A0C280859185009779F582858823FD
:1026B00009F498C260E08D919C910E94E004E09141
:1026C0006203F091630382819381FC0112870E946F
:1026D000C104E0916203F091630340E050E0BA016D
:1026E000808191810E94F504E0916203F09163037F
:1026F00040E050E066E173E4828193810E94F5043A
:1027000068EE73E080E090E061C28130910539F5B8
:102710008285882309F466C28D919C91FC01128701
:102720000E94C104E0916203F091630360E0828142
:1027300093810E94E004E0916203F091630340E022
:1027400050E066E173E4808191810E94F504E0919C
:102750006203F091630340E050E0BA012FC201969A
:1027600009F040C28285882309F43CC28D919C9176
:10277000FC0112870E94C104E0916203F09163039F
:1027800060E0828193810E94E004E0916203F09115
:10279000630340E050E0BA01808191810E94F5041A
:1027A000E0916203F091630340E050E066E173E47E
:1027B00005C20E947A09059709F03FCFAEC142E4F5
:1027C00050E06DE170E088E890E00E94DD076AEF7C
:1027D00070E080E090E00E9495030E947A098330C7
:1027E0009105E1F44CE150E069EF70E089E790E099
:1027F0000E94DD07E0916203F091630360E0808155
:1028000091810E94E004E0916203F0916303828170
:102810009381FC0112870E94C10422C0843091057B
:10282000A4F18430910509F093C044E150E063E5E0
:1028300070E081E890E00E94DD07E0916203F09192
:10284000630380819181FC0112870E94C104E091A1
:102850006203F091630360E0828193810E94E0044F
:10286000E0916203F091630340E050E06AEF72E4AC
:10287000808191810E94F504E0916203F0916303ED
:1028800040E050E066E972E431C08130910599F58D
:1028900049E250E060E070E088E590E00E94DD07EA
:1028A000E0916203F091630380819181FC011287C2
:1028B0000E94C104E0916203F091630360E08281B1
:1028C00093810E94E004E0916203F091630340E091
:1028D00050E06AEF72E4808191810E94F504E091FA
:1028E0006203F091630340E050E0BA01828193817A
:1028F0000E94F5046CCF029719F545E750E06FEFA1
:1029000070E08CE290E00E94DD07E0916203F091BC
:10291000630380819181FC0112870E94C104E091D0
:102920006203F091630360E0828193810E94E0047E
:10293000E0916203F091630340E050E0BA0198CF68
:10294000E0916203F091630340E050E0BA01C3CF2D
:102950000597B1F7E0916203F091630340E050E026
:10296000BA01808191810E94F504E0916203F091A7
:10297000630340E050E0BA01828193810E94F50434
:102980006EEE72E080E090E00E949503E2C04BE1C1
:1029900050E060E070E08EEF90E00E94DD07E09193
:1029A0006903F0916A0340916D0350916E0320E03A
:1029B00030E080E090E02417350759F0A191B19103
:1029C0006D917C916330710509F001962F5F3F4F47
:1029D000F2CF6C01CC0CDD1C01967C01EE0CFF1CCF
:1029E0001A8219821C821B821E821D8244E050E0E2
:1029F00064E472E0CE0101960E94620ECE0101965F
:102A00000E94750A89819A810E94A31AE091690344
:102A1000F0916A03EC0DFD1D0190F081E02D82859F
:102A200090E00E94ED09E0916903F0916A03DF01F3
:102A3000AC0DBD1D0D90BC91A02D1A968C91A0914E
:102A40006203B0916303AF014E0D5F1D882351F106
:102A5000FA0120813181F9019285911123C08D9174
:102A60009C91FC0112870E94C104E0916203F091E5
:102A7000630360E0828193810E94E004E09162033D
:102A8000F091630340E050E066E972E48081918157
:102A90000E94F504E0916203F091630340E050E08E
:102AA000BA012CC0FA0120813181F9019285992364
:102AB00009F4C0C08111BEC08D919C91FC011287A8
:102AC0000E94C104E0916203F091630360E082819F
:102AD00093810E94E004E0916203F091630340E07F
:102AE00050E0BA01808191810E94F504E091620377
:102AF000F091630340E050E066E972E482819381E3
:102B00000E94F50460E570E080E090E00E9495038B
:102B10000E947A09059709F063CF68EC70E080E0C5
:102B200090E00E949503E0916203F091630340E01E
:102B300050E0BA01808191810E94F504E091620326
:102B4000F091630340E050E0BA01828193810E94DA
:102B5000F50410927C0310927B0380917B0390918B
:102B60007C0397FF03C091958195910960917D0346
:102B700070917E030E94161990937A0380937903D3
:102B8000009729F44FEF50E060E870E007C0813013
:102B9000910539F44FEF50E069E170E080E090E09A
:102BA00008C0029741F442E350E060E070E08FEF2C
:102BB00090E00E94DD070E941702DACC82819381A7
:102BC0000E94F5046AEF70E080E090E00E949503B7
:102BD00066E470E080E090E00E9495038FEFE81AD1
:102BE000F80A43CD8D919C91FC0112870E94C1048B
:102BF000E0916203F091630360E0828193810E941F
:102C0000E004E0916203F091630340E050E068E487
:102C100073E4808191810E94F504E0916203F09158
:102C2000630340E050E068E473E4828193810E9492
:102C3000F504CECF8D919C91FC0112870E94C104B6
:102C4000E0916203F091630360E0828193810E94CE
:102C5000E004E0916203F091630340E050E066E13C
:102C600073E4808191810E94F504E0916203F09108
:102C7000630340E050E066E173E440CFCF93DF931D
:102C8000C2E6D3E08E859F850E94A31A8F81988526
:102C90000E94A31A888199810E94A31A83E993E074
:102CA0000E94D1078CE893E00E94D10785E893E069
:102CB0000E94D1078091CE039091CF030E94A31A66
:102CC00086EF93E00E94BD078FEE93E0DF91CF91F6
:102CD0000C94D6078F929F92AF92BF92DF92EF92A1
:102CE000FF920F931F93CF93DF93CDB7DEB72E974D
:102CF0000FB6F894DEBF0FBECDBFEDE7F2E0138252
:102D0000128288EE93E0A0E0B0E084839583A683EE
:102D1000B7838BE092E09183808385EC90E0958788
:102D2000848784EC90E09787868780EC90E0918B95
:102D3000808B81EC90E0938B828B82EC90E0958B82
:102D4000848B86EC90E0978B868B118E128E138E7F
:102D5000148EEAE1F3E0168217821086118612863D
:102D600013861486158616861786108A118A128A8B
:102D7000138A148A158A89E6A82E84E0B82E89E081
:102D800090E0F5019183808398E0E92EF12CF382A5
:102D9000E2820AE010E01583048340E050E0BA01CB
:102DA000C5010E94F504DD24D394F501D286C50146
:102DB0000E94C1042EE5822E24E0922E87E090E04E
:102DC000F4019183808336E0A32EB12CB382A282DA
:102DD00085E090E09583848340E050E0BA01C4012F
:102DE0000E94F504F401D286C4010E94C104E3E507
:102DF000F4E085E290E09383828380E490E0958321
:102E0000848326E930E03783268381E090E0918750
:102E1000808791838083E8E4F4E047E250E05383C5
:102E2000428341E450E055834483378326831186EF
:102E3000108691838083EDE3F4E049E250E0538310
:102E4000428342E450E055834483378326834FEF27
:102E50005FEF5187408791838083E2E3F4E06DE286
:102E600070E07383628364E470E075836483378306
:102E700026831187008791838083E7E2F4E06FE285
:102E800070E07383628365E470E0758364833783E5
:102E9000268326EF3FEF3187208791838083ECE103
:102EA000F4E028E230E03383228326E330E0358308
:102EB000248324EF31E0378326839187808783E062
:102EC00090E091838083E1E1F4E06AE270E0738353
:102ED000628367E370E07583648337832683518759
:102EE00040879183808309EE13E0F80182A193A1CA
:102EF0009987888784A195A19B878A8786A197A1B6
:102F00009D878C87AE01485F5F4F63E070E09E0154
:102F10002F5F3F4F8FEE93E00E949406F801D58615
:102F20001686108A1786128A118A8FEF838B148A6D
:102F3000168A158AD78A108E82E0818FD28E138EE0
:102F4000148E158E168E8CE290E091838083B3826E
:102F5000A2821482158247E1842E42E0942E53E02F
:102F6000A52EB12C9E01225F3F4FB501A401CE01D9
:102F700001960E949406BE016F5F7F4F8FEE93E033
:102F80000E94FA05CE0101960E94D60786E190E0E4
:102F90009093E6038093E50360E00E94340387E1A9
:102FA00090E09093E2038093E10360E00E94340399
:102FB00088E190E09093DE038093DD0360E00E945F
:102FC000340389E190E09093DA038093D90360E0C1
:102FD0000E9434038AE190E09093D6038093D50356
:102FE00060E00E9434030AEC13E0F801F782E68205
:102FF0001186108680E290E00E940E1AF8019583F7
:1030000084830FE713E08CE291E0F80193838283DD
:1030100084E690E095838483F186E08613861286A9
:1030200080E290E00E940E1AF80197838683F08A6E
:10303000E786128A118A80E290E00E940E1AF80157
:1030400096878587F78AE68A118E108E80E290E057
:103050000E940E1AF801958B848B80E090EDA2E01F
:10306000B4E4838F948FA58FB68F8EEA97E9AAE098
:10307000B4E4878F90A3A1A3B2A38FE195EDA2E161
:10308000B4E483A394A3A5A3B6A380E090E9ABE145
:10309000B4E487A390A7A1A7B2A784EA90EDA4E225
:1030A000B4E483A794A7A5A7B6A781E79DE9AEE2FC
:1030B000B4E487A790ABA1ABB2AB8CE59FEFA8E3DC
:1030C000B4E483AB94ABA5ABB6AB8CE59FEFA3E4C4
:1030D000B4E487AB90AFA1AFB2AF8AE097EAAFE4B8
:1030E000B4E483AF94AFA5AFB6AF80E090E0ACE5B9
:1030F000B4E48093BE039093BF03A093C003B09346
:10310000C1038FE195E1A9E6B4E48093C2039093F3
:10311000C303A093C403B093C50388E491EFA6E76B
:10312000B4E48093C6039093C703A093C803B093FD
:10313000C9038BE090E09183808360E00E943403B8
:103140006AE973E085E893E00E9449076AE973E061
:1031500085E893E00E94490766EC73E085E893E018
:103160000E94490766EC73E085E893E00E944907F6
:103170006AE973E08CE893E00E9449076AE973E02A
:1031800083E993E00E944907F801638D748D858D72
:10319000968D9B01AC010E94671969837A838B83AA
:1031A0009C83BE016F5F7F4F83E993E00E944907D4
:1031B000E9E7F3E0B582A4821182108213821282C1
:1031C00002E613E0F801F382E2821582148280E1C4
:1031D00090E00E940E1AF80191838083F286E186C6
:1031E0001486138680E190E00E940E1AF801908701
:1031F0008783F18AE08A138A128A80E190E00E9434
:103200000E1AF801978786872E960FB6F894DEBFC0
:103210000FBECDBFDF91CF911F910F91FF90EF9027
:10322000DF90BF90AF909F908F90089597FB072EEF
:1032300016F4009407D077FD09D00E94521907FCBC
:1032400005D03EF4909581959F4F089570956195B6
:103250007F4F0895052E97FB1EF400940E9441199C
:1032600057FD07D00E94C31C07FC03D04EF40C94FA
:10327000411950954095309521953F4F4F4F5F4FE5
:10328000089590958095709561957F4F8F4F9F4FD2
:103290000895EE0FFF1F0024001C0BBE0790F6914F
:1032A000E02D0994AA1BBB1B51E107C0AA1FBB1F3D
:1032B000A617B70710F0A61BB70B881F991F5A95C2
:1032C000A9F780959095BC01CD0108955058BB2772
:1032D000AA270E947E190C94891C0E947B1C38F03E
:1032E0000E94821C20F039F49F3F19F426F40C94BC
:1032F000781C0EF4E095E7FB0C94721CE92F0E94F9
:103300009A1C58F3BA17620773078407950720F0D1
:1033100079F4A6F50C94BC1C0EF4E0950B2EBA2F94
:10332000A02D0B01B90190010C01CA01A0011124CB
:10333000FF27591B99F0593F50F4503E68F11A1677
:10334000F040A22F232F342F4427585FF3CF469508
:1033500037952795A795F0405395C9F77EF41F162A
:10336000BA0B620B730B840BBAF09150A1F0FF0FF4
:10337000BB1F661F771F881FC2F70EC0BA0F621FE0
:10338000731F841F48F4879577956795B795F795D0
:103390009E3F08F0B0CF9395880F08F09927EE0F65
:1033A0009795879508950E94DA196894B1110C9445
:1033B000BD1C08950E94A21C88F09F5798F0B92F59
:1033C0009927B751B0F0E1F0660F771F881F991F5A
:1033D0001AF0BA95C9F714C0B13091F00E94BC1C24
:1033E000B1E008950C94BC1C672F782F8827B85F34
:1033F00039F0B93FCCF3869577956795B395D9F7B2
:103400003EF490958095709561957F4F8F4F9F4FBB
:1034100008950E944E1C08F48FEF0895CF93DF9318
:103420008230910510F482E090E0E0917604F09112
:10343000770420E030E0C0E0D0E0309711F1408127
:10344000518148175907C0F04817590761F4828124
:103450009381209719F09B838A832BC090937704E4
:103460008093760426C02115310519F042175307C1
:1034700018F49A01BE01DF01EF010280F381E02D13
:10348000DCCF2115310509F1281B390B243031051A
:1034900090F412968D919C9113976115710521F00E
:1034A000FB019383828304C0909377048093760416
:1034B000FD01329644C0FD01E20FF31F8193919309
:1034C000225031092D933C933AC0209174043091DD
:1034D0007504232B41F420910302309104023093B0
:1034E0007504209374042091010230910202211589
:1034F000310541F42DB73EB74091050250910602C7
:10350000241B350BE0917404F0917504E217F30766
:10351000A0F42E1B3F0B2817390778F0AC014E5F43
:103520005F4F2417350748F04E0F5F1F5093750407
:10353000409374048193919302C0E0E0F0E0CF01E6
:10354000DF91CF9108950F931F93CF93DF9300974F
:1035500009F48CC0FC013297138212820091760428
:10356000109177040115110581F420813181820FBA
:10357000931F20917404309175042817390779F549
:10358000F0937504E093740471C0D80140E050E0FA
:10359000AE17BF0750F412962D913C911397AD01D1
:1035A0002115310509F1D901F3CF9D01DA013383EA
:1035B000228360817181860F971F8217930769F4B8
:1035C000EC0128813981260F371F2E5F3F4F318351
:1035D00020838A819B8193838283452B29F4F093F6
:1035E0007704E093760442C01396FC93EE9312970F
:1035F000ED01499159919E01240F351FE217F30700
:1036000071F480819181840F951F029611969C938D
:103610008E938281938113969C938E931297E0E010
:10362000F0E0D80112968D919C911397009719F0B4
:10363000F8018C01F6CF8D919C9198012E5F3F4F40
:10364000820F931F20917404309175042817390755
:1036500069F4309729F4109277041092760402C02E
:10366000138212821093750400937404DF91CF913A
:103670001F910F9108956F927F928F929F92AF92B8
:10368000BF92CF92DF92EF92FF920F931F93CF934F
:10369000DF93EC01009789F4CB01DF91CF911F916B
:1036A0000F91FF90EF90DF90CF90BF90AF909F90E1
:1036B0008F907F906F900C940E1AFC01E60FF71F0D
:1036C0009C0122503109E217F30708F4ACC0D9017C
:1036D0000D911C91119706171707B0F005301105D1
:1036E00008F49FC0C80104978617970708F499C08B
:1036F00002501109061B170B019311936D937C93D4
:10370000CF010E94A31A8DC05B01A01AB10A4C011F
:10371000800E911EA0917604B091770440E050E0B5
:10372000E12CF12C109709F44AC0A815B905D1F580
:103730006D907C901197630182E0C80ED11CCA1471
:10374000DB0480F1A3014A195B096A0182E0C80E1B
:10375000D11C1296BC9012971396AC91B5E0CB1683
:10376000D10440F0B282A38351834083D9016D9389
:103770007C930AC00E5F1F4FC301800F911FF90198
:1037800091838083EB2DFA2FE114F10431F0D701FE
:103790001396FC93EE93129744C0F0937704E09352
:1037A00076043FC08D919C9111974817590708F4F2
:1037B000AC017D0112960D90BC91A02DB3CF8091EC
:1037C00074049091750488159905E1F4461757071C
:1037D000C8F48091010290910202009741F48DB7E4
:1037E0009EB74091050250910602841B950BE81785
:1037F000F907C8F4F0937504E0937404F901718338
:1038000060830FC0CB010E940E1A7C01009759F013
:10381000A801BE010E94291CCE010E94A31AC70163
:1038200004C0CE0102C080E090E0DF91CF911F91F3
:103830000F91FF90EF90DF90CF90BF90AF909F904F
:103840008F907F906F90089581E090E0F8940C94B1
:10385000E51CFB01DC0102C001900D92415050407B
:10386000D8F70895DC0101C06D9341505040E0F756
:103870000895FB01DC018D91019080190110D9F3AD
:10388000990B0895FB01DC0101900D920020E1F7F6
:1038900008950E944E1C08F481E00895990F0008D5
:1038A000550FAA0BE0E8FEEF16161706E807F90712
:1038B000C0F012161306E407F50798F0621B730BAD
:1038C000840B950B39F40A2661F0232B242B252B2E
:1038D00021F408950A2609F4A140A6958FEF811DD1
:1038E000811D089597F99F6780E870E060E0089572
:1038F0009FEF80EC089500240A9416161706180608
:103900000906089500240A941216130614060506E3
:103910000895092E0394000C11F4882352F0BB0F74
:1039200040F4BF2B11F460FF04C06F5F7F4F8F4FD7
:103930009F4F089557FD9058440F551F59F05F3F12
:1039400071F04795880F97FB991F61F09F3F79F0C1
:1039500087950895121613061406551FF2CF469543
:10396000F1DF08C0161617061806991FF1CF8695C5
:103970007105610508940895E894BB2766277727A9
:10398000CB0197F90895A1E21A2EAA1BBB1BFD01DA
:103990000DC0AA1FBB1FEE1FFF1FA217B307E4072E
:1039A000F50720F0A21BB30BE40BF50B661F771F86
:1039B000881F991F1A9469F7609570958095909566
:1039C0009B01AC01BD01CF01089511E0C8E2D1E037
:1039D00004C0FE010E9449192196C932D107C9F7D6
:0439E000F894FFCF89
:1039E400FF00007804800000000000AE01E20F77C1
:1039F4000155016901F501000000000000030056B3
:103A04004D4450565F317C315F564D4450560D0A3B
:103A14000063686F696365203D20006469737461A5
:0A3A24006E6365006C696E650000BA
:00000001FF
