:1000000028C1000057C1000055C1000053C10000C5
:1000100051C100004FC100004DC100004BC10000A4
:1000200049C100000C942E0F0C942E0F0C942E0F2F
:1000300041C100000C94F2143DC100003BC100001E
:1000400039C1000037C1000035C1000033C10000D4
:1000500031C100002FC100002DC1000010C40000FC
:1000600029C10000B9C200008EC2000023C10000F7
:1000700021C100001FC100001DC100001BC1000004
:1000800019C1000017C1000015C1000013C1000014
:1000900011C100000FC100000DC100000BC1000024
:1000A00009C1000007C1000005C1000003C1000034
:1000B00001C10000FFC00000FDC00000FBC0000047
:1000C000F9C00000F7C00000F5C0000033C2000016
:1000D00008C20000EFC00000EDC00000EBC000004F
:1000E000E9C0000030033303220326032C036A0314
:1000F00037033B034103450349034F0353035703AE
:100100006A035D0361036503AE05B305B805C20567
:10011000CC054506D605DE05E605F005FA0504061C
:1001200013061D064506270631063B060000210082
:10013000240027002A002D003000330001010000B8
:10014000040107010A010000200023002600290005
:100150002C002F00320000010000030106010901FC
:1001600005050505070508080808020202020A0A33
:100170000808040404040101010101010101030351
:10018000030303030303040707070C0C0C0C0C0CFC
:100190000C0C0202020206060606060606060B0BF9
:1001A0000B0B0B0B0B0B010210202008081020403A
:1001B000102040800201020108040201010204082B
:1001C00010204080804020100804020180040201B9
:1001D0008040201008040201080402010102040802
:1001E00010204080010204081020408000000A0B0B
:1001F00002090C0D0E0807030401000000000000B6
:1002000000000000000000000000000000000000EE
:1002100000000000000000001211100000000000AB
:1002200000000000000000000000000000000000CE
:10023000000000002200250028002B002E003100C5
:10024000340002010000050108010B010200ED1E4F
:10025000B51E11241FBECFEFD1E2DEBFCDBF00E03F
:100260000CBF13E0A0E0B2E0E0E8FBE400E00BBF6D
:1002700002C007900D92AA33B107D9F726E0AAE38E
:10028000B3E001C01D92A035B207E1F711E0C8E26A
:10029000D1E000E006C021970109802FFE010E94F5
:1002A0001022C732D10780E00807A9F70E9478150D
:1002B0000C94AF25A5CEFC01A089B1898C91A689AB
:1002C000B78982FD0FC09C91818D8F5F8F73228DC6
:1002D000821749F0218DDF01A20FB11D5D969C931D
:1002E000818F08958C910895FC01918D828D9817CE
:1002F00061F0828DDF01A80FB11D5D968C91928D0A
:100300009F5F9F73928F90E008958FEF9FEF089506
:10031000FC01918D828D981731F0828DE80FF11DCF
:10032000858D90E008958FEF9FEF0895FC01918DEA
:10033000228D892F90E0805C9F4F821B91098F73E3
:100340009927089583E493E0F1DF21E0892B09F4F4
:1003500020E0822F089580EE93E0E8DF21E0892BF2
:1003600009F420E0822F0895FC01848DDF01A80F9D
:10037000B11DA35ABF4F2C91848D90E001968F73CD
:100380009927848FA689B7892C93A089B1898C91EC
:1003900080648C93938D848D981306C00288F389B2
:1003A000E02D80818F7D80830895EF92FF920F93DF
:1003B0001F93CF93DF93EC0181E0888F9B8D8C8D11
:1003C000981305C0E889F989808185FD23C0F62E40
:1003D0000B8D10E00F5F1F4F0F731127E02E8C8DD8
:1003E000E8120BC00FB607FCFACFE889F9898081C3
:1003F00085FFF5CFCE01B8DFF2CF8B8DFE01E80F80
:10040000F11DE35AFF4FF0820B8FEA89FB8980814F
:10041000806207C0EE89FF896083E889F98980815D
:100420008064808381E090E0DF91CF911F910F91F4
:10043000FF90EF900895CF93DF93EC01888D882390
:10044000C1F0EA89FB89808185FD05C0A889B98949
:100450008C9186FD0EC00FB607FCF5CF808185FF1D
:10046000F2CFA889B9898C9185FFEDCFCE017CDFD1
:10047000E8CFDF91CF91089580E090E0892B19F0CB
:100480006ADF811120C080E090E0892B41F080E09C
:1004900090E0892B21F00E940000811117C080E0BC
:1004A00090E0892B19F04EDF811113C080E090E0BD
:1004B000892BA1F080E090E0892B81F00E94000060
:1004C00081110AC008950E940000DDCF0E94000043
:1004D000E6CF0E940000EACF0C94000008950E942D
:1004E000D7241F920F920FB60F9211240BB60F92C2
:1004F0002F933F934F935F936F937F938F939F932C
:10050000AF93BF93EF93FF9383E493E02DDFFF91CD
:10051000EF91BF91AF919F918F917F916F915F917B
:100520004F913F912F910F900BBE0F900FBE0F90E8
:100530001F9018951F920F920FB60F9211240BB6B1
:100540000F922F933F934F935F936F937F938F936C
:100550009F93AF93BF93EF93FF9383E493E0ABDE5E
:10056000FF91EF91BF91AF919F918F917F916F918B
:100570005F914F913F912F910F900BBE0F900FBE47
:100580000F901F9018951F920F920FB60F92112483
:100590000BB60F922F933F934F935F936F937F937D
:1005A0008F939F93AF93BF93EF93FF9380EE93E06E
:1005B000DBDEFF91EF91BF91AF919F918F917F9182
:1005C0006F915F914F913F912F910F900BBE0F90C4
:1005D0000FBE0F901F9018951F920F920FB60F929B
:1005E00011240BB60F922F933F934F935F936F930A
:1005F0007F938F939F93AF93BF93EF93FF9380EE7F
:1006000093E059DEFF91EF91BF91AF919F918F9150
:100610007F916F915F914F913F912F910F900BBE02
:100620000F900FBE0F901F90189590E0FC0131972E
:10063000E231F10508F04EC08827EE58FF4F8F4F8A
:100640000C941022809180008F7703C080918000ED
:100650008F7D80938000089580918000877FF9CFFF
:1006600084B58F7702C084B58F7D84BD0895809155
:10067000B0008F7703C08091B0008F7D8093B00071
:100680000895809190008F7707C0809190008F7DB2
:1006900003C080919000877F80939000089580919F
:1006A000A0008F7707C08091A0008F7D03C080914C
:1006B000A000877F8093A0000895809120018F770C
:1006C00007C0809120018F7D03C080912001877F2A
:1006D0008093200108951F93CF93DF93282F30E05C
:1006E000F901E451FE4F8491F901EA55FE4FD4918E
:1006F000F901E05AFE4FC491CC23C1F0162F8111AD
:1007000094DFEC2FF0E0EE0FFF1FEE5CFD4FA591A4
:10071000B4918FB7F894111105C09C91ED2FE0951D
:10072000E92302C0EC91ED2BEC938FBFDF91CF91C9
:100730001F910895CF93DF9390E0FC01EA55FE4F9F
:100740002491FC01E05AFE4F8491882361F190E0EE
:10075000880F991FFC01E45DFE4FC591D491FC0107
:10076000EE5CFD4FA591B491611109C09FB7F8945B
:100770008881209582238883EC912E230BC06230E0
:1007800061F49FB7F8943881822F80958323888302
:10079000EC912E2B2C939FBF06C08FB7F894E88165
:1007A0002E2B28838FBFDF91CF9108953FB7F89408
:1007B00080913F0390914003A0914103B091420387
:1007C00026B5A89B05C02F3F19F00196A11DB11DAC
:1007D0003FBFBA2FA92F982F8827820F911DA11DE7
:1007E000B11DBC01CD0142E0660F771F881F991F24
:1007F0004A95D1F708958F929F92AF92BF92CF9270
:10080000DF92EF92FF926B017C01D0DF4B015C0124
:10081000C114D104E104F104E9F0C8DFDC01CB012B
:1008200088199909AA09BB09883E9340A105B10519
:1008300078F321E0C21AD108E108F10888EE880EA9
:1008400083E0981EA11CB11CC114D104E104F10481
:1008500021F7DECFFF90EF90DF90CF90BF90AF9069
:100860009F908F9008952FB7F89460913B037091FB
:100870003C0380913D0390913E032FBF08951F924A
:100880000F920FB60F9211242F933F938F939F9344
:10089000AF93BF9380913B0390913C03A0913D03A4
:1008A000B0913E0330913A0323E0230F2D3720F41B
:1008B0000196A11DB11D05C026E8230F0296A11DBA
:1008C000B11D20933A0380933B0390933C03A09384
:1008D0003D03B0933E0380913F0390914003A0916C
:1008E0004103B09142030196A11DB11D80933F03C6
:1008F00090934003A0934103B0934203BF91AF9103
:100900009F918F913F912F910F900FBE0F901F904D
:1009100018950F931F93CF93DF93EC0161E08A81C9
:10092000DADE65E070E080E090E065DF9C81963380
:1009300008F0965380917B00292F2870877F822BA7
:1009400080937B009770906490937C0080917A00F4
:10095000806480937A0080917A0086FDFCCF0091BC
:1009600078008091790010E0182B65E070E080E05D
:1009700090E041DF60E08A81AEDE8E819F810817C2
:1009800019071CF081E08A8701C01A86DF91CF9198
:100990001F910F9108950F931F93CF93DF93EC0155
:1009A000088119817B836A83CB01880F991F0E947C
:1009B000C622998388838C819D81D80140E050E0D4
:1009C0004817590791F0E881F9819A01220F331FE6
:1009D000E20FF31F309729F02D913C91119731834D
:1009E00020834F5F5F4F1296EBCFC801DF91CF910D
:1009F0001F910F910C945B230F931F93CF93DF9361
:100A0000EC01088119817B836A83CB01880F991FD0
:100A10000E94C622998388838C819D81D80140E001
:100A200050E04817590791F0E881F9819A01220FA7
:100A3000331FE20FF31F309729F02D913C9111974E
:100A4000318320834F5F5F4F1296EBCFC801DF9158
:100A5000CF911F910F910C945B23CF93DF93EC0107
:100A600060E0888138DE61E08A81DF91CF9133CE0A
:100A7000CF93DF93EC0161E08C815CDE61E08881E3
:100A800059DE61E08A8156DEDF91CF910895CF93E0
:100A9000DF93FC016287662319F0DF91CF91DDCFF0
:100AA000EC0161E0808117DE60E08A81DF91CF9107
:100AB00012CECF92DF92EF92FF920F931F93CF93BC
:100AC000DF93EC016A017B0120E030E04FE753E463
:100AD000C701B6010E94C222181674F020E030E06F
:100AE000A901C701B6010E94FB2487FF0BC0F7FADA
:100AF000F094F7F8F09406C0C12CD12C8FE7E82EC3
:100B000083E4F82ECE82DF82E886F986C701B6013B
:100B10000E9491226B017C018B010C80DD81C02D34
:100B200061E08C2F07DEC114D10409F4B1C00F3F7E
:100B3000110509F4AFC0FE01FF27E451FE4FE49117
:100B40004E2F50E0FA013197E231F10508F09DC0D7
:100B50008827EC57FF4F8F4F0C94102284B5806884
:100B600084BDC7BCA2C084B5806284BDC8BC9DC022
:100B700080918000806880938000D0928900C0922C
:100B8000880093C080918000806280938000D09222
:100B90008B00C0928A0089C0809180008860809319
:100BA0008000D0928D00C0928C007FC08091B000F8
:100BB00080688093B000C092B30077C08091B0008D
:100BC00080628093B000C092B4006FC080919000AA
:100BD000806880939000D0929900C092980065C080
:100BE00080919000806280939000D0929B00C09290
:100BF0009A005BC080919000886080939000D092B2
:100C00009D00C0929C0051C08091A000806880939C
:100C1000A0008091A0008F7B8093A000D092A900BB
:100C2000C092A80042C08091A00080628093A00082
:100C3000D092AB00C092AA0038C08091A00088601A
:100C40008093A000D092AD00C092AC002EC08091E5
:100C50002001806880932001D0922901C092280150
:100C600024C080912001806280932001D0922B01CA
:100C7000C0922A011AC080912001886080932001CF
:100C8000D0922D01C0922C0110C00038110514F42F
:100C900060E001C061E08C2FDF91CF911F910F9137
:100CA000FF90EF90DF90CF9016CDDF91CF911F9105
:100CB0000F91FF90EF90DF90CF900895EF92FF9209
:100CC0000F931F93CF93DF93EC018B016817790784
:100CD00009F486C0DB0114962D913C9115978A8109
:100CE0009B818217930718F5E880F9803B832A835C
:100CF000C901880F991F0E94C622888399834C815D
:100D00005D81D701FC0120E030E02417350761F058
:100D1000309729F08D919C911197918380832F5F5B
:100D20003F4F12963296F1CFC7010E945B238C8110
:100D30009D81F801448155818417950708F4AC0121
:100D400080E090E08417950791F09C01220F331FFB
:100D5000D801ED91FC91E20FF31F60817181E88170
:100D6000F981E20FF31F718360830196EBCF8C81D1
:100D70009D81F801248135818217930768F0D8019D
:100D800014968D919C9115972C813D818217930724
:100D900038F59D838C8324C09C01220F331FD8011A
:100DA00014964D915C9115978417950740F7F801BB
:100DB000A081B181A20FB31FE881F981E20FF31F77
:100DC000309721F04D915C91518340834C815D813E
:100DD0004F5F5F4F5D834C8301962E5F3F4FDFCFA8
:100DE000CE01DF91CF911F910F91FF90EF90089569
:100DF000EF92FF920F931F93CF93DF9300D01F9238
:100E0000CDB7DEB78C01FC0175836483CB010896F6
:100E1000938382837C01EE0CFF1CC70149835A83B4
:100E20006B837C830E94C622F801808391839701A3
:100E30002051310949815A81240F351FDA01FC0103
:100E4000A217B30741F08D919D91309711F09183D6
:100E500080833296F5CF0F900F900F900F90DF9117
:100E6000CF911F910F91FF90EF9008954F925F9255
:100E70006F927F928F929F92AF92BF92CF92DF92AA
:100E8000EF92FF920F931F93CF93DF93CDB7DEB70F
:100E90002E970FB6F894DEBF0FBECDBF8C017B013D
:100EA0006A015901798768875B874A873D872C8764
:100EB000AE01485F5F4F63E070E09E01225F3F4FED
:100EC000CE01019695DFBE016F5F7F4FC80104968A
:100ED000F5DECE010196D1D720E030E040E050E0D1
:100EE00080E090E0B701772726015524D501BB2784
:100EF0006A2C7C2C9E2CF801E280F3808E159F05D5
:100F00000CF050C0F801E584F6848E159F0508F0BA
:100F100043C0E288E11004C0862CD72CC92C19C02C
:100F2000F12C6E9D60016F9DD00C7E9DD00C112424
:100F3000CD2C4E9C50014F9CB00C5E9CB00C1124EB
:100F4000DB2CAE9D5001AF9DB00CBE9DB00C1124AA
:100F50008B2CF801B08CA588E388F488BA1003C004
:100F6000E40EF51E06C0E20EF31EF701EB0DF11DB7
:100F70001082F801B588F701EB0DF11DC082F80170
:100F8000C6885701AC0CB11CF501D082F801D78896
:100F9000ED0CF11CF701808201964D5F5F4F2C5FD5
:100FA0003F4FA9CFC8010B9623893489232B09F021
:100FB00080D62E960FB6F894DEBF0FBECDBFDF9160
:100FC000CF911F910F91FF90EF90DF90CF90BF9046
:100FD000AF909F908F907F906F905F904F9008950B
:100FE000AF92BF92CF92DF92EF92FF920F931F9337
:100FF000CF93DF93CDB7DEB765970FB6F894DEBF1A
:101000000FBECDBF8C01FC01E080F180A280B380D7
:101010001A8218861F86188A198A1A8A81E08E8792
:101020008B871C8692E09D8789836501CC0CDD1C33
:10103000CA0CDB1CDE82CD82C6010E94C6229A87C2
:101040008987009741F0A60160E070E00E94E424E7
:10105000BC82AB8204C01E821D821C821B82EF8276
:101060008A81882331F061E08E2D64DB60E08E2D73
:1010700032DBC7019927FC01E05AFE4FE491F0E012
:10108000EE0FFF1FEE5CFD4F259134913C8B2B8BB7
:10109000FC01EA55FE4F84918D8B85E1FE0131966E
:1010A000D8011B9601900D928A95E1F7CE01019629
:1010B000C1D67801FBE0EF0EF11CF801818987FDB4
:1010C00006C061E037DB60E0F801818904DB81E084
:1010D000F801848783899489892B11F0C701E9D5A8
:1010E00065960FB6F894DEBF0FBECDBFDF91CF91EE
:1010F0001F910F91FF90EF90DF90CF90BF90AF9036
:1011000008956F927F928F929F92AF92BF92CF92EB
:10111000DF92EF92FF920F931F93CF93DF93EC0137
:1011200086E0869F5001879FB00C1124AC0EBD1E37
:10113000FE01EA15FB05B8F482819381892B09F43D
:1011400053C03696F6CFE0914303F09144030680F6
:10115000F781E02D83E493E0199597FD0EC0FE0121
:10116000EA15FB0548F17FDB60934B0370934C035A
:1011700080934D0390934E03E6CF75DB00914B03B4
:1011800010914C0320914D0330914E03DC01CB01B3
:10119000801B910BA20BB30B0091470310914803E6
:1011A0002091490330914A0380179107A207B307A2
:1011B00050F28FEF9FEF5DC0608171814481558156
:1011C000DB01A40FB51F2C91022E000C330B8217EC
:1011D0009307C1F44F5F5F4F55834483228133816E
:1011E0004217530709F043C0EC1BFD0BF595E7953B
:1011F0002BEA3AEAE29FC001E39F900DF29F900D27
:10120000112437C04115510591F1E480F580970113
:101210002150310935832483DB01A20FB31FAC9128
:101220000A2E000CBB0B8A179B07F9F42115310518
:10123000C9F06B018A01021B130B060F171F612CEB
:10124000712CD6018D906D01D8019D908D01891072
:1012500006C0BFEF6B1A7B0A6216730690F3621624
:10126000730699F6F582E48202C0232B71F6369656
:1012700077CFDF91CF911F910F91FF90EF90DF908B
:10128000CF90BF90AF909F908F907F906F90089578
:101290000F931F93E8DA60934B0370934C03809392
:1012A0004D0390934E03E0914303F0914403008477
:1012B000F185E02D83E493E0199597FF1EC0D3DA02
:1012C00000914B0310914C0320914D0330914E033C
:1012D000DC01CB01801B910BA20BB30B00914703E8
:1012E000109148032091490330914A0380179107D8
:1012F000A207B307C0F28FEF9FEF1F910F910895E0
:10130000FC01A089B18982E08C93A485B5851C92EB
:10131000A685B78580E18C93108EA489B58986E077
:101320008C93A289B3898C9180618C93A289B389B3
:101330008C9188608C93A289B3898C9180688C93FE
:101340000288F389E02D80818F7D80830895CF927C
:10135000DF92EF92FF920F931F93CF93DF93009151
:10136000EA041091EB04E80121960C171D0708F020
:1013700057C07C018091E8049091E9048C179D0787
:10138000A0F59801275F3F4F8217930770F5C09033
:10139000E604D090E7043093E9042093E804C901FF
:1013A000880F991F0E94C6229093E7048093E60459
:1013B000D60140E050E040175107A1F0E091E6046B
:1013C000F091E7049A01220F331FE20FF31F3097C9
:1013D00029F08D919C911197918380834F5F5F4F8E
:1013E0001296E9CFC6010E945B238091EA04909196
:1013F000EB049C01220F331F8C179D07A0F4E09192
:10140000E604F091E704E20FF31F309729F0D701CB
:101410004D915C915183408301962E5F3F4FECCFFD
:10142000C017D10720F4D093EB04C093EA04DF91F6
:10143000CF911F910F91FF90EF90DF90CF90089583
:101440000F931F93CF93DF936091E3047091E404B3
:10145000EB0121966C177D0758F58C018091E10412
:101460009091E2048C179D0740F4675F7F4F8617C9
:10147000970718F48FED94E08EDA2091E304309111
:10148000E404C901880F991F2C173D07A0F4E091CF
:10149000DF04F091E004E80FF91F309729F0D8013C
:1014A0004D915C91518340832F5F3F4F0296ECCF6B
:1014B000C617D70720F4D093E404C093E304DF9168
:1014C000CF911F910F9108950F931F93CF93DF93A7
:1014D0006091DC047091DD04EB0121966C177D07AF
:1014E00058F58C018091DA049091DB048C179D07EC
:1014F00040F4675F7F4F8617970718F488ED94E0F4
:101500007BDA2091DC043091DD04C901880F991F3A
:101510002C173D07A0F4E091D804F091D904E80F0E
:10152000F91F309729F0D8014D915C915183408388
:101530002F5F3F4F0296ECCFC617D70720F4D0930A
:10154000DD04C093DC04DF91CF911F910F910895CA
:101550000F931F93CF93DF936091460570914705DA
:10156000EB0121966C177D0788F58C01809144056D
:10157000909145058C179D0740F4675F7F4F861754
:10158000970718F482E495E0A9D22091460530919E
:101590004705C901880F991F880F991F2C173D0710
:1015A000C0F4E0914205F0914305E80FF91F309730
:1015B00049F0D8014D915D916D917C9140835183AB
:1015C000628373832F5F3F4F0496E8CFC617D70718
:1015D00020F4D0934705C0934605DF91CF911F912A
:1015E0000F910895CF92DF92EF92FF920F931F9386
:1015F000CF93DF93CDB7DEB72C970FB6F894DEBF4D
:101600000FBECDBF7C016B016FEB72E080EE93E00B
:101610000E94511566EC72E083E493E00E9451153C
:1016200068EC70E080E090E0E6D86DEC72E080EE6F
:1016300093E00E9451158E010F5F1F4F8CE0F8015F
:1016400011928A95E9F784ED92E09A83898381E08B
:1016500090E09C838B8326ED32E038872F839A8736
:10166000898762E070E0C8014CDD892B09F076C003
:1016700066EC72E083E493E00E94511568EC70E040
:1016800080E090E0B8D868ED72E083E493E00E94D7
:10169000511568EC70E080E090E0ADD864EE72E047
:1016A000C8010E94B914F70144815581608171819C
:1016B000C8010E943414811103C0C8010E94611442
:1016C0006FEE72E0C8010E9473147C01F601448140
:1016D0005581608171810E943414811103C0C7015A
:1016E0000E94611461EF72E0C7010E94731463EFFE
:1016F00072E00E947314FC01448155816081718104
:1017000083E493E02FD46EE272E083E493E00E94DE
:101710006315C8010E94B4146AEF70E080E090E0A5
:101720006AD868EF72E083E493E00E94511568EC98
:1017300070E080E090E05FD864E073E083E493E0E1
:101740000E94511568EC70E080E090E054D867E1A9
:1017500073E080EE93E00E9451150EC06EE173E0DD
:1017600080EE93E00E94511568EC70E080E090E01C
:1017700042D881E08093CB0463E273E080EE93E093
:101780000E9451152C960FB6F894DEBF0FBECDBF48
:10179000DF91CF911F910F91FF90EF90DF90CF904D
:1017A0000895EF92FF920F931F93CF93DF930091D1
:1017B000420510914305C0914605D0914705CC0FD5
:1017C000DD1FCC0FDD1FC00FD11F0C171D0761F1EE
:1017D000F801208131813327F901E451FE4F8491D2
:1017E000F901EA55FE4FE490F901E05AFE4FF490FA
:1017F000FF2091F081110E941503EF2DF0E0EE0F14
:10180000FF1FEA5BFE4FA591B491EC91EE2191E0B0
:1018100080E021F490E002C090E080E0F801928343
:1018200083830C5F1F4FD1CFE0914205F0914305B8
:1018300082819381892B99F086819781892B91F000
:1018400082859385892B89F086859785892B81F000
:1018500082899389892B79F080E090E00EC081E045
:1018600090E00BC082E090E008C083E090E005C00B
:1018700084E090E002C085E090E0DF91CF911F917D
:101880000F91FF90EF900895FF920F931F93CF93C6
:10189000DF9300D01F92CDB7DEB7FADCFC0197FDD5
:1018A00011C08D32910591F0C0970A9778F0E091C0
:1018B0004303F09144030680F781E02D83E493E035
:1018C0001995EBCF60E070E0CB014BC020E030E039
:1018D000A901F12CE130F105F1F0ED32F105C9F08B
:1018E000CF01C0970A97B8F4AAE0B0E00E9496250D
:1018F0008F01FF0F220B330BDC01CB01800F911FF7
:10190000A21FB31F9C01AD012053310941095109A8
:1019100002C0FF24F394E0914303F0914403068056
:10192000F781E02D83E493E029833A834B835C8342
:101930001995AEDCFC01C09729813A814B815C810D
:101940000A9740F2E130F10529F2FF2041F06627C5
:101950007727CB01621B730B840B950B02C0CA0166
:10196000B9010F900F900F900F90DF91CF911F91C1
:101970000F91FF900895CF93DF9300D000D0CDB7A3
:10198000DEB7DC01FC0101900020E9F73197AF01DF
:10199000481B590BCE01019626E0FC0111922A95B5
:1019A000E9F7BA83A9835C834B8361E070E0A9DB2C
:1019B00021E0892B09F020E0822F26960FB6F894BB
:1019C000DEBF0FBECDBFDF91CF9108958F929F9262
:1019D000AF92BF92CF92DF92EF92FF920F931F933D
:1019E000CF93DF93CDB7DEB7A1970FB6F894DEBFE4
:1019F0000FBECDBF6C01990FEE08FF08F7FE33C094
:101A0000E091E003F091E1030190F081E02D6DE2BF
:101A100080EE93E019958C0122273327A9012C1918
:101A20003D094E095F0919A2CE0181967C019AE019
:101A3000892E912CA12CB12CCA01B901A5019401C8
:101A40000E947425605DF70162937F0121153105C5
:101A50004105510589F7BF0180EE93E00E946315AF
:101A6000080F191F20C0A701960119A28E010F5D52
:101A70001F4F8AE0C82ED12CE12CF12CCA01B901EC
:101A8000A70196010E947425605DF80162938F01A1
:101A9000211531054105510589F7BF0180EE93E01D
:101AA0000E9463158C016EE272E080EE93E00E946A
:101AB0006315800F911FA1960FB6F894DEBF0FBE7D
:101AC000CDBFDF91CF911F910F91FF90EF90DF90ED
:101AD000CF90BF90AF909F908F9008950F931F93DA
:101AE000CF93DF93EC01088119817B836A83CB015B
:101AF000880F991F880F991F0E94C6228883998397
:101B0000FC01D80120E030E08C819D812817390745
:101B100080F4309749F04D915D916D917C911397D0
:101B200040835183628373832F5F3F4F34961496B3
:101B3000EBCFC801DF91CF911F910F910C945B23E4
:101B4000CF92DF92EF92FF920F931F93CF93DF9389
:101B50007C018B01DB011496CD91DC911597FC0182
:101B6000D583C483CE01089693838283880F991FFF
:101B7000880F991F0E94C622D7018D939C93FC0168
:101B800040E050E04C175D07B9F0D8016D917C91B1
:101B90009F01281B390BDB01A20FB31F309741F0C7
:101BA000CD90DD90ED90FC90C082D182E282F382F4
:101BB0004F5F5F4F3496E6CFDF91CF911F910F912A
:101BC000FF90EF90DF90CF900895AF92BF92CF92A9
:101BD000DF92EF92FF920F931F93CF93DF93EC016D
:101BE000EC80FD8087010F5F1F4FE016F10608F0C3
:101BF00050C06B018A819B818017910768F597011E
:101C0000275F3F4F8217930738F5A880B9803B8341
:101C10002A83C901880F991F880F991F0E94C62225
:101C200088839983D501FC0120E030E02E153F0523
:101C300081F0309749F04D915D916D917C911397B2
:101C400040835183628373832F5F3F4F1496349692
:101C5000EDCFC5010E945B238C819D819C01220FE9
:101C6000331F220F331F80179107B0F4E881F981E9
:101C7000E20FF31F309749F0D6014D915D916D91C0
:101C80007C91408351836283738301962C5F3F4F25
:101C9000EACF0E151F0510F41D830C83DF91CF9141
:101CA0001F910F91FF90EF90DF90CF90BF90AF907A
:101CB0000895CF92DF92EF92FF920F931F93CF93ED
:101CC000DF93CDB7DEB729970FB6F894DEBF0FBE0E
:101CD000CDBF8C010E94D603D8011E96CD90DD9019
:101CE000ED90FC905197DC01CB018C199D09AE0958
:101CF000BF09C297A105B10568F3F894F801848182
:101D000095819A8389830084F185E02D7F018FEF8F
:101D1000E81AF80A80818B83D8019C915296ED9144
:101D2000FC91539754968C91992309F430C090817B
:101D3000982B9C839081809589238D838D818E83C0
:101D400088E08F835C816D814B813F812E81898109
:101D50009A81D701508347FD252F3A952083262F5E
:101D600039F0441F00C000006083000000C0F2CFC3
:101D700038E04D9160830000019761F7D8015396D8
:101D8000FC93EE9352974B833F832E833AC090810E
:101D9000982B9C839081809589238D838D81888762
:101DA00088E089875C816D814B81398528858981AF
:101DB0009A81D701508347FD252F00C000C02083A2
:101DC00000C000C000C000C000C060830000262F1B
:101DD0003A9541F0441F000000C000C000C000C0A0
:101DE00000C0E8CF38E04D9100C0608300C001978B
:101DF00009F7D8015396FC93EE9352974B8339879A
:101E000028879A83898378940E94D603F80166878D
:101E10007787808B918B29960FB6F894DEBF0FBE23
:101E2000CDBFDF91CF911F910F91FF90EF90DF9089
:101E3000CF900895CF93DF93EC0188859985009723
:101E400011F00E945B238E8187FD05C060E0DF9169
:101E5000CF910C949A03DF91CF9108951F920F9226
:101E60000FB60F9211240F900FBE0F901F90189570
:101E7000FC01808191810C945B23FC018081918124
:101E80000C945B23AF92BF92CF92DF92EF92FF92BE
:101E90000F931F93CF93DF93CDB7DEB72E970FB677
:101EA000F894DEBF0FBECDBF8C015B016A01FC015F
:101EB00080A191A19987888782A193A19B878A8716
:101EC00084A195A19D878C87AE01485F5F4F63E039
:101ED00070E07801F4E0EF0EF11C9E012F5F3F4FA0
:101EE000C7010E94F80691E0F801938714861686D0
:101EF0001586108A17868FEF818B128A148A138AAF
:101F0000958B168A82E0878B908F118E128E138E9E
:101F1000148EB182A082D382C28247E052E063E095
:101F200070E09E01225F3F4FCE0101960E94F806AD
:101F3000BE016F5F7F4FC7010E945E06CE01019612
:101F40009CDF2E960FB6F894DEBF0FBECDBFDF919B
:101F5000CF911F910F91FF90EF90DF90CF90BF90A6
:101F6000AF900895CF92DF92EF92FF920F931F935D
:101F7000CF93DF936C017A018B01C0E0D0E0CE15E6
:101F8000DF0589F0D8016D918D01D601ED91FC91AD
:101F90000190F081E02DC6011995892B11F47E0185
:101FA00002C02196ECCFC701DF91CF911F910F9115
:101FB000FF90EF90DF90CF9008950F931F93CF93F2
:101FC000DF93EC0188819981009729F02A813B8178
:101FD0002617370788F48B016F5F7F4F0E94F3232A
:101FE000009761F0998388831B830A832C813D814C
:101FF000232B11F4FC01108281E001C080E0DF910D
:10200000CF911F910F9108959091000298133DC0B8
:10201000ECE4F2E0E4919FEF90930002E230C9F02B
:1020200050F4EE2399F0E13081F590916F009D7F9F
:1020300090936F002AC0E43019F1E0F0E53029F503
:10204000909173009D7F909373001FC010926E005B
:102050001CC0909170009D7F9093700091E09093D0
:10206000B0009091B100987F94609093B10010926D
:10207000B3000BC0909171009D7F9093710005C0DB
:10208000909172009D7F9093720060E00C946B03BE
:102090000F931F93CF93DF93EC018C819D81892B4C
:1020A00031F48C819D81892B09F44EC027C068E5ED
:1020B00072E0888199810E94EB24892B91F700E0DE
:1020C00010E08091E3049091E4040817190748F7A1
:1020D000E091DF04F091E0049801220F331FE20F3A
:1020E000F31F80819181FC012081318121303105F4
:1020F00011F40E9489040F5F1F4FE3CF69EA72E079
:10210000888199810E94EB24892BF1F4C0E0D0E012
:102110008091E3049091E404C817D907A8F4E091F2
:10212000DF04F091E004CE01880F991FE80FF91F3A
:1021300080819181FC01208131812330310511F4AE
:102140000E9489042196E4CFDF91CF911F910F91D6
:1021500008952F923F924F925F926F927F928F924B
:102160009F92AF92BF92CF92DF92EF92FF920F9326
:102170001F93CF93DF93CDB7DEB727970FB6F894B1
:10218000DEBF0FBECDBF9E838D8300E010E0212C0B
:10219000312C88248A94982C540198E4492E98EE86
:1021A000592E66246394712CAD81BE8114968D9155
:1021B0009C9115972816390608F03DC3AD81BE8164
:1021C000ED91FC919F01200F311FD9018D919D91BF
:1021D0000D90BC91A02D89839A83AB83BC8320E0B2
:1021E00030E040E251E4BC01CD010E94C222181649
:1021F0000CF0B6C220E030E44CE956E469817A8103
:102200008B819C810E94FB2487FFAAC2E090F50489
:10221000F090F604809100028E1105C0ECE4F2E02B
:10222000F491FF8307C18F3F09F090C2E092000252
:10223000ECE4F2E084918F3F09F488C2823009F423
:1022400080C074F5882309F45BC0813009F0F1C0C7
:1022500010928000109281008091810088608093AC
:10226000810080918100816080938100C70199275E
:10227000FC01E05AFE4FE491F0E0EE0FFF1FEE5C30
:10228000FD4F259134913093300620932F06FC01A9
:10229000EA55FE4FE491E0932E06F1E0FF83CDC0B6
:1022A000843009F49EC00CF474C0853009F0C1C0BC
:1022B0001092200110922101809121018860809369
:1022C000210180912101816080932101C70199271B
:1022D000FC01E05AFE4FE491F0E0EE0FFF1FEE5CD0
:1022E000FD4F259134913093240620932306FC0161
:1022F000EA55FE4FE491E0932206B5E0BF839DC00E
:1023000014BC15BC84B5826084BD85B5816085BD73
:10231000C7019927FC01E05AFE4FE491F0E0EE0F6F
:10232000FF1FEE5CFD4F25913491309333062093CF
:102330003206FC01EA55FE4FE491E09331061F821C
:102340007CC01092B0001092B1008091B000826009
:102350008093B0008091B10081608093B100C7018B
:102360009927FC01E05AFE4FE491F0E0EE0FFF1FC9
:10237000EE5CFD4F2591349130932D0620932C0671
:10238000FC01EA55FE4FE491E0932B0682E08F8337
:1023900054C010929000109291008091910088603A
:1023A0008093910080919100816080939100C7019A
:1023B0009927FC01E05AFE4FE491F0E0EE0FFF1F79
:1023C000EE5CFD4F2591349130932A062093290627
:1023D000FC01EA55FE4FE491E093280693E09F83C9
:1023E0002CC01092A0001092A1008091A1008860E2
:1023F0008093A1008091A10081608093A100C7011A
:102400009927FC01E05AFE4FE491F0E0EE0FFF1F28
:10241000EE5CFD4F259134913093270620932606DC
:10242000FC01EA55FE4FE491E0932506A4E0AF835A
:1024300004C08F83EF81E7FD89C169817A818B8137
:102440009C810E94962269837A838B839C8361E0BE
:102450008E2D0E949A0389819A816C01E12CF12CC6
:102460008F818D7F09F0ACC060E072E18AE790E077
:10247000A70196010E94F42129833A834B835C8350
:10248000BA01A90141505109610971094F3F510534
:102490006105710509F008F445C060E472E48FE05D
:1024A00090E0A70196010E94F421BA01A9014150D0
:1024B0005109610971099F819230E9F44F3F51053B
:1024C0006105710509F008F4B4C160E970ED83E0BD
:1024D00090E0A70196010E94F421BA01A9014150A0
:1024E0005109610971094F3F51056105710509F0F5
:1024F000B8F583E05EC04F3F510561057105A1F05D
:1025000098F0C301B201A70196010E94F421BA011B
:10251000A9014150510961097109AF81AA2309F448
:1025200034C17FC181E001C082E0EF81EE2399F0E8
:1025300040C089819A81AB81BC812AE0B595A7957D
:10254000979587952A95D1F7AC01BD014150510966
:102550006109710985E095B5987F892B85BD90C08B
:10256000C301B201A70196010E94F421BA01A90199
:1025700041505109610971094F3F510561057105CC
:1025800009F008F400C164E274EF80E090E0A70174
:1025900096010E94F421BA01A90141505109610933
:1025A00071094F3F51056105710511F008F00CC12B
:1025B00085E09091B100987F892B8093B1004DC048
:1025C00060E072E18AE790E0A70196010E94F421A1
:1025D000BA01A9014150510961097109411551051B
:1025E000F1E06F07710570F0C301B201A701960118
:1025F0000E94F421BA01A9014150510961097109F0
:1026000023E001C021E08F81813039F48091810085
:10261000887F822B8093810042C09F81933039F460
:1026200080919100887F822B809391005AC0AF8166
:10263000A43039F48091A100887F822B8093A1007F
:1026400062C0BF81B53049F480912101982F987FF5
:10265000822F892B8093210168C0EF81E23089F1BC
:1026600034F4EE2369F0E13009F070C018C0FF8146
:10267000F43009F448C0ACF1F53009F456C066C036
:1026800047BD8092480690924906A0924A06B092B1
:102690004B0680916E00826080936E0057C050930D
:1026A0008900409388008092440690924506A0924B
:1026B0004606B092470680916F00826080936F005B
:1026C00045C04093B3008092400690924106A0928C
:1026D0004206B09243068091700082608093700041
:1026E00035C0509399004093980080923C06909298
:1026F0003D06A0923E06B0923F0680917100826036
:102700008093710023C05093A9004093A800809249
:10271000380690923906A0923A06B0923B06809114
:10272000720082608093720011C05093290140931F
:1027300028018092340690923506A0923606B09217
:102740003706809173008260809373006091F70474
:102750007091F804072E000C880B990B0E94FB0364
:102760008091F50451DC6091F9047091FA04072E10
:10277000000C880B990B0E94FB038FEF281A380A74
:102780000C5F1F4F11CD84E014CF4F3F5105610501
:102790007105C1F0B8F062E17AE780E090E0A7014E
:1027A00096010E94F421BA01A90141505109610921
:1027B00071094F3F51056105710511F008F0B9CE5F
:1027C00084E0C9CE83E0C7CE62E17AE780E090E0A2
:1027D000A70196010E94F421BA01A90141505109B3
:1027E000610971094F3F510561057105C1F0B8F0EC
:1027F00089819A81AB81BC813AE0B595A79597957F
:1028000087953A95D1F7AC01BD0141505109610955
:102810007109BF81BB2309F49DCE87E0CACE86E053
:1028200084CE4F3F51056105710509F068F684E0DB
:102830007CCE82E0BECE27960FB6F894DEBF0FBEE8
:10284000CDBFDF91CF911F910F91FF90EF90DF905F
:10285000CF90BF90AF909F908F907F906F905F9040
:102860004F903F902F900895EF92FF920F931F93F8
:10287000CF93DF93FC01248135816115710511F43B
:1028800080E018C041155105A1F07B01EC018A01DF
:10289000020F131FB80191DB882391F3288139813E
:1028A0008C819D81B701820F931F0E94F4241D83A8
:1028B0000C8381E0DF91CF911F910F91FF90EF90FA
:1028C0000895CF93DF93EC0188819981009711F0EF
:1028D0000E945B23198218821D821C821B821A822D
:1028E000DF91CF910895CF93DF93EC0161157105CE
:1028F00059F0FB0101900020E9F73197AF01461B29
:10290000570BB2DF811102C0CE01DBDFCE01DF91B8
:10291000CF910895EF92FF920F931F93CF93DF9380
:102920008C017B016115710561F0FB0101900020B4
:10293000E9F73197EF01C61BD70BBE013EDB8111D2
:1029400003C0C801BEDF08C0F801D583C483B70146
:10295000808191810E94F424C801DF91CF911F9161
:102960000F91FF90EF900895FC01808191810C946C
:102970005B23EF92FF920F931F93CF93DF93EC01B2
:10298000198218821B821A821D821C8261157105B0
:1029900011F18B01FB0101900020E9F731977F01D4
:1029A000E61AF70AB70109DB811108C0CE01DF91F1
:1029B000CF911F910F91FF90EF9083CFFD82EC821A
:1029C000B80188819981DF91CF911F910F91FF907C
:1029D000EF900C94F424DF91CF911F910F91FF9011
:1029E000EF9008951F920F920FB60F9211240BB61D
:1029F0000F922F933F934F935F936F937F938F9398
:102A00009F93AF93BF93EF93FF9380914006909174
:102A10004106A0914206B0914306892B8A2B8B2B4D
:102A200051F180912B06E0912C06F0912D069081BA
:102A3000892780838091400690914106A0914206AB
:102A4000B0914306181619061A061B06BCF48091AD
:102A5000400690914106A0914206B091430601972D
:102A6000A109B1098093400690934106A0934206C4
:102A7000B093430603C080910002C6DAFF91EF9144
:102A8000BF91AF919F918F917F916F915F914F9186
:102A90003F912F910F900BBE0F900FBE0F901F9084
:102AA00018950F931F93CF93DF93EC010CD08C01FB
:102AB0006EE272E0CE0107D0800F911FDF91CF91BF
:102AC0001F910F9108956115710579F0FB01019037
:102AD0000020E9F73197AF01461B570BDC01ED9160
:102AE000FC910280F381E02D199480E090E008953C
:102AF000CF93DF93CDB7DEB7E9970FB6F894DEBF7B
:102B00000FBECDBF789484B5826084BD84B58160EA
:102B100084BD85B5826085BD85B5816085BD8091A8
:102B20006E00816080936E00109281008091810020
:102B30008260809381008091810081608093810018
:102B4000809180008160809380008091B1008460DA
:102B50008093B1008091B00081608093B00080913B
:102B600091008260809391008091910081608093B8
:102B70009100809190008160809390008091A100ED
:102B800082608093A1008091A10081608093A10068
:102B90008091A00081608093A000809121018260DB
:102BA0008093210180912101816080932101809196
:102BB000200181608093200180917A00846080935D
:102BC0007A0080917A00826080937A0080917A0006
:102BD000816080937A0080917A00806880937A0087
:102BE0001092C1001092C1041092C2041092C3044A
:102BF0001092C40410927F041092800410928104F9
:102C00001092820460ED77E080E090E00E94FB0388
:102C100080EE93E09093C0048093BF040E948009EB
:102C20000E94330460937F04709380048093810436
:102C3000909382046FE172E08091BF049091C00490
:102C400042DF6AE070E080E090E00E94FB0381E0F8
:102C50008093930483E493E00E94800961E372E02F
:102C6000CE01019686DE6BE372E0CE01089681DE2E
:102C7000BE016F5F7F4FCE0108960E94F20ACE011F
:102C8000089672DECE0101966FDE87E196E00E9423
:102C900038058CE096E00E94380583E895E00E94B4
:102CA000F0078DE595E00E94F00780915105909125
:102CB0005205A0915305B09154058A8F9B8FAC8F1C
:102CC000BD8FCE014A960E94A80A80915505909129
:102CD0005605A0915705B09158058E8B9F8BA88FF4
:102CE000B98FCE0146960E94A80A80914D05909119
:102CF0004E05A0914F05B09150058A8B9B8BAC8BF4
:102D0000BD8BCE0142960E94A80A809159059091F0
:102D10005A05A0915B05B0915C058E879F87A88BB3
:102D2000B98BCE010E960E94A80A80914905909118
:102D30004A05A0914B05B0914C0588879987AA87D1
:102D4000BB87CE0108960E94A80A87E196E09FAB58
:102D50008EABCE01C6960E94640A8CE096E09DABD5
:102D60008CABCE01C4960E94640A81E096E09BABD6
:102D70008AABCE01C2960E94200A86EF95E099ABFD
:102D800088ABCE01C0960E94200A8BEE95E09FA7EB
:102D90008EA7CE018E960E94200A80EE95E09DA718
:102DA0008CA7CE018C960E94200A85ED95E09BA70A
:102DB0008AA7CE018A960E94200A8AEC95E099A7FC
:102DC00088A7CE0188960E94200A8FEB95E09FA3EA
:102DD0008EA3CE0186960E94200A84EB95E09DA3E7
:102DE0008CA3CE0184960E94200A89EA95E09BA3D9
:102DF0008AA3CE0182960E94200A83E895E099A3D7
:102E000088A3CE0180960E94A7098DE595E09F8F4B
:102E10008E8FCE014E960E94A70980E495E0909394
:102E2000EE048093ED0420E030E040E050E060E00C
:102E300070E083E895E00E94360720E030E040E053
:102E400050E060E070E08DE595E00E94360780EE8E
:102E500093E00E94800967E0462E512C78E0E72E2F
:102E6000F12CE6E0CE2ED12CF5E0AF2EB12C0E9455
:102E7000D10B83309105D1F06CF42091F1043091A5
:102E8000F2048130910561F0029709F023C62150C8
:102E9000310908C08430910549F00597A9F01AC698
:102EA0002F5F3F4F3093F2042093F10462E075E00E
:102EB000CE0101960E94A00DCE0101964AD9CE0105
:102EC00001960E94380F06C669E075E0CE010196B2
:102ED0000E94A00DCE0101963CD9CE0101960E9420
:102EE000380F6EE472E080EE93E0EDDD8091EF0448
:102EF0009091F0040E94E60C8091EF049091F00410
:102F00008130910509F460C1FCF4892B09F0DEC51C
:102F100021E330E04AEF50E061E070E083E895E0C3
:102F20000E94360721E330E04AEF50E061E070E0B4
:102F30008DE595E00E9436076AEF70E080E090E052
:102F40000E94FB0311E056C08230910509F4BDC216
:102F5000039709F0BBC52FEF30E04AE050E06FEF78
:102F600070E083E895E00E9436072FEF30E04AE0FA
:102F700050E06FEF70E08DE595E00E94360711E0BC
:102F800084E0282E312C2FC4E091DF04F091E0047E
:102F9000D901AA0FBB1FAE0FBF1F0D90BC91A02D72
:102FA0008D919C911197019799F1A081B1811A9609
:102FB0008C91811107C0A281B3811A968C918823CC
:102FC00009F438C662E370E080E090E029AF38AFE2
:102FD0000E94FB0329AD38AD2F5F3F4F8091E30482
:102FE0009091E4042817390778F20E94D10B0597D5
:102FF00009F47BC368E572E0CE010196BADCCE012C
:10300000019646D8CE010196AFDC20E030E0E6CF55
:1030100018968D919C911997009791F51A968C911D
:10302000882309F4C2CFE091D804F091D9048081BB
:103030009181FC0112870E942D05E091D804F09146
:10304000D90460E0828193810E944705E091D80411
:10305000F091D90440E050E068E473E48281938108
:103060000E94590564E170E080E090E00E94FB035B
:10307000E091D804F091D90440E050E0BA01C7C50E
:103080008130910509F041C01A968C91882309F48A
:103090008CCFE091D804F091D90480819181FC011A
:1030A00012870E942D05E091D804F091D904828105
:1030B0009381FC0112870E942D05E091D804F091C4
:1030C000D90440E050E0BA01828193810E94590501
:1030D000E091D804F091D90440E050E068E473E452
:1030E000808191810E94590564E170E080E090E068
:1030F0000E94FB03E091D804F091D90440E050E035
:1031000068EC72E48081918190C582309105C9F4A8
:103110001A968C91882309F448CFE091D804F09155
:10312000D90480819181FC0112870E942D05E091D4
:10313000D804F091D90460E0828193810E94470510
:1031400040C58F3F4FEF9407B9F51A968C918823AD
:1031500009F42BCFE091D804F091D90480819181BA
:10316000FC0112870E942D05E091D804F091D9044A
:1031700082819381FC0112870E942D05E091D80481
:10318000F091D90440E050E0BA01808191810E9421
:103190005905E091D804F091D90440E050E068E48A
:1031A00073E4828193810E94590564E170E080E0BC
:1031B00090E00E94FB032FC5029609F0F6CE1A9606
:1031C0008C918111EBC4F1CE22E430E04DE150E06E
:1031D00068E870E083E895E00E94360722E430E07A
:1031E0004DE150E068E870E08DE595E00E9436071B
:1031F000E091D804F091D9048081918111E0FC0123
:1032000012870E942D05E091D804F091D9048281A3
:103210009381FC0112870E942D0500E010E09924A3
:1032200093946AEF70E080E090E00E94FB030E94BC
:10323000D10B8330910509F48FC03CF481309105A6
:1032400061F0029709F449C003C18430910509F483
:10325000B3C0059709F414C1FBC029E230E040E097
:1032600050E068E570E083E895E00E94360729E2C7
:1032700030E040E050E068E570E08DE595E00E94C8
:1032800036070130110509F4F9C061E672E080EEFD
:1032900093E019DCE091D804F091D9048081918108
:1032A000FC0192860E942D05E091D804F091D9048A
:1032B00082819381FC0192860E942D0565E070E079
:1032C00080E090E00E94FB03E091D804F091D904E3
:1032D00040E050E06AEF72E4C2C025E730E04FEF13
:1032E00050E06CE270E083E895E00E94360725E745
:1032F00030E04FEF50E06CE270E08DE595E00E9429
:1033000036070230110509F4B9C063E772E080EEB8
:1033100093E0D9DBE091D804F091D90480819181C8
:10332000FC0192860E942D05E091D804F091D90409
:1033300082819381FC0192860E942D0565E070E0F8
:1033400080E090E00E94FB03E091D804F091D90462
:1033500040E050E0BA016FC02CE130E049EF50E0AE
:1033600069E770E083E895E00E9436072CE130E0E1
:1033700049EF50E069E770E08DE595E00E9436077F
:103380000330110509F47AC065E872E080EE93E03D
:103390009ADBE091D804F091D90460E080819181BA
:1033A0000E944705E091D804F091D90460E0828141
:1033B00093810E94470531C024E130E043E550E0AD
:1033C00061E870E083E895E00E94360724E130E090
:1033D00043E550E061E870E08DE595E00E94360736
:1033E0000430110509F44AC067E972E080EE93E009
:1033F0006ADBE091D804F091D90480819181FC01CD
:1034000092860E942D05E091D804F091D904828122
:103410009381FC0192860E942D0565E070E080E0BA
:1034200090E00E94FB03E091D804F091D90440E0C1
:1034300050E06AEF72E4808191810E945905E09129
:10344000D804F091D90440E050E06AEF72E412C071
:10345000E091D804F091D90440E050E0BA018081B5
:1034600091810E945905E091D804F091D90440E07F
:1034700050E0BA01828193810E94590521E001C088
:1034800020E029AF0E94D10B8C0129AD2111C9CEBA
:10349000E091D804F091D90440E050E0BA01808175
:1034A00091810E945905E091D804F091D90440E03F
:1034B00050E0BA01828193810E9459056EEE72E05C
:1034C00080E090E00E94FB0301C32BE130E040E08C
:1034D00050E06EEF70E083E895E00E9436072BE144
:1034E00030E040E050E06EEF70E083E895E00E944D
:1034F0003607E091DF04F091E0042091E30430917D
:10350000E40480E090E000E010E08217930759F0B7
:10351000A191B1914D915C914330510511F00F5F34
:103520001F4F0196F2CF4801880C991C0F5F1F4F67
:10353000000F111F612C712C3324339469EA72E05F
:10354000CE01019616DACE0101960E944810CE01F6
:1035500001960ADAE091DF04F091E004DF01A80DA2
:10356000B91D0D90BC91A02D1A968C91A091D804F4
:10357000B091D904AF01400F511F882339F0FA01EF
:1035800020813181F9019285992399F0FA012081F6
:103590003181F901928591114FC0811150C0C30151
:1035A0000197029708F04BC0F2E06F16710409F41E
:1035B0006AC38D919C91FC0132860E942D05E09199
:1035C000D804F091D90482819381FC0132860E9453
:1035D0002D05E091D804F091D90440E050E0BA0103
:1035E000808191810E945905E091D804F091D9041D
:1035F00040E050E066E173E4828193810E945905C6
:103600006EE170E080E090E00E94FB03E091D8045E
:10361000F091D90440E050E060EA72E48281938145
:103620000E94590562E370E080E090E00E94FB0395
:1036300066246394712C51C0882309F424C3612C3F
:10364000712C8D919C91FC0132860E942D05E09198
:10365000D804F091D90482819381FC0132860E94C2
:103660002D05E091D804F091D90440E050E066E1E6
:1036700073E4828193810E945905E091D804F0910E
:10368000D90440E050E066E173E4808191810E94BA
:1036900059056EE170E080E090E00E94FB03E0914C
:1036A000D804F091D90440E050E060EA72E48081EF
:1036B00091810E945905E091D804F091D90440E02D
:1036C00050E060EA72E4828193810E94590562E3CE
:1036D00070E080E090E00E94FB03C3010E94E60CD2
:1036E0000E94D10B059709F029CF68EC70E080E0CB
:1036F00090E00E94FB03E091D804F091D90440E0EF
:1037000050E0BA01808191810E945905E091D8046E
:10371000F091D90440E050E0BA01828193810E9487
:103720005905D4C183E493E00E949601892B09F0E6
:1037300060C0812C912C612C712C7092C604609217
:10374000C5049092C8048092C7041092CA041092D3
:10375000C9048114910409F072C06114710409F460
:10376000D5C2C3014F974D9708F4A7C0FDE36F166C
:1037700071040CF4EEC083E090E09093CA0480934F
:10378000C90465E070E080E090E00E94FB03E091F6
:10379000D804F091D90480819181FC0112870E94A4
:1037A0002D05E091D804F091D90482819381FC0128
:1037B00012870E942D05E091D804F091D90440E0D1
:1037C00050E068E473E4808191810E945905E091A2
:1037D000D804F091D90440E050E068EC72E48281B2
:1037E00093810E9459050E94D10B039709F09ACF4B
:1037F0006DC18EEA92E00E94BB0C882309F499CF38
:1038000060E372E0CE010196B4D883E493E00E94B5
:10381000740184EB92E00E94BB0C0E94440C4B01AB
:1038200088EB92E00E94BB0C0E94440CCB016AE042
:1038300070E0C7D53B01CE01019696D87ECF181413
:1038400019040CF08ECFC3014D96CB9708F089CFA9
:1038500081E090E09093CA048093C90465E070E031
:1038600080E090E00E94FB03E091D804F091D9043D
:1038700080819181FC0112870E942D05E091D8047E
:10388000F091D90482819381FC0112870E942D0559
:10389000E091D804F091D90440E050E060E773E48F
:1038A000828193810E945905E091D804F091D90456
:1038B00040E050E060E773E455C2181419040CF5B9
:1038C00082E090E09093CA048093C90465E070E0C0
:1038D00080E090E00E94FB03E091D804F091D904CD
:1038E00080819181FC0112870E942D05E091D8040E
:1038F000F091D90482819381FC0112870E942D05E9
:103900001FC08114910429F13092CA042092C90485
:1039100065E070E080E090E00E94FB03E091D80455
:10392000F091D90460E0808191810E944705E09187
:10393000D804F091D90460E0828193810E94470508
:10394000E091D804F091D90440E050E060E773E4DE
:103950007AC0C3014D96CB9738F597FE25C0B0923B
:10396000CA04A092C90465E070E080E090E00E9483
:10397000FB03E091D804F091D90460E0808191814B
:103980000E944705E091D804F091D90460E082815B
:1039900093810E944705E091D804F091D90440E05A
:1039A00050E060E773E485C0C301CB964D97F8F40F
:1039B00097FE56C0D092CA04C092C90465E070E078
:1039C00080E090E00E94FB03E091D804F091D904DC
:1039D00060E0808191810E944705E091D804F091D8
:1039E000D90460E0828193810E9447055AC0F4ECBB
:1039F0006F16FFEF7F060CF089C15092CA04409207
:103A0000C90465E070E080E090E00E94FB03E09173
:103A1000D804F091D90480819181FC0112870E9421
:103A20002D05E091D804F091D90482819381FC01A5
:103A300012870E942D05E091D804F091D90440E04E
:103A400050E068EC72E4808191810E945905E09118
:103A5000D804F091D90440E050E068E473E4BFCEAC
:103A6000892809F453C1F092CA04E092C90465E0C0
:103A700070E080E090E00E94FB03E091D804F091B8
:103A8000D90480819181FC0112870E942D05E0916B
:103A9000D804F091D90482819381FC0112870E949D
:103AA0002D05E091D804F091D90440E050E068E49D
:103AB00073E4808191810E945905E091D804F091CE
:103AC000D90440E050E060E773E489CE1092F2043C
:103AD0001092F1048091F1049091F20497FF03C0D9
:103AE0009195819591096091F3047091F40469D4E2
:103AF0009093F0048093EF04009779F42FEF30E077
:103B000040E850E060E070E083E895E00E9436070E
:103B10002FEF30E040E850E011C08130910589F48A
:103B20002FEF30E049E150E060E070E083E895E09D
:103B30000E9436072FEF30E049E150E060E070E08E
:103B400026C08230910589F422E330E040E050E065
:103B50006FEF70E083E895E00E94360722E330E0E3
:103B600040E050E06FEF70E012C00397A1F42EE93F
:103B700030E04CE650E06DEF70E083E895E00E94A5
:103B800036072EE930E04CE650E06DEF70E08DE551
:103B900095E00E9436070E943C0269C9E091D80472
:103BA000F091D90460E0808191810E944705E09105
:103BB000D804F091D90482819381FC0112870E947C
:103BC0002D05E091D804F091D90440E050E068E47C
:103BD00073E4808191810E945905E091D804F091AD
:103BE000D90440E050E068E473E4828193810E944C
:103BF000590564E170E080E090E00E94FB03E091F1
:103C0000D804F091D90440E050E068EC72E480817F
:103C100091810E945905E091D804F091D90440E0C7
:103C200050E068EC72E4828193810E94590524E19E
:103C300030E0C8C9A481B5811A968C918111C2C99E
:103C4000A681B7811A968C918111BCC9A085B185D6
:103C50001A968C918111B6C9A285B3851A968C915A
:103C60008111B0C90484F585E02D82858111AAC92E
:103C7000E091D804F091D90480819181FC011287F0
:103C80000E942D0594CF8D919C91FC0132860E945B
:103C90002D05E091D804F091D90440E050E066E1B0
:103CA00073E4808191810E9459056EE170E080E0AB
:103CB00090E00E94FB03E091D804F091D90440E029
:103CC00050E060EA72E4808191810E945905E091A0
:103CD000D804F091D90482819381FC0132860E943C
:103CE0002D05E091D804F091D90440E050E0BA01EC
:103CF000828193810E94590560E570E080E090E048
:103D00000E94FB0392E0692E712CE7CC65E070E025
:103D100080E090E00E94FB03E091D804F091D90488
:103D200080819181FC0112870E942D05E091D804C9
:103D3000F091D90482819381FC0112870E942D05A4
:103D4000E091D804F091D90440E050E0BA018281BA
:103D500093810E945905E091D804F091D90440E084
:103D600050E0BA01808191813CCDCF93DF9382ED09
:103D700094E00E94B4148CEC94E00E94B414C8ED5A
:103D8000D4E08E859F8597D48F81988594D488813F
:103D9000998191D489E095E00E94380F82E095E006
:103DA0000E94380F8BEF94E00E94380F80914205FB
:103DB0009091430580D488E695E00E941A0F81E631
:103DC00095E00E943D0F8EE895E00E941A0F87E86B
:103DD00095E0DF91CF910C943D0F8F929F92AF921F
:103DE000BF92CF92DF92EF92FF920F931F93CF93E8
:103DF000DF9300D01F92CDB7DEB7E3E4F3E0138288
:103E0000128248EE53E060E070E04483558366839D
:103E1000778381E192E09183808325ED30E03587DF
:103E2000248724ED30E03787268720ED30E0318B82
:103E3000208B21ED30E0338B228B22ED30E0358B6F
:103E4000248B26ED30E0378B268B118E128E138E4D
:103E5000148EE0EEF3E0138212824483558366836E
:103E600077839183808385EC90E09587848784ECC9
:103E700090E09787868780EC90E0918B808B81EC37
:103E800090E0938B828B82EC90E0958B848B86EC18
:103E900090E0978B868B118E128E138E148EEDE729
:103EA000F4E0168217821086118612861386148615
:103EB000158616861786108A118A128A138A148A22
:103EC000158A07E116E089E090E0F801918380838C
:103ED00088E0E82EF12CF382E2829AE0892E912C80
:103EE0009582848240E050E0BA01C8010E945905E1
:103EF000DD24D394F801D286C8010E942D050CE080
:103F000016E087E090E0F8019183808386E090E0FE
:103F10009383828385E090E09583848340E050E042
:103F2000BA01C8010E945905F801D286C8010E9451
:103F30002D05E1E0F6E083E290E0938382838FE356
:103F400090E0958384832CE2C22EDD24D394D78223
:103F5000C68282E090E09187808701E010E01183C3
:103F6000008361E083E20E949A03E6EFF5E085E2D8
:103F700090E09383828380E490E095838483D7826A
:103F8000C682118700871183008361E085E20E9469
:103F90009A03EBEEF5E087E290E09383828381E47D
:103FA00090E095838483D782C68211861086118320
:103FB000008361E087E20E949A03E0EEF5E089E287
:103FC00090E09383828382E490E095838483D78218
:103FD000C682AA24AA94BA2CB186A0861183008333
:103FE00061E089E20E949A03E5EDF5E08BE290E062
:103FF0009383828383E490E095838483D782C6820F
:104000008EEF9FEF918780871183008361E08BE2C1
:104010000E949A03EAECF5E08DE290E093838283BC
:1040200084E490E095838483D782C68291868086DB
:104030001183008361E08DE20E949A03EFEBF5E0CB
:104040008FE290E09383828385E490E0958384837C
:10405000D782C68286EF9FEF918780871183008386
:1040600061E08FE20E949A03E4EBF5E088E290E0E1
:104070009383828386E390E09583848344EF842E48
:1040800099249394978286821187008703E010E039
:104090001183008361E088E20E949A03E9EAF5E077
:1040A0008AE290E09383828387E390E09583848320
:1040B00097828682B186A0861183008361E08AE2BE
:1040C0000E949A0346E050E06CE270E083E895E0DD
:1040D0000E94420F42E050E06CE070E08DE595E018
:1040E0000E94420F86E190E090935A058093590513
:1040F00060E00E949A0387E190E0909356058093D8
:10410000550560E00E949A0388E190E09093520583
:104110008093510560E00E949A0389E190E09093BA
:104120004E0580934D0560E00E949A038AE190E07D
:1041300090934A058093490560E00E949A0300E449
:1041400015E0F801F582E4821782168280E290E0A1
:104150001DD2F8019383828305EF14E0F801D38226
:10416000C28284E690E095838483F186E08613869C
:10417000128680E290E00AD2F80197838683F08A63
:10418000E786128A118A80E290E000D2F8019687D1
:104190008587F78AE68A118E108E80E290E0F6D14C
:1041A000F801958B848B80E090EDA2E0B4E4838FDE
:1041B000948FA58FB68F8EEA97E9AAE0B4E4878F33
:1041C00090A3A1A3B2A38FE195EDA2E1B4E483A3F0
:1041D00094A3A5A3B6A380E090E9ABE1B4E487A3E0
:1041E00090A7A1A7B2A784EA90EDA4E2B4E483A7C4
:1041F00094A7A5A7B6A781E79DE9AEE2B4E487A797
:1042000090ABA1ABB2AB8CE59FEFA8E3B4E483AB7A
:1042100094ABA5ABB6AB8CE59FEFA3E4B4E487AB5E
:1042200090AFA1AFB2AF8AE097EAAFE4B4E483AF56
:1042300094AFA5AFB6AF80E090E0ACE5B4E4809376
:10424000340590933505A0933605B09337058FE17B
:1042500095E1A9E6B4E48093380590933905A093DD
:104260003A05B0933B0588E491EFA6E7B4E4809368
:104270003C0590933D05A0933E05B0933F058BE030
:1042800090E09183808360E00E949A0360E175E092
:104290008BEF94E00E94E50D60E175E08BEF94E018
:1042A0000E94E50D6CE375E08BEF94E00E94E50D54
:1042B0006CE375E08BEF94E00E94E50D60E175E042
:1042C00082E095E00E94E50D60E175E089E095E00F
:1042D0000E94E50DF801638D748D858D968D9B018F
:1042E000AC01BBD069837A838B839C83BE016F5FF3
:1042F0007F4F89E095E00E94E50DEFEEF4E084E069
:1043000090E095838483118210821382128208EDDB
:1043100014E0F801F382E2821582148280E190E0D9
:1043200035D1F80191838083F286E1861486138665
:1043300080E190E02BD1F80190878783F18AE08AB1
:10434000138A128A80E190E021D1F801978786874D
:1043500069E070E08FED94E00E94CB041092CB04F2
:104360006AE273E08CEC94E00E94B91461E372E0BD
:1043700082ED94E00E94B9146AE273E08CEC94E060
:104380000E948A1461E372E082ED94E00E948A1434
:10439000E5ECF4E0158214821182108213821282FD
:1043A0000F900F900F900F90DF91CF911F910F9171
:1043B000FF90EF90DF90CF90BF90AF909F908F9045
:1043C000089597FB072E16F4009406D077FD08D0C9
:1043D0002FD007FC05D03EF4909581959F4F08950E
:1043E000709561957F4F0895052E97FB16F4009404
:1043F0000FD057FD05D078D307FC02D046F408C093
:1044000050954095309521953F4F4F4F5F4F089500
:1044100090958095709561957F4F8F4F9F4F089530
:10442000EE0FFF1F881F8BBF0790F691E02D1994A8
:10443000AA1BBB1B51E107C0AA1FBB1FA617B707CA
:1044400010F0A61BB70B881F991F5A95A9F78095E6
:104450009095BC01CD0108955058BB27AA270ED0D6
:1044600009C3FAD230F0FFD220F031F49F3F11F4AB
:104470001EF4EFC20EF4E095E7FBE5C2E92F0BD383
:1044800080F3BA17620773078407950718F071F471
:104490009EF523C30EF4E0950B2EBA2FA02D0B0131
:1044A000B90190010C01CA01A0011124FF27591B79
:1044B00099F0593F50F4503E68F11A16F040A22F7F
:1044C000232F342F4427585FF3CF469537952795F0
:1044D000A795F0405395C9F77EF41F16BA0B620BEF
:1044E000730B840BBAF09150A1F0FF0FBB1F661F36
:1044F000771F881FC2F70EC0BA0F621F731F841F79
:1045000048F4879577956795B795F7959E3F08F09E
:10451000B3CF9395880F08F09927EE0F979587955D
:10452000089504D06894B111D9C20895BCD288F01E
:104530009F5790F0B92F9927B751A0F0D1F0660F8F
:10454000771F881F991F1AF0BA95C9F712C0B130AA
:1045500081F0C3D2B1E00895C0C2672F782F8827B9
:10456000B85F39F0B93FCCF3869577956795B395E9
:10457000D9F73EF490958095709561957F4F8F4F58
:104580009F4F08953CD208F48FEF0895CF93DF93A7
:104590008230910510F482E090E0E0914E06F091B7
:1045A0004F0620E030E0C0E0D0E0309711F14081CC
:1045B000518148175907C0F04817590761F48281A3
:1045C0009381209719F09B838A832BC090934F0689
:1045D00080934E0626C02115310519F04217530766
:1045E00018F49A01BE01DF01EF010280F381E02D92
:1045F000DCCF2115310509F1281B390B2430310599
:1046000090F412968D919C9113976115710521F08C
:10461000FB019383828304C090934F0680934E06E0
:10462000FD01329644C0FD01E20FF31F8193919387
:10463000225031092D933C933AC020914C06309181
:104640004D06232B41F42091030230910402309354
:104650004D0620934C062091010230910202211553
:10466000310541F42DB73EB7409105025091060245
:10467000241B350BE0914C06F0914D06E217F30731
:10468000A0F42E1B3F0B2817390778F0AC014E5FC2
:104690005F4F2417350748F04E0F5F1F50934D06AC
:1046A00040934C068193919302C0E0E0F0E0CF018B
:1046B000DF91CF9108950F931F93CF93DF930097CE
:1046C00009F48CC0FC0132971382128200914E06CD
:1046D00010914F060115110581F420813181820F5F
:1046E000931F20914C0630914D062817390779F514
:1046F000F0934D06E0934C0671C0D80140E050E0C5
:10470000AE17BF0750F412962D913C911397AD014F
:104710002115310509F1D901F3CF9D01DA01338368
:10472000228360817181860F971F8217930769F436
:10473000EC0128813981260F371F2E5F3F4F3183CF
:1047400020838A819B8193838283452B29F4F09374
:104750004F06E0934E0642C01396FC93EE931297D9
:10476000ED01499159919E01240F351FE217F3077E
:1047700071F480819181840F951F029611969C930C
:104780008E938281938113969C938E931297E0E08F
:10479000F0E0D80112968D919C911397009719F033
:1047A000F8018C01F6CF8D919C9198012E5F3F4FBF
:1047B000820F931F20914C0630914D062817390720
:1047C00069F4309729F410924F0610924E0602C0F9
:1047D0001382128210934D0600934C06DF91CF9105
:1047E0001F910F9108956F927F928F929F92AF9237
:1047F000BF92CF92DF92EF92FF920F931F93CF93CE
:10480000DF93EC01009781F4CB01DF91CF911F91F1
:104810000F91FF90EF90DF90CF90BF90AF909F905F
:104820008F907F906F90B2CEFC01E60FF71F9C0136
:1048300022503109E217F30708F4A8C0D9010D91FD
:104840001C91119706171707A8F00530110508F4F9
:104850009BC0C80104978617970708F495C00250BB
:104860001109061B170B019311936D937C93CF01D4
:1048700022DF8AC05B01A01AB10A4C01800E911E92
:10488000A0914E06B0914F0640E050E0E12CF12C93
:10489000109709F44AC0A815B905D1F56D907C9020
:1048A0001197630182E0C80ED11CCA14DB0480F1A9
:1048B000A3014A195B096A0182E0C80ED11C129655
:1048C000BC9012971396AC91B5E0CB16D10440F092
:1048D000B282A38351834083D9016D937C930AC034
:1048E0000E5F1F4FC301800F911FF90191838083D9
:1048F000EB2DFA2FE114F10431F0D7011396FC935C
:10490000EE93129741C0F0934F06E0934E063CC0E1
:104910008D919C9111974817590708F4AC017D01BE
:1049200012960D90BC91A02DB3CF80914C06909122
:104930004D0688159905E1F446175707C8F480918C
:10494000010290910202009741F48DB79EB7409109
:10495000050250910602841B950BE817F907B0F485
:10496000F0934D06E0934C06F901718360830CC00F
:10497000CB010CDE7C01009749F0A801BE011BD0E1
:10498000CE0199DEC70104C0CE0102C080E090E0F4
:10499000DF91CF911F910F91FF90EF90DF90CF901B
:1049A000BF90AF909F908F907F906F90089581E01F
:1049B00090E0F894D4C0FB01DC0102C001900D929C
:1049C00041505040D8F70895DC0101C06D9341502B
:1049D0005040E0F70895FB01DC018D9101908019B2
:1049E0000110D9F3990B0895FB01DC0101900D92A0
:1049F0000020E1F7089503D008F481E00895990FAD
:104A00000008550FAA0BE0E8FEEF16161706E80798
:104A1000F907C0F012161306E407F50798F0621BB9
:104A2000730B840B950B39F40A2661F0232B242B8E
:104A3000252B21F408950A2609F4A140A6958FEFAD
:104A4000811D811D089597F99F6780E870E060E0FF
:104A500008959FEF80EC089500240A941616170617
:104A600018060906089500240A941216130614065F
:104A700005060895092E0394000C11F4882352F0C2
:104A8000BB0F40F4BF2B11F460FF04C06F5F7F4F7A
:104A90008F4F9F4F089557FD9058440F551F59F061
:104AA0005F3F71F04795880F97FB991F61F09F3F1B
:104AB00079F087950895121613061406551FF2CF44
:104AC0004695F1DF08C0161617061806991FF1CF94
:104AD00086957105610508940895E894BB276627BB
:104AE0007727CB0197F90895A1E21A2EAA1BBB1BC9
:104AF000FD010DC0AA1FBB1FEE1FFF1FA217B307AA
:104B0000E407F50720F0A21BB30BE40BF50B661FBF
:104B1000771F881F991F1A9469F760957095809583
:104B200090959B01AC01BD01CF01089509D0A59FCF
:104B3000900DB49F900DA49F800D911D1124089598
:104B4000A29FB001B39FC001A39F700D811D1124CE
:104B5000911DB29F700D811D1124911D089511E0CA
:104B6000C8E2D1E000E005C0802FFE0159DC2196AB
:104B7000011DC932D10780E00807B1F7F894FFCFD3
:104B8000FF00005006800000000000000000000050
:104B900000D501B20F9601740188011B0204005672
:104BA0004D4450565F317C315F564D4450560D0A8E
:104BB000007478726F626F74696300526F626F7411
:104BC0005F56325F7175695F636F757273006368FA
:104BD0006F696365203D200064697374616E63656D
:104BE00000436173652031206669727374207469B3
:104BF0006D650043617365203220666972737420AD
:104C000074696D6500436173652033206669727352
:104C1000742074696D650043617365203420666992
:104C20007273742074696D65006C696E65002B4940
:104C300050442C0050773D00416E676C653D007418
:104C400065737420310041542B52535400746573C2
:104C5000742032007200790041542B43574D4F4469
:104C6000453D320041542B43575341503D220022D1
:104C70002C22002C352C330041542B4349504D55E8
:104C8000583D310041542B434950534552564552EB
:104C90003D312C3939380074657374203300466116
:104CA000696C007465737420340050726F6A6574A7
:0A4CB000526F626F74697175650040
:00000001FF
