:1000000027C1000056C1000054C1000052C10000C9
:1000100050C100004EC100004CC100004AC10000A8
:1000200048C1000046C1000044C1000042C10000B8
:1000300040C100003EC100003CC100003AC10000C8
:1000400038C1000036C1000034C1000032C10000D8
:1000500030C100002EC100002CC10000ABC3000065
:1000600028C1000047C200001CC2000022C10000DD
:1000700020C100001EC100001CC100001AC1000008
:1000800018C1000016C1000014C1000012C1000018
:1000900010C100000EC100000CC100000AC1000028
:1000A00008C1000006C1000004C1000002C1000038
:1000B00000C10000FEC00000FCC00000FAC000004B
:1000C000F8C00000F6C00000F4C00000F2C000005C
:1000D000F0C00000EEC00000ECC00000EAC000006C
:1000E000E8C00000CB02CE02BD02C102C702050378
:1000F000D202D602DC02E002E402EA02EE02F202DE
:100100000503F802FC0200032E05330538054205FD
:100110004C05C50556055E05660570057A0584051E
:1001200093059D05C505A705B105BB050000220087
:10013000250028002B002E003100340002010000B1
:10014000050108010B0100002100240027002A00FE
:100150002D003000330001010000040107010A01F5
:10016000000020002300260029002C002F00320070
:100170000001000003010601090105050505070549
:1001800008080808020202020A0A08080404040413
:10019000010101010101010103030303030303033F
:1001A000040707070C0C0C0C0C0C0C0C02020202CE
:1001B00006060606060606060B0B0B0B0B0B0B0BB7
:1001C0000102102020080810204010204080020169
:1001D000020108040201010204081020408080404E
:1001E000201008040201800402018040201008044D
:1001F00002010804020101020408102040800102EB
:1002000004081020408000000A0B02090C0D0E08A3
:1002100007030401000000000000000000000000CF
:1002200000000000000000000000000000000000CE
:10023000000012111000000000000000000000008B
:1002400000000000000000000000000061104810E5
:1002500011241FBECFEFD1E2DEBFCDBF00E00CBF47
:1002600012E0A0E0B2E0EAECF7E200E00BBF02C06F
:1002700007900D92AC35B107D9F723E0ACE5B2E0B9
:1002800001C01D92A73DB207E1F711E0C7E2D1E03E
:1002900000E006C021970109802FFE010E94D811BD
:1002A000C632D10780E00807A9F70E944D0A0C94D6
:1002B000D413A6CEFC01918D828D981761F0828DAA
:1002C000DF01A80FB11D5D968C91928D9F5F9F738A
:1002D000928F90E008958FEF9FEF0895FC01918D2C
:1002E000828D981731F0828DE80FF11D858D90E099
:1002F00008958FEF9FEF0895FC01918D228D892F36
:1003000090E0805C9F4F821B91098F73992708951D
:1003100084EA92E0F1DF21E0892B09F420E0822FCA
:100320000895FC01848DDF01A80FB11DA35ABF4FB2
:100330002C91848D90E001968F739927848FA689E4
:10034000B7892C93A089B1898C9180648C93938D0B
:10035000848D981306C00288F389E02D80818F7DFB
:1003600080830895EF92FF920F931F93CF93DF93B3
:10037000EC0181E0888F9B8D8C8D981305C0E889F6
:10038000F989808185FD23C0F62E0B8D10E00F5F6B
:100390001F4F0F731127E02E8C8DE8120BC00FB684
:1003A00007FCFACFE889F989808185FFF5CFCE0176
:1003B000B8DFF2CF8B8DFE01E80FF11DE35AFF4F3E
:1003C000F0820B8FEA89FB898081806207C0EE8909
:1003D000FF896083E889F98980818064808381E076
:1003E00090E0DF91CF911F910F91FF90EF900895D2
:1003F000CF93DF93EC01888D8823C1F0EA89FB89D4
:10040000808185FD05C0A889B9898C9186FD0EC0C3
:100410000FB607FCF5CF808185FFF2CFA889B98997
:100420008C9185FFEDCFCE017CDFE8CFDF91CF91BE
:10043000089580E090E0892B19F06ADF811125C0D2
:1004400080E090E0892B41F080E090E0892B21F062
:100450000E94000081111CC080E090E0892B41F0D7
:1004600080E090E0892B21F00E940000811113C0F0
:1004700080E090E0892BA1F080E090E0892B81F072
:100480000E94000081110AC008950E940000D8CF88
:100490000E940000E1CF0E940000EACF0C9400000F
:1004A00008951F920F920FB60F9211240BB60F9260
:1004B0002F933F934F935F936F937F938F939F936C
:1004C000AF93BF93EF93FF9384EA92E02ADFFF910B
:1004D000EF91BF91AF919F918F917F916F915F91BC
:1004E0004F913F912F910F900BBE0F900FBE0F9029
:1004F0001F9018951F920F920FB60F9211240BB6F2
:100500000F922F938F939F93EF93FF93E091B402F9
:10051000F091B5028081E091BA02F091BB0282FDB8
:1005200012C090818091BD028F5F8F732091BE02B7
:10053000821751F0E091BD02F0E0EC55FD4F958F30
:100540008093BD0201C08081FF91EF919F918F91B7
:100550002F910F900BBE0F900FBE0F901F9018950C
:1005600090E0FC013197E231F10508F04EC0882798
:10057000EE58FF4F8F4F0C94D811809180008F77E9
:1005800003C0809180008F7D8093800008958091CA
:100590008000877FF9CF84B58F7702C084B58F7DC7
:1005A00084BD08958091B0008F7703C08091B00022
:1005B0008F7D8093B0000895809190008F7707C061
:1005C000809190008F7D03C080919000877F809301
:1005D000900008958091A0008F7707C08091A000BF
:1005E0008F7D03C08091A000877F8093A000089535
:1005F000809120018F7707C0809120018F7D03C0FB
:1006000080912001877F8093200108951F93CF93CD
:10061000DF93282F30E0F901EA5FFD4F8491F90163
:10062000E054FE4FD491F901E658FE4FC491CC231B
:10063000C1F0162F811194DFEC2FF0E0EE0FFF1FB9
:10064000E45DFE4FA591B4918FB7F894111105C0E8
:100650009C91ED2FE095E92302C0EC91ED2BEC93FA
:100660008FBFDF91CF911F910895CF93DF9390E0DB
:10067000FC01E054FE4F2491FC01E658FE4F8491AA
:10068000882361F190E0880F991FFC01EA5BFE4F1F
:10069000C591D491FC01E45DFE4FA591B491611127
:1006A00009C09FB7F8948881209582238883EC91B4
:1006B0002E230BC0623061F49FB7F8943881822FEB
:1006C000809583238883EC912E2B2C939FBF06C0AB
:1006D0008FB7F894E8812E2B28838FBFDF91CF91BD
:1006E00008953FB7F8948091A0029091A102A09143
:1006F000A202B091A30226B5A89B05C02F3F19F016
:100700000196A11DB11D3FBFBA2FA92F982F882791
:10071000820F911DA11DB11DBC01CD0142E0660FEC
:10072000771F881F991F4A95D1F708958F929F923E
:10073000AF92BF92CF92DF92EF92FF926B017C015A
:10074000D0DF4B015C01C114D104E104F104E9F0F4
:10075000C8DFDC01CB0188199909AA09BB09883EC9
:100760009340A105B10578F321E0C21AD108E10850
:10077000F10888EE880E83E0981EA11CB11CC114FC
:10078000D104E104F10421F7DECFFF90EF90DF9078
:10079000CF90BF90AF909F908F9008952FB7F8940F
:1007A00060919C0270919D0280919E0290919F02A7
:1007B0002FBF08951F920F920FB60F9211242F93FF
:1007C0003F938F939F93AF93BF9380919C0290919F
:1007D0009D02A0919E02B0919F0230919B0223E066
:1007E000230F2D3720F40196A11DB11D05C026E869
:1007F000230F0296A11DB11D20939B0280939C02A2
:1008000090939D02A0939E02B0939F028091A002BC
:100810009091A102A091A202B091A3020196A11D04
:10082000B11D8093A0029093A102A093A202B09365
:10083000A302BF91AF919F918F913F912F910F9004
:100840000FBE0F901F9018950F931F93CF93DF93B8
:10085000EC01088119817B836A83CB01880F991F82
:100860000E942912998388838C819D81D80140E060
:1008700050E04817590791F0E881F9819A01220F59
:10088000331FE20FF31F309729F02D913C91119700
:10089000318320834F5F5F4F1296EBCFC801DF910A
:1008A000CF911F910F910C94BE120F931F93CF9372
:1008B000DF93EC01088119817B836A83CB01880F68
:1008C000991F0E942912998388838C819D81D80168
:1008D00040E050E04817590791F0E881F9819A010A
:1008E000220F331FE20FF31F309729F02D913C9117
:1008F0001197318320834F5F5F4F1296EBCFC80172
:10090000DF91CF911F910F910C94BE12CF93DF9383
:10091000EC0160E088817ADE61E08A81DF91CF912D
:1009200075CECF93DF93EC01E4EAF2E0A089B189C0
:1009300082E08C93A485B5851C92A685B7858FEC43
:100940008C93108EA489B58986E08C93A289B38993
:100950008C9180618C93A289B3898C9188608C93EF
:10096000A289B3898C9180688C930288F389E02DE9
:1009700080818F7D808361E08C8177DE61E088817A
:1009800074DE61E08A8171DEDF91CF910895CF93AB
:10099000DF93FC016287662319F0DF91CF91B6CF18
:1009A000EC0161E0808132DE60E08A81DF91CF91ED
:1009B0002DCECF92DF92EF92FF920F931F93CF93A2
:1009C000DF93EC016A017B0120E030E04FE753E464
:1009D000C701B6010E942512181674F020E030E01D
:1009E000A901C701B6010E94611387FF0BC0F7FA86
:1009F000F094F7F8F09406C0C12CD12C8FE7E82EC4
:100A000083E4F82ECE82DF82E886F986C701B6013C
:100A10000E94F4116B017C018B010C80DD81C02DE3
:100A200061E08C2F22DEC114D10409F4B1C00F3F64
:100A3000110509F4AFC0FE01FF27EA5FFD4FE49105
:100A40004E2F50E0FA013197E231F10508F09DC0D8
:100A50008827EC57FF4F8F4F0C94D81184B58068CE
:100A600084BDC7BCA2C084B5806284BDC8BC9DC023
:100A700080918000806880938000D0928900C0922D
:100A8000880093C080918000806280938000D09223
:100A90008B00C0928A0089C080918000886080931A
:100AA0008000D0928D00C0928C007FC08091B000F9
:100AB00080688093B000C092B30077C08091B0008E
:100AC00080628093B000C092B4006FC080919000AB
:100AD000806880939000D0929900C092980065C081
:100AE00080919000806280939000D0929B00C09291
:100AF0009A005BC080919000886080939000D092B3
:100B00009D00C0929C0051C08091A000806880939D
:100B1000A0008091A0008F7B8093A000D092A900BC
:100B2000C092A80042C08091A00080628093A00083
:100B3000D092AB00C092AA0038C08091A00088601B
:100B40008093A000D092AD00C092AC002EC08091E6
:100B50002001806880932001D0922901C092280151
:100B600024C080912001806280932001D0922B01CB
:100B7000C0922A011AC080912001886080932001D0
:100B8000D0922D01C0922C0110C00038110514F430
:100B900060E001C061E08C2FDF91CF911F910F9138
:100BA000FF90EF90DF90CF9031CDDF91CF911F91EB
:100BB0000F91FF90EF90DF90CF900895EF92FF920A
:100BC0000F931F93CF93DF93EC018B016817790785
:100BD00009F486C0DB0114962D913C9115978A810A
:100BE0009B818217930718F5E880F9803B832A835D
:100BF000C901880F991F0E942912888399834C810B
:100C00005D81D701FC0120E030E02417350761F059
:100C1000309729F08D919C911197918380832F5F5C
:100C20003F4F12963296F1CFC7010E94BE128C81BF
:100C30009D81F801448155818417950708F4AC0122
:100C400080E090E08417950791F09C01220F331FFC
:100C5000D801ED91FC91E20FF31F60817181E88171
:100C6000F981E20FF31F718360830196EBCF8C81D2
:100C70009D81F801248135818217930768F0D8019E
:100C800014968D919C9115972C813D818217930725
:100C900038F59D838C8324C09C01220F331FD8011B
:100CA00014964D915C9115978417950740F7F801BC
:100CB000A081B181A20FB31FE881F981E20FF31F78
:100CC000309721F04D915C91518340834C815D813F
:100CD0004F5F5F4F5D834C8301962E5F3F4FDFCFA9
:100CE000CE01DF91CF911F910F91FF90EF9008956A
:100CF000EF92FF920F931F93CF93DF9300D01F9239
:100D0000CDB7DEB78C01FC0175836483CB010896F7
:100D1000938382837C01EE0CFF1CC70149835A83B5
:100D20006B837C830E942912F80180839183970151
:100D30002051310949815A81240F351FDA01FC0104
:100D4000A217B30741F08D919D91309711F09183D7
:100D500080833296F5CF0F900F900F900F90DF9118
:100D6000CF911F910F91FF90EF9008950F931F93D4
:100D7000CF93DF93EC01088119817B836A83CB01D8
:100D8000880F991F880F991F0E94291288839983C1
:100D9000FC01D80120E030E08C819D8128173907C3
:100DA00080F4309749F04D915D916D917C9113974E
:100DB00040835183628373832F5F3F4F3496149631
:100DC000EBCFC801DF91CF911F910F910C94BE1210
:100DD000CF93DF93EC0188859985009711F00E94ED
:100DE000BE128E8187FD04C060E0DF91CF913DCCC3
:100DF000DF91CF910895FC01808191810C94BE1206
:100E0000CF92DF92EF92FF920F931F93CF93DF93D6
:100E10006C017A018B01C0E0D0E0CE15DF0589F0CE
:100E2000D8016D918D01D601ED91FC910190F08179
:100E3000E02DC6011995892B11F47E0102C021967F
:100E4000ECCFC701DF91CF911F910F91FF90EF90F1
:100E5000DF90CF9008950E9456130F931F93CF9366
:100E6000DF93CDB7DEB729970FB6F894DEBF0FBE7C
:100E7000CDBF37DC00918F03109190032091910337
:100E800030919203DC01CB01801B910BA20BB30BC1
:100E9000C297A105B10568F3F894809185039091FC
:100EA00086039A838983E0918903F0918A03DF01A5
:100EB00011968081898790918103E0919303F0914D
:100EC000940380919503992309F42EC09081982B67
:100ED00098879081809589238F838F818C8388E088
:100EE0008B8358856F8149853B812C8189819A81CB
:100EF000508347FD252F3A952083262F39F0441F34
:100F000000C000006083000000C0F2CF38E04D91C7
:100F100060830000019761F7F0939403E0939303DB
:100F200049873B832C8338C09081982B9887908188
:100F3000809589238F838F818E8388E08D83588568
:100F40006F8149853D812E8189819A81508347FD3A
:100F5000252F00C000C0208300C000C000C000C01A
:100F600000C060830000262F3A9541F0441F000026
:100F700000C000C000C000C000C0E8CF38E04D9104
:100F800000C0608300C0019709F7F0939403E093D9
:100F9000930349873D832E839A8389837894A1DBC9
:100FA00060938F03709390038093910390939203C7
:100FB00029960FB6F894DEBF0FBECDBFDF91CF915B
:100FC0001F910F9108954F925F926F927F928F922F
:100FD0009F92AF92BF92CF92DF92EF92FF920F93C8
:100FE0001F93CF93DF93CDB7DEB72E970FB6F8944C
:100FF000DEBF0FBECDBF7C018B016A019987888758
:101000007B876A875D874C87AE01485F5F4F63E0EF
:1010100070E09E01225F3F4FCE01019669DEBE0166
:101020006F5F7F4F8AE793E0C9DDCE010196E3DE73
:1010300060E070E040E050E080E090E0270155245F
:10104000D801BB275601BB249C2C209176033091FC
:101050007703821793070CF057C0209183033091D8
:1010600084038217930708F049C020918803211157
:1010700004C0892C102FFE2C19C030E0429E600164
:10108000439ED00C529ED00C1124FD2CA29F6001D7
:10109000A39FD00CB29FD00C11241D2DA29E6001E5
:1010A000A39ED00CB29ED00C11248D2CD0908E0318
:1010B000C0908B032091890330918A03DC1003C018
:1010C000240F351F07C0260F371F39016D0C711C07
:1010D000F3011082D0908B0339016D0C711CF30168
:1010E000F082F0908C036901CF0CD11CF6011083C3
:1010F00010918D03210F311DF901808201964D5F02
:101100005F4F6C5F7F4FA1CF8091890390918A03DD
:10111000892B09F0A2DE2E960FB6F894DEBF0FBE23
:10112000CDBFDF91CF911F910F91FF90EF90DF9096
:10113000CF90BF90AF909F908F907F906F905F9077
:101140004F9008950F931F93CF93DF9320914C03FB
:1011500030914D032817390790F58B01EC018091F0
:101160004A0390914B038C179D0748F4BE01685FBA
:101170007F4F8617970718F488E493E065DB80912A
:101180004C0390914D039C01220F331F8C179D0738
:1011900088F4E0914803F0914903E20FF31F309780
:1011A00029F0D8014D915C915183408301962E5FC7
:1011B0003F4FECCFD0934D03C0934C0307C0821731
:1011C000930720F490934D0380934C03DF91CF91CC
:1011D0001F910F9108950F931F93CF93DF93209149
:1011E0004503309146032817390790F58B01EC0130
:1011F00080914303909144038C179D0748F4BE01EE
:10120000685F7F4F8617970718F481E493E04DDB02
:1012100080914503909146039C01220F331F8C1748
:101220009D0788F4E0914103F0914203E20FF31F20
:10123000309729F0D8014D915C91518340830196FC
:101240002E5F3F4FECCFD0934603C093450307C0BA
:101250008217930720F49093460380934503DF9110
:10126000CF911F910F9108950F931F93CF93DF9309
:1012700060915D0370915E03EB0121966C177D0711
:1012800088F58C0180915B0390915C038C179D071E
:1012900040F4675F7F4F8617970718F489E593E05E
:1012A00065DD20915D0330915E03C901880F991FB0
:1012B000880F991F2C173D07C0F4E0915903F09156
:1012C0005A03E80FF91F309749F0D8014D915D910D
:1012D0006D917C9140835183628373832F5F3F4F75
:1012E0000496E8CFC617D70720F4D0935E03C093C7
:1012F0005D03DF91CF911F910F910895EF92FF92BF
:101300000F931F93CF93DF930091590310915A03CA
:10131000C0915D03D0915E03CC0FDD1FCC0FDD1FAC
:10132000C00FD11F0C171D0759F1F8012081318121
:101330003327F901EA5FFD4F8491F901E054FE4F34
:10134000E490F901E658FE4FF490FF2089F08111F6
:1013500007D9EF2DF0E0EE0FFF1FE05AFE4FA591E9
:10136000B491EC91EE2191E080E021F490E002C094
:1013700090E080E0F801928383830C5F1F4FD2CF0F
:10138000E0915903F0915A0382819381892B99F05E
:1013900086819781892B91F082859385892B89F0AD
:1013A00086859785892B81F082899389892B79F0AD
:1013B00080E090E00EC081E090E00BC082E090E021
:1013C00008C083E090E005C084E090E002C085E0C2
:1013D00090E0DF91CF911F910F91FF90EF900895D2
:1013E0006115710579F0FB0101900020E9F7319753
:1013F000AF01461B570BDC01ED91FC910280F3819C
:10140000E02D199480E090E008954F925F926F92E2
:101410007F92EF92FF920F931F93CF93DF93CDB7FD
:10142000DEB7A1970FB6F894DEBF0FBECDBF7C012B
:10143000FA01CB0119A2223008F42AE08E010F5DD7
:101440001F4F422E512C612C712CBF01A301920120
:101450000E94B213F901CA01015011096A3014F453
:10146000605D01C0695CD8016C93232B242B252B74
:1014700061F7B801C701B4DFA1960FB6F894DEBFDB
:101480000FBECDBFDF91CF911F910F91FF90EF90D5
:101490007F906F905F904F900895CF93DF93CDB77B
:1014A000DEB7AF970FB6F894DEBF0FBECDBF78940E
:1014B00084B5826084BD84B5816084BD85B5826059
:1014C00085BD85B5816085BD80916E00816080930A
:1014D0006E00109281008091810082608093810073
:1014E0008091810081608093810080918000816083
:1014F000809380008091B10084608093B1008091DE
:10150000B00081608093B0008091910082608093F0
:101510009100809191008160809391008091900072
:101520008160809390008091A10082608093A100EF
:101530008091A10081608093A1008091A0008160D2
:101540008093A0008091210182608093210180918D
:10155000210181608093210180912001816080932D
:10156000200180917A00846080937A0080917A00D3
:10157000826080937A0080917A00816080937A0003
:1015800080917A00806880937A001092C100109256
:101590008F02109290021092910210929202109279
:1015A0005D0210925E0210925F021092600260ED86
:1015B00077E080E090E0BAD884EA92E090938E02DF
:1015C00080938D02E091B402F091B50282E08083B5
:1015D000E091B002F091B1021082E091B202F0917C
:1015E000B30280E180831092BC02E091B802F091D6
:1015F000B90286E08083E091B602F091B702808163
:1016000080618083E091B602F091B70280818860AA
:101610008083E091B602F091B70280818068808378
:10162000E091B602F091B70280818F7D8083B6D8B9
:1016300000915D0210915E0220915F023091600284
:10164000DC01CB01801B910BA20BB30BC297A10550
:10165000B10530F463E070E080E090E067D8E7CF58
:101660009DD860935D0270935E0280935F029093B9
:1016700060026CE172E080918D0290918E02B0DE8A
:101680006AE070E080E090E051D8FF24F394F0929B
:10169000610288EC93E045D98DEB93E042D900914B
:1016A000740310917503C0907603D09077031A826B
:1016B00018861F86188A198A1A8AFE86FB861C8657
:1016C00082E08D87F9827601EE0CFF1CEC0CFD1C8C
:1016D000FE82ED82C701BDD69A878987009739F0CF
:1016E000A70160E070E0E6D7DC82CB8204C01E82F6
:1016F0001D821C821B820F838A81882341F061E056
:10170000802F0E94350360E0802F0E94060311277E
:10171000F801E658FE4FE491F0E0EE0FFF1FE45DA4
:10172000FE4F859194919C8B8B8BF801E054FE4F7A
:1017300004910D8B85E1FE013196A1E8B3E00190A3
:101740000D928A95E1F7CE01019642DB80918703E5
:1017500087FD08C061E00E94350360E08091870347
:101760000E94060381E08093820380918903909117
:101770008A03892B09F071DB8091680390916903DA
:10178000A0916A03B0916B038AA39BA3ACA3BDA3F2
:10179000CE01829669DD80916C0390916D03A091DA
:1017A0006E03B0916F038E8F9F8FA8A3B9A3CE0154
:1017B0004E965ADD8091640390916503A091660373
:1017C000B09167038A8F9B8FAC8FBD8FCE014A96F5
:1017D0004BDD8091700390917103A0917203B091E1
:1017E00073038E8B9F8BA88FB98FCE0146963CDDFD
:1017F0008091600390916103A0916203B0916303B3
:1018000089839A83AB83BC83CE0101962DDD88EC5E
:1018100093E09FA78EA78091450390914603BE0158
:10182000625D7F4F0196D7DC8DEB93E09DA78CA77F
:101830008091450390914603BE01645D7F4F019600
:10184000CADC82EB93E09BA78AA780914C0390911E
:101850004D03BE01665D7F4F019674DC87EA93E01D
:1018600099A788A780914C0390914D03BE01685DB4
:101870007F4F019667DC8CE993E09FA38EA3809154
:101880004C0390914D03BE016A5D7F4F01965ADC77
:1018900040E050E060E070E080E090E094DB11E038
:1018A0000E94CE03672B682B692B09F043C30E946B
:1018B000CE03623071058105910508F03BC339C044
:1018C0000E94CE0360935D0270935E0280935F027C
:1018D000909360026EE272E080918D0290918E0290
:1018E0007FDD66E372E080918D0290918E0278DD5B
:1018F0000E94CE03AB01BC012AE080918D02909141
:101900008E0283DD68E372E080918D0290918E02F9
:1019100067DD65E070E080E090E00E9496036AE099
:1019200070E080E090E00E94960380916102811156
:101930005BC3E4DC83309105D1F06CF4209151035A
:10194000309152038130910561F0029709F0C7C2CE
:101950002150310908C08430910549F0059771F094
:10196000BEC22F5F3F4F30935203209351036AEF63
:1019700070E080E090E00E949603B1C261E572E001
:1019800084EA92E02DDDC0904F03D09050030D2CDF
:10199000000CEE08FF08F7FE14C0E091A402F091DD
:1019A000A5020190F081E02D6DE284EA92E01995A4
:1019B00044275527BA014C195D096E097F092AE0B1
:1019C00003C02AE0B701A60184EA92E01EDD6EE4BE
:1019D00072E084EA92E004DD80914F03909150031D
:1019E000009721F0019709F4B8C175C26AEF70E061
:1019F00080E090E00E94960341E350E06AEF70E0DF
:101A000081E090E0E0DAA12CB12C20914C033091E0
:101A10004D038091480390914903A216B30608F044
:101A200044C09501220F331FFC01E20FF31FE08039
:101A3000F18061E0F70182810E940603D7011496CC
:101A40008C91863308F0865390917B00282F287064
:101A5000977F922B90937B008770806480937C00AB
:101A600080917A00806480937A0080917A0086FD6C
:101A7000FCCFC090780080917900D12CD82A60E00A
:101A8000F70182810E940603D70116968D919C91E1
:101A90001797C816D9061CF01A961C9302C0F701B6
:101AA0001286FFEFAF1ABF0AB0CFDC016C0140E035
:101AB00050E060E04217530781F0F601E190F190A9
:101AC0006F01F7017285772329F0E084F184EF2814
:101AD00009F461E04F5F5F4FEDCF662389F1E0913C
:101AE0004103F091420360E0808191810E94C7042C
:101AF000E0914103F091420382819381DC011A96C7
:101B00001C930E948604E0914103F091420340E05F
:101B100050E066E972E4808191810E94D904E091ED
:101B20004103F091420340E050E066E972E48281B3
:101B300093810E94D90468EE73E080E090E048C091
:101B40007C0180E090E040E08217930781F0F7018C
:101B5000619171917F01FB015285552331F06085C0
:101B60007185161617060CF441E00196EDCF44235B
:101B700091F1E0914103F091420380819181DC0178
:101B80001A961C930E948604E0914103F09142034F
:101B900060E0828193810E94C704E0914103F0914B
:101BA000420340E050E066E972E4808191810E9446
:101BB000D904E0914103F091420340E050E0BA01C2
:101BC000828193810E94D9046AEF70E080E090E006
:101BD0000E94960360C080E090E040E08217930787
:101BE00059F0ED91FD915285552321F06085718565
:101BF00077FD41E00196F2CFE0914103F09142037D
:101C000080819181442309F1FC0112870E9486049E
:101C1000E0914103F091420360E0828193810E9450
:101C2000C704E0914103F091420340E050E0BA0163
:101C3000808191810E94D904E0914103F091420397
:101C400040E050E066E972E4BBCFDC011A961C93D9
:101C50000E948604E0914103F091420360E082819A
:101C600093810E94C704E0914103F091420340E058
:101C700050E06AEF72E4808191810E94D904E09182
:101C80004103F091420340E050E066E972E4828152
:101C900093810E94D90432DB059709F0B4CE6AEF34
:101CA00070E080E090E00E949603E0914103F091A3
:101CB000420340E050E0BA01808191810E94D90442
:101CC000E0914103F091420340E050E0BA0182818B
:101CD00093810E94D904FFC0029709F0C7C06AEF40
:101CE00070E080E090E00E94960345E750E06FEFDF
:101CF00070E08CE290E067D9E0914103F0914203FB
:101D000080819181DC011A961C930E948604E091E7
:101D10004103F091420360E0828193810E94C704F5
:101D2000E0914103F091420340E050E0BA0180812C
:101D300091810E94D904E0914103F091420340E077
:101D400050E066E972E4828193810E94D9046AEFCF
:101D500070E080E090E00E9496036AEF70E080E01F
:101D600090E00E949603CADA8330910509F56AEF84
:101D700070E080E090E00E9496034CE150E069EF53
:101D800070E089E790E01FD9E0914103F0914203B0
:101D900060E0808191810E94C704E0914103F0914D
:101DA000420382819381FC0112870E94860428C02D
:101DB0008430910574F18430910509F06EC06AEFAA
:101DC00070E080E090E00E94960344E150E063E51B
:101DD00070E081E890E0F7D8E0914103F091420390
:101DE00080819181DC011A961C930E948604E09107
:101DF0004103F091420360E0828193810E94C70415
:101E0000E0914103F091420340E050E06AEF72E458
:101E10008ECF8130910509F05FCF6AEF70E080E0EE
:101E200090E00E94960349E250E060E070E088E5AF
:101E300090E0C9D8E0914103F09142038081918103
:101E4000FC0112870E948604E0914103F091420355
:101E500060E0828193810E94C704E0914103F09188
:101E6000420340E050E06AEF72E407C0E0914103B2
:101E7000F091420340E050E0BA01808191810E94DC
:101E8000D904E0914103F091420340E050E0BA01EF
:101E9000828193810E94D90460CF059739F7E09140
:101EA0004103F091420340E050E0BA01808191810A
:101EB0000E94D904E0914103F091420340E050E0D8
:101EC000BA01828193810E94D90468EE73E080E0B8
:101ED00090E00E9496031092520310925103809159
:101EE00051039091520397FF03C0919581959109F9
:101EF000609153037091540348D2909350038093A0
:101F00004F03892B39F44FEF50E060E870E080E038
:101F100090E059D880914F0390915003019739F484
:101F20004EE350E061E070E087EE90E04CD80E9414
:101F30001902B6CC0E94CE03609397027093980268
:101F40008093990290939A02C0909302D090940249
:101F5000E0909502F09096026C157D058E059F0528
:101F600040F460939302709394028093950290934F
:101F70009602C0909302D0909402E0909502F09067
:101F800096029B01AC012C193D094E095F096901BC
:101F90007A013AEFC316D104E104F10408F4C9CC84
:101FA00060939302709394028093950290939602AB
:101FB0000E94CE03C0905D02D0905E02E0905F026E
:101FC000F0906002DC01CB018C199D09AE09BF09BC
:101FD000C297A105B10508F073CC63E070E080E022
:101FE00090E00E949603E4CF80918D0290918E0242
:101FF000DC01ED91FC910480F581E02D1995892B90
:1020000099F380918D0290918E02DC01ED91FC910B
:102010000480F581E02D1995181619060CF089CC6D
:1020200080918D0290918E02DC01ED91FC910680F1
:10203000F781E02D199599278336910551F0863760
:10204000910509F476CC88359105D9F61092610294
:10205000D8CF61E472E080918D0290918E02C0D958
:102060002AE041E050E060E070E080918D029091C4
:102070008E02CBD968E472E080918D0290918E023D
:10208000AFD962E370E080E090E00E94960351CC0B
:10209000CF93DF93C1E4D3E08F8198856FD288819D
:1020A00099816CD28091590390915A0367D281E84B
:1020B00093E00E94E8068AE793E0DF91CF910C94C9
:1020C000FB06AF92BF92CF92DF92FF920F931F93C6
:1020D000CF93DF93CDB7DEB72E970FB6F894DEBF60
:1020E0000FBECDBFE4EAF2E01382128288EE93E0E5
:1020F000A0E0B0E084839583A683B7838AE092E072
:102100009183808385EC90E09587848784EC90E0D0
:102110009787868780EC90E0918B808B81EC90E0B4
:10212000938B828B82EC90E0958B848B86EC90E095
:10213000978B868B118E128E138E148E08EC13E003
:1021400089E090E0F8019183808388E0C82ED12C4B
:10215000D382C2828AE090E09583848340E050E09D
:10216000BA01C8010E94D904FF24F394F801F28651
:10217000C8010E9486040DEB13E087E090E0F801AF
:102180009183808386E090E09383828395E0A92EFB
:10219000B12CB582A48240E050E0BA01C8010E948F
:1021A000D904F801F286C8010E948604E2EBF3E04C
:1021B00085E290E09383828380E490E0958384833A
:1021C00022E830E0378326838FEF9FEF9187808767
:1021D00081E090E091838083E7EAF3E047E250E01A
:1021E0005383428341E450E05583448337832683FD
:1021F0001186108691838083ECE9F3E049E250E098
:102200005383428342E450E05583448337832683DB
:10221000918780879183808304E713E0F80182A18E
:1022200093A19987888784A195A19B878A8786A196
:1022300097A19D878C87AE01485F5F4F63E070E098
:102240009E012F5F3F4F8AE793E00E947806F801D6
:10225000F5861686108A1786128A118A8FEF838B6D
:10226000148A168A158AF78A108E82E0818FF28E80
:10227000138E148E158E168E8CE290E091838083DF
:10228000B382A2821482158246E152E063E070E0DC
:102290009E01225F3F4FCE0101960E947806BE014B
:1022A0006F5F7F4F8AE793E00E94DE05CE010196C3
:1022B0000E94FB0686E190E0909371038093700387
:1022C00060E00E94350387E190E090936D03809376
:1022D0006C0360E00E94350388E190E0909369030D
:1022E0008093680360E00E94350389E190E0909359
:1022F00065038093640360E00E9435038AE190E007
:10230000909361038093600360E00E94350305E5CC
:1023100013E0F801D782C6821186108680E290E031
:1023200098D0F80195838483EFE4F3E082E090E0B5
:1023300095838483118210821382128201E413E058
:10234000F801D382C2821582148280E190E081D0AC
:10235000F80191838083D286C1861486138680E13A
:1023600090E077D0F801908787832E960FB6F89487
:10237000DEBF0FBECDBFDF91CF911F910F91FF90B8
:10238000DF90CF90BF90AF90089597FB072E16F483
:10239000009406D077FD08D013D007FC05D03EF49A
:1023A000909581959F4F0895709561957F4F089501
:1023B000EE0FFF1F881F8BBF0790F691E02D199439
:1023C000AA1BBB1B51E107C0AA1FBB1FA617B7075B
:1023D00010F0A61BB70B881F991F5A95A9F7809577
:1023E0009095BC01CD01089504D06894B111B4C199
:1023F000089597D188F09F5790F0B92F9927B7513A
:10240000A0F0D1F0660F771F881F991F1AF0BA95B8
:10241000C9F712C0B13081F09ED1B1E008959BC1DF
:10242000672F782F8827B85F39F0B93FCCF38695AE
:1024300077956795B395D9F73EF49095809570950B
:1024400061957F4F8F4F9F4F08953FD108F48FEFD5
:102450000895CF93DF938230910510F482E090E0ED
:10246000E091D503F091D60320E030E0C0E0D0E069
:10247000309711F14081518148175907C0F0481732
:10248000590761F482819381209719F09B838A8395
:102490002BC09093D6038093D50326C02115310518
:1024A00019F04217530718F49A01BE01DF01EF013A
:1024B0000280F381E02DDCCF2115310509F1281BC5
:1024C000390B2430310590F412968D919C9113971D
:1024D0006115710521F0FB019383828304C0909301
:1024E000D6038093D503FD01329644C0FD01E20F6F
:1024F000F31F81939193225031092D933C933AC05D
:102500002091D3033091D403232B41F42091020274
:10251000309103023093D4032093D303209100021F
:10252000309101022115310541F42DB73EB740919C
:10253000040250910502241B350BE091D303F09166
:10254000D403E217F307A0F42E1B3F0B281739071B
:1025500078F0AC014E5F5F4F2417350748F04E0FFF
:102560005F1F5093D4034093D3038193919302C090
:10257000E0E0F0E0CF01DF91CF9108950F931F933A
:10258000CF93DF93009709F48CC0FC01329713823C
:1025900012820091D5031091D6030115110581F423
:1025A00020813181820F931F2091D3033091D40376
:1025B0002817390779F5F093D403E093D30371C05A
:1025C000D80140E050E0AE17BF0750F412962D91AD
:1025D0003C911397AD012115310509F1D901F3CFD4
:1025E0009D01DA013383228360817181860F971FF9
:1025F0008217930769F4EC0128813981260F371F70
:102600002E5F3F4F318320838A819B819383828316
:10261000452B29F4F093D603E093D50342C01396DB
:10262000FC93EE931297ED01499159919E01240F6D
:10263000351FE217F30771F480819181840F951F94
:10264000029611969C938E938281938113969C930C
:102650008E931297E0E0F0E0D80112968D919C9154
:102660001397009719F0F8018C01F6CF8D919C918A
:1026700098012E5F3F4F820F931F2091D30330911B
:10268000D4032817390769F4309729F41092D60338
:102690001092D50302C0138212821093D4030093C8
:1026A000D303DF91CF911F910F91089581E090E0C6
:1026B000F8947AC0DC0101C06D9341505040E0F7BE
:1026C000089503D008F481E00895990F0008550F8C
:1026D000AA0BE0E8FEEF16161706E807F907C0F0A8
:1026E00012161306E407F50798F0621B730B840BB0
:1026F000950B39F40A2661F0232B242B252B21F48A
:1027000008950A2609F4A140A6958FEF811D811D29
:10271000089557FD9058440F551F59F05F3F71F0D1
:102720004795880F97FB991F61F09F3F79F0879538
:102730000895121613061406551FF2CF4695F1DFC1
:1027400008C0161617061806991FF1CF8695710551
:10275000610508940895E894BB2766277727CB0185
:1027600097F90895A1E21A2EAA1BBB1BFD010DC00B
:10277000AA1FBB1FEE1FFF1FA217B307E407F50731
:1027800020F0A21BB30BE40BF50B661F771F881F0D
:10279000991F1A9469F760957095809590959B01A3
:1027A000AC01BD01CF01089511E0C7E2D1E000E026
:1027B00005C0802FFE01FCDD2196011DC832D10726
:0A27C00080E00807B1F7F894FFCF9E
:1027CA000000D703800000000000B20100077C016E
:1027DA005A016E01F801000000000000564D4450F5
:1027EA00565F317C315F564D4450560D0A00564DA6
:1027FA004450455F31007C005F564D4450450D0AF8
:10280A0000564D4450435F005F564D4450430D0AF5
:0C281A000063686F696365203D200000CA
:00000001FF
