:1000000028C1000057C1000055C1000053C10000C5
:1000100051C100004FC100004DC100004BC10000A4
:1000200049C1000047C1000045C1000043C10000B4
:1000300041C100000C94F20D3DC100003BC1000025
:1000400039C1000037C1000035C1000033C10000D4
:1000500031C100002FC100002DC10000CCC3000041
:1000600029C1000074C2000049C2000023C1000081
:1000700021C100001FC100001DC100001BC1000004
:1000800019C1000017C1000015C1000013C1000014
:1000900011C100000FC100000DC100000BC1000024
:1000A00009C1000007C1000005C1000003C1000034
:1000B00001C10000FFC00000FDC00000FBC0000047
:1000C000F9C00000F7C00000F5C00000F3C0000058
:1000D000F1C00000EFC00000EDC00000EBC0000068
:1000E000E9C00000F802FB02EA02EE02F402320369
:1000F000FF02030309030D03110317031B031F036F
:100100003203250329032D034F05540559056305C3
:100110006D05E60577057F05870591059B05A50516
:10012000B405BE05E605C805D205DC0500002100C2
:10013000240027002A002D003000330001010000B8
:10014000040107010A0101021020200808102040C4
:10015000102040800201020108040201010204088B
:100160001020408080402010080402018004020119
:100170008040201008040201080402010102040862
:10018000102040800102040810204080000022005E
:10019000250028002B002E00310034000201000051
:1001A000050108010B0105050505070508080808F4
:1001B000020202020A0A08080404040401010101FF
:1001C00001010101030303030303030304070707FA
:1001D0000C0C0C0C0C0C0C0C02020202060606069F
:1001E000060606060B0B0B0B0B0B0B0B020000207D
:1001F000002300260029002C002F003200000100FF
:100200000003010601090100000A0B02090C0D0E92
:1002100008070304010000000000000000000000C7
:1002200000000000000000000000000000000000CE
:10023000000000121110000000000000000000008B
:100240000000000000000000000000000000961305
:100250006E1311241FBECFEFD1E2DEBFCDBF00E091
:100260000CBF12E0A0E0B2E0E8E2F0E300E00BBF78
:1002700002C007900D92AA32B107D9F723E0AAE293
:10028000B2E001C01D92AC3CB207E1F711E0C8E258
:10029000D1E000E006C021970109802FFE010E94F5
:1002A0002916C732D10780E00807A9F70E94510E2E
:1002B0000C940318A5CEFC01918D828D981761F0E6
:1002C000828DDF01A80FB11D5D968C91928D9F5F8D
:1002D0009F73928F90E008958FEF9FEF0895FC0138
:1002E000918D828D981731F0828DE80FF11D858DEB
:1002F00090E008958FEF9FEF0895FC01918D228D7E
:10030000892F90E0805C9F4F821B91098F73992702
:1003100008958DE592E0F1DF21E0892B09F420E0DA
:10032000822F0895FC01848DDF01A80FB11DA35A0F
:10033000BF4F2C91848D90E001968F739927848F05
:10034000A689B7892C93A089B1898C9180648C93FC
:10035000938D848D981306C00288F389E02D8081E7
:100360008F7D80830895EF92FF920F931F93CF9319
:10037000DF93EC0181E0888F9B8D8C8D981305C0F5
:10038000E889F989808185FD23C0F62E0B8D10E068
:100390000F5F1F4F0F731127E02E8C8DE8120BC0DB
:1003A0000FB607FCFACFE889F989808185FFF5CF80
:1003B000CE01B8DFF2CF8B8DFE01E80FF11DE35ABD
:1003C000FF4FF0820B8FEA89FB898081806207C032
:1003D000EE89FF896083E889F98980818064808360
:1003E00081E090E0DF91CF911F910F91FF90EF900E
:1003F0000895CF93DF93EC01888D8823C1F0EA89BB
:10040000FB89808185FD05C0A889B9898C9186FD0D
:100410000EC00FB607FCF5CF808185FFF2CFA8890B
:10042000B9898C9185FFEDCFCE017CDFE8CFDF91DC
:10043000CF91089580E090E0892B19F06ADF811157
:1004400025C080E090E0892B41F080E090E0892B8E
:1004500021F00E94000081111CC080E090E0892BF7
:1004600041F080E090E0892B21F00E940000811192
:1004700013C080E090E0892BA1F080E090E0892B10
:1004800081F00E94000081110AC008950E940000BE
:10049000D8CF0E940000E1CF0E940000EACF0C9468
:1004A000000008950F931F93CF93DF93EC01088111
:1004B00019817B836A83CB01880F991F0E94CB1619
:1004C000888399834C815D81FC01D80120E030E074
:1004D0002417350761F0309729F08D919C91119781
:1004E000918380832F5F3F4F32961296F1CFC801E0
:1004F000DF91CF911F910F910C9460171F920F9273
:100500000FB60F9211240BB60F922F933F934F9378
:100510005F936F937F938F939F93AF93BF93EF936B
:10052000FF938DE592E0FEDEFF91EF91BF91AF91D9
:100530009F918F917F916F915F914F913F912F91FB
:100540000F900BBE0F900FBE0F901F9018951F922B
:100550000F920FB60F9211240BB60F922F938F9319
:100560009F93EF93FF93E0916D02F0916E02808173
:10057000E0917302F091740282FD12C0908180912B
:1005800076028F5F8F7320917702821751F0E0918E
:100590007602F0E0E35AFD4F958F8093760201C01A
:1005A0008081FF91EF919F918F912F910F900BBEC2
:1005B0000F900FBE0F901F90189590E0FC0131979F
:1005C000E231F10508F04EC08827EE58FF4F8F4FFB
:1005D0000C942916809180008F7703C08091800051
:1005E0008F7D80938000089580918000877FF9CF70
:1005F00084B58F7702C084B58F7D84BD08958091C6
:10060000B0008F7703C08091B0008F7D8093B000E1
:100610000895809190008F7707C0809190008F7D22
:1006200003C080919000877F80939000089580910F
:10063000A0008F7707C08091A0008F7D03C08091BC
:10064000A000877F8093A0000895809120018F777C
:1006500007C0809120018F7D03C080912001877F9A
:100660008093200108951F93CF93DF93282F30E0CC
:10067000F901E95FFD4F8491F901EA5BFE4FD491E6
:10068000F901EA55FE4FC491CC23C1F0162F811118
:1006900094DFEC2FF0E0EE0FFF1FE457FE4FA59123
:1006A000B4918FB7F894111105C09C91ED2FE0958E
:1006B000E92302C0EC91ED2BEC938FBFDF91CF913A
:1006C0001F910895CF93DF9390E0FC01EA5BFE4F0A
:1006D0002491FC01EA55FE4F8491882361F190E05A
:1006E000880F991FFC01E45DFE4FC591D491FC0178
:1006F000E457FE4FA591B491611109C09FB7F894DA
:100700008881209582238883EC912E230BC0623050
:1007100061F49FB7F8943881822F80958323888372
:10072000EC912E2B2C939FBF06C08FB7F894E881D5
:100730002E2B28838FBFDF91CF9108953FB7F89478
:1007400080912F0290913002A0913102B09132023B
:1007500026B5A89B05C02F3F19F00196A11DB11D1C
:100760003FBFBA2FA92F982F8827820F911DA11D57
:10077000B11DBC01CD0142E0660F771F881F991F94
:100780004A95D1F708958F929F92AF92BF92CF92E0
:10079000DF92EF92FF926B017C01D0DF4B015C0195
:1007A000C114D104E104F104E9F0C8DFDC01CB019C
:1007B00088199909AA09BB09883E9340A105B1058A
:1007C00078F321E0C21AD108E108F10888EE880E1A
:1007D00083E0981EA11CB11CC114D104E104F104F2
:1007E00021F7DECFFF90EF90DF90CF90BF90AF90DA
:1007F0009F908F9008951F920F920FB60F92112421
:100800002F933F938F939F93AF93BF9380912B022E
:1008100090912C02A0912D02B0912E0230912A02CB
:1008200023E0230F2D3720F40196A11DB11D05C033
:1008300026E8230F0296A11DB11D20932A02809362
:100840002B0290932C02A0932D02B0932E02809144
:100850002F0290913002A0913102B09132020196A4
:10086000A11DB11D80932F0290933002A0933102FD
:10087000B0933202BF91AF919F918F913F912F9191
:100880000F900FBE0F901F9018950F931F93CF934B
:10089000DF93EC01088119817B836A83CB01880F88
:1008A000991F0E94CB16998388838C819D81D801E2
:1008B00040E050E04817590791F0E881F9819A012A
:1008C000220F331FE20FF31F309729F02D913C9137
:1008D0001197318320834F5F5F4F1296EBCFC80192
:1008E000DF91CF911F910F910C9460170F931F937D
:1008F000CF93DF93EC01088119817B836A83CB015D
:10090000880F991F0E94CB16998388838C819D81C3
:10091000D80140E050E04817590791F0E881F9818B
:100920009A01220F331FE20FF31F309729F02D9108
:100930003C911197318320834F5F5F4F1296EBCF2D
:10094000C801DF91CF911F910F910C946017CF9345
:10095000DF93EC0160E0888186DE61E08A81DF91CF
:10096000CF9181CECF93DF93EC01EDE5F2E0A0894A
:10097000B18982E08C93A485B5851C92A685B78544
:100980008FEC8C93108EA489B58986E08C93A28914
:10099000B3898C9180618C93A289B3898C91886092
:1009A0008C93A289B3898C9180688C930288F38997
:1009B000E02D80818F7D808361E08C8183DE61E02A
:1009C000888180DE61E08A817DDEDF91CF910895AC
:1009D000CF93DF93FC016287662319F0DF91CF91FB
:1009E000B6CFEC0161E080813EDE60E08A81DF917C
:1009F000CF9139CECF92DF92EF92FF920F931F9358
:100A0000CF93DF93EC016A017B0120E030E04FE7F8
:100A100053E4C701B6010E94C716181674F020E00F
:100A200030E0A901C701B6010E94451687FF0BC03F
:100A3000F7FAF094F7F8F09406C0C12CD12C8FE7A8
:100A4000E82E83E4F82ECE82DF82E886F986C7019D
:100A5000B6010E9449166B017C018B010C80DD817F
:100A6000C02D61E08C2F2EDEC114D10409F4B1C079
:100A70000F3F110509F4AFC0FE01FF27E95FFD4FED
:100A8000E4914E2F50E0FA013197E231F10508F080
:100A90009DC08827EC57FF4F8F4F0C94291684B5C3
:100AA000806884BDC7BCA2C084B5806284BDC8BC58
:100AB0009DC080918000806880938000D0928900E2
:100AC000C092880093C080918000806280938000F3
:100AD000D0928B00C0928A0089C08091800088608B
:100AE00080938000D0928D00C0928C007FC0809156
:100AF000B00080688093B000C092B30077C080914E
:100B0000B00080628093B000C092B4006FC080914A
:100B10009000806880939000D0929900C0929800D5
:100B200065C080919000806280939000D0929B007D
:100B3000C0929A005BC08091900088608093900082
:100B4000D0929D00C0929C0051C08091A00080680E
:100B50008093A0008091A0008F7B8093A000D09212
:100B6000A900C092A80042C08091A000806280933A
:100B7000A000D092AB00C092AA0038C08091A00023
:100B800088608093A000D092AD00C092AC002EC0CF
:100B900080912001806880932001D0922901C09229
:100BA000280124C080912001806280932001D0928E
:100BB0002B01C0922A011AC0809120018860809385
:100BC0002001D0922D01C0922C0110C000381105D7
:100BD00014F460E001C061E08C2FDF91CF911F9190
:100BE0000F91FF90EF90DF90CF903DCDDF91CF91AF
:100BF0001F910F91FF90EF90DF90CF9008950F938A
:100C00001F93CF93DF93EC018B016817790709F4E9
:100C100065C0DB0114966D917C9115978A819B814B
:100C20008617970710F4CE013DDC8C819D81F80179
:100C3000448155818417950708F4AC0180E090E069
:100C40008417950791F09C01220F331FD801ED9175
:100C5000FC91E20FF31F60817181E881F981E20F5D
:100C6000F31F718360830196EBCF8C819D81F80126
:100C7000248135818217930768F0D80114968D91ED
:100C80009C9115972C813D818217930738F59D83A0
:100C90008C8324C09C01220F331FD80114964D91E0
:100CA0005C9115978417950740F7F801A081B181F1
:100CB000A20FB31FE881F981E20FF31F309721F0F3
:100CC0004D915C91518340834C815D814F5F5F4FBB
:100CD0005D834C8301962E5F3F4FDFCFCE01DF91C6
:100CE000CF911F910F910895EF92FF920F931F9351
:100CF000CF93DF9300D01F92CDB7DEB78C01FC01FC
:100D000075836483CB010896938382837C01EE0C08
:100D1000FF1CC70149835A836B837C830E94CB16D7
:100D2000F8018083918397012051310949815A81CB
:100D3000240F351FDA01FC01A217B30741F08D9192
:100D40009D91309711F0918380833296F5CF0F906B
:100D50000F900F900F90DF91CF911F910F91FF9007
:100D6000EF9008950F931F93CF93DF93EC010881C9
:100D700019817B836A83CB01880F991F880F991F84
:100D80000E94CB1688839983FC01D80120E030E0D3
:100D90008C819D812817390780F4309749F04D9157
:100DA0005D916D917C91139740835183628373832E
:100DB0002F5F3F4F34961496EBCFC801DF91CF9150
:100DC0001F910F910C946017EF92FF920F931F9356
:100DD000CF93DF93EC017B01FB01048115811D831F
:100DE0000C83C80108969B838A83880F991F0E94F1
:100DF000CB1688839983FC0120E030E0201731076F
:100E000091F0E701A881B981C901880F991FA80F46
:100E1000B91F309721F08D919C91918380832F5F32
:100E20003F4F3296EBCFDF91CF911F910F91FF9003
:100E3000EF900895EF92FF920F931F93CF93DF935C
:100E4000EC018C819D818C010F5F1F4F80179107F2
:100E500028F57B012A813B812017310740F4BC0132
:100E6000675F7F4F2617370710F4CE011BDB8C819D
:100E70009D819C01220F331F8017910790F4E88118
:100E8000F981E20FF31F309729F0D7014D915C9162
:100E90005183408301962E5F3F4FEECF081719070D
:100EA00010F41D830C83DF91CF911F910F91FF9060
:100EB000EF900895CF93DF93EC0188859985009793
:100EC00011F00E9460178E8187FD04C060E0DF9101
:100ED000CF91F8CBDF91CF910895FC018081918172
:100EE0000C9460172F923F924F925F926F927F9275
:100EF0008F929F92AF92BF92CF92DF92EF92FF922A
:100F00000F931F93CF93DF9300D0CDB7DEB7DC01F3
:100F10002D903C90119714968D919C911597880F68
:100F2000991FF101E80FF91FFA83E983CC24CA94D1
:100F3000DC2C760188E4482E88EE582E66246394D3
:100F4000712CF10129813A812216330609F4EDC290
:100F500022E0220E311C00811181C8010B978531DE
:100F60009E4408F080C2809117039091180320914D
:100F70000002281305C0ECEEF1E0F491FB8307C1F9
:100F80002F3F09F06BC280930002ECEEF1E0249158
:100F90002F3F09F463C2223009F480C074F5222384
:100FA00009F45BC0213009F0F1C01092800010926A
:100FB0008100209181002860209381002091810090
:100FC0002160209381009C013327F901EA55FE4FEF
:100FD000E491F0E0EE0FFF1FE457FE4F459154916E
:100FE0005093450240934402F901EA5BFE4FE491BD
:100FF000E0934302F1E0FB83CDC0243009F49EC0AE
:101000000CF474C0253009F0C1C010922001109278
:1010100021012091210128602093210120912101AB
:101020002160209321019C013327F901EA55FE4FED
:10103000E491F0E0EE0FFF1FE457FE4F459154910D
:1010400050933C0240933B02F901EA5BFE4FE4916E
:10105000E0933A02B5E0BB839DC014BC15BC24B537
:10106000226024BD25B5216025BD9C013327F901EF
:10107000EA55FE4FE491F0E0EE0FFF1FE457FE4FFC
:10108000459154915093480240934702F901EA5B1D
:10109000FE4FE491E09346021B827CC01092B000A8
:1010A0001092B1002091B00022602093B0002091F6
:1010B000B10021602093B1009C013327F901EA556A
:1010C000FE4FE491F0E0EE0FFF1FE457FE4F459115
:1010D00054915093350240933402F901EA5BFE4F7C
:1010E000E491E093330222E02B8354C010929000ED
:1010F00010929100209191002860209391002091FE
:1011000091002160209391009C013327F901EA5559
:10111000FE4FE491F0E0EE0FFF1FE457FE4F4591C4
:1011200054915093420240934102F901EA5BFE4F11
:10113000E491E093400233E03B832CC01092A00086
:101140001092A1002091A10028602093A10020917D
:10115000A10021602093A1009C013327F901EA55E9
:10116000FE4FE491F0E0EE0FFF1FE457FE4F459174
:10117000549150933F0240933E02F901EA5BFE4FC7
:10118000E491E0933D02A4E0AB8304C02B83EB81A8
:10119000E7FD64C161E096DA4801A12CB12C8B8196
:1011A0008D7F09F097C060E472E48FE090E0A501C4
:1011B00094010E940D16BA01A9014150510961091B
:1011C0007109FB81F230E9F44F3F5105610571056A
:1011D00009F00CF4A8C160E970ED83E090E0A5018E
:1011E00094010E940D16BA01A901415051096109EB
:1011F00071094F3F51056105710509F0DCF583E088
:1012000062C04F3F51056105710591F08CF0C3013B
:10121000B201A50194010E940D16BA01A901415025
:101220005109610971092B81222309F422C173C17B
:1012300082E09B819923C9F046C060E072E18AE7B1
:1012400090E0A50194010E940D16DA01C9012AE07F
:10125000B595A795979587952A95D1F7AC01BD01CE
:10126000415051096109710985E095B5987F892B35
:1012700085BD8EC0C301B201A50194010E940D1667
:10128000BA01A90141505109610971094F3F510546
:101290006105710509F00CF4EAC064E274EF80E0C6
:1012A00090E0A50194010E940D16BA01A9014150D8
:1012B0005109610971094F3F51056105710511F02F
:1012C0000CF0F6C085E09091B100987F892B809357
:1012D000B1004BC060E072E18AE790E0A5019401A3
:1012E0000E940D16DA01C9010197A109B109009701
:1012F000E1E0AE07B10524F4AC01BD0181E00DC011
:10130000C301B201A50194010E940D16BA01A90101
:10131000415051096109710983E0FB81F13039F4D1
:1013200090918100987F892B8093810040C02B8110
:10133000233039F490919100987F892B809391000C
:1013400058C03B81343039F49091A100987F892BAB
:101350008093A10060C09B81953039F49091210168
:10136000987F892B8093210168C0AB81A23089F1DD
:1013700034F4AA2369F0A13009F070C018C0BB8111
:10138000B43009F448C0ACF1B53009F456C066C0B9
:1013900047BDC0925902D0925A02E0925B02F0928D
:1013A0005C0280916E00826080936E0057C0509303
:1013B000890040938800C0925502D0925602E09274
:1013C0005702F092580280916F00826080936F0004
:1013D00045C04093B300C0923602D0923702E092EB
:1013E0003802F09239028091700082608093700020
:1013F00035C05093990040939800C0925102D0920A
:101400005202E0925302F092540280917100826085
:101410008093710023C05093A9004093A800C0920C
:101420004D02D0924E02E0924F02F0925002809113
:10143000720082608093720011C050932901409322
:101440002801C0924902D0924A02E0924B02F092E7
:101450004C028091730082608093730068E873E1AE
:1014600080E090E090D98091170378D36ACD84E032
:101470002ACF4F3F510561057105C1F0BCF062E113
:101480007AE780E090E0A50194010E940D16BA0170
:10149000A90141505109610971094F3F5105610589
:1014A000710511F00CF0C9CE84E0DFCE83E0DDCE13
:1014B00062E17AE780E090E0A50194010E940D16B8
:1014C000BA01A90141505109610971094F3F510504
:1014D00061057105F1F0ECF060E072E18AE790E0FF
:1014E000A50194010E940D16DA01C9013AE0B595F3
:1014F000A795979587953A95D1F7AC01BD014150D5
:101500005109610971093B81332309F4ADCE87E0AC
:10151000DACE86E08ECE4F3F51056105710509F0A8
:101520003CF684E086CE82E0CECE0F900F900F90F6
:10153000DF91CF911F910F91FF90EF90DF90CF90AF
:10154000BF90AF909F908F907F906F905F904F90E3
:101550003F902F9008950F931F93CF93DF93CDB7B4
:10156000DEB729970FB6F894DEBF0FBECDBFE6D821
:1015700000918403109185032091860330918703A5
:10158000DC01CB01801B910BA20BB30BC297A10511
:10159000B10568F3F89480917A0390917B039A8364
:1015A0008983E0917E03F0917F03DF0111968081B2
:1015B000898790917603E0918803F0918903809167
:1015C0008A03992309F42EC09081982B98879081E3
:1015D000809589238F838F818C8388E08B835885C6
:1015E0006F8149853B812C8189819A81508347FD98
:1015F000252F3A952083262F39F0441F00C0000084
:101600006083000000C0F2CF38E04D91608300009D
:10161000019761F7F0938903E093880349873B833F
:101620002C8338C09081982B98879081809589234E
:101630008F838F818E8388E08D8358856F81498564
:101640003D812E8189819A81508347FD252F00C0DD
:1016500000C0208300C000C000C000C000C0608384
:101660000000262F3A9541F0441F000000C000C042
:1016700000C000C000C0E8CF38E04D9100C06083DA
:1016800000C0019709F7F0938903E0938803498725
:101690003D832E839A838983789450D86093840302
:1016A00070938503809386039093870329960FB6E2
:1016B000F894DEBF0FBECDBFDF91CF911F910F9188
:1016C00008954F925F926F927F928F929F92AF9206
:1016D000BF92CF92DF92EF92FF920F931F93CF931F
:1016E000DF93CDB7DEB72E970FB6F894DEBF0FBEEF
:1016F000CDBF7C018B016A01998788877B876A87C8
:101700005D874C87AE01485F5F4F63E070E09E01EC
:10171000225F3F4FCE010196E7DABE016F5F7F4F38
:101720008FE693E06CDACE010196D7DB60E070E0E3
:1017300040E050E080E090E027015524D801BB272D
:101740005601BB249C2C20916B0330916C038217B3
:1017500093070CF057C020917803309179038217DA
:10176000930708F049C020917D03211104C0892C02
:10177000102FFE2C19C030E0429E6001439ED00C19
:10178000529ED00C1124FD2CA29F6001A39FD00C6F
:10179000B29FD00C11241D2DA29E6001A39ED00CDF
:1017A000B29ED00C11248D2CD0908303C090800366
:1017B00020917E0330917F03DC1003C0240F351F7E
:1017C00007C0260F371F39016D0C711CF301108201
:1017D000D090800339016D0C711CF301F082F09000
:1017E00081036901CF0CD11CF60110831091820393
:1017F000210F311DF901808201964D5F5F4F6C5FB3
:101800007F4FA1CF80917E0390917F03892B09F0B8
:10181000A2DE2E960FB6F894DEBF0FBECDBFDF91CD
:10182000CF911F910F91FF90EF90DF90CF90BF90DD
:10183000AF909F908F907F906F905F904F900895A2
:101840000F931F93CF93DF932091050330910603ED
:101850002817390790F58B01EC01809103039091D3
:1018600004038C179D0748F4BE01685F7F4F8617FD
:10187000970718F481E093E008D8809105039091D0
:1018800006039C01220F331F8C179D0788F4E091FB
:101890000103F0910203E20FF31F309729F0D80102
:1018A0004D915C915183408301962E5F3F4FECCF69
:1018B000D0930603C093050307C08217930720F453
:1018C0009093060380930503DF91CF911F910F91B1
:1018D00008950F931F93CF93DF932091FE023091D1
:1018E000FF022817390798F58B01EC018091FC0263
:1018F0009091FD028C179D0750F4BE01685F7F4FE9
:101900008617970720F48AEF92E00E947604809170
:10191000FE029091FF029C01220F331F8C179D073E
:1019200088F4E091FA02F091FB02E20FF31F309786
:1019300029F0D8014D915C915183408301962E5F2F
:101940003F4FECCFD093FF02C093FE0207C0821737
:10195000930720F49093FF028093FE02DF91CF91D2
:101960001F910F9108950F931F93CF93DF93609171
:10197000520370915303EB0121966C177D0788F594
:101980008C0180915003909151038C179D0740F476
:10199000675F7F4F8617970718F48EE493E0E2D9CC
:1019A0002091520330915303C901880F991F880F6A
:1019B000991F2C173D07C0F4E0914E03F0914F039F
:1019C000E80FF91F309749F0D8014D915D916D9165
:1019D0007C9140835183628373832F5F3F4F0496D2
:1019E000E8CFC617D70720F4D0935303C093520310
:1019F000DF91CF911F910F910895CF92DF92EF92D7
:101A0000FF920F931F93CF93DF936C017A018B01A9
:101A1000C0E0D0E0CE15DF0589F0D8016D918D01D1
:101A2000D601ED91FC910190F081E02DC601199550
:101A3000892B11F47E0102C02196ECCFC701DF9102
:101A4000CF911F910F91FF90EF90DF90CF9008956D
:101A50000E94F817EF92FF920F931F93CF93DF939B
:101A600000914E0310914F03C0915203D091530344
:101A7000CC0FDD1FCC0FDD1FC00FD11F0C171D07B2
:101A800061F1F801208131813327F901E95FFD4FD0
:101A90008491F901EA5BFE4FE490F901EA55FE4FAB
:101AA000F490FF2091F081110E94DD02EF2DF0E013
:101AB000EE0FFF1FE351FE4FA591B491EC91EE2183
:101AC00091E080E021F490E002C090E080E0F80135
:101AD000928383830C5F1F4FD1CFE0914E03F0912F
:101AE0004F0382819381892B99F086819781892B7D
:101AF00091F082859385892B89F086859785892B3E
:101B000081F082899389892B79F080E090E00EC082
:101B100081E090E00BC082E090E008C083E090E0BC
:101B200005C084E090E002C085E090E0DF91CF91B5
:101B30001F910F91FF90EF900895009761F0FC01C5
:101B400001900020E9F73197AF01481B590BBC0108
:101B50008DE592E052CF80E090E0089590910002F0
:101B600098133DC0ECEEF1E0E4919FEF90930002FA
:101B7000E230C9F050F4EE2399F0E13081F5909114
:101B80006F009D7F90936F002AC0E43019F1E0F060
:101B9000E53029F5909173009D7F909373001FC0ED
:101BA00010926E001CC0909170009D7F9093700009
:101BB00091E09093B0009091B100987F94609093E1
:101BC000B1001092B3000BC0909171009D7F909373
:101BD000710005C0909172009D7F9093720060E04B
:101BE0000C9433031F920F920FB60F9211240BB671
:101BF0000F922F933F934F935F936F937F938F93A6
:101C00009F93AF93BF93EF93FF9380913602909190
:101C10003702A0913802B0913902892B8A2B8B2B85
:101C200051F180913302E0913402F09135029081BC
:101C3000892780838091360290913702A0913802E3
:101C4000B0913902181619061A061B06BCF48091C9
:101C5000360290913702A0913802B0913902019773
:101C6000A109B1098093360290933702A0933802FC
:101C7000B093390203C08091000270DFFF91EF91B1
:101C8000BF91AF919F918F917F916F915F914F9194
:101C90003F912F910F900BBE0F900FBE0F901F9092
:101CA0001895CF93DF93CDB7DEB7EF970FB6F894C3
:101CB000DEBF0FBECDBF789484B5826084BD84B58D
:101CC000816084BD85B5826085BD85B5816085BD37
:101CD00080916E00816080936E00109281008091EF
:101CE0008100826080938100809181008160809377
:101CF0008100809180008160809380008091B1009C
:101D000084608093B1008091B00081608093B000C6
:101D10008091910082608093910080919100816018
:101D200080939100809190008160809390008091D9
:101D3000A10082608093A1008091A10081608093C6
:101D4000A1008091A00081608093A000809121017A
:101D50008260809321018091210181608093210123
:101D60008091200181608093200180917A008460BD
:101D700080937A0080917A00826080937A008091CB
:101D80007A00816080937A0080917A0080688093E5
:101D90007A001092C1008DEB93E00E94B20482EBB6
:101DA00093E00E94B204E0906903F0906A03A0906F
:101DB0006B03B0906C031A8218861F86188A198AE2
:101DC0001A8A81E08E878B871C8692E09D878983A3
:101DD0006501CC0CDD1CCA0CDB1CDE82CD82C60189
:101DE000DAD79A878987009741F0A60160E070E012
:101DF0000E94FC17BC82AB8204C01E821D821C8222
:101E00001B82EF828A81882341F061E08E2D0E943F
:101E1000620360E08E2D0E943303C7019927FC0105
:101E2000EA55FE4FE491F0E0EE0FFF1FE457FE4F3E
:101E3000259134913C8B2B8BFC01EA5BFE4F849106
:101E40008D8B85E1FE013196A6E7B3E001900D92FE
:101E50008A95E1F7CE0101962DD880917C0387FD0C
:101E600008C061E00E94620360E080917C030E94F0
:101E7000330381E08093770380917E0390917F0309
:101E8000892B09F068DB80915D0390915E03A0913E
:101E90005F03B09160038AAB9BABACABBDABCE0133
:101EA000C29661DD8091610390916203A09163030A
:101EB000B09164038EA79FA7A8ABB9ABCE018E9655
:101EC00052DD8091590390915A03A0915B03B09128
:101ED0005C038AA79BA7ACA7BDA7CE018A9643DD6A
:101EE0008091650390916603A0916703B0916803A8
:101EF0008EA39FA3A8A7B9A7CE01869634DD8091B3
:101F0000550390915603A0915703B09158038AA3AB
:101F10009BA3ACA3BDA3CE01829625DD8DEB93E000
:101F20009FAF8EAF8091FE029091FF02BE01625C76
:101F30007F4F0196CEDC82EB93E09DAF8CAF80911A
:101F4000FE029091FF02BE01645C7F4F0196C1DCEE
:101F500087EA93E09BAF8AAF8091050390910603D7
:101F6000BE01665C7F4F01966BDC8CE993E099AF14
:101F700088AF8091050390910603BE01685C7F4F96
:101F800001965EDC81E993E09FAB8EAB8091050307
:101F900090910603BE016A5C7F4F019651DCC090B0
:101FA0000C03D0900D0376018FEFE81AF80ACE14D7
:101FB000DF0408F053C080910A0390910B038E1543
:101FC0009F0590F59601275F3F4F8217930760F5B5
:101FD000009108031091090330930B0320930A0327
:101FE000C901880F991FD7D69093090380930803DE
:101FF000D80140E050E04C155D05A1F0E0910803E8
:10200000F09109039A01220F331FE20FF31F30975B
:1020100029F08D919C911197918380834F5F5F4F41
:102020001296E9CFC8014CD780910C0390910D0313
:102030009C01220F331F49E653E08E159F0588F45B
:10204000E0910803F0910903E20FF31F309711F0BC
:102050005183408301962E5F3F4FEFCFEC14FD0478
:1020600020F4F0920D03E0920C038AE493E0909345
:10207000100380930F0340E050E060E070E080E0E8
:1020800090E01FDB65E373E0CE0101960E94E40659
:10209000CE0101960E947207CE0101960E946D0743
:1020A00011E05AE0452E512C612C712CD3DC833089
:1020B0009105D1F06CF42091130330911403813019
:1020C000910561F0029709F0DDC22150310908C085
:1020D0008430910549F00597E1F0D4C22F5F3F4F5E
:1020E00030931403209313036CE373E0CE01019645
:1020F0000E94E406CE0101960E947207CE0101966D
:102100000E946D076AEF70E080E090E00E94C303D8
:10211000B9C263E473E0CE0101960E94E406CE01E9
:1021200001960E947207CE0101960E946D078DE113
:1021300092E003DDC0901103D09012030D2C000C2F
:10214000EE08FF08F7FE26C0E0915D02F0915E0206
:102150000190F081E02D6DE28DE592E01995222746
:102160003327A9012C193D094E095F0919A2FE0167
:10217000B1967F01CA01B901A30192012CD5605D1E
:10218000F70162937F01211531054105510591F752
:10219000CF0115C0A701960119A2CE0181965C015D
:1021A000CA01B901A301920116D5605DF5016293E0
:1021B0005F01211531054105510591F7CF01BDDCC6
:1021C00087E292E0BADC80911103909112030097AC
:1021D00059F0019709F052C242E450E06DE170E01D
:1021E00088E890E06EDAA3C16AEF70E080E090E0EA
:1021F0000E94C30341E350E06AEF70E081E090E0A9
:1022000060DAC12CD12C2091050330910603809116
:10221000010390910203C216D30608F040C0960154
:10222000220F331FFC01E20FF31FE080F18061E019
:10223000F70182810E943303F7018481863308F01D
:10224000865390917B00282F2870977F922B909334
:102250007B008770806480937C0080917A0080642A
:1022600080937A0080917A0086FDFCCFA090780060
:1022700080917900B12CB82A60E0F70182810E9438
:102280003303F70186819781A816B90614F01287E7
:1022900002C0F7011286FFEFCF1ADF0AB4CF6C013C
:1022A000DC0140E050E000E04217530771F06D910F
:1022B0007D91FB01F284FF2029F060857185672BF9
:1022C00009F401E04F5F5F4FEFCF002379F1E09118
:1022D000FA02F091FB0260E0808191810E94E804A3
:1022E000E091FA02F091FB0282819381FC01128756
:1022F0000E94A704E091FA02F091FB0240E050E056
:10230000BA01808191810E94FA04E091FA02F09171
:10231000FB0240E050E066E972E4828193810E9412
:10232000FA0468EE73E080E090E046C0DC0140E033
:1023300050E090E04217530779F06D917D91FB01D9
:102340008285882331F060857185161617060CF496
:1023500091E04F5F5F4FEECF992389F1E091FA0250
:10236000F091FB0280819181FC0112870E94A704F9
:10237000E091FA02F091FB0260E0828193810E9479
:10238000E804E091FA02F091FB0240E050E066E9D7
:1023900072E4808191810E94FA04E091FA02F09146
:1023A000FB0240E050E0BA01828193810E94FA046E
:1023B0006AEF70E080E090E00E94C30363C080E0B9
:1023C00090E040E08217930789F0F601A191B19166
:1023D0006F011A965C911A97552331F018966D91FA
:1023E0007C91199777FD41E00196ECCFE091FA02DC
:1023F000F091FB0280819181FC0112874423F9F066
:102400000E94A704E091FA02F091FB0260E0828151
:1024100093810E94E804E091FA02F091FB0240E00F
:1024200050E0BA01808191810E94FA04E091FA02A1
:10243000F091FB0240E050E066E972E4B5CF0E9403
:10244000A704E091FA02F091FB0260E0828193819F
:102450000E94E804E091FA02F091FB0240E050E0B3
:102460006AEF72E4808191810E94FA04E091FA029D
:10247000F091FB0240E050E066E972E482819381D2
:102480000E94FA04E7DA059709F0BBCE6AEF70E024
:1024900080E090E00E94C303E091FA02F091FB0219
:1024A00040E050E0BA01808191810E94FA04E091FD
:1024B000FA02F091FB0240E050E0BA018281938180
:1024C0000E94FA04DBC0029709F0A7C045E750E07C
:1024D0006FEF70E08CE290E0F4D8E091FA02F091B6
:1024E000FB0280819181FC0112870E94A704E09188
:1024F000FA02F091FB0260E0828193810E94E8047D
:10250000E091FA02F091FB0240E050E0BA018081D4
:1025100091810E94FA04E091FA02F091FB0240E0FE
:1025200050E066E972E4828193810E94FA046AEFC6
:1025300070E080E090E00E94C3038CDA8330910564
:10254000D9F44CE150E069EF70E089E790E0B9D848
:10255000E091FA02F091FB0260E0808191810E949B
:10256000E804E091FA02F091FB0282819381FC0180
:1025700012870E94A70421C0843091053CF1843069
:10258000910509F05DC044E150E063E570E081E849
:1025900090E097D8E091FA02F091FB02808191815E
:1025A000FC0112870E94A704E091FA02F091FB025D
:1025B00060E0828193810E94E804E091FA02F09148
:1025C000FB0240E050E06AEF72E4A1CF8130910558
:1025D00009F079CF49E250E060E070E088E590E0F2
:1025E00070D8E091FA02F091FB0280819181FC01A8
:1025F00012870E94A704E091FA02F091FB0260E0CA
:10260000828193810E94E804E091FA02F091FB023A
:1026100040E050E06AEF72E407C0E091FA02F09106
:10262000FB0240E050E0BA01808191810E94FA04EF
:10263000E091FA02F091FB0240E050E0BA0173CF62
:10264000059759F7E091FA02F091FB0240E050E063
:10265000BA01808191810E94FA04E091FA02F0911E
:10266000FB0240E050E0BA01828193810E94FA04AB
:102670006EEE72E080E090E00E94C30310921403BB
:1026800010921303809113039091140397FF03C0DA
:10269000919581959109609115037091160388D2E7
:1026A0009093120380931103892B39F44FEF50E07C
:1026B00060E870E080E090E004D880911103909190
:1026C0001203019741F44EE350E061E070E087EEC1
:1026D00090E00E94610B0E941A02E8CCCF93DF9336
:1026E000CAEFD2E08E859F85EBD38F819885E8D3A2
:1026F00088819981E5D383E493E00E946D078CE3A0
:1027000093E00E946D0785E393E00E946D0780913E
:102710004E0390914F03D4D386E793E00E945A076B
:102720008FE693E0DF91CF910C946D07AF92BF924B
:10273000DF92EF92FF920F931F93CF93DF93CDB76A
:10274000DEB72E970FB6F894DEBF0FBECDBFEDE516
:10275000F2E01382128288EE93E0A0E0B0E084837E
:102760009583A683B7838BE092E09183808385EC89
:1027700090E09587848784EC90E09787868780EC4B
:1027800090E0918B808B81EC90E0938B828B82EC3C
:1027900090E0958B848B86EC90E0978B868B118EE6
:1027A000128E138E148E0DEB13E089E090E0F80189
:1027B0009183808388E0E82EF12CF382E2828AE024
:1027C00090E09583848340E050E0BA01C8010E9404
:1027D000FA04DD24D394F801D286C8010E94A7042C
:1027E00002EB13E087E090E0F8019183808386E0BC
:1027F00090E09383828395E0A92EB12CB582A482C8
:1028000040E050E0BA01C8010E94FA04F801D28603
:10281000C8010E94A704E7EAF3E085E290E0938311
:10282000828380E490E09583848322E830E03783DC
:1028300026838FEF9FEF9187808781E090E09183DF
:102840008083ECE9F3E047E250E05383428341E4C4
:1028500050E0558344833783268311861086918305
:102860008083E1E9F3E049E250E05383428342E4AC
:1028700050E05583448337832683918780879183F3
:10288000808309E613E0F80182A193A199878887E4
:1028900084A195A19B878A8786A197A19D878C8714
:1028A000AE01485F5F4F63E070E09E012F5F3F4FD6
:1028B0008FE693E00E947406F801D5861686108A8A
:1028C0001786128A118A8FEF838B148A168A158ACB
:1028D000D78A108E82E0818FD28E138E148E158E41
:1028E000168E8CE290E091838083B382A282148260
:1028F000158247E152E063E070E09E01225F3F4FA6
:10290000CE0101960E947406BE016F5F7F4F8FE675
:1029100093E00E94FF05CE0101960E946D0786E1BB
:1029200090E0909366038093650360E00E946203E9
:1029300087E190E0909362038093610360E00E94DE
:10294000620388E190E090935E0380935D0360E012
:102950000E94620389E190E090935A0380935903A7
:1029600060E00E9462038AE190E0909356038093B6
:10297000550360E00E9462030AE413E0F801F78265
:10298000E6821186108680E290E005D2F8019583F8
:10299000848307E113E08BE092E0F8019383828364
:1029A0008AE292E0958384838BE492E09783868326
:1029B0008EE692E09187808783E992E09387828711
:1029C0008AEB92E09587848783EE92E097878687EB
:1029D0008FE093E0918B808B8EE393E0938B828BDF
:1029E00080E793E0958B848B84EA93E0978B868BCA
:1029F0008BED93E0918F808F8CE291E0938F828FAB
:102A000084E690E0958F848FF1A2E0A213A212A237
:102A100080E190E0C0D1F801978F868FF0A6E7A201
:102A200012A611A680E190E0B6D1F80196A385A385
:102A3000F7A6E6A611AA10AA80E190E0ACD1F801B1
:102A400095A784A78BE090E09183808360E00E944B
:102A5000620369E173E085E393E00E941A071A823A
:102A60001982BE016F5F7F4F85E393E00E941A07D2
:102A700069E173E085E393E00E941A071A821982E4
:102A8000BE016F5F7F4F85E393E00E941A076FE2FC
:102A900073E085E393E00E941A071A821982BE014F
:102AA0006F5F7F4F85E393E00E941A076FE273E048
:102AB00085E393E00E941A0769E173E08CE393E0F9
:102AC0000E941A0769E173E083E493E00E941A0709
:102AD0001A821982BE016F5F7F4F83E493E00E94E8
:102AE0001A0761E273E083E493E00E941A071A82F6
:102AF0001982BE016F5F7F4F83E493E00E941A0743
:102B000067E273E083E493E00E941A071A82198255
:102B1000BE016F5F7F4F83E493E00E941A07F801C4
:102B200082819381880F991F9A838983BE016F5F89
:102B30007F4F83E493E00E941A07E1E1F3E082E033
:102B400090E09583848311821082138212820AEFAF
:102B500012E0F801F382E2821582148280E190E0B3
:102B60001AD1F80191838083F286E1861486138658
:102B700080E190E010D1F80190878783F18AE08AA4
:102B8000138A128A80E190E006D1F8019787868740
:102B90002E960FB6F894DEBF0FBECDBFDF91CF915A
:102BA0001F910F91FF90EF90DF90BF90AF9008952D
:102BB00097FB072E16F4009406D077FD08D051D06D
:102BC00007FC05D03EF4909581959F4F0895709530
:102BD00061957F4F0895A1E21A2EAA1BBB1BFD0130
:102BE0000DC0AA1FBB1FEE1FFF1FA217B307E407EC
:102BF000F50720F0A21BB30BE40BF50B661F771F44
:102C0000881F991F1A9469F7609570958095909523
:102C10009B01AC01BD01CF010895052E97FB16F471
:102C200000940FD057FD05D0D6DF07FC02D046F444
:102C300008C050954095309521953F4F4F4F5F4FBD
:102C4000089590958095709561957F4F8F4F9F4F18
:102C50000895EE0FFF1F881F8BBF0790F691E02DA0
:102C60001994AA1BBB1B51E107C0AA1FBB1FA617C3
:102C7000B70710F0A61BB70B881F991F5A95A9F725
:102C800080959095BC01CD01089534D008F481E081
:102C9000089504D06894B11174C0089557D088F095
:102CA0009F5790F0B92F9927B751A0F0D1F0660F38
:102CB000771F881F991F1AF0BA95C9F712C0B13053
:102CC00081F05ED0B1E008955BC0672F782F882730
:102CD000B85F39F0B93FCCF3869577956795B39592
:102CE000D9F73EF490958095709561957F4F8F4F01
:102CF0009F4F0895990F0008550FAA0BE0E8FEEFCB
:102D000016161706E807F907C0F012161306E407AF
:102D1000F50798F0621B730B840B950B39F40A26A8
:102D200061F0232B242B252B21F408950A2609F486
:102D3000A140A6958FEF811D811D089557FD9058E4
:102D4000440F551F59F05F3F71F04795880F97FB6F
:102D5000991F61F09F3F79F0879508951216130629
:102D60001406551FF2CF4695F1DF08C01616170658
:102D70001806991FF1CF869571056105089408958D
:102D8000E894BB2766277727CB0197F90895B2DF30
:102D900008F48FEF0895CF93DF938230910510F4FC
:102DA00082E090E0E091CA03F091CB0320E030E0B4
:102DB000C0E0D0E0309711F14081518148175907A8
:102DC000C0F04817590761F482819381209719F068
:102DD0009B838A832BC09093CB038093CA0326C026
:102DE0002115310519F04217530718F49A01BE0155
:102DF000DF01EF010280F381E02DDCCF21153105E9
:102E000009F1281B390B2430310590F412968D916D
:102E10009C9113976115710521F0FB0193838283C7
:102E200004C09093CB038093CA03FD01329644C043
:102E3000FD01E20FF31F81939193225031092D93ED
:102E40003C933AC02091C8033091C903232B41F42D
:102E500020910302309104023093C9032093C803E8
:102E600020910102309102022115310541F42DB764
:102E70003EB74091050250910602241B350BE091AC
:102E8000C803F091C903E217F307A0F42E1B3F0B10
:102E90002817390778F0AC014E5F5F4F24173507CC
:102EA00048F04E0F5F1F5093C9034093C8038193AE
:102EB000919302C0E0E0F0E0CF01DF91CF9108955F
:102EC0000F931F93CF93DF93009709F48CC0FC01FD
:102ED0003297138212820091CA031091CB0301151D
:102EE000110581F420813181820F931F2091C80345
:102EF0003091C9032817390779F5F093C903E09396
:102F0000C80371C0D80140E050E0AE17BF0750F4CD
:102F100012962D913C911397AD012115310509F1C0
:102F2000D901F3CF9D01DA0133832283608171815E
:102F3000860F971F8217930769F4EC012881398166
:102F4000260F371F2E5F3F4F318320838A819B815D
:102F500093838283452B29F4F093CB03E093CA0338
:102F600042C01396FC93EE931297ED01499159914B
:102F70009E01240F351FE217F30771F480819181C0
:102F8000840F951F029611969C938E938281938154
:102F900013969C938E931297E0E0F0E0D80112967E
:102FA0008D919C911397009719F0F8018C01F6CF41
:102FB0008D919C9198012E5F3F4F820F931F20911E
:102FC000C8033091C9032817390769F4309729F4E9
:102FD0001092CB031092CA0302C013821282109384
:102FE000C9030093C803DF91CF911F910F910895FA
:102FF00081E090E0F89407C0DC0101C06D9341507E
:103000005040E0F7089511E0C8E2D1E000E005C0CB
:10301000802FFE011EDE2196011DC932D10780E0FE
:083020000807B1F7F894FFCF97
:10302800FF0000CC03800000000000B301FD0C7D10
:10303800015B016F01F90100000000000063686F87
:0A304800696365203D20000D0A00B9
:00000001FF
