:100000001BC1000049C1000047C1000045C10000FC
:1000100043C1000041C100003FC100003DC10000DC
:100020003BC1000039C1000037C1000035C10000EC
:1000300033C10000E8C300002FC100002DC1000043
:100040002BC1000029C1000027C1000025C100000C
:1000500023C1000021C100001FC1000076C60000BE
:100060001BC1000097C400006CC4000015C1000053
:1000700013C1000011C100000FC100000DC100003C
:100080000BC1000009C1000007C1000005C100004C
:1000900003C1000001C10000FFC00000FDC000005E
:1000A000FBC00000F9C00000F7C00000F5C0000070
:1000B000F3C00000F1C00000EFC00000EDC0000080
:1000C000EBC00000E9C00000E7C00000E5C0000090
:1000D000E3C00000E1C00000DFC00000DDC00000A0
:1000E000DBC000002F05320521052505290569051E
:1000F00036053A054005440548054E0552055605A6
:1001000069055C0560056405E005E505EA05F4059B
:10011000FE05770608061006180622062C06360687
:1001200045064F067706590663066D060102102044
:10013000200808102040102040800201020108041D
:1001400002010102040810204080804020100804B1
:10015000020180040201804020100804020108040A
:10016000020101020408102040800102040810204E
:10017000408000002200250028002B002E003100C6
:10018000340002010000050108010B010505050509
:10019000070508080808020202020A0A08080404FF
:1001A000040401010101010101010303030303032D
:1001B0000303040707070C0C0C0C0C0C0C0C0202BC
:1001C000020206060606060606060B0B0B0B0B0BB9
:1001D0000B0B0200002100240027002A002D003014
:1001E00000330001010000040107010A0100000AB8
:1001F0000B02090C0D0E08070304010000000000AB
:1002000000000000000000000000000000000000EE
:1002100000000000000000000012111000000000AB
:1002200000000000000000000000000000000000CE
:1002300000000000D20BAF0B11241FBECFEFD1E2A4
:10024000DEBFCDBF00E00CBF12E0A0E0B2E0EAE20A
:10025000F0E200E00BBF02C007900D92AE31B10793
:10026000D9F723E0AEE1B2E001C01D92AE3CB20787
:10027000E1F711E0CBE1D1E000E006C021970109F0
:10028000802FFE010E940E0ECA31D10780E00807C0
:10029000A9F7CCD70C940410B3CECF92DF92EF9293
:1002A000FF920F931F93CF93DF936C017A018B0121
:1002B000C0E0D0E0CE15DF0589F0D8016D918D0149
:1002C000D601ED91FC910190F081E02DC6011995C8
:1002D000892B11F47E0102C02196ECCFC701DF917A
:1002E000CF911F910F91FF90EF90DF90CF900895E5
:1002F000FC01918D828D981761F0828DDF01A80F2E
:10030000B11D5D968C91928D9F5F9F73928F90E04F
:1003100008958FEF9FEF0895FC01918D828D9817BE
:1003200031F0828DE80FF11D858D90E008958FEFFB
:100330009FEF0895FC01918D228D892F90E0805CC4
:100340009F4F821B91098F739927089587E492E04C
:10035000F1DF21E0892B09F420E0822F0895FC01D0
:10036000848DDF01A80FB11DA35ABF4F2C91848D3E
:1003700090E001968F739927848FA689B7892C9373
:10038000A089B1898C9180648C93938D848D98130E
:1003900006C00288F389E02D80818F7D80830895D7
:1003A000EF92FF920F931F93CF93DF93EC0181E0C5
:1003B000888F9B8D8C8D981305C0E889F989808181
:1003C00085FD23C0F62E0B8D10E00F5F1F4F0F73BE
:1003D0001127E02E8C8DE8120BC00FB607FCFACF68
:1003E000E889F989808185FFF5CFCE01B8DFF2CFAA
:1003F0008B8DFE01E80FF11DE35AFF4FF0820B8F4A
:10040000EA89FB898081806207C0EE89FF89608369
:10041000E889F98980818064808381E090E0DF91C0
:10042000CF911F910F91FF90EF900895CF93DF939D
:10043000EC01888D8823C1F0EA89FB89808185FDE4
:1004400005C0A889B9898C9186FD0EC00FB607FC3E
:10045000F5CF808185FFF2CFA889B9898C9185FF7E
:10046000EDCFCE017CDFE8CFDF91CF91089580E022
:1004700090E0892B19F06ADF811125C080E090E0BF
:10048000892B41F080E090E0892B21F00E94000050
:1004900081111CC080E090E0892B41F080E090E069
:1004A000892B21F00E940000811113C080E090E0B0
:1004B000892BA1F080E090E0892B81F00E94000060
:1004C00081110AC008950E940000D8CF0E94000048
:1004D000E1CF0E940000EACF0C94000008950F9332
:1004E0001F93CF93DF93CDB7DEB729970FB6F8945C
:1004F000DEBF0FBECDBF04D40091860310918703E9
:100500002091880330918903DC01CB01801B910B82
:10051000A20BB30BC297A105B10568F3F8948091C3
:100520007C0390917D039A838983E0918003F0910D
:100530008103DF0111968081898790917803E09192
:100540008A03F0918B0380918C03992309F42EC0C8
:100550009081982B98879081809589238F838F81B4
:100560008C8388E08B8358856F8149853B812C8102
:1005700089819A81508347FD252F3A952083262F24
:1005800039F0441F00C000006083000000C0F2CFBB
:1005900038E04D9160830000019761F7F0938B0381
:1005A000E0938A0349873B832C8338C09081982B42
:1005B00098879081809589238F838F818E8388E0AF
:1005C0008D8358856F8149853D812E8189819A81EE
:1005D000508347FD252F00C000C0208300C000C00D
:1005E00000C000C000C060830000262F3A9541F093
:1005F000441F000000C000C000C000C000C0E8CF21
:1006000038E04D9100C0608300C0019709F7F09376
:100610008B03E0938A0349873D832E839A838983E2
:1006200078946ED3609386037093870380938803D6
:100630009093890329960FB6F894DEBF0FBECDBF05
:10064000DF91CF911F910F9108950F931F93CF9337
:10065000DF932091EF023091F0022817390790F5CF
:100660008B01EC018091ED029091EE028C179D07B9
:1006700048F4BE01685F7F4F8617970718F48BEE2A
:1006800092E0ADD38091EF029091F0029C01220F95
:10069000331F8C179D0788F4E091EB02F091EC0278
:1006A000E20FF31F309729F0D8014D915C915183EF
:1006B000408301962E5F3F4FECCFD093F002C09362
:1006C000EF0207C08217930720F49093F002809303
:1006D000EF02DF91CF911F910F9108950F931F9318
:1006E000CF93DF932091E8023091E9022817390770
:1006F00090F58B01EC018091E6029091E7028C1756
:100700009D0748F4BE01685F7F4F8617970718F46E
:1007100084EE92E094D38091E8029091E9029C01EA
:10072000220F331F8C179D0788F4E091E402F091AB
:10073000E502E20FF31F309729F0D8014D915C914B
:100740005183408301962E5F3F4FECCFD093E90257
:10075000C093E80207C08217930720F49093E90240
:100760008093E802DF91CF911F910F9108950F932D
:100770001F93CF93DF936091540370915503EB0166
:1007800021966C177D0788F58C018091520390911A
:1007900053038C179D0740F4675F7F4F86179707B9
:1007A00018F480E593E086D42091540330915503EA
:1007B000C901880F991F880F991F2C173D07C0F496
:1007C000E0915003F0915103E80FF91F309749F081
:1007D000D8014D915D916D917C91408351836283ED
:1007E00073832F5F3F4F0496E8CFC617D70720F4D7
:1007F000D0935503C0935403DF91CF911F910F9174
:1008000008950E94F90F1F920F920FB60F921124B4
:100810000BB60F922F933F934F935F936F937F93FA
:100820008F939F93AF93BF93EF93FF938091210298
:1008300090912202A0912302B0912402892B8A2B4D
:100840008B2B59F180912002E0911E02F0911F0242
:100850009081892780838091210290912202A0912A
:100860002302B0912402181619061A061B060CF072
:1008700055C08091210290912202A0912302B09153
:1008800024020197A109B1098093210290932202C9
:10089000A0932302B093240241C080910002E2EDB4
:1008A000F1E0E4919FEF90930002E230C9F050F440
:1008B000EE2399F0E13081F590916F009D7F909348
:1008C0006F002AC0E43019F1E0F0E53029F590918D
:1008D00073009D7F909373001FC010926E001CC028
:1008E000909170009D7F9093700091E09093B00084
:1008F0009091B100987F94609093B1001092B300F2
:100900000BC0909171009D7F9093710005C09091F4
:1009100072009D7F9093720060E072D0FF91EF9122
:10092000BF91AF919F918F917F916F915F914F9107
:100930003F912F910F900BBE0F900FBE0F901F9005
:1009400018951F920F920FB60F9211240BB60F92AB
:100950002F933F934F935F936F937F938F939F93C7
:10096000AF93BF93EF93FF9387E492E0F8DCFF919E
:10097000EF91BF91AF919F918F917F916F915F9117
:100980004F913F912F910F900BBE0F900FBE0F9084
:100990001F9018951F920F920FB60F9211240BB64D
:1009A0000F922F938F939F93EF93FF93E0915702B2
:1009B000F09158028081E0915D02F0915E0282FD2B
:1009C00012C09081809160028F5F8F7320916102CD
:1009D000821751F0E0916002F0E0E95BFD4F958FE6
:1009E0008093600201C08081FF91EF919F918F9170
:1009F0002F910F900BBE0F900FBE0F901F90189568
:100A0000362F90E0FC01E351FE4F4491FC01E45D80
:100A1000FE4F2491FC01E457FE4F9491992309F471
:100A20006BC0442309F455C050E0FA013197E2311C
:100A3000F10508F04EC08827EE58FF4F8F4F0C94F9
:100A40000E0E809180008F7707C0809180008F7D8F
:100A500003C080918000877F809380003AC084B576
:100A60008F7702C084B58F7D84BD33C08091B00084
:100A70008F7703C08091B0008F7D8093B00029C034
:100A8000809190008F7707C0809190008F7D03C088
:100A900080919000877F809390001BC08091A00080
:100AA0008F7707C08091A0008F7D03C08091A00048
:100AB000877F8093A0000DC0809120018F7707C0B1
:100AC000809120018F7D03C080912001877F8093DA
:100AD0002001E92FF0E0EE0FFF1FEE58FE4FA59129
:100AE000B4918FB7F894EC91311103C020952E2367
:100AF00001C02E2B2C938FBF0895CF93DF9390E0EE
:100B0000FC01E45DFE4F2491FC01E457FE4F84910B
:100B1000882361F190E0880F991FFC01ED52FE4F90
:100B2000C591D491FC01EE58FE4FA591B49161118D
:100B300009C09FB7F8948881209582238883EC911F
:100B40002E230BC0623061F49FB7F8943881822F56
:100B5000809583238883EC912E2B2C939FBF06C016
:100B60008FB7F894E8812E2B28838FBFDF91CF9128
:100B700008951F93CF93DF93182FEB0161E0BDDF42
:100B8000209711F460E004C0CF3FD10531F461E05B
:100B9000812FDF91CF911F9133CFE12FF0E0E3510F
:100BA000FE4FE4914E2F50E0FA013197E231F1050A
:100BB00008F09DC08827EC57FF4F8F4F0C940E0E06
:100BC00084B5806884BDC7BD97C084B5806284BD8C
:100BD000C8BD92C080918000806880938000D093CF
:100BE0008900C093880088C08091800080628093D3
:100BF0008000D0938B00C0938A007EC080918000DB
:100C0000886080938000D0938D00C0938C0074C066
:100C10008091B00080688093B000C093B3006CC036
:100C20008091B00080628093B000C093B40064C033
:100C300080919000806880939000D0939900C09339
:100C400098005AC080919000806280939000D09369
:100C50009B00C0939A0050C0809190008860809360
:100C60009000D0939D00C0939C0046C08091A0004E
:100C700080688093A0008091A0008F7B8093A0006B
:100C8000D093A900C093A80037C08091A0008062D3
:100C90008093A000D093AB00C093AA002DC0809198
:100CA000A00088608093A000D093AD00C093AC00FA
:100CB00023C080912001806880932001D093290176
:100CC000C093280119C08091200180628093200187
:100CD000D0932B01C0932A010FC08091200188601E
:100CE00080932001D0932D01C0932C0105C0C03802
:100CF000D1050CF04CCF46CFDF91CF911F910895D5
:100D00003FB7F8948091430290914402A09145022C
:100D1000B091460226B5A89B05C02F3F19F0019659
:100D2000A11DB11D3FBFBA2FA92F982F8827820F71
:100D3000911DA11DB11DBC01CD0142E0660F771FC1
:100D4000881F991F4A95D1F708951F920F920FB6E9
:100D50000F9211242F933F938F939F93AF93BF9341
:100D600080913F0290914002A0914102B0914202D5
:100D700030913E0223E0230F2D3720F40196A11D70
:100D8000B11D05C026E8230F0296A11DB11D2093B9
:100D90003E0280933F0290934002A0934102B093A1
:100DA00042028091430290914402A0914502B09189
:100DB00046020196A11DB11D809343029093440207
:100DC000A0934502B0934602BF91AF919F918F913E
:100DD0003F912F910F900FBE0F901F9018950F937A
:100DE0001F93CF93DF93EC01088119817B836A8382
:100DF000CB01880F991FD0D7998388838C819D81DF
:100E0000D80140E050E04817590791F0E881F98196
:100E10009A01220F331FE20FF31F309729F02D9113
:100E20003C911197318320834F5F5F4F1296EBCF38
:100E3000C801DF91CF911F910F910C94610F0F9317
:100E40001F93CF93DF93EC01088119817B836A8321
:100E5000CB01880F991FA0D7998388838C819D81AE
:100E6000D80140E050E04817590791F0E881F98136
:100E70009A01220F331FE20FF31F309729F02D91B3
:100E80003C911197318320834F5F5F4F1296EBCFD8
:100E9000C801DF91CF911F910F910C94610FCF93F7
:100EA000DF93EC01E7E4F2E0A089B18982E08C9362
:100EB000A485B5851C92A685B7858FEC8C93108E82
:100EC000A489B58986E08C93A289B3898C918061CD
:100ED0008C93A289B3898C9188608C93A289B38901
:100EE0008C9180688C930288F389E02D80818F7DBE
:100EF000808361E08C8101DE61E08881FEDD61E05C
:100F00008A81FBDDDF91CF910895EF92FF920F93DD
:100F10001F93CF93DF93EC018B016817790709F4D6
:100F200084C0DB0114962D913C9115978A819B8199
:100F30008217930708F5E880F9803B832A83C9016B
:100F4000880F991F29D7888399834C815D81D701A8
:100F5000FC0120E030E02417350761F0309729F0DC
:100F60008D919C911197918380832F5F3F4F1296B3
:100F70003296F1CFC701A5D78C819D81F8014481BC
:100F800055818417950708F4AC0180E090E0841740
:100F9000950791F09C01220F331FD801ED91FC9130
:100FA000E20FF31F60817181E881F981E20FF31F85
:100FB000718360830196EBCF8C819D81F801248140
:100FC00035818217930768F0D80114968D919C9112
:100FD00015972C813D818217930738F59D838C836B
:100FE00024C09C01220F331FD80114964D915C91AF
:100FF00015978417950740F7F801A081B181A20FDA
:10100000B31FE881F981E20FF31F309721F04D9172
:101010005C91518340834C815D814F5F5F4F5D8365
:101020004C8301962E5F3F4FDFCFCE01DF91CF91F2
:101030001F910F91FF90EF900895EF92FF920F9301
:101040001F93CF93DF9300D01F92CDB7DEB78C01F3
:10105000FC0175836483CB010896938382837C01B2
:10106000EE0CFF1CC70149835A836B837C8394D6A3
:10107000F8018083918397012051310949815A8178
:10108000240F351FDA01FC01A217B30741F08D913F
:101090009D91309711F0918380833296F5CF0F9018
:1010A0000F900F900F90DF91CF911F910F91FF90B4
:1010B000EF9008950F931F93CF93DF93EC01088176
:1010C00019817B836A83CB01880F991F880F991F31
:1010D00063D688839983FC01D80120E030E08C81BD
:1010E0009D812817390780F4309749F04D915D9123
:1010F0006D917C91139740835183628373832F5F3B
:101100003F4F34961496EBCFC801DF91CF911F91DA
:101110000F91D7C6CF93DF93EC018885998500970F
:1011200009F0CFD68E8187FD04C060E0DF91CF91BA
:10113000E4CCDF91CF910895AF92BF92CF92DF922E
:10114000EF92FF920F931F93CF93DF93EC01EC800C
:10115000FD8087010F5F1F4FE016F10608F04EC0BB
:101160006B018A819B818017910758F59701275F52
:101170003F4F8217930728F5A880B9803B832A83C5
:10118000C901880F991F880F991F06D688839983F4
:10119000D501FC0120E030E02E153F0581F03097AD
:1011A00049F04D915D916D917C91139740835183EE
:1011B000628373832F5F3F4F14963496EDCFC50142
:1011C00080D68C819D819C01220F331F220F331FFB
:1011D00080179107B0F4E881F981E20FF31F30978F
:1011E00049F0D6014D915D916D917C914083518381
:1011F0006283738301962C5F3F4FEACF0E151F0564
:1012000010F41D830C83DF91CF911F910F91FF90FC
:10121000EF90DF90CF90BF90AF900895FC01808158
:1012200091814FC6FC01808191814BC6CF93DF93A2
:10123000CDB7DEB7EA970FB6F894DEBF0FBECDBFCD
:10124000789484B5826084BD84B5816084BD85B5A1
:10125000826085BD85B5816085BD80916E008160AD
:1012600080936E0010928100809181008260809353
:101270008100809181008160809381008091800055
:101280008160809380008091B10084608093B10080
:101290008091B00081608093B00080919100826065
:1012A0008093910080919100816080939100809162
:1012B00090008160809390008091A1008260809373
:1012C000A1008091A10081608093A1008091A00085
:1012D00081608093A0008091210182608093210130
:1012E00080912101816080932101809120018160A2
:1012F0008093200180917A00846080937A008091AD
:101300007A00826080937A0080917A008160809375
:101310007A0080917A00806880937A001092C100F0
:101320008FEB93E0BCDD84EB93E0B9DD00916B03C0
:1013300010916C03C0906D03D0906E031A821886D2
:101340001F86188A198A1A8A81E08E878B871C86E5
:1013500092E09D8789837601EE0CFF1CEC0CFD1C4E
:10136000FE82ED82C70118D59A878987009739F0E8
:10137000A70160E070E041D6DC82CB8204C01E820F
:101380001D821C821B820F838A81882331F061E0D9
:10139000802FB3DB60E0802F33DB1127F801E457A7
:1013A000FE4FE491F0E0EE0FFF1FEE58FE4F8591E7
:1013B00094919C8B8B8BF801E45DFE4F04910D8B17
:1013C00085E1FE013196A8E7B3E001900D928A9580
:1013D000E1F7CE0101969EDE80917E0387FD06C077
:1013E00061E08BDB60E080917E030ADB81E080932B
:1013F00079038091800390918103892B09F06FD844
:1014000080915F0390916003A0916103B0916203AA
:101410008CA79DA7AEA7BFA7CE018C96A8D9809117
:10142000630390916403A0916503B091660388A75C
:1014300099A7AAA7BBA7CE01889699D980915B03EB
:1014400090915C03A0915D03B0915E038CA39DA37A
:10145000AEA3BFA3CE0184968AD9809167039091F1
:101460006803A0916903B0916A0388A399A3AAA312
:10147000BBA3CE0180967BD98091570390915803EE
:10148000A0915903B0915A038C8F9D8FAE8FBF8F5F
:10149000CE014C966CD98FEB93E099AF88AF8091D9
:1014A000E8029091E902BE01685C7F4F019616D96F
:1014B00084EB93E09FAB8EAB8091E8029091E902C0
:1014C000BE016A5C7F4F019609D989EA93E09DAB22
:1014D0008CAB8091EF029091F002BE016C5C7F4F6B
:1014E0000196B3D88EE993E09BAB8AAB8091EF0273
:1014F0009091F002BE016E5C7F4F0196A6D883E901
:1015000093E099AB88AB8091EF029091F002BE011D
:10151000605D7F4F019699D8E090F602F090F70257
:1015200087010F5F1F4FE016F10608F053C080914E
:10153000F4029091F5028017910790F59701275FCB
:101540003F4F8217930760F5C090F202D090F302EC
:101550003093F5022093F402C901880F991F1CD41F
:101560009093F3028093F202D60140E050E04E15D2
:101570005F05A1F0E091F202F091F3029A01220FCF
:10158000331FE20FF31F309729F08D919C91119733
:10159000918380834F5F5F4F1296E9CFC60191D44C
:1015A0008091F6029091F7029C01220F331F4BE6C7
:1015B00053E08017910788F4E091F202F091F30272
:1015C000E20FF31F309711F05183408301962E5F95
:1015D0003F4FEFCF0E151F0520F41093F702009335
:1015E000F6028CE493E09093FA028093F9021F8A4A
:1015F0001E8A198E188E1B8E1A8E8E010A5E1F4F40
:10160000A80163E070E09E01265C3F4FCE01019689
:1016100014DDBE016F5F7F4F81E793E076DCCE0182
:10162000019600DEE0E0F0E060E070E040E050E0D5
:1016300080916D0390916E034817590794F580913E
:101640007A0390917B034817590728F52091850369
:10165000309182038091800390918103231303C012
:10166000860F971F06C08E0F9F1FDC01A20FB11DB2
:101670001C9220918203DC01A20FB11D1C922091CB
:101680008303DC01A20FB11D1C9220918403DC01B5
:10169000A20FB11D1C924F5F5F4F6D5F7F4F34965D
:1016A000C7CF8091800390918103892B11F00E9414
:1016B0006F0288E0E82EF12CFC82EB821E821D82F4
:1016C00080E290E069D39A83898368E473E0CE0175
:1016D000019632DD68E473E0CE0101962DDD1E8AAD
:1016E0001F8A188E198EB801CE01019625DD68E497
:1016F00073E0CE01019620DD1E8A1F8A188E198E96
:10170000B801CE01019618DD68E373E0CE010196C1
:1017100013DD68E473E0CE0101960EDD1E8A1F8A98
:10172000188E198EB801CE01019606DD609138033E
:101730007091390380913A0390913B039B01AC0176
:1017400076D26E8B7F8B888F998FB801CE010196F0
:10175000F3DCCE01019662DD0E943702ADCFCF935C
:10176000DF93C4EED2E08E859F85ABD38F819885C1
:10177000A8D388819981A5D385E193E04FDD8EE0E0
:1017800093E04CDD87E093E049DD80915003909138
:10179000510397D388E793E0BDDC81E793E0DF91C5
:1017A000CF9140CDAF92BF92DF92EF92FF920F9315
:1017B0001F93CF93DF93CDB7DEB72E970FB6F89474
:1017C000DEBF0FBECDBFE7E4F2E01382128288EEE7
:1017D00093E0A0E0B0E084839583A683B7838BE099
:1017E00092E09183808385EC90E09587848784ECF8
:1017F00090E09787868780EC90E0918B808B81ECDE
:1018000090E0938B828B82EC90E0958B848B86ECBE
:1018100090E0978B868B118E128E138E148E0FEBA9
:1018200013E089E090E0F8019183808388E0E82E5E
:10183000F12CF382E2828AE090E095838483168221
:1018400017821086118660E070E093D9DD24D3946E
:10185000F801D28660E08081D3D861E0F80182810E
:10186000CFD804EB13E087E090E0F8019183808308
:1018700086E090E09383828395E0A92EB12CB58217
:10188000A482168217821086118660E070E085E0DF
:1018900070D9F801D28660E08081B2D861E0F801A9
:1018A0008281AED8E9EAF3E085E290E09383828317
:1018B00080E490E09583848322E830E037832683B8
:1018C0008FEF9FEF9187808781E090E09183808305
:1018D000EEE9F3E047E250E05383428341E450E015
:1018E00055834483378326831186108691838083B2
:1018F000E3E9F3E049E250E05383428342E450E0FD
:10190000558344833783268391878087918380839F
:101910000BE613E0F80182A193A19987888784A13F
:1019200095A19B878A8786A197A19D878C87AE0109
:10193000485F5F4F63E070E09E012F5F3F4F81E79C
:1019400093E07BDBF801D5861686108A1786128A0B
:10195000118A8FEF838B148A168A158AD78A108E84
:1019600082E0818FD28E138E148E158E168E8CE2AD
:1019700090E091838083B382A2821482158247E132
:1019800052E063E070E09E01225F3F4FCE0101967E
:1019900054DBBE016F5F7F4F81E793E0B6DACE0183
:1019A000019640DC86E190E09093680380936703A2
:1019B00060E0A3D887E190E0909364038093630391
:1019C00060E09BD888E190E09093600380935F0390
:1019D00060E093D889E190E090935C0380935B038F
:1019E00060E08BD88AE190E090935803809357038E
:1019F00060E083D80CE413E0F801F782E6821186F8
:101A0000108680E290E0C8D1F8019583848301E0DC
:101A100013E08CE291E0F8019383828384E690E006
:101A200095838483F186E0861386128680E290E0B7
:101A3000B3D1F80197838683F08AE786128A118AE8
:101A400080E290E0A9D1F80196878587F78AE68A37
:101A5000118E108E80E290E09FD1F801958B848BDF
:101A600080E090EDA2E0B4E4838F948FA58FB68FD1
:101A70008EEA97E9AAE0B4E4878F90A3A1A3B2A36A
:101A80008FE195EDA2E1B4E483A394A3A5A3B6A34B
:101A900080E090E9ABE1B4E487A390A7A1A7B2A747
:101AA00084EA90EDA4E2B4E483A794A7A5A7B6A71F
:101AB00081E79DE9AEE2B4E487A790ABA1ABB2ABFE
:101AC0008CE59FEFA8E3B4E483AB94ABA5ABB6ABD6
:101AD0008CE59FEFA3E4B4E487AB90AFA1AFB2AFC6
:101AE0008AE097EAAFE4B4E483AF94AFA5AFB6AFB2
:101AF00080E090E0ACE5B4E4809340039093410330
:101B0000A0934203B09343038FE195E1A9E6B4E4C7
:101B10008093440390934503A0934603B0934703F7
:101B200088E491EFA6E7B4E48093480390934903D7
:101B3000A0934A03B0934B038BE090E091838083A2
:101B400060E00E947D056CE173E087E093E0F4DAE9
:101B50006CE173E087E093E0EFDA68E473E087E03C
:101B600093E0EADA68E473E087E093E0E5DA6CE1B9
:101B700073E08EE093E0E0DA6CE173E085E193E0FE
:101B8000DBDAF801638D748D858D968D9B01AC0138
:101B90004ED069837A838B839C83BE016F5F7F4FB6
:101BA00085E193E0C9DAEBEFF2E082E090E0958323
:101BB0008483118210821382128204EE12E0F801F3
:101BC000F382E2821582148280E190E0E5D0F80190
:101BD00091838083F286E1861486138680E190E00B
:101BE000DBD0F80190878783F18AE08A138A128A12
:101BF00080E190E0D1D0F801978786872E960FB6C6
:101C0000F894DEBF0FBECDBFDF91CF911F910F9132
:101C1000FF90EF90DF90BF90AF900895EE0FFF1F01
:101C2000881F8BBF0790F691E02D19945058BB2761
:101C3000AA270ED077C068D030F06DD020F031F4F4
:101C40009F3F11F41EF45DC00EF4E095E7FB53C016
:101C5000E92F79D080F3BA176207730784079507D5
:101C600018F071F49EF591C00EF4E0950B2EBA2F8A
:101C7000A02D0B01B90190010C01CA01A001112492
:101C8000FF27591B99F0593F50F4503E68F11A163E
:101C9000F040A22F232F342F4427585FF3CF4695CF
:101CA00037952795A795F0405395C9F77EF41F16F1
:101CB000BA0B620B730B840BBAF09150A1F0FF0FBB
:101CC000BB1F661F771F881FC2F70EC0BA0F621FA7
:101CD000731F841F48F4879577956795B795F79597
:101CE0009E3F08F0B3CF9395880F08F09927EE0F29
:101CF00097958795089597F99F6780E870E060E071
:101D000008959FEF80EC089500240A941616170694
:101D100018060906089500240A94121613061406DC
:101D200005060895092E0394000C11F4882352F03F
:101D3000BB0F40F4BF2B11F460FF04C06F5F7F4FF7
:101D40008F4F9F4F089557FD9058440F551F59F0DE
:101D50005F3F71F04795880F97FB991F61F09F3F98
:101D600079F087950895121613061406551FF2CFC1
:101D70004695F1DF08C0161617061806991FF1CF11
:101D800086957105610508940895E894BB27662738
:101D90007727CB0197F90895CF93DF938230910590
:101DA00010F482E090E0E091CC03F091CD0320E0CC
:101DB00030E0C0E0D0E0309711F140815181481708
:101DC0005907C0F04817590761F482819381209721
:101DD00019F09B838A832BC09093CD038093CC030F
:101DE00026C02115310519F04217530718F49A013E
:101DF000BE01DF01EF010280F381E02DDCCF211570
:101E0000310509F1281B390B2430310590F4129665
:101E10008D919C9113976115710521F0FB019383BE
:101E2000828304C09093CD038093CC03FD0132964E
:101E300044C0FD01E20FF31F8193919322503109B9
:101E40002D933C933AC02091CA033091CB03232BAE
:101E500041F420910302309104023093CB0320938C
:101E6000CA0320910102309102022115310541F48B
:101E70002DB73EB74091050250910602241B350B49
:101E8000E091CA03F091CB03E217F307A0F42E1BF5
:101E90003F0B2817390778F0AC014E5F5F4F2417CE
:101EA000350748F04E0F5F1F5093CB034093CA0392
:101EB0008193919302C0E0E0F0E0CF01DF91CF91F8
:101EC00008950F931F93CF93DF93009709F48CC06D
:101ED000FC013297138212820091CC031091CD0342
:101EE0000115110581F420813181820F931F20910A
:101EF000CA033091CB032817390779F5F093CB0348
:101F0000E093CA0371C0D80140E050E0AE17BF07AC
:101F100050F412962D913C911397AD012115310586
:101F200009F1D901F3CF9D01DA0133832283608166
:101F30007181860F971F8217930769F4EC0128813E
:101F40003981260F371F2E5F3F4F318320838A81CF
:101F50009B8193838283452B29F4F093CD03E093F7
:101F6000CC0342C01396FC93EE931297ED01499176
:101F700059919E01240F351FE217F30771F48081F8
:101F80009181840F951F029611969C938E93828166
:101F9000938113969C938E931297E0E0F0E0D80122
:101FA00012968D919C911397009719F0F8018C016E
:101FB000F6CF8D919C9198012E5F3F4F820F931F1A
:101FC0002091CA033091CB032817390769F4309761
:101FD00029F41092CD031092CC0302C01382128216
:101FE0001093CB030093CA03DF91CF911F910F9100
:101FF000089581E090E0F89407C0DC0101C06D9382
:1020000041505040E0F7089511E0CBE1D1E000E00D
:1020100005C0802FFE0102DE2196011DCC31D107C3
:0A20200080E00807B1F7F894FFCF45
:10202A00FF0000CE03800000000000D0014D019A9D
:0E203A000178018C0116020000000000000079
:00000001FF
