:1000000070C100009FC100009DC100009BC10000A5
:1000100099C1000097C1000095C1000093C1000084
:1000200091C100008FC100008DC100008BC1000094
:1000300089C100000C94CD1285C1000083C100006D
:1000400081C100007FC100007DC100007BC10000B4
:1000500079C1000077C1000075C100000C943A0E10
:1000600071C100000C942E0C0C94050C6BC10000A7
:1000700069C1000067C1000065C1000063C10000E4
:1000800061C100005FC100005DC100005BC10000F4
:1000900059C1000057C1000055C10000F3C3000062
:1000A00051C100004FC100004DC100004BC1000014
:1000B00049C1000047C1000045C1000043C1000024
:1000C00041C100003FC100003DC100003BC1000034
:1000D00039C1000037C1000035C1000033C1000044
:1000E00031C1000015091B09210926093F09B90979
:1000F000480A7E0B810B700B740B7A0BB80B850BC7
:10010000890B8F0B930B970B9D0BA10BA50BB80BBA
:10011000AB0BAF0BB30B1E0D230D280D320D3C0D99
:10012000B50D460D4E0D560D600D6A0D740D830D07
:100130008D0DB50D970DA10DAB0D07634236B79B25
:10014000D8A71A39685618AEBAAB558C1D3CB7CC37
:100150005763BD6DEDFD753EF6177231BF000000AF
:10016000803F08000000BE922449123EABAAAA2A92
:10017000BECDCCCC4C3E00000080BEABAAAAAA3EAD
:1001800000000000BF000000803F000000000008E9
:100190004178D3BB4387D1133D190E3CC3BD428286
:1001A000AD2B3E68EC8276BED98FE1A93E4C80EF44
:1001B000FFBE01C4FF7F3F000000000000002100DF
:1001C000240027002A002D00300033000101000028
:1001D000040107010A010000200023002600290075
:1001E0002C002F003200000100000301060109016C
:1001F00000000A0B02090C0D0E08070304010000A1
:1002000000000000000000000000000000000000EE
:1002100000000000000000000000000012111000AB
:1002200000000000000000000000000000000000CE
:100230000000000000000201021020200808102029
:100240004010204080020102010804020101020462
:100250000810204080804020100804020180040221
:100260000180402010080402010804020101020478
:100270000810204080010204081020408000002265
:1002800000250028002B002E003100340002010060
:1002900000050108010B010505050507050808080B
:1002A00008020202020A0A08080404040401010107
:1002B000010101010103030303030303030407070F
:1002C000070C0C0C0C0C0C0C0C02020202060606AD
:1002D00006060606060B0B0B0B0B0B0B0B00141E76
:1002E000181711241FBECFEFD1E2DEBFCDBF00E053
:1002F0000CBF13E0A0E0B2E0E4E9FBE400E00BBFD8
:1003000002C007900D92AC32B107D9F727E0ACE2FA
:10031000B3E001C01D92A138B207E1F711E0C0E7D8
:10032000D1E000E006C021970109802FFE010E9464
:10033000B820CF36D10780E00807A9F70E94381708
:100340000C94B9255DCE85ED8093BC008091BC00F6
:1003500084FDFCCF10924C05089540916F04262F28
:1003600030E0240F311D21323105DCF420914C05A1
:100370002430C9F4FC0180E090E0861758F43091F5
:100380006F042191DC01A35BBB4FA30FB11D2C9324
:100390000196F3CF80916F04680F60936F0480E043
:1003A000089581E0089582E008950895E0914C0455
:1003B00080914B04E81730F4F0E0E55DFB4F80815D
:1003C00090E008958FEF9FEF089590914C048091F5
:1003D0004B04981750F4E92FF0E0E55DFB4F2081C6
:1003E00030E09F5F90934C0402C02FEF3FEFC901B4
:1003F000089580914B0490E020914C04821B910958
:100400000895CF92DF92EF92FF920F931F93CF93B5
:10041000DF937C01262F972F8A0180914D05882339
:1004200091F0C62FD72F6E01C40ED51ECC15DD0559
:1004300069F06991D701ED91FC910190F081E02D77
:10044000C7011995F3CF642F822F87DFC801DF9191
:10045000CF911F910F91FF90EF90DF90CF90089573
:10046000CF93DF931F92CDB7DEB7698320914D05FF
:100470002223D1F020917005203240F021E030E0BD
:10048000FC013383228380E090E014C080914E050C
:10049000E82FF0E0E15BFA4F998190838F5F8093C2
:1004A0004E058093700504C061E0CE01019655DFD2
:1004B00081E090E00F90DF91CF9108951F93CF934B
:1004C000DF93893008F071C0282F220F220F220FEE
:1004D000285F273408F026E4C82FCC0FCC0FCC0FB0
:1004E0003C2F10E041E03217F0F48EEF830F84349C
:1004F000B8F4832F90E0FC01E453FB4F508152305D
:1005000078F4142B880F991FFC01E45BFC4FA1E0E9
:10051000B0E0842F862311F4A0E0B0E0B183A08383
:10052000440F3F5FE0CFD62F10FF04C061708C2FC7
:100530000E948C0C11FF06C06D2F627081E08C0F41
:100540000E948C0C12FF06C06D2F647082E08C0F2D
:100550000E948C0C13FF06C06D2F687083E08C0F17
:100560000E948C0C14FF06C06D2F607184E08C0F0C
:100570000E948C0C15FF06C06D2F607285E08C0FF9
:100580000E948C0C16FF06C06D2F607486E08C0FE5
:100590000E948C0C17FF09C06D2F607887E08C0FCC
:1005A000DF91CF911F910C948C0CDF91CF911F9113
:1005B0000895CF93803180F54091CA045091CB04C7
:1005C00021E030E0672B81F4B90102C0660F771F8C
:1005D0008A95E2F7CB01809590958423952390939B
:1005E000CB048093CA0418C0082E02C0220F331F08
:1005F0000A94E2F7242B352B3093CB042093CA04C2
:1006000090912A04911108C0C82F0E94BE0DBC0110
:100610008C2FCF910C948510CF9108950F931F9339
:10062000CF93DF938634D0F4C82FD0E0FE01E4539B
:10063000FB4F9081933091F48B019EEF980F9C308B
:1006400020F094ED980F933018F4B8010E94F70C45
:10065000CC0FDD1FC45BDC4F19830883DF91CF9182
:100660001F910F910895CF92DF92EF92FF920F9317
:100670001F93CF93DF93C82ED12C860104531B4FB9
:10068000F80190819F3709F4A3C0963061F49091EE
:100690002904992341F06630710529F0109229044C
:1006A0009FEF909300027B01C82FDAECD80FD03176
:1006B00050F461E070E0F2E0EF16F10411F060E058
:1006C00070E08D2F76DF9EEF9C0F9434C8F4EC2FF2
:1006D000E695E695E6958C2F8770F0E0EC56FB4F9B
:1006E00021E030E001C0220F8A95EAF7E114F1041D
:1006F00019F48081282B03C0209580812823208332
:10070000F601EE0FFF1FE45BFC4F1182108282E0C6
:10071000E816F10489F03CF4E114F104E1F0EA9404
:10072000EF2831F149C083E0E816F10469F1E6E011
:10073000EE16F104D1F140C0D03108F049C0943434
:1007400040F460E08C2F0E94BB0C60E08C2F0E9474
:100750008C0C82E02EC09434D8F560E08C2F0E947F
:10076000BB0C60E08C2F0E948C0CF801108230C012
:10077000943470F560E08C2F0E948C0C61E08C2F1B
:100780000E94BB0C81E015C09C3020F084ED8C0FE2
:100790008330F0F461E08C2F0E94BB0C60E070E0CD
:1007A0008C2F0E94F70C83E004C0C451C23080F447
:1007B00086E0F80180830CC086E392E0DF91CF9160
:1007C0001F910F91FF90EF90DF90CF900C94D0107D
:1007D000DF91CF911F910F91FF90EF90DF90CF901D
:1007E00008950F931F93CF93DF9381E080932A04A2
:1007F00080912904882329F0109229048FEF809397
:100800000002C4E9D4E0A0E2B4E0EDE9F4E089E05C
:100810008E0F119219921D928E13FBCF0AED13E0E9
:10082000C0E0DFEF8AEC8C0F803118F462E070E0FA
:1008300002C061E070E08C2F16DFF801D1938F01C8
:10084000CF5FC63479F71092CB041092CA0410928D
:100850002A04DF91CF911F910F910895CF93DF93D9
:10086000EC0188859985009711F00E9407258E81FB
:1008700087FD05C060E0DF91CF910C94BB0CDF9148
:10088000CF9108951F920F920FB60F9211240BB6BD
:100890000F922F933F934F935F936F937F938F9319
:1008A0009F93AF93BF93EF93FF938091B900887F9D
:1008B000803609F49CC068F5883209F45BC090F476
:1008C000803109F454C038F4882309F4F6C0883024
:1008D00009F44DC0F5C0883109F44CC0803209F4E8
:1008E0005DC0EEC0803409F468C048F4803309F478
:1008F00055C0883309F0E4C080934A05D8C08035DC
:1009000009F44FC0883509F45DC0883409F0D8C0B7
:10091000D6C0883909F4C7C0A8F4883709F467C07D
:1009200038F4883609F463C0803709F460C0C8C061
:10093000883809F4B8C0803909F45FC0803809F0FC
:10094000BFC05BC0803B09F486C038F4803A09F42C
:1009500066C0883A09F47FC0B3C0803C09F4A7C0E0
:10096000883C09F4A4C0883B09F48AC0A9C08091DE
:10097000270510C09091490580914805981770F59A
:10098000E091490581E08E0F80934905F0E0E85D34
:10099000FA4F80818093BB0085EC86C080934A0526
:1009A0008EC0E091490581E08E0F809349058091CA
:1009B000BB00F0E0E85DFA4F80839091490580919B
:1009C00048056EC0E091490581E08E0F809349058E
:1009D0008091BB00F0E0E85DFA4F808380914B0589
:1009E00081116DC081E08093260584EA61C083E0B7
:1009F00080934C0510929304CFCF80919304803262
:100A000008F051C0E091930481E08E0F809393042D
:100A10008091BB00F0E0ED58FB4F8083BDCF85ECAB
:100A20008093BC0010924C0580919304803230F486
:100A3000E0919304F0E0ED58FB4F10826091930435
:100A400070E0E0917104F091720483E794E01995ED
:100A50001092930435C084E080934C05109270048A
:100A600010926F04E0916D04F0916E0419958091DD
:100A70006F04811105C081E080936F0410924D04D2
:100A8000E091700481E08E0F80937004F0E0E35BEE
:100A9000FB4F80818093BB009091700480916F0424
:100AA000981708F479CF85E88093BC0009C085ECDD
:100AB0008093BC0010924C0503C010924A0543DCA1
:100AC000FF91EF91BF91AF919F918F917F916F9126
:100AD0005F914F913F912F910F900BBE0F900FBEE2
:100AE0000F901F901895FC01808191810C9407252F
:100AF0000F931F93CF93082F10E0F801EC56FB4F94
:100B00009081C62FC923005E1B4F411104C0D8013C
:100B10009C919C1771F1682F80910E0690910F06A1
:100B2000DC01ED91FC916F7060690190F081E02D26
:100B3000199580910E0690910F06DC01ED91FC91C4
:100B40006C2F6F770190F081E02D199580910E0642
:100B500090910F06DC01ED91FC916C2F70E0660F17
:100B6000672F661F770B0190F081E02D1995F80132
:100B7000C083CF911F910F9108950F931F93CF932F
:100B8000DF93082F893008F06FC090E0FC01E35636
:100B9000FB4F6083672B09F467C0FC01EC56FB4FE9
:100BA0001081D02FDD0FDD0FDD0F8EEF8D0F843420
:100BB00008F04AC010FF48C08D2F86D6892B09F453
:100BC00043C0C1E08FEF8D0F843440F411FF06C0A5
:100BD00081E08D0F79D6892B09F038C012FF05C04E
:100BE00082E08D0F71D6892B99F513FF05C083E044
:100BF0008D0F6AD6892B71F514FF05C084E08D0F27
:100C000063D6892B49F515FF05C085E08D0F5CD6AD
:100C1000892B21F5D03481F016FF05C086E08D0FB9
:100C200053D6892BE9F4DF3338F417FF05C087E08A
:100C30008D0F4AD6892BB1F441E06C2F802FDF91C4
:100C4000CF911F910F9154CFC0E0BCCFC260C6CFEF
:100C5000C460CBCFC860D0CFC061D5CFC062DACF7F
:100C6000C064E1CFC068E8CFDF91CF911F910F91B1
:100C70000895EF92FF920F931F93CF93DF93082F66
:100C8000EB01142F6F3F8FEF7807E9F081E080933D
:100C90004D0500936F0510924E051092700589E680
:100CA00096E0DEDB0E94E211E091D803F091D903D7
:100CB000E230F10550F0EE0FFF1FEE0FFF1F3597EA
:100CC0003197F1F702C0C0E0D0E080914C0581116E
:100CD000FCCF212F113208F020E281E080934C05F7
:100CE00080934B059FEF90934A0510924905920F10
:100CF000909348058093270580912705902F990FA1
:100D0000892B8093270580912605813061F410920C
:100D10002605809127058093BB008091BC0083FD50
:100D2000F8CF85EC01C085EE8093BC0080914C0526
:100D30008130E1F380914905821710F42091490533
:100D4000A8E2B5E04BE254E0FA018E2F841B821733
:100D500018F48D918193F9CF10924C0420934B0499
:100D6000E12EF12C30E0E216F3061CF487E492E069
:100D700005C02E153F0524F484E692E00E94D010B1
:100D800000932C03C0932D03C0E0D0E0CE15DF0507
:100D900034F490914B0480914C0498130DC062E0A0
:100DA000610F4CE253E087E7DF91CF911F910F91E4
:100DB000FF90EF900C949B1089E696E006DBFE0115
:100DC000E45DFC4F82832196E1CFEF92FF920F9377
:100DD0001F93CF93DF93CDB7DEB728970FB6F89464
:100DE000DEBF0FBECDBF262F8A018F3609F451C159
:100DF00088F48B3609F46FC18D3609F4B1C1893698
:100E000009F05DC380EF0E94D5118AE60E94D511DA
:100E10001AECF3C1883709F4DEC018F4863741F0C4
:100E20004EC38A3709F41FC1833A09F4EAC147C3A4
:100E3000DA0111968C91982F987185FF03C080E894
:100E400092E054C0FA018081983081F170F49111E0
:100E500036C391E090934D0580936F0510924E0537
:100E600010927005B2E0FB2E07C0903109F438C033
:100E7000983109F46BC023C3F21688F4F801EF0D22
:100E8000F11D81816081F0E88F9F6019112489E64E
:100E900096E02887E5DAF394F3942885EDCF0E9455
:100EA000E21183E191E00197F1F709C34281638187
:100EB000263071F4B0E86B9FB0011124640F711DEE
:100EC000F80195814481F0E89F9F4019112406C0E4
:100ED00020E8629F401911246FEF7FEFCADEEFC256
:100EE000E0910002E7302CF080EA92E00E94D010FE
:100EF000E6C2DA0112969C91129713963C916630E5
:100F000089F4B0E83B9F90011124290F311DDA01CB
:100F100015964C91159714969C91B0E84B9F90199B
:100F2000112406C0F0E83F9F901911242FEF3FEFE6
:100F3000EF5FE093000244E0E402F0011124E65583
:100F4000FB4F8083328321839383B9C230910002A7
:100F5000131624F08FEF80930002B1C220E0632FBC
:100F6000032E000C770B422F50E06417750764F0D6
:100F7000440F551F440F551FFA01E655FB4F908152
:100F8000981701F12F5FEFCF20E01CC02830C8F484
:100F9000DC01AA0FBB1FAA0FBB1FA255BB4F4C9170
:100FA000880F991F880F991FFC01E655FB4F40835E
:100FB00011968D919C9112979283818313968C91B7
:100FC00083832F5F822F90E068177907FCF63150FA
:100FD0003093000274C2DA012C9111968C91B0E822
:100FE0008B9FC0011124820F911D009721F09093D7
:100FF000D9038093D80380912904811160C210E045
:101000008CEE810F823020F466E070E0812F2BDBC4
:101010001F5F1634A9F781E08093290410924C04D5
:1010200010924B0410924E051092700510924C05D0
:1010300080934B051092260561E084E16DD461E058
:1010400085E16AD48091B9008E7F8093B900809148
:10105000B9008D7F8093B90088E48093B80085E45F
:101060008093BC002CC2623008F429C2FA012081AE
:101070008181F0E88F9FC0011124820F911D8A3079
:10108000910514F48AE090E09093020280930102AB
:1010900016C2623008F413C2DA0111966C911197EE
:1010A00070E02230A1F012968C91B0E88B9FC001C5
:1010B0001124682B792B233051F0FA01838190E0C1
:1010C00090E4899F902D88271124682B792BD801D3
:1010D0008C91A4DAF4C180EF0E94D5118CE60E94B5
:1010E000D5111EEF8CEC810F803138F482E00E9424
:1010F000D5118AE00E94D51102C01C3020F086ED87
:10110000810F833030F483E00E94D51188E00E9483
:10111000D511143430F484E00E94D5118EE00E9481
:10112000D5118EEE810F823030F486E00E94D51109
:1011300081E00E94D5118FE70E94D5111F5F143402
:10114000F9F0143478F680E00E94D51181E00E9415
:10115000D51181E00E94D51181E00E94D511C2CF46
:10116000662309F4ACC1FA01008180EF0E94D51119
:101170008EE60E94D511802F0E94D511063420F0F2
:1011800087EF0E94D5119BC110E0F801E453FB4F9B
:1011900080810E94D511000F111F9801245B3C4FE4
:1011A0007901D9018C918F770E94D511F701808147
:1011B00091819C012078232B39F0880F892F881F7B
:1011C000990B8F770E94D511F801E45BFC4F808169
:1011D00091819C012227307C232B91F2990F880B5F
:1011E000990F982F881F8F770E94D511C9CF8FE74D
:1011F0000E94D5111F5F103119F21031C0F7812FF5
:10120000F7CFDA011196EC918E2F90E0FC01319727
:10121000E730F10508F053C1DA0112966C91882786
:10122000EE58FF4F8F4F0C94B82070E07093C306B8
:101230006093C20644C170E07093C5066093C40613
:101240003EC1862F90E00E94821239C1FA0143818B
:1012500070E0CB010B9785319E4408F015C188EEF4
:1012600093E0489F9001499F300D1124032E000CFC
:10127000440B550B8091A8060E94571320C1DA0138
:1012800013961C9170E06115710531F0683071059D
:101290002CF067E070E002C061E070E0072E000C07
:1012A000880B990B0E9471210E94AC2120E030E054
:1012B00040E850E40E94D9200E943E21072E000CF5
:1012C000880B990B0E9471219B01AC0160E070E0DA
:1012D00080E090E40E9450220E943E21AB01BC01BC
:1012E000812F110F990BB2E0813B9B0729F42091CC
:1012F000AA063091AB0635C0E2E08E399E0729F48C
:101300002091AE063091AF062CC0F2E085349F07E5
:1013100029F42091B2063091B30623C022E0833B2A
:10132000920729F42091B4063091B5061AC032E034
:10133000853B930729F42091B8063091B90611C076
:10134000A2E0873B9A0729F42091BC063091BD06A4
:1013500008C0895B924009F08EC02091C006309190
:10136000C106249FC001259F900D349F900D11242C
:1013700080C0FA01F480138170E06115710531F0CD
:10138000683071052CF067E070E002C061E070E049
:10139000072E000C880B990B0E9471210E94AC2132
:1013A00020E030E040E850E40E94D9200E943E2135
:1013B000072E000C880B990B0E9471219B01AC0138
:1013C00060E070E080E090E40E9450220E943E21A4
:1013D000133621F4F8E6FF124EC005C0143661F44E
:1013E00022E6F21205C04091AC065091AD0639C01C
:1013F00038E6F31240C005C0153641F442E6F41257
:101400003AC04091B0065091B1062BC0163621F477
:1014100058E6F51230C005C0173661F4A2E6FA129C
:1014200005C04091B6065091B7061BC0B8E6FB1246
:1014300022C005C0113661F4E2E6FE1205C04091FB
:10144000BA065091BB060DC0F8E6FF1214C005C0E5
:10145000123689F422E6F2120EC04091BE06509177
:10146000BF06469F9001479F300D569F300D1124B7
:10147000C9010E9482126091C2067091C306072EB4
:10148000000C880B990BBED38091A806F8D717C023
:10149000613049F028F0623091F464ED76E005C0E7
:1014A0000E94AE120CC06DEC76E0CE010196B3D472
:1014B000CE0101960E949312CE01019614DB28966C
:1014C0000FB6F894DEBF0FBECDBFDF91CF911F9155
:1014D0000F91FF90EF900895FC01918D828D9817E8
:1014E00061F0828DDF01A80FB11D5D968C91928D08
:1014F0009F5F9F73928F90E008958FEF9FEF089505
:10150000FC01918D828D981731F0828DE80FF11DCD
:10151000858D90E008958FEF9FEF0895FC01918DE8
:10152000228D892F90E0805C9F4F821B91098F73E1
:101530009927089581E795E0F1DF21E0892B09F4EF
:1015400020E0822F0895FC01848DDF01A80FB11DDA
:10155000A35ABF4F2C91848D90E001968F739927E9
:10156000848FA689B7892C93A089B1898C918064D6
:101570008C93938D848D981306C00288F389E02D97
:1015800080818F7D80830895EF92FF920F931F9348
:10159000CF93DF93EC0181E0888F9B8D8C8D981326
:1015A00005C0E889F989808185FD23C0F62E0B8D61
:1015B00010E00F5F1F4F0F731127E02E8C8DE81284
:1015C0000BC00FB607FCFACFE889F989808185FF47
:1015D000F5CFCE01B8DFF2CF8B8DFE01E80FF11D04
:1015E000E35AFF4FF0820B8FEA89FB89808180628A
:1015F00007C0EE89FF896083E889F989808180646A
:10160000808381E090E0DF91CF911F910F91FF9057
:10161000EF900895CF93DF93EC01888D8823C1F07C
:10162000EA89FB89808185FD05C0A889B9898C91EB
:1016300086FD0EC00FB607FCF5CF808185FFF2CF87
:10164000A889B9898C9185FFEDCFCE017CDFE8CFE9
:10165000DF91CF91089580E090E0892B19F06ADF47
:10166000811125C080E090E0892B41F080E090E07E
:10167000892B21F00E94000081111CC080E090E0C5
:10168000892B41F080E090E0892B21F00E9400003E
:10169000811113C080E090E0892BA1F080E090E000
:1016A000892B81F00E94000081110AC008950E94D8
:1016B0000000D8CF0E940000E1CF0E940000EACFD6
:1016C0000C940000089590E0FC013197E231F1059F
:1016D00008F04EC08827E758FF4F8F4F0C94B82072
:1016E000809180008F7703C0809180008F7D8093F0
:1016F0008000089580918000877FF9CF84B58F772F
:1017000002C084B58F7D84BD08958091B0008F772D
:1017100003C08091B0008F7D8093B00008958091C8
:1017200090008F7707C0809190008F7D03C08091DB
:101730009000877F8093900008958091A0008F771C
:1017400007C08091A0008F7D03C08091A000877F9B
:101750008093A0000895809120018F7707C0809129
:1017600020018F7D03C080912001877F809320011D
:1017700008958F929F92AF92BF92CF92DF92EF9295
:10178000FF920F931F93CF93DF937C01EB016C01CA
:1017900082E0C80ED11C4701E5E08E0E911C00E0EE
:1017A00010E0F60141916F0150E060E070E02AE046
:1017B000CE010E94BC165C01E881F9810190F081A4
:1017C000E02D6EE2CE0119958A0D9B1D080F191FA1
:1017D000C814D90431F7F701458150E060E070E0AA
:1017E0002AE0CE010E94BC16800F911FDF91CF919D
:1017F0001F910F91FF90EF90DF90CF90BF90AF902F
:101800009F908F9008950E949F251F920F920FB670
:101810000F9211240BB60F922F933F934F935F9328
:101820006F937F938F939F93AF93BF93EF93FF93A8
:1018300081E795E088DEFF91EF91BF91AF919F9195
:101840008F917F916F915F914F913F912F910F9069
:101850000BBE0F900FBE0F901F9018951F920F9206
:101860000FB60F9211240BB60F922F938F939F9365
:10187000EF93FF93E0918105F09182058081E091E3
:101880008705F091880582FD12C0908180918A05BC
:101890008F5F8F7320918B05821751F0E0918A053D
:1018A000F0E0EF58FA4F958F80938A0501C0808150
:1018B000FF91EF919F918F912F910F900BBE0F9001
:1018C0000FBE0F901F901895CF93DF93282F30E015
:1018D000F901E051FE4F8491F901E95CFD4FD4918B
:1018E000F901E956FD4FC491CC2389F08111EBDE5B
:1018F000EC2FF0E0EE0FFF1FEA52FE4FA591B491DE
:10190000EC91ED2381E090E021F480E002C080E0E2
:1019100090E0DF91CF9108951F93CF93DF93282F0D
:1019200030E0F901E051FE4F8491F901E95CFD4F8F
:10193000D491F901E956FD4FC491CC23C1F0162F83
:101940008111C1DEEC2FF0E0EE0FFF1FE358FD4FD9
:10195000A591B4918FB7F894111105C09C91ED2F0A
:10196000E095E92302C0EC91ED2BEC938FBFDF9162
:10197000CF911F910895CF93DF9390E0FC01E95C34
:10198000FD4F2491FC01E956FD4F8491882361F1BC
:1019900090E0880F991FFC01E454FE4FC591D4914B
:1019A000FC01E358FD4FA591B491611109C09FB7A7
:1019B000F8948881209582238883EC912E230BC094
:1019C000623061F49FB7F8943881822F8095832329
:1019D0008883EC912E2B2C939FBF06C08FB7F89471
:1019E000E8812E2B28838FBFDF91CF9108951F931D
:1019F000CF93DF93182FEB0161E0BDDF209711F447
:101A000060E004C0CF3FD10531F461E0812FDF9168
:101A1000CF911F9181CFE12FF0E0E051FE4FE49193
:101A20004E2F50E0FA013197E231F10508F09DC0E8
:101A30008827E557FF4F8F4F0C94B82084B58068F6
:101A400084BDC7BD97C084B5806284BDC8BD92C047
:101A500080918000806880938000D0938900C0933B
:101A6000880088C080918000806280938000D0933D
:101A70008B00C0938A007EC0809180008860809334
:101A80008000D0938D00C0938C0074C08091B00012
:101A900080688093B000C093B3006CC08091B000A8
:101AA00080628093B000C093B40064C080919000C5
:101AB000806880939000D0939900C09398005AC09A
:101AC00080919000806280939000D0939B00C0939F
:101AD0009A0050C080919000886080939000D093CD
:101AE0009D00C0939C0046C08091A00080688093B8
:101AF000A0008091A0008F7B8093A000D093A900CC
:101B0000C093A80037C08091A00080628093A0009D
:101B1000D093AB00C093AA002DC08091A000886034
:101B20008093A000D093AD00C093AC0023C08091FF
:101B30002001806880932001D0932901C09328015F
:101B400019C080912001806280932001D0932B01E5
:101B5000C0932A010FC080912001886080932001EA
:101B6000D0932D01C0932C0105C0C038D1050CF0D5
:101B70004CCF46CFDF91CF911F910895863308F067
:101B8000865390917B00282F2870977F922B9093FB
:101B90007B008770806480937C0080917A008064F1
:101BA00080937A0080917A0086FDFCCF8091780046
:101BB0002091790090E0922B08953FB7F89480919E
:101BC0001B0590911C05A0911D05B0911E0526B521
:101BD000A89B05C02F3F19F00196A11DB11D3FBF65
:101BE000BA2FA92F982F8827820F911DA11DB11DF3
:101BF000BC01CD0142E0660F771F881F991F4A95EF
:101C0000D1F708958F929F92AF92BF92CF92DF92B9
:101C1000EF92FF926B017C01D0DF4B015C01C1149C
:101C2000D104E104F104E9F0C8DFDC01CB0188193B
:101C30009909AA09BB09883E9340A105B10578F32B
:101C400021E0C21AD108E108F10888EE880E83E08D
:101C5000981EA11CB11CC114D104E104F10421F7A8
:101C6000DECFFF90EF90DF90CF90BF90AF909F902E
:101C70008F9008951F920F920FB60F9211242F93F9
:101C80003F938F939F93AF93BF938091A6049091BE
:101C9000A704A091A804B091A90430911A0523E0EB
:101CA000230F2D3720F40196A11DB11D05C026E894
:101CB000230F0296A11DB11D20931A058093A6043F
:101CC0009093A704A093A804B093A90480911B0546
:101CD00090911C05A0911D05B0911E050196A11DB6
:101CE000B11D80931B0590931C05A0931D05B09317
:101CF0001E05BF91AF919F918F913F912F910F90B2
:101D00000FBE0F901F901895CF93DF93EC0160E802
:101D100075E280E090E0D7D261E08C812CDE61E05A
:101D2000888129DE61E08A8126DEDF91CF910895E6
:101D30000F931F93CF93DF93EC018A819B818617CA
:101D4000970738F5CB01088119817B836A83880F57
:101D5000991F0E947224888399834C815D81D801E8
:101D6000FC0120E030E02417350761F0309729F0BE
:101D70008D919C911197918380832F5F3F4F129695
:101D80003296F1CFC801DF91CF911F910F910C9442
:101D90000725DF91CF911F910F910895EF92FF9248
:101DA0000F931F93CF93DF93EC018C819D818C0166
:101DB0000F5F1F4F8017910710F57B012A813B8130
:101DC0002017310728F4BC01675F7F4FCE01B0DFD9
:101DD0008C819D819C01220F331F8017910790F405
:101DE000E881F981E20FF31F309729F0D7014D9177
:101DF0005C915183408301962E5F3F4FEECF0817D1
:101E0000190710F41D830C83DF91CF911F910F915F
:101E1000FF90EF900895EF92FF920F931F93CF934F
:101E2000DF93EC017B01FB01048115811D830C8391
:101E3000C80108969B838A83880F991F0E94722489
:101E400088839983FC0120E030E02017310791F06E
:101E5000E701A881B981C901880F991FA80FB91F8F
:101E6000309721F08D919C91918380832F5F3F4F1C
:101E70003296EBCFDF91CF911F910F91FF90EF90B2
:101E800008958F929F92AF92BF92CF92DF92EF927E
:101E9000FF920F931F93CF93DF9300D0CDB7DEB7A0
:101EA0008C01962E8BE092E0F801938382838AE284
:101EB00092E0958384838BE492E0978386838EE619
:101EC00092E09187808783E992E0938782878AEB0B
:101ED00092E09587848783EE92E0978786878FE0EC
:101EE00093E0918B808B8EE393E0938B828B80E7E2
:101EF00093E0958B848B84EA93E0978B868B8BEDB4
:101F000093E0918F808F8CE291E0938F828F84E6B3
:101F100090E0958F848F6801FEE1CF0ED11C88E0A0
:101F2000A82EB12CF801B1A2A0A213A212A280E1A6
:101F300090E07B830E947224F801978F868FB0A671
:101F4000A7A212A611A680E190E00E947224F801D7
:101F500096A385A37801FCE2EF0EF11CF801B7A669
:101F6000A6A611AA10AA80E190E00E947224F801AE
:101F700095A784A790827B81718360E0892DFBDC2B
:101F80005801F2E0AF0EB11CB501C60107DF1A829D
:101F90001982BE016F5F7F4FC60100DFB501C60128
:101FA000FDDE1A821982BE016F5F7F4FC601F6DE29
:101FB000480188E1880E911CB401C601EFDE1A8247
:101FC0001982BE016F5F7F4FC601E8DEB401C60112
:101FD000E5DEB501C8018596E1DEB501C701DEDEAB
:101FE0001A821982BE016F5F7F4FC701D7DEB80129
:101FF000665F7F4FC701D2DE1A821982BE016F5F12
:102000007F4FC701CBDEB801605F7F4FC701C6DEDF
:102010001A821982BE016F5F7F4FC701BFDEF801D0
:1020200082819381880F991F9A838983BE016F5F94
:102030007F4FC701B3DE0F900F900F90DF91CF91CC
:102040001F910F91FF90EF90DF90CF90BF90AF90D6
:102050009F908F900895FC01158216821782DC01F3
:102060001896885B9F4F1D92A817B907E1F71C923D
:10207000DF01A75BBF4F1D921C92EB5AFF4F0190EF
:10208000F081E02D309709F0199408950F931F9374
:10209000CF93DF93EC010EE016E0D8018D919C9177
:1020A000DC01ED91FC916C2F6F770190F081E02DB8
:1020B0001995F80180819181DC01ED91FC91CC0FA3
:1020C000CD2FCC1FDD0B6C2F6F770190F081E02DB1
:1020D000DF91CF911F910F91199480910E069091ED
:1020E0000F06DC01ED91FC910190F081E02D67EF8E
:1020F000199480910E0690910F06DC01ED91FC91F0
:102100000190F081E02D60EF1994CF93DF93EB0104
:10211000A0910E06B0910F06ED91FC9111978F7072
:10212000682F606E0190F081E02DCD011995CE01F0
:10213000DF91CF91ABCFEF92FF920F931F93CF938D
:10214000DF9300D0CDB7DEB7162F4A835B83898338
:10215000D0DFA0910E06B0910F06ED91FC91119782
:102160000190F081E02D8981682FCD0119954A8178
:10217000042FE42E5B81F52E8E2D801B811730F409
:10218000F70181917F0190E081DFF6CF0F900F90F2
:102190000F90DF91CF911F910F91FF90EF909DCF06
:1021A000FC0101900020E9F73197BF01681B790B12
:1021B000AC0181E7C0CFCF939CDF80910E06909158
:1021C0000F06DC01ED91FC910190F081E02D69E7B3
:1021D000199580910E0690910F06DC01ED91FC910E
:1021E000A0911106B09112060190F081E02D6C9142
:1021F000199580910E0690910F06DC01ED91FC91EE
:10220000A0911106B09112060190F081E02D119677
:102210006C911995C2E080911006C81758F4E091AE
:102220001106F0911206EC0FF11D808190E02EDF77
:10223000CF5FF1CFCF9151CFCF93DF93CEE0D6E0F8
:1022400088819981DC01ED91FC910190F081E02D74
:1022500069EF199588819981DC01ED91FC910190DC
:10226000F081E02D62E0199588819981DC01ED9182
:10227000FC910190F081E02D64E0DF91CF91199401
:102280000F931F93CF938C0161E08DE074DBC0E06E
:102290008C2F90E08017910794F462ED70E080E05D
:1022A00090E0B0DC61E08DE037DB68E270E080E078
:1022B00090E0A8DC60E08DE02FDBCF5FE9CFCF912D
:1022C0001F910F910895CF92DF92EF92FF926B01D1
:1022D0007C01E0918105F091820582E08083C11448
:1022E00081EED806E104F104B1F060E079E08DE31D
:1022F00090E0A70196010E947A20DA01C9010197B6
:10230000A109B109B695A795979587959C012115C7
:1023100080E13807B8F0E0918105F09182051082E4
:1023200060E874E88EE190E0A70196010E947A20AF
:10233000DA01C9010197A109B109B695A795979549
:1023400087959C01E0917D05F0917E053083E091B9
:102350007F05F0918005208310928905E091850525
:10236000F091860586E08083E0918305F0918405F5
:10237000808180618083E0918305F0918405808174
:1023800088608083E0918305F09184058081806876
:102390008083E0918305F091840580818F7D808327
:1023A000FF90EF90DF90CF900895A0910E06B0912E
:1023B0000F06ED91FC9111970190F081E02D682FAF
:1023C000CD0119942091700590916F05213208F08C
:1023D0004AC080914C058111FCCF32E030934C050E
:1023E00031E030934B053FEF30934A051092490599
:1023F00020934805AFE4B5E048E255E0FA013E2FEE
:10240000341B321718F43D913193F9CF1092270500
:1024100020912705990F922B9093270590912605DF
:10242000913061F410922605909127059093BB009E
:102430009091BC0093FDF8CF95EC01C095EE909380
:10244000BC0090914C059230E1F390914A059F3F7A
:1024500079F080914A05803241F080914A058033BD
:1024600031F084E005C081E003C082E001C083E078
:1024700010924E051092700510924D05089590919E
:10248000030298133DC0E6E3F2E0E4919FEF9093DE
:102490000302E230C9F050F4EE2399F0E13081F507
:1024A00090916F009D7F90936F002AC0E43019F1E6
:1024B000E0F0E53029F5909173009D7F90937300D3
:1024C0001FC010926E001CC0909170009D7F909371
:1024D000700091E09093B0009091B100987F94606B
:1024E0009093B1001092B3000BC0909171009D7F4A
:1024F0009093710005C0909172009D7F909372003F
:1025000060E00ACA9C012B50310925313E4440F459
:1025100020ED37E040E050E0BC018091A806C7C044
:102520008091A806ACCF0F931F93CF93DF93FC014C
:1025300000811181C481D581CC0FDD1FC00FD11F57
:102540000C171D0731F0F801819191918F01DADFAD
:10255000F7CFDF91CF911F910F910895CF93DF9324
:10256000CDB7DEB727970FB6F894DEBF0FBECDBF4D
:1025700066EC76E0CE0101964EDCCE010196D3DF0B
:10258000CE0101960E94730527960FB6F894DEBF20
:102590000FBECDBFDF91CF9108951F920F920FB65E
:1025A0000F9211240BB60F922F933F934F935F938B
:1025B0006F937F938F939F93AF93BF93EF93FF930B
:1025C0008091220590912305A0912405B0912505C5
:1025D000892B8A2B8B2B51F180912105E0911F05CE
:1025E000F091200590818927808380912205909128
:1025F0002305A0912405B0912505181619061A0681
:102600001B06BCF48091220590912305A09124051E
:10261000B09125050197A109B109809322059093F6
:102620002305A0932405B093250503C080910302E0
:1026300026DFFF91EF91BF91AF919F918F917F9195
:102640006F915F914F913F912F910F900BBE0F9023
:102650000FBE0F901F901895CF92DF92EF92FF92CE
:102660000F931F93CF93DF936C017A018B01C0E02E
:10267000D0E0CE15DF0589F0D8016D918D01D6012E
:10268000ED91FC910190F081E02DC6011995892B07
:1026900011F47E0102C02196ECCFC701DF91CF91EA
:1026A0001F910F91FF90EF90DF90CF9008953F9290
:1026B0004F925F926F927F928F929F92AF92BF9252
:1026C000CF92DF92EF92FF920F931F93CF93DF93FE
:1026D00000D01F92CDB7DEB729013A0190910302D5
:1026E000981721F09F3F09F031C304C0E6E3F2E000
:1026F000349004C180930302E6E3F2E0E491EF3FFB
:1027000009F424C3E23009F480C074F5EE2309F41F
:102710005BC0E13009F0F1C010928000109281009E
:1027200090918100986090938100909181009160D8
:1027300090938100282F30E0F901E956FD4FE49194
:10274000F0E0EE0FFF1FE358FD4F45915491509379
:10275000650740936407F901E95CFD4FE491E0935C
:10276000630733243394CCC0E43009F49EC00CF4E6
:1027700074C0E53009F0C1C010922001109221010F
:102780009091210198609093210190912101916095
:1027900090932101482F50E0FA01E956FD4FE49152
:1027A000F0E0EE0FFF1FE358FD4F25913491309379
:1027B0005C0720935B07FA01E95CFD4FE491E0932D
:1027C0005A07B5E03B2E9CC014BC15BC94B5926072
:1027D00094BD95B5916095BD282F30E0F901E9567B
:1027E000FD4FE491F0E0EE0FFF1FE358FD4F4591E0
:1027F00054915093680740936707F901E95CFD4FD6
:10280000E491E0936607312C7BC01092B0001092E7
:10281000B1009091B00092609093B0009091B1009F
:1028200091609093B100282F30E0F901E956FD4FF7
:10283000E491F0E0EE0FFF1FE358FD4F45915491F6
:102840005093200540931F05F901E95CFD4FE49189
:10285000E093210552E0352E53C010929000109263
:1028600091009091910098609093910090919100C7
:10287000916090939100282F30E0F901E956FD4FC7
:10288000E491F0E0EE0FFF1FE358FD4F45915491A6
:102890005093620740936107F901E95CFD4FE491B1
:1028A000E093600723E0322E2BC01092A00010921C
:1028B000A1009091A10098609093A1009091A10037
:1028C00091609093A100282F30E0F901E956FD4F67
:1028D000E491F0E0EE0FFF1FE358FD4F4591549156
:1028E00050935F0740935E07F901E95CFD4FE49167
:1028F000E0935D0704E0302E03C03E2E37FC26C275
:102900008B0161E038D84801A12CB12C832D8D7F3B
:1029100009F0BBC060E072E18AE790E0A501940194
:102920000E949C2029833A834B835C8369017A014E
:1029300021E0C21AD108E108F1088FEFC816D104CE
:10294000E104F10409F008F44CC060E472E48FE0A3
:1029500090E0A50194010E949C2069017A0191E018
:10296000C91AD108E108F108E2E03E1220C0FFEFE9
:10297000CF16D104E104F10409F008F4E5C160E9DF
:1029800070ED83E090E0A50194010E949C20690114
:102990007A0181E0C81AD108E108F1089FEFC91651
:1029A000D104E104F10409F0D0F583E067C0EFEF52
:1029B000CE16D104E104F104B1F0A8F068E478EE99
:1029C00081E090E0A50194010E949C2069017A01B8
:1029D000F1E0CF1AD108E108F108332009F45AC117
:1029E000AAC181E001C082E03320A1F047C0898103
:1029F0009A81AB81BC812AE0B595A795979587957B
:102A00002A95D1F76C017D01F1E0CF1AD108E108D8
:102A1000F10885E095B5987F892B85BDA6C068E44F
:102A200078EE81E090E0A50194010E949C2069016C
:102A30007A0181E0C81AD108E108F1089FEFC916B0
:102A4000D104E104F10409F008F422C164E274EF56
:102A500080E090E0A50194010E949C2069017A0128
:102A600081E0C81AD108E108F1089FEFC916D10426
:102A7000E104F10411F008F02FC185E09091B1005C
:102A8000987F892B8093B10070C060E072E18AE783
:102A900090E0A50194010E949C2069017A01F1E077
:102AA000CF1AD108E108F108C114D10421E0E206EF
:102AB000F10488F068E478EE81E090E0A5019401EB
:102AC0000E949C2069017A0181E0C81AD108E108BE
:102AD000F10883E001C081E091E0391210C09091CB
:102AE0008100987F892B80938100411451046104F7
:102AF000710409F03FC02FEF3FEFA90171C0E3E07F
:102B00003E120FC090919100987F892B8093910085
:102B1000411451046104710469F52FEF3FEFA901DD
:102B200081C0F4E03F120FC09091A100987F892BE3
:102B30008093A1004114510461047104D9F42FEF72
:102B40003FEFA90181C025E032120FC09091210111
:102B5000987F892B809321014114510461047104F1
:102B600049F42FEF3FEFA90181C0411451046104E2
:102B7000710471F0D801AA0FBB1FA30192010E943A
:102B8000C02028EE33E040E050E00E947A2003C0ED
:102B90002FEF3FEFA90182E03816A1F1831534F041
:102BA000332079F091E03916D9F0D0C0E4E03E1638
:102BB00009F44AC03E16B4F1F5E03F1609F456C0D8
:102BC000C5C0C7BC2093790730937A0740937B0731
:102BD00050937C0780916E00826080936E00B6C037
:102BE000D0928900C09288002093750730937607B1
:102BF000409377075093780780916F0082608093AD
:102C00006F00A4C0C092B300209322053093230527
:102C10004093240550932505809170008260809335
:102C2000700094C0D0929900C092980020937107D0
:102C3000309372074093730750937407809171002B
:102C400082608093710082C0D092A900C092A800D7
:102C500020936D0730936E0740936F075093700772
:102C60008091720082608093720070C0D0922901BE
:102C7000C09228012093690730936A0740936B073D
:102C800050936C07809173008260809373005EC0E4
:102C900084E0F4CE2FEFC216D104E104F104D1F0A8
:102CA000C8F062E17AE780E090E0A50194010E941B
:102CB0009C2069017A01E1E0CE1AD108E108F1080F
:102CC000FFEFCF16D104E104F10411F008F08FCE2C
:102CD00084E0A0CE83E09ECE62E17AE780E090E0DF
:102CE000A50194010E949C2069017A0181E0C81A23
:102CF000D108E108F1089FEFC916D104E104F104FD
:102D0000C1F0B8F089819A81AB81BC814AE0B59568
:102D1000A795979587954A95D1F76C017D01E1E0DC
:102D2000CE1AD108E108F108332009F472CE87E009
:102D3000A5CE86E059CEEFEFCE16D104E104F10422
:102D400009F050F684E050CE82E098CE0F900F90BC
:102D50000F900F90DF91CF911F910F91FF90EF9007
:102D6000DF90CF90BF90AF909F908F907F906F90AB
:102D70005F904F903F9008954F925F926F927F9235
:102D8000EF92FF920F931F93CF93DF93CDB7DEB7F0
:102D9000A1970FB6F894DEBF0FBECDBF7C01FA013C
:102DA000CB0119A2223008F42AE08E010F5D1F4FDB
:102DB000422E512C612C712CBF01A30192010E9463
:102DC0007A20F901CA01015011096A3014F4605DDA
:102DD00001C0695CD8016C93232B242B252B61F750
:102DE0000115110591F0F80101900020E9F73197E4
:102DF000AF01401B510BD701ED91FC910280F38193
:102E0000E02DB801C701199502C080E090E0A196BD
:102E10000FB6F894DEBF0FBECDBFDF91CF911F91EB
:102E20000F91FF90EF907F906F905F904F9008957B
:102E300081EA96E00E9473058AE996E00E94730594
:102E400083E996E00E94730584ED96E00E94730585
:102E50008DEC96E00E94730586EC96E00E94730567
:102E60008CEF96E00E942E0485EF96E00C9473059B
:102E7000CF93DF93CDB7DEB76D970FB6F894DEBF73
:102E80000FBECDBF789484B5826084BD84B5816067
:102E900084BD85B5826085BD85B5816085BD809125
:102EA0006E00816080936E0010928100809181009D
:102EB0008260809381008091810081608093810095
:102EC000809180008160809380008091B100846057
:102ED0008093B1008091B00081608093B0008091B8
:102EE0009100826080939100809191008160809335
:102EF0009100809190008160809390008091A1006A
:102F000082608093A1008091A10081608093A100E4
:102F10008091A00081608093A00080912101826057
:102F20008093210180912101816080932101809112
:102F3000200181608093200180917A0084608093D9
:102F40007A0080917A00826080937A0080917A0082
:102F5000816080937A0080917A00806880937A0003
:102F60001092C10083E497E00E94840E88E397E00A
:102F70000E94840E0091EF061091F006A090F106D9
:102F8000B090F2061A8218861F86188A198A1A8A41
:102F900081E08E878B871C8692E09D8789837501EF
:102FA000EE0CFF1CEA0CFB1CFE82ED82C7010E94A6
:102FB00072249A878987009741F0A70160E070E04A
:102FC0000E94A325BC82AB8204C01E821D821C828B
:102FD0001B820F838A81882341F061E0802F0E9449
:102FE000BB0C60E0802F0E948C0C1127F801E95681
:102FF000FD4FE491F0E0EE0FFF1FE358FD4F859188
:1030000094919C8B8B8BF801E95CFD4F04910D8BA7
:1030100085E1FE013196ACEFB6E001900D928A9504
:10302000E1F7CE0101960E942E048091020787FDF0
:1030300008C061E00E94BB0C60E0809102070E9422
:103040008C0C81E08093FD06809104079091050728
:10305000892B09F4A1C00E94DD0D00910A0710918F
:103060000B0720910C0730910D07DC01CB01801B71
:10307000910BA20BB30BC297A105B10560F3F894B5
:1030800080910007909101079A838983E09104075A
:10309000F0910507DF01119680818C8F9091FC06DD
:1030A000E0910E07F0910F0780911007992309F422
:1030B0002EC09081982B9B8F9081809589238A8F39
:1030C0008A8D8F8B88E08E8B5B8D6A8D4C8D3E89CF
:1030D0002F8989819A81508347FD252F3A95208336
:1030E000262F39F0441F00C000006083000000C09C
:1030F000F2CF38E04D9160830000019761F7F093C3
:103100000F07E0930E074C8F3E8B2F8B38C09081BA
:10311000982B9B8F9081809589238A8F8A8D898FA8
:1031200088E0888F5B8D6A8D4C8D388D298D8981E3
:103130009A81508347FD252F00C000C0208300C026
:1031400000C000C000C000C060830000262F3A9578
:1031500041F0441F000000C000C000C000C000C01B
:10316000E8CF38E04D9100C0608300C0019709F7B7
:10317000F0930F07E0930E074C8F388F298F9A83B7
:10318000898378940E94DD0D60930A0770930B0782
:1031900080930C0790930D07E1D985E18093100689
:1031A00080911106909112060E9407250091100649
:1031B00010E0C80101960E94722490931206809339
:1031C0001106FC01E00FF11F108222E0DC012C93BC
:1031D00024E011962C934091100650E04250510982
:1031E00063E173E002960E94AA258EE093E090933B
:1031F0005A06809359068EE592E090935C06809380
:103200005B0689ED92E090935E0680935D068DEB00
:1032100095E09093600680935F0683E393E090933C
:1032200062068093610685EE96E09093680680932F
:10323000670681EF93E0909364068093630660E0F5
:1032400071EE80E090E03FD881E795E090930F0623
:1032500080930E0661E08DE00E94BB0C82E090E05E
:103260000FD86AEF70E080E090E00E94020E84E0E8
:1032700090E006D86DE770E080E090E00E94020EDA
:103280000E941C118091100681110E94DB100E9487
:10329000F10332E0F32E01E080919D048823C1F117
:1032A000E0909404E2FE38C482E00E94640C892B12
:1032B00009F432C414E0E3FE06C083E00E94640C0B
:1032C000892B09F02BC4E4FE06C084E00E94640C44
:1032D000892B09F025C4E5FE06C085E00E94640C38
:1032E000892B09F01FC4E6FE06C086E00E94640C2C
:1032F000892B09F019C4E7FE06C087E00E94640C20
:10330000892B09F013C440E0612F80E00E9478050A
:1033100080919E04882309F448C0E0909504E0FE63
:1033200007C488E00E94640C892B09F401C411E0F1
:10333000E1FE06C089E00E94640C892B09F0FAC303
:10334000E2FE06C08AE00E94640C892B09F0F4C3F7
:10335000E3FE06C08BE00E94640C892B09F0EEC3EB
:10336000E4FE06C08CE00E94640C892B09F0E8C3DF
:10337000E5FE06C08DE00E94640C892B09F0E2C3D3
:10338000E6FE06C08EE00E94640C892B09F0DCC3C7
:10339000E7FE06C08FE00E94640C892B09F0D6C3BB
:1033A00040E0612F81E00E94780580919F0488238E
:1033B00009F448C0E0909604E0FECAC380E10E9490
:1033C000640C892B09F4C4C311E0E1FE06C081E15D
:1033D0000E94640C892B09F0BDC3E2FE06C082E1A5
:1033E0000E94640C892B09F0B7C3E3FE06C083E199
:1033F0000E94640C892B09F0B1C3E4FE06C084E18D
:103400000E94640C892B09F0ABC3E5FE06C085E180
:103410000E94640C892B09F0A5C3E6FE06C086E174
:103420000E94640C892B09F09FC3E7FE06C087E168
:103430000E94640C892B09F099C340E0612F82E05F
:103440000E9478058091A004882309F448C0E09088
:103450009704E0FE8DC388E10E94640C892B09F477
:1034600087C311E0E1FE06C089E10E94640C892B4C
:1034700009F080C3E2FE06C08AE10E94640C892B39
:1034800009F07AC3E3FE06C08BE10E94640C892B2D
:1034900009F074C3E4FE06C08CE10E94640C892B21
:1034A00009F06EC3E5FE06C08DE10E94640C892B15
:1034B00009F068C3E6FE06C08EE10E94640C892B09
:1034C00009F062C3E7FE06C08FE10E94640C892BFD
:1034D00009F05CC340E0612F83E00E947805809191
:1034E000A104882309F448C0E0909804E0FE50C38A
:1034F00080E20E94640C892B09F44AC311E0E1FECA
:1035000006C081E20E94640C892B09F043C3E2FEED
:1035100006C082E20E94640C892B09F03DC3E3FEE1
:1035200006C083E20E94640C892B09F037C3E4FED5
:1035300006C084E20E94640C892B09F031C3E5FEC9
:1035400006C085E20E94640C892B09F02BC3E6FEBD
:1035500006C086E20E94640C892B09F025C3E7FEB1
:1035600006C087E20E94640C892B09F01FC340E06B
:10357000612F84E00E9478058091A204882309F4D9
:1035800048C0E0909904E0FE13C388E20E94640CF6
:10359000892B09F40DC311E0E1FE06C089E20E9407
:1035A000640C892B09F006C3E2FE06C08AE20E9481
:1035B000640C892B09F000C3E3FE06C08BE20E9475
:1035C000640C892B09F0FAC2E4FE06C08CE20E946A
:1035D000640C892B09F0F4C2E5FE06C08DE20E945E
:1035E000640C892B09F0EEC2E6FE06C08EE20E9452
:1035F000640C892B09F0E8C2E7FE06C08FE20E9446
:10360000640C892B09F0E2C240E0612F85E00E9442
:1036100078058091A304882309F448C0E0909A04B7
:10362000E0FED6C280E30E94640C892B09F4D0C26C
:1036300011E0E1FE06C081E30E94640C892B09F0D1
:10364000C9C2E2FE06C082E30E94640C892B09F025
:10365000C3C2E3FE06C083E30E94640C892B09F019
:10366000BDC2E4FE06C084E30E94640C892B09F00D
:10367000B7C2E5FE06C085E30E94640C892B09F001
:10368000B1C2E6FE06C086E30E94640C892B09F0F5
:10369000ABC2E7FE06C087E30E94640C892B09F0E9
:1036A000A5C240E0612F86E00E9478058091A404C5
:1036B000882309F448C0E0909B04E0FE99C288E3A7
:1036C0000E94640C892B09F493C211E0E1FE06C04C
:1036D00089E30E94640C892B09F08CC2E2FE06C0CB
:1036E0008AE30E94640C892B09F086C2E3FE06C0BF
:1036F0008BE30E94640C892B09F080C2E4FE06C0B3
:103700008CE30E94640C892B09F07AC2E5FE06C0A6
:103710008DE30E94640C892B09F074C2E6FE06C09A
:103720008EE30E94640C892B09F06EC2E7FE06C08E
:103730008FE30E94640C892B09F068C240E0612F7E
:1037400087E00E9478058091A504882309F45BC076
:10375000E0909C04E0FE5CC280E40E94640C892B33
:1037600009F456C211E0E1FE06C081E40E94640C37
:10377000892B09F04FC2E2FE06C082E40E94640C6D
:10378000892B09F049C2E3FE06C083E40E94640C61
:10379000892B09F043C2E4FE06C084E40E94640C55
:1037A000892B09F03DC2E5FE06C085E40E94640C49
:1037B000892B09F037C240E0612F88E00E9478052C
:1037C00022C080910E0690910F06DC01ED91FC91D4
:1037D0000680F781E02D199520915606222309F4E1
:1037E00076C0873F910509F063C01092560680911C
:1037F00016068137B1F0893709F04CC08091100668
:1038000081110E94DB1080910E0690910F06DC0161
:10381000ED91FC910480F581E02D1995892B89F6B5
:10382000FCC0A0906506B0906606A114B10459F3DF
:103830002091570630915806C901019797FDC9019B
:1038400095958795182FA6E1B6E040E050E030E06E
:103850004E5F5F4F311770F4BA01625F794FFB0121
:1038600027812C936085F0E86F9F201911242D93F8
:103870003F5FEECF9927DC01A25FB94F17968C917D
:103880001797882311F018961C9286E196E0F501AF
:103890001995B9CFE0916706F0916806309709F461
:1038A000B2CF60915706615047E156E01995ABCF12
:1038B0002091570630915806F901E25FF94F808751
:1038C0002F5F3F4F30935806209357069CCF20918F
:1038D0001306222309F463C0803891050CF05FC001
:1038E0009FEF920F90931306E92FF0E0E25FF94FFC
:1038F0008087911188CF80911406882309F483CFA3
:10390000803DF1F150F48039F1F0803C09F044C081
:10391000E0915D06F0915E0637C0803E19F0843F6D
:1039200019F13AC0E0915906F0915A063097A1F189
:10393000809116066091170670E090E8899F600DEF
:10394000711D112426C0E0915B06F0915C06309752
:1039500019F1809116066091170670E0A0E88A9F21
:10396000600D711D112415C0E0916106F091620691
:10397000309791F06091160670E0809117060BC0A9
:10398000E0915F06F0916006309731F06091160685
:1039900070E08091150619951092140634CF803F7F
:1039A000910534F4282F2F7020931506807F9927D6
:1039B000803E910539F15CF4803C910531F1803D08
:1039C000910519F18039910509F01DCF1BC0843F85
:1039D0009105C1F05CF4803F910509F014CF00938C
:1039E000560610925806109257060DCF893F910542
:1039F00089F08F3F910509F006CF8EE096E00E9496
:103A00002B1001CFF092130602C00093130680938F
:103A10001406F9CE0E941C11F6CE8FB7F894809050
:103A2000A6049090A704A090A804B090A9048FBF0A
:103A30008092160590921705A0921805B09219056C
:103A40008091120590911305A0911405B091150570
:103A5000409101025091020260E070E0881A990AD8
:103A6000AA0ABB0A481559056A057B0508F051C02A
:103A7000840F951FA61FB71F8093120590931305FF
:103A8000A0931405B09315059CECA92E94E0B92ED3
:103A900010E02AEC210F2031C8F4F501808182303A
:103AA000A9F48091CA049091CB04022E02C095958E
:103AB00087950A94E2F780FF09C0822F2D8F0E941C
:103AC000BE0DBC012D8D822F0E9485101F5FFFEF60
:103AD000AF1ABF0A1634E9F68091000287FD19C0BB
:103AE00010E0E12FF0E080910002082E000C990B0D
:103AF0008E179F0774F0EE0FFF1FEE0FFF1FE655A6
:103B0000FB4F61817281438180810E9439061F5F72
:103B1000E8CF0E942B0BC0CB10E0CDCB1860D3CBED
:103B20001061D9CB1062DFCB1064E5CB1068EBCB12
:103B300010E0FECB126004CC14600ACC186010CCEC
:103B4000106116CC10621CCC106422CC106828CCFA
:103B500010E03BCC126041CC146047CC18604DCCD7
:103B6000106153CC106259CC10645FCC106865CCE6
:103B700010E078CC12607ECC146084CC18608ACCC3
:103B8000106190CC106296CC10649CCC1068A2CCD2
:103B900010E0B5CC1260BBCC1460C1CC1860C7CCAF
:103BA0001061CDCC1062D3CC1064D9CC1068DFCCBE
:103BB00010E0F2CC1260F8CC1460FECC186004CD9A
:103BC00010610ACD106210CD106416CD10681CCDA6
:103BD00010E02FCD126035CD14603BCD186041CD83
:103BE000106147CD10624DCD106453CD106859CD92
:103BF00010E06CCD126072CD146078CD18607ECD6F
:103C0000106184CD10628ACD106490CD106896CD7D
:103C100010E0A9CD1260AFCD1460B5CD1860BBCD5A
:103C20001061C1CD1062C7CDCF92DF92EF92FF92AB
:103C30000F931F93CF93DF93CDB7DEB72D970FB6BA
:103C4000F894DEBF0FBECDBF8EE192E090934F0798
:103C500080934E071092500710925107109252070E
:103C600010925307109274051092730538EEC32E0C
:103C700033E0D32EE12CF12CC0927505D09276055D
:103C8000E0927705F09278052EE032E030937205ED
:103C90002093710525EC30E030937E0520937D055F
:103CA00024EC30E03093800520937F0520EC30E059
:103CB000309382052093810521EC30E03093840518
:103CC0002093830522EC30E0309386052093850510
:103CD00026EC30E0309388052093870510928A0502
:103CE00010928B0510928C0510928D0590935507BC
:103CF0008093540710925607109257071092580756
:103D00001092590710921006109212061092110686
:103D10008EE096E00E942B1010926C0610926B06BB
:103D2000C0926D06D0926E06E0926F06F092700619
:103D300084E292E090936A068093690689E090E0BD
:103D4000909344078093430788E090E09093460760
:103D5000809345078AE090E0909348078093470757
:103D60001092490710924A0710924B0710924C0785
:103D700060E070E00E94F70C11E010934D0760E0E6
:103D8000809143070E948C0C61E0809145070E945E
:103D90008C0C87E090E0909339078093380786E099
:103DA00090E090933B0780933A0785E090E09093F2
:103DB0003D0780933C0710923E0710923F071092F8
:103DC00040071092410760E070E00E94F70C1093EA
:103DD000420760E0809138070E948C0C61E080917E
:103DE0003A070E948C0C85E290E090933007809314
:103DF0002F0780E490E0909332078093310722E808
:103E000030E030933407209333078FEF9FEF909388
:103E100036078093350781E090E090932E078093DA
:103E20002D0747E250E0509325074093240741E4D3
:103E300050E050932707409326073093290720939B
:103E4000280710922B0710922A079093230780933C
:103E5000220749E250E050931A074093190742E4C1
:103E600050E050931C0740931B0730931E0720938C
:103E70001D079093200780931F0790931807809346
:103E80001707809111079091120799878887809171
:103E90001307909114079B878A878091150790914B
:103EA00016079D878C8783E090E09093FA068093B5
:103EB000F9068BE090E09093F8068093F70686E190
:103EC00090E010D58093F5069093F606DE011896E3
:103ED000FC010696E817F90741F02D913D913097C6
:103EE00011F0318320833296F5CF81E08093FC0678
:103EF0001092FD061092FF061092FE061092010726
:103F0000109200079FEF9093020710920307109200
:103F1000050710920407809306071092070792E0A6
:103F2000909308078093090710920A0710920B07D5
:103F300010920C0710920D078CE290E09093F0061F
:103F40008093EF0685E090E09093F2068093F1066F
:103F50001092F3061092F40683E090E09E838D8326
:103F60008BE090E09C838B8386E190E0BBD48983D7
:103F70009A83A0E3B2E0FC010696E817F90741F046
:103F80002D913D91309711F0318320833296F5CFFA
:103F900063E070E085EF96E00E94980E2091F906AC
:103FA0003091FA068D819E812817390708F4C901DE
:103FB00049815A81A091F506B091F60620E030E0E3
:103FC000BA017D012817390749F0FA0101911191D1
:103FD000AF010D931D932F5F3F4FF4CF8091F906F2
:103FE0009091FA062D813E818217930770F08D81A2
:103FF0009E812091F9063091FA068217930770F599
:104000009093FA068093F90629C0DC01AA0FBB1F22
:1040100040E050E02D813E818217930740F79A01DE
:104020002A0F3B1F8701020F131F0115110541F0D5
:10403000260F371FF90120813181F8013183208358
:104040002091F9063091FA062F5F3F4F3093FA0620
:104050002093F90601964E5F5F4FDCCFCE010196AB
:104060000E94730586E190E09093EC068093EB0646
:1040700060E00E94BB0C87E190E09093E80680939B
:10408000E70660E00E94BB0C88E190E09093E406B4
:104090008093E30660E00E94BB0C89E190E090937E
:1040A000E0068093DF0660E00E94BB0C8AE190E0AE
:1040B0009093DC068093DB0660E00E94BB0C6BE013
:1040C00070E088EA96E00E94410F6BE070E085E7BF
:1040D00096E00E94410F2D960FB6F894DEBF0FBEFA
:1040E000CDBFDF91CF911F910F91FF90EF90DF90A7
:1040F000CF900895A1E21A2EAA1BBB1BFD010DC093
:10410000AA1FBB1FEE1FFF1FA217B307E407F50787
:1041100020F0A21BB30BE40BF50B661F771F881F63
:10412000991F1A9469F760957095809590959B01F9
:10413000AC01BD01CF010895052E97FB16F4009444
:104140000FD057FD05D0D6DF07FC02D046F408C0DB
:1041500050954095309521953F4F4F4F5F4F0895B3
:1041600090958095709561957F4F8F4F9F4F0895E3
:10417000EE0FFF1F881F8BBF0790F691E02D19945B
:1041800009D0A59F900DB49F900DA49F800D911D07
:1041900011240895A29FB001B39FC001A39F700D89
:1041A000811D1124911DB29F700D811D1124911D3F
:1041B00008955058BB27AA270ED021C112D130F044
:1041C00017D120F031F49F3F11F41EF407C10EF413
:1041D000E095E7FBD4C0E92F23D180F3BA1762073B
:1041E00073078407950718F071F49EF552C10EF419
:1041F000E0950B2EBA2FA02D0B01B90190010C01F7
:10420000CA01A0011124FF27591B99F0593F50F40E
:10421000503E68F11A16F040A22F232F342F442766
:10422000585FF3CF469537952795A795F04053955E
:10423000C9F77EF41F16BA0B620B730B840BBAF02E
:104240009150A1F0FF0FBB1F661F771F881FC2F799
:104250000EC0BA0F621F731F841F48F487957795AD
:104260006795B795F7959E3F08F0B3CF9395880F64
:1042700008F09927EE0F97958795089504D06894D4
:10428000B11108C10895D4D088F09F5790F0B92F8C
:104290009927B751A0F0D1F0660F771F881F991F9B
:1042A0001AF0BA95C9F712C0B13081F0F2D0B1E07E
:1042B0000895EFC0672F782F8827B85F39F0B93F8E
:1042C000CCF3869577956795B395D9F73EF490959D
:1042D0008095709561957F4F8F4F9F4F0895E8941B
:1042E00009C097FB3EF490958095709561957F4F3E
:1042F0008F4F9F4F9923A9F0F92F96E9BB279395EC
:10430000F695879577956795B795F111F8CFFAF4FB
:10431000BB0F11F460FF1BC06F5F7F4F8F4F9F4F2C
:1043200016C0882311F096E911C0772321F09EE88A
:10433000872F762F05C0662371F096E8862F70E0F0
:1043400060E02AF09A95660F771F881FDAF7880FCA
:104350009695879597F9089585D080F09F3740F41A
:1043600091110EF097C060E070E080E89FEB089537
:1043700026F41B16611D711D811D07C021C097F910
:104380009F6780E870E060E00895882371F47723E8
:1043900021F09850872B762F07C0662311F49927B8
:1043A0000DC09051862B70E060E02AF09A95660F60
:1043B000771F881FDAF7880F9695879597F90895E4
:1043C0009F3F31F0915020F4879577956795B79589
:1043D000880F911D9695879597F908959FEF80EC2A
:1043E000089500240A94161617061806090608955B
:1043F00000240A9412161306140605060895092EC1
:104400000394000C11F4882352F0BB0F40F4BF2B2F
:1044100011F460FF04C06F5F7F4F8F4F9F4F08956F
:1044200057FD9058440F551F59F05F3F71F0479565
:10443000880F97FB991F61F09F3F79F0879508954A
:10444000121613061406551FF2CF4695F1DF08C069
:10445000161617061806991FF1CF86957105610586
:1044600008940895E5DFA0F0BEE7B91788F4BB27EC
:104470009F3860F41616B11D672F782F8827985F34
:10448000F7CF869577956795B11D93959639C8F3C3
:104490000895E894BB2766277727CB0197F90895FD
:1044A000FA01EE0FFF1F30962105310599F16115D4
:1044B000710561F48038BFE39B0749F16894903837
:1044C000810561F08038BFEF9B0741F0992342F5E9
:1044D000FF3FE1053105210511F1E8940894E795C6
:1044E000D901AA2329F4AB2FBE2FF85FD0F310C057
:1044F000FF5F70F4A695E0F7F73950F019F0FF3A36
:1045000038F49F779F930CD00F9007FC9058089534
:104510003EF064CF60E070E080E89FE308954FE7ED
:104520009F775F934F933F932F939ED02F913F910F
:104530004F915F910CD105C019F40EF020CFA9CF97
:104540004DCF76DFC8F39638C0F707F80F92E8949E
:104550002BE33AEA48EB5FE708D10F920F920F92F4
:104560004DB75EB70F92C0D0EAE3F1E016D04F919D
:104570005F91EF91FF91E595EE1FFF1F49F0FE5708
:10458000E0684427EE0F441FFA95E1F74195550B7B
:1045900032D00F9007FE26C00895DF93CF931F936C
:1045A0000F93FF92EF92DF927B018C01689405C01C
:1045B000DA2EEF01D8D0FE01E894A591259135912E
:1045C00045915591AEF3EF0106DEFE019701A8017A
:1045D000DA9479F7DF90EF90FF900F911F91CF91D0
:1045E000DF9108959B01AC0160E070E080E89FE3FB
:1045F00011C1C5CEE5CE1CDFE8F39923D9F3940FA2
:10460000511DBBF39150504094F059F0882332F083
:10461000660F771F881F91505040C1F79E3F51058C
:1046200044F7880F911D9695879597F908955F3FF8
:10463000ACF0983E9CF0BB27869577956795B7952B
:1046400008F4B1609395C1F7BB0F58F711F460FF00
:10465000E8CF6F5F7F4F8F4F9F4FE3CF1BCF0EF0A1
:10466000AFCEBCCE68948BCEE3DEC8F39923D1F3F2
:10467000C6F3DF93CF931F930F93FF92C92FDD27CC
:1046800088232AF02197660F771F881FDAF720E02A
:1046900030E040E85FEB9FE3883920F0803E30F067
:1046A00021968F7787DDE2E6F1E003C083DDEFE856
:1046B000F1E073DF8B01BE01EC01FB2E6F57710936
:1046C0007595771F880B990B0CDE28E132E741E3E3
:1046D0005FE349D0AF2D9801AE01FF900F911F917C
:1046E000CF91DF9178DD8BCEFA01DC01AA0FBB1FE1
:1046F0009B01AC01BF5728F4222733274427507869
:104700001FC0B75188F4AB2F0024469537952795E5
:10471000011CA395D2F3002069F0220F331F441F20
:10472000B395DAF30DD045CD61307105A0E88A0765
:10473000B94630F49B01AC0166277727882790782B
:10474000309621F0208331834283538308950BD028
:1047500056CE47DE28F04CDE18F0952309F00FCE38
:104760003DCE112497CE5CDEA0F3959FD1F3950F3B
:1047700050E0551F629FF001729FBB27F00DB11DE5
:10478000639FAA27F00DB11DAA1F649F6627B00D75
:10479000A11D661F829F2227B00DA11D621F739F5E
:1047A000B00DA11D621F839FA00D611D221F749F6C
:1047B0003327A00D611D231F849F600D211D822FB3
:1047C000762F6A2F11249F5750408AF0E1F08823FA
:1047D0004AF0EE0FFF1FBB1F661F771F881F915007
:1047E0005040A9F79E3F510570F0C9CD53CE5F3FB1
:1047F000ECF3983EDCF3869577956795B795F7953A
:10480000E7959F5FC1F7FE2B880F911D96958795C1
:1048100097F908950CD0F3CDEBDD40F0E2DD30F0F8
:1048200021F45F3F19F0ABCD511134CED7CDF8DD77
:1048300098F39923C9F35523B1F3951B550BBB2767
:10484000AA2762177307840738F09F5F5F4F220F14
:10485000331F441FAA1FA9F333D00E2E3AF0E0E80D
:1048600030D091505040E695001CCAF729D0FE2F59
:1048700027D0660F771F881FBB1F261737074807EB
:10488000AB07B0E809F0BB0B802DBF01FF279358A1
:104890005F4F2AF09E3F510568F071CDFBCD5F3F21
:1048A000ECF3983EDCF3869577956795B795F79589
:1048B0009F5FC9F7880F911D9695879597F9089581
:1048C000E1E0660F771F881FBB1F6217730784071D
:1048D000BA0720F0621B730B840BBA0BEE1F88F72C
:1048E000E0950895CF93DF938230910510F482E034
:1048F00090E0E0917F07F091800720E030E0C0E099
:10490000D0E0309711F14081518148175907C0F02C
:104910004817590761F482819381209719F09B838E
:104920008A832BC09093800780937F0726C0211530
:10493000310519F04217530718F49A01BE01DF013F
:10494000EF010280F381E02DDCCF2115310509F163
:10495000281B390B2430310590F412968D919C91CF
:1049600013976115710521F0FB019383828304C0C5
:104970009093800780937F07FD01329644C0FD012C
:10498000E20FF31F81939193225031092D933C93B1
:104990003AC020917D0730917E07232B41F420916E
:1049A00006023091070230937E0720937D07209105
:1049B0000402309105022115310541F42DB73EB7AF
:1049C0004091080250910902241B350BE0917D07AC
:1049D000F0917E07E217F307A0F42E1B3F0B281778
:1049E000390778F0AC014E5F5F4F2417350748F068
:1049F0004E0F5F1F50937E0740937D0781939193E5
:104A000002C0E0E0F0E0CF01DF91CF9108950F9375
:104A10001F93CF93DF93009709F48CC0FC0132976A
:104A20001382128200917F071091800701151105F2
:104A300081F420813181820F931F20917D07309175
:104A40007E072817390779F5F0937E07E0937D07F5
:104A500071C0D80140E050E0AE17BF0750F4129685
:104A60002D913C911397AD012115310509F1D90123
:104A7000F3CF9D01DA013383228360817181860F38
:104A8000971F8217930769F4EC0128813981260F5B
:104A9000371F2E5F3F4F318320838A819B81938311
:104AA0008283452B29F4F0938007E0937F0742C06F
:104AB0001396FC93EE931297ED01499159919E0143
:104AC000240F351FE217F30771F480819181840F61
:104AD000951F029611969C938E93828193811396D3
:104AE0009C938E931297E0E0F0E0D80112968D919E
:104AF0009C911397009719F0F8018C01F6CF8D91D6
:104B00009C9198012E5F3F4F820F931F20917D074C
:104B100030917E072817390769F4309729F41092ED
:104B2000800710927F0702C01382128210937E07C3
:104B300000937D07DF91CF911F910F91089581E040
:104B400090E0F89416C0DC0101C06D9341505040D4
:104B5000E0F70895FB01DC014150504048F001901E
:104B60000D920020C9F701C01D9241505040E0F75E
:104B7000089511E0C0E7D1E000E005C0802FFE01FC
:104B8000F7DA2196011DC137D10780E00807B1F798
:044B9000F894FFCFC7
:104B9400FF1300FF00008107800000000000C40A2A
:104BA4002C138E0A6C0A800A0A0B00000000B90B51
:104BB4000000000030020102F901E501D601D5012F
:104BC400000000000000556E6B6E6F776E207069F8
:104BD4006E206D6F6465004932433A20546F6F2034
:104BE4006D616E792062797465732072656365699D
:104BF400766564004932433A20546F6F20666577C6
:104C040020627974657320726563656976656400F2
:104C140031302D6269742061646472657373696EE6
:104C240067206E6F7420737570706F7274656400A2
:104C3400746F6F206D616E7920717565726965732B
:104C44000063006600670061006200433A5C5573CC
:104C54006572735C4D617468696C64655C41707005
:104C6400446174615C4C6F63616C5C54656D705C31
:104C7400564D4275696C64735C5363726174636806
:104C84005F4669726D6174615F6C69625C6D6567D2
:104C9400615F61746D656761323536305C446562AD
:104CA40075675C536372617463685F4669726D61B2
:0C4CB40074615F6C69622E637070000018
:020000023000CC
:10E000000D9489F10D94B2F10D94B2F10D94B2F129
:10E010000D94B2F10D94B2F10D94B2F10D94B2F1F0
:10E020000D94B2F10D94B2F10D94B2F10D94B2F1E0
:10E030000D94B2F10D94B2F10D94B2F10D94B2F1D0
:10E040000D94B2F10D94B2F10D94B2F10D94B2F1C0
:10E050000D94B2F10D94B2F10D94B2F10D94B2F1B0
:10E060000D94B2F10D94B2F10D94B2F10D94B2F1A0
:10E070000D94B2F10D94B2F10D94B2F10D94B2F190
:10E080000D94B2F10D94B2F10D94B2F10D94B2F180
:10E090000D94B2F10D94B2F10D94B2F10D94B2F170
:10E0A0000D94B2F10D94B2F10D94B2F10D94B2F160
:10E0B0000D94B2F10D94B2F10D94B2F10D94B2F150
:10E0C0000D94B2F10D94B2F10D94B2F10D94B2F140
:10E0D0000D94B2F10D94B2F10D94B2F10D94B2F130
:10E0E0000D94B2F141546D656761323536300041AF
:10E0F000726475696E6F206578706C6F72657220DE
:10E1000073746B3530305632206279204D4C530099
:10E11000426F6F746C6F616465723E004875683F52
:10E1200000436F6D70696C6564206F6E203D200048
:10E130004350552054797065202020203D20005FF9
:10E140005F4156525F415243485F5F3D2000415658
:10E1500052204C696243205665723D20004743437C
:10E160002056657273696F6E203D20004350552024
:10E1700049442020202020203D20004C6F7720663D
:10E18000757365202020203D20004869676820665F
:10E190007573652020203D200045787420667573D6
:10E1A00065202020203D20004C6F636B2066757336
:10E1B000652020203D20004D617220203720323024
:10E1C000313300312E362E3800342E332E350056A2
:10E1D00023202020414444522020206F7020636F70
:10E1E00064652020202020696E73747275637469E1
:10E1F0006F6E2061646472202020496E74657272B3
:10E20000757074006E6F20766563746F7200726A49
:10E210006D702020006A6D70200057686174207056
:10E220006F72743A00506F7274206E6F7420737541
:10E2300070706F72746564004D7573742062652030
:10E2400061206C6574746572002000577269747483
:10E25000696E672045450052656164696E672045B7
:10E26000450045452065727220636E743D00504F35
:10E27000525400303D5A65726F2061646472003FF1
:10E280003D43505520737461747300403D454550C3
:10E29000524F4D207465737400423D426C696E6B41
:10E2A000204C454400453D44756D70204545505215
:10E2B0004F4D00463D44756D7020464C415348001B
:10E2C000483D48656C70004C3D4C69737420492F83
:10E2D0004F20506F72747300513D51756974005234
:10E2E0003D44756D702052414D00563D73686F7707
:10E2F00020696E7465727275707420566563746FF0
:10E30000727300593D506F727420626C696E6B00BD
:10E310002A0011241FBECFEFD1E2DEBFCDBF01E046
:10E320000CBF12E0A0E0B2E0EEE1FDEF03E00BBFB6
:10E3300002C007900D92A030B107D9F712E0A0E01B
:10E34000B2E001C01D92AE30B107E1F70F9460F367
:10E350000D948DFE01E20EBF0FEF0DBF11241FBE05
:10E360000D9460F30D9400F020E030E040ED57E0B4
:10E3700005C0FA013197F1F72F5F3F4F2817390792
:10E38000C0F308959C01260F311DC901A0E0B0E043
:10E390002F5F3F4FABBFFC018791882361F08093D3
:10E3A000C6008091C00086FFFCCF8091C0008064D1
:10E3B0008093C000EACF08958DE08093C6008091DD
:10E3C000C00086FFFCCF8091C00080648093C000B5
:10E3D0008AE08093C6008091C00086FFFCCF8091C8
:10E3E000C00080648093C00008950F94C2F10F9420
:10E3F000DCF10895FC019081992359F09093C600B7
:10E400008091C00086FFFCCF8091C0008064809323
:10E41000C0003196992379F70895282F982F929567
:10E420009F70892F805D8A3308F0895F8093C600D2
:10E430008091C00086FFFCCF8091C00080648093F3
:10E44000C000822F8F70982F905D9A3308F0995FEB
:10E450009093C6008091C00086FFFCCF8091C000E1
:10E4600080648093C00008959C01FB01853691056E
:10E470001CF46330710594F0C90164E670E00F94F8
:10E480002EFE605D7F4F6093C6008091C00086FFC6
:10E49000FCCF8091C00080648093C0002B30310598
:10E4A00014F43297B4F0C90164E670E00F942EFEC4
:10E4B0006AE070E00F942EFE605D7F4F6093C600AF
:10E4C0008091C00086FFFCCF8091C0008064809363
:10E4D000C000C9016AE070E00F942EFEC0968093E0
:10E4E000C6008091C00086FFFCCF8091C000806490
:10E4F0008093C00008951F93182F8EE692EE60E07F
:10E500000F94C2F11093C6008091C00086FFFCCF2B
:10E510008091C00080648093C0000F94DCF11F9153
:10E5200008952F923F924F925F926F927F928F92B7
:10E530009F92AF92BF92CF92DF92EF92FF920F9392
:10E540001F93DF93CF93CDB7DEB762970FB6F894E2
:10E55000DEBF0FBECDBF382E622ECA01DB015C01CB
:10E560006D01772420E2222E2E010894411C511CBB
:10E570008BC081E0A81680E0B80681E0C80680E084
:10E58000D80628F0C601AA27BB270F940DF2BB2797
:10E59000AD2D9C2D8B2D0F940DF28A2D0F940DF225
:10E5A0002092C6008091C00086FFFCCF8091C00001
:10E5B00080648093C0009DE29093C6008091C0006B
:10E5C00086FFFCCF8091C00080648093C0002092C1
:10E5D000C6008091C00086FFFCCF8091C00080649F
:10E5E0008093C00019828601750188249924A1E0D6
:10E5F0003A1651F03A1620F0B2E03B1661F409C029
:10E600000BBFF701779007C0C7010F9477FE782EF4
:10E6100002C0F7017080872D0F940DF22092C60082
:10E620008091C00086FFFCCF8091C0008064809301
:10E63000C000872D8052F401EF70F0708F3520F408
:10E64000E40DF51D708204C0E40DF51D8EE280839B
:10E650000894E11CF11C011D111D0894811C911CE2
:10E6600090E18916910409F0C2CF80E190E0A0E02A
:10E67000B0E0A80EB91ECA1EDB1E198AC2010F9493
:10E68000FAF10F94DCF16A94662009F072CF629679
:10E690000FB6F894DEBF0FBECDBFCF91DF911F91B3
:10E6A0000F91FF90EF90DF90CF90BF90AF909F9031
:10E6B0008F907F906F905F904F903F902F90089534
:10E6C0002F923F924F925F926F927F928F929F9282
:10E6D000AF92BF92CF92DF92EF92FF920F931F9370
:10E6E000DF93CF93CDB7DEB7CD53D1400FB6F894BB
:10E6F000DEBF0FBECDBF01E20EBF0FEF0DBF94B75F
:10E70000F894A89514BE80916000886180936000A1
:10E7100010926000789493FF05C0E0910002F091A0
:10E7200001021995279A2F9A8091C00082608093E8
:10E73000C00080E18093C40088E18093C1000000A4
:10E74000EE24FF24870144E0A42EB12CCC24DD2448
:10E7500024C0C5010197F1F70894E11CF11C011DCB
:10E76000111D21E2E2162EE4F20620E0020720E06D
:10E77000120718F031E0C32ED12CC801B70127ECE5
:10E780003BE140E050E00F9441FE611571058105C9
:10E79000910519F485B1805885B98091C00087FD35
:10E7A00003C0C114D104A9F2A6014F5F5F4FC25E3E
:10E7B000DE4F59834883CE51D140C25EDE4F8881FF
:10E7C0009981CE51D140019711F00D9410FEC05D9A
:10E7D000DE4F19821882C053D14060E0C15DDE4F28
:10E7E0001882CF52D14088249924C35DDE4F19820C
:10E7F0001882CD52D140C05EDE4F188219821A8233
:10E800001B82C052D140CE5CDE4F188219821A8220
:10E810001B82C253D140EE24FF2487010BBFF701B6
:10E8200007911691C45CDE4F19830883CC53D14005
:10E830000D940BFEC25EDE4F28813981CE51D1404E
:10E840002130310509F52091C600C25EDE4F1982E4
:10E850001882CE51D14022C02F5F3F4F4F4F5F4FA4
:10E86000213082E138078AE7480780E0580780F0C6
:10E87000C45CDE4FE881F981CC53D140EF5FFF4F9C
:10E8800019F0EE27FF27099420E030E040E050E047
:10E890008091C00087FFE0CF2091C600C35DDE4FAE
:10E8A00048815981CD52D1404F5F5F4FC35DDE4FEC
:10E8B00059834883CD52D140213209F063C64A3092
:10E8C000510508F05FC60894811C911C53E0851621
:10E8D000910409F059C600E010E018C081E280936D
:10E8E000C6008091C00086FFFCCF8091C00080648C
:10E8F0008093C0002F5F3F4F2931310579F70F9486
:10E90000DCF10F5F1F4F0530110519F020E030E0FA
:10E91000E5CF10920A0210920B0210920C02109294
:10E920000D02109206021092070210920802109235
:10E930000902109202021092030210920402109235
:10E9400005028FEE90EE60E00F94F5F180E191EE1C
:10E9500060E00F94C2F18091C00087FFFCCF9091DE
:10E96000C600903608F09F759032B8F09093C600BC
:10E970008091C00086FFFCCF8091C00080648093AE
:10E98000C000A0E2A093C6008091C00086FFFCCF2B
:10E990008091C00080648093C000983409F4D7C18E
:10E9A0009934B8F4923409F459C1933458F490333B
:10E9B00019F1903308F4E3C59F33A1F1903409F0C5
:10E9C000DEC5BDC0953409F470C1963409F0D7C5D1
:10E9D00098C1923509F42BC2933538F49C3409F46C
:10E9E000F5C1913509F0CBC518C2963509F445C279
:10E9F000993509F0C4C567C483E792EE62E00F94CD
:10EA0000F5F110920602109207021092080210927D
:10EA1000090210920A0210920B0210920C0210923C
:10EA20000D0213C18FE792EE62E00F94F5F18FEEC5
:10EA300090EE60E00F94F5F181E291EE60E00F94CA
:10EA4000C2F187EB91EE60E00F94F5F180E391EE77
:10EA500060E00F94C2F184EE90EE60E00F94F5F167
:10EA60008FE391EE60E00F94C2F186E090E061E008
:10EA700070E00F9434F20F94DCF18DE591EE60E0DC
:10EA80000F94C2F189EC91EE60E00F94F5F18EE401
:10EA900091EE60E00F94C2F183EC91EE60E00F9490
:10EAA000F5F18CE691EE60E00F94C2F18EE10F94E7
:10EAB0000DF288E90F940DF281E00F940DF20F949E
:10EAC000DCF18BE791EE60E00F94C2F119E0E0E039
:10EAD000F0E010935700E4918E2F0F940DF20F94F5
:10EAE000DCF18AE891EE60E00F94C2F1E3E0F0E03F
:10EAF00010935700E4918E2F0F940DF20F94DCF1D8
:10EB000089E991EE60E00F94C2F1E2E0F0E0109349
:10EB10005700E4918E2F0F940DF20F94DCF188EAE8
:10EB200091EE60E00F94C2F1E1E0F0E01093570045
:10EB30001491812F0F940DF20F94DCF107CF8BE825
:10EB400092EE62E00F94F5F18BE492EE60E00F94A8
:10EB5000F5F10F94DCF100E010E019C0C8016F2D51
:10EB60000F947FFEFF2031F489E492EE60E00F9471
:10EB7000C2F10BC0F092C6008091C00086FFFCCFAE
:10EB80008091C00080648093C0000F5F1F4FC80158
:10EB900081519F41A0E0B0E0ABBFFC01F790BAE229
:10EBA000FB1621F0E2E000301E07C1F60F94DCF105
:10EBB0000F94DCF187E592EE60E00F94F5F10F948D
:10EBC000DCF1CC24DD2400E010E01EC0C8010F946D
:10EBD00077FEF82E882331F489E492EE60E00F94FA
:10EBE000C2F10BC08093C6008091C00086FFFCCFAD
:10EBF0008091C00080648093C000FE1419F00894D6
:10EC0000C11CD11C0F5F1F4FC80181519F41A0E063
:10EC1000B0E0ABBFFC01E790FAE2EF1621F022E092
:10EC20000030120799F60F94DCF10F94DCF182E6C4
:10EC300092EE60E00F94C2F1C60161E070E00F94C3
:10EC400034F20F94DCF10F94DCF110920202109276
:10EC50000302109204021092050278CE89E992EE26
:10EC600062E00F94F5F1279A2F9A16C02F9880E052
:10EC700090E0E0EDF7E03197F1F7019684369105E9
:10EC8000C1F72F9A80E090E0E0EDF7E03197F1F7DF
:10EC9000019684369105C1F78091C00087FFE6CFC9
:10ECA0008091C00087FFFCCF64C485EA92EE62E0E9
:10ECB0000F94F5F140910202509103026091040219
:10ECC0007091050281E020E10F9491F2809102029F
:10ECD00090910302A0910402B091050280509F4FD1
:10ECE000AF4FBF4F8093020290930302A0930402A0
:10ECF000B093050280509041A040B04008F426CE69
:10ED0000A4CF83EB92EE62E00F94F5F140910602FE
:10ED100050910702609108027091090280E020E1A1
:10ED20000F9491F28091060290910702A09108023F
:10ED3000B091090280509F4FAF4FBF4F80930602A2
:10ED400090930702A0930802B0930902FFCD80ECD4
:10ED500092EE62E00F94F5F183E792EE60E00F949B
:10ED6000F5F18FE792EE60E00F94F5F18BE892EE0B
:10ED700060E00F94F5F189E992EE60E00F94F5F10F
:10ED800085EA92EE60E00F94F5F183EB92EE60E09D
:10ED90000F94F5F180EC92EE60E00F94F5F187ECC2
:10EDA00092EE60E00F94F5F188ED92EE60E00F9442
:10EDB000F5F18FED92EE60E00F94F5F18AEE92EEB0
:10EDC00060E00F94F5F183E093EEBDCD87EC92EE19
:10EDD00062E00F94F5F181E40F947BF282E40F94EA
:10EDE0007BF283E40F947BF284E40F947BF285E45E
:10EDF0000F947BF286E40F947BF287E40F947BF20E
:10EE000088E40F947BF28AE40F947BF28BE40F94F6
