:100000003AC1000069C1000067C1000065C100007D
:1000100063C1000061C100005FC100005DC100005C
:100020005BC10000F7C30000F5C30000F3C300008C
:1000300053C100000C9476144FC100004DC1000064
:100040004BC1000049C1000047C1000045C100008C
:1000500043C1000041C100003FC100000C94B61232
:100060003BC100000C94B7100C948E1035C10000F9
:1000700033C1000031C100002FC100002DC10000BC
:100080002BC1000029C1000027C1000025C10000CC
:100090000C9465100C943C101FC10000C5C30000F7
:1000A0001BC1000019C1000017C1000015C10000EC
:1000B00013C1000011C100000FC100000DC10000FC
:1000C0000BC1000009C1000007C100000C9413100F
:1000D0000C94EA0F01C100000C94C10F0C94980F0E
:1000E000FBC0000086089508110895084708950888
:1000F000F207950895089508950895089508D00683
:10010000950895079508DD075B0F5E0F4D0F510FA2
:10011000570F950F620F660F6C0F700F740F7A0FE9
:100120007E0F820F950F880F8C0F900F9A119F11E1
:10013000A411AE11B8113112C211CA11D211DC11C1
:10014000E611F011FF110912311213121D122712BC
:1001500001021020200808102040102040800201D9
:1001600002010804020101020408102040808040BE
:1001700020100804020180040201804020100804BD
:10018000020108040201010204081020408001025B
:1001900004081020408000002200250028002B00C9
:1001A0002E003100340002010000050108010B019E
:1001B00005050505070508080808020202020A0AE3
:1001C0000808040404040101010101010101030301
:1001D000030303030303040707070C0C0C0C0C0CAC
:1001E0000C0C0202020206060606060606060B0BA9
:1001F0000B0B0B0B0B0B0200002100240027002A25
:10020000002D003000330001010000040107010A45
:1002100001000020002300260029002C002F0032BE
:10022000000001000003010601090100000A0B02A1
:10023000090C0D0E08070304010000000000000077
:1002400000000000000000000000000000000000AE
:10025000000000000000001211100000000000006B
:10026000000000000000000000000000000000008E
:1002700000001A1C121C11241FBECFEFD1E2DEBFFA
:10028000CDBF00E00CBF13E0A0E0B2E0E4E5FFE387
:1002900000E00BBF02C007900D92A832B107D9F75A
:1002A0002AE0A8E2B3E001C01D92A530B207E1F751
:1002B00011E0CAE3D1E000E006C021970109802FD8
:1002C000FE010E94281EC933D10780E00807A9F764
:1002D0000E94D5140C94991F93CE85ED8093BC0099
:1002E0008091BC0084FDFCCF10923E0508954091A2
:1002F000F104262F30E0240F311D21323105DCF4CA
:1003000020913E052430C9F4FC0180E090E086177E
:1003100058F43091F1042191DC01A153BB4FA30F9C
:10032000B11D2C930196F3CF8091F104680F609377
:10033000F10480E0089581E0089582E00895089531
:10034000E091CE048091CD04E81730F4F0E0E3555D
:10035000FB4F808190E008958FEF9FEF089590917B
:10036000CE048091CD04981750F4E92FF0E0E355C6
:10037000FB4F208130E09F5F9093CE0402C02FEFAF
:100380003FEFC90108958091CD0490E02091CE0403
:10039000821B91090895CF92DF92EF92FF920F9303
:1003A0001F93CF93DF937C01262F972F8A01809193
:1003B0003F05882391F0C62FD72F6E01C40ED51E9E
:1003C000CC15DD0569F06991D701ED91FC910190A3
:1003D000F081E02DC7011995F3CF642F822F87DFBD
:1003E000C801DF91CF911F910F91FF90EF90DF90A7
:1003F000CF900895CF93DF931F92CDB7DEB7698377
:1004000020913F052223D1F020916205203240F057
:1004100021E030E0FC013383228380E090E014C0CF
:1004200080914005E82FF0E0EF5BFA4F99819083CF
:100430008F5F809340058093620504C061E0CE0128
:10044000019655DF81E090E00F90DF91CF91089504
:100450001F93CF93DF93893008F071C0282F220FAC
:10046000220F220F285F273408F026E4C82FCC0F74
:10047000CC0FCC0F3C2F10E041E03217F0F48EEFA0
:10048000830F8434B8F4832F90E0FC01E05AFC4FD2
:100490005081523078F4142B880F991FFC01E253DD
:1004A000FC4FA1E0B0E0842F862311F4A0E0B0E07F
:1004B000B183A083440F3F5FE0CFD62F10FF04C06D
:1004C00061708C2F0E94081111FF06C06D2F6270A1
:1004D00081E08C0F0E94081112FF06C06D2F64701E
:1004E00082E08C0F0E94081113FF06C06D2F687008
:1004F00083E08C0F0E94081114FF06C06D2F6071FD
:1005000084E08C0F0E94081115FF06C06D2F6072E9
:1005100085E08C0F0E94081116FF06C06D2F6074D5
:1005200086E08C0F0E94081117FF09C06D2F6078BC
:1005300087E08C0FDF91CF911F910C940811DF9110
:10054000CF911F910895CF93803178F540915E034C
:1005500050915F0321E030E0672B81F4B90102C0C4
:10056000660F771F8A95E2F7CB01809590958423DB
:10057000952390935F0380935E0317C0082E02C0FB
:10058000220F331F0A94E2F7242B352B30935F039D
:1005900020935E039091AC04911107C0C82F0E9474
:1005A0003A12BC018C2FCF9104C6CF9108950F93BE
:1005B0001F93CF93DF938634D0F4C82FD0E0FE0191
:1005C000E05AFC4F9081933091F48B019EEF980F8D
:1005D0009C3020F094ED980F933018F4B8010E94ED
:1005E0007311CC0FDD1FC253DC4F19830883DF91D9
:1005F000CF911F910F910895CF92DF92EF92FF92CA
:100600000F931F93CF93DF93C82ED12C8601005AEE
:100610001C4FF80190819F3709F4A2C0963061F415
:100620009091AB04992341F06630710529F0109246
:10063000AB049FEF909300027B01C82FDAECD80F38
:10064000D03150F461E070E0F2E0EF16F10411F007
:1006500060E070E08D2F77DF9EEF9C0F9434C8F43C
:10066000EC2FE695E695E6958C2F8770F0E0E85D37
:10067000FC4F21E030E001C0220F8A95EAF7E11437
:10068000F10419F48081282B03C020958081282350
:100690002083F601EE0FFF1FE253FC4F1182108200
:1006A00082E0E816F10489F03CF4E114F104E1F091
:1006B000EA94EF2831F149C083E0E816F10469F1CA
:1006C000E6E0EE16F104D1F140C0D03108F048C0A8
:1006D000943440F460E08C2F0E94371160E08C2F3E
:1006E0000E94081182E02EC09434D0F560E08C2F77
:1006F0000E94371160E08C2F0E940811F8011082CF
:100700002FC0943468F560E08C2F0E94081161E0DE
:100710008C2F0E94371181E015C09C3020F084EDB1
:100720008C0F8330E8F461E08C2F0E94371160E079
:1007300070E08C2F0E94731183E004C0C451C2305A
:1007400078F486E0F80180830BC08CEA92E0DF91B8
:10075000CF911F910F91FF90EF90DF90CF9074C5D4
:10076000DF91CF911F910F91FF90EF90DF90CF908D
:1007700008950F931F93CF93DF9381E08093AC0490
:100780008091AB04882329F01092AB048FEF809303
:100790000002C8E2D3E0A2EAB4E0E1E3F3E089E0DA
:1007A0008E0F119219921D928E13FBCF0CE514E05F
:1007B000C0E0DFEF8AEC8C0F803118F462E070E06B
:1007C00002C061E070E08C2F17DFF801D1938F0138
:1007D000CF5FC63479F710925F0310925E031092D8
:1007E000AC04DF91CF911F910F910895CF93DF93C8
:1007F000EC0188859985009711F00E94C51E8E81B5
:1008000087FD05C060E0DF91CF910C943711DF9137
:10081000CF9108951F920F920FB60F9211240F904F
:100820000FBE0F901F9018951F920F920FB60F9248
:1008300011240BB60F922F933F934F935F936F93B7
:100840007F938F939F93AF93BF93EF93FF93809189
:10085000B900887F803609F49CC068F5883209F4B5
:100860005BC090F4803109F454C038F4882309F453
:10087000F6C0883009F44DC0F5C0883109F44CC089
:10088000803209F45DC0EEC0803409F468C048F4D9
:10089000803309F455C0883309F0E4C080933C05E7
:1008A000D8C0803509F44FC0883509F45DC088345C
:1008B00009F0D8C0D6C0883909F4C7C0A8F4883771
:1008C00009F467C038F4883609F463C0803709F446
:1008D00060C0C8C0883809F4B8C0803909F45FC066
:1008E000803809F0BFC05BC0803B09F486C038F493
:1008F000803A09F466C0883A09F47FC0B3C0803CEE
:1009000009F4A7C0883C09F4A4C0883B09F48AC054
:10091000A9C08091190510C090913B0580913A05BE
:10092000981770F5E0913B0581E08E0F80933B05B1
:10093000F0E0E65EFA4F80818093BB0085EC86C0D4
:1009400080933C058EC0E0913B0581E08E0F809343
:100950003B058091BB00F0E0E65EFA4F808390910A
:100960003B0580913A056EC0E0913B0581E08E0F1A
:1009700080933B058091BB00F0E0E65EFA4F8083F8
:1009800080913D0581116DC081E08093180584EA56
:1009900061C083E080933E0510921505CFCF809112
:1009A0001505803208F051C0E091150581E08E0FE9
:1009B000809315058091BB00F0E0EB50FB4F8083E6
:1009C000BDCF85EC8093BC0010923E05809115054B
:1009D000803230F4E0911505F0E0EB50FB4F1082CF
:1009E0006091150570E0E091F304F091F40485EF57
:1009F00094E019951092150535C084E080933E056A
:100A00001092F2041092F104E091EF04F091F004DE
:100A100019958091F104811105C081E08093F10462
:100A20001092CF04E091F20481E08E0F8093F204E3
:100A3000F0E0E153FB4F80818093BB009091F20482
:100A40008091F104981708F479CF85E88093BC0071
:100A500009C085EC8093BC0010923E0503C0109243
:100A60003C053BDCFF91EF91BF91AF919F918F913E
:100A70007F916F915F914F913F912F910F900BBE9E
:100A80000F900FBE0F901F901895FC0180819181EF
:100A90000C94C51E0F931F93CF93082F10E0F801FD
:100AA000E85DFC4F9081C62FC9230E551B4F4111A5
:100AB00004C0D8019C919C1771F1682F8091260881
:100AC00090912708DC01ED91FC916F7060690190B5
:100AD000F081E02D19958091260890912708DC017E
:100AE000ED91FC916C2F6F770190F081E02D1995BD
:100AF0008091260890912708DC01ED91FC916C2FE4
:100B000070E0660F672F661F770B0190F081E02D74
:100B10001995F801C083CF911F910F9108950F93FC
:100B20001F93CF93DF93082F893008F077C090E0B0
:100B3000FC01EF5CFC4F6083672B09F46FC0FC0184
:100B4000E85DFC4F1081D02FDD0FDD0FDD0F8EEF44
:100B50008D0F843408F052C010FF50C08D2F0E94BA
:100B6000E010892B09F44AC0C1E08FEF8D0F843467
:100B700048F411FF07C081E08D0F0E94E010892B1F
:100B800009F03EC012FF06C082E08D0F0E94E01007
:100B9000892BC1F513FF06C083E08D0F0E94E01082
:100BA000892B91F514FF06C084E08D0F0E94E010A0
:100BB000892B61F515FF06C085E08D0F0E94E010BE
:100BC000892B31F5D03491F016FF06C086E08D0FE9
:100BD0000E94E010892BF1F4DF3340F417FF06C0C8
:100BE00087E08D0F0E94E010892BB1F441E06C2F5B
:100BF000802FDF91CF911F910F914CCFC0E0B5CFE7
:100C0000C260C0CFC460C6CFC860CCCFC061D2CFF5
:100C1000C062D8CFC064E0CFC068E8CFDF91CF9189
:100C20001F910F910895EF92FF920F931F93CF930F
:100C3000DF93082FEB01142F6F3F8FEF7807E1F060
:100C400081E080933F05009361051092400510926A
:100C5000620586E599E0CEDB9AD7E0915A04F091DF
:100C60005B04E230F10550F0EE0FFF1FEE0FFF1FA7
:100C700035973197F1F702C0C0E0D0E080913E0592
:100C80008111FCCF212F113208F020E281E0809306
:100C90003E0580933D059FEF90933C0510923B05E8
:100CA000920F90933A058093190580911905902F22
:100CB000990F892B8093190580911805813061F473
:100CC00010921805809119058093BB008091BC009B
:100CD00083FDF8CF85EC01C085EE8093BC00809148
:100CE0003E058130E1F380913B05821710F420919D
:100CF0003B05AAE1B5E04DEA54E0FA018E2F841BD2
:100D0000821718F48D918193F9CF1092CE0420931D
:100D1000CD04E12EF12C30E0E216F3061CF48DEB4D
:100D200092E005C02E153F051CF48AED92E08CD2AE
:100D30000093AE03C093AF03C0E0D0E0CE15DF0553
:100D400034F49091CD048091CE0498130CC062E0ED
:100D5000610F4EEA53E087E7DF91CF911F910F912A
:100D6000FF90EF903CC286E599E0F9DAFE01E2558A
:100D7000FC4F82832196E2CF0F931F93CF93DF9393
:100D800090E0FC01E956F109E231F10508F0CDC12E
:100D9000EA01162F8827EE58FF4F8F4F0C94281E1C
:100DA0008981982F987185FF03C086EF92E04FC02C
:100DB0008881983051F168F49111B7C191E0909316
:100DC0003F0580936105109240051092620502E094
:100DD00006C09031B1F1983109F462C0A6C1011783
:100DE00070F4FE01E00FF11D8181608120E8829F97
:100DF0006019112486E599E0FDDA0E5FF0CFC7D6C1
:100E000083E191E00197F1F790C14A816B8116303F
:100E100069F430E8639FB0011124640F711D9D8156
:100E20004C8150E8959F4019112406C090E8699FB5
:100E3000401911246FEF7FEFDF91CF911F910F9138
:100E4000F2CEE0910002E7303CF086E193E0DF91E2
:100E5000CF911F910F91F8C19A812B81F0E86630F4
:100E600061F42F9F90011124290F311D4D819C8128
:100E700050E8459F9019112405C02F9F9019112407
:100E80002FEF3FEFEF5FE093000244E0E402F00158
:100E90001124E25CFC4F808332832183938345C11C
:100EA00030910002131624F08FEF809300023DC1B1
:100EB00020E0632F032E000C770B422F50E06417C5
:100EC000750764F0440F551F440F551FFA01E25C8B
:100ED000FC4F9081981701F12F5FEFCF20E01CC0ED
:100EE0002830C8F4DC01AA0FBB1FAA0FBB1FAE5BE2
:100EF000BC4F4C91880F991F880F991FFC01E25C31
:100F0000FC4F408311968D919C911297928381831F
:100F100013968C9183832F5F822F90E06817790757
:100F2000FCF631503093000200C12881898150E8DD
:100F3000859FC0011124820F911D009721F090938D
:100F40005B0480935A048091AB048111EEC0C0E031
:100F50008CEE8C0F823020F466E070E08C2F4CDB3E
:100F6000CF5FC634A9F781E08093AB041092CE0422
:100F70001092CD04109240051092620510923E0529
:100F800080933D051092180561E084E10E940811EC
:100F900061E085E10E9408118091B9008E7F809305
:100FA000B9008091B9008D7F8093B90088E4809367
:100FB000B80085E48093BC00B8C0623008F4B5C0C6
:100FC00028818981E0E88E9FC0011124820F911D44
:100FD0008A30910514F48AE090E0909302028093A5
:100FE0000102A3C0623008F4A0C0698170E0123031
:100FF00091F08A81F0E88F9FC0011124682B792B32
:10100000133049F08B8190E090E4899F902D8827E0
:101010001124682B792B8881DF91CF911F910F913B
:10102000C6CA80EFA7D58CE6A5D5CEEF8CEC8C0F89
:10103000803128F482E09ED58AE09CD502C0CC3075
:1010400020F086ED8C0F833020F483E093D588E088
:1010500091D5C43420F484E08DD58EE08BD58EEE0E
:101060008C0F823020F486E085D581E083D58FE730
:1010700081D5CF5FC434B9F0C434C0F680E07AD5EE
:1010800081E078D581E076D581E074D5CFCF662335
:1010900009F44BC0C88180EF6DD58EE66BD58C2FDF
:1010A00069D5C63430F087EFDF91CF911F910F9152
:1010B00061C5D0E0FE01E05AFC4F80815BD5CC0FCA
:1010C000DD1F8E0102531C4FF80180818F7752D5AE
:1010D000F801808191819C012078232B31F0880FC9
:1010E000892F881F990B8F7745D5C253DC4F888194
:1010F00099819C012227307C232BA9F2990F880B20
:10110000990F982F881F8F7735D5CDCF80EF32D5A7
:101110008AE630D5CAECC03110F48C2F01C08FE7BD
:1011200029D5CF5FC031B9F7BECFDF91CF911F91E5
:101130000F9108950F931F93CF93DF93EC0106E275
:1011400018E0D8018D919C91DC01ED91FC916C2F00
:101150006F770190F081E02D1995F80180819181E0
:10116000DC01ED91FC91CC0FCD2FCC1FDD0B6C2F52
:101170006F770190F081E02DDF91CF911F910F915A
:1011800019948091260890912708DC01ED91FC913B
:101190000190F081E02D67EF1994809126089091DD
:1011A0002708DC01ED91FC910190F081E02D60EFCA
:1011B0001994CF93DF93EB01A0912608B0912708F3
:1011C000ED91FC9111978F70682F606E0190F08106
:1011D000E02DCD011995CE01DF91CF91ABCFEF92EC
:1011E000FF920F931F93CF93DF9300D0CDB7DEB75D
:1011F000162F4A835B838983D0DFA0912608B091A4
:101200002708ED91FC9111970190F081E02D8981E3
:10121000682FCD0119954A81042FE42E5B81F52EAC
:101220008E2D801B811730F4F70181917F0190E0B2
:1012300081DFF6CF0F900F900F90DF91CF911F912C
:101240000F91FF90EF909DCFFC0101900020E9F7F6
:101250003197BF01681B790BAC0181E7C0CFCF93F9
:101260009CDF8091260890912708DC01ED91FC918C
:101270000190F081E02D69E7199580912608909101
:101280002708DC01ED91FC91A0912908B0912A0872
:101290000190F081E02D6C91199580912608909134
:1012A0002708DC01ED91FC91A0912908B0912A0852
:1012B0000190F081E02D11966C911995C2E080911A
:1012C0002808C81758F4E0912908F0912A08EC0F73
:1012D000F11D808190E02EDFCF5FF1CFCF9151CF14
:1012E000CF93DF93C6E2D8E088819981DC01ED914C
:1012F000FC910190F081E02D69EF19958881998129
:10130000DC01ED91FC910190F081E02D62E01995F6
:1013100088819981DC01ED91FC910190F081E02DB3
:1013200065E0DF91CF911994CF92DF92EF92FF9217
:101330006B017C01E0915107F091520782E08083BC
:10134000C11481EED806E104F104B1F060E079E067
:101350008DE390E0A70196010E94771FDA01C90191
:101360000197A109B109B695A795979587959C0115
:10137000211580E13807B8F0E0915107F09152074C
:10138000108260E874E88EE190E0A70196010E9467
:10139000771FDA01C9010197A109B109B695A7958F
:1013A000979587959C01E0914D07F0914E0730830A
:1013B000E0914F07F0915007208310925907E09178
:1013C0005507F091560786E08083E0915307F0912E
:1013D0005407808180618083E0915307F091540726
:1013E000808188608083E0915307F0915407808169
:1013F00080688083E0915307F091540780818F7D4E
:101400008083FF90EF90DF90CF9008958F929F920E
:10141000AF92BF92CF92DF92EF92FF92CF93209143
:1014200064093091650940910302421721F04F3F52
:1014300009F0E0C204C0E6EFF1E0C491FEC02093E1
:101440000302E6EFF1E0C491CF3F09F4D3C2C2300A
:1014500009F47EC06CF5CC2309F459C0C13009F001
:10146000ECC0109280001092810040918100486091
:101470004093810040918100416040938100A90127
:101480005527FA01E055FE4FE491F0E0EE0FFF1F03
:10149000EA56FE4F659174917093E4096093E309F5
:1014A000FA01E05BFE4FE491E093E209C1E0C7C0BE
:1014B000C43009F49BC00CF472C0C53009F0BDC043
:1014C0001092200110922101409121014860409327
:1014D000210140912101416040932101A90155273B
:1014E000FA01E055FE4FE491F0E0EE0FFF1FEA56DF
:1014F000FE4F659174917093DB096093DA09FA01EC
:10150000E05BFE4FE491E093D909C5E098C014BCBC
:1015100015BC44B5426044BD45B5416045BDA90117
:101520005527FA01E055FE4FE491F0E0EE0FFF1F62
:10153000EA56FE4F659174917093E7096093E6094E
:10154000FA01E05BFE4FE491E093E509C0E077C06B
:101550001092B0001092B1004091B00042604093F0
:10156000B0004091B10041604093B100A9015527FE
:10157000FA01E055FE4FE491F0E0EE0FFF1FEA564E
:10158000FE4F659174917093650560936405FA014F
:10159000E05BFE4FE491E0936305C2E050C010921F
:1015A000900010929100409191004860409391000A
:1015B00040919100416040939100A9015527FA01A3
:1015C000E055FE4FE491F0E0EE0FFF1FEA56FE4FAC
:1015D000659174917093E1096093E009FA01E05B11
:1015E000FE4FE491E093DF09C3E029C01092A00010
:1015F0001092A1004091A10048604093A100409149
:10160000A10041604093A100A9015527FA01E055CE
:10161000FE4FE491F0E0EE0FFF1FEA56FE4F65919A
:1016200074917093DE096093DD09FA01E05BFE4F6F
:10163000E491E093DC09C4E002C0C7FDDBC16C01AA
:1016400061E0822F14D6E12CF12C8C2F8D7F09F0D4
:10165000A9C060E072E18AE790E0A70196010E94CC
:101660000C1E49015A01BA01A901415051096109F1
:1016700071094F3F51056105710509F008F445C036
:1016800060E472E48FE090E0A70196010E940C1ED6
:10169000BA01A9014150510961097109C230E9F447
:1016A0004F3F51056105710509F008F4A1C160E9DA
:1016B00070ED83E090E0A70196010E940C1EBA0134
:1016C000A90141505109610971094F3F5105610557
:1016D000710509F0A8F583E05EC04F3F5105610533
:1016E0007105A9F0A0F068E478EE81E090E0A70130
:1016F00096010E940C1EBA01A901415051096109CD
:101700007109CC2309F423C16BC181E001C082E0DF
:10171000CC2389F040C0D501C4012AE0B595A79536
:10172000979587952A95D1F7AC01BD014150510994
:101730006109710985E095B5987F892B85BD8CC0BD
:1017400068E478EE81E090E0A70196010E940C1E0B
:10175000BA01A90141505109610971094F3F510571
:101760006105710509F008F4F0C064E274EF80E0EF
:1017700090E0A70196010E940C1EBA01A9014150F8
:101780005109610971094F3F51056105710511F05A
:1017900008F0FCC085E09091B100987F892B809380
:1017A000B10049C060E072E18AE790E0A7019601CC
:1017B0000E940C1EBA01A901415051096109710929
:1017C0004115510581E06807710580F068E478EE05
:1017D00081E090E0A70196010E940C1EBA01A901C8
:1017E000415051096109710983E001C081E0C130B4
:1017F00039F490918100987F892B809381003EC0BD
:10180000C33039F490919100987F892B8093910097
:101810005DC0C43039F49091A100987F892B8093EA
:10182000A10069C0C53039F490912101987F892BBE
:101830008093210175C0C230B1F134F4CC2361F042
:10184000C13009F0D7C01AC0C43009F454C0F4F153
:10185000C53009F465C0CEC047BD8FEF9FEFDC01F6
:101860008093F8099093F909A093FA09B093FB09C2
:1018700080916E00826080936E00BCC0509389009E
:10188000409388008FEF9FEFDC018093F4099093E1
:10189000F509A093F609B093F70980916F00826073
:1018A00080936F00A7C04093B3008FEF9FEFDC01E0
:1018B0008093660590936705A0936805B0936905CA
:1018C0008091700082608093700094C05093990062
:1018D000409398008FEF9FEFDC018093F009909385
:1018E000F109A093F209B093F3098091710082602D
:1018F000809371007FC05093A9004093A8008FEFA0
:101900009FEFDC018093EC099093ED09A093EE0921
:10191000B093EF09809172008260809372006AC078
:1019200050932901409328018FEF9FEFDC018093B2
:10193000E8099093E909A093EA09B093EB09809133
:10194000730082608093730055C084E024CF4F3FC2
:10195000510561057105C1F0B8F062E17AE780E0F8
:1019600090E0A70196010E940C1EBA01A901415006
:101970005109610971094F3F51056105710511F068
:1019800008F0C9CE84E0D7CE83E0D5CE62E17AE715
:1019900080E090E0A70196010E940C1EBA01A90107
:1019A00041505109610971094F3F510561057105A8
:1019B000A9F0A0F0D501C4013AE0B595A795979597
:1019C00087953A95D1F7AC01BD01415051096109A4
:1019D0007109CC2309F4AECE87E0DDCE86E098CE47
:1019E0004F3F51056105710509F080F684E090CE06
:1019F00082E0D1CECF91FF90EF90DF90CF90BF905B
:101A0000AF909F908F9008950F931F93CF93DF9384
:101A1000CDB7DEB729970FB6F894DEBF0FBECDBFA6
:101A200048D5009195091091960920919709309118
:101A30009809DC01CB01801B910BA20BB30BC29761
:101A4000A105B10568F3F89480918B0990918C09F8
:101A50009A838983E0918F09F0919009DF011196B3
:101A60008081898790918709E0919909F0919A097D
:101A700080919B09992309F42EC09081982B988717
:101A80009081809589238F838F818C8388E08B83DD
:101A900058856F8149853B812C8189819A8150834A
:101AA00047FD252F3A952083262F39F0441F00C08B
:101AB00000006083000000C0F2CF38E04D916083E9
:101AC0000000019761F7F0939A09E093990949871B
:101AD0003B832C8338C09081982B98879081809588
:101AE00089238F838F818E8388E08D8358856F81D2
:101AF00049853D812E8189819A81508347FD252F1B
:101B000000C000C0208300C000C000C000C000C0F2
:101B100060830000262F3A9541F0441F000000C06A
:101B200000C000C000C000C0E8CF38E04D9100C048
:101B3000608300C0019709F7F0939A09E09399092F
:101B400049873D832E839A8389837894B2D46093A6
:101B5000950970939609809397099093980929960F
:101B60000FB6F894DEBF0FBECDBFDF91CF911F91AE
:101B70000F910895A0912608B0912708ED91FC914E
:101B800011970190F081E02D682FCD0119942091DB
:101B9000620590916105213208F04AC080913E05AE
:101BA0008111FCCF32E030933E0531E030933D05AA
:101BB0003FEF30933C0510923B0520933A05A1E49A
:101BC000B5E04AE155E0FA013E2F341B321718F414
:101BD0003D913193F9CF1092190520911905990F74
:101BE000922B9093190590911805913061F4109201
:101BF0001805909119059093BB009091BC0093FD3E
:101C0000F8CF95EC01C095EE9093BC0090913E0505
:101C10009230E1F390913C059F3F79F080913C0533
:101C2000803241F080913C05803331F084E005C082
:101C300081E003C082E001C083E010924005109271
:101C4000620510923F050895FC01A089B1898C912D
:101C5000A689B78982FD0FC09C91818D8F5F8F739C
:101C6000228D821749F0218DDF01A20FB11D5D96F3
:101C70009C93818F08958C910895FC01918D828DA4
:101C8000981761F0828DDF01A80FB11D5D968C91D0
:101C9000928D9F5F9F73928F90E008958FEF9FEFDB
:101CA0000895FC01918D828D981731F0828DE80F97
:101CB000F11D858D90E008958FEF9FEF0895FC0151
:101CC000918D228D892F90E0805C9F4F821B91091E
:101CD0008F73992708958AE695E0F1DF21E0892B3B
:101CE00009F420E0822F089587E096E0E8DF21E004
:101CF000892B09F420E0822F089584EA96E0DFDF43
:101D000021E0892B09F420E0822F089581E497E0F7
:101D1000D6DF21E0892B09F420E0822F0895FC0111
:101D2000848DDF01A80FB11DA35ABF4F2C91848D64
:101D300090E001968F739927848FA689B7892C9399
:101D4000A089B1898C9180648C93938D848D981334
:101D500006C00288F389E02D80818F7D80830895FD
:101D6000EF92FF920F931F93CF93DF93EC0181E0EB
:101D7000888F9B8D8C8D981305C0E889F9898081A7
:101D800085FD23C0F62E0B8D10E00F5F1F4F0F73E4
:101D90001127E02E8C8DE8120BC00FB607FCFACF8E
:101DA000E889F989808185FFF5CFCE01B8DFF2CFD0
:101DB0008B8DFE01E80FF11DE35AFF4FF0820B8F70
:101DC000EA89FB898081806207C0EE89FF89608390
:101DD000E889F98980818064808381E090E0DF91E7
:101DE000CF911F910F91FF90EF900895CF93DF93C4
:101DF000EC01888D8823C1F0EA89FB89808185FD0B
:101E000005C0A889B9898C9186FD0EC00FB607FC64
:101E1000F5CF808185FFF2CFA889B9898C9185FFA4
:101E2000EDCFCE017CDFE8CFDF91CF91089580E048
:101E300090E0892B19F06ADF811116C080E090E0F4
:101E4000892B19F05ADF811112C080E090E0892BB4
:101E500019F04ADF81110EC080E090E0892B79F003
:101E60003ADF81110AC008950E940000E7CF0E9466
:101E70000000EBCF0E940000EFCF0C94000008950B
:101E800090E0FC013197E231F10508F04EC088275F
:101E9000EC57FF4F8F4F0C94281E809180008F7756
:101EA00003C0809180008F7D809380000895809191
:101EB0008000877FF9CF84B58F7702C084B58F7D8E
:101EC00084BD08958091B0008F7703C08091B000E9
:101ED0008F7D8093B0000895809190008F7707C028
:101EE000809190008F7D03C080919000877F8093C8
:101EF000900008958091A0008F7707C08091A00086
:101F00008F7D03C08091A000877F8093A0000895FB
:101F1000809120018F7707C0809120018F7D03C0C1
:101F200080912001877F8093200108950E945D1F8A
:101F30001F920F920FB60F9211240BB60F922F9390
:101F40003F934F935F936F937F938F939F93AF9341
:101F5000BF93EF93FF938AE695E0E1DEFF91EF9167
:101F6000BF91AF919F918F917F916F915F914F91B1
:101F70003F912F910F900BBE0F900FBE0F901F90AF
:101F800018951F920F920FB60F9211240BB60F9255
:101F90002F933F934F935F936F937F938F939F9371
:101FA000AF93BF93EF93FF938AE695E04DDEFF91E9
:101FB000EF91BF91AF919F918F917F916F915F91C1
:101FC0004F913F912F910F900BBE0F900FBE0F902E
:101FD0001F9018951F920F920FB60F9211240BB6F7
:101FE0000F922F933F934F935F936F937F938F93B2
:101FF0009F93AF93BF93EF93FF9387E096E08FDEBD
:10200000FF91EF91BF91AF919F918F917F916F91D0
:102010005F914F913F912F910F900BBE0F900FBE8C
:102020000F901F9018951F920F920FB60F921124C8
:102030000BB60F922F933F934F935F936F937F93C2
:102040008F939F93AF93BF93EF93FF9387E096E0B7
:10205000FBDDFF91EF91BF91AF919F918F917F91A8
:102060006F915F914F913F912F910F900BBE0F9009
:102070000FBE0F901F9018951F920F920FB60F92E0
:1020800011240BB60F922F933F934F935F936F934F
:102090007F938F939F93AF93BF93EF93FF9384EAC4
:1020A00096E03DDEFF91EF91BF91AF919F918F91AF
:1020B0007F916F915F914F913F912F910F900BBE48
:1020C0000F900FBE0F901F9018951F920F920FB692
:1020D0000F9211240BB60F922F933F934F935F9360
:1020E0006F937F938F939F93AF93BF93EF93FF93E0
:1020F00084EA96E0A9DDFF91EF91BF91AF919F91A6
:102100008F917F916F915F914F913F912F910F90A0
:102110000BBE0F900FBE0F901F9018951F920F923D
:102120000FB60F9211240BB60F922F933F934F933C
:102130005F936F937F938F939F93AF93BF93EF932F
:10214000FF9381E497E0EBDDFF91EF91BF91AF91B9
:102150009F918F917F916F915F914F913F912F91BF
:102160000F900BBE0F900FBE0F901F9018951F92EF
:102170000F920FB60F9211240BB60F922F933F932D
:102180004F935F936F937F938F939F93AF93BF937F
:10219000EF93FF9381E497E057DDFF91EF91BF91BB
:1021A000AF919F918F917F916F915F914F913F91EF
:1021B0002F910F900BBE0F900FBE0F901F90189590
:1021C000CF93DF93282F30E0F901E55DFD4F849137
:1021D000F901E05BFE4FD491F901E055FE4FC49147
:1021E000CC2389F081114CDEEC2FF0E0EE0FFF1FC5
:1021F000EF5EFD4FA591B491EC91ED2381E090E06D
:1022000021F480E002C080E090E0DF91CF9108955A
:102210001F93CF93DF93282F30E0F901E55DFD4F49
:102220008491F901E05BFE4FD491F901E055FE4F36
:10223000C491CC23C1F0162F811122DEEC2FF0E0E7
:10224000EE0FFF1FEA56FE4FA591B4918FB7F89499
:10225000111105C09C91ED2FE095E92302C0EC918E
:10226000ED2BEC938FBFDF91CF911F910895CF930A
:10227000DF9390E0FC01E05BFE4F2491FC01E05510
:10228000FE4F8491882361F190E0880F991FFC0133
:10229000E950FE4FC591D491FC01EA56FE4FA5913D
:1022A000B491611109C09FB7F89488812095822369
:1022B0008883EC912E230BC0623061F49FB7F894B1
:1022C0003881822F809583238883EC912E2B2C9349
:1022D0009FBF06C08FB7F894E8812E2B28838FBF4D
:1022E000DF91CF9108951F93CF93DF93182FEB01C8
:1022F00061E0BDDF209711F460E004C0CF3FD1055D
:1023000031F461E0812FDF91CF911F9181CFE12FD7
:10231000F0E0E55DFD4FE4914E2F50E0FA0131977A
:10232000E231F10508F09DC08827EA56FF4F8F4F34
:102330000C94281E84B5806884BDC7BD97C084B541
:10234000806284BDC8BD92C0809180008068809307
:102350008000D0938900C093880088C0809180005D
:10236000806280938000D0938B00C0938A007EC0EF
:1023700080918000886080938000D0938D00C0930E
:102380008C0074C08091B00080688093B000C093CE
:10239000B3006CC08091B00080628093B000C093A5
:1023A000B40064C080919000806880939000D093C6
:1023B0009900C09398005AC08091900080628093E9
:1023C0009000D0939B00C0939A0050C080919000E1
:1023D000886080939000D0939D00C0939C0046C07D
:1023E0008091A00080688093A0008091A0008F7BE6
:1023F0008093A000D093A900C093A80037C080911B
:10240000A00080628093A000D093AB00C093AA008C
:102410002DC08091A00088608093A000D093AD0073
:10242000C093AC0023C0809120018068809320017C
:10243000D0932901C093280119C0809120018062A6
:1024400080932001D0932B01C0932A010FC080916B
:102450002001886080932001D0932D01C0932C012E
:1024600005C0C038D1050CF04CCF46CFDF91CF91DD
:102470001F910895863308F0865390917B00282F92
:102480002870977F922B90937B0087708064809355
:102490007C0080917A00806480937A0080917A0039
:1024A00086FDFCCF809178002091790090E0922BFE
:1024B00008953FB7F8948091FD099091FE09A0918D
:1024C000FF09B091000A26B5A89B05C02F3F19F05F
:1024D0000196A11DB11D3FBFBA2FA92F982F8827A4
:1024E000820F911DA11DB11DBC01CD0142E0660FFF
:1024F000771F881F991F4A95D1F708958F929F9251
:10250000AF92BF92CF92DF92EF92FF926B017C016C
:10251000D0DF4B015C01C114D104E104F104E9F006
:10252000C8DFDC01CB0188199909AA09BB09883EDB
:102530009340A105B10578F321E0C21AD108E10862
:10254000F10888EE880E83E0981EA11CB11CC1140E
:10255000D104E104F10421F7DECFFF90EF90DF908A
:10256000CF90BF90AF909F908F9008951F920F9241
:102570000FB60F9211242F933F938F939F93AF9396
:10258000BF9380913A0390913B03A0913C03B0919B
:102590003D033091FC0923E0230F2D3720F40196F1
:1025A000A11DB11D05C026E8230F0296A11DB11D76
:1025B0002093FC0980933A0390933B03A0933C0340
:1025C000B0933D038091FD099091FE09A091FF0910
:1025D000B091000A0196A11DB11D8093FD09909351
:1025E000FE09A093FF09B093000ABF91AF919F919C
:1025F0008F913F912F910F900FBE0F901F901895C4
:10260000CF93DF93EC0160E875E280E090E00E94F8
:10261000940961E08C812BDE61E0888128DE61E035
:102620008A8125DEDF91CF910895EF92FF920F937B
:102630001F93CF93DF93EC018B016817790709F49F
:1026400086C0DB0114962D913C9115978A819B8160
:102650008217930718F5E880F9803B832A83C90124
:10266000880F991F0E94301E888399834C815D8159
:10267000D701FC0120E030E02417350761F03097E6
:1026800029F08D919C911197918380832F5F3F4F0B
:1026900012963296F1CFC7010E94C51E8C819D8192
:1026A000F801448155818417950708F4AC0180E056
:1026B00090E08417950791F09C01220F331FD801F9
:1026C000ED91FC91E20FF31F60817181E881F98146
:1026D000E20FF31F718360830196EBCF8C819D81A4
:1026E000F801248135818217930768F0D801149688
:1026F0008D919C9115972C813D818217930738F518
:102700009D838C8324C09C01220F331FD801149613
:102710004D915C9115978417950740F7F801A081BA
:10272000B181A20FB31FE881F981E20FF31F309747
:1027300021F04D915C91518340834C815D814F5FCD
:102740005F4F5D834C8301962E5F3F4FDFCFCE01FD
:10275000DF91CF911F910F91FF90EF900895EF922D
:10276000FF920F931F93CF93DF9300D01F92CDB7AB
:10277000DEB78C01FC0175836483CB0108969383DB
:1027800082837C01EE0CFF1CC70149835A836B8353
:102790007C830E94301EF801808391839701205131
:1027A000310949815A81240F351FDA01FC01A21732
:1027B000B30741F08D919D91309711F09183808303
:1027C0003296F5CF0F900F900F900F90DF91CF9131
:1027D0001F910F91FF90EF900895FC0115821682D2
:1027E0001782DC011896885B9F4F1D92A817B907C6
:1027F000E1F71C92DF01A75BBF4F1D921C92E75DC2
:10280000FE4F0190F081E02D309709F01994089562
:10281000CF92DF92EF92FF920F931F93CF93DF93AC
:102820006C017A018B01C0E0D0E0CE15DF0589F0A4
:10283000D8016D918D01D601ED91FC910190F0814F
:10284000E02DC6011995892B11F47E0102C0219655
:10285000ECCFC701DF91CF911F910F91FF90EF90C7
:10286000DF90CF9008959091030298133DC0E6EF5A
:10287000F1E0E4919FEF90930302E230C9F050F44D
:10288000EE2399F0E13081F590916F009D7F909358
:102890006F002AC0E43019F1E0F0E53029F590919D
:1028A00073009D7F909373001FC010926E001CC038
:1028B000909170009D7F9093700091E09093B00094
:1028C0009091B100987F94609093B1001092B30002
:1028D0000BC0909171009D7F9093710005C0909105
:1028E00072009D7F9093720060E092CC1F920F92D5
:1028F0000FB60F9211240BB60F922F933F934F9365
:102900005F936F937F938F939F93AF93BF93EF9357
:10291000FF938091660590916705A0916805B0913D
:102920006905892B8A2B8B2B51F180916305E091EE
:102930006405F09165059081892780838091660503
:1029400090916705A0916805B09169051816190660
:102950001A061B06BCF48091660590916705A0914C
:102960006805B09169050197A109B10980936605D1
:1029700090936705A0936805B093690503C08091A3
:10298000030271DFFF91EF91BF91AF919F918F9102
:102990007F916F915F914F913F912F910F900BBE5F
:1029A0000F900FBE0F901F901895CF93DF93CDB768
:1029B000DEB76D970FB6F894DEBF0FBECDBF78942B
:1029C00084B5826084BD84B5816084BD85B5826034
:1029D00085BD85B5816085BD80916E0081608093E5
:1029E0006E0010928100809181008260809381004E
:1029F000809181008160809381008091800081605E
:102A0000809380008091B10084608093B1008091B8
:102A1000B00081608093B0008091910082608093CB
:102A2000910080919100816080939100809190004D
:102A30008160809390008091A10082608093A100CA
:102A40008091A10081608093A1008091A0008160AD
:102A50008093A00080912101826080932101809168
:102A60002101816080932101809120018160809308
:102A7000200180917A00846080937A0080917A00AE
:102A8000826080937A0080917A00816080937A00DE
:102A900080917A00806880937A001092C100109231
:102AA00022081092230810922408109225081092F0
:102AB000E0071092E1071092E2071092E30760ED41
:102AC00077E080E090E01ADD81E497E090932108C0
:102AD0008093200860E072EC81E090E00E9494090D
:102AE0002FB7F89480913A0390913B03A0913C0357
:102AF000B0913D032FBF8093E0079093E107A0932F
:102B0000E207B093E3078091200890912108DC014F
:102B1000ED91FC910280F381E02D41E150E060E312
:102B200072E019956AE070E080E090E0E7DCFF2455
:102B3000F394F092F4078EEC99E062DD83EC99E077
:102B40005FDD00917A0910917B09A0907C09B0901B
:102B50007D091A8218861F86188A198A1A8AFE86A3
:102B6000FB861C8682E08D87F9827501EE0CFF1CC6
:102B7000EA0CFB1CFE82ED82C7010E94301E9A8780
:102B80008987009741F0A70160E070E00E94611F13
:102B9000BC82AB8204C01E821D821C821B820F83FA
:102BA0008A81882331F061E0802F61DB60E0802F33
:102BB0002FDB1127F801E055FE4FE491F0E0EE0F16
:102BC000FF1FEA56FE4F859194919C8B8B8BF801E9
:102BD000E05BFE4F04910D8B85E1FE013196A7E885
:102BE000B9E001900D928A95E1F7CE0101960E941D
:102BF000F60380918D0987FD06C061E038DB60E057
:102C000080918D0905DB81E08093880980918F098F
:102C100090919009892B11F00E94040D1F8A1E8A41
:102C2000198E188E1B8E1A8EAE014A5E5F4F63E0BE
:102C300070E09E01245E3F4FCE01019690DDBE0103
:102C40006F5F7F4F80E899E0F0DCCE0101960E9433
:102C5000450560E070E040E050E020E030E0809129
:102C60007C0990917D0928173907BCF58091890965
:102C700090918A092817390748F5E0919409F09155
:102C8000910980918F0990919009EF1303C0840FEF
:102C9000951F07C0860F971FDC01AE0FB11DFD0108
:102CA0001082E0919109DC01AE0FB11DFD0110828F
:102CB000E0919209DC01AE0FB11DFD011082E0919F
:102CC0009309DC01AE0FB11DFD0110822F5F3F4F54
:102CD0004D5F5F4F6C5F7F4FC2CF80918F099091A6
:102CE0009009892B11F00E94040D8BE092E00E9464
:102CF000060A6CE271E080E090E000DC80916409FB
:102D0000B2DD64E670E080E090E0F8DB8BE092E01A
:102D10000E94060A6CE271E080E090E0EFDB8091B7
:102D20006409A1DD64E670E080E090E0E7DB8BED14
:102D300093E00E94060A66E970E080E090E0DEDB46
:102D40008091640990DD62E370E080E090E0D6DB82
:102D50008BED93E00E94060A66E970E080E090E067
:102D6000CDDB809164097FDD62E370E080E090E07C
:102D7000C5DB85E1809328088091290890912A0875
:102D80000E94C51E0091280810E0C801019668D76E
:102D900090932A0880932908FC01E00FF11F10820C
:102DA00022E0FC01208325E021834091280850E0A7
:102DB0004250510964E972E002960E94681F87ED53
:102DC00092E0909344098093430988E292E09093C3
:102DD00046098093450983EA92E0909348098093DD
:102DE00047098FE895E090934A09809349098CEF51
:102DF00092E090934C0980934B098CEB96E0909372
:102E000054098093530989EB93E090935009809380
:102E10004F0960E071EE80E090E00E94940981E447
:102E200097E0909327088093260880915509811197
:102E300041C061E08DE01BDA62ED70E080E090E07F
:102E40005DDB61E08DE0E4D968E270E080E090E075
:102E500055DB60E08DE0DCD962ED70E080E090E071
:102E60004DDB61E08DE0D4D968E270E080E090E075
:102E700045DB60E08DE0CCD96AEF70E080E090E067
:102E80003DDB10E062ED70E080E090E037DB61E078
:102E90008DE0BED968E270E080E090E02FDB60E07A
:102EA0008DE0B6D91F5F153069F76DE770E080E0FF
:102EB00090E024DB0E9470098091280881110E9413
:102EC0002F090E94B90301E032E0F32E8091310313
:102ED000882391F1E0902803E2FE1CC482E070D9BF
:102EE000892B09F417C414E0E3FE05C083E068D918
:102EF000892B09F011C4E4FE05C084E061D9892B57
:102F000009F00CC4E5FE05C085E05AD9892B09F00B
:102F100007C4E6FE05C086E053D9892B09F002C438
:102F2000E7FE05C087E04CD9892B09F0FDC340E0DE
:102F3000612F80E00E944A0580913203882309F4C2
:102F400040C0E0902903E0FEF1C388E039D9892B25
:102F500009F4ECC311E0E1FE05C089E031D9892B09
:102F600009F0E6C3E2FE05C08AE02AD9892B09F000
:102F7000E1C3E3FE05C08BE023D9892B09F0DCC354
:102F8000E4FE05C08CE01CD9892B09F0D7C3E5FE0F
:102F900005C08DE015D9892B09F0D2C3E6FE05C026
:102FA0008EE00ED9892B09F0CDC3E7FE05C08FE076
:102FB00007D9892B09F0C8C340E0612F81E00E9446
:102FC0004A0580913303882309F440C0E0902A0326
:102FD000E0FEBCC380E1F4D8892B09F4B7C311E04B
:102FE000E1FE05C081E1ECD8892B09F0B1C3E2FE16
:102FF00005C082E1E5D8892B09F0ACC3E3FE05C02A
:1030000083E1DED8892B09F0A7C3E4FE05C084E183
:10301000D7D8892B09F0A2C3E5FE05C085E1D0D839
:10302000892B09F09DC3E6FE05C086E1C9D8892B2E
:1030300009F098C3E7FE05C087E1C2D8892B09F0E3
:1030400093C340E0612F82E00E944A0580913403DF
:10305000882309F440C0E0902B03E0FE87C388E199
:10306000AFD8892B09F482C311E0E1FE05C089E1E4
:10307000A7D8892B09F07CC3E2FE05C08AE1A0D85D
:10308000892B09F077C3E3FE05C08BE199D8892B22
:1030900009F072C3E4FE05C08CE192D8892B09F0D7
:1030A0006DC3E5FE05C08DE18BD8892B09F068C39F
:1030B000E6FE05C08EE184D8892B09F063C3E7FEE4
:1030C00005C08FE17DD8892B09F05EC340E0612FF8
:1030D00083E00E944A0580913503882309F440C0AB
:1030E000E0902C03E0FE52C380E26AD8892B09F4F9
:1030F0004DC311E0E1FE05C081E262D8892B09F0E1
:1031000047C3E2FE05C082E25BD8892B09F042C3C7
:10311000E3FE05C083E254D8892B09F03DC3E4FEE9
:1031200005C084E24DD8892B09F038C3E5FE05C0FF
:1031300085E246D8892B09F033C3E6FE05C086E256
:103140003FD8892B09F02EC3E7FE05C087E238D8A7
:10315000892B09F029C340E0612F84E00E944A05D1
:1031600080913603882309F442C0E0902D03E0FEED
:103170001DC388E225D8892B09F418C311E0E1FEAC
:1031800005C089E21DD8892B09F012C3E2FE05C0F3
:103190008AE216D8892B09F00DC3E3FE05C08BE245
:1031A0000FD8892B09F008C3E4FE05C08CE208D8CB
:1031B000892B09F003C3E5FE05C08DE201D8892BF8
:1031C00009F0FEC2E6FE06C08EE20E94E010892BE6
:1031D00009F0F8C2E7FE06C08FE20E94E010892BDA
:1031E00009F0F2C240E0612F85E00E944A0580911B
:1031F0003703882309F448C0E0902E03E0FEE6C2BE
:1032000080E30E94E010892B09F4E0C211E0E1FEA6
:1032100006C081E30E94E010892B09F0D9C2E2FECA
:1032200006C082E30E94E010892B09F0D3C2E3FEBE
:1032300006C083E30E94E010892B09F0CDC2E4FEB2
:1032400006C084E30E94E010892B09F0C7C2E5FEA6
:1032500006C085E30E94E010892B09F0C1C2E6FE9A
:1032600006C086E30E94E010892B09F0BBC2E7FE8E
:1032700006C087E30E94E010892B09F0B5C240E048
:10328000612F86E00E944A0580913803882309F463
:1032900048C0E0902F03E0FEA9C288E30E94E0103E
:1032A000892B09F4A3C211E0E1FE06C089E30E9464
:1032B000E010892B09F09CC2E2FE06C08AE30E945E
:1032C000E010892B09F096C2E3FE06C08BE30E9452
:1032D000E010892B09F090C2E4FE06C08CE30E9446
:1032E000E010892B09F08AC2E5FE06C08DE30E943A
:1032F000E010892B09F084C2E6FE06C08EE30E942E
:10330000E010892B09F07EC2E7FE06C08FE30E9421
:10331000E010892B09F078C240E0612F87E00E941D
:103320004A0580913903882309F448C0E0903003AE
:10333000E0FE6CC280E40E94E010892B09F466C2B2
:1033400011E0E1FE06C081E40E94E010892B09F043
:103350005FC2E2FE06C082E40E94E010892B09F001
:1033600059C2E3FE06C083E40E94E010892B09F0F5
:1033700053C2E4FE06C084E40E94E010892B09F0E9
:103380004DC2E5FE06C085E40E94E010892B09F0DD
:1033900047C240E0612F88E00E944A050FC080913B
:1033A000260890912708DC01ED91FC910680F781B9
:1033B000E02D19958F3FBFEF9B0771F48091260890
:1033C00090912708DC01ED91FC910480F581E02DBE
:1033D0001995892B21F71FC1382F20916E082223C0
:1033E00009F469C0873F09F057C010926E088091B8
:1033F0002E08813751F0893709F040C080912808A4
:103400008823E1F20E942F09D9CFA0905109B090F2
:103410005209A114B10491F220916F083091700803
:10342000C901019797FDC90195958795182FAEE2BF
:10343000B8E040E050E030E04E5F5F4F311770F48D
:10344000BA016A5D774FFB0127812C936085F0E814
:103450006F9F201911242D933F5FEECF9927DC0138
:10346000AA5DB74F17968C911797882311F018967D
:103470001C928EE298E0F5011995A0CFE0915309D6
:10348000F0915409309709F499CF60916F08615019
:103490004FE258E0199592CF20916F083091700853
:1034A000F901EA5DF74F80872F5F3F4F3093700837
:1034B00020936F0883CF20912B08222309F469C041
:1034C00087FD67C09FEF920F90932B08E92FF0E0E4
:1034D000EA5DF74F8087911171CF80912C08882386
:1034E00009F46CCF803D09F445C050F4803901F1F6
:1034F000803C09F04BC0E0914709F09148093EC07B
:10350000843F39F1853F51F1803E09F03FC0E091A1
:103510004309F09144093097C9F180912E086091D8
:103520002F0870E020E8829F600D711D11242BC0D0
:10353000E0914509F0914609309741F180912E08BC
:1035400060912F0870E090E8899F600D711D112433
:103550001AC0E0914B09F0914C0904C0E0914D096B
:10356000F0914E09309791F060912E0870E08091B3
:103570002F080BC0E0914909F0914A09309731F0CA
:1035800060912E0870E080912D08199510922C08FA
:1035900015CF303F38F4282F207F30E08F70809394
:1035A0002D0802C09C013327203F310551F17CF4E6
:1035B000203C310509F124F420393105D1F0FECE4B
:1035C000203D3105C9F0203E310599F0F7CE293F65
:1035D0003105F1F034F4C901845F9109029748F094
:1035E000EDCE2F3F310509F0E9CE86E298E0F5D81F
:1035F000E5CEF0922B0802C000932B0820932C08F4
:10360000DDCE00936E081092700810926F08D6CE2F
:103610000E947009D3CE8FB7F89480903A039090AF
:103620003B03A0903C03B0903D038FBF8092AA0360
:103630009092AB03A092AC03B092AD038091A6032D
:103640009091A703A091A803B091A9034091010212
:103650005091020260E070E0881A990AAA0ABB0A37
:10366000481559056A057B0508F051C0840F951F60
:10367000A61FB71F8093A6039093A703A093A80348
:10368000B093A90390E6A92E93E0B92E10E02AEC9E
:10369000210F2031C8F4F50180818230A9F4809196
:1036A0005E0390915F03022E02C0959587950A9460
:1036B000E2F780FF09C0822F2D8F0E943A12BC01D1
:1036C0002D8D822F0E94D9081F5FFFEFAF1ABF0A0E
:1036D0001634E9F68091000287FD19C010E0E12F51
:1036E000F0E080910002082E000C990B8E179F07C6
:1036F00074F0EE0FFF1FEE0FFF1FE25CFC4F6181C5
:103700007281438180810E9413061F5FE8CF0E946F
:10371000170FDCCB10E0E8CB1860EDCB1061F2CBDB
:103720001062F7CB1064FCCB106801CC10E013CC16
:10373000126018CC14601DCC186022CC106127CC0C
:1037400010622CCC106431CC106836CC10E048CC20
:1037500012604DCC146052CC186057CC10615CCC18
:10376000106261CC106466CC10686BCC10E07DCC2C
:10377000126082CC146087CC18608CCC106191CC24
:10378000106296CC10649BCC1068A0CC10E0B2CC38
:103790001260B7CC1460BCCC1860C1CC1061C6CC30
:1037A0001062CBCC1064D0CC1068D5CC10E0E7CC44
:1037B0001260ECCC1460F1CC1860F6CC1061FBCC3C
:1037C000106200CD106406CD10680CCD10E01FCD46
:1037D000126025CD14602BCD186031CD106137CD2E
:1037E00010623DCD106443CD106849CD10E05CCD32
:1037F000126062CD146068CD18606ECD106174CD1A
:1038000010627ACD106480CD106886CD10E099CD1D
:1038100012609FCD1460A5CD1860ABCD1061B1CD05
:103820001062B7CD87E899E00E94F60380E899E03E
:103830000C944505CF92DF92EF92FF920F931F9366
:10384000CF93DF93CDB7DEB72E970FB6F894DEBFD8
:103850000FBECDBFEAE6F5E01382128288EEC82ED5
:1038600083E0D82EE12CF12CC482D582E682F78247
:103870008EE092E09183808325E331E035872487D1
:1038800024E331E03787268720E331E0318B208B3A
:1038900021E331E0338B228B22E331E0358B248B23
:1038A00026E331E0378B268B118E128E138E148E09
:1038B000E7E0F6E013821282C482D582E682F782C4
:1038C0009183808325ED30E03587248724ED30E037
:1038D0003787268720ED30E0318B208B21ED30E0DB
:1038E000338B228B22ED30E0358B248B26ED30E0BC
:1038F000378B268B118E128E138E148EE4EAF6E02F
:1039000013821282C482D582E682F78291838083F9
:103910002DEC30E0358724872CEC30E03787268784
:1039200028EC30E0318B208B29EC30E0338B228B7C
:103930002AEC30E0358B248B2EEC30E0378B268B55
:10394000118E128E138E148EE1E4F7E01382128230
:10395000C482D582E682F7829183808385EC90E0F1
:103960009587848784EC90E09787868780EC90E049
:10397000918B808B81EC90E0938B828B82EC90E03A
:10398000958B848B86EC90E0978B868B118E128EB4
:10399000138E148EEEEDF7E01682178210861186D4
:1039A000128613861486158616861786108A118A43
:1039B000128A138A148A158AE6E2F8E010925509F1
:1039C000128214821382CF010E94ED13E6E5F9E022
:1039D00013821282C482D582E682F7828EE192E05F
:1039E000918380830EEC19E089E090E0F8019183E7
:1039F000808388E090E0938382838AE090E09583DF
:103A00008483168217821086118660E070E00E941F
:103A10007311FF24F394F801F28660E080810E9424
:103A2000081161E0F80182810E94081103EC19E09D
:103A300087E090E0F8019183808386E090E09383B3
:103A4000828395E0C92ED12CD582C482168217823A
:103A50001086118660E070E085E00E947311F80125
:103A6000F28660E080810E94081161E0F8018281A5
:103A70000E940811E8EBF9E085E290E093838283ED
:103A800080E490E09583848322E830E037832683C6
:103A90008FEF9FEF9187808781E090E09183808313
:103AA000EDEAF9E047E250E05383428341E450E01D
:103AB00055834483378326831186108691838083C0
:103AC000E2EAF9E049E250E05383428342E450E005
:103AD00055834483378326839187808791838083AE
:103AE0000AE719E0F80182A193A19987888784A148
:103AF00095A19B878A8786A197A19D878C87AE0118
:103B0000485F5F4F63E070E09E012F5F3F4F80E8AA
:103B100099E00E94AF13F801F5861686108A178681
:103B2000128A118A8FEF838B148A168A158AF78A74
:103B3000108E82E0818FF28E138E148E158E168E6B
:103B40008CE290E091838083D382C28214821582BA
:103B50004AE252E063E070E09E01225F3F4FCE01F7
:103B600001960E94AF13BE016F5F7F4F80E899E01E
:103B70000E941513CE0101960E94450586E190E052
:103B8000909377098093760960E00E94371187E16E
:103B900090E0909373098093720960E00E9437115E
:103BA00088E190E090936F0980936E0960E00E9435
:103BB000371189E190E090936B0980936A0960E086
:103BC0000E9437118AE190E090936709809366091B
:103BD00060E00E9437110BE010E01093650900933C
:103BE000640960E08BE00E94371110936309009331
:103BF000620960E08BE00E9437112E960FB6F894B0
:103C0000DEBF0FBECDBFDF91CF911F910F91FF900F
:103C1000EF90DF90CF900895052E97FB16F4009457
:103C20000FD057FD05D063D107FC02D046F408C081
:103C300050954095309521953F4F4F4F5F4F0895D8
:103C400090958095709561957F4F8F4F9F4F089508
:103C5000EE0FFF1F881F8BBF0790F691E02D199480
:103C6000CF93DF938230910510F482E090E0E091F1
:103C7000030AF091040A20E030E0C0E0D0E0309781
:103C800011F14081518148175907C0F04817590771
:103C900061F482819381209719F09B838A832BC0E2
:103CA0009093040A8093030A26C02115310519F068
:103CB0004217530718F49A01BE01DF01EF01028099
:103CC000F381E02DDCCF2115310509F1281B390BDB
:103CD0002430310590F412968D919C9113976115C3
:103CE000710521F0FB019383828304C09093040A41
:103CF0008093030AFD01329644C0FD01E20FF31FD9
:103D000081939193225031092D933C933AC0209195
:103D1000010A3091020A232B41F4209106023091CE
:103D200007023093020A2093010A20910402309185
:103D300005022115310541F42DB73EB74091080227
:103D400050910902241B350BE091010AF091020AFF
:103D5000E217F307A0F42E1B3F0B2817390778F062
:103D6000AC014E5F5F4F2417350748F04E0F5F1FC1
:103D70005093020A4093010A8193919302C0E0E0BC
:103D8000F0E0CF01DF91CF9108950F931F93CF9370
:103D9000DF93009709F48CC0FC01329713821282E2
:103DA0000091030A1091040A0115110581F4208184
:103DB0003181820F931F2091010A3091020A281746
:103DC000390779F5F093020AE093010A71C0D8012E
:103DD00040E050E0AE17BF0750F412962D913C9191
:103DE0001397AD012115310509F1D901F3CF9D01DB
:103DF000DA013383228360817181860F971F8217D6
:103E0000930769F4EC0128813981260F371F2E5F53
:103E10003F4F318320838A819B8193838283452B0B
:103E200029F4F093040AE093030A42C01396FC932A
:103E3000EE931297ED01499159919E01240F351F80
:103E4000E217F30771F480819181840F951F029628
:103E500011969C938E938281938113969C938E935B
:103E60001297E0E0F0E0D80112968D919C911397A3
:103E7000009719F0F8018C01F6CF8D919C91980173
:103E80002E5F3F4F820F931F2091010A3091020A4B
:103E90002817390769F4309729F41092040A109210
:103EA000030A02C0138212821093020A0093010ACD
:103EB000DF91CF911F910F91089581E090E0F894E8
:103EC00038C0DC0101C06D9341505040E0F70895C7
:103ED000FB01DC014150504048F001900D92002060
:103EE000C9F701C01D9241505040E0F70895A1E28A
:103EF0001A2EAA1BBB1BFD010DC0AA1FBB1FEE1F64
:103F0000FF1FA217B307E407F50720F0A21BB30BAE
:103F1000E40BF50B661F771F881F991F1A9469F72A
:103F200060957095809590959B01AC01BD01CF0186
:103F3000089511E0CAE3D1E000E005C0802FFE0142
:103F400087DE2196011DCB33D10780E00807B1F74A
:043F5000F894FFCF13
:103F5400FF1300FF0000050A800000000000B00EFF
:103F640008145F0E3D0E510EF60E00000000FA011B
:103F7400CB01C301AF01A0019F01000000000000BC
:103F8400564D4450565F317C315F564D4450560D6A
:103F94000A00433A5C55736572735C4D61746869D9
:103FA4006C64655C417070446174615C4C6F636106
:103FB4006C5C54656D705C564D4275696C64735CE1
:103FC400536372617463685F4669726D6174615FA3
:103FD4006C69625C6D6567615F61746D65676132B0
:103FE4003536305C536372617463685F4669726D21
:103FF4006174615F6C69622E63707000556E6B6EE4
:104004006F776E2070696E206D6F6465004932436E
:104014003A20546F6F206D616E79206279746573F4
:10402400207265636569766564004932433A2054B9
:104034006F6F20666577206279746573207265639B
:1040440065697665640031302D6269742061646449
:1040540072657373696E67206E6F74207375707008
:104064006F7274656400746F6F206D616E79207176
:084074007565726965730000B7
:00000001FF
