:1000000030C100005FC100005DC100005BC10000A5
:1000100059C1000057C1000055C1000053C1000084
:1000200051C100000C941C110C941C110C941C1157
:1000300049C100000C943F2145C1000043C10000AC
:1000400041C100003FC100003DC100003BC10000B4
:1000500039C1000037C1000035C100000C94EE1812
:1000600031C100000C94371D0C946D1D2BC1000094
:1000700029C1000027C1000025C1000023C10000E4
:1000800021C100001FC100001DC100001BC10000F4
:100090000C94E21D0C94181E15C100000C949E13C4
:1000A00011C100000FC100000DC100000BC1000014
:1000B00009C1000007C1000005C1000003C1000024
:1000C00001C10000FFC00000FDC000000C948D1EA7
:1000D0000C94C31EF7C000000C94381F0C946E1FC4
:1000E000F1C00000421A471A4C1A561A601AD91A5F
:1000F0006A1A721A7A1A841A8E1A981AA71AB11AD8
:10010000D91ABB1AC51ACF1AFA1AFD1AEC1AF01A24
:10011000F61A341B011B051B0B1B0F1B131B191B92
:100120001D1B211B341B271B2B1B2F1B00000A0B25
:1001300002090C0D0E080703040100000000000076
:1001400000000000000000000000000000000000AF
:10015000000000000000000012111000000000006C
:10016000000000000000000000000000000000008F
:1001700000000102102020080810204010204080BC
:10018000020102010804020101020408102040805B
:1001900080402010080402018004020180402010E9
:1001A0000804020108040201010204081020408032
:1001B0000102040810204080050505050705080810
:1001C0000808020202020A0A0808040404040101E1
:1001D00001010101010103030303030303030407F6
:1001E00007070C0C0C0C0C0C0C0C0202020206068D
:1001F0000606060606060B0B0B0B0B0B0B0B000083
:1002000020002300260029002C002F0032000001CE
:10021000000003010601090100002200250028005A
:100220002B002E00310034000201000005010801FE
:100230000B0100002100240027002A002D003000BF
:10024000330001010000040107010A0102007707E1
:10025000F30EF60EB5129F1D4A1EF51EA01F262096
:10026000ED0711241FBECFEFD1E2DEBFCDBF00E00E
:100270000CBF13E0A0E0B2E0ECE7F6E400E00BBF57
:1002800002C007900D92A435B107D9F72AE0A4E582
:10029000B3E001C01D92A637B207E1F712E0C0E655
:1002A000D2E000E006C022970109FE010BBF0E94C8
:1002B000C721CE34D10780E00807A9F70E94362075
:1002C0000C942D239DCE1F93CF93DF93162F89304F
:1002D00008F070C0982F990F990F990F985F973475
:1002E00008F096E4D82FDD0FDD0FDD0F8D2FC0E075
:1002F00041E08917E8F42EEF280F2434B0F4E82FFA
:10030000F0E0DF01A558BB4F2C91223070F4C42BD4
:10031000EE0FFF1FEA51FC4F21E030E0542F512334
:1003200011F420E030E031832083440F8F5FE1CF70
:10033000C0FF05C0612F61708D2F0E946E1BC1FF31
:1003400006C0612F627081E08D0F0E946E1BC2FF9C
:1003500006C0612F647082E08D0F0E946E1BC3FF88
:1003600006C0612F687083E08D0F0E946E1BC4FF72
:1003700006C0612F607184E08D0F0E946E1BC5FF67
:1003800006C0612F607285E08D0F0E946E1BC6FF54
:1003900006C0612F607486E08D0F0E946E1BC7FF40
:1003A00009C0612F607887E08D0FDF91CF911F9199
:1003B0000C946E1BDF91CF911F9108950F931F93A3
:1003C000CF93DF93EB018634D0F4082F10E0F801CF
:1003D000E558FB4F9081933091F49EEF980F9C303D
:1003E00020F094ED980F933018F4BE010E941F1A6C
:1003F000F801EE0FFF1FEA51FC4FD183C083DF915C
:10040000CF911F910F910895CF93C82F803158F548
:100410004091D3045091D40421E030E0082E02C072
:10042000220F331F0A94E2F7672B49F42095309589
:10043000242335233093D4042093D30414C0242BD5
:10044000352B3093D4042093D3048091540381112D
:100450000AC08C2F0E94FA19AC016C2F8EEA95E02D
:10046000CF910C94A80CCF9108951F93CF93DF9355
:10047000162FC82FD0E0FE01EE58FB4F90811923B4
:10048000CF53DB4F411103C09881911741F0412FA9
:1004900050E0682F8EEA95E00E94C00C1883DF912F
:1004A000CF911F910895EF92FF920F931F93CF93D7
:1004B000DF93E82E88E08E1508F47DC02E2D30E005
:1004C000F901E653FB4F6083672B09F474C0F9010F
:1004D000EE58FB4FF0800E2D000F000F000F8EEF37
:1004E000800F843408F057C0F0FE55C0802F0E9462
:1004F000A31B892B09F44FC011E08FEF800F8434C8
:1005000048F4F1FE07C081E0800F0E94A31B892BF5
:1005100009F043C0C02FD0E0F2FE06C082E0800F99
:100520000E94A31B892BD9F5F3FE06C083E0800F40
:100530000E94A31B892BA9F5F4FE06C084E0800F5E
:100540000E94A31B892B79F5F5FE06C085E0800F7C
:100550000E94A31B892B49F5C034D10541F0F6FE5A
:1005600006C086E0800F0E94A31B892B01F5EF9740
:1005700044F4F7FE06C087E0800F0E94A31B892B7E
:10058000C1F441E0612F8E2DDF91CF911F910F912A
:10059000FF90EF906ACF10E0B0CF1260BBCF146035
:1005A000C3CF1860C9CF1061CFCF1062D5CF106410
:1005B000DECF1068E6CFDF91CF911F910F91FF90B2
:1005C000EF900895CF93DF938091CA048823B9F107
:1005D000D0917204D2FF85C282E00E94A31B892BB6
:1005E00009F47FC2C4E0D3FF06C083E00E94A31BCE
:1005F000892B09F078C2D4FF06C084E00E94A31BB7
:10060000892B09F072C2D5FF06C085E00E94A31BAA
:10061000892B09F06CC2D6FF06C086E00E94A31B9E
:10062000892B09F066C2D7FF06C087E00E94A31B92
:10063000892B09F060C240E06C2F80E016DF8091CA
:10064000CB04882309F447C0D0917304D0FF55C26E
:1006500088E00E94A31B892B09F44FC2C1E0D1FF9F
:1006600006C089E00E94A31B892B09F048C2D2FF73
:1006700006C08AE00E94A31B892B09F042C2D3FF67
:1006800006C08BE00E94A31B892B09F03CC2D4FF5B
:1006900006C08CE00E94A31B892B09F036C2D5FF4F
:1006A00006C08DE00E94A31B892B09F030C2D6FF43
:1006B00006C08EE00E94A31B892B09F02AC2D7FF37
:1006C00006C08FE00E94A31B892B09F024C240E0E2
:1006D0006C2F81E0CADE8091CC04882309F447C0E6
:1006E000D0917404D0FF19C280E10E94A31B892B12
:1006F00009F413C2C1E0D1FF06C081E10E94A31B2F
:10070000892B09F00CC2D2FF06C082E10E94A31B14
:10071000892B09F006C2D3FF06C083E10E94A31B08
:10072000892B09F000C2D4FF06C084E10E94A31BFC
:10073000892B09F0FAC1D5FF06C085E10E94A31BF1
:10074000892B09F0F4C1D6FF06C086E10E94A31BE5
:10075000892B09F0EEC1D7FF06C087E10E94A31BD9
:10076000892B09F0E8C140E06C2F82E07EDE8091A9
:10077000CD04882309F447C0D0917504D0FFDDC1B2
:1007800088E10E94A31B892B09F4D7C1C1E0D1FFE6
:1007900006C089E10E94A31B892B09F0D0C1D2FFBA
:1007A00006C08AE10E94A31B892B09F0CAC1D3FFAE
:1007B00006C08BE10E94A31B892B09F0C4C1D4FFA2
:1007C00006C08CE10E94A31B892B09F0BEC1D5FF96
:1007D00006C08DE10E94A31B892B09F0B8C1D6FF8A
:1007E00006C08EE10E94A31B892B09F0B2C1D7FF7E
:1007F00006C08FE10E94A31B892B09F0ACC140E029
:100800006C2F83E032DE8091CE04882309F447C048
:10081000D0917604D0FFA1C180E20E94A31B892B56
:1008200009F49BC1C1E0D1FF06C081E20E94A31B75
:10083000892B09F094C1D2FF06C082E20E94A31B5B
:10084000892B09F08EC1D3FF06C083E20E94A31B4F
:10085000892B09F088C1D4FF06C084E20E94A31B43
:10086000892B09F082C1D5FF06C085E20E94A31B37
:10087000892B09F07CC1D6FF06C086E20E94A31B2B
:10088000892B09F076C1D7FF06C087E20E94A31B1F
:10089000892B09F070C140E06C2F84E0E6DD809187
:1008A000CF04882309F447C0D0917704D0FF65C1F5
:1008B00088E20E94A31B892B09F45FC1C1E0D1FF2C
:1008C00006C089E20E94A31B892B09F058C1D2FF00
:1008D00006C08AE20E94A31B892B09F052C1D3FFF4
:1008E00006C08BE20E94A31B892B09F04CC1D4FFE8
:1008F00006C08CE20E94A31B892B09F046C1D5FFDC
:1009000006C08DE20E94A31B892B09F040C1D6FFCF
:1009100006C08EE20E94A31B892B09F03AC1D7FFC3
:1009200006C08FE20E94A31B892B09F034C140E06E
:100930006C2F85E09ADD8091D004882309F447C0AC
:10094000D0917804D0FF29C180E30E94A31B892B9A
:1009500009F423C1C1E0D1FF06C081E30E94A31BBB
:10096000892B09F01CC1D2FF06C082E30E94A31BA1
:10097000892B09F016C1D3FF06C083E30E94A31B95
:10098000892B09F010C1D4FF06C084E30E94A31B89
:10099000892B09F00AC1D5FF06C085E30E94A31B7D
:1009A000892B09F004C1D6FF06C086E30E94A31B71
:1009B000892B09F0FEC0D7FF06C087E30E94A31B66
:1009C000892B09F0F8C040E06C2F86E04EDD809165
:1009D000D104882309F447C0D0917904D0FFEDC039
:1009E00088E30E94A31B892B09F4E7C0C1E0D1FF73
:1009F00006C089E30E94A31B892B09F0E0C0D2FF47
:100A000006C08AE30E94A31B892B09F0DAC0D3FF3A
:100A100006C08BE30E94A31B892B09F0D4C0D4FF2E
:100A200006C08CE30E94A31B892B09F0CEC0D5FF22
:100A300006C08DE30E94A31B892B09F0C8C0D6FF16
:100A400006C08EE30E94A31B892B09F0C2C0D7FF0A
:100A500006C08FE30E94A31B892B09F0BCC040E0B5
:100A60006C2F87E002DD8091D204882309F4C1C095
:100A7000D0917A04D0FFB1C080E40E94A31B892BDF
:100A800009F4ABC0C1E0D1FF06C081E40E94A31B02
:100A9000892B09F0A4C0D2FF06C082E40E94A31BE8
:100AA000892B09F09EC0D3FF06C083E40E94A31BDC
:100AB000892B09F098C0D4FF06C084E40E94A31BD0
:100AC000892B09F092C0D5FF06C085E40E94A31BC4
:100AD000892B09F08CC040E06C2F88E0DF91CF912A
:100AE000C4CCC0E080CDC86086CDC0618CCDC06272
:100AF00092CDC06498CDC0689ECDC0E0B0CDC2603C
:100B0000B6CDC460BCCDC860C2CDC061C8CDC06226
:100B1000CECDC064D4CDC068DACDC0E0ECCDC2602B
:100B2000F2CDC460F8CDC860FECDC06104CEC06215
:100B30000ACEC06410CEC06816CEC0E028CEC26017
:100B40002ECEC46034CEC8603ACEC06140CEC06202
:100B500046CEC0644CCEC06852CEC0E064CEC26007
:100B60006ACEC46070CEC86076CEC0617CCEC062F2
:100B700082CEC06488CEC0688ECEC0E0A0CEC260F7
:100B8000A6CEC460ACCEC860B2CEC061B8CEC062E2
:100B9000BECEC064C4CEC068CACEC0E0DCCEC260E7
:100BA000E2CEC460E8CEC860EECEC061F4CEC062D2
:100BB000FACEC06400CFC06806CFC0E018CFC260D4
:100BC0001ECFC46024CFC8602ACFC06130CFC062BE
:100BD00036CFC0643CCFC06842CFC0E054CFC260C3
:100BE0005ACFC46060CFC86066CFC0616CCFC062AE
:100BF00072CFDF91CF91089510929D038FEF809374
:100C000006020895AF92BF92DF92EF92FF920F9388
:100C10001F93CF93DF931F92CDB7DEB7D82E5B0122
:100C2000E82EF12C870105581B4FF80180818F3782
:100C300009F4A6C0863041F480919D03882321F0F9
:100C40006630710509F0D8DF4AEC4D0D403160F493
:100C500061E070E082E0A816B10411F060E070E09D
:100C6000842F4983D1DB49819EEF9D0D9434D8F4C4
:100C7000ED2DE695E695E6958D2D8770F0E0EE5822
:100C8000FB4F21E030E0082E01C0220F0A94EAF762
:100C9000A114B10421F48081822B808304C02095AB
:100CA000808128232083F701EE0FFF1FEA51FC4FBC
:100CB00011821082E2E0AE16B10489F03CF4A11476
:100CC000B104E1F0AA94AB2839F14BC0E3E0AE16D1
:100CD000B10471F1F6E0AF16B104D9F142C0403170
:100CE00008F04EC0943440F460E08D2D0E94351B16
:100CF00060E08D2D0E946E1B82E030C0943408F0BD
:100D00003FC060E08D2D0E94351B60E08D2D0E945C
:100D10006E1BF801108234C0943490F560E08D2D84
:100D20000E946E1B61E08D2D0E94351B81E016C074
:100D30009C3020F084ED8D0D833010F561E08D2D19
:100D40000E94351B60E070E08D2D0E941F1A83E029
:100D500005C08CEE8D0D823098F486E0F80180831A
:100D60000FC06BE072E08EEA95E00F90DF91CF91BB
:100D70001F910F91FF90EF90DF90BF90AF9074C6DE
:100D80000F90DF91CF911F910F91FF90EF90DF9027
:100D9000BF90AF900895CF93C0E08CEE8C0F82305F
:100DA00020F466E070E08C2F2DDFCF5FC634A9F70A
:100DB00081E080939D0388E297E0CF910C942F12FD
:100DC0000F931F93CF93DF9381E08093540380911F
:100DD0009D03811111DFEAECF4E0C2E7D4E0A1EC5D
:100DE000B4E0119219921D9284E0E33DF807C9F72F
:100DF000C5E5D3E010E00FEF8AEC810F803118F4E5
:100E000062E070E002C061E070E0812FFBDE0993D8
:100E10001F5F163489F71092D4041092D3041092F5
:100E20005403DF91CF911F910F91089583EA95E0CC
:100E30000E94C31888E995E00E94C3188FE495E0EA
:100E40000E94231620E030E040E050E060E070E0D7
:100E50008FE495E00E944A1825E042E06CE172E0E0
:100E60008EEA95E09DD44EED51E060EE8EEA95E07D
:100E700008D643E651E060E98EEA95E002D644E008
:100E800052E060EC8EEA95E0FCD543E552E060ED7F
:100E90008EEA95E0F6D542E056E064EF8EEA95E002
:100EA000F0D54DE658E060EF8EEA95E01AD640EEB8
:100EB00056E06FEF8EEA95E00CD640E051EE60E030
:100EC00070E08EEA95E07BD77BCFFC018081918139
:100ED0000C944320CF93DF93EC018C96F6DFCE0188
:100EE0008596F3DFCE014E96DF91CF91EECFEF9254
:100EF000FF920F931F932AE030E048E050E069E052
:100F000070E083EA95E00E94A81825E030E046E012
:100F100050E067E070E088E995E00E94A818EE24B0
:100F2000EA94FE2C01E010E022E830E040E450E0DA
:100F300065E270E08DE895E00E94DA18E12CF12C72
:100F400022E830E041E450E067E270E082E895E0BA
:100F50000E94DA18EE24E394F12C22E830E042E417
:100F600050E069E270E087E795E00E94DA1845E01A
:100F700050E065E070E08FE495E00E94821766E142
:100F800070E08BE495E00E94CC1467E170E087E4A8
:100F900095E00E94CC1468E170E083E495E00E9443
:100FA000CC1469E170E08FE395E00E94CC146AE113
:100FB00070E08BE395E00E94CC146BE070E088E079
:100FC00095E00E9449156BE070E085ED94E01F917B
:100FD0000F91FF90EF900C94491585ED94E07ADF26
:100FE00088E095E077DF8CE595E022D785E595E010
:100FF0006CCF682F88E297E00C94F11188E297E0BB
:101000000C94A2110895DF92EF92FF920F931F9319
:10101000CF93DF93F82EEB01D42E6F3F8FEF78073D
:10102000A1F06F2D88E297E00E9438128C2FE1DF4B
:1010300088E297E00E94B31280919B0390919C03F9
:10104000009729F00E948D1902C0C0E0D0E04D2D1C
:101050006F2D88E297E00E94B1120D2D10E088E21A
:1010600097E00E949A11081719071CF462E872E0D1
:1010700009C088E297E00E949A11801791072CF42A
:101080006FE972E08EEA95E0EFD4F0929E03C09390
:101090009F03E0EAEE2EE3E0FE2EC0E0D0E0C017B2
:1010A000D1077CF042E04D0D2EE933E067E78EEA90
:1010B00095E0DF91CF911F910F91FF90EF90DF901E
:1010C0008DC488E297E00E949A11892B59F396DF2C
:1010D000F70181937F012196E2CF0F931F93CF9366
:1010E000DF93162FEA018F3609F418C198F48B3676
:1010F00009F433C18D3609F485C1893609F01AC265
:1011000060EF8EEA95E0B3D46AE68EEA95E0AFD45C
:10111000CAECCFC1883709F4D1C018F4863741F042
:1011200009C28A3709F4E1C0823A09F4C6C102C291
:101130008981982F987185FF03C06BEB72E050C0D6
:101140008881983059F148F49111F4C1682F88E2F0
:1011500097E00E94381202E007C0903109F43AC0CB
:10116000983109F468C0E6C1011760F4FE01E00F90
:10117000F11D9181808120E8929F8019112439DF2F
:101180000E5FF2CF88E297E00E94B31286E490E00F
:10119000DF91CF911F910F910C948D194A816B8132
:1011A000163069F430E8639FB0011124640F711D9B
:1011B0009D814C8150E8959F4019112406C090E80C
:1011C000699F401911246FEF7FEFDF91CF911F913D
:1011D0000F9119CFE0910602E7304CF06BED72E011
:1011E0008EEA95E0DF91CF911F910F913DC49A81D6
:1011F0002B81F0E8663061F42F9F90011124290FB4
:10120000311D4D819C8150E8459F9019112405C0E6
:101210002F9F901911242FEF3FEFEF5FE09306020D
:1012200044E0E402F0011124E254FC4F8083328355
:10123000218393837FC150910602151634F440E058
:10124000252F332727FD30950EC08FEF80930602A0
:1012500071C1EE0FFF1FEE0FFF1FE254FC4F908194
:10126000981719F14F5FE42FF0E02E173F078CF726
:1012700040E01BC04830C0F4DF01AA0FBB1FAA0F1B
:10128000BB1FAE53BC4F8C91EE0FFF1FEE0FFF1F25
:10129000E254FC4F808311968D919C91129792831A
:1012A000818313968C9183834F5FE42FF0E02E1798
:1012B0003F0704F75150509306023CC128818981B1
:1012C00050E8859FC0011124820F911D009721F0E5
:1012D00090939C0380939B0380919D0381112AC16D
:1012E000DF91CF911F910F9156CD623008F422C14A
:1012F00028818981E0E88E9FC0011124820F911D11
:1013000090930802809307020A9708F013C18AE0BD
:1013100090E090930802809307020CC1623008F4B9
:1013200009C1698170E0123091F08A81F0E88F9FE5
:10133000C0011124682B792B133049F08B8190E088
:1013400090E4899F902D88271124682B792B888120
:10135000DF91CF911F910F9131C860EF8EEA95E038
:1013600086D36CE68EEA95E082D3CEEF8CEC8C0FC0
:10137000803148F462E08EEA95E079D36AE08EEA43
:1013800095E075D302C0CC3020F086ED8C0F833011
:1013900040F463E08EEA95E06AD368E08EEA95E077
:1013A00066D3C43440F464E08EEA95E060D36EE026
:1013B0008EEA95E05CD38EEE8C0F823040F466E0CE
:1013C0008EEA95E054D361E08EEA95E050D36FE762
:1013D0008EEA95E04CD3CF5FC43431F1C43408F0C9
:1013E000C5CF60E08EEA95E042D361E08EEA95E0F9
:1013F0003ED361E08EEA95E03AD361E08EEA95E073
:1014000036D3B4CF662309F495C0C88160EF8EEA65
:1014100095E02DD36EE68EEA95E029D36C2F8EEA07
:1014200095E025D3C63440F067EF8EEA95E0DF9172
:10143000CF911F910F911BC3D0E0FE01E558FB4FE8
:1014400060818EEA95E013D3CC0FDD1F8E010A5127
:101450001C4FF80160816F778EEA95E008D3F801A0
:1014600060817181CB018078892B41F0660F672FF5
:10147000661F770B6F778EEA95E0F9D2CA51DC4F81
:1014800068817981CB018827907C892B69F2770F5D
:10149000660B770F762F661F6F778EEA95E0E7D29F
:1014A000C3CF6C2F8EEA95E0E2D2CF5FC03109F452
:1014B000BBCFC031B0F36FE7F5CF88818230A9F0A0
:1014C00078F4813071F50C8110E02B8130E04A8195
:1014D00050E0698170E08FE495E00E942E182AC0E8
:1014E000833089F08430C9F01CC02B8130E04A8100
:1014F00050E0698170E08FE495E0DF91CF911F911A
:101500000F910C944A18698170E08FE495E0DF91A7
:10151000CF911F910F910C94561661E08981811132
:1015200001C060E08FE495E0DF91CF911F910F91B2
:101530000C947216DF91CF911F910F9108958F92A5
:101540009F92AF92BF92CF92DF92EF92FF920F9352
:101550001F93CF93DF9336D88EEA95E081D1892B04
:1015600021F08EEA95E0A0D3F7CF0E94381960935E
:10157000E2037093E3038093E4039093E503C09048
:10158000DE03D090DF03E090E003F090E1034091B0
:101590000702509108024A01A12CB12C8B019C0139
:1015A0000C191D092E093F0980169106A206B306E3
:1015B00008F04AC0D501C4018C0D9D1DAE1DBF1D94
:1015C0008093DE039093DF03A093E003B093E103E5
:1015D000CBE7D4E01AEC1031B8F488818230A1F462
:1015E0002091D3043091D404012E02C03595279563
:1015F0000A94E2F720FF08C0812F0E94FA19AC017B
:10160000612F8EEA95E0A4D11F5F2196103119F762
:101610008091060287FD18C0C0E0EC2FF0E08091B9
:101620000602992787FD90958E179F076CF0EE0FA5
:10163000FF1FEE0FFF1FE254FC4F61817281438157
:101640008081E1DCCF5FE9CFDF91CF911F910F91D6
:10165000FF90EF90DF90CF90BF90AF909F908F90D2
:1016600008950F931F93CF93DF93EC018B01888133
:101670009981DC01ED91FC916F770190F081E02D73
:10168000199588819981DC01ED91FC91B801660F73
:10169000672F661F770B6F770190F081E02DDF9148
:1016A000CF911F910F911994DC018D919C91DC01D8
:1016B000ED91FC910190F081E02D60EF1994DC0137
:1016C0008D919C91DC01ED91FC910190F081E02DD8
:1016D00067EF1994CF93DF93EC0188819981DC0146
:1016E000ED91FC910190F081E02D69EF19958881D1
:1016F0009981DC01ED91FC910190F081E02D62E097
:10170000199588819981DC01ED91FC910190F0811E
:10171000E02D65E0DF91CF9119941F93CF93DF9374
:10172000EC018A818823C1F1CE01BEDF88819981D5
:10173000DC01ED91FC910190F081E02D69E71995B4
:1017400088819981DC01ED91FC91AB81BC81019094
:10175000F081E02D6C91199588819981DC01ED91E2
:10176000FC91AB81BC810190F081E02D11966C91D0
:10177000199512E08A81181750F4EB81FC81E10F72
:10178000F11D608170E0CE016CDF1F5FF3CFCE01F1
:10179000DF91CF911F9193CFDF91CF911F9108954A
:1017A000CF92DF92EF92FF920F931F93CF93DF932D
:1017B0008C01EB01C42ED22E6DE772E0CE010E94A7
:1017C00013237C016FE270E0CE010E940823009792
:1017D00039F46CE570E0CE010E940823009711F007
:1017E000EC012196E114F10451F4FE010190002076
:1017F000E9F7EC1BEF5FD8011296EC9306C0EC1AE8
:10180000FD0AE394E394F801E282D80113968D91E6
:101810009C9114970E946322F801E280F12CC70189
:1018200001960E94CB21D80114969C938E93139716
:10183000FC01EE0DFF1D1082FC01C082D1821296C8
:101840004C9150E042505109BE010296DF91CF9178
:101850001F910F91FF90EF90DF90CF900C94F922A1
:10186000DC018D919C91DC01ED91FC910480F5816E
:10187000E02D19940F931F93CF93DF93FC012085E4
:10188000213741F0293709F048C0DF91CF911F91EE
:101890000F9143CFFC01E55DFE4F0190F081E02DFB
:1018A000309709F450C0DC01A75BBF4F4D915C91AC
:1018B0009A012150310937FD9A01B9017595679553
:1018C000062F40E050E020E030E04E5F5F4F2017F1
:1018D000A0F4EC01C40FD51F1F81DC01A20FB31FC0
:1018E00018961C931897C885D0E8CD9F101911241D
:1018F00018961C932F5F3F4FE8CFDC01A60FB11D58
:1019000017962C911797222311F018961C9208967F
:10191000DF91CF911F910F911994FC01E35DFE4F70
:101920000190F081E02D309771F0AC01475F5F4F7F
:10193000DC01A75BBF4F6C916150822FDF91CF918B
:101940001F910F911994DF91CF911F910F910895DD
:101950000F931F93CF93DF93EC018A0188819981C4
:10196000DC01ED91FC916F70606E0190F081E02DD3
:101970001995B801CE01DF91CF911F910F9171CED2
:101980000F931F93CF93DF93EC018A018881998194
:10199000DC01ED91FC916F7060690190F081E02DA8
:1019A000199588819981DC01ED91FC91602F6F7709
:1019B0000190F081E02D199588819981DC01ED91EC
:1019C000FC91B801660F672F661F770B0190F081BD
:1019D000E02DDF91CF911F910F911994CF92DF925B
:1019E000EF92FF920F931F93CF93DF9300D0CDB769
:1019F000DEB78C01F42E2A833B83698355DED80140
:101A00008D919C91DC01ED91FC910190F081E02D94
:101A1000698119952A81E22EC22E3B81D32E8C2D0D
:101A20008E198F1538F4F60161916F0170E0C801CD
:101A300018DEF5CFC8010F900F900F90DF91CF9176
:101A40001F910F91FF90EF90DF90CF9038CE9A01C9
:101A5000613749F4FA0101900020E9F73197E41B5E
:101A6000F50B4E2FBBCF0895AB0161E7F0CFDC0142
:101A70008D919C91DC01ED91FC910190F081E02D24
:101A80001994603DC1F028F4603969F0603C79F048
:101A90000895643FA1F0653FB1F0603EC9F4FC01D8
:101AA000E35EFE4F13C0FC01E15EFE4F0FC0FC0180
:101AB000EF5DFE4F0BC0FC01ED5DFE4F07C0FC016A
:101AC000EB5DFE4F03C0FC01E95DFE4F5183408397
:101AD00008956F3F29F4FC01E75DFE4F5183408379
:101AE0000895835D9E4FFC01518340830895FC015E
:101AF00015821682178280E090E0DF01A80FB91FDF
:101B000018961C92019680349105B9F7DF01A85B05
:101B1000BF4F1C9211961D921C92E75DFE4F0190E3
:101B2000F081E02D309709F019940895FC01E15DF2
:101B3000FE4F1082FC01128214821382D8CFCF9301
:101B4000DF93EC01FC01E85BFF4F8081882399F073
:101B5000673F29F41082CE01DF91CF918BCEFE0139
:101B6000E75BFF4F80819181C80FD91F688701967D
:101B70009183808396C08D81882309F452C067FDCC
:101B800050C081508D83FE01E80FF11D60878111E7
:101B900088C08E81882309F484C0803DA1F140F47F
:101BA000803981F0803CD9F5FE01EF5DFE4F2EC0FB
:101BB000843FC9F0853FD9F0803E89F5FE01E35EA0
:101BC000FE4F03C0FE01E15EFE4F0190F081E02D6B
:101BD000309729F18885698570E090E8899F600DCC
:101BE000711D11241AC0FE01EB5DFE4F03C0FE0102
:101BF000E95DFE4F0190F081E02D309781F068851E
:101C000070E089850BC0FE01ED5DFE4F0190F08113
:101C1000E02D309721F0688570E08F8119951E8244
:101C200040C0862F603F28F4807F90E06F706F8304
:101C300001C090E0803F910541F17CF4803C91052A
:101C400001F124F480399105D1F02BC0803D91053C
:101C5000C1F0803E910599F024C0893F9105E1F0E3
:101C60003CF49C01245F31092230310540F019C059
:101C70008F3F9105B1F4CE01DF91CF9138CF92E043
:101C800001C091E09D838E830CC081E08083C75B9F
:101C9000DF4F1982188205C08EEA95E0DF91CF915F
:101CA00019CDDF91CF910895CF93DF93EC01888117
:101CB0009981DC01ED91FC910680F781E02D199569
:101CC0008F3FBFEF9B0729F0682FCE01DF91CF91A7
:101CD00036CFDF91CF9108957F928F929F92AF92EE
:101CE000BF92CF92DF92EF92FF920F931F93CF9309
:101CF000DF93762EEA01680110E0EE24D7FCE09431
:101D0000FE2C4901AA2497FCA094BA2C212F30E084
:101D10002C173D0794F4C701B6010E94671961E0D2
:101D2000872D0E946E1BC501B4010E94671960E0F7
:101D3000872D0E946E1B1F5FE9CFDF91CF911F910E
:101D40000F91FF90EF90DF90CF90BF90AF909F905A
:101D50008F907F9008950F931F93CF93DF93EC01A3
:101D6000FC01E15DFE4F8081811124C061E08DE0C6
:101D70000E94351B02ED10E028E230E042E050E026
:101D80006DE0CE01A9DF6AEF70E080E090E00E9494
:101D9000671928E230E045E050E06DE0CE019CDFBD
:101DA0006DE770E080E090E0DF91CF911F910F919F
:101DB0000C946719DF91CF911F910F910895CF93E4
:101DC000DF93EC0126E081EF97E00E94D71C81EFC2
:101DD00097E099838883CE01BEDFCE017BDCCE0104
:101DE000DF91CF919ACC8EEA95E0A0CE0F9300E0E0
:101DF00020E040E060E08EED96E00E941A200F9116
:101E00000895FC0181E08083118213821282158281
:101E100014829FEF9683178211861086828713861D
:101E200092E09487858716861786108A118A08950E
:101E3000CF93DF93EC0188859985009711F00E947C
:101E400063228E8187FD05C060E0DF91CF910C9405
:101E5000351BDF91CF910895CF93DF93EC018E81F5
:101E600087FD07C061E00E94351B60E08E810E9403
:101E70006E1B81E08983DF91CF910895EF92FF92ED
:101E80000F931F93CF93DF93EC017B018885998596
:101E9000009711F00E9463229D858A85981303C0E4
:101EA00083E090E002C084E090E08E9D80018F9DF1
:101EB000100D9E9D100D11241D830C83C8010E94DE
:101EC000CB2199878887009741F0A80160E070E0F6
:101ED0000E94F222FB82EA8204C01D821C821B82C5
:101EE0001A82DF91CF911F910F91FF90EF9008958B
:101EF000FC0121E095858285981320E0CB0136E036
:101F0000969587953A95E1F7482F43704587CB0121
:101F100054E0969587955A95E1F7382F33703287BC
:101F2000CB01969587959695879583708387862FA5
:101F30008370848781E06F3F710511F008F080E0C5
:101F4000808380859185892B49F091E0431390E04F
:101F5000921721F062817381CF0190CF0895CF92C3
:101F6000DF92EF92FF920F931F93CF93DF93CDB742
:101F7000DEB729970FB6F894DEBF0FBECDBF8C0138
:101F8000DC0118968D919C911997892B09F49AC0C0
:101F90000E944419F801C684D784E088F1886C193E
:101FA0007D098E099F09623371058105910580F3D2
:101FB000F894848195819A838983A085B1857D0178
:101FC000EFEFEE1AFE0A8C918987D8019C91529608
:101FD0000D90BC91A02DF8018489992309F42EC09D
:101FE0009C91982B98879C91809589238F838F81D2
:101FF0008E8388E08D8358856F8149853D812E8150
:1020000089819A81F7015C9347FD252F3A952C939E
:10201000262F39F0441F00C000006C93000000C060
:10202000F2CF38E041916C930000019761F7F8011D
:10203000B38BA28B49873D832E8338C09C91982B0C
:1020400098879C91809589238F838F818C8388E0EA
:102050008B8358856F8149853B812C8189819A8149
:10206000F7015C9347FD252F00C000C02C9300C0F2
:1020700000C000C000C000C06C930000262F3A953D
:1020800041F0441F000000C000C000C000C000C0FC
:10209000E8CF38E0419100C06C9300C0019709F788
:1020A000F801B38BA28B49873B832C839A83898366
:1020B00078940E944419D8011E966D937D938D9358
:1020C0009C93519729960FB6F894DEBF0FBECDBFF3
:1020D000DF91CF911F910F91FF90EF90DF90CF9004
:1020E00008951F93CF93DF93EC01162F89818823E6
:1020F00031F08E8187FD03C060E00E94351B1E8396
:102100008981882341F061E0812F0E94351B60E0C6
:10211000812F0E946E1B812F90E0FC01E854FE4F3E
:10212000E491F0E0EE0FFF1FE85EFD4F2591349142
:102130003B8B2A8BFC01EE58FE4F84918C8BDF91F8
:10214000CF911F910895EF92FF920F931F93CF931A
:10215000DF931F92CDB7DEB77C018B01FC011182AA
:1021600017821186108616861786108A118AB90181
:102170004983BEDEB801C70181DE4981642FC701F2
:102180000F90DF91CF911F910F91FF90EF90A9CF0A
:102190000F931F93CF93DF93DC0112968D919C9147
:1021A00013976817790708F042C017968C91179714
:1021B000882361F0489FA0011124452F289F90019A
:1021C0001124232F089F80011124012F1D963C917B
:1021D0001D971A965C911A9718968D919C91199754
:1021E000FB01351307C0EE0FFF1FE60FF71FE80FC7
:1021F000F91F0AC0EE0FFF1FEE0FFF1FE80FF91FB8
:10220000EF01C30FD11D18821A968C911A97EF0116
:10221000C80FD11D48831B968C911B97EF01C80FE7
:10222000D11D28831C968C91E80FF11D0083DF914E
:10223000CF911F910F9108951F920F920FB60F9299
:1022400011240BB60F922F933F934F935F936F938D
:102250007F938F939F93AF93BF93EF93FF93E091FF
:102260002607F0912707309709F451C0868DA6857F
:10227000B785958581FF04C08C91892329F447C0D7
:102280008C91892309F043C0A389B4899C918589E5
:10229000809589238C93868997890197F1F7208D02
:1022A000318DA685B785758558E040E0C901019755
:1022B000F1F7842F90E095958795482F6C916723CF
:1022C00009F04068515091F7868D81FD40958091CD
:1022D000E50690E001968F7399272091E406281770
:1022E00049F0A091E506B0E0AA51B94F4C93809314
:1022F000E50603C0868D8160868F828D938D019760
:10230000F1F7A389B4898C919589892B8C93FF91DE
:10231000EF91BF91AF919F918F917F916F915F915D
:102320004F913F912F910F900BBE0F900FBE0F90CA
:102330001F9018958091580790E020915907821BB3
:10234000910908952091590780915807281750F452
:10235000E22FF0E0E65AF84F808190E02F5F209363
:10236000590708958FEF9FEF0895E09159078091E5
:102370005807E81730F4F0E0E65AF84F808190E013
:1023800008958FEF9FEF08950895CF92DF92EF9217
:10239000FF920F931F93CF93DF937C01CB018A01B0
:1023A00020913407222389F0EB016B01C40ED51E66
:1023B000CC15DD0561F06991D701ED91FC9101909B
:1023C000F081E02DC7011995F3CF642F8ED1C8019C
:1023D000DF91CF911F910F91FF90EF90DF90CF9001
:1023E0000895CF93DF931F92CDB7DEB76983209115
:1023F00034072223D1F020913507203240F021E02C
:1024000030E0FC013383228380E090E014C08091AF
:102410003607E82FF0E0E95CF84F998190838F5FF1
:10242000809336078093350704C061E0CE010196A2
:102430005CD181E090E00F90DF91CF910895FC0195
:102440001382128248EE53E060E070E044835583CB
:102450006683778380EF92E0918380830895109262
:10246000590710925807109236071092350780C00E
:1024700081E08093340760935707109236071092DB
:10248000350708950F93062F21E04091350767E344
:1024900077E080915707D2D0109236071092350717
:1024A000109234070F9108958F929F92AF92BF922E
:1024B000CF92DF92EF92FF920F931F93CF93DF9310
:1024C000EC01F62ED42E48015901EE2009F1D0DF9F
:1024D0001E2D143008F013E01150B8F0E881F98196
:1024E00028E0129FB0011124A501940104C0569563
:1024F0004795379527956A95D2F7CA01B90101909A
:10250000F081E02DCE011995E7CF60E0CE01BADF72
:102510004D2D413208F040E22C2D6AE577E08F2DF9
:1025200045D01092590780935807DF91CF911F91A2
:102530000F91FF90EF90DF90CF90BF90AF909F9062
:102540008F900895CF92EF920F931F93C22EE12C9C
:1025500000E010E09801A8DF1F910F91EF90CF905D
:10256000089521E0EFCF61E08DCF88E297E067CF5B
:102570001092E70781E08093E5071092E40761E09D
:1025800084E10E946E1B61E085E10E946E1BE9EB15
:10259000F0E080818E7F808380818D7F808388E4DE
:1025A0008093B80085E48093BC000895413208F020
:1025B00043C09091E7079111FCCF91E09093E7071A
:1025C0002093E5072FEF20937A071092BF07240F7F
:1025D0002093BE079093E6079091E607880F892B1A
:1025E0008093E6078091E407813061F41092E4075C
:1025F0008091E6078093BB008091BC0083FDF8CFFB
:1026000085EC01C085EE8093BC008091E7078130A6
:10261000E1F38091BF07841710F44091BF0720ECCD
:1026200037E0FB01D9018A2F821B841718F48D91A2
:102630008193F9CF842F089580E008950F9341325C
:1026400008F04AC09091E7079111FCCF92E0909377
:10265000E7070093E5079FEF90937A071092BF0773
:102660004093BE07FB0160EC77E0DB019A2F961BDD
:10267000941718F491919D93F9CF1092E6079091D9
:10268000E607880F892B8093E6078091E407813065
:1026900061F41092E4078091E6078093BB0080917B
:1026A000BC0083FDF8CF85EC01C085EE8093BC00B3
:1026B000222321F08091E7078230E1F380917A07AD
:1026C0008F3F61F080917A07803251F080917A07D4
:1026D000803341F483E007C081E005C080E003C09F
:1026E00082E001C084E00F910895613298F4209156
:1026F000E707243089F460939C07FC018EE997E09A
:10270000DC012A2F281B261718F421912D93F9CFCD
:1027100080E0089581E0089582E0089585ED80933A
:10272000BC008091BC0084FDFCCF1092E7070895A7
:1027300085EC8093BC001092E70708951F920F92DA
:102740000FB60F9211240BB60F922F933F934F9316
:102750005F936F937F938F939F93AF93BF93EF9309
:10276000FF938091B900887F803609F49DC070F591
:10277000883209F45CC090F4803109F455C038F413
:10278000882309F4F3C0883009F44EC0F2C08831C0
:1027900009F44DC0803209F45EC0EBC0803409F406
:1027A00069C050F4803309F456C0883309F0E1C0A1
:1027B00080937A07BDDFDDC0803509F44FC08835CE
:1027C00009F45DC0883409F0D4C0D2C0883909F456
:1027D000C3C0A8F4883709F467C038F4883609F410
:1027E00063C0803709F460C0C4C0883809F4B4C03D
:1027F000803909F45FC0803809F0BBC05BC0803B02
:1028000009F482C038F4803A09F466C0883A09F4C1
:102810007BC0AFC0803C09F4A3C0883C09F4A0C0D1
:10282000883B09F486C0A5C08091E60710C090914E
:10283000BF078091BE07981770F5E091BF0781E050
:102840008E0F8093BF07F0E0E054F84F80818093B3
:10285000BB0085EC82C080937A078AC0E091BF07F5
:1028600081E08E0F8093BF078091BB00F0E0E054C1
:10287000F84F80839091BF078091BE076AC0E091B6
:10288000BF0781E08E0F8093BF078091BB00F0E00F
:10289000E054F84F80838091E507811169C081E0A1
:1028A0008093E40784EA5DC083E08093E707109299
:1028B0007B07CFCF80917B07803208F04DC0E0913D
:1028C0007B0781E08E0F80937B078091BB00F0E057
:1028D000E458F84F8083BDCF2BDF80917B07803297
:1028E00030F4E0917B07F0E0E458F84F10826091FB
:1028F0007B0770E0E091E007F091E1078CE797E05B
:10290000199510927B0735C084E08093E7071092F9
:102910009D0710929C07E091E207F091E30719955B
:1029200080919C07811105C081E080939C071092E3
:102930009E07E0919D0781E08E0F80939D07F0E058
:10294000E256F84F80818093BB0090919D07809163
:102950009C07981708F47DCF85E88093BC0009C0D8
:1029600085EC8093BC001092E70703C010927A07B1
:10297000D5DEFF91EF91BF91AF919F918F917F91A4
:102980006F915F914F913F912F910F900BBE0F90E0
:102990000FBE0F901F901895FC01862F60837183E6
:1029A00060E063C6CF93DF93EC011982188288E060
:1029B00090E09B838A831D821C8280E190E00E94CC
:1029C000422099838883DF91CF910895CF92DF923F
:1029D000EF92FF920F931F93CF93DF93EC017B0154
:1029E0008C819D818C010F5F1F4F8017910708F02C
:1029F00042C04A815B814017510730F5099648175C
:102A0000590710F5C880D9809B838A83880F991F46
:102A10000E94422088839983FC01D60120E030E0A7
:102A20004C815D812417350760F4309729F04D9172
:102A30005C911197518340832F5F3F4F32961296DE
:102A4000EFCFC6010E9443208C819D819C01220F03
:102A5000331F8017910790F4E881F981E20FF31F8B
:102A6000309729F0D7014D915C91518340830196B5
:102A70002E5F3F4FEECF0817190710F41D830C830C
:102A8000DF91CF911F910F91FF90EF90DF90CF904A
:102A900008956F927F928F929F92AF92BF92CF9242
:102AA000DF92EF92FF920F931F93CF93DF931F92CA
:102AB0001F92CDB7DEB78C01B62EA72E8BE092E029
:102AC000F801938382838AE292E0958384838BE486
:102AD00092E0978386838EE692E09187808783E9F0
:102AE00092E0938782878AEB92E09587848783EED2
:102AF00092E0978786878FE093E0918B808B8EE3BF
:102B000093E0938B828B20E733E0358B248B24EA90
:102B100033E0378B268B2BED33E0318F208F2CE287
:102B200031E0338F228F24E630E0358F248F680127
:102B3000FEE1CF0ED11CBE016F5F7F4FC60132DFB9
:102B4000480185E2880E911CBE016F5F7F4FC40172
:102B500029DF7801ECE2EE0EF11CBE016F5F7F4FC2
:102B6000C70120DFF801B082A18260E08B2D7DD506
:102B70005801F2E0AF0EB11CB501C60127DF1A8281
:102B80001982BE016F5F7F4FC60120DFB501C6010C
:102B90001DDF1A821982BE016F5F7F4FC60116DFEB
:102BA000380188E1680E711CB301C6010FDF1A827B
:102BB0001982BE016F5F7F4FC60108DFB301C601F6
:102BC00005DFB501C40102DFB501C701FFDE1A82CE
:102BD0001982BE016F5F7F4FC701F8DEB801665FE3
:102BE0007F4FC701F3DE1A821982BE016F5F7F4FEC
:102BF000C701ECDEB801605F7F4FC701E7DE1A82D4
:102C00001982BE016F5F7F4FC701E0DEF80182814C
:102C10009381880F991F9A838983BE016F5F7F4FCD
:102C2000C701D4DE0F900F90DF91CF911F910F91CC
:102C3000FF90EF90DF90CF90BF90AF909F908F90DC
:102C40007F906F9008950F931F93CF93DF93CDB72D
:102C5000DEB765970FB6F894DEBF0FBECDBF8C010F
:102C6000FC016281738122E530E04081CE01019652
:102C70006ADA85E1FE013196D8011D9601900D9228
:102C80008A95E1F7CE010196D3D8035F1F4FC801A3
:102C9000E3D8C80164D965960FB6F894DEBF0FBEBD
:102CA000CDBFDF91CF911F910F910895DC0186E098
:102CB000869FF001879FF00D1124EE5FFC4F80810D
:102CC000918193969C938E9392978281938195960E
:102CD0009C938E9394978481958197969C938E93E1
:102CE00096970895CF92DF92EF92FF920F93CF9332
:102CF000DF93EC01E12CF12C6C018DE0C80ED11CAE
:102D00006623C9F08A819B81E816F90654F40EA166
:102D10002CA14AA1B701C6013BDA8FEFE81AF80AE5
:102D2000F1CFCE010D96DF91CF910F91FF90EF90F3
:102D3000DF90CF9014C98A819B81E816F9068CF741
:102D400000E020E040E0B701C60122DA8FEFE81A88
:102D5000F80AF1CFEF92FF920F931F93CF93DF9377
:102D600000D01F92CDB7DEB77C01FC017583648370
:102D70008B01085F1F4F13830283000F111FC801CF
:102D800049835A836B837C830E944220F7018083AE
:102D9000918398012051310949815A81240F351FAF
:102DA000FC01DA01A217B30741F08D919D91309794
:102DB00011F0918380833296F5CF0F900F900F9092
:102DC0000F90DF91CF911F910F91FF90EF90089599
:102DD000EF92FF920F931F93CF93DF93EC018B0140
:102DE0006817790709F486C0DB0114962D913C9190
:102DF00015978A819B818217930718F5E880F980DF
:102E00003B832A83C901880F991F0E94422088832F
:102E10009983FC01D70120E030E04C815D812417CB
:102E2000350760F4309729F04D915C9111975183EB
:102E300040832F5F3F4F32961296EFCFC7010E941B
:102E400043208C819D81F80124813581821793076D
:102E500008F49C0180E090E08217930791F0AC01A8
:102E6000440F551FD801ED91FC91E40FF51F6081CF
:102E70007181E881F981E40FF51F71836083019608
:102E8000EBCF8C819D81F8012481358182179307D6
:102E900068F0D80114968D919C9115972C813D81F5
:102EA0008217930738F59D838C8324C09C01220FE1
:102EB000331FD80114964D915C911597841795078F
:102EC00040F7F801A081B181A20FB31FE881F98119
:102ED000E20FF31F309721F04D915C9151834083B5
:102EE0004C815D814F5F5F4F5D834C8301962E5F08
:102EF0003F4FDFCFCE01DF91CF911F910F91FF9018
:102F0000EF900895AF92BF92CF92DF92EF92FF922F
:102F10000F931F93CF93DF93CDB7DEB72E970FB6E6
:102F2000F894DEBF0FBECDBF8C015B016A01FC01CE
:102F300082A193A19987888784A195A19B878A877D
:102F400086A197A19D878C87AE01485F5F4F63E0A4
:102F500070E07801F6E0EF0EF11C9E012F5F3F4F0D
:102F6000C701F8DEC8010D960E94010FF801B18279
:102F7000A082D382C282148215824CEF52E063E0B9
:102F800070E09E01225F3F4FCE010196E3DEBE015D
:102F90006F5F7F4FC7011CDFCE0101960E9465075E
:102FA0002E960FB6F894DEBF0FBECDBFDF91CF9146
:102FB0001F910F91FF90EF90DF90CF90BF90AF9057
:102FC0000895AF92BF92CF92DF92EF92FF920F934C
:102FD0001F93CF93DF93CDB7DEB72E970FB6F8943C
:102FE000DEBF0FBECDBF7C016B01B42EA22E488781
:102FF00059872A873B870C871D87AE01485F5F4F43
:1030000063E070E09E01225F3F4FCE010196A2DE99
:10301000BE016F5F7F4FC7010696DADECE010196D3
:103020000E9465078DE0E80EF11C2A2D4B2DB6019C
:10303000C701AED8C7010E94AF0F2E960FB6F89405
:10304000DEBF0FBECDBFDF91CF911F910F91FF90DB
:10305000EF90DF90CF90BF90AF9008950F931F93A4
:10306000FB0177FF03C0F195E195F109DC011296B0
:103070006D917C9113976E177F073CF400E010E090
:1030800020E030E040E050E001C0BF019ADF1F9136
:103090000F9108958F929F92AF92BF92CF92DF923D
:1030A000EF92FF920F931F93CF93DF93CDB7DEB7CD
:1030B0002E970FB6F894DEBF0FBECDBF6C01162F52
:1030C000942E822E688779874A875B872C873D8775
:1030D000AE01485F5F4F63E070E09E01225F3F4FAB
:1030E000CE01019637DEBE016F5F7F4FC6010696A7
:1030F0006FDECE0101960E946507E12CF12CC6011E
:103100000D965C01F60182819381E816F90654F46C
:10311000082D292D412FB701C5013AD89FEFE91A93
:10312000F90AF0CFC5010E94AF0F2E960FB6F894A2
:10313000DEBF0FBECDBFDF91CF911F910F91FF90EA
:10314000EF90DF90CF90BF90AF909F908F900895B9
:10315000CF93DF93EC01822F798368835B834A836B
:103160002C833D831E821F821886198660E070E0E2
:1031700066D181E08A8760E08881B0D261E08A818F
:10318000DF91CF91ABC2CF93DF93EC0126E040E813
:1031900055E260E070E081EF97E009D461E08C8156
:1031A00064D261E0888161D261E08A815ED2DF9180
:1031B000CF910895EF92FF920F931F93FC017383B9
:1031C00062835583448337832683F186E0861183A7
:1031D00000831F910F91FF90EF9008951F920F921F
:1031E0000FB60F9211242F933F938F939F93AF931A
:1031F000BF938091E9079091EA07A091EB07B09106
:10320000EC073091E80723E0230F2D3720F40196D7
:10321000A11DB11D05C026E8230F0296A11DB11DF9
:103220002093E8078093E9079093EA07A093EB07C0
:10323000B093EC078091ED079091EE07A091EF0716
:10324000B091F0070196A11DB11D8093ED079093F9
:10325000EE07A093EF07B093F007BF91AF919F9156
:103260008F913F912F910F900FBE0F901F90189547
:103270002FB7F8946091E9077091EA078091EB0706
:103280009091EC072FBF08953FB7F8948091ED0718
:103290009091EE07A091EF07B091F00726B5A89B9B
:1032A00005C02F3F19F00196A11DB11D3FBF662734
:1032B000782F892F9A2F620F711D811D911D42E079
:1032C000660F771F881F991F4A95D1F70895CF92EF
:1032D000DF92EF92FF92CF93DF936B017C01D4DFFB
:1032E000EB01C114D104E104F10481F00E949E219C
:1032F000CBDF6C1B7D0B683E734098F381E0C81AEE
:10330000D108E108F108C851DC4FEBCFDF91CF9134
:10331000FF90EF90DF90CF9008958230910538F0C4
:10332000880F991F880F991F05970197F1F7089546
:10333000789484B5826084BD84B5816084BD85B590
:10334000826085BD85B5816085BDEEE6F0E0808157
:1033500081608083E1E8F0E0108280818260808378
:10336000808181608083E0E8F0E0808181608083FB
:10337000E1EBF0E0808184608083E0EBF0E080812D
:1033800081608083E1E9F0E08081826080838081D8
:1033900081608083E0E9F0E0808181608083E1EA00
:1033A000F0E0808182608083808181608083E0EAB8
:1033B000F0E0808181608083E1E2F1E080818260E1
:1033C0008083808181608083E0E2F1E080818160A0
:1033D0008083EAE7F0E0808184608083808182607E
:1033E0008083808181608083808180688083109267
:1033F000C1000895863308F0865320917B00982FF2
:103400009870277F922B90937B0087702091090200
:1034100090E4299F90011124822B80937C0080915D
:103420007A00806480937A0080917A0086FDFCCFD8
:10343000809178002091790090E0922B08951F935D
:10344000CF93DF93182FEB0161E00FD1209711F498
:1034500060E004C0CF3FD10531F461E0812FDF91FE
:10346000CF911F913BC1E12FF0E0E45DFE4F44910D
:1034700050E0FA013197E231F10508F09AC0EE58B8
:10348000FF4F7FC784B5806884BDC7BD97C084B532
:10349000806284BDC8BD92C08091800080688093A6
:1034A0008000D0938900C093880088C080918000FC
:1034B000806280938000D0938B00C0938A007EC08E
:1034C00080918000886080938000D0938D00C093AD
:1034D0008C0074C08091B00080688093B000C0936D
:1034E000B3006CC08091B00080628093B000C09344
:1034F000B40064C080919000806880939000D09365
:103500009900C09398005AC0809190008062809387
:103510009000D0939B00C0939A0050C0809190007F
:10352000886080939000D0939D00C0939C0046C01B
:103530008091A00080688093A0008091A0008F7B84
:103540008093A000D093A900C093A80037C08091B9
:10355000A00080628093A000D093AB00C093AA002B
:103560002DC08091A00088608093A000D093AD0012
:10357000C093AC0023C0809120018068809320011B
:10358000D0932901C093280119C080912001806245
:1035900080932001D0932B01C0932A010FC080910A
:1035A0002001886080932001D0932D01C0932C01CD
:1035B00005C0C038D1050CF050CF4ACFDF91CF9174
:1035C0001F91089590E0FC013197E231F10508F078
:1035D0004BC0EC57FF4FD5C6809180008F7703C05A
:1035E000809180008F7D809380000895809180007D
:1035F000877FF9CF84B58F7702C084B58F7D84BD76
:1036000008958091B0008F7703C08091B0008F7DC6
:103610008093B0000895809190008F7707C08091CB
:1036200090008F7D03C080919000877F80939000F1
:1036300008958091A0008F7707C08091A0008F7DB2
:1036400003C08091A000877F8093A000089580919F
:1036500020018F7707C0809120018F7D03C080916A
:103660002001877F809320010895CF93DF9390E01E
:10367000FC01EE58FE4F2491FC01E854FE4F84916A
:10368000882349F190E0880F991FFC01EE5CFD4F03
:10369000A591B491885E9D4FFC01C591D4919FB7CF
:1036A000611108C0F8948C91209582238C938881B5
:1036B00082230AC0623051F4F8948C91322F3095F5
:1036C00083238C938881822B888304C0F8948C9107
:1036D000822B8C939FBFDF91CF9108950F931F93FF
:1036E000CF93DF931F92CDB7DEB7282F30E0F901DB
:1036F000E45DFE4F8491F901EE58FE4F1491F901FB
:10370000E854FE4F04910023C1F0882319F0698327
:1037100059DF6981E02FF0E0EE0FFF1FE85EFD4FFB
:10372000A591B4919FB7F8948C91611103C0109545
:10373000812301C0812B8C939FBF0F90DF91CF918C
:103740001F910F910895CF93DF93282F30E0F90157
:10375000E45DFE4F8491F901EE58FE4FD491F901DA
:10376000E854FE4FC491CC2389F081112BDFEC2F5C
:10377000F0E0EE0FFF1FE250FE4FA591B4912C91A7
:103780002D2381E090E021F480E002C080E090E011
:10379000DF91CF910895FC01818D228D90E0805CB6
:1037A0009F4F821B91098F7399270895FC01918D7A
:1037B000828D981731F0828DE80FF11D858D90E094
:1037C00008958FEF9FEF0895FC01918D828D9817DA
:1037D00061F0828DDF01A80FB11D5D968C91928DF5
:1037E0009F5F9F73928F90E008958FEF9FEF0895F2
:1037F00086E99DE1892B39F080E090E0892B19F072
:1038000095D1811122C081E49EE1892B39F080E0BD
:1038100090E0892B19F035D281111AC08CEE9EE10F
:10382000892B39F080E090E0892B19F0D5D28111F5
:1038300012C087E99FE1892B99F080E090E0892B05
:1038400079F075D381110AC008950E940000DBCF82
:103850000E940000E3CF0E940000EBCF0C94000018
:103860000895FC01848DDF01A80FB11DA35ABF4F3D
:103870002C91848D90E001968F739927848FA6896F
:10388000B7892C93A089B1898C9180648C93938D96
:10389000848D981306C00288F389E02D80818F7D86
:1038A00080830895CF93DF93EC01888D8823C1F046
:1038B000EA89FB89808185FD05C0A889B9898C9139
:1038C00086FD0EC00FB607FCF5CF808185FFF2CFD5
:1038D000A889B9898C9185FFEDCFCE01C2DFE8CFF1
:1038E000DF91CF910895CF92DF92FF920F931F93B4
:1038F000CF93DF931F92CDB7DEB76C0181E0D60185
:1039000058968C9358975B969C915B975C968C919C
:103910005C97981307C05096ED91FC915197808168
:1039200085FD2DC0F601038D10E00F5F1F4F0F7353
:103930001127F02EF601848DF81210C00FB607FC87
:10394000F9CFD6015096ED91FC915197808185FF7A
:10395000F1CFC601698385DF6981ECCF838DE80FE4
:10396000F11DE35AFF4F6083D6015B960C935B9782
:103970005296ED91FC915397808180620CC0D601E4
:103980005696ED91FC91579760835096ED91FC917E
:10399000519780818064808381E090E00F90DF9177
:1039A000CF911F910F91FF90DF90CF900895BF921C
:1039B000CF92DF92EF92FF92CF93DF93EC016A01F7
:1039C0007B01B22EE889F98982E08083411581EE7E
:1039D00058076105710599F060E079E08DE390E0AA
:1039E000A7019601ACD421503109410951095695DE
:1039F000479537952795211580E1380790F0E8899C
:103A0000F989108260E874E88EE190E0A7019601E0
:103A100096D421503109410951095695479537955A
:103A20002795EC85FD853083EE85FF852083188EF4
:103A3000EC89FD89B082EA89FB898081806180837D
:103A4000EA89FB89808188608083EA89FB8980819B
:103A500080688083EA89FB8980818F7D8083DF9104
:103A6000CF91FF90EF90DF90CF90BF9008951F927D
:103A70000F920FB60F9211240BB60F922F938F93C4
:103A80009F93EF93FF93E0910108F09102088081EA
:103A9000E0910708F091080882FD12C090818091A2
:103AA0000A088F5F8F7320910B08821751F0E09105
:103AB0000A08F0E0EF50F84F958F80930A0801C094
:103AC0008081FF91EF919F918F912F910F900BBE6D
:103AD0000F900FBE0F901F9018951F920F920FB668
:103AE0000F9211240BB60F922F933F934F935F9336
:103AF0006F937F938F939F93AF93BF93EF93FF93B6
:103B000081EF97E0AEDEFF91EF91BF91AF919F9172
:103B10008F917F916F915F914F913F912F910F9076
:103B20000BBE0F900FBE0F901F90189581EF97E07E
:103B300032DE21E0892B09F420E0822F08951092D3
:103B4000F4071092F30788EE93E0A0E0B0E08093D2
:103B5000F5079093F607A093F707B093F80782E470
:103B600093E09093F2078093F10785EC90E09093B7
:103B7000FE078093FD0784EC90E09093000880930B
:103B8000FF0780EC90E0909302088093010881EC9D
:103B900090E0909304088093030882EC90E0909367
:103BA00006088093050886EC90E0909308088093BF
:103BB000070810920A0810920B0810920C08109235
:103BC0000D0808951F920F920FB60F9211240BB695
:103BD0000F922F938F939F93EF93FF93E0919E0803
:103BE000F0919F088081E091A408F091A50882FDE2
:103BF00012C090818091A7088F5F8F732091A808D1
:103C0000821751F0E091A708F0E0E257F74F958F47
:103C10008093A70801C08081FF91EF919F918F91C0
:103C20002F910F900BBE0F900FBE0F901F90189505
:103C30001F920F920FB60F9211240BB60F922F9373
:103C40003F934F935F936F937F938F939F93AF9324
:103C5000BF93EF93FF938EE898E003DEFF91EF911F
:103C6000BF91AF919F918F917F916F915F914F9194
:103C70003F912F910F900BBE0F900FBE0F901F9092
:103C800018958EE898E087DD21E0892B09F420E083
:103C9000822F0895109291081092900888EE93E078
:103CA000A0E0B0E08093920890939308A0939408CA
:103CB000B093950882E493E090938F0880938E08E8
:103CC0008DEC90E090939B0880939A088CEC90E0A8
:103CD00090939D0880939C0888EC90E090939F08B7
:103CE00080939E0889EC90E09093A1088093A008AF
:103CF0008AEC90E09093A3088093A2088EEC90E069
:103D00009093A5088093A4081092A7081092A80881
:103D10001092A9081092AA0808951F920F920FB648
:103D20000F9211240BB60F922F938F939F93EF93C3
:103D3000FF93E0913B09F0913C098081E0914109BA
:103D4000F091420982FD12C09081809144098F5FF9
:103D50008F7320914509821751F0E0914409F0E0FA
:103D6000E55DF64F958F8093440901C08081FF91F6
:103D7000EF919F918F912F910F900BBE0F900FBEDF
:103D80000F901F9018951F920F920FB60F9211244B
:103D90000BB60F922F933F934F935F936F937F9345
:103DA0008F939F93AF93BF93EF93FF938BE299E031
:103DB00058DDFF91EF91BF91AF919F918F917F91CE
:103DC0006F915F914F913F912F910F900BBE0F908C
:103DD0000FBE0F901F9018958BE299E0DCDC21E07C
:103DE000892B09F420E0822F089510922E09109259
:103DF0002D0988EE93E0A0E0B0E080932F09909326
:103E00003009A0933109B093320982E493E0909392
:103E10002C0980932B0985ED90E0909338098093CD
:103E2000370984ED90E090933A098093390980ED49
:103E300090E090933C0980933B0981ED90E0909352
:103E40003E0980933D0982ED90E090934009809374
:103E50003F0986ED90E090934209809341091092CA
:103E60004409109245091092460910924709089595
:103E70001F920F920FB60F9211240BB60F922F9331
:103E80008F939F93EF93FF93E091D809F091D90915
:103E90008081E091DE09F091DF0982FD12C09081FE
:103EA0008091E1098F5F8F732091E209821751F0B1
:103EB000E091E109F0E0E853F64F958F8093E10936
:103EC00001C08081FF91EF919F918F912F910F9071
:103ED0000BBE0F900FBE0F901F9018951F920F9260
:103EE0000FB60F9211240BB60F922F933F934F935F
:103EF0005F936F937F938F939F93AF93BF93EF9352
:103F0000FF9388EC99E0ADDCFF91EF91BF91AF9109
:103F10009F918F917F916F915F914F913F912F91E1
:103F20000F900BBE0F900FBE0F901F90189588EC4E
:103F300099E031DC21E0892B09F420E0822F0895FB
:103F40001092CB091092CA0988EE93E0A0E0B0E08D
:103F50008093CC099093CD09A093CE09B093CF095B
:103F600082E493E09093C9098093C80985E391E0C6
:103F70009093D5098093D40984E391E09093D70975
:103F80008093D60980E391E09093D9098093D80972
:103F900081E391E09093DB098093DA0982E391E079
:103FA0009093DD098093DC0986E391E09093DF092B
:103FB0008093DE091092E1091092E2091092E30960
:103FC0001092E4090895AF92BF92CF92DF92EF92E0
:103FD000FF920F931F93CF93DF936C017B01C0E09F
:103FE000D0E000E010E0F601EC0FFD1F4AE050E0E9
:103FF0006281C701F1D05C016EE2C70183D08A0DF6
:104000009B1D080F191F2196C330D10561F74AE0A7
:1040100050E0F6016581C701DFD0800F911FDF916D
:10402000CF911F910F91FF90EF90DF90CF90BF90B5
:10403000AF9008950F93FC0182E593E09183808314
:1040400062834383248305830F91089582E593E07F
:104050009093660A8093650A1092670A1092680A24
:104060001092690A10926A0A0895089561D9FDDFD5
:104070000E941607C8EFDBE10E949F0A2097E1F338
:10408000B7DBFACF88C11FC2CF92DF92EF92FF92C7
:104090000F931F93CF93DF937C016A01EB0100E044
:1040A00010E00C151D0571F06991D701ED91FC919F
:1040B0000190F081E02DC7011995892B19F00F5F50
:1040C0001F4FEFCFC801DF91CF911F910F91FF904C
:1040D000EF90DF90CF9008956115710581F0DB01BD
:1040E0000D900020E9F7AD0141505109461B570BD7
:1040F000DC01ED91FC910280F381E02D199480E0C8
:1041000090E00895DC01ED91FC910190F081E02DAB
:1041100019948F929F92AF92BF92CF92DF92EF92BB
:10412000FF920F931F93CF93DF93CDB7DEB7A19785
:104130000FB6F894DEBF0FBECDBF7C01C42EE52FB5
:10414000CB01D22E19A221E02D1510F02AE0D22E9B
:104150008E010F5D1F4F8D2C912CA12CB12C6C2D3D
:104160007E2FA5019401EBD08C2DD29E80191124B5
:10417000015011098A3014F4805D01C0895CF80196
:104180008083211531054105510521F0C22EE32F11
:10419000CA01E5CFB801C7019FDFA1960FB6F89419
:1041A000DEBF0FBECDBFDF91CF911F910F91FF906A
:1041B000EF90DF90CF90BF90AF909F908F90089539
:1041C0002115310541F4DC01ED91FC910190F08164
:1041D000E02D642F19949DCF9A01462F50E060E0A6
:1041E00070E0EECF8230A9F028F4882349F08130C6
:1041F00051F00895843021F1E8F0853039F10895C7
:1042000010926E00089580916F008D7F80936F00F3
:104210000895809170008D7F8093700081E080937D
:10422000B0008091B100887F84608093B1001092CB
:10423000B3000895809171008D7F8093710008957F
:10424000809172008D7F8093720008958091730039
:104250008D7F809373000895CF93C82F80910A02B9
:104260008C1307C0ECE4F2E084919FEF90930A0274
:1042700001C08FEFB7DF60E08C2FCF912FCA1F9264
:104280000F920FB60F9211240BB60F922F933F93FC
:104290004F935F936F937F938F939F93AF93BF934E
:1042A000EF93FF9380916E0A90916F0AA091700A2C
:1042B000B091710A892B8A2B8B2B51F190916B0A4B
:1042C000E0916C0AF0916D0A80818927808380914A
:1042D0006E0A90916F0AA091700AB091710A181637
:1042E00019061A061B06BCF480916E0A90916F0A9B
:1042F000A091700AB091710A0197A109B109809348
:104300006E0A90936F0AA093700AB093710A03C06B
:1043100080910A02A1DFFF91EF91BF91AF919F9130
:104320008F917F916F915F914F913F912F910F905E
:104330000BBE0F900FBE0F901F9018950895A1E22D
:104340001A2EAA1BBB1BFD010DC0AA1FBB1FEE1F0F
:10435000FF1FA217B307E407F50720F0A21BB30B5A
:10436000E40BF50B661F771F881F991F1A9469F7D6
:1043700060957095809590959B01AC01BD01CF0132
:104380000895EE0FFF1F0590F491E02D199407900A
:10439000F691E02D1994CF93DF938230910510F4BC
:1043A00082E090E0E091740AF091750A20E030E03C
:1043B000A0E0B0E0309739F14081518148175907AA
:1043C000B8F04817590771F482819381109729F04A
:1043D00013969C938E9312972CC09093750A80939A
:1043E000740A27C02115310531F04217530718F020
:1043F000A901DB0101C0EF019A01BD01DF010280CB
:10440000F381E02DD7CF21153105F9F0281B390BA9
:104410002430310580F48A819B816115710521F07A
:10442000FB019383828304C09093750A8093740A7E
:10443000FE01329644C0FE01E20FF31F8193919377
:1044400022503109398328833AC02091720A309171
:10445000730A232B41F4209102023091030230931E
:10446000730A2093720A20910002309101022115F3
:10447000310541F42DB73EB7409104025091050239
:10448000241B350BE091720AF091730AE217F307CF
:10449000A0F42E1B3F0B2817390778F0AC014E5FB4
:1044A0005F4F2417350748F04E0F5F1F5093730A74
:1044B0004093720A8193919302C0E0E0F0E0CF0153
:1044C000DF91CF910895CF93DF93009709F487C0D0
:1044D000FC01329713821282C091740AD091750A3E
:1044E000209781F420813181280F391F8091720A31
:1044F0009091730A8217930779F5F093730AE0930A
:10450000720A6DC0DE0120E030E0AE17BF0750F444
:1045100012964D915C9113979D014115510509F13A
:10452000DA01F3CFB383A28340815181840F951FB9
:104530008A179B0771F48D919C911197840F951F99
:1045400002969183808312968D919C911397938309
:1045500082832115310529F4F093750AE093740ADA
:104560003EC0D9011396FC93EE9312974D915D9145
:10457000A40FB51FEA17FB0779F480819181840F9E
:10458000951F0296D90111969C938E9382819381F7
:1045900013969C938E931297E0E0F0E08A819B81C2
:1045A000009719F0FE01EC01F9CFCE0102962881A7
:1045B0003981820F931F2091720A3091730A281754
:1045C000390769F4309729F41092750A1092740A29
:1045D00002C013821282D093730AC093720ADF91D1
:1045E000CF910895DC0101C06D9341505040E0F738
:1045F0000895FB01DC014150504048F001900D92BC
:104600000020C9F701C01D9241505040E0F70895C5
:10461000FC0181E090E00190061609F4CF01002032
:10462000D1F701970895FB0151915523A9F0BF01DE
:10463000DC014D9145174111E1F759F4CD0101908D
:10464000002049F04D9140154111C9F3FB01411182
:10465000EFCF81E090E00197089512E0C0E6D2E04C
:1046600000E005C022970109FE010BBF90DEC236B3
:0C467000D10780E00807B1F7F894FFCFF5
:10467C000000760A8000FF130001FF556E6B6E6F11
:10468C00776E2070696E206D6F646500433A5C55DF
:10469C00736572735C6973656E5C417070446174B0
:1046AC00615C4C6F63616C5C54656D705C564D4223
:1046BC0075696C64735C536372617463685F46699B
:1046CC00726D6174615F6C69625C6D6567615F617D
:1046DC00746D656761323536305C53637261746337
:1046EC00685F4669726D6174615F6C69622E63709C
:1046FC0070004932433A20546F6F206D616E7920FF
:10470C0062797465732072656365697665640049C6
:10471C0032433A20546F6F20666577206279746556
:10472C00732072656365697665640031302D62694A
:10473C00742061646472657373696E67206E6F7444
:10474C0020737570706F7274656400746F6F206D78
:10475C00616E7920717565726965730000000000E7
:10476C00F111C5119A11A211B511C411000000006C
:10477C000000FF00FF00FF00FF0000000000000031
:10478C00FF00000000000000FF002500FD00E90014
:10479C00DF006D001400600060006000FF00FF008F
:1047AC000000FF000000FF00660000009900000000
:1047BC000000731C4420CB1BE41BD61B521C0000B6
:0447CC000000E31FE7
:00000001FF
