:100000000C9487010C94B6010C94B6010C94B601C3
:100010000C94B6010C94B6010C94B6010C94B60184
:100020000C94B6010C94BE150C94BE150C94BE1520
:100030000C94B6010C94D0340C94B6010C94B60117
:100040000C94B6010C94B6010C94B6010C94B60154
:100050000C94B6010C94B6010C94B6010C9467296B
:100060000C94B6010C94C02D0C94F62D0C94B60192
:100070000C94B6010C94B6010C94B6010C94B60124
:100080000C94B6010C94B6010C94B6010C94B60114
:100090000C946D2E0C94A32E0C94B6010C944B185A
:1000A0000C94B6010C94B6010C94B6010C94B601F4
:1000B0000C94B6010C94B6010C94B6010C94B601E4
:1000C0000C94B6010C94B6010C94B6010C941A2F42
:1000D0000C94502F0C94B6010C94C72F0C94FD2F48
:1000E0000C94B601780E820E1D0F8E0E9A0EA40E81
:1000F000AE0EB80EC50EF319FE19091A141A1F1AFE
:100100002A1A351A401A4B1A561A611A6C1AC02A42
:10011000C52ACA2AD42ADE2A572BE82AF02AF82A26
:10012000022B0C2B162B252B2F2B572B392B432B2C
:100130004D2B792B7C2B6B2B6F2B752BB32B802BA3
:10014000842B8A2B8E2B922B982B9C2BA02BB32BA2
:10015000A62BAA2BAE2B07634236B79BD8A71A391A
:10016000685618AEBAAB558C1D3CB7CC5763BD6D05
:10017000EDFD753EF6177231BF000000803F0800AC
:100180000000BE922449123EABAAAA2ABECDCCCC16
:100190004C3E00000080BEABAAAAAA3E00000000B0
:1001A000BF000000803F0000000000084178D3BB82
:1001B0004387D1133D190E3CC3BD4282AD2B3E682F
:1001C000EC8276BED98FE1A93E4C80EFFFBE01C420
:1001D000FF7F3F000000000000000A0B02090C0D29
:1001E0000E080703040100000000000000000000EA
:1001F00000000000000000000000000000000000FF
:1002000000000000121110000000000000000000BB
:1002100000000000000000000000000000000102DB
:100220001020200808102040102040800201020108
:1002300008040201010204081020408080402010C0
:100240000804020180040201804020100804020119
:100250000804020101020408102040800102040881
:10026000102040800505050507050808080802025A
:1002700002020A0A08080404040401010101010140
:1002800001010303030303030303040707070C0C23
:100290000C0C0C0C0C0C02020202060606060606EA
:1002A00006060B0B0B0B0B0B0B0B000020002300A7
:1002B000260029002C002F0032000001000003015D
:1002C0000601090100002200250028002B002E0055
:1002D0003100340002010000050108010B0100009B
:1002E0002100240027002A002D00300033000101E6
:1002F0000000040107010A010200980B90139413F7
:1003000061172A2ED72E842F3130BA309C0B11243E
:100310001FBECFEFD1E2DEBFCDBF14E0A0E0B2E060
:10032000E8EDF8E700E00BBF02C007900D92AA339A
:10033000B107D9F72FE0AAE3B4E001C01D92AA3EAD
:10034000B207E1F712E0CCE0D3E000E006C022976C
:100350000109FE010BBF0E94EC39CA3FD10780E0C2
:100360000807A9F70E94CA300C945A3C0C9400006C
:100370001F93CF93DF93162F893008F070C0982F0A
:10038000990F990F990F985F973408F096E4D82F3A
:10039000DD0FDD0FDD0F8D2FC0E041E08917E8F4A0
:1003A0002EEF280F2434B0F4E82FF0E0DF01AF592E
:1003B000BA4F2C91223070F4C42BEE0FFF1FE45380
:1003C000FB4F21E030E0542F512311F420E030E0C6
:1003D00031832083440F8F5FE1CFC0FF05C0612FC1
:1003E00061708D2F0E94ED2BC1FF06C0612F6270DE
:1003F00081E08D0F0E94ED2BC2FF06C0612F64705B
:1004000082E08D0F0E94ED2BC3FF06C0612F687044
:1004100083E08D0F0E94ED2BC4FF06C0612F607139
:1004200084E08D0F0E94ED2BC5FF06C0612F607226
:1004300085E08D0F0E94ED2BC6FF06C0612F607412
:1004400086E08D0F0E94ED2BC7FF09C0612F6078F9
:1004500087E08D0FDF91CF911F910C94ED2BDF91F1
:10046000CF911F9108950F931F93CF93DF93EB01CB
:100470008634D0F4082F10E0F801EF59FA4F90813C
:10048000933091F49EEF980F9C3020F094ED980FEC
:10049000933018F4BE010E949A2AF801EE0FFF1F54
:1004A000E453FB4FD183C083DF91CF911F910F9114
:1004B0000895CF93C82F803158F54091B9055091D8
:1004C000BA0521E030E0082E02C0220F331F0A9443
:1004D000E2F7672B49F42095309524233523309398
:1004E000BA052093B90514C0242B352B3093BA05D7
:1004F0002093B90580913A0481110AC08C2F0E9483
:10050000752AAC016C2F8FEF9AE0CF910C943411C7
:10051000CF9108951F93CF93DF93162FC82FD0E06C
:10052000FE01E85AFA4F90811923C955DA4F41115B
:1005300003C09881911741F0412F50E0682F8FEF51
:100540009AE00E944D111883DF91CF911F91089579
:10055000EF92FF920F931F93CF93DF93E82E88E0E3
:100560008E1508F47EC02E2D30E0F901E055FA4FCB
:100570006083672B09F475C0F901E85AFA4FF080DF
:100580000E2D000F000F000F8EEF800F843408F047
:1005900058C0F0FE56C0802F0E94232C892B09F4EE
:1005A00050C011E08FEF800F843448F4F1FE07C093
:1005B00081E0800F0E94232C892B09F044C0C02FBA
:1005C000D0E0F2FE06C082E0800F0E94232C892B2F
:1005D000E1F5F3FE06C083E0800F0E94232C892BF7
:1005E000B1F5F4FE06C084E0800F0E94232C892B15
:1005F00081F5F5FE06C085E0800F0E94232C892B33
:1006000051F5C034D10541F0F6FE06C086E0800FFA
:100610000E94232C892B09F5EF9744F4F7FE06C0BE
:1006200087E0800F0E94232C892BC9F441E0612FC1
:100630008E2DDF91CF911F910F91FF90EF900C9431
:100640008A0210E0AFCF1260BACF1460C2CF186038
:10065000C8CF1061CECF1062D4CF1064DDCF106848
:10066000E5CFDF91CF911F910F91FF90EF9008950B
:10067000CF93DF938091B0058823C1F1D0915805C5
:10068000D2FF8EC282E00E94232C892B09F488C2FB
:10069000C4E0D3FF06C083E00E94232C892B09F01D
:1006A00081C2D4FF06C084E00E94232C892B09F06C
:1006B0007BC2D5FF06C085E00E94232C892B09F060
:1006C00075C2D6FF06C086E00E94232C892B09F054
:1006D0006FC2D7FF06C087E00E94232C892B09F048
:1006E00069C240E06C2F80E00E948A028091B105CF
:1006F000882309F448C0D0915905D0FF5DC288E035
:100700000E94232C892B09F457C2C1E0D1FF06C0F7
:1007100089E00E94232C892B09F050C2D2FF06C029
:100720008AE00E94232C892B09F04AC2D3FF06C01D
:100730008BE00E94232C892B09F044C2D4FF06C011
:100740008CE00E94232C892B09F03EC2D5FF06C005
:100750008DE00E94232C892B09F038C2D6FF06C0F9
:100760008EE00E94232C892B09F032C2D7FF06C0ED
:100770008FE00E94232C892B09F02CC240E06C2FC3
:1007800081E00E948A028091B205882309F448C062
:10079000D0915A05D0FF20C280E10E94232C892BE2
:1007A00009F41AC2C1E0D1FF06C081E10E94232CE6
:1007B000892B09F013C2D2FF06C082E10E94232CCC
:1007C000892B09F00DC2D3FF06C083E10E94232CC0
:1007D000892B09F007C2D4FF06C084E10E94232CB4
:1007E000892B09F001C2D5FF06C085E10E94232CA8
:1007F000892B09F0FBC1D6FF06C086E10E94232C9D
:10080000892B09F0F5C1D7FF06C087E10E94232C90
:10081000892B09F0EFC140E06C2F82E00E948A0230
:100820008091B305882309F448C0D0915B05D0FFBF
:10083000E3C188E10E94232C892B09F4DDC1C1E0CA
:10084000D1FF06C089E10E94232C892B09F0D6C173
:10085000D2FF06C08AE10E94232C892B09F0D0C167
:10086000D3FF06C08BE10E94232C892B09F0CAC15B
:10087000D4FF06C08CE10E94232C892B09F0C4C14F
:10088000D5FF06C08DE10E94232C892B09F0BEC143
:10089000D6FF06C08EE10E94232C892B09F0B8C137
:1008A000D7FF06C08FE10E94232C892B09F0B2C12B
:1008B00040E06C2F83E00E948A028091B405882377
:1008C00009F448C0D0915C05D0FFA6C180E20E9427
:1008D000232C892B09F4A0C1C1E0D1FF06C081E21D
:1008E0000E94232C892B09F099C1D2FF06C082E215
:1008F0000E94232C892B09F093C1D3FF06C083E209
:100900000E94232C892B09F08DC1D4FF06C084E2FC
:100910000E94232C892B09F087C1D5FF06C085E2F0
:100920000E94232C892B09F081C1D6FF06C086E2E4
:100930000E94232C892B09F07BC1D7FF06C087E2D8
:100940000E94232C892B09F075C140E06C2F84E0B4
:100950000E948A028091B505882309F448C0D0918D
:100960005D05D0FF69C188E20E94232C892B09F420
:1009700063C1C1E0D1FF06C089E20E94232C892B0C
:1009800009F05CC1D2FF06C08AE20E94232C892BA9
:1009900009F056C1D3FF06C08BE20E94232C892B9D
:1009A00009F050C1D4FF06C08CE20E94232C892B91
:1009B00009F04AC1D5FF06C08DE20E94232C892B85
:1009C00009F044C1D6FF06C08EE20E94232C892B79
:1009D00009F03EC1D7FF06C08FE20E94232C892B6D
:1009E00009F038C140E06C2F85E00E948A028091B6
:1009F000B605882309F448C0D0915E05D0FF2CC10C
:100A000080E30E94232C892B09F426C1C1E0D1FF89
:100A100006C081E30E94232C892B09F01FC1D2FF5D
:100A200006C082E30E94232C892B09F019C1D3FF51
:100A300006C083E30E94232C892B09F013C1D4FF45
:100A400006C084E30E94232C892B09F00DC1D5FF39
:100A500006C085E30E94232C892B09F007C1D6FF2D
:100A600006C086E30E94232C892B09F001C1D7FF21
:100A700006C087E30E94232C892B09F0FBC040E0CD
:100A80006C2F86E00E948A028091B705882309F4C2
:100A900048C0D0915F05D0FFEFC088E30E94232CAF
:100AA000892B09F4E9C0C1E0D1FF06C089E30E94A7
:100AB000232C892B09F0E2C0D2FF06C08AE30E94F2
:100AC000232C892B09F0DCC0D3FF06C08BE30E94E6
:100AD000232C892B09F0D6C0D4FF06C08CE30E94DA
:100AE000232C892B09F0D0C0D5FF06C08DE30E94CE
:100AF000232C892B09F0CAC0D6FF06C08EE30E94C2
:100B0000232C892B09F0C4C0D7FF06C08FE30E94B5
:100B1000232C892B09F0BEC040E06C2F87E00E9497
:100B20008A028091B805882309F4C2C0D09160057B
:100B3000D0FFB2C080E40E94232C892B09F4ACC002
:100B4000C1E0D1FF06C081E40E94232C892B09F06B
:100B5000A5C0D2FF06C082E40E94232C892B09F095
:100B60009FC0D3FF06C083E40E94232C892B09F089
:100B700099C0D4FF06C084E40E94232C892B09F07D
:100B800093C0D5FF06C085E40E94232C892B09F071
:100B90008DC040E06C2F88E0DF91CF910C948A02E9
:100BA000C0E077CDC8607DCDC06183CDC06289CD06
:100BB000C0648FCDC06895CDC0E0A8CDC260AECD79
:100BC000C460B4CDC860BACDC061C0CDC062C6CD6E
:100BD000C064CCCDC068D2CDC0E0E5CDC260EBCD65
:100BE000C460F1CDC860F7CDC061FDCDC06203CE59
:100BF000C06409CEC0680FCEC0E022CEC26028CE4D
:100C0000C4602ECEC86034CEC0613ACEC06240CE41
:100C1000C06446CEC0684CCEC0E05FCEC26065CE38
:100C2000C4606BCEC86071CEC06177CEC0627DCE2D
:100C3000C06483CEC06889CEC0E09CCEC260A2CE24
:100C4000C460A8CEC860AECEC061B4CEC062BACE19
:100C5000C064C0CEC068C6CEC0E0D9CEC260DFCE10
:100C6000C460E5CEC860EBCEC061F1CEC062F7CE05
:100C7000C064FDCEC06803CFC0E016CFC2601CCFF9
:100C8000C46022CFC86028CFC0612ECFC06234CFED
:100C9000C0643ACFC06840CFC0E053CFC26059CFE4
:100CA000C4605FCFC86065CFC0616BCFC06271CFD9
:100CB000DF91CF910895109283048FEF8093060205
:100CC0000895AF92BF92DF92EF92FF920F931F931E
:100CD000CF93DF931F92CDB7DEB7D82E5B01E82EFE
:100CE000F12C87010F591A4FF80180818F3709F4D1
:100CF000A9C0863049F480918304882329F06630A6
:100D0000710511F00E945B064AEC4D0D403168F40C
:100D100061E070E082E0A816B10411F060E070E0DC
:100D2000842F49830E94590249819EEF9D0D94347E
:100D3000D8F4ED2DE695E695E6958D2D8770F0E0DB
:100D4000E85AFA4F21E030E0082E01C0220F0A9441
:100D5000EAF7A114B10421F48081822B808304C0BE
:100D60002095808128232083F701EE0FFF1FE45395
:100D7000FB4F11821082E2E0AE16B10489F03CF420
:100D8000A114B104E1F0AA94AB2839F14BC0E3E01F
:100D9000AE16B10471F1F6E0AF16B104D9F142C05C
:100DA000403108F04FC0943440F460E08D2D0E9433
:100DB000B42B60E08D2D0E94ED2B82E030C0943486
:100DC00008F040C060E08D2D0E94B42B60E08D2DB6
:100DD0000E94ED2BF801108235C0943498F560E044
:100DE0008D2D0E94ED2B61E08D2D0E94B42B81E0B2
:100DF00016C09C3020F084ED8D0D833018F561E035
:100E00008D2D0E94B42B60E070E08D2D0E949A2AF7
:100E100083E005C08CEE8D0D8230A0F486E0F801F1
:100E2000808310C067E472E08FEF9AE00F90DF914B
:100E3000CF911F910F91FF90EF90DF90BF90AF90F7
:100E40000C94C6110F90DF91CF911F910F91FF90DD
:100E5000EF90DF90BF90AF900895CF93C0E08CEEFD
:100E60008C0F823028F466E070E08C2F0E946106BF
:100E7000CF5FC634A1F781E08093830489E79CE0CB
:100E8000CF910C94D3160F931F93CF93DF9381E0F0
:100E900080933A048091830481110E945B06E0EB09
:100EA000F5E0C8E5D5E0A7EAB5E0119219921D92E8
:100EB00085E0E93BF807C9F7CBE3D4E010E00FEF9A
:100EC0008AEC810F803118F462E070E002C061E0CA
:100ED00070E0812F0E94610609931F5F163481F72D
:100EE0001092BA051092B90510923A04DF91CF9191
:100EF0001F910F910895CF93DF9384E69AE00E94AB
:100F0000811E20E030E040E050E060E070E084E6E8
:100F10009AE00E94832025E042E068E572E08FEFCE
:100F20009AE00E945B1043E352E060EE8FEF9AE09C
:100F30000E94D41148EB51E060E98FEF9AE00E94E3
:100F4000D41149E552E060EC8FEF9AE00E94D41191
:100F500048EA52E060ED8FEF9AE00E94D41141E63A
:100F600056E064EF8FEF9AE00E94D41148E15CE014
:100F700060EF8FEF9AE00E94041243E457E06FEFB6
:100F80008FEF9AE00E94FC1140E051EE60E070E0CB
:100F90008FEF9AE00E9479130E94430747E050E0E8
:100FA0006BE070E082EA96E00E94372140E050E07A
:100FB00069E070E082EA96E00E94372141E050E06B
:100FC0006CE070E082EA96E00E94372140E050E059
:100FD0006FE070E082EA96E00E943721C1E0D0E045
:100FE00040E050E0BE0182EA96E00E94372121965F
:100FF000C930D105A9F74FE050E06AE070E082EA1D
:1010000096E0DF91CF910C943721EF92FF920F93EE
:101010001F93CF93DF9300D000D0CDB7DEB77C0114
:10102000FC01758364838B01085F1F4F1383028368
:10103000000F111FC80149835A836B837C830E9470
:10104000D930F7018083918398012051310949817A
:101050005A81240F351FFC01DA01A217B30741F0B2
:101060008D919D91309711F0918380833296F5CFC9
:101070000F900F900F900F90DF91CF911F910F91D4
:10108000FF90EF900895FC01808191810C94DB30FA
:10109000CF93DF93EC010E960E944308CE01DF91BF
:1010A000CF910C943035CF93DF93EC0144960E949E
:1010B0004308CE010D960E944308CE010696DF91AB
:1010C000CF910C9443080F931F93CF93DF93EC01C0
:1010D0008B01DB0114968D919C9115979D838C83D8
:1010E00008969B838A83880F991F0E94D930888332
:1010F0009983FC0180E090E02C813D818217930769
:1011000090F4D8014D915C919C01220F331F420F46
:10111000531F309729F0DA012D913C9131832083C0
:1011200001963296E9CFDF91CF911F910F910895EB
:101130000F931F93CF93DF93EC018B010E94CB356C
:10114000F801868197819F838E8380859185998719
:101150008887828593859B878A87848595859D87E7
:101160008C87B801625F7F4FCE010E96DF91CF91E1
:101170001F910F910C946308AF92BF92CF92DF92B0
:10118000EF92FF920F931F93CF93DF93CDB7DEB70C
:10119000CD5BD1090FB6F894DEBF0FBECDBF813055
:1011A000910509F045C2CC24C394E12CF12C8701B0
:1011B0002AE030E048E050E069E070E084EF9AE037
:1011C0000E942B2225E030E046E050E067E070E02E
:1011D00089EE9AE00E942B22EE24EA94FE2C01E094
:1011E00010E022E830E040E450E065E270E08EED8F
:1011F0009AE00E944222E12CF12C22E830E041E406
:1012000050E067E270E083ED9AE00E944222EE2413
:10121000E394F12C22E830E042E450E069E270E02F
:1012200088EC9AE00E94422246E050E06CE270E0D6
:1012300084E69AE00E94A91F66E170E080E69AE0E9
:101240000E947C1967E170E08CE59AE00E947C19AD
:1012500068E170E088E59AE00E947C1969E170E03D
:1012600084E59AE00E947C196AE170E080E59AE0EA
:101270000E947C196BE070E085E39AE00E94511BAC
:101280006BE070E08AE19AE00E94511B8AEA96E0E6
:101290000E94562202E010E020E230E04FE150E0F0
:1012A0006EE170E082EA96E00E94E4204CEF53E0A9
:1012B00069E070E0CE0101965C019C018BE996E04B
:1012C0000E9405084EEC53E067E170E0950184E967
:1012D00096E00E94050840EB53E06FE070E0950156
:1012E0008DE896E00E9405084EE853E061E170E069
:1012F000950186E896E00E94050844E753E06DE01A
:1013000070E095018FE796E00E94050840E653E003
:101310006AE070E0950188E796E00E94050840E5E4
:1013200053E068E070E0950181E796E00E940508CF
:101330004EE453E061E070E095018AE696E00E9499
:1013400005086BE976E0C5010E9463086EEB72E068
:10135000CE0187559F4F0E949E359AEAC92E96E08E
:10136000D92E22EAE22E26E0F22E850126E930E08F
:1013700047E050E0BE0167557F4F85E596E00E944B
:101380008A1CCE0187559F4F0E943035C5010E94AF
:10139000430864E976E0C5010E94630864EC72E0EA
:1013A000CE0187559F4F0E949E3526E930E047E0E9
:1013B00050E0BE0167557F4F80E496E00E948A1C92
:1013C000CE0187559F4F0E943035C5010E944308CA
:1013D0006DE876E0C5010E94630864EC72E0CE011E
:1013E00087559F4F0E949E3526E930E047E050E048
:1013F000BE0167557F4F8BE296E00E948A1CCE01AA
:1014000087559F4F0E943035C5010E94430866E80A
:1014100076E0C5010E9463086BEC72E0CE0187554F
:101420009F4F0E949E3526E930E047E050E0BE0124
:1014300067557F4F86E196E00E948A1CCE01875552
:101440009F4F0E943035C5010E9443086FE776E048
:10145000C5010E94630864ED72E0CE0187559F4F7D
:101460000E949E3526E930E047E050E0BE01675516
:101470007F4F81E096E00E948A1CCE0187559F4FE6
:101480000E943035C5010E94430868E776E0C50137
:101490000E94630864EC72E0CE0187559F4F0E9462
:1014A0009E3526E930E047E050E0BE0167557F4FAA
:1014B0008CEE95E00E948A1CCE0187559F4F0E94BA
:1014C0003035C5010E94430861E776E0C5010E94FE
:1014D00063086CED72E0CE0187559F4F0E949E35E8
:1014E00026E930E047E050E0BE0167557F4F87EDC9
:1014F00095E00E948A1CCE0187559F4F0E9430358F
:10150000C5010E9443086AE676E0C5010E946308AF
:1015100064EC72E0CE0187559F4F0E949E3526E90C
:1015200030E047E050E0BE0167557F4F82EC95E028
:101530000E948A1CCE0187559F4F0E943035C501FD
:101540000E94430865E576E0C5010E94980860E4C2
:1015500076E0CE0146960E9498086BE276E0CE01D6
:101560008B960E94980866E176E0CE01805C9F4FE2
:101570000E94980861E076E0CE018B5A9F4F0E944E
:1015800098086CEE75E0CE0186599F4F0E9498082E
:1015900067ED75E0CE0181589F4F0E94980862EC7C
:1015A00075E0CE018C569F4F0E94980888E090E02D
:1015B0009093C0058093BF0580E190E09093BE05B5
:1015C0008093BD0580E591E00E94D9309093BC05E1
:1015D0008093BB0500E010E0B501600F711F083A71
:1015E0001105D1F0CE0187559F4F0E949808809138
:1015F000BB059091BC05800F911F009729F0BE019B
:1016000067557F4F0E949808CE0187559F4F0E94D3
:1016100048080B5E1F4FE0CF8E0107551F4F055145
:101620001109C8010E9448080A151B05C1F76EC0C0
:10163000892B09F06BC0A12CB12C00E010E02091A7
:10164000BF053091C0058091BB059091BC05021784
:10165000130750F48A0D9B1D0E9448080F5F1F4F0F
:1016600095E1A90EB11CEBCF0E94DB3082EC95E036
:101670000E94480887ED95E00E9448088CEE95E0AE
:101680000E94480881E096E00E94480886E196E0C2
:101690000E9448088BE296E00E94480880E496E0A9
:1016A0000E94480885E596E00E9448088AE696E090
:1016B0000E94430881E796E00E94430888E796E08D
:1016C0000E9443088FE796E00E94430886E896E070
:1016D0000E9443088DE896E00E94430884E996E062
:1016E0000E9443088BE996E00E9443088AE19AE051
:1016F0000E94530885E39AE00E94530881E79AE02C
:101700000E94B6138AE69AE00E944308C354DF4F52
:101710000FB6F894DEBF0FBECDBFDF91CF911F9102
:101720000F91FF90EF90DF90CF90BF90AF90089512
:1017300081E090E00C94BC0880E090E00C94BC0840
:10174000682F89E79CE00C94941689E79CE00E943E
:1017500044160895DF92EF92FF920F931F93CF9359
:10176000DF93F82EEB01D42E6F3F8FEF7807A9F0AF
:101770006F2D89E79CE00E94DD168C2F0E94A00B44
:1017800089E79CE00E945E17809181049091820419
:10179000009729F00E94082A02C0C0E0D0E04D2D39
:1017A0006F2D89E79CE00E945B170D2D10E089E703
:1017B0009CE00E943C16081719071CF464EE72E0C6
:1017C00009C089E79CE00E943C168017910734F419
:1017D00061E073E08FEF9AE00E94C611F0928404FA
:1017E000C093850436E8E32E34E0F32EC0E0D0E069
:1017F000C017D10784F042E04D0D24E834E067E7DC
:101800008FEF9AE0DF91CF911F910F91FF90EF90B2
:10181000DF900C947B1189E79CE00E943C16892B99
:1018200051F30E94A50BF70181937F012196E0CF30
:101830000F931F93CF93DF93162FEA01863769F139
:10184000D0F48B3609F443C178F4893609F0F5C237
:1018500060EF8FEF9AE00E94CA116AE68FEF9AE07C
:101860000E94CA11CAECF7C18D3609F494C18F36B3
:1018700009F40DC1E2C2823A09F4F1C138F48837A3
:1018800009F4D4C08A3709F4E9C0D7C2833A09F40D
:1018900023C2843A09F488C2D0C28981982F9871F2
:1018A00085FF03C06DE173E052C08881983061F11B
:1018B00048F49111C2C2682F89E79CE00E94DD16AE
:1018C00002E007C0903109F43CC0983109F46BC0C4
:1018D000B4C2011768F4FE01E00FF11D918180810F
:1018E00020E8929F801911240E94A00B0E5FF1CF77
:1018F00089E79CE00E945E1786E490E0DF91CF913B
:101900001F910F910C94082A4A816B81163069F45B
:1019100030E8639FB0011124640F711D9D814C81DB
:1019200050E8959F4019112406C090E8699F40191E
:1019300011246FEF7FEFDF91CF911F910F910C94E6
:10194000AA0BE0910602E73054F06DE373E08FEFED
:101950009AE0DF91CF911F910F910C94C6119A815B
:101960002B81F0E8663061F42F9F90011124290F3C
:10197000311D4D819C8150E8459F9019112405C06F
:101980002F9F901911242FEF3FEFEF5FE093060296
:1019900044E0E402F0011124EC55FB4F80833283D4
:1019A000218393834AC250910602151634F440E015
:1019B000252F332727FD30950EC08FEF8093060229
:1019C0003CC2EE0FFF1FEE0FFF1FEC55FB4F908147
:1019D000981719F14F5FE42FF0E02E173F078CF7AF
:1019E00040E01BC04830C0F4DF01AA0FBB1FAA0FA4
:1019F000BB1FA855BB4F8C91EE0FFF1FEE0FFF1FB3
:101A0000EC55FB4F808311968D919C911297928398
:101A1000818313968C9183834F5FE42FF0E02E1720
:101A20003F0704F751505093060207C2288189816D
:101A300050E8859FC0011124820F911D009721F06D
:101A40009093820480938104809183048111F5C175
:101A5000DF91CF911F910F910C942D07623008F404
:101A6000ECC128818981E0E88E9FC0011124820F9A
:101A7000911D90930802809307020A9708F0DDC138
:101A80008AE090E09093080280930702D6C162300A
:101A900008F4D3C1698170E0123091F08A81F0E8D6
:101AA0008F9FC0011124682B792B133049F08B8153
:101AB00090E090E4899F902D88271124682B792B42
:101AC0008881DF91CF911F910F910C94330260EFC9
:101AD0008FEF9AE00E94CA116CE68FEF9AE00E94A5
:101AE000CA11CEEF8CEC8C0F803158F462E08FEF8E
:101AF0009AE00E94CA116AE08FEF9AE00E94CA1130
:101B000002C0CC3020F086ED8C0F833050F463E0BF
:101B10008FEF9AE00E94CA1168E08FEF9AE00E946E
:101B2000CA11C43450F464E08FEF9AE00E94CA11E5
:101B30006EE08FEF9AE00E94CA118EEE8C0F823019
:101B400050F466E08FEF9AE00E94CA1161E08FEFD7
:101B50009AE00E94CA116FE78FEF9AE00E94CA11C3
:101B6000CF5FC43469F1C43408F0BCCF60E08FEFBC
:101B70009AE00E94CA1161E08FEF9AE00E94CA11B8
:101B800061E08FEF9AE00E94CA1161E08FEF9AE066
:101B90000E94CA11A7CF662309F44FC1C88160EF24
:101BA0008FEF9AE00E94CA116EE68FEF9AE00E94D2
:101BB000CA116C2F8FEF9AE00E94CA11C63448F008
:101BC00067EF8FEF9AE0DF91CF911F910F910C9407
:101BD000CA11D0E0FE01EF59FA4F60818FEF9AE011
:101BE0000E94CA11CC0FDD1F8E0104531B4FF80158
:101BF00060816F778FEF9AE00E94CA11F8016081CF
:101C00007181CB018078892B49F0660F672F661FA1
:101C1000770B6F778FEF9AE00E94CA11C453DB4FA6
:101C200068817981CB018827907C892B49F2770FD5
:101C3000660B770F762F661F6F778FEF9AE00E9403
:101C4000CA11BECF6C2F8FEF9AE00E94CA11CF5FEE
:101C5000C03109F4B5CFC031A8F36FE7F4CF888164
:101C60008230A9F078F4813071F50C8110E02B817D
:101C700030E04A8150E0698170E084E69AE00E9499
:101C80006420DBC0833089F08430C9F01CC02B8114
:101C900030E04A8150E0698170E084E69AE0DF91AB
:101CA000CF911F910F910C948320698170E084E69D
:101CB0009AE0DF91CF911F910F910C94B81E61E0D3
:101CC0008981811101C060E084E69AE0DF91CF91C3
:101CD0001F910F910C94D41E888190E0FC013197E4
:101CE000E930F10508F0A9C0EE58FF4F0C94DB393C
:101CF000698170E08AE19AE0DF91CF911F910F91A5
:101D00000C948B194A8150E0698170E08AE19AE075
:101D1000DF91CF911F910F910C94B8194A8150E037
:101D2000698170E08AE19AE0DF91CF911F910F9174
:101D30000C949D19698170E08AE19AE0DF91CF915E
:101D40001F910F910C948319698170E08AE19AE0E8
:101D5000DF91CF911F910F910C948719698170E0E9
:101D60008AE19AE0DF91CF911F910F910C94251C8D
:101D700061E08981811101C060E08AE19AE0DF9130
:101D8000CF911F910F910C94AE1A4A8150E061E0FF
:101D90008981811101C060E08AE19AE0DF91CF91F1
:101DA0001F910F910C94B71A8881833031F170F430
:101DB0008130D1F0823009F040C0698170E080E468
:101DC00096E00E94681E80E496E031C0853039F1CB
:101DD000E8F0863091F5698170E087ED95E00E942A
:101DE000681E87ED95E023C0698170E085E596E087
:101DF0000E94681E85E596E01AC0698170E086E160
:101E000096E00E94681E86E196E011C0698170E04C
:101E100081E096E00E94681E81E096E008C069813A
:101E200070E08CEE95E00E94681E8CEE95E0DF91EC
:101E3000CF911F910F910C943B1DDF91CF911F917A
:101E40000F9108958F929F92AF92BF92CF92DF929F
:101E5000EF92FF920F931F93CF93DF930E9438036B
:101E60008FEF9AE00E94BB10892B29F08FEF9AE048
:101E70000E94EB12F5CF0E94B1296093C8047093C1
:101E8000C9048093CA049093CB04C090C404D0903A
:101E9000C504E090C604F090C70440910702509139
:101EA00008024A01A12CB12C8B019C010C191D09BF
:101EB0002E093F0980169106A206B30608F04CC011
:101EC000D501C4018C0D9D1DAE1DBF1D8093C404A2
:101ED0009093C504A093C604B093C704C1E6D5E0AF
:101EE0001AEC1031C0F488818230A9F42091B90530
:101EF0003091BA05012E02C0359527950A94E2F774
:101F000020FF09C0812F0E94752AAC01612F8FEF3D
:101F10009AE00E9434111F5F2196103111F78091D1
:101F2000060287FD19C0C0E0EC2FF0E080910602A8
:101F3000992787FD90958E179F0774F0EE0FFF1F6E
:101F4000EE0FFF1FEC55FB4F618172814381808151
:101F50000E94AA0BCF5FE8CFDF91CF911F910F9125
:101F6000FF90EF90DF90CF90BF90AF909F908F90B9
:101F700008950F931F93CF93DF93EC018B0188811A
:101F80009981DC01ED91FC916F770190F081E02D5A
:101F9000099588819981DC01ED91FC91B801660F6A
:101FA000672F661F770B6F770190F081E02DDF912F
:101FB000CF911F910F910994DC018D919C91DC01CF
:101FC000ED91FC910190F081E02D60EF0994DC012E
:101FD0008D919C91DC01ED91FC910190F081E02DBF
:101FE00067EF0994CF93DF93EC0188819981DC013D
:101FF000ED91FC910190F081E02D69EF09958881C8
:102000009981DC01ED91FC910190F081E02D62E07D
:10201000099588819981DC01ED91FC910190F08115
:10202000E02D65E0DF91CF9109941F93CF93DF936B
:10203000EC018A818823D9F1CE010E94DC0F8881CE
:102040009981DC01ED91FC910190F081E02D69E72F
:10205000099588819981DC01ED91FC91AB81BC816E
:102060000190F081E02D6C91099588819981DC01C6
:10207000ED91FC91AB81BC810190F081E02D119636
:102080006C91099512E08A81181758F4EB81FC8154
:10209000E10FF11D608170E0CE010E94B90F1F5F5A
:1020A000F2CFCE01DF91CF911F910C94E70FDF911A
:1020B000CF911F910895CF92DF92EF92FF920F93ED
:1020C0001F93CF93DF938C01EB01C42ED22E69EBCB
:1020D00072E0CE010E94403C7C016FE270E0CE01D4
:1020E0000E94353C009739F46CE570E0CE010E9407
:1020F000353C009711F0EC012196E114F10451F404
:10210000FE0101900020E9F7EC1BEF5FD801129669
:10211000EC9306C0EC1AFD0AE394E394F801E28222
:10212000D80113968D919C9114970E94973AF801CB
:10213000E280F12CC70101960E94FF39D801149664
:102140009C938E931397FC01EE0DFF1D1082FC01F2
:10215000C082D18212964C9150E042505109BE018A
:102160000296DF91CF911F910F91FF90EF90DF903A
:10217000CF900C94263CDC018D919C91DC01ED917B
:10218000FC910480F581E02D09940F931F93CF9368
:10219000DF93FC012085213749F0293709F049C038
:1021A000DF91CF911F910F910C941510FC01E55D0B
:1021B000FE4F0190F081E02D309709F450C0DC0112
:1021C000A75BBF4F4D915C919A012150310937FDBA
:1021D0009A01B90175956795062F40E050E020E01F
:1021E00030E04E5F5F4F2017A0F4EC01C40FD51F05
:1021F0001F81DC01A20FB31F18961C931897C88586
:10220000D0E8CD9F1019112418961C932F5F3F4FD3
:10221000E8CFDC01A60FB11D17962C91179722234A
:1022200011F018961C920896DF91CF911F910F9193
:102230000994FC01E35DFE4F0190F081E02D3097A1
:1022400071F0AC01475F5F4FDC01A75BBF4F6C9142
:102250006150822FDF91CF911F910F910994DF91EF
:10226000CF911F910F9108950F931F93CF93DF93F9
:10227000EC018A0188819981DC01ED91FC916F70FC
:10228000606E0190F081E02D0995B801CE01DF91DB
:10229000CF911F910F910C94B90F0F931F93CF9370
:1022A000DF93EC018A0188819981DC01ED91FC9139
:1022B0006F7060690190F081E02D099588819981A6
:1022C000DC01ED91FC91602F6F770190F081E02DA2
:1022D000099588819981DC01ED91FC91B801660F27
:1022E000672F661F770B0190F081E02DDF91CF9172
:1022F0001F910F910994CF92DF92EF92FF920F936B
:102300001F93CF93DF9300D01F92CDB7DEB78C0120
:10231000F42E2A833B8369830E94DC0FD8018D91C0
:102320009C91DC01ED91FC910190F081E02D69819F
:1023300009952A81E22EC22E3B81D32E8C2D8E1937
:102340008F1540F4F60161916F0170E0C8010E94A1
:10235000B90FF4CFC8010F900F900F90DF91CF917C
:102360001F910F91FF90EF90DF90CF900C94E70FAB
:102370009A01613751F4FA0101900020E9F7319791
:10238000E41BF50B4E2F0C947B110895AB0161E714
:102390000C94B811DC018D919C91DC01ED91FC91C4
:1023A0000190F081E02D0994603DC1F028F460397E
:1023B00069F0603C79F00895643FA1F0653FB1F0A9
:1023C000603EC9F4FC01E35EFE4F13C0FC01E15E18
:1023D000FE4F0FC0FC01EF5DFE4F0BC0FC01ED5D39
:1023E000FE4F07C0FC01EB5DFE4F03C0FC01E95D41
:1023F000FE4F5183408308956F3F29F4FC01E75D50
:10240000FE4F518340830895835D9E4FFC015183AD
:1024100040830895FC0115821682178280E090E0C7
:10242000DF01A80FB91F18961C9201968034910500
:10243000B9F7DF01A85BBF4F1C9211961D921C9249
:10244000E75DFE4F0190F081E02D309709F009948F
:102450000895FC01E15DFE4F1082FC01128214829E
:1024600013820C940A12CF93DF93EC01FC01E85B1A
:10247000FF4F80818823A1F0673F31F41082CE01A5
:10248000DF91CF910C94C510FE01E75BFF4F808177
:102490009181C80FD91F688701969183808398C066
:1024A0008D81882309F452C067FD50C081508D830F
:1024B000FE01E80FF11D608781118AC08E8188239B
:1024C00009F486C0803DA1F140F4803981F0803C60
:1024D000D9F5FE01EF5DFE4F2EC0843FC9F0853F68
:1024E000D9F0803E89F5FE01E35EFE4F03C0FE0198
:1024F000E15EFE4F0190F081E02D309729F1888553
:10250000698570E090E8899F600D711D11241AC0E3
:10251000FE01EB5DFE4F03C0FE01E95DFE4F019041
:10252000F081E02D309781F0688570E089850BC0DF
:10253000FE01ED5DFE4F0190F081E02D309721F01E
:10254000688570E08F8109951E8242C0862F603FAA
:1025500028F4807F90E06F706F8301C090E0803F2F
:10256000910549F17CF4803C910509F124F480390E
:102570009105D9F02DC0803D9105C9F0803E9105AF
:10258000A1F026C0893F9105E9F03CF49C01245F4D
:1025900031092230310548F01BC08F3F9105C1F44D
:1025A000CE01DF91CF910C940A1292E001C091E02C
:1025B0009D838E830DC081E08083C75BDF4F1982CE
:1025C000188206C08FEF9AE0DF91CF910C94F20F42
:1025D000DF91CF910895CF93DF93EC0188819981AA
:1025E000DC01ED91FC910680F781E02D09958F3F8C
:1025F000BFEF9B0731F0682FCE01DF91CF910C9494
:102600003312DF91CF9108957F928F929F92AF9274
:10261000BF92CF92DF92EF92FF920F931F93CF93CF
:10262000DF93762EEA01680110E0EE24D7FCE094F7
:10263000FE2C4901AA2497FCA094BA2C212F30E04B
:102640002C173D0794F4C701B6010E94E02961E010
:10265000872D0E94ED2BC501B4010E94E02960E0A6
:10266000872D0E94ED2B1F5FE9CFDF91CF911F9146
:102670000F91FF90EF90DF90CF90BF90AF909F9021
:102680008F907F9008950F931F93CF93DF93EC016A
:10269000FC01E15DFE4F8081811126C061E08DE08B
:1026A0000E94B42B02ED10E028E230E042E050E05E
:1026B0006DE0CE010E9404136AEF70E080E090E0CC
:1026C0000E94E02928E230E045E050E06DE0CE01D4
:1026D0000E9404136DE770E080E090E0DF91CF91FD
:1026E0001F910F910C94E029DF91CF911F910F91D1
:1026F0000895CF93DF93EC0126E082E49DE00E94F1
:102700005E2D82E49DE099838883CE010E9443136D
:10271000CE010E94F20FCE01DF91CF910C941510E3
:102720008FEF9AE00C9429120F9300E020E040E034
:1027300060E08FE29CE00E94AE300F910895FC01B2
:1027400081E08083118213821282158214829FEFAE
:1027500096831782118610868287138692E094876B
:10276000858716861786108A118A0895CF93DF937E
:10277000EC0188859985009711F00E94973A8E8127
:1027800087FD05C060E0DF91CF910C94B42BDF9101
:10279000CF910895CF93DF93EC018E8187FD07C021
:1027A00061E00E94B42B60E08E810E94ED2B81E0FD
:1027B0008983DF91CF910895EF92FF920F931F933A
:1027C000CF93DF93EC017B0188859985009711F009
:1027D0000E94973A9D858A85981303C083E090E014
:1027E00002C084E090E08E9D80018F9D100D9E9D23
:1027F000100D11241D830C83C8010E94FF39998795
:102800008887009741F0A80160E070E00E94183CC2
:10281000FB82EA8204C01D821C821B821A82DF9125
:10282000CF911F910F91FF90EF900895FC0121E04F
:1028300095858285981320E0CB0136E096958795A3
:102840003A95E1F7482F43704587CB0154E09695C0
:1028500087955A95E1F7382F33703287CB019695DB
:1028600087959695879583708387862F8370848755
:1028700081E06F3F710511F008F080E08083808572
:102880009185892B51F091E0431390E0921729F044
:1028900062817381CF010C94DC130895CF92DF9293
:1028A000EF92FF920F931F93CF93DF93CDB7DEB7D5
:1028B00029970FB6F894DEBF0FBECDBF8C01DC01A7
:1028C00018968D919C911997892B09F49AC00E94B2
:1028D000BD29F801C684D784E088F1886C197D0988
:1028E0008E099F09623371058105910580F3F89483
:1028F000848195819A838983A085B1857D01EFEFDD
:10290000EE1AFE0A8C918987D8019C9152960D90FF
:10291000BC91A02DF8018489992309F42EC09C91C3
:10292000982B98879C91809589238F838F818E83A4
:1029300088E08D8358856F8149853D812E8189810D
:102940009A81F7015C9347FD252F3A952C93262F0A
:1029500039F0441F00C000006C93000000C0F2CFAB
:1029600038E041916C930000019761F7F801B38B57
:10297000A28B49873D832E8338C09C91982B9887E2
:102980009C91809589238F838F818C8388E08B83B2
:1029900058856F8149853B812C8189819A81F70116
:1029A0005C9347FD252F00C000C02C9300C000C0E1
:1029B00000C000C000C06C930000262F3A9541F083
:1029C000441F000000C000C000C000C000C0E8CF2D
:1029D00038E0419100C06C9300C0019709F7F801FD
:1029E000B38BA28B49873B832C839A83898378940A
:1029F0000E94BD29D8011E966D937D938D939C9363
:102A0000519729960FB6F894DEBF0FBECDBFDF9168
:102A1000CF911F910F91FF90EF90DF90CF9008958D
:102A20001F93CF93DF93EC01162F8981882331F018
:102A30008E8187FD03C060E00E94B42B1E838981D4
:102A4000882341F061E0812F0E94B42B60E0812F48
:102A50000E94ED2B812F90E0FC01EC59FD4FE49199
:102A6000F0E0EE0FFF1FEC53FD4F259134913B8BAF
:102A70002A8BFC01E25EFD4F84918C8BDF91CF911C
:102A80001F910895EF92FF920F931F93CF93DF93BF
:102A90001F92CDB7DEB77C018B01FC01118217823A
:102AA0001186108616861786108A118AB901498305
:102AB0000E941614B801C7010E94DC134981642FDB
:102AC000C7010F90DF91CF911F910F91FF90EF9071
:102AD0000C9410150F931F93CF93DF93DC01129684
:102AE0008D919C9113976817790708F042C017964B
:102AF0008C911797882361F0489FA0011124452FDE
:102B0000289F90011124232F089F80011124012F59
:102B10001D963C911D971A965C911A9718968D9167
:102B20009C911997FB01351307C0EE0FFF1FE60FAD
:102B3000F71FE80FF91F0AC0EE0FFF1FEE0FFF1F70
:102B4000E80FF91FEF01C30FD11D18821A968C915F
:102B50001A97EF01C80FD11D48831B968C911B97C4
:102B6000EF01C80FD11D28831C968C91E80FF11D31
:102B70000083DF91CF911F910F9108951F920F92C3
:102B80000FB60F9211240BB60F922F933F934F93D2
:102B90005F936F937F938F939F93AF93BF93EF93C5
:102BA000FF93E091770CF091780C309709F451C0C5
:102BB000868DA685B785958581FF04C08C91892374
:102BC00029F447C08C91892309F043C0A389B489B3
:102BD0009C918589809589238C9386899789019713
:102BE000F1F7208D318DA685B785758558E040E0D9
:102BF000C9010197F1F7842F90E095958795482FAB
:102C00006C91672309F04068515091F7868D81FDE2
:102C100040958091360C90E001968F739927209112
:102C2000350C281749F0A091360CB0E0A95CB34FE1
:102C30004C938093360C03C0868D8160868F828D85
:102C4000938D0197F1F7A389B4898C919589892B8C
:102C50008C93FF91EF91BF91AF919F918F917F9155
:102C60006F915F914F913F912F910F900BBE0F90FD
:102C70000FBE0F901F9018958091A90C90E02091A5
:102C8000AA0C821B910908952091AA0C8091A90C8D
:102C9000281750F4E22FF0E0E555F34F808190E0E3
:102CA0002F5F2093AA0C08958FEF9FEF0895E09176
:102CB000AA0C8091A90CE81730F4F0E0E555F34F29
:102CC000808190E008958FEF9FEF08950895CF924F
:102CD000DF92EF92FF920F931F93CF93DF937C01CC
:102CE000CB018A012091850C222389F0EB016B0135
:102CF000C40ED51ECC15DD0569F06991D701ED91A3
:102D0000FC910190F081E02DC7010995F3CF642F6C
:102D10000E942218C801DF91CF911F910F91FF905F
:102D2000EF90DF90CF900895CF93DF931F92CDB7B0
:102D3000DEB769832091850C2223D1F02091860C87
:102D4000203240F021E030E0FC013383228380E038
:102D500090E015C08091870CE82FF0E0E857F34F22
:102D6000998190838F5F8093870C8093860C05C038
:102D700061E0CE0101960E94221881E090E00F9060
:102D8000DF91CF910895FC011382128248EE53E047
:102D900060E070E0448355836683778382E194E04A
:102DA0009183808308951092AA0C1092A90C10921E
:102DB000870C1092860C0C94651781E08093850C2B
:102DC0006093A80C1092870C1092860C08950F93B4
:102DD000062F21E04091860C68E87CE08091A80CE9
:102DE0000E94CB171092870C1092860C1092850CC3
:102DF0000F9108958F929F92AF92BF92CF92DF92E0
:102E0000EF92FF920F931F93CF93DF93EC01F62E77
:102E1000D42E48015901EE2019F10E94DD161E2D15
:102E2000143008F013E01150B8F0E881F98128E07F
:102E3000129FB0011124A501940104C05695479535
:102E4000379527956A95D2F7CA01B9010190F081AB
:102E5000E02DCE010995E7CF60E0CE010E94E71694
:102E60004D2D413208F040E22C2D6BEA7CE08F2D95
:102E70000E9483171092AA0C8093A90CDF91CF9126
:102E80001F910F91FF90EF90DF90CF90BF90AF9088
:102E90009F908F900895CF92EF920F931F93C22E21
:102EA000E12C00E010E098010E94FA161F910F91AA
:102EB000EF90CF90089521E00C944B1761E00C94B3
:102EC000E71689E79CE00C94C3161092380D81E058
:102ED0008093360D1092350D61E084E10E94ED2B58
:102EE00061E085E10E94ED2BE9EBF0E080818E7FCF
:102EF000808380818D7F808388E48093B80085E41F
:102F00008093BC000895413208F043C09091380D81
:102F10009111FCCF91E09093380D2093360D2FEF57
:102F20002093CB0C1092100D240F20930F0D909333
:102F3000370D9091370D880F892B8093370D809135
:102F4000350D813061F41092350D8091370D8093ED
:102F5000BB008091BC0083FDF8CF85EC01C085EEFD
:102F60008093BC008091380D8130E1F38091100D89
:102F7000841710F44091100D21E13DE0FB01D901CF
:102F80008A2F821B841718F48D918193F9CF842F97
:102F9000089580E008950F93413208F04AC090915F
:102FA000380D9111FCCF92E09093380D0093360DBF
:102FB0009FEF9093CB0C1092100D40930F0DFB01DF
:102FC00061E17DE0DB019A2F961B941718F4919133
:102FD0009D93F9CF1092370D9091370D880F892B63
:102FE0008093370D8091350D813061F41092350D4D
:102FF0008091370D8093BB008091BC0083FDF8CF9A
:1030000085EC01C085EE8093BC00222321F08091E5
:10301000380D8230E1F38091CB0C8F3F61F08091CD
:10302000CB0C803251F08091CB0C803341F483E0A3
:1030300007C081E005C080E003C082E001C084E0F9
:103040000F910895613298F42091380D243089F45D
:103050006093ED0CFC018FEE9CE0DC012A2F281B15
:10306000261718F421912D93F9CF80E0089581E07F
:10307000089582E0089585ED8093BC008091BC00A6
:1030800084FDFCCF1092380D089585EC8093BC0030
:103090001092380D08951F920F920FB60F921124BF
:1030A0000BB60F922F933F934F935F936F937F9342
:1030B0008F939F93AF93BF93EF93FF938091B9004A
:1030C000887F803609F49EC078F5883209F45DC0A7
:1030D00090F4803109F456C038F4882309F4F5C01F
:1030E000883009F44FC0F5C0883109F44EC08032F1
:1030F00009F45FC0EEC0803409F46AC058F480332C
:1031000009F457C0883309F0E4C08093CB0C0E94C7
:103110004518DFC0803509F44FC0883509F45DC01B
:10312000883409F0D6C0D3C0883909F4C4C0A8F4E3
:10313000883709F467C038F4883609F463C08037EB
:1031400009F460C0C6C0883809F4B5C0803909F4F4
:103150005FC0803809F0BDC05BC0803B09F483C00C
:1031600038F4803A09F466C0883A09F47CC0B1C0EA
:10317000803C09F4A4C0883C09F4A1C0883B09F450
:1031800087C0A7C08091370D10C09091100D80911D
:103190000F0D981770F5E091100D81E08E0F809360
:1031A000100DF0E0EF5EF24F80818093BB0085EC64
:1031B00083C08093CB0C8BC0E091100D81E08E0F0B
:1031C0008093100D8091BB00F0E0EF5EF24F8083A2
:1031D0009091100D80910F0D6BC0E091100D81E06A
:1031E0008E0F8093100D8091BB00F0E0EF5EF24FE8
:1031F00080838091360D81116AC081E08093350D06
:1032000084EA5EC083E08093380D1092CC0CCFCF5F
:103210008091CC0C803208F04EC0E091CC0C81E063
:103220008E0F8093CC0C8091BB00F0E0E353F34F02
:103230008083BDCF0E9445188091CC0C803230F441
:10324000E091CC0CF0E0E353F34F10826091CC0C92
:1032500070E0E091310DF091320D8DEC9CE009951C
:103260001092CC0C36C084E08093380D1092EE0C96
:103270001092ED0CE091330DF091340D0995809191
:10328000ED0C811105C081E08093ED0C1092EF0CE4
:10329000E091EE0C81E08E0F8093EE0CF0E0E151B6
:1032A000F34F80818093BB009091EE0C8091ED0CE8
:1032B000981708F47CCF85E88093BC000AC085ECA1
:1032C0008093BC001092380D04C01092CB0C0E9469
:1032D0003B18FF91EF91BF91AF919F918F917F919B
:1032E0006F915F914F913F912F910F900BBE0F9077
:1032F0000FBE0F901F901895FC01862F608371837D
:1033000060E00C94B42BFC01738362830895FC018C
:103310007583648308959B012B50310925313E4408
:1033200040F420ED37E040E050E0FC0180810C9457
:103330008F31FC0180810C94BB349B012B503109EF
:1033400025313E4488F4E8EEF3E04E9F90014F9F14
:10335000300D5E9F300D1124442737FD4095542FCA
:10336000FC0180810C948F31FC0180810C94BB3472
:103370000F931F93CF93DF93EC018A011616170664
:1033800034F4683071052CF067E070E002C061E051
:1033900070E0882777FD8095982F0E94D9360E948B
:1033A000143720E030E040E850E40E94D5350E9418
:1033B000A636882777FD8095982F0E94D9369B01E5
:1033C000AC0160E070E080E090E40E9443380E942D
:1033D000A636F8013197EC30F10508F08EC0E558BB
:1033E000FF4F0C94DB39882777FD8095982F0E943A
:1033F000D93620E030ED42E054E478C0882777FDEC
:103400008095982F0E94D9362EEA37E94AE054E495
:103410006DC0882777FD8095982F0E94D9362FE1BF
:1034200035ED42E154E462C0882777FD8095982FFE
:103430000E94D93620E030E94BE154E457C0882798
:1034400077FD8095982F0E94D93624EA30ED44E22A
:1034500054E44CC0882777FD8095982F0E94D93678
:1034600021E73DE94EE254E441C0882777FD80958D
:10347000982F0E94D9362CE53FEF48E354E436C03C
:10348000882777FD8095982F0E94D9362CE53FEF4D
:1034900043E454E42BC0882777FD8095982F0E9441
:1034A000D9362AE037EA4FE454E420C040E753E03D
:1034B000469F9001479F300D569F300D1124B90152
:1034C00019C0882777FD8095982F0E94D9362FE163
:1034D00035E149E654E40AC0882777FD8095982FA6
:1034E0000E94D93628E431EF46E754E40E94E037E1
:1034F0000E94A636CE010E948B196A817B818827A3
:1035000077FD8095982F0E94E0298881DF91CF91E7
:103510001F910F910C94BB34EF92FF920F931F9366
:10352000CF93DF937C01FB0100811181C481D581A0
:10353000CC0FDD1FC00FD11F0C171D0741F0F80184
:10354000619171918F01C7010E948B19F5CFDF91B5
:10355000CF911F910F91FF90EF900895662311F086
:1035600061E001C060E0FC0180810C94ED2BFF92D2
:103570000F931F93CF93DF93EC01F62E8A010E94E5
:10358000AE1A88EE93E0089FB001099F700D189F56
:10359000700D1124882777FD8095982F0E94E029CF
:1035A00061E06F25CE01DF91CF911F910F91FF90C8
:1035B0000C94AE1ACF93DF93EC011982188288E045
:1035C00090E09B838A831D821C8280E190E00E94B0
:1035D000D93099838883DF91CF910895CF92DF927C
:1035E000EF92FF920F931F93CF93DF93EC017B0138
:1035F0008C819D818C010F5F1F4F8017910708F010
:1036000042C04A815B814017510730F5099648173F
:10361000590710F5C880D9809B838A83880F991F2A
:103620000E94D93088839983FC01D60120E030E0E4
:103630004C815D812417350760F4309729F04D9156
:103640005C911197518340832F5F3F4F32961296C2
:10365000EFCFC6010E94DB308C819D819C01220F3F
:10366000331F8017910790F4E881F981E20FF31F6F
:10367000309729F0D7014D915C9151834083019699
:103680002E5F3F4FEECF0817190710F41D830C83F0
:10369000DF91CF911F910F91FF90EF90DF90CF902E
:1036A00008958F929F92AF92BF92CF92DF92EF9246
:1036B000FF920F931F93CF93DF9300D0CDB7DEB768
:1036C0006C01962E872E2CE231E0FC01338322839D
:1036D00024E630E0358324837C01F6E0EF0EF11C14
:1036E000BE016F5F7F4FC7010E94DA1A56018DE05D
:1036F000A80EB11CBE016F5F7F4FC5010E94DA1A90
:1037000086010C5E1F4FBE016F5F7F4FC8010E9494
:10371000DA1AF6019082818260E0892D0E94B42B32
:103720006BE0C62E62E0D62EDA82C982BE016F5FE0
:103730007F4FC7010E94EE1A1A821982BE016F5F85
:103740007F4FC7010E94EE1ADA82C982BE016F5F05
:103750007F4FC7010E94EE1A1A821982BE016F5F65
:103760007F4FC7010E94EE1A7BED872E73E0972EE4
:103770009A828982BE016F5F7F4FC7010E94EE1A55
:103780001A821982BE016F5F7F4FC7010E94EE1A35
:103790009A828982BE016F5F7F4FC7010E94EE1A35
:1037A000DA82C982BE016F5F7F4FC5010E94EE1AA7
:1037B000DA82C982BE016F5F7F4FC8010E94EE1A94
:1037C0001A821982BE016F5F7F4FC8010E94EE1AF4
:1037D00083E992E09A838983BE016F5F7F4FC801BE
:1037E0000E94EE1A1A821982BE016F5F7F4FC801D4
:1037F0000E94EE1A8FE093E09A838983BE016F5F87
:103800007F4FC8010E94EE1A1A821982BE016F5FB3
:103810007F4FC8010E94EE1A86E194E09A83898363
:10382000BE016F5F7F4FC8010E94EE1A0F900F908C
:10383000DF91CF911F910F91FF90EF90DF90CF908C
:10384000BF90AF909F908F9008950F931F93CF9349
:10385000DF93CDB7DEB727970FB6F894DEBF0FBE64
:10386000CDBF8C016130710549F06230710551F0B6
:10387000672BC9F4BC016A5F7F4F07C0BC01635F5F
:103880007F4F03C0BC016C5E7F4FCE0101960E944A
:103890006308BE016F5F7F4FC8010E948C1ACE0182
:1038A00001960E94430827960FB6F894DEBF0FBE1C
:1038B000CDBFDF91CF911F910F9108950F931F936B
:1038C000CF93DF93EC01088119817B836A83CB015D
:1038D000880F991F0E94D93088839983FC01D801F1
:1038E00020E030E04C815D812417350760F430978B
:1038F00029F04D915C911197518340832F5F3F4F89
:1039000032961296EFCFC801DF91CF911F910F91A0
:103910000C94DB304F925F926F927F928F929F92C6
:10392000AF92BF92CF92DF92EF92FF920F931F93CD
:10393000CF93DF93EC015B014A0129016CE373E053
:103940000E949E353E018EE0680E711C1F861E8609
:1039500088E090E0998B888B1B8A1A8A80E190E03E
:103960000E94D9309F878E87B501CE010E94B43561
:103970009F828E82598648860615170509F466C00F
:10398000D80114966D917C9115978889998986172D
:10399000970718F4C3010E945E1C8A899B89F8016D
:1039A000248135818217930708F49C0180E090E020
:1039B0008217930791F0AC01440F551FD801ED9188
:1039C000FC91E40FF51F60817181EE85FF85E40FA6
:1039D000F51F718360830196EBCF8A899B89F8017B
:1039E000248135818217930768F0D80114968D9150
:1039F0009C9115972A893B898217930738F59B8BF1
:103A00008A8B24C09C01220F331FD80114964D913C
:103A10005C9115978417950740F7F801A081B18153
:103A2000A20FB31FEE85FF85E20FF31F309721F041
:103A30004D915C91518340834A895B894F5F5F4F11
:103A40005B8B4A8B01962E5F3F4FDFCFFB86EA866A
:103A5000DD86CC86DF91CF911F910F91FF90EF9083
:103A6000DF90CF90BF90AF909F908F907F906F909E
:103A70005F904F9008950F931F93CF93DF938C0126
:103A8000C1E0D0E040E050E0BE01F80182859385BE
:103A90000E9437212196C930D105A1F74FE050E0AF
:103AA0006AE070E0F80182859385DF91CF911F91E4
:103AB0000F910C9437212F923F924F925F926F9209
:103AC0007F928F929F92AF92BF92CF92DF92EF92AE
:103AD000FF920F931F93CF93DF93CDB7DEB760971D
:103AE0000FB6F894DEBF0FBECDBF8C013B014A017B
:103AF0001986188688E090E09B878A871D861C8639
:103B000080E190E00E94D93099878887D801169685
:103B1000CD90DC901797B1E0CB1AD108F301EE0FEE
:103B2000FF1FF88BEF87A12CB12CD8011C962D908C
:103B30003C901D971E96ED91FC911F978F8598895B
:103B4000E80FF91F408051806C857D857B019FEFD8
:103B5000E91AF90A6E157F05A8F58A859B858E15E9
:103B60009F0548F4675F7F4F8617970720F4CE01C3
:103B700008960E945E1C8C859D8528853985AC0140
:103B8000440F551F240F351F40E050E0F20173E051
:103B9000EE0FFF1F7A95E1F7EA0DFB1DEE0FFF1FF9
:103BA000E20DF31D8E159F0580F4DA01A20FB31FFD
:103BB000109721F0608171816D937C9301964E5F27
:103BC0005F4FF0CFE616F70610F4FD86EC86AFEFF8
:103BD000AA1ABA0AB8E0AB16B10409F0A6CFE1E020
:103BE0008E16910491F4BE01685F7F4FCE0101965D
:103BF0000E94630841E050E0BE016F5F7F4FD80133
:103C00001A968D919C911B972EC0B2E08B16910451
:103C1000D9F0F3E08F16910461F5BE01685F7F4F24
:103C2000CE0101960E94630841E050E0BE016F5F43
:103C30007F4FD8011A968D919C911B970E94B421B9
:103C4000CE0101960E944308BE01685F7F4FCE01FE
:103C500001960E94630842E050E0BE016F5F7F4F13
:103C6000F801828593850E94B421CE0101960E94BD
:103C70004308D80118966D917C911997882777FD94
:103C80008095982F0E94E0296C147D041CF0CC24B0
:103C9000CA94DC2CCE0108960E944308C6016096A7
:103CA0000FB6F894DEBF0FBECDBFDF91CF911F914D
:103CB0000F91FF90EF90DF90CF90BF90AF909F90CB
:103CC0008F907F906F905F904F903F902F900895CE
:103CD000EF92FF920F931F93CF93DF938C017B01A1
:103CE000C0E0D0E0A701BE01C8010E945B1D219683
:103CF0000196C1F7DF91CF911F910F91FF90EF9047
:103D000008950F931F93CF93DF93CDB7DEB76597D9
:103D10000FB6F894DEBF0FBECDBF8C01FC016281EF
:103D2000738122E530E04081CE0101960E94421568
:103D300085E1FE013196D8011D9601900D928A957C
:103D4000E1F7CE0101960E94B613035F1F4FC80131
:103D50000E94CA13C8010E944E1465960FB6F894CB
:103D6000DEBF0FBECDBFDF91CF911F910F910895A0
:103D7000DC0186E0869FF001879FF00D1124EA0F99
:103D8000FB1F80A591A593969C938E93929782A5F5
:103D900093A595969C938E93949784A595A59796B5
:103DA0009C938E9396970895CF92DF92EF92FF9215
:103DB0000F93CF93DF93EC01E12CF12C6C018DE09C
:103DC000C80ED11C6623D9F08A819B81E816F906BA
:103DD0005CF40EA12CA14AA1B701C6010E946A158C
:103DE0008FEFE81AF80AF0CFCE010D96DF91CF9150
:103DF0000F91FF90EF90DF90CF900C944E148A813A
:103E00009B81E816F90684F700E020E040E0B70166
:103E1000C6010E946A158FEFE81AF80AF0CFEF92F8
:103E2000FF920F931F93CF93DF93EC018B016817E1
:103E3000790709F486C0DB0114962D913C91159702
:103E40008A819B818217930718F5E880F9803B836C
:103E50002A83C901880F991F0E94D93088839983CA
:103E6000FC01D70120E030E04C815D81241735074B
:103E700060F4309729F04D915C9111975183408304
:103E80002F5F3F4F32961296EFCFC7010E94DB3073
:103E90008C819D81F801248135818217930708F474
:103EA0009C0180E090E08217930791F0AC01440FF1
:103EB000551FD801ED91FC91E40FF51F60817181D0
:103EC000E881F981E40FF51F718360830196EBCFE0
:103ED0008C819D81F801248135818217930768F0D8
:103EE000D80114968D919C9115972C813D81821754
:103EF000930738F59D838C8324C09C01220F331FC8
:103F0000D80114964D915C9115978417950740F749
:103F1000F801A081B181A20FB31FE881F981E20FFE
:103F2000F31F309721F04D915C91518340834C8178
:103F30005D814F5F5F4F5D834C8301962E5F3F4FE6
:103F4000DFCFCE01DF91CF911F910F91FF90EF90C6
:103F50000895AF92BF92CF92DF92EF92FF920F93AC
:103F60001F93CF93DF93CDB7DEB72E970FB6F8949C
:103F7000DEBF0FBECDBF8C015B016A01FC0182A1D7
:103F800093A19987888784A195A19B878A8786A119
:103F900097A19D878C87AE01485F5F4F63E070E01B
:103FA0007801F6E0EF0EF11C9E012F5F3F4FC70135
:103FB0000E940508C8010D960E949F138CE3EBE058
:103FC000F2E0D801989601900D928A95E1F7F801F8
:103FD000B182A082D382C282148215824EE154E063
:103FE00063E070E09E01225F3F4FCE0101960E9488
:103FF0000508BE016F5F7F4FC7010E940F1FCE01F2
:1040000001960E9443082E960FB6F894DEBF0FBEAD
:10401000CDBFDF91CF911F910F91FF90EF90DF9077
:10402000CF90BF90AF900895AF92BF92CF92DF92A2
:10403000EF92FF920F931F93CF93DF93CDB7DEB72D
:104040002E970FB6F894DEBF0FBECDBF7C016B017B
:10405000B42EA22E488759872A873B870C871D8755
:10406000AE01485F5F4F63E070E09E01225F3F4F0B
:10407000CE0101960E940508BE016F5F7F4FC70108
:1040800006960E940F1FCE0101960E9443088DE004
:10409000E80EF11C2A2D4B2DB601C7010E946A15AE
:1040A000C7010E944E142E960FB6F894DEBF0FBEC5
:1040B000CDBFDF91CF911F910F91FF90EF90DF90D7
:1040C000CF90BF90AF9008950F931F93FB0177FFA0
:1040D00003C0F195E195F109DC0112966D917C9197
:1040E00013976E177F073CF400E010E020E030E00B
:1040F00040E050E003C0BF01615071090E941420EC
:104100001F910F9108958F929F92AF92BF92CF927D
:10411000DF92EF92FF920F931F93CF93DF93CDB770
:10412000DEB72E970FB6F894DEBF0FBECDBF6C0181
:10413000162F942E822E688779874A875B872C8773
:104140003D87AE01485F5F4F63E070E09E01225FF4
:104150003F4FCE0101960E940508BE016F5F7F4F61
:10416000C60106960E940F1FCE0101960E944308C9
:10417000E12CF12CC6010D965C01F6018281938140
:10418000E816F9065CF4082D292D412FB701C50169
:104190000E946A159FEFE91AF90AEFCFC5010E9444
:1041A0004E142E960FB6F894DEBF0FBECDBFDF9132
:1041B000CF911F910F91FF90EF90DF90CF90BF9024
:1041C000AF909F908F9008950F931F93CF93DF939D
:1041D000EC01862F688379835B834A833D832C833C
:1041E0001F830E8361E00E94B42B61E08A810E94EC
:1041F000B42B61E08C81DF91CF911F910F910C94D2
:10420000B42BCF92DF92EF92FF920F931F93CF9335
:10421000DF93EC017B0108E010E0CC24C394D12CA7
:104220000150110960E08C810E94ED2BC601002E27
:1042300002C0880F991F0A94E2F78E219F21892BD3
:1042400011F061E001C060E088810E94ED2B61E027
:104250008C810E94ED2B0115110511F7DF91CF9193
:104260001F910F91FF90EF90DF90CF900895CF9224
:10427000DF92EF92FF920F931F93CF93DF93EC01A6
:104280007B016A0160E08A810E94ED2B01E010E071
:104290008E819F81801791075CF0B701CE010E944B
:1042A0000121B601CE010E9401210F5F1F4FF0CF07
:1042B00060E08A810E94ED2B61E08A81DF91CF91DD
:1042C0001F910F91FF90EF90DF90CF900C94ED2B0A
:1042D000AF92BF92CF92DF92EF92FF920F931F9314
:1042E000CF93DF93EC018B015A01690160E08A8171
:1042F0000E94ED2BEE80FF800E151F0574F460E028
:1043000070E0CE010E94012160E070E0CE010E94C9
:10431000012181E0E81AF108EFCFB501CE010E943A
:104320000121B601CE010E94012101501109101690
:10433000110644F460E070E0CE010E94012160E0CB
:1043400070E0F0CF60E08A810E94ED2B61E08A810D
:10435000DF91CF911F910F91FF90EF90DF90CF9061
:10436000BF90AF900C94ED2BCF92DF92EF92FF9223
:104370000F931F93CF93DF938C016B017A01C0E001
:10438000D0E0CE01880F991FD601ED91FC91E80F86
:10439000F91F208131812196AE01B701C8010E9429
:1043A0006821C830D10569F7DF91CF911F910F9136
:1043B000FF90EF90DF90CF900895CF92DF92EF9231
:1043C000FF92CF93DF93EC016A017B0120E030E0A4
:1043D0004FE753E4C701B6010E94DC37181674F0AA
:1043E00020E030E0A901C701B6010E943A3687FFFC
:1043F0000BC0F7FAF094F7F8F09406C0C12CD12C5A
:104400008FE7E82E83E4F82ECE82DF82E886F986F5
:10441000C701B6010E94A6368C81DF91CF91FF9033
:10442000EF90DF90CF900C949A2ACF93DF93EC011A
:104430006A87662331F060E088810E94ED2B61E09D
:1044400005C061E088810E94ED2B60E08A81DF91E8
:10445000CF910C94ED2BCF92EF92FF920F931F937D
:10446000CF93DF93EC01B801A7010E94DD216C2DF1
:10447000CE01DF91CF911F910F91FF90EF90CF90E0
:104480000C941522EF92FF920F931F93FC017383FC
:1044900062835583448337832683F186E0861183C4
:1044A00000831F910F91FF90EF9008952F923F92FC
:1044B0004F925F926F927F928F929F92AF92BF9234
:1044C000CF92DF92EF92FF920F931F93CF93DF93E0
:1044D000FC0180E793E0DF01EC011D922197E9F7F1
:1044E0008CE390E09183808342E450E053834283E5
:1044F00021E830E03583248369E9462E512C578228
:10450000468251864086338722875587448797871E
:104510008687918B808B538B428B358B248B7DE8E8
:10452000872E912C978A868A918E808E338F228F48
:10453000558F448F978F868F91A380A353A342A357
:1045400035A324A307E810E017A306A311A700A72B
:1045500033A722A755A744A797A786A791AB80ABFF
:1045600053AB42AB35AB24ABA1EBEA2EF12CF7AA4F
:10457000E6AAF1AEE0AE33AF22AF55AF44AF97AF8E
:1045800086AFDF01A05CBF4F11969C938E9312966D
:1045900011965C934E93129611963C932E9312961D
:1045A000C1EEAC2EB12C1196BC92AE921296119621
:1045B000BC92AE92129611963C932E93129611963F
:1045C0005C934E93129611969C938E93149611962B
:1045D0009C938E93129611965C934E93129611961D
:1045E0005C924E92129611965C924E921296119691
:1045F0005C934E93129611969C938E931896DEE7D9
:104600006D2E712C11967C926E92129611965C9280
:104610004E92129611965C924E92129611967C9240
:104620006E921C966FEF70E011967C936E931296CB
:1046300011967C936E931C9611963C932E93129632
:10464000C3ECCC2ED12C1196DC92CE921296119600
:104650007C926E92129611969C938E93169611965A
:104660009C938E93129611965C934E93129611968C
:104670003C932E93129611963C932E93129611967C
:104680003C932E9312964D925C926F01ACE9CA0E48
:10469000D11CC6E6D0E0D601CD93DC936F01B0EA21
:1046A000CB0ED11CA8E12A2E312CD6012D923C92A2
:1046B0006F01B2EACB0ED11CB4E24B2E512CD601C5
:1046C0004D925C926F01A4EACA0ED11CD6014D93A3
:1046D0005C936F01B6EACB0ED11CD6012D933C93AF
:1046E0006F01B8EACB0ED11CD6012D933C936F011C
:1046F000BAEACB0ED11CA9E94A2E512CD6014D9213
:104700005C926F01ACEACA0ED11CD601CD93DC934A
:104710006F01B2EBCB0ED11CD6012D923C926F01F2
:10472000B4EBCB0ED11CB4E24B2E512CD6014D92E2
:104730005C926F01A6EBCA0ED11CD6014D935C931F
:104740006F01B8EBCB0ED11CD6012D933C936F01BA
:10475000BAEBCB0ED11CD6012D933C936F01BCEB71
:10476000CB0ED11CA9E94A2E512CD6014D925C9258
:104770006F01AEEBCA0ED11CD6011196DC93CE931D
:10478000129611969C938E93129611965C934E936B
:1047900012961196BC92AE9212961196BC92AE925F
:1047A000129611967C936E93189611969C938E9305
:1047B000129611965C934E93129611965C924E92BD
:1047C000129611965C924E92129611963C932E93ED
:1047D000129611967C926E92169611969C938E93D9
:1047E000129611965C934E9312961196FC92EE924D
:1047F00012961196FC92EE92129611963C932E937D
:10480000129611967C936E93169611969C938E93A6
:10481000129611965C934E9312961196FC92EE921C
:1048200012961196FC92EE92129611967C936E93CC
:10483000189611969C938E93129611965C934E93B4
:10484000129611965C924E92129611965C924E922E
:10485000129611967C936E93189611969C938E9354
:10486000129611965C934E93129611969C928E928C
:10487000129611969C928E92129611967C936E933C
:10488000189611969C938E93129611965C934E9364
:10489000129611961C930E93129611961C930E93DA
:1048A000129611967C936E93189611969C938E9304
:1048B000129611965C934E93129611963C932E93FA
:1048C000129611963C932E9312961196BC92AE922C
:1048D00012961196BC92AE92129611965C934E93DC
:1048E000129611969C938E93129611969C938E938A
:1048F000129611965C934E93129611963C932E93BA
:10490000129611963C932E93129611963C932E93E9
:1049100012961196FC92EE921296C2E7D0E0119692
:10492000DC93CE93129611969C938E9312961196C9
:104930009C938E93129611965C934E9312961196B9
:104940003C932E93129611963C932E9312961196A9
:104950003C932E9312964D925C926F01D4EACD1A3D
:10496000DEEFDD0AAAE5B0E0E601B983A8836F01B6
:10497000D2EACD1ADEEFDD0AE601998388836F0162
:10498000D0EACD1ADEEFDD0AE601998388836F0154
:10499000DEE9CD1ADEEFDD0AE601598348836F01B7
:1049A000DCE9CD1ADEEFDD0AE601398328836F01E9
:1049B000DAE9CD1ADEEFDD0AE601398328836F01DB
:1049C000D8E9CD1ADEEFDD0AE601398328836F01CD
:1049D000D6E9CD1ADEEFDD0AE601998288826F0101
:1049E000D4E9CD1ADEEFDD0ACEE44C2E512CE601DF
:1049F000598248826F01D2E9CD1ADEEFDD0AE60165
:104A0000998388836F01D0E9CD1ADEEFDD0AE601D4
:104A1000998388836F01DEE8CD1ADEEFDD0AE601B7
:104A2000598348836F01DCE8CD1ADEEFDD0AE60129
:104A3000398328836F01DAE8CD1ADEEFDD0AE6015B
:104A4000398328836F01D8E8CD1ADEEFDD0AE6014D
:104A5000198308836F01D6E8CD1ADEEFDD0AE6017F
:104A6000198308836F01D4E8CD1ADEEFDD0AE60171
:104A7000598348836F01D2E8CD1ADEEFDD0AE601E3
:104A8000998388836F01D0E8CD1ADEEFDD0AE60155
:104A9000998388836F01DEE7CD1ADEEFDD0AE60138
:104AA000598348836F01DCE7CD1ADEEFDD0AE601AA
:104AB000398328836F01DAE7CD1ADEEFDD0AE601DC
:104AC000198308836F01D8E7CD1ADEEFDD0AE6010E
:104AD000198308836F01D6E7CD1ADEEFDD0AE60100
:104AE000398328836F01D4E7CD1ADEEFDD0AE601B2
:104AF000598348836F01D2E7CD1ADEEFDD0AE60164
:104B0000998388836F01D0E7CD1ADEEFDD0AE601D5
:104B1000998388836F01DEE6CD1ADEEFDD0AE601B8
:104B2000598348836F01DCE6CD1ADEEFDD0AE6012A
:104B3000198308836F01DAE6CD1ADEEFDD0AE6019C
:104B4000198308838F0108561E4FE8013983288393
:104B50000E5F1F4FE801398328830E5F1F4FE80166
:104B6000598348830E5F1F4FE801998388830E5F46
:104B70001F4FE801998388830E5F1F4FE801598218
:104B800048820E5F1F4FE801998288820E5F1F4F97
:104B9000E801398328830E5F1F4FE801398328839A
:104BA0000E5F1F4FE801398328830E5F1F4FE80116
:104BB000598348830E5F1F4FE801998388830E5FF6
:104BC0001F4FE801998388830E5F1F4FE801B98367
:104BD000A8830E5F1F4FD9E94D2E512CE801598251
:104BE00048820E5F1F4FE801398328830E5F1F4FF5
:104BF000E801398328830E5F1F4FE801398328833A
:104C00000E5F1F4FE801598348830E5F1F4FE80175
:104C1000998388830E5F1F4FE801998388830E5F15
:104C20001F4FC2E74C2E512CE801598248820E5F7B
:104C30001F4FE801F982E8820E5F1F4FE8013983B8
:104C400028830E5F1F4FE801398328830E5F1F4FB3
:104C5000E801398328830E5F1F4FE8015983488399
:104C60000E5F1F4FE801998388830E5F1F4FE80195
:104C7000998388830E5F1F4FE801598348830E5F35
:104C80001F4FE801B982A8820E5F1F4FE801B98269
:104C9000A8820E5F1F4FE801398328830E5F1F4FE4
:104CA000E801398328830E5F1F4FE8015983488349
:104CB0000E5F1F4FE801998388830E5F1F4FD0E47A
:104CC0004D2E512CE801598248827F01DCE1ED1A1A
:104CD000DEEFFD0A0CE710E0E701198308837F018E
:104CE000DAE1ED1ADEEFFD0AE701B983A8837F015F
:104CF000D8E1ED1ADEEFFD0AE701B983A8837F0151
:104D0000D6E1ED1ADEEFFD0AE701998388837F0182
:104D1000DCE0ED1ADEEFFD0AE701198308838F015D
:104D20000A501E4FE801B983A8830E5F1F4FE801A8
:104D3000B983A8830E5F1F4FE80199838883085FBA
:104D40001F4FE801598248820E5F1F4FE801998387
:104D500088830E5F1F4FE801B983A8830E5F1F4F42
:104D6000E801B983A8830E5F1F4FE8019983888308
:104D70000A5F1F4FE801598248820C5F1F4FE8010C
:104D8000998388830E5F1F4FE801B983A8830E5F64
:104D90001F4FE801B983A8830E5F1F4FE801998375
:104DA0008883065F1F4FE801998388830E5F1F4F3A
:104DB000E801B983A8830E5F1F4FE801B983A88378
:104DC0000E5F1F4FE80199838883045F1F4FE8013E
:104DD000798268820E5F1F4FE80179826882085FDE
:104DE0001F4FE801998388830E5F1F4FE8015983A5
:104DF00048830E5F1F4FC9E9CC2ED12CE801D98220
:104E0000C8820E5F1F4FE801D982C882229639837B
:104E100028832296398328832296598348832296B1
:104E20009983888326961EE3C12ED12CD982C8820D
:104E30002296B983A8832296B983A8832296998360
:104E40008883289602E0802E912C9982888222966F
:104E5000998388832296B983A8832296B983A883ED
:104E60002296998388832696998288822496D9826D
:104E7000C8822296B983A8832296B983A8832296F2
:104E80009983888326969982888224969983888339
:104E90002296B983A8832296B983A883DF01A657F7
:104EA000BD4F11969C938E93169611967C936E939C
:104EB000129611965C924E921296C0E2EC2EF12C54
:104EC0001196FC92EE921296D0E16D2E712C1196F5
:104ED0007C926E92129618E0A12EB12C1196BC9283
:104EE000AE92129604E010E011961C930E93129667
:104EF00011969C928E921296C1E0D0E0CD93DC93F5
:104F00008F0100561D4FACE1B0E0E801B983A883E2
:104F10007F01DEE5ED1ADDEFFD0A02E210E0E701B8
:104F2000198308837F01DCE5ED1ADDEFFD0AC9E492
:104F3000CC2ED12CE701D982C8827F01DAE5ED1AA7
:104F4000DDEFFD0AE701198308838F0108551D4F26
:104F5000DCE9ED2EF12CE801F982E8820E5F1F4FAB
:104F6000C0E2CC2ED12CE801D982C8822296B98227
:104F7000A882229699828882229679836883085F24
:104F80001F4FDFE7CD2ED12CE801D982C8820E5FFA
:104F90001F4FCFE3EC2EF12CE801F982E8820E5F7F
:104FA0001F4FDFE1CD2ED12CE801D982C8820E5FE0
:104FB0001F4FCFE0EC2EF12CE801F982E8820E5F62
:104FC0001F4FD7E0ED2EF12CE801F982E8820E5F49
:104FD0001F4FC3E0EC2EF12CE801F982E8820E5F4E
:104FE0001F4FEE24E394F12CE801F982E8820C5F74
:104FF0001F4FE801398328830E5F1F4FE801598353
:1050000048830E5F1F4FE801998388830E5F1F4F0F
:10501000E80199838883CF0186539D4FEC01598322
:1050200048830296EC01398328830496EC01398386
:1050300028830296EC0159834883029614E2E12EFC
:10504000F12CEC01F982E8820296EC013982288287
:105050000296EC01398228820296EC01F982E882FC
:105060000296EC01598348830296EC013983288328
:105070000496EC01B982A8829F012C513D4F8AE22F
:1050800090E0E901998388832E5F3F4FE901B9835E
:10509000A8832E5F3F4F0FE7E02EF12CE901F98244
:1050A000E8822E5F3F4FE901B983A8832E5F3F4F0F
:1050B000E901998388832E5F3F4FE901B982A88275
:1050C000285F3F4FE901398228822E5F3F4FE90177
:1050D00039822882225F3F4FE901B983A8832E5F7E
:1050E0003F4FE901B983A8832E5F3F4FE901B983A0
:1050F000A883265F3F4FE901998388832E5F3F4F46
:10510000E901B983A8832E5F3F4F4EE3E42EF12CD3
:10511000E901F982E8822E5F3F4FE901B983A88354
:105120002E5F3F4FE901998388832A5F3F4FE90152
:10513000B982A8822E5F3F4FE901998388832E5F51
:105140003F4FE901B983A8832E5F3F4F5FE7E52E0C
:10515000F12CE901F982E8822E5F3F4FE901B98322
:10516000A8832E5F3F4FE90199838883CF01825D39
:105170009C4FEC01B982A8820296EC0159824882C8
:10518000029628EE30E0EC0139832883029628E469
:1051900030E0EC01398328830296EC01B983A883BF
:1051A0000296EC01F982E8822296B983A883DF0196
:1051B000A45CBC4F1196BC92AE9212961196BC9212
:1051C000AE92129680E790E011969C938E93129681
:1051D00028EF30E011963C932E93129611969C93F3
:1051E0008E931296C4E24C2E512C11965C924E92E4
:1051F00012968EE090E011969C938E9312961196E3
:10520000DC92CE92129611969C938E931296D4E0D5
:10521000CD2ED12C1196DC92CE92129611967C92C4
:105220006E92129611967C926E92129688E390E09E
:1052300011969C938E9312962EEF30E011963C932C
:105240002E93129611969C938E93129682E190E083
:1052500011969C938E93129687E190E011969C9301
:105260008E93129611969C928E92129611967C9322
:105270006E93129611967C936E93129611967C9370
:105280006E93129611967C936E93129611967C9360
:105290006E93129611967C936E9312966D937C93F7
:1052A000E259FC4F71836083DF91CF911F910F9181
:1052B000FF90EF90DF90CF90BF90AF909F908F9036
:1052C0007F906F905F904F903F902F9008951F9226
:1052D0000F920FB60F9211242F933F938F939F93AA
:1052E000AF93BF9380913A0D90913B0DA0913C0DEF
:1052F000B0913D0D3091390D23E0230F2D3720F46F
:105300000196A11DB11D05C026E8230F0296A11D1F
:10531000B11D2093390D80933A0D90933B0DA093CE
:105320003C0DB0933D0D80913E0D90913F0DA091AD
:10533000400DB091410D0196A11DB11D80933E0D10
:1053400090933F0DA093400DB093410DBF91AF914D
:105350009F918F913F912F910F900FBE0F901F90B3
:1053600018952FB7F89460913A0D70913B0D80918C
:105370003C0D90913D0D2FBF08953FB7F89480915B
:105380003E0D90913F0DA091400DB091410D26B57D
:10539000A89B05C02F3F19F00196A11DB11D3FBF6D
:1053A0006627782F892F9A2F620F711D811D911DFD
:1053B00042E0660F771F881F991F4A95D1F708951D
:1053C000CF92DF92EF92FF92CF93DF936B017C013C
:1053D0000E94BD29EB01C114D104E104F10489F05C
:1053E0000E94D4350E94BD296C1B7D0B683E734022
:1053F00090F381E0C81AD108E108F108C851DC4FE8
:10540000EACFDF91CF91FF90EF90DF90CF9008959A
:105410008230910538F0880F991F880F991F0597E2
:105420000197F1F70895789484B5826084BD84B5BE
:10543000816084BD85B5826085BD85B5816085BD8F
:10544000EEE6F0E0808181608083E1E8F0E01082A8
:10545000808182608083808181608083E0E8F0E0E9
:10546000808181608083E1EBF0E0808184608083D3
:10547000E0EBF0E0808181608083E1E9F0E0808111
:1054800082608083808181608083E0E9F0E08081B8
:1054900081608083E1EAF0E08081826080838081A6
:1054A00081608083E0EAF0E0808181608083E1E2D6
:1054B000F1E0808182608083808181608083E0E28E
:1054C000F1E0808181608083EAE7F0E080818460A0
:1054D00080838081826080838081816080838081FD
:1054E000806880831092C1000895863308F0865347
:1054F00020917B00982F9870277F922B90937B00B0
:1055000087702091090290E4299F90011124822B39
:1055100080937C0080917A00806480937A008091EF
:105520007A0086FDFCCF809178002091790090E090
:10553000922B08951F93CF93DF93182FEB0161E017
:105540000E94B42B209711F460E004C0CF3FD10536
:1055500039F461E0812FDF91CF911F910C94ED2BF5
:10556000E12FF0E0E852FE4F449150E0FA0131970C
:10557000E231F10508F09BC0E957FF4F0C94DB398D
:1055800084B5806884BDC7BD97C084B5806284BD82
:10559000C8BD92C080918000806880938000D093C5
:1055A0008900C093880088C08091800080628093C9
:1055B0008000D0938B00C0938A007EC080918000D1
:1055C000886080938000D0938D00C0938C0074C05D
:1055D0008091B00080688093B000C093B3006CC02D
:1055E0008091B00080628093B000C093B40064C02A
:1055F00080919000806880939000D0939900C09330
:1056000098005AC080919000806280939000D0935F
:105610009B00C0939A0050C0809190008860809356
:105620009000D0939D00C0939C0046C08091A00044
:1056300080688093A0008091A0008F7B8093A00061
:10564000D093A900C093A80037C08091A0008062C9
:105650008093A000D093AB00C093AA002DC080918E
:10566000A00088608093A000D093AD00C093AC00F0
:1056700023C080912001806880932001D09329016C
:10568000C093280119C0809120018062809320017D
:10569000D0932B01C0932A010FC080912001886014
:1056A00080932001D0932D01C0932C0105C0C038F8
:1056B000D1050CF04ECF48CFDF91CF911F910895C7
:1056C00090E0FC013197E231F10508F04CC0E7565B
:1056D000FF4F0C94DB39809180008F7703C080915D
:1056E00080008F7D80938000089580918000877F67
:1056F000F9CF84B58F7702C084B58F7D84BD0895BE
:105700008091B0008F7703C08091B0008F7D80932F
:10571000B0000895809190008F7707C0809190002D
:105720008F7D03C080919000877F809390000895C3
:105730008091A0008F7707C08091A0008F7D03C06B
:105740008091A000877F8093A00008958091200120
:105750008F7707C0809120018F7D03C08091200149
:10576000877F809320010895CF93DF9390E0FC0121
:10577000E25EFD4F2491FC01EC59FD4F849188239A
:1057800049F190E0880F991FFC01E252FD4FA5916D
:10579000B4918C539D4FFC01C591D4919FB7611179
:1057A00008C0F8948C91209582238C938881822361
:1057B0000AC0623051F4F8948C91322F30958323D3
:1057C0008C938881822B888304C0F8948C91822BDF
:1057D0008C939FBFDF91CF9108950F931F93CF9329
:1057E000DF931F92CDB7DEB7282F30E0F901E852E2
:1057F000FE4F8491F901E25EFD4F1491F901EC59DD
:10580000FD4F04910023C9F0882321F069830E9491
:10581000602B6981E02FF0E0EE0FFF1FEC53FD4F8E
:10582000A591B4919FB7F8948C91611103C0109524
:10583000812301C0812B8C939FBF0F90DF91CF916B
:105840001F910F910895CF93DF93282F30E0F90136
:10585000E852FE4F8491F901E25EFD4FD491F901C7
:10586000EC59FD4FC491CC2391F081110E94602B23
:10587000EC2FF0E0EE0FFF1FE655FD4FA591B49120
:105880002C912D2381E090E021F480E002C080E0A3
:1058900090E0DF91CF910895FC01818D228D90E001
:1058A000805C9F4F821B91098F7399270895FC019B
:1058B000918D828D981731F0828DE80FF11D858DC5
:1058C00090E008958FEF9FEF0895FC01918D828DF8
:1058D000981761F0828DDF01A80FB11D5D968C9144
:1058E000928D9F5F9F73928F90E008958FEF9FEF4F
:1058F000089580E29EE2892B41F080E090E0892BC0
:1059000021F00E94202E811125C08DEC9EE2892B72
:1059100041F080E090E0892B21F00E94CD2E811192
:105920001CC08AE79FE2892B41F080E090E0892B40
:1059300021F00E947A2F811113C087E290E3892B16
:10594000A1F080E090E0892B81F00E942730811146
:105950000AC008950E940000D8CF0E940000E1CF45
:105960000E940000EACF0C9400000895FC01848D91
:10597000DF01A80FB11DA35ABF4F2C91848D90E079
:1059800001968F739927848FA689B7892C93A08954
:10599000B1898C9180648C93938D848D981306C00B
:1059A0000288F389E02D80818F7D80830895CF93D5
:1059B000DF93EC01888D8823C9F0EA89FB89808117
:1059C00085FD05C0A889B9898C9186FD0FC00FB6E9
:1059D00007FCF5CF808185FFF2CFA889B9898C912A
:1059E00085FFEDCFCE010E94B62CE7CFDF91CF919E
:1059F0000895CF92DF92FF920F931F93CF93DF937F
:105A00001F92CDB7DEB76C0181E0D60158968C931A
:105A100058975B969C915B975C968C915C979813DA
:105A200007C05096ED91FC915197808185FD2EC065
:105A3000F601038D10E00F5F1F4F0F731127F02E3B
:105A4000F601848DF81211C00FB607FCF9CFD6010C
:105A50005096ED91FC915197808185FFF1CFC60161
:105A600069830E94B62C6981EBCF838DE80FF11D0D
:105A7000E35AFF4F6083D6015B960C935B97529677
:105A8000ED91FC915397808180620CC0D6015696AF
:105A9000ED91FC91579760835096ED91FC91519751
:105AA00080818064808381E090E00F90DF91CF91CE
:105AB0001F910F91FF90DF90CF900895BF92CF92EA
:105AC000DF92EF92FF92CF93DF93EC016A017B01AB
:105AD000B22EE889F98982E08083411581EE58076A
