:1000000043C1000072C1000070C100006EC1000059
:100010006CC100006AC1000068C1000066C1000038
:1000200064C100000C94E4110C94E4110C94E411EC
:100030005CC100000C94992458C1000056C1000016
:1000400054C1000052C1000050C100004EC1000068
:100050004CC100004AC1000048C100000C945D1969
:1000600044C100000C94A81D0C94DE1D3EC100008C
:100070003CC100003AC1000038C1000036C1000098
:1000800034C1000032C1000030C100002EC10000A8
:100090000C94531E0C94891E28C100000C947D15ED
:1000A00024C1000022C1000020C100001EC10000C8
:1000B0001CC100001AC1000018C1000016C10000D8
:1000C00014C1000012C1000010C100000C94FE1EFB
:1000D0000C94341F0AC100000C94A91F0C94DF1F5C
:1000E00004C100006D0A820AC909820A1E0A820A36
:1000F000AA09820A820A820A820A820A820AB40849
:10010000820A7A09820A9109B21AB71ABC1AC61A67
:10011000D01A491BDA1AE21AEA1AF41AFE1A081B54
:10012000171B211B491B2B1B351B3F1B6B1B6E1BFE
:100130005D1B611B671BA51B721B761B7C1B801B39
:10014000841B8A1B8E1B921BA51B981B9C1BA01B30
:1001500000000A0B02090C0D0E0807030401000041
:10016000000000000000000000000000000000008F
:10017000000000000000000000000000121110004C
:10018000000000000000000000000000000000006F
:10019000000000000000010210202008081020408C
:1001A000102040800201020108040201010204083B
:1001B00010204080804020100804020180040201C9
:1001C0008040201008040201080402010102040812
:1001D000102040800102040810204080050505051C
:1001E000070508080808020202020A0A08080404AF
:1001F00004040101010101010101030303030303DD
:100200000303040707070C0C0C0C0C0C0C0C02026B
:10021000020206060606060606060B0B0B0B0B0B68
:100220000B0B000020002300260029002C002F00CB
:100230003200000100000301060109010000220054
:10024000250028002B002E003100340002010000A0
:10025000050108010B0100002100240027002A00ED
:100260002D003000330001010000040107010A01E4
:100270000200AF07BB0FBE0F5A139614101EBB1E11
:10028000661F11209720250811241FBECFEFD1E251
:10029000DEBFCDBF00E00CBF13E0A0E0B2E0EAE9B2
:1002A000FDE400E00BBF02C007900D92A839B10732
:1002B000D9F72AE0A8E9B3E001C01D92AB3CB20730
:1002C000E1F712E0C6E8D2E000E006C0229701099B
:1002D000FE010BBF0E944725C237D10780E0080707
:1002E000A9F70E94A7200C94BC268ACE1F93CF9317
:1002F000DF93162F893008F070C0982F990F990F4F
:10030000990F985F973408F096E4D82FDD0FDD0F32
:10031000DD0F8D2FC0E041E08917E8F42EEF280FA4
:100320002434B0F4E82FF0E0DF01A154BB4F2C914E
:10033000223070F4C42BEE0FFF1FE65DFB4F21E06F
:1003400030E0542F512311F420E030E0318320833A
:10035000440F8F5FE1CFC0FF05C0612F61708D2F0B
:100360000E94DF1BC1FF06C0612F627081E08D0F0C
:100370000E94DF1BC2FF06C0612F647082E08D0FF8
:100380000E94DF1BC3FF06C0612F687083E08D0FE2
:100390000E94DF1BC4FF06C0612F607184E08D0FD7
:1003A0000E94DF1BC5FF06C0612F607285E08D0FC4
:1003B0000E94DF1BC6FF06C0612F607486E08D0FB0
:1003C0000E94DF1BC7FF09C0612F607887E08D0F97
:1003D000DF91CF911F910C94DF1BDF91CF911F9183
:1003E00008950F931F93CF93DF93EB018634D0F4DE
:1003F000082F10E0F801E154FB4F9081933091F405
:100400009EEF980F9C3020F094ED980F933018F4E5
:10041000BE010E948E1AF801EE0FFF1FE65DFB4F32
:10042000D183C083DF91CF911F910F910895CF9316
:10043000C82F803158F5409117055091180521E0DB
:1004400030E0082E02C0220F331F0A94E2F7672B18
:1004500049F42095309524233523309318052093B3
:10046000170514C0242B352B30931805209317053E
:100470008091980381110AC08C2F0E94691AAC01E7
:100480006C2F88E995E0CF910C94700DCF91089571
:100490001F93CF93DF93162FC82FD0E0FE01EA54AD
:1004A000FB4F90811923CB5FDA4F411103C0988134
:1004B000911741F0412F50E0682F88E995E00E94A4
:1004C000880D1883DF91CF911F910895EF92FF92CD
:1004D0000F931F93CF93DF93E82E88E08E1508F4D7
:1004E0007DC02E2D30E0F901E25FFA4F6083672B6B
:1004F00009F474C0F901EA54FB4FF0800E2D000F8F
:10050000000F000F8EEF800F843408F057C0F0FE0C
:1005100055C0802F0E94141C892B09F44FC011E094
:100520008FEF800F843448F4F1FE07C081E0800F24
:100530000E94141C892B09F043C0C02FD0E0F2FEAA
:1005400006C082E0800F0E94141C892BD9F5F3FEAF
:1005500006C083E0800F0E94141C892BA9F5F4FECD
:1005600006C084E0800F0E94141C892B79F5F5FEEB
:1005700006C085E0800F0E94141C892B49F5C03409
:10058000D10541F0F6FE06C086E0800F0E94141CE3
:10059000892B01F5EF9744F4F7FE06C087E0800F42
:1005A0000E94141C892BC1F441E0612F8E2DDF9134
:1005B000CF911F910F91FF90EF906ACF10E0B0CFD5
:1005C0001260BBCF1460C3CF1860C9CF1061CFCF0A
:1005D0001062D5CF1064DECF1068E6CFDF91CF91E7
:1005E0001F910F91FF90EF900895CF93DF9380912B
:1005F0000E058823B9F1D091B604D2FF85C282E0FE
:100600000E94141C892B09F47FC2C4E0D3FF06C0EA
:1006100083E00E94141C892B09F078C2D4FF06C025
:1006200084E00E94141C892B09F072C2D5FF06C019
:1006300085E00E94141C892B09F06CC2D6FF06C00D
:1006400086E00E94141C892B09F066C2D7FF06C001
:1006500087E00E94141C892B09F060C240E06C2FD7
:1006600080E016DF80910F05882309F447C0D09100
:10067000B704D0FF55C288E00E94141C892B09F4EE
:100680004FC2C1E0D1FF06C089E00E94141C892B33
:1006900009F048C2D2FF06C08AE00E94141C892BD0
:1006A00009F042C2D3FF06C08BE00E94141C892BC4
:1006B00009F03CC2D4FF06C08CE00E94141C892BB8
:1006C00009F036C2D5FF06C08DE00E94141C892BAC
:1006D00009F030C2D6FF06C08EE00E94141C892BA0
:1006E00009F02AC2D7FF06C08FE00E94141C892B94
:1006F00009F024C240E06C2F81E0CADE8091100531
:10070000882309F447C0D091B804D0FF19C280E112
:100710000E94141C892B09F413C2C1E0D1FF06C04A
:1007200081E10E94141C892B09F00CC2D2FF06C083
:1007300082E10E94141C892B09F006C2D3FF06C077
:1007400083E10E94141C892B09F000C2D4FF06C06B
:1007500084E10E94141C892B09F0FAC1D5FF06C060
:1007600085E10E94141C892B09F0F4C1D6FF06C054
:1007700086E10E94141C892B09F0EEC1D7FF06C048
:1007800087E10E94141C892B09F0E8C140E06C2F1E
:1007900082E07EDE80911105882309F447C0D09164
:1007A000B904D0FFDDC188E10E94141C892B09F433
:1007B000D7C1C1E0D1FF06C089E10E94141C892B7A
:1007C00009F0D0C1D2FF06C08AE10E94141C892B17
:1007D00009F0CAC1D3FF06C08BE10E94141C892B0B
:1007E00009F0C4C1D4FF06C08CE10E94141C892BFF
:1007F00009F0BEC1D5FF06C08DE10E94141C892BF3
:1008000009F0B8C1D6FF06C08EE10E94141C892BE6
:1008100009F0B2C1D7FF06C08FE10E94141C892BDA
:1008200009F0ACC140E06C2F83E032DE809112050C
:10083000882309F447C0D091BA04D0FFA1C180E257
:100840000E94141C892B09F49BC1C1E0D1FF06C092
:1008500081E20E94141C892B09F094C1D2FF06C0CA
:1008600082E20E94141C892B09F08EC1D3FF06C0BE
:1008700083E20E94141C892B09F088C1D4FF06C0B2
:1008800084E20E94141C892B09F082C1D5FF06C0A6
:1008900085E20E94141C892B09F07CC1D6FF06C09A
:1008A00086E20E94141C892B09F076C1D7FF06C08E
:1008B00087E20E94141C892B09F070C140E06C2F64
:1008C00084E0E6DD80911305882309F447C0D091C8
:1008D000BB04D0FF65C188E20E94141C892B09F477
:1008E0005FC1C1E0D1FF06C089E20E94141C892BC0
:1008F00009F058C1D2FF06C08AE20E94141C892B5D
:1009000009F052C1D3FF06C08BE20E94141C892B50
:1009100009F04CC1D4FF06C08CE20E94141C892B44
:1009200009F046C1D5FF06C08DE20E94141C892B38
:1009300009F040C1D6FF06C08EE20E94141C892B2C
:1009400009F03AC1D7FF06C08FE20E94141C892B20
:1009500009F034C140E06C2F85E09ADD80911405E8
:10096000882309F447C0D091BC04D0FF29C180E39B
:100970000E94141C892B09F423C1C1E0D1FF06C0D9
:1009800081E30E94141C892B09F01CC1D2FF06C010
:1009900082E30E94141C892B09F016C1D3FF06C004
:1009A00083E30E94141C892B09F010C1D4FF06C0F8
:1009B00084E30E94141C892B09F00AC1D5FF06C0EC
:1009C00085E30E94141C892B09F004C1D6FF06C0E0
:1009D00086E30E94141C892B09F0FEC0D7FF06C0D5
:1009E00087E30E94141C892B09F0F8C040E06C2FAB
:1009F00086E04EDD80911505882309F447C0D0912B
:100A0000BD04D0FFEDC088E30E94141C892B09F4BB
:100A1000E7C0C1E0D1FF06C089E30E94141C892B06
:100A200009F0E0C0D2FF06C08AE30E94141C892BA3
:100A300009F0DAC0D3FF06C08BE30E94141C892B97
:100A400009F0D4C0D4FF06C08CE30E94141C892B8B
:100A500009F0CEC0D5FF06C08DE30E94141C892B7F
:100A600009F0C8C0D6FF06C08EE30E94141C892B73
:100A700009F0C2C0D7FF06C08FE30E94141C892B67
:100A800009F0BCC040E06C2F87E002DD80911605C4
:100A9000882309F4C1C0D091BE04D0FFB1C080E466
:100AA0000E94141C892B09F4ABC0C1E0D1FF06C021
:100AB00081E40E94141C892B09F0A4C0D2FF06C057
:100AC00082E40E94141C892B09F09EC0D3FF06C04B
:100AD00083E40E94141C892B09F098C0D4FF06C03F
:100AE00084E40E94141C892B09F092C0D5FF06C033
:100AF00085E40E94141C892B09F08CC040E06C2F07
:100B000088E0DF91CF91C4CCC0E080CDC86086CDB5
:100B1000C0618CCDC06292CDC06498CDC0689ECDBE
:100B2000C0E0B0CDC260B6CDC460BCCDC860C2CD9F
:100B3000C061C8CDC062CECDC064D4CDC068DACDAE
:100B4000C0E0ECCDC260F2CDC460F8CDC860FECD8F
:100B5000C06104CEC0620ACEC06410CEC06816CE9A
:100B6000C0E028CEC2602ECEC46034CEC8603ACE7B
:100B7000C06140CEC06246CEC0644CCEC06852CE8A
:100B8000C0E064CEC2606ACEC46070CEC86076CE6B
:100B9000C0617CCEC06282CEC06488CEC0688ECE7A
:100BA000C0E0A0CEC260A6CEC460ACCEC860B2CE5B
:100BB000C061B8CEC062BECEC064C4CEC068CACE6A
:100BC000C0E0DCCEC260E2CEC460E8CEC860EECE4B
:100BD000C061F4CEC062FACEC06400CFC06806CF58
:100BE000C0E018CFC2601ECFC46024CFC8602ACF37
:100BF000C06130CFC06236CFC0643CCFC06842CF46
:100C0000C0E054CFC2605ACFC46060CFC86066CF26
:100C1000C0616CCFC06272CFDF91CF910895109206
:100C2000E1038FEF809306020895AF92BF92DF92A7
:100C3000EF92FF920F931F93CF93DF931F92CDB745
:100C4000DEB7D82E5B01E82EF12C870101541B4F33
:100C5000F80180818F3709F4A6C0863041F4809175
:100C6000E103882321F06630710509F0D8DF4AECF2
:100C70004D0D403160F461E070E082E0A816B104EF
:100C800011F060E070E0842F4983D1DB49819EEF51
:100C90009D0D9434D8F4ED2DE695E695E6958D2DD1
:100CA0008770F0E0EA54FB4F21E030E0082E01C0ED
:100CB000220F0A94EAF7A114B10421F48081822B57
:100CC000808304C02095808128232083F701EE0FC4
:100CD000FF1FE65DFB4F11821082E2E0AE16B10409
:100CE00089F03CF4A114B104E1F0AA94AB2839F1E5
:100CF0004BC0E3E0AE16B10471F1F6E0AF16B104FB
:100D0000D9F142C0403108F04EC0943440F460E064
:100D10008D2D0E94A61B60E08D2D0E94DF1B82E0BE
:100D200030C0943408F03FC060E08D2D0E94A61BB7
:100D300060E08D2D0E94DF1BF801108234C09434D6
:100D400090F560E08D2D0E94DF1B61E08D2D0E94EB
:100D5000A61B81E016C09C3020F084ED8D0D833001
:100D600010F561E08D2D0E94A61B60E070E08D2DD6
:100D70000E948E1A83E005C08CEE8D0D823098F4AF
:100D800086E0F80180830FC06BE072E088E995E0AF
:100D90000F90DF91CF911F910F91FF90EF90DF9017
:100DA000BF90AF9029C70F90DF91CF911F910F9106
:100DB000FF90EF90DF90BF90AF900895CF93C0E089
:100DC0008CEE8C0F823020F466E070E08C2F2DDFEB
:100DD000CF5FC634A9F781E08093E1038AE597E00D
:100DE000CF910C9410140F931F93CF93DF9381E056
:100DF000809398038091E103811111DFEEE0F5E02B
:100E0000C6EBD4E0A5E0B5E0119219921D9285E001
:100E1000E731F807C9F7C9E9D3E010E00FEF8AEC32
:100E2000810F803118F462E070E002C061E070E090
:100E3000812FFBDE09931F5F163489F71092180586
:100E40001092170510929803DF91CF911F910F9187
:100E5000089540ED57E060E070E082E197E00E9485
:100E6000B01220E032EC41E050E063E278E082E151
:100E700097E00E94C51261E082E197E00E9489122A
:100E8000882391F06CE172E08091540790915507AE
:100E90000E94F3206AE070E080E090E00E94D619A2
:100EA00082E197E00E94AF1241E060E082E197E0CA
:100EB0000E943D1385E895E00E9432198AE795E08B
:100EC0000E94321981E395E00E94501720E030E043
:100ED00040E050E060E070E081E395E00E94BA18E5
:100EE00061E070E08BE195E00E94BE1625E042E0F3
:100EF0006EE272E088E995E01BD541EF51E060EECB
:100F000088E995E086D646E751E060E988E995E012
:100F100080D647E152E060EC88E995E07AD646E673
:100F200052E060ED88E995E074D645E156E064EF63
:100F300088E995E06ED642EA58E060EF88E995E0EE
:100F400098D643EF56E06FEF88E995E08AD640E007
:100F500051EE60E070E088E995E0F9D744CFEF9278
:100F6000FF920F931F932AE030E048E050E069E0E1
:100F700070E085E895E00E94171925E030E046E032
:100F800050E067E070E08AE795E00E941719EE24D0
:100F9000EA94FE2C01E010E022E830E040E450E06A
:100FA00065E270E08FE695E00E944919E12CF12C92
:100FB00022E830E041E450E067E270E084E695E04A
:100FC0000E944919EE24E394F12C22E830E042E437
:100FD00050E069E270E089E595E00E94491945E03A
:100FE00050E06CE270E081E395E00E945B1866E1FE
:100FF00070E08DE295E00E94AB1667E170E089E257
:1010000095E00E94AB1668E170E085E295E00E94F1
:10101000AB1669E170E081E295E00E94AB166AE1EF
:1010200070E08DE195E00E94AB166BE070E08BE123
:1010300095E00E94B8166BE070E089E195E01F91A1
:101040000F91FF90EF900C94B8168EE395E0B8D70F
:1010500080913705909138050C94B420682F8AE56B
:1010600097E00C94D2138AE597E00C9483130895CB
:10107000DF92EF92FF920F931F93CF93DF93F82E9F
:10108000EB01D42E6F3F8FEF7807A1F06F2D8AE52B
:1010900097E00E9419148C2FE1DF8AE597E00E9407
:1010A00094148091DF039091E003009729F00E944F
:1010B000FC1902C0C0E0D0E04D2D6F2D8AE597E00D
:1010C0000E9492140D2D10E08AE597E00E947B1398
:1010D000081719071CF464E972E009C08AE597E073
:1010E0000E947B13801791072CF461EB72E088E972
:1010F00095E082D5F092E203C093E303E4EEEE2E96
:10110000E3E0FE2EC0E0D0E0C017D1077CF042E063
:101110004D0D22EE33E067E788E995E0DF91CF914E
:101120001F910F91FF90EF90DF9020C58AE597E027
:101130000E947B13892B59F396DFF70181937F017E
:101140002196E2CF0F931F93CF93DF93162FEA01DF
:1011500090E0FC01E956F109E231F10508F0D2C155
:10116000EE58FF4F0C9437258981982F987185FF91
:1011700003C06DEC72E050C08881983059F148F49A
:101180009111C0C1682F8AE597E00E94191402E00E
:1011900007C0903109F43AC0983109F468C0B2C16F
:1011A000011760F4FE01E00FF11D9181808120E8BC
:1011B000929F8019112452DF0E5FF2CF8AE597E0EB
:1011C0000E94941486E490E0DF91CF911F910F91DB
:1011D0000C94FC194A816B81163069F430E8639FE6
:1011E000B0011124640F711D9D814C8150E8959FC1
:1011F0004019112406C090E8699F401911246FEF2F
:101200007FEFDF91CF911F910F9132CFE0910602D6
:10121000E7304CF06DEE72E088E995E0DF91CF9118
:101220001F910F91E9C49A812B81F0E8663061F437
:101230002F9F90011124290F311D4D819C8150E871
:10124000459F9019112405C02F9F901911242FEF4D
:101250003FEFEF5FE093060244E0E402F001112467
:10126000EE5FFB4F80833283218393834BC1509188
:101270000602151634F440E0252F332727FD30955C
:101280000EC08FEF809306023DC1EE0FFF1FEE0FE1
:10129000FF1FEE5FFB4F9081981719F14F5FE42F0E
:1012A000F0E02E173F078CF740E01BC04830C0F439
:1012B000DF01AA0FBB1FAA0FBB1FAA5FBB4F8C91F8
:1012C000EE0FFF1FEE0FFF1FEE5FFB4F80831196A7
:1012D0008D919C9112979283818313968C91838335
:1012E0004F5FE42FF0E02E173F0704F75150509363
:1012F000060208C12881898150E8859FC001112418
:10130000820F911D009721F09093E0038093DF03FB
:101310008091E1038111F6C0DF91CF911F910F9170
:101320004DCD623008F4EEC028818981E0E88E9FBF
:10133000C0011124820F911D90930802809307022F
:101340000A9708F0DFC08AE090E09093080280934B
:101350000702D8C0623008F4D5C0698170E012304D
:1013600091F08A81F0E88F9FC0011124682B792BBE
:10137000133049F08B8190E090E4899F902D88276D
:101380001124682B792B8881DF91CF911F910F91C8
:1013900028C860EF88E995E032D46CE688E995E0EA
:1013A0002ED4CEEF8CEC8C0F803148F462E088E9CB
:1013B00095E025D46AE088E995E021D402C0CC30DC
:1013C00020F086ED8C0F833040F463E088E995E0EF
:1013D00016D468E088E995E012D4C43440F464E09F
:1013E00088E995E00CD46EE088E995E008D48EEEAB
:1013F0008C0F823040F466E088E995E000D461E02B
:1014000088E995E0FCD36FE788E995E0F8D3CF5FF2
:10141000C43431F1C43408F0C5CF60E088E995E008
:10142000EED361E088E995E0EAD361E088E995E0F0
:10143000E6D361E088E995E0E2D3B4CF662309F40E
:1014400061C0C88160EF88E995E0D9D36EE688E98C
:1014500095E0D5D36C2F88E995E0D1D3C63440F020
:1014600067EF88E995E0DF91CF911F910F91C7C396
:10147000D0E0FE01E154FB4F608188E995E0BFD3E5
:10148000CC0FDD1F8E01065D1B4FF80160816F7769
:1014900088E995E0B4D3F80160817181CB0180784F
:1014A000892B41F0660F672F661F770B6F7788E9EE
:1014B00095E0A5D3C65DDB4F68817981CB01882794
:1014C000907C892B69F2770F660B770F762F661F5A
:1014D0006F7788E995E093D3C3CF60EF88E995E013
:1014E0008ED36AE688E995E08AD3CAECC03110F061
:1014F0006FE701C06C2F88E995E081D3CF5FC031E1
:10150000A9F7AECFDF91CF911F910F9108958F92E0
:101510009F92AF92BF92CF92DF92EF92FF920F9382
:101520001F93CF93DF930E94A719672B682B692B1A
:1015300039F40E94A7196230710581059105B0F157
:1015400082E197E0BFD760939005709391058093F7
:101550009205909393050091940510919505209123
:10156000960530919705601771078207930740F43D
:1015700060939405709395058093960590939705D5
:10158000009194051091950520919605309197054D
:101590006B017C01C01AD10AE20AF30A97018601A5
:1015A0000A3F11052105310508F07AC01ED888E9E7
:1015B00095E01ED2892B21F088E995E03DD4F7CF44
:1015C0000E94A7196093260470932704809328042F
:1015D00090932904C0902204D0902304E090240426
:1015E000F090250440910702509108024A01A12C75
:1015F000B12C8B019C010C191D092E093F09801685
:101600009106A206B30608F0E7C0D501C4018C0D0F
:101610009D1DAE1DBF1D8093220490932304A093B3
:101620002404B0932504CFEBD4E01AEC1031B8F4C5
:1016300088818230A1F42091170530911805012E80
:1016400002C0359527950A94E2F720FF08C0812F44
:101650000E94691AAC01612F88E995E041D21F5FB1
:101660002196103119F78091060287FDB5C0C0E0C0
:10167000EC2FF0E080910602992787FD90958E1758
:101680009F070CF4A9C0EE0FFF1FEE0FFF1FEE5FC8
:10169000FB4F6181728143818081EADCCF5FE8CFBB
:1016A00060939405709395058093960590939705A4
:1016B00044EF51E060E070E082E197E004D761E040
:1016C00082E197E026D7882309F47CC06EEF72E0B0
:1016D00080915407909155070E94F32066E073E0D3
:1016E00080915407909155070E94F32064E073E0C5
:1016F00080915407909155070E94F32066E073E0B3
:1017000080915407909155070E94F32082E197E061
:10171000D9D6AB01BC012AE030E08091540790910A
:1017200055070E94522166E073E080915407909122
:1017300055070E94F32040911807509119076091B6
:101740001A0770911B072AE030E0809154079091AE
:1017500055070E94522166E073E0809154079091F2
:1017600055070E94F32040911C0750911D0760917E
:101770001E0770911F072AE030E080915407909176
:1017800055070E94522168E073E0809154079091C0
:1017900055070E94F3200E94A719AB01BC012AE063
:1017A00030E080915407909155070E9452216AE0E1
:1017B00073E080915407909155070E94F32082E1D5
:1017C00097E0CDD665E070E080E090E00E94D61909
:1017D00082E197E093D6EACEDF91CF911F910F91EE
:1017E000FF90EF90DF90CF90BF90AF909F908F9041
:1017F00008950F931F93CF93DF93EC018B018881A2
:101800009981DC01ED91FC916F770190F081E02DE1
:10181000199588819981DC01ED91FC91B801660FE1
:10182000672F661F770B6F770190F081E02DDF91B6
:10183000CF911F910F911994DC018D919C91DC0146
:10184000ED91FC910190F081E02D60EF1994DC01A5
:101850008D919C91DC01ED91FC910190F081E02D46
:1018600067EF1994CF93DF93EC0188819981DC01B4
:10187000ED91FC910190F081E02D69EF199588813F
:101880009981DC01ED91FC910190F081E02D62E005
:10189000199588819981DC01ED91FC910190F0818D
:1018A000E02D65E0DF91CF9119941F93CF93DF93E3
:1018B000EC018A818823C1F1CE01BEDF8881998144
:1018C000DC01ED91FC910190F081E02D69E7199523
:1018D00088819981DC01ED91FC91AB81BC81019003
:1018E000F081E02D6C91199588819981DC01ED9151
:1018F000FC91AB81BC810190F081E02D11966C913F
:10190000199512E08A81181750F4EB81FC81E10FE0
:10191000F11D608170E0CE016CDF1F5FF3CFCE015F
:10192000DF91CF911F9193CFDF91CF911F910895B8
:10193000CF92DF92EF92FF920F931F93CF93DF939B
:101940008C01EB01C42ED22E6FE872E0CE010E9412
:10195000A2267C016FE270E0CE010E9497260097DC
:1019600039F46CE570E0CE010E949726009711F0E3
:10197000EC012196E114F10451F4FE0101900020E4
:10198000E9F7EC1BEF5FD8011296EC9306C0EC1A56
:10199000FD0AE394E394F801E282D80113968D9155
:1019A0009C9114970E94F225F801E280F12CC70166
:1019B00001960E945A25D80114969C938E931397F2
:1019C000FC01EE0DFF1D1082FC01C082D182129637
:1019D0004C9150E042505109BE010296DF91CF91E7
:1019E0001F910F91FF90EF90DF90CF900C9488267D
:1019F000DC018D919C91DC01ED91FC910480F581DD
:101A0000E02D19940F931F93CF93DF93FC01208552
:101A1000213741F0293709F048C0DF91CF911F915C
:101A20000F9143CFFC01E55DFE4F0190F081E02D69
:101A3000309709F450C0DC01A75BBF4F4D915C911A
:101A40009A012150310937FD9A01B90175956795C1
:101A5000062F40E050E020E030E04E5F5F4F20175F
:101A6000A0F4EC01C40FD51F1F81DC01A20FB31F2E
:101A700018961C931897C885D0E8CD9F101911248B
:101A800018961C932F5F3F4FE8CFDC01A60FB11DC6
:101A900017962C911797222311F018961C920896EE
:101AA000DF91CF911F910F911994FC01E35DFE4FDF
:101AB0000190F081E02D309771F0AC01475F5F4FEE
:101AC000DC01A75BBF4F6C916150822FDF91CF91FA
:101AD0001F910F911994DF91CF911F910F9108954C
:101AE0000F931F93CF93DF93EC018A018881998133
:101AF000DC01ED91FC916F70606E0190F081E02D42
:101B00001995B801CE01DF91CF911F910F9171CE40
:101B10000F931F93CF93DF93EC018A018881998102
:101B2000DC01ED91FC916F7060690190F081E02D16
:101B3000199588819981DC01ED91FC91602F6F7777
:101B40000190F081E02D199588819981DC01ED915A
:101B5000FC91B801660F672F661F770B0190F0812B
:101B6000E02DDF91CF911F910F911994CF92DF92C9
:101B7000EF92FF920F931F93CF93DF9300D0CDB7D7
:101B8000DEB78C01F42E2A833B83698355DED801AE
:101B90008D919C91DC01ED91FC910190F081E02D03
:101BA000698119952A81E22EC22E3B81D32E8C2D7C
:101BB0008E198F1538F4F60161916F0170E0C8013C
:101BC00018DEF5CFC8010F900F900F90DF91CF91E5
:101BD0001F910F91FF90EF90DF90CF9038CE9A0138
:101BE000613749F4FA0101900020E9F73197E41BCD
:101BF000F50B4E2FBBCF0895AB0161E7F0CFDC01B1
:101C00008D919C91DC01ED91FC910190F081E02D92
:101C10001994603DC1F028F4603969F0603C79F0B6
:101C20000895643FA1F0653FB1F0603EC9F4FC0146
:101C3000E35EFE4F13C0FC01E15EFE4F0FC0FC01EE
:101C4000EF5DFE4F0BC0FC01ED5DFE4F07C0FC01D8
:101C5000EB5DFE4F03C0FC01E95DFE4F5183408305
:101C600008956F3F29F4FC01E75DFE4F51834083E7
:101C70000895835D9E4FFC01518340830895FC01CC
:101C800015821682178280E090E0DF01A80FB91F4D
:101C900018961C92019680349105B9F7DF01A85B74
:101CA000BF4F1C9211961D921C92E75DFE4F019052
:101CB000F081E02D309709F019940895FC01E15D61
:101CC000FE4F1082FC01128214821382D8CFCF9370
:101CD000DF93EC01FC01E85BFF4F8081882399F0E2
:101CE000673F29F41082CE01DF91CF918BCEFE01A8
:101CF000E75BFF4F80819181C80FD91F68870196EC
:101D00009183808396C08D81882309F452C067FD3A
:101D100050C081508D83FE01E80FF11D6087811155
:101D200088C08E81882309F484C0803DA1F140F4ED
:101D3000803981F0803CD9F5FE01EF5DFE4F2EC069
:101D4000843FC9F0853FD9F0803E89F5FE01E35E0E
:101D5000FE4F03C0FE01E15EFE4F0190F081E02DD9
:101D6000309729F18885698570E090E8899F600D3A
:101D7000711D11241AC0FE01EB5DFE4F03C0FE0170
:101D8000E95DFE4F0190F081E02D309781F068858C
:101D900070E089850BC0FE01ED5DFE4F0190F08182
:101DA000E02D309721F0688570E08F8119951E82B3
:101DB00040C0862F603F28F4807F90E06F706F8373
:101DC00001C090E0803F910541F17CF4803C910599
:101DD00001F124F480399105D1F02BC0803D9105AB
:101DE000C1F0803E910599F024C0893F9105E1F052
:101DF0003CF49C01245F31092230310540F019C0C8
:101E00008F3F9105B1F4CE01DF91CF9138CF92E0B1
:101E100001C091E09D838E830CC081E08083C75B0D
:101E2000DF4F1982188205C088E995E0DF91CF91D4
:101E300019CDDF91CF910895CF93DF93EC01888185
:101E40009981DC01ED91FC910680F781E02D1995D7
:101E50008F3FBFEF9B0729F0682FCE01DF91CF9115
:101E600036CFDF91CF9108957F928F929F92AF925C
:101E7000BF92CF92DF92EF92FF920F931F93CF9377
:101E8000DF93762EEA01680110E0EE24D7FCE0949F
:101E9000FE2C4901AA2497FCA094BA2C212F30E0F3
:101EA0002C173D0794F4C701B6010E94D61961E0D2
:101EB000872D0E94DF1BC501B4010E94D61960E086
:101EC000872D0E94DF1B1F5FE9CFDF91CF911F910C
:101ED0000F91FF90EF90DF90CF90BF90AF909F90C9
:101EE0008F907F9008950F931F93CF93DF93EC0112
:101EF000FC01E15DFE4F8081811124C061E08DE035
:101F00000E94A61B02ED10E028E230E042E050E023
:101F10006DE0CE01A9DF6AEF70E080E090E00E9402
:101F2000D61928E230E045E050E06DE0CE019CDFBC
:101F30006DE770E080E090E0DF91CF911F910F910D
:101F40000C94D619DF91CF911F910F910895CF93E3
:101F5000DF93EC0126E083E298E00E94481D83E2D3
:101F600098E099838883CE01BEDFCE017BDCCE0171
:101F7000DF91CF919ACC88E995E0A0CE0F9300E055
:101F800020E040E060E088EC96E00E948B200F911A
:101F90000895FC0181E080831182138212821582F0
:101FA00014829FEF9683178211861086828713868C
:101FB00092E09487858716861786108A118A08957D
:101FC000CF93DF93EC0188859985009711F00E94EB
:101FD000F2258E8187FD05C060E0DF91CF910C94E2
:101FE000A61BDF91CF910895CF93DF93EC018E81F3
:101FF00087FD07C061E00E94A61B60E08E810E9401
:10200000DF1B81E08983DF91CF910895EF92FF92EA
:102010000F931F93CF93DF93EC017B018885998504
:10202000009711F00E94F2259D858A85981303C0C0
:1020300083E090E002C084E090E08E9D80018F9D5F
:10204000100D9E9D100D11241D830C83C8010E944C
:102050005A2599878887009741F0A80160E070E0D1
:102060000E948126FB82EA8204C01D821C821B82A0
:102070001A82DF91CF911F910F91FF90EF900895F9
:10208000FC0121E095858285981320E0CB0136E0A4
:10209000969587953A95E1F7482F43704587CB0190
:1020A00054E0969587955A95E1F7382F337032872B
:1020B000CB01969587959695879583708387862F14
:1020C0008370848781E06F3F710511F008F080E034
:1020D000808380859185892B49F091E0431390E0BE
:1020E000921721F062817381CF0190CF0895CF9232
:1020F000DF92EF92FF920F931F93CF93DF93CDB7B1
:10210000DEB729970FB6F894DEBF0FBECDBF8C01A6
:10211000DC0118968D919C911997892B09F49AC02E
:102120000E94B319F801C684D784E088F1886C193D
:102130007D098E099F09623371058105910580F340
:10214000F894848195819A838983A085B1857D01E6
:10215000EFEFEE1AFE0A8C918987D8019C91529676
:102160000D90BC91A02DF8018489992309F42EC00B
:102170009C91982B98879C91809589238F838F8140
:102180008E8388E08D8358856F8149853D812E81BE
:1021900089819A81F7015C9347FD252F3A952C930D
:1021A000262F39F0441F00C000006C93000000C0CF
:1021B000F2CF38E041916C930000019761F7F8018C
:1021C000B38BA28B49873D832E8338C09C91982B7B
:1021D00098879C91809589238F838F818C8388E059
:1021E0008B8358856F8149853B812C8189819A81B8
:1021F000F7015C9347FD252F00C000C02C9300C061
:1022000000C000C000C000C06C930000262F3A95AB
:1022100041F0441F000000C000C000C000C000C06A
:10222000E8CF38E0419100C06C9300C0019709F7F6
:10223000F801B38BA28B49873B832C839A838983D4
:1022400078940E94B319D8011E966D937D938D9357
:102250009C93519729960FB6F894DEBF0FBECDBF61
:10226000DF91CF911F910F91FF90EF90DF90CF9072
:1022700008951F93CF93DF93EC01162F8981882354
:1022800031F08E8187FD03C060E00E94A61B1E8393
:102290008981882341F061E0812F0E94A61B60E0C4
:1022A000812F0E94DF1B812F90E0FC01E452FE4F42
:1022B000E491F0E0EE0FFF1FE45CFD4F25913491B7
:1022C0003B8B2A8BFC01EA56FE4F84918C8BDF916D
:1022D000CF911F910895EF92FF920F931F93CF9389
:1022E000DF931F92CDB7DEB77C018B01FC01118219
:1022F00017821186108616861786108A118AB901F0
:102300004983BEDEB801C70181DE4981642FC70160
:102310000F90DF91CF911F910F91FF90EF90A9CF78
:102320000F931F93CF93DF93DC0112968D919C91B5
:1023300013976817790708F042C017968C91179782
:10234000882361F0489FA0011124452F289F900108
:102350001124232F089F80011124012F1D963C91E9
:102360001D971A965C911A9718968D919C911997C2
:10237000FB01351307C0EE0FFF1FE60FF71FE80F35
:10238000F91F0AC0EE0FFF1FEE0FFF1FE80FF91F26
:10239000EF01C30FD11D18821A968C911A97EF0185
:1023A000C80FD11D48831B968C911B97EF01C80F56
:1023B000D11D28831C968C91E80FF11D0083DF91BD
:1023C000CF911F910F9108951F920F920FB60F9208
:1023D00011240BB60F922F933F934F935F936F93FC
:1023E0007F938F939F93AF93BF93EF93FF93E0916E
:1023F0001007F0911107309709F451C0868DA6851A
:10240000B785958581FF04C08C91892329F447C045
:102410008C91892309F043C0A389B4899C91858953
:10242000809589238C93868997890197F1F7208D70
:10243000318DA685B785758558E040E0C9010197C3
:10244000F1F7842F90E095958795482F6C9167233D
:1024500009F04068515091F7868D81FD409580913B
:10246000CF0690E001968F7399272091CE0628170A
:1024700049F0A091CF06B0E0A053B94F4C938093A0
:10248000CF0603C0868D8160868F828D938D0197E4
:10249000F1F7A389B4898C919589892B8C93FF914D
:1024A000EF91BF91AF919F918F917F916F915F91CC
:1024B0004F913F912F910F900BBE0F900FBE0F9039
:1024C0001F90189544C7CF93DF93EC014E875F8729
:1024D000688B798B1A8A1B8A1C8A1D8A4E815F81C0
:1024E000688579854A875B876C877D8730D76E835F
:1024F0007F8388879987DF91CF910895CF93DF936A
:10250000EC0125D76E837F8388879987DF91CF91F0
:1025100008950F931F93CF93DF93EC01611114C0C3
:1025200016D70A811B812C813D81601B710B820BA8
:10253000930B623371058105910530F463E070E01F
:1025400080E090E033D7ECCF02D76A837B838C8323
:102550009D8381E0DF91CF911F910F9108950895A0
:10256000FC01EC5BFF4F1082118212821382FC018E
:10257000128213821482158241155105610571057D
:1025800019F0CB01BA0112C70895FB01BA01A901E4
:102590008E5B9F4FDC01ED93FC9326E0CF010C9402
:1025A000481D8E5B9F4FDC018D919C91DC01ED916C
:1025B000FC910680F781E02D199508958E5B9F4F61
:1025C000DC018D919C91DC01ED91FC910480F58101
:1025D000E02D199508951F93CF93DF93EC01162FEB
:1025E000B6D66A837B838C839D83CE5BDF4F63E1AA
:1025F00073E0888199810E94F3204AE050E0612FC6
:10260000888199810E945E216AE173E088819981C5
:102610000E94F32062E370E080E090E0DF91CF91D0
:102620001F91C4C61F93CF93DF93EC01162F8E89A1
:102630008823F1F0CE01C2DF811102C085E619C006
:10264000CE01BCDF8823D1F3CE01ABDF883681F029
:1026500040F4883561F0833699F7612FCE01BBDFF6
:1026600007C0813729F0863759F786E702C01E8AEE
:1026700083E6DF91CF911F9108950F931F93CF931E
:10268000DF931F92CDB7DEB78C01611108C0F8014E
:10269000468B0F90DF91CF911F910F91089581E0AC
:1026A000F801868B60E0C8014983BCDF498183362D
:1026B000C9F7EDCF109218071092190710921A0758
:1026C00010921B0710921C0710921D0710921E07F4
:1026D00010921F07109220071092210710922207D4
:1026E00010922307109224071092250710922607B4
:1026F00010922707089580918A0790E020918B0718
:10270000821B9109089520918B0780918A072817D1
:1027100050F4E22FF0E0E457F84F808190E02F5F13
:1027200020938B0708958FEF9FEF0895E0918B071B
:1027300080918A07E81730F4F0E0E457F84F808181
:1027400090E008958FEF9FEF08950895CF92DF9264
:10275000EF92FF920F931F93CF93DF937C01CB01F6
:102760008A0120916607222389F0EB016B01C40ED8
:10277000D51ECC15DD0561F06991D701ED91FC9175
:102780000190F081E02DC7011995F3CF642F8CD112
:10279000C801DF91CF911F910F91FF90EF90DF90D3
:1027A000CF900895CF93DF931F92CDB7DEB76983A3
:1027B000209166072223D1F020916707203240F054
:1027C00021E030E0FC013383228380E090E014C0FC
:1027D00080916807E82FF0E0E759F84F99819083DE
:1027E0008F5F809368078093670704C061E0CE0124
:1027F00001965AD181E090E00F90DF91CF9108953A
:10280000FC011382128248EE53E060E070E04483E2
:102810005583668377838FE693E091838083089561
:1028200010928B0710928A07109268071092670720
:1028300080C081E0809366076093890710926807E3
:102840001092670708950F93062F21E040916707C4
:1028500069E677E080918907D0D0109268071092DE
:102860006707109266070F9108958F929F92AF921B
:10287000BF92CF92DF92EF92FF920F931F93CF936D
:10288000DF93EC01F62ED42E48015901EE2009F118
:10289000D0DF1E2D143008F013E01150B8F0E8819D
:1028A000F98128E0129FB0011124A501940104C010
:1028B00056954795379527956A95D2F7CA01B9017C
:1028C0000190F081E02DCE011995E7CF60E0CE01B7
:1028D000BADF4D2D413208F040E22C2D6CE877E054
:1028E0008F2D43D010928B0780938A07DF91CF9171
:1028F0001F910F91FF90EF90DF90CF90BF90AF901E
:102900009F908F900895CF92EF920F931F93C22EB6
:10291000E12C00E010E09801A8DF1F910F91EF90EB
:10292000CF90089521E0EFCF61E08DCF8AE597E069
:1029300067CF1092190881E080931708109216084B
:1029400061E084E13CD761E085E139D7E9EBF0E073
:1029500080818E7F808380818D7F808388E48093D7
:10296000B80085E48093BC000895413208F043C06C
:10297000909119089111FCCF91E090931908209340
:1029800017082FEF2093AC071092F107240F209324
:10299000F0079093180890911808880F892B80935E
:1029A000180880911608813061F410921608809101
:1029B00018088093BB008091BC0083FDF8CF85ECA4
:1029C00001C085EE8093BC00809119088130E1F34D
:1029D0008091F107841710F44091F10722EF37E05E
:1029E000FB01D9018A2F821B841718F48D918193E2
:1029F000F9CF842F089580E008950F93413208F0B5
:102A00004AC0909119089111FCCF92E09093190857
:102A1000009317089FEF9093AC071092F107409333
:102A2000F007FB0162EF77E0DB019A2F961B94170A
:102A300018F491919D93F9CF10921808909118086D
:102A4000880F892B8093180880911608813061F4D3
:102A500010921608809118088093BB008091BC00EA
:102A600083FDF8CF85EC01C085EE8093BC00222366
:102A700021F0809119088230E1F38091AC078F3FFB
:102A800061F08091AC07803251F08091AC078033C7
:102A900041F483E007C081E005C080E003C082E02C
:102AA00001C084E00F910895613298F420911908D3
:102AB000243089F46093CE07FC0180ED97E0DC01BF
:102AC0002A2F281B261718F421912D93F9CF80E087
:102AD000089581E0089582E0089585ED8093BC001B
:102AE0008091BC0084FDFCCF10921908089585ECFC
:102AF0008093BC001092190808951F920F920FB690
:102B00000F9211240BB60F922F933F934F935F9325
:102B10006F937F938F939F93AF93BF93EF93FF93A5
:102B20008091B900887F803609F49DC070F58832A5
:102B300009F45CC090F4803109F455C038F488235E
:102B400009F4F3C0883009F44EC0F2C0883109F4AA
:102B50004DC0803209F45EC0EBC0803409F469C016
:102B600050F4803309F456C0883309F0E1C08093F3
:102B7000AC07BDDFDDC0803509F44FC0883509F4EE
:102B80005DC0883409F0D4C0D2C0883909F4C3C00C
:102B9000A8F4883709F467C038F4883609F463C0AC
:102BA000803709F460C0C4C0883809F4B4C08039E3
:102BB00009F45FC0803809F0BBC05BC0803B09F4FA
:102BC00082C038F4803A09F466C0883A09F47BC0C0
:102BD000AFC0803C09F4A3C0883C09F4A0C0883B86
:102BE00009F486C0A5C08091180810C09091F10723
:102BF0008091F007981770F5E091F10781E08E0F52
:102C00008093F107F0E0EE50F84F80818093BB0095
:102C100085EC82C08093AC078AC0E091F10781E027
:102C20008E0F8093F1078091BB00F0E0EE50F84FDB
:102C300080839091F1078091F0076AC0E091F107DD
:102C400081E08E0F8093F1078091BB00F0E0EE50A1
:102C5000F84F808380911708811169C081E08093CB
:102C6000160884EA5DC083E0809319081092AD07CE
:102C7000CFCF8091AD07803208F04DC0E091AD0715
:102C800081E08E0F8093AD078091BB00F0E0E255AC
:102C9000F84F8083BDCF2BDF8091AD07803230F4B9
:102CA000E091AD07F0E0E255F84F10826091AD077A
:102CB00070E0E0911208F09113088EEA97E0199500
:102CC0001092AD0735C084E0809319081092CF07A9
:102CD0001092CE07E0911408F09115081995809193
:102CE000CE07811105C081E08093CE071092D007F6
:102CF000E091CF0781E08E0F8093CF07F0E0E053A3
:102D0000F84F80818093BB009091CF078091CE07D0
:102D1000981708F47DCF85E88093BC0009C085EC46
:102D20008093BC001092190803C01092AC07D5DE46
:102D3000FF91EF91BF91AF919F918F917F916F9193
:102D40005F914F913F912F910F900BBE0F900FBE4F
:102D50000F901F901895FC01862F6083718360E0AF
:102D6000F5C420E030E0A901FC0180810C946421CD
:102D7000FC01862F6083718360E0E8C4CF93DF930A
:102D8000EC016130710539F06230710509F048C01D
:102D90006BE072E079C06BE072E0E3DF6CE271E05F
:102DA00080E090E003D388810E94852464E670E08F
:102DB00080E090E0FBD26BE072E0CE01D2DF6CE20B
:102DC00071E080E090E0F2D288810E94852464E680
:102DD00070E080E090E0EAD26BED73E0CE01C1DFFD
:102DE00066E970E080E090E0E1D288810E9485246D
:102DF00062E370E080E090E0D9D26BED73E0CE0149
:102E0000B0DF66E970E080E090E0D0D288810E9477
:102E1000852462E370E080E090E0DF91CF91C6C24C
:102E20006BE072E09EDF66E970E080E090E0BED289
:102E300088810E94852466E970E080E090E0B6D247
:102E400063E972E0CE018DDF66E970E080E090E03A
:102E5000ADD288810E94852466E970E080E090E030
:102E6000A5D26FE073E0CE017CDF66E970E080E020
:102E700090E09CD288810E94852466E970E080E021
:102E800090E094D266E174E0CE016BDF66E970E019
:102E900080E090E08BD28881DF91CF910C948524E3
:102EA0000F931F93CF93DF93CDB7DEB765970FB620
:102EB000F894DEBF0FBECDBF8C01FC01628173812F
:102EC00022E530E04081CE01019605DA85E1FE0180
:102ED0003196D8011D9601900D928A95E1F7CE01A9
:102EE00001966ED8035F1F4FC8017ED8C801FFD876
:102EF00065960FB6F894DEBF0FBECDBFDF91CF91C0
:102F00001F910F910895EF92FF920F931F93CF930C
:102F1000DF9300D01F92CDB7DEB77C01FC01758333
:102F200064838B01085F1F4F13830283000F111FFF
:102F3000C80149835A836B837C830E94B320F701C5
:102F40008083918398012051310949815A81240F4E
:102F5000351FFC01DA01A217B30741F08D919D9155
:102F6000309711F0918380833296F5CF0F900F90B8
:102F70000F900F90DF91CF911F910F91FF90EF90E5
:102F80000895EF92FF920F931F93CF93DF93EC017D
:102F90008B016817790709F486C0DB0114962D911F
:102FA0003C9115978A819B818217930718F5E880D9
:102FB000F9803B832A83C901880F991F0E94B3209F
:102FC00088839983FC01D70120E030E04C815D814A
:102FD0002417350760F4309729F04D915C911197D3
:102FE000518340832F5F3F4F32961296EFCFC70138
:102FF0000E94B4208C819D81F80124813581821743
:10300000930708F49C0180E090E08217930791F009
:10301000AC01440F551FD801ED91FC91E40FF51F51
:1030200060817181E881F981E40FF51F718360830C
:103030000196EBCF8C819D81F80124813581821727
:10304000930768F0D80114968D919C9115972C8167
:103050003D818217930738F59D838C8324C09C01A2
:10306000220F331FD80114964D915C911597841748
:10307000950740F7F801A081B181A20FB31FE88145
:10308000F981E20FF31F309721F04D915C9151834C
:1030900040834C815D814F5F5F4F5D834C83019620
:1030A0002E5F3F4FDFCFCE01DF91CF911F910F9168
:1030B000FF90EF900895AF92BF92CF92DF92EF9280
:1030C000FF920F931F93CF93DF93CDB7DEB72E9769
:1030D0000FB6F894DEBF0FBECDBF8C015B016A0155
:1030E000FC0182A193A19987888784A195A19B87E0
:1030F0008A8786A197A19D878C87AE01485F5F4F25
:1031000063E070E07801F6E0EF0EF11C9E012F5FA6
:103110003F4FC701F8DEC8010D960E94C90FF801A4
:10312000B182A082D382C282148215824BE753E01F
:1031300063E070E09E01225F3F4FCE010196E3DE27
:10314000BE016F5F7F4FC7011CDF89819A810E949A
:10315000B4202E960FB6F894DEBF0FBECDBFDF9120
:10316000CF911F910F91FF90EF90DF90CF90BF9084
:10317000AF9008958F929F92AF92BF92CF92DF92BD
:10318000EF92FF920F931F93CF93DF93CDB7DEB7EC
:103190002E970FB6F894DEBF0FBECDBF6C01162F71
:1031A000942E822E688779874A875B872C873D8794
:1031B000AE01485F5F4F63E070E09E01225F3F4FCA
:1031C000CE010196A0DEBE016F5F7F4FC60106965D
:1031D000D8DE89819A81C8D7E12CF12CC6010D96E1
:1031E0005C01F60182819381E816F90654F4082DFA
:1031F000292D412FB701C50193D89FEFE91AF90A8C
:10320000F0CFC5010E9477102E960FB6F894DEBF5E
:103210000FBECDBFDF91CF911F910F91FF90EF9027
:10322000DF90CF90BF90AF909F908F900895CF93F5
:10323000DF93EC01822F798368835B834A832C833D
:103240003D831E821F821886198660E070E066D179
:1032500081E08A8760E08881B2D261E08A81DF9173
:10326000CF91ADC2CF93DF93EC0126E040E855E269
:1032700060E070E083E298E00BD461E08C8166D27C
:1032800061E0888163D261E08A8160D2DF91CF9171
:103290000895EF92FF920F931F93FC017383628353
:1032A0005583448337832683F186E0861183008328
:1032B0001F910F91FF90EF9008951F920F920FB6FC
:1032C0000F9211242F933F938F939F93AF93BF93AC
:1032D00080911B0890911C08A0911D08B0911E08B8
:1032E00030911A0823E0230F2D3720F40196A11DF9
:1032F000B11D05C026E8230F0296A11DB11D209324
:103300001A0880931B0890931C08A0931D08B09383
:103310001E0880911F0890912008A0912108B0916B
:1033200022080196A11DB11D80931F0890932008CB
:10333000A0932108B0932208BF91AF919F918F91E4
:103340003F912F910F900FBE0F901F9018952FB7A0
:10335000F89460911B0870911C0880911D08909151
:103360001E082FBF08953FB7F89480911F089091D1
:103370002008A0912108B091220826B5A89B05C07D
:103380002F3F19F00196A11DB11D3FBF6627782F71
:10339000892F9A2F620F711D811D911D42E0660FCA
:1033A000771F881F991F4A95D1F70895CF92DF9212
:1033B000EF92FF92CF93DF936B017C01D4DFEB019F
:1033C000C114D104E104F10481F00E94F824CBDFA0
:1033D0006C1B7D0B683E734098F381E0C81AD108DE
:1033E000E108F108C851DC4FEBCFDF91CF91FF909E
:1033F000EF90DF90CF9008958230910538F0880FDC
:10340000991F880F991F05970197F1F708957894F0
:1034100084B5826084BD84B5816084BD85B58260D9
:1034200085BD85B5816085BDEEE6F0E08081816077
:103430008083E1E8F0E01082808182608083808177
:1034400081608083E0E8F0E0808181608083E1EB4F
:10345000F0E0808184608083E0EBF0E08081816037
:103460008083E1E9F0E080818260808380818160F7
:103470008083E0E9F0E0808181608083E1EAF0E030
:10348000808182608083808181608083E0EAF0E0D7
:10349000808181608083E1E2F1E0808182608083CD
:1034A000808181608083E0E2F1E0808181608083BF
:1034B000EAE7F0E08081846080838081826080839D
:1034C0008081816080838081806880831092C100C8
:1034D0000895863308F0865320917B00982F9870CA
:1034E000277F922B90937B0087702091090290E4B4
:1034F000299F90011124822B80937C0080917A0077
:10350000806480937A0080917A0086FDFCCF809160
:1035100078002091790090E0922B08951F93CF932B
:10352000DF93182FEB0161E011D1209711F460E0D7
:1035300004C0CF3FD10531F461E0812FDF91CF91FD
:103540001F913DC1E12FF0E0E05BFE4F449150E060
:10355000FA013197E231F10508F09BC0EC57FF4FBB
:103560000C94372584B5806884BDC7BD97C084B5E9
:10357000806284BDC8BD92C08091800080688093C5
:103580008000D0938900C093880088C0809180001B
:10359000806280938000D0938B00C0938A007EC0AD
:1035A00080918000886080938000D0938D00C093CC
:1035B0008C0074C08091B00080688093B000C0938C
:1035C000B3006CC08091B00080628093B000C09363
:1035D000B40064C080919000806880939000D09384
:1035E0009900C09398005AC08091900080628093A7
:1035F0009000D0939B00C0939A0050C0809190009F
:10360000886080939000D0939D00C0939C0046C03A
:103610008091A00080688093A0008091A0008F7BA3
:103620008093A000D093A900C093A80037C08091D8
:10363000A00080628093A000D093AB00C093AA004A
:103640002DC08091A00088608093A000D093AD0031
:10365000C093AC0023C0809120018068809320013A
:10366000D0932901C093280119C080912001806264
:1036700080932001D0932B01C0932A010FC0809129
:103680002001886080932001D0932D01C0932C01EC
:1036900005C0C038D1050CF04FCF49CFDF91CF9195
:1036A0001F91089590E0FC013197E231F10508F097
:1036B0004CC0EA56FF4F0C943725809180008F77DD
:1036C00003C0809180008F7D809380000895809159
:1036D0008000877FF9CF84B58F7702C084B58F7D56
:1036E00084BD08958091B0008F7703C08091B000B1
:1036F0008F7D8093B0000895809190008F7707C0F0
:10370000809190008F7D03C080919000877F80938F
:10371000900008958091A0008F7707C08091A0004D
:103720008F7D03C08091A000877F8093A0000895C3
:10373000809120018F7707C0809120018F7D03C089
:1037400080912001877F809320010895CF93DF939C
:1037500090E0FC01EA56FE4F2491FC01E452FE4F3A
:103760008491882349F190E0880F991FFC01EA5A5F
:10377000FD4FA591B491845C9D4FFC01C591D491FE
:103780009FB7611108C0F8948C91209582238C9387
:10379000888182230AC0623051F4F8948C91322FD0
:1037A000309583238C938881822B888304C0F8947E
:1037B0008C91822B8C939FBFDF91CF9108950F93B3
:1037C0001F93CF93DF931F92CDB7DEB7282F30E042
:1037D000F901E05BFE4F8491F901EA56FE4F149126
:1037E000F901E452FE4F04910023C1F0882319F03F
:1037F000698358DF6981E02FF0E0EE0FFF1FE45C82
:10380000FD4FA591B4919FB7F8948C91611103C0BD
:103810001095812301C0812B8C939FBF0F90DF9166
:10382000CF911F910F910895CF93DF93282F30E010
:10383000F901E05BFE4F8491F901EA56FE4FD49105
:10384000F901E452FE4FC491CC2389F081112ADFA3
:10385000EC2FF0E0EE0FFF1FEE5DFD4FA591B49150
:103860002C912D2381E090E021F480E002C080E0E3
:1038700090E0DF91CF910895FC01818D228D90E041
:10388000805C9F4F821B91098F7399270895FC01DB
:10389000918D828D981731F0828DE80FF11D858D05
:1038A00090E008958FEF9FEF0895FC01918D828D38
:1038B000981761F0828DDF01A80FB11D5D968C9184
:1038C000928D9F5F9F73928F90E008958FEF9FEF8F
:1038D000089587E09EE1892B39F080E090E0892B04
:1038E00019F095D1811122C082EB9EE1892B39F02C
:1038F00080E090E0892B19F035D281111AC08DE556
:103900009FE1892B39F080E090E0892B19F0D5D226
:10391000811112C088E090E2892B99F080E090E05C
:10392000892B79F075D381110AC008950E94000097
:10393000DBCF0E940000E3CF0E940000EBCF0C948D
:1039400000000895FC01848DDF01A80FB11DA35A6A
:10395000BF4F2C91848D90E001968F739927848FAF
:10396000A689B7892C93A089B1898C9180648C93A6
:10397000938D848D981306C00288F389E02D808191
:103980008F7D80830895CF93DF93EC01888D88230A
:10399000C1F0EA89FB89808185FD05C0A889B989C4
:1039A0008C9186FD0EC00FB607FCF5CF808185FF98
:1039B000F2CFA889B9898C9185FFEDCFCE01C2DF06
:1039C000E8CFDF91CF910895CF92DF92FF920F93CE
:1039D0001F93CF93DF931F92CDB7DEB76C0181E0C9
:1039E000D60158968C9358975B969C915B975C9602
:1039F0008C915C97981307C05096ED91FC9151976C
:103A0000808185FD2DC0F601038D10E00F5F1F4FF3
:103A10000F731127F02EF601848DF81210C00FB627
:103A200007FCF9CFD6015096ED91FC91519780811A
:103A300085FFF1CFC601698385DF6981ECCF838D76
:103A4000E80FF11DE35AFF4F6083D6015B960C939C
:103A50005B975296ED91FC915397808180620CC0E8
:103A6000D6015696ED91FC91579760835096ED9153
:103A7000FC91519780818064808381E090E00F9079
:103A8000DF91CF911F910F91FF90DF90CF9008951C
:103A9000BF92CF92DF92EF92FF92CF93DF93EC0130
:103AA0006A017B01B22EE889F98982E080834115A1
:103AB00081EE58076105710599F060E079E08DE3CA
:103AC00090E0A701960195D721503109410951098C
:103AD0005695479537952795211580E1380790F041
:103AE000E889F989108260E874E88EE190E0A70126
:103AF00096017FD7215031094109510956954795C3
:103B000037952795EC85FD853083EE85FF852083ED
:103B1000188EEC89FD89B082EA89FB8980818061F9
:103B20008083EA89FB89808188608083EA89FB89B8
:103B3000808180688083EA89FB8980818F7D808392
:103B4000DF91CF91FF90EF90DF90CF90BF900895DD
:103B50001F920F920FB60F9211240BB60F922F9354
:103B60008F939F93EF93FF93E0913308F091340884
:103B70008081E0913908F0913A0882FD12C090816D
:103B800080913C088F5F8F7320913D08821751F020
:103B9000E0913C08F0E0ED5DF74F958F80933C0895
:103BA00001C08081FF91EF919F918F912F910F9094
:103BB0000BBE0F900FBE0F901F9018951F920F9283
:103BC0000FB60F9211240BB60F922F933F934F9382
:103BD0005F936F937F938F939F93AF93BF93EF9375
:103BE000FF9383E298E0AEDEFF91EF91BF91AF913A
:103BF0009F918F917F916F915F914F913F912F9105
:103C00000F900BBE0F900FBE0F901F90189583E280
:103C100098E032DE21E0892B09F420E0822F08951C
:103C2000109226081092250888EE93E0A0E0B0E0FC
:103C30008093270890932808A0932908B0932A0816
:103C400085E893E0909324088093230885EC90E026
:103C50009093300880932F0884EC90E09093320882
:103C60008093310880EC90E090933408809333087F
:103C700081EC90E0909336088093350882EC90E0D8
:103C8000909338088093370886EC90E090933A0838
:103C90008093390810923C0810923D0810923E081B
:103CA00010923F0808951F920F920FB60F921124A1
:103CB0000BB60F922F938F939F93EF93FF93E09107
:103CC000D008F091D1088081E091D608F091D70812
:103CD00082FD12C090818091D9088F5F8F732091EF
:103CE000DA08821751F0E091D908F0E0E054F74F7C
:103CF000958F8093D90801C08081FF91EF919F91AA
:103D00008F912F910F900BBE0F900FBE0F901F90B1
:103D100018951F920F920FB60F9211240BB60F92A7
:103D20002F933F934F935F936F937F938F939F93C3
:103D3000AF93BF93EF93FF9380EC98E003DEFF9186
:103D4000EF91BF91AF919F918F917F916F915F9113
:103D50004F913F912F910F900BBE0F900FBE0F9080
:103D60001F90189580EC98E087DD21E0892B09F4FD
:103D700020E0822F08951092C3081092C20888EEA6
:103D800093E0A0E0B0E08093C4089093C508A093AE
:103D9000C608B093C70885E893E09093C108809364
:103DA000C0088DEC90E09093CD088093CC088CEC0B
:103DB00090E09093CF088093CE0888EC90E09093A9
:103DC000D1088093D00889EC90E09093D308809339
:103DD000D2088AEC90E09093D5088093D4088EECBA
:103DE00090E09093D7088093D6081092D90810924B
:103DF000DA081092DB081092DC0808951F920F92E7
:103E00000FB60F9211240BB60F922F938F939F939F
:103E1000EF93FF93E0916D09F0916E098081E0913D
:103E20007309F091740982FD12C090818091760926
:103E30008F5F8F7320917709821751F0E091760997
:103E4000F0E0E35AF64F958F8093760901C08081A8
:103E5000FF91EF919F918F912F910F900BBE0F903B
:103E60000FBE0F901F9018951F920F920FB60F92D2
:103E700011240BB60F922F933F934F935F936F9341
:103E80007F938F939F93AF93BF93EF93FF938DE5B2
:103E900099E058DDFF91EF91BF91AF919F918F9184
:103EA0007F916F915F914F913F912F910F900BBE3A
:103EB0000F900FBE0F901F9018958DE599E0DCDCF8
:103EC00021E0892B09F420E0822F089510926009E7
:103ED00010925F0988EE93E0A0E0B0E08093610962
:103EE00090936209A0936309B093640985E893E015
:103EF00090935E0980935D0985ED90E090936A0947
:103F00008093690984ED90E090936C0980936B092C
:103F100080ED90E090936E0980936D0981ED90E0C3
:103F20009093700980936F0982ED90E090937209ED
:103F30008093710986ED90E09093740980937309E2
:103F400010927609109277091092780910927909E7
:103F500008951F920F920FB60F9211240BB60F9275
:103F60002F938F939F93EF93FF93E0910A0AF09121
:103F70000B0A8081E091100AF091110A82FD12C0B3
:103F800090818091130A8F5F8F732091140A82179A
:103F900051F0E091130AF0E0E650F64F958F8093D0
:103FA000130A01C08081FF91EF919F918F912F9112
:103FB0000F900BBE0F900FBE0F901F9018951F9281
:103FC0000F920FB60F9211240BB60F922F933F93BF
:103FD0004F935F936F937F938F939F93AF93BF9311
:103FE000EF93FF938AEF99E0ADDCFF91EF91BF91E2
:103FF000AF919F918F917F916F915F914F913F9181
:104000002F910F900BBE0F900FBE0F901F90189521
:104010008AEF99E031DC21E0892B09F420E0822F3E
:1040200008951092FD091092FC0988EE93E0A0E03B
:10403000B0E08093FE099093FF09A093000AB0932B
:10404000010A85E893E09093FB098093FA0985E3E0
:1040500091E09093070A8093060A84E391E090939D
:10406000090A8093080A80E391E090930B0A8093F9
:104070000A0A81E391E090930D0A80930C0A82E38F
:1040800091E090930F0A80930E0A86E391E090935B
:10409000110A8093100A1092130A1092140A1092B7
:1040A000150A1092160A0895AF92BF92CF92DF922E
:1040B000EF92FF920F931F93CF93DF936C017B01DD
:1040C000C0E0D0E000E010E0F601EC0FFD1F4AE098
:1040D00050E06281C701F2D05C016EE2C70184D07A
:1040E0008A0D9B1D080F191F2196C330D10561F75A
:1040F0004AE050E0F6016581C701E0D0800F911FD2
:10410000DF91CF911F910F91FF90EF90DF90CF90B3
:10411000BF90AF9008950F93FC0185E993E09183E0
:10412000808362834383248305830F91089585E907
:1041300093E09093980A8093970A1092990A1092AC
:104140009A0A10929B0A10929C0A089508955FD9CA
:10415000FDDF0E942907C9E6DCE10E94870A20975B
:10416000E1F3B7DBFACFA6C43DC5CF92DF92EF9261
:10417000FF920F931F93CF93DF937C016A01EB01B2
:1041800000E010E00C151D0571F06991D701ED916B
:10419000FC910190F081E02DC7011995892B19F050
:1041A0000F5F1F4FEFCFC801DF91CF911F910F918C
:1041B000FF90EF90DF90CF9008956115710581F029
:1041C000DB010D900020E9F7AD0141505109461B7C
:1041D000570BDC01ED91FC910280F381E02D1994E5
:1041E00080E090E00895E9CFDC01ED91FC91019031
:1041F000F081E02D19948F929F92AF92BF92CF924F
:10420000DF92EF92FF920F931F93CF93DF93CDB77F
:10421000DEB7A1970FB6F894DEBF0FBECDBF7C010D
:10422000C42EE52FCB01D22E19A221E02D1510F0BE
:104230002AE0D22E8E010F5D1F4F8D2C912CA12CC8
:10424000B12C6C2D7E2FA5019401D3D38C2DD29E41
:1042500080191124015011098A3014F4805D01C0C5
:10426000895CF8018083211531054105510521F054
:10427000C22EE32FCA01E5CFB801C7019EDFA19688
:104280000FB6F894DEBF0FBECDBFDF91CF911F9167
:104290000F91FF90EF90DF90CF90BF90AF909F90E5
:1042A0008F9008952115310541F4DC01ED91FC91C9
:1042B0000190F081E02D642F19949DCF9A01462F33
:1042C00050E060E070E0EECF3F924F925F926F92CD
:1042D0007F928F929F92AF92BF92CF92DF92EF9296
:1042E000FF920F931F93CF93DF9300D01F92CDB710
:1042F000DEB78B0129013A0190910A02981721F04B
:104300009F3F09F0B2C204C0E0E7F2E0349004C17C
:1043100080930A02E0E7F2E0E491EF3F09F4A5C2DE
:10432000E23009F480C074F5EE2309F45BC0E1309B
:1043300009F0F1C0109280001092810090918100EC
:10434000986090938100909181009160909381009A
:10435000282F30E0F901E452FE4FE491F0E0EE0F37
:10436000FF1FE45CFD4F459154915093BB0A40936D
:10437000BA0AF901EA56FE4F24912093B90A332470
:104380003394CCC0E43009F49EC00CF474C0E53022
:1043900009F0C1C0109220011092210190912101D9
:1043A0009860909321019091210191609093210157
:1043B000282F30E0F901E452FE4FE491F0E0EE0FD7
:1043C000FF1FE45CFD4F4591549150939F0A409329
:1043D0009E0AF901EA56FE4F249120939D0A55E06A
:1043E000352E9CC014BC15BC94B5926094BD95B597
:1043F000916095BD282F30E0F901E452FE4FE49121
:10440000F0E0EE0FFF1FE45CFD4F45915491509397
:10441000C20A4093C10AF901EA56FE4F2491209343
:10442000C00A312C7BC01092B0001092B100909164
:10443000B00092609093B0009091B1009160909321
:10444000B100282F30E0F901E452FE4FE491F0E092
:10445000EE0FFF1FE45CFD4F459154915093B40A59
:104460004093B30AF901EA56FE4F24912093B20A11
:1044700022E0322E53C01092900010929100909141
:104480009100986090939100909191009160909329
:104490009100282F30E0F901E452FE4FE491F0E062
:1044A000EE0FFF1FE45CFD4F459154915093AD0A10
:1044B0004093AC0AF901EA56FE4F24912093AB0ACF
:1044C000B3E03B2E2BC01092A0001092A10090915F
:1044D000A10098609093A1009091A10091609093A9
:1044E000A100282F30E0F901E452FE4FE491F0E002
:1044F000EE0FFF1FE45CFD4F459154915093A60AC7
:104500004093A50AF901EA56FE4F24912093A40A8C
:1045100074E0372E03C03E2E37FCA7C161E016D9E8
:104520004801A12CB12C832D8D7F09F0C1C060E022
:1045300072E18AE790E0A50194017DD229833A8354
:104540004B835C8369017A0181E0C81AD108E108D4
:10455000F1089FEFC916D104E104F10409F008F451
:1045600095C060E472E48FE090E0A501940163D20D
:1045700069017A01E1E0CE1AD108E108F108F2E020
:104580003F1218C08FEFC816D104E104F10409F0FE
:1045900008F486C060E970ED83E090E0A501940125
:1045A0004AD269017A0191E0C91AD108E108F108FB
:1045B00083E001C082E0EFEFCE16D104E104F10404
:1045C00009F008F464C068E478EE81E090E0A501A9
:1045D000940131D269017A01F1E0CF1AD108E108E2
:1045E000F1083320D9F082E038121AC09FEFC916C3
:1045F000D104E104F10409F008F435C164E274EF78
:1046000080E090E0A501940116D269017A01E1E011
:10461000CE1AD108E108F10885E003C083E001C0AB
:1046200084E0FFEFCF16D104E104F10481F178F1C9
:1046300062E17AE780E090E0A5019401FCD1690194
:104640007A0181E0C81AD108E108F108311002C0EE
:1046500084E001C086E09FEFC916D104E104F104B3
:10466000B1F0A8F0C980DA80EB80FC809AE0F59484
:10467000E794D794C7949A95D1F7E1E0CE1AD10880
:10468000E108F108332031F087E00BC081E03320EE
:1046900011F007C085E095B5987F982B95BD54C063
:1046A00082E09091B100987F982B9093B1004CC01C
:1046B00060E072E18AE790E0A5019401BCD1690154
:1046C0007A01F1E0CF1AD108E108F108C114D10450
:1046D00081E0E806F10480F068E478EE81E090E0A3
:1046E000A5019401A8D169017A0191E0C91AD10804
:1046F000E108F10893E001C091E0E1E03E1207C05B
:1047000080918100887F892B809381001DC0F3E018
:104710003F1207C080919100887F892B8093910080
:1047200013C084E0381207C08091A100887F892BD4
:104730008093A10009C0E5E03E1206C080912101EE
:10474000887F892B809321014114510461047104F5
:1047500061F0D801AA0FBB1FA30192018ED128EEF0
:1047600033E040E050E045D103C02FEF3FEFA90117
:10477000F2E03F1609F443C0F315BCF0332081F199
:1047800081E0381272C0D0928900C09288002093D4
:10479000BC0A3093BD0A4093BE0A5093BF0A809171
:1047A0006F00826080936F0060C094E0391609F456
:1047B00048C03916A4F1E5E03E1257C0D092290155
:1047C000C09228012093A00A3093A10A4093A20A24
:1047D0005093A30A8091730082608093730045C058
:1047E000C7BC2093C30A3093C40A4093C50A5093B0
:1047F000C60A80916E00826080936E0036C0C092BF
:10480000B3002093B50A3093B60A4093B70A509389
:10481000B80A8091700082608093700026C0D092A8
:104820009900C09298002093AE0A3093AF0A40934B
:10483000B00A5093B10A8091710082608093710038
:1048400014C0D092A900C092A8002093A70A309368
:10485000A80A4093A90A5093AA0A80917200826024
:104860008093720002C084E01CCF0F900F900F90D5
:104870000F90DF91CF911F910F91FF90EF90DF90FC
:10488000CF90BF90AF909F908F907F906F905F90F0
:104890004F903F9008958230A9F028F4882349F082
:1048A000813051F00895843021F1E8F0853039F1FC
:1048B000089510926E00089580916F008D7F80930F
:1048C0006F000895809170008D7F8093700081E06B
:1048D0008093B0008091B100887F84608093B100A4
:1048E0001092B3000895809171008D7F80937100C4
:1048F0000895809172008D7F809372000895809159
:1049000073008D7F809373000895CF93C82F80919B
:104910000A028C1307C0E0E7F2E084919FEF9093C6
:104920000A0201C08FEFB7DF60E08C2FCF910C94AB
:10493000DF1B1F920F920FB60F9211240BB60F922E
:104940002F933F934F935F936F937F938F939F9397
:10495000AF93BF93EF93FF938091B50A9091B60AFE
:10496000A091B70AB091B80A892B8A2B8B2B51F1F1
:104970009091B20AE091B30AF091B40A808189273C
:1049800080838091B50A9091B60AA091B70AB09140
:10499000B80A181619061A061B06BCF48091B50A47
:1049A0009091B60AA091B70AB091B80A0197A109EF
:1049B000B1098093B50A9093B60AA093B70AB09351
:1049C000B80A03C080910A02A0DFFF91EF91BF9166
:1049D000AF919F918F917F916F915F914F913F9197
:1049E0002F910F900BBE0F900FBE0F901F90189538
:1049F0000895A1E21A2EAA1BBB1BFD010DC0AA1F20
:104A0000BB1FEE1FFF1FA217B307E407F50720F037
:104A1000A21BB30BE40BF50B661F771F881F991FB2
:104A20001A9469F760957095809590959B01AC01FB
:104A3000BD01CF010895052E97FB16F400940FD009
:104A400057FD05D0D6DF07FC02D046F408C05095CC
:104A50004095309521953F4F4F4F5F4F089590956A
:104A60008095709561957F4F8F4F9F4F0895EE0F02
:104A7000FF1F0590F491E02D19940DD0A59F900D86
:104A8000B49F900DA49F800D911D1124089507904F
:104A9000F691E02D1994A29FB001B39FC001A39F8E
:104AA000700D811D1124911DB29F700D811D112467
:104AB000911D0895CF93DF938230910510F482E029
:104AC00090E0E091C90AF091CA0A20E030E0A0E04D
:104AD000B0E0309739F14081518148175907B8F05B
:104AE0004817590771F482819381109729F0139622
:104AF0009C938E9312972CC09093CA0A8093C90AF4
:104B000027C02115310531F04217530718F0A901CC
:104B1000DB0101C0EF019A01BD01DF010280F381D9
:104B2000E02DD7CF21153105F9F0281B390B2430A2
:104B3000310580F48A819B816115710521F0FB01AB
:104B40009383828304C09093CA0A8093C90AFE01AA
:104B5000329644C0FE01E20FF31F819391932250DD
:104B60003109398328833AC02091C70A3091C80A95
:104B7000232B41F420910202309103023093C80AA2
:104B80002093C70A209100023091010221153105BE
:104B900041F42DB73EB74091040250910502241B09
:104BA000350BE091C70AF091C80AE217F307A0F4A9
:104BB0002E1B3F0B2817390778F0AC014E5F5F4F73
:104BC0002417350748F04E0F5F1F5093C80A4093D3
:104BD000C70A8193919302C0E0E0F0E0CF01DF913A
:104BE000CF910895CF93DF93009709F487C0FC011C
:104BF000329713821282C091C90AD091CA0A2097B3
:104C000081F420813181280F391F8091C70A90914A
:104C1000C80A8217930779F5F093C80AE093C70A88
:104C20006DC0DE0120E030E0AE17BF0750F41296F1
:104C30004D915C9113979D014115510509F1DA01E0
:104C4000F3CFB383A28340815181840F951F8A17CC
:104C50009B0771F48D919C911197840F951F02967B
:104C60009183808312968D919C9113979383828375
:104C70002115310529F4F093CA0AE093C90A3EC010
:104C8000D9011396FC93EE9312974D915D91A40F69
:104C9000B51FEA17FB0779F480819181840F951F76
:104CA0000296D90111969C938E93828193811396DB
:104CB0009C938E931297E0E0F0E08A819B810097AD
:104CC00019F0FE01EC01F9CFCE010296288139815D
:104CD000820F931F2091C70A3091C80A28173907FD
:104CE00069F4309729F41092CA0A1092C90A02C0D6
:104CF00013821282D093C80AC093C70ADF91CF9162
:104D00000895DC0101C06D9341505040E0F70895D3
:104D1000FB01DC014150504048F001900D92002011
:104D2000C9F701C01D9241505040E0F70895FC01C1
:104D300081E090E00190061609F4CF010020D1F740
:104D400001970895FB0151915523A9F0BF01DC01A2
:104D50004D9145174111E1F759F4CD010190002023
:104D600049F04D9140154111C9F3FB014111EFCFBD
:104D700081E090E00197089512E0C6E8D2E000E0FB
:104D800005C022970109FE010BBF81DEC838D1079B
:0A4D900080E00807B1F7F894FFCFA8
:104D9A000000CB0A8000FF130001FF556E6B6E6F97
:104DAA00776E2070696E206D6F646500564D4450B1
:104DBA00565F317C315F564D4450560D0A00433AD6
:104DCA005C55736572735C6973656E5C417070449F
:104DDA006174615C4C6F63616C5C54656D705C56A8
:104DEA004D4275696C64735C536372617463685F86
:104DFA004669726D6174615F6C69625C6D65676159
:104E0A005F61746D656761323536305C5363726118
:104E1A007463685F4669726D6174615F6C69622E62
:104E2A00637070004932433A20546F6F206D616E8F
:104E3A007920627974657320726563656976656441
:104E4A00004932433A20546F6F20666577206279B1
:104E5A007465732072656365697665640031302D07
:104E6A006269742061646472657373696E67206E27
:104E7A006F7420737570706F7274656400746F6FED
:104E8A00206D616E79207175657269657300564D82
:104E9A004450455F31003A007C005F564D4450450E
:104EAA000D0A00564D4450435F005F564D4450432F
:104EBA000D0A004572726F723A20417474656D7002
:104ECA007420746F20736574206120726561642D8B
:104EDA006F6E6C79207661726961626C65206F729F
:104EEA0020646174612074797065206E6F74207318
:104EFA007570706F727465640D0A0000000000D24C
:104F0A0013A6137B1383139613A513000000000046
:104F1A000000000000E41CB5203C1C551C471CC3C3
:084F2A001C00000000542000EF
:00000001FF
