:1000000027C1000056C1000054C1000052C10000C9
:1000100050C100004EC100004CC100004AC10000A8
:1000200048C1000046C1000044C1000042C10000B8
:1000300040C100003EC100003CC100003AC10000C8
:1000400038C1000036C1000034C1000032C10000D8
:1000500030C100002EC100002CC10000CCC3000044
:1000600028C10000CCC10000A1C1000022C10000D5
:1000700020C100001EC100001CC100001AC1000008
:1000800018C1000016C1000014C1000012C1000018
:1000900010C100000EC100000CC100000AC1000028
:1000A00008C1000006C1000004C1000002C1000038
:1000B00000C10000FEC00000FCC00000FAC000004B
:1000C000F8C00000F6C00000F4C00000F2C000005C
:1000D000F0C00000EEC00000ECC00000EAC000006C
:1000E000E8C00000F802FB02EA02EE02F40232036A
:1000F000FF02030309030D03110317031B031F036F
:100100003203250329032D034F05540559056305C3
:100110006D05E60577057F05870591059B05A50516
:10012000B405BE05E605C805D205DC0500002200C1
:10013000250028002B002E003100340002010000B1
:10014000050108010B0100002100240027002A00FE
:100150002D003000330001010000040107010A01F5
:10016000000020002300260029002C002F00320070
:100170000001000003010601090105050505070549
:1001800008080808020202020A0A08080404040413
:10019000010101010101010103030303030303033F
:1001A000040707070C0C0C0C0C0C0C0C02020202CE
:1001B00006060606060606060B0B0B0B0B0B0B0BB7
:1001C0000102102020080810204010204080020169
:1001D000020108040201010204081020408080404E
:1001E000201008040201800402018040201008044D
:1001F00002010804020101020408102040800102EB
:1002000004081020408000000A0B02090C0D0E08A3
:1002100007030401000000000000000000000000CF
:1002200000000000000000000000000000000000CE
:10023000000012111000000000000000000000008B
:10024000000000000000000000000000840E6D0EA1
:1002500011241FBECFEFD1E2DEBFCDBF00E00CBF47
:1002600012E0A0E0B2E0E0E1F4E200E00BBF02C087
:1002700007900D92AA32B107D9F723E0AAE2B2E0C3
:1002800001C01D92A636B207E1F711E0C7E2D1E046
:1002900000E006C021970109802FFE010E941D1079
:1002A000C632D10780E00807A9F70E94F6090C942E
:1002B000F711A6CECF92DF92EF92FF920F931F938A
:1002C000CF93DF936C017A018B01C0E0D0E0CE15B3
:1002D000DF0589F0D8016D918D01D601ED91FC917A
:1002E0000190F081E02DC6011995892B11F47E0152
:1002F00002C02196ECCFC701DF91CF911F910F91E2
:10030000FF90EF90DF90CF9008950E94EC1183E36F
:1003100092E0CDD021E0892B09F420E0822F0895CE
:10032000EF92FF920F931F93CF93DF93EC0181E045
:10033000888F9B8D8C8D981305C0E889F989808101
:1003400085FD23C0F62E0B8D10E00F5F1F4F0F733E
:100350001127E02E8C8DE8120BC00FB607FCFACFE8
:10036000E889F989808185FFF5CFCE01E4D0F2CF0D
:100370008B8DFE01E80FF11DE35AFF4FF0820B8FCA
:10038000EA89FB898081806207C0EE89FF896083EA
:10039000E889F98980818064808381E090E0DF9141
:1003A000CF911F910F91FF90EF9008951F920F92A0
:1003B0000FB60F9211240BB60F922F933F934F93CA
:1003C0005F936F937F938F939F93AF93BF93EF93BD
:1003D000FF9383E392E0AFD0FF91EF91BF91AF9194
:1003E0009F918F917F916F915F914F913F912F914D
:1003F0000F900BBE0F900FBE0F901F9018951F927D
:100400000F920FB60F9211240BB60F922F938F936A
:100410009F93EF93FF93E0914302F0914402808118
:10042000E0914902F0914A0282FD12C090818091D0
:100430004C028F5F8F7320914D02821751F0E09133
:100440004C02F0E0ED5CFD4F958F80934C0201C0B3
:100450008081FF91EF919F918F912F910F900BBE13
:100460000F900FBE0F901F901895FC01918D828DFB
:10047000981761F0828DDF01A80FB11D5D968C91F8
:10048000928D9F5F9F73928F90E008958FEF9FEF03
:100490000895FC01918D828D981731F0828DE80FBF
:1004A000F11D858D90E008958FEF9FEF0895FC0179
:1004B000918D228D892F90E0805C9F4F821B910946
:1004C0008F739927089580E090E0892B19F01FDF42
:1004D000811125C080E090E0892B41F080E090E020
:1004E000892B21F00E94000081111CC080E090E067
:1004F000892B41F080E090E0892B21F00E940000E0
:10050000811113C080E090E0892BA1F080E090E0A1
:10051000892B81F00E94000081110AC008950E9479
:100520000000D8CF0E940000E1CF0E940000EACF77
:100530000C9400000895FC01848DDF01A80FB11D0B
:10054000A35ABF4F2C91848D90E001968F73992709
:10055000848FA689B7892C93A089B1898C918064F6
:100560008C93938D848D981306C00288F389E02DB7
:1005700080818F7D80830895CF93DF93EC01888DF8
:100580008823C1F0EA89FB89808185FD05C0A8899F
:10059000B9898C9186FD0EC00FB607FCF5CF80811E
:1005A00085FFF2CFA889B9898C9185FFEDCFCE0167
:1005B000C2DFE8CFDF91CF91089590E0FC01319741
:1005C000E231F10508F04EC08827EE58FF4F8F4FFB
:1005D0000C941D10809180008F7703C08091800063
:1005E0008F7D80938000089580918000877FF9CF70
:1005F00084B58F7702C084B58F7D84BD08958091C6
:10060000B0008F7703C08091B0008F7D8093B000E1
:100610000895809190008F7707C0809190008F7D22
:1006200003C080919000877F80939000089580910F
:10063000A0008F7707C08091A0008F7D03C08091BC
:10064000A000877F8093A0000895809120018F777C
:1006500007C0809120018F7D03C080912001877F9A
:100660008093200108951F93CF93DF93282F30E0CC
:10067000F901EA5FFD4F8491F901E054FE4FD491F6
:10068000F901E658FE4FC491CC23C1F0162F811119
:1006900094DFEC2FF0E0EE0FFF1FE45DFE4FA5911D
:1006A000B4918FB7F894111105C09C91ED2FE0958E
:1006B000E92302C0EC91ED2BEC938FBFDF91CF913A
:1006C0001F910895CF93DF9390E0FC01E054FE4F1B
:1006D0002491FC01E658FE4F8491882361F190E05B
:1006E000880F991FFC01EA5BFE4FC591D491FC0174
:1006F000E45DFE4FA591B491611109C09FB7F894D4
:100700008881209582238883EC912E230BC0623050
:1007100061F49FB7F8943881822F80958323888372
:10072000EC912E2B2C939FBF06C08FB7F894E881D5
:100730002E2B28838FBFDF91CF9108953FB7F89478
:1007400080912F0290913002A0913102B09132023B
:1007500026B5A89B05C02F3F19F00196A11DB11D1C
:100760003FBFBA2FA92F982F8827820F911DA11D57
:10077000B11DBC01CD0142E0660F771F881F991F94
:100780004A95D1F708958F929F92AF92BF92CF92E0
:10079000DF92EF92FF926B017C01D0DF4B015C0195
:1007A000C114D104E104F104E9F0C8DFDC01CB019C
:1007B00088199909AA09BB09883E9340A105B1058A
:1007C00078F321E0C21AD108E108F10888EE880E1A
:1007D00083E0981EA11CB11CC114D104E104F104F2
:1007E00021F7DECFFF90EF90DF90CF90BF90AF90DA
:1007F0009F908F9008951F920F920FB60F92112421
:100800002F933F938F939F93AF93BF9380912B022E
:1008100090912C02A0912D02B0912E0230912A02CB
:1008200023E0230F2D3720F40196A11DB11D05C033
:1008300026E8230F0296A11DB11D20932A02809362
:100840002B0290932C02A0932D02B0932E02809144
:100850002F0290913002A0913102B09132020196A4
:10086000A11DB11D80932F0290933002A0933102FD
:10087000B0933202BF91AF919F918F913F912F9191
:100880000F900FBE0F901F9018950F931F93CF934B
:10089000DF93EC01088119817B836A83CB01880F88
:1008A000991F0E94BF10998388838C819D81D801F4
:1008B00040E050E04817590791F0E881F9819A012A
:1008C000220F331FE20FF31F309729F02D913C9137
:1008D0001197318320834F5F5F4F1296EBCFC80192
:1008E000DF91CF911F910F910C9454110F931F938F
:1008F000CF93DF93EC01088119817B836A83CB015D
:10090000880F991F0E94BF10998388838C819D81D5
:10091000D80140E050E04817590791F0E881F9818B
:100920009A01220F331FE20FF31F309729F02D9108
:100930003C911197318320834F5F5F4F1296EBCF2D
:10094000C801DF91CF911F910F910C945411CF9357
:10095000DF93EC0160E0888186DE61E08A81DF91CF
:10096000CF9181CECF93DF93EC01E3E3F2E0A08956
:10097000B18982E08C93A485B5851C92A685B78544
:100980008FEC8C93108EA489B58986E08C93A28914
:10099000B3898C9180618C93A289B3898C91886092
:1009A0008C93A289B3898C9180688C930288F38997
:1009B000E02D80818F7D808361E08C8183DE61E02A
:1009C000888180DE61E08A817DDEDF91CF910895AC
:1009D000CF93DF93FC016287662319F0DF91CF91FB
:1009E000B6CFEC0161E080813EDE60E08A81DF917C
:1009F000CF9139CECF92DF92EF92FF920F931F9358
:100A0000CF93DF93EC016A017B0120E030E04FE7F8
:100A100053E4C701B6010E94BB10181674F020E021
:100A200030E0A901C701B6010E94391087FF0BC051
:100A3000F7FAF094F7F8F09406C0C12CD12C8FE7A8
:100A4000E82E83E4F82ECE82DF82E886F986C7019D
:100A5000B6010E943D106B017C018B010C80DD8191
:100A6000C02D61E08C2F2EDEC114D10409F4B1C079
:100A70000F3F110509F4AFC0FE01FF27EA5FFD4FEC
:100A8000E4914E2F50E0FA013197E231F10508F080
:100A90009DC08827EC57FF4F8F4F0C941D1084B5D5
:100AA000806884BDC7BCA2C084B5806284BDC8BC58
:100AB0009DC080918000806880938000D0928900E2
:100AC000C092880093C080918000806280938000F3
:100AD000D0928B00C0928A0089C08091800088608B
:100AE00080938000D0928D00C0928C007FC0809156
:100AF000B00080688093B000C092B30077C080914E
:100B0000B00080628093B000C092B4006FC080914A
:100B10009000806880939000D0929900C0929800D5
:100B200065C080919000806280939000D0929B007D
:100B3000C0929A005BC08091900088608093900082
:100B4000D0929D00C0929C0051C08091A00080680E
:100B50008093A0008091A0008F7B8093A000D09212
:100B6000A900C092A80042C08091A000806280933A
:100B7000A000D092AB00C092AA0038C08091A00023
:100B800088608093A000D092AD00C092AC002EC0CF
:100B900080912001806880932001D0922901C09229
:100BA000280124C080912001806280932001D0928E
:100BB0002B01C0922A011AC0809120018860809385
:100BC0002001D0922D01C0922C0110C000381105D7
:100BD00014F460E001C061E08C2FDF91CF911F9190
:100BE0000F91FF90EF90DF90CF903DCDDF91CF91AF
:100BF0001F910F91FF90EF90DF90CF900895EF92AB
:100C0000FF920F931F93CF93DF93EC018B01681733
:100C1000790709F486C0DB0114962D913C91159754
:100C20008A819B818217930718F5E880F9803B83BE
:100C30002A83C901880F991F0E94BF108883998356
:100C40004C815D81D701FC0120E030E0241735079D
:100C500061F0309729F08D919C9111979183808359
:100C60002F5F3F4F12963296F1CFC7010E94541169
:100C70008C819D81F801448155818417950708F482
:100C8000AC0180E090E08417950791F09C01220F61
:100C9000331FD801ED91FC91E20FF31F6081718148
:100CA000E881F981E20FF31F718360830196EBCF36
:100CB0008C819D81F801248135818217930768F02A
:100CC000D80114968D919C9115972C813D818217A6
:100CD000930738F59D838C8324C09C01220F331F1A
:100CE000D80114964D915C9115978417950740F79C
:100CF000F801A081B181A20FB31FE881F981E20F51
:100D0000F31F309721F04D915C91518340834C81CA
:100D10005D814F5F5F4F5D834C8301962E5F3F4F38
:100D2000DFCFCE01DF91CF911F910F91FF90EF9018
:100D30000895EF92FF920F931F93CF93DF9300D00C
:100D40001F92CDB7DEB78C01FC0175836483CB01A4
:100D50000896938382837C01EE0CFF1CC7014983B4
:100D60005A836B837C830E94BF10F8018083918338
:100D700097012051310949815A81240F351FDA0129
:100D8000FC01A217B30741F08D919D91309711F0AE
:100D9000918380833296F5CF0F900F900F900F9034
:100DA000DF91CF911F910F91FF90EF9008950F93D6
:100DB0001F93CF93DF93EC01088119817B836A83B2
:100DC000CB01880F991F880F991F0E94BF1088833D
:100DD0009983FC01D80120E030E08C819D812817A7
:100DE000390780F4309749F04D915D916D917C9178
:100DF000139740835183628373832F5F3F4F3496F1
:100E00001496EBCFC801DF91CF911F910F910C94F5
:100E10005411CF93DF93EC0188859985009711F0E9
:100E20000E9454118E8187FD04C060E0DF91CF9154
:100E300049CCDF91CF910895FC01808191810C9480
:100E400054110F931F93CF93DF93CDB7DEB729973C
:100E50000FB6F894DEBF0FBECDBF70DC00911E034D
:100E600010911F032091200330912103DC01CB015D
:100E7000801B910BA20BB30BC297A105B10568F3C0
:100E8000F89480911403909115039A838983E091DB
:100E90001803F0911903DF011196808189879091E1
:100EA0001003E0912203F0912303809124039923FE
:100EB00009F42EC09081982B988790818095892382
:100EC0008F838F818C8388E08B8358856F814985E0
:100ED0003B812C8189819A81508347FD252F3A954A
:100EE0002083262F39F0441F00C0000060830000DB
:100EF00000C0F2CF38E04D9160830000019761F7A8
:100F0000F0932303E093220349873B832C8338C06B
:100F10009081982B98879081809589238F838F81EA
:100F20008E8388E08D8358856F8149853D812E8130
:100F300089819A81508347FD252F00C000C02083FE
:100F400000C000C000C000C000C060830000262FA9
:100F50003A9541F0441F000000C000C000C000C02E
:100F600000C0E8CF38E04D9100C0608300C0019719
:100F700009F7F0932303E093220349873D832E83EF
:100F80009A8389837894DADB60931E0370931F033E
:100F9000809320039093210329960FB6F894DEBF27
:100FA0000FBECDBFDF91CF911F910F9108954F924A
:100FB0005F926F927F928F929F92AF92BF92CF92E9
:100FC000DF92EF92FF920F931F93CF93DF93CDB7F2
:100FD000DEB72E970FB6F894DEBF0FBECDBF7C01F3
:100FE0008B016A01998788877B876A875D874C8731
:100FF000AE01485F5F4F63E070E09E01225F3F4FAC
:10100000CE01019696DEBE016F5F7F4F89E093E0CF
:10101000F6DDCE01019610DF60E070E040E050E0C8
:1010200080E090E027015524D801BB275601BB245E
:101030009C2C2091050330910603821793070CF036
:1010400057C020911203309113038217930708F0C1
:1010500049C020911703211104C0892C102FFE2CA8
:1010600019C030E0429E6001439ED00C529ED00CCD
:101070001124FD2CA29F6001A39FD00CB29FD00C25
:1010800011241D2DA29E6001A39ED00CB29ED00CF7
:1010900011248D2CD0901D03C0901A0320911803A9
:1010A00030911903DC1003C0240F351F07C0260F31
:1010B000371F39016D0C711CF3011082D0901A0397
:1010C00039016D0C711CF301F082F0901B03690172
:1010D000CF0CD11CF601108310911C03210F311D80
:1010E000F901808201964D5F5F4F6C5F7F4FA1CF0A
:1010F0008091180390911903892B09F0A2DE2E9696
:101100000FB6F894DEBF0FBECDBFDF91CF911F9118
:101110000F91FF90EF90DF90CF90BF90AF909F9096
:101120008F907F906F905F904F9008950F931F93D3
:10113000CF93DF932091DB023091DC02281739072F
:1011400090F58B01EC018091D9029091DA028C1715
:101150009D0748F4BE01685F7F4F8617970718F414
:1011600087ED92E092DB8091DB029091DC029C01A2
:10117000220F331F8C179D0788F4E091D702F0915E
:10118000D802E20FF31F309729F0D8014D915C91FE
:101190005183408301962E5F3F4FECCFD093DC020A
:1011A000C093DB0207C08217930720F49093DC0200
:1011B0008093DB02DF91CF911F910F9108950F93E0
:1011C0001F93CF93DF932091D4023091D50228173B
:1011D000390790F58B01EC018091D2029091D302F6
:1011E0008C179D0748F4BE01685F7F4F86179707ED
:1011F00018F480ED92E07ADB8091D4029091D502D0
:101200009C01220F331F8C179D0788F4E091D002B8
:10121000F091D102E20FF31F309729F0D8014D91E0
:101220005C915183408301962E5F3F4FECCFD0936A
:10123000D502C093D40207C08217930720F490937D
:10124000D5028093D402DF91CF911F910F91089521
:101250000F931F93CF93DF936091EC027091ED0297
:10126000EB0121966C177D0788F58C018091EA02CD
:101270009091EB028C179D0740F4675F7F4F8617B4
:10128000970718F488EE92E092DD2091EC023091FD
:10129000ED02C901880F991F880F991F2C173D0770
:1012A000C0F4E091E802F091E902E80FF91F3097ED
:1012B00049F0D8014D915D916D917C9140835183AE
:1012C000628373832F5F3F4F0496E8CFC617D7071B
:1012D00020F4D093ED02C093EC02DF91CF911F91E7
:1012E0000F910895EF92FF920F931F93CF93DF9387
:1012F0000091E8021091E902C091EC02D091ED0258
:10130000CC0FDD1FCC0FDD1FC00FD11F0C171D0729
:1013100059F1F801208131813327F901EA5FFD4F4E
:101320008491F901E054FE4FE490F901E658FE4F34
:10133000F490FF2089F0811140D9EF2DF0E0EE0FFD
:10134000FF1FE05AFE4FA591B491EC91EE2191E080
:1013500080E021F490E002C090E080E0F801928308
:1013600083830C5F1F4FD2CFE091E802F091E90236
:1013700082819381892B99F086819781892B91F0C5
:1013800082859385892B89F086859785892B81F0C5
:1013900082899389892B79F080E090E00EC081E00A
:1013A00090E00BC082E090E008C083E090E005C0D0
:1013B00084E090E002C085E090E0DF91CF911F9142
:1013C0000F91FF90EF900895009769F0FC01019054
:1013D0000020E9F73197AF01481B590BBC0183E3AB
:1013E00092E00C945A0180E090E00895CF93DF934F
:1013F000CDB7DEB7EF970FB6F894DEBF0FBECDBF07
:10140000789484B5826084BD84B5816084BD85B5DF
:10141000826085BD85B5816085BD80916E008160EB
:1014200080936E0010928100809181008260809391
:101430008100809181008160809381008091800093
:101440008160809380008091B10084608093B100BE
:101450008091B00081608093B000809191008260A3
:1014600080939100809191008160809391008091A0
:1014700090008160809390008091A10082608093B1
:10148000A1008091A10081608093A1008091A000C3
:1014900081608093A000809121018260809321016E
:1014A00080912101816080932101809120018160E0
:1014B0008093200180917A00846080937A008091EB
:1014C0007A00826080937A0080917A0081608093B4
:1014D0007A0080917A00806880937A001092C1002F
:1014E00087E593E03FDA8CE493E03CDAE090030395
:1014F000F0900403A0900503B09006031A821886AA
:101500001F86188A198A1A8A81E08E878B871C8623
:1015100092E09D8789836501CC0CDD1CCA0CDB1C25
:10152000DE82CD82C6012BD69A878987009739F053
:10153000A60160E070E054D7BC82AB8204C01E827A
:101540001D821C821B82EF828A81882331F061E038
:101550008E2DB8D860E08E2D86D8C7019927FC0162
:10156000E658FE4FE491F0E0EE0FFF1FE45DFE4F02
:10157000259134913C8B2B8BFC01E054FE4F8491E0
:101580008D8B85E1FE013196A0E1B3E001900D92D3
:101590008A95E1F7CE0101963CDC8091160387FD28
:1015A00006C061E08FD860E0809116035CD881E0CE
:1015B000809311038091180390911903892B09F0EE
:1015C00040DC8091F7029091F802A091F902B0916D
:1015D000FA028AAB9BABACABBDABCE01C29638DE98
:1015E0008091FB029091FC02A091FD02B091FE025D
:1015F0008EA79FA7A8ABB9ABCE018E9629DE8091AE
:10160000F3029091F402A091F502B091F6028AA73C
:101610009BA7ACA7BDA7CE018A961ADE8091FF02D8
:1016200090910003A0910103B09102038EA39FA3A8
:10163000A8A7B9A7CE0186960BDE8091EF02909104
:10164000F002A091F102B091F2028AA39BA3ACA395
:10165000BDA3CE018296FCDD87E593E09FAF8EAF00
:101660008091D4029091D502BE01625C7F4F0196B9
:10167000A6DD8CE493E09DAF8CAF8091D402909175
:10168000D502BE01645C7F4F019699DD81E493E051
:101690009BAF8AAF8091DB029091DC02BE01665C59
:1016A0007F4F019643DD86E393E099AF88AF809149
:1016B000DB029091DC02BE01685C7F4F019636DD53
:1016C0008BE293E09FAB8EAB8091DB029091DC02CA
:1016D000BE016A5C7F4F019629DD40E050E060E08A
:1016E00070E080E090E063DC11E05AE0452E512C80
:1016F000612C712CF7DD83309105D1F06CF42091D1
:10170000E0023091E1028130910561F0029709F029
:10171000B9C22150310908C08430910549F00597BC
:1017200069F0B0C22F5F3F4F3093E1022093E00297
:101730006AEF70E080E090E026D8A4C28CE192E0ED
:1017400043DEC090DE02D090DF020D2C000CEE08CC
:10175000FF08F7FE26C0E0913302F09134020190B9
:10176000F081E02D6DE283E392E019952227332783
:10177000A9012C193D094E095F0919A2CE018196D4
:101780007C01CA01B901A301920135D4605DF70162
:1017900062937F01211531054105510591F7CF0174
:1017A00015C0A701960119A2CE0181965C01CA015C
:1017B000B901A30192011FD4605DF50162935F013D
:1017C000211531054105510591F7CF01FDDD86E277
:1017D00092E0FADD8091DE029091DF02009759F0ED
:1017E000019709F04BC242E450E06DE170E088E8F7
:1017F00090E0DDDB9CC16AEF70E080E090E00E9449
:10180000C30341E350E06AEF70E081E090E0CFDB9A
:10181000C12CD12C2091DB023091DC028091D702C7
:101820009091D802C216D30608F040C09601220F4C
:10183000331FFC01E20FF31FE080F18061E0F7014C
:1018400082810E943303F7018481863308F0865336
:1018500090917B00282F2870977F922B90937B008C
:101860008770806480937C0080917A00806480938C
:101870007A0080917A0086FDFCCFA090780080915C
:101880007900B12CB82A60E0F70182810E9433030D
:10189000F70186819781A816B90614F0128702C055
:1018A000F7011286FFEFCF1ADF0AB4CF6C01DC011B
:1018B00040E050E000E04217530771F06D917D91D8
:1018C000FB01F284FF2029F060857185672B09F404
:1018D00001E04F5F5F4FEFCF002359F1E091D0025D
:1018E000F091D10260E08081918172D8E091D002C4
:1018F000F091D10282819381FC01128728D8E09176
:10190000D002F091D10240E050E0BA018081918193
:1019100071D8E091D002F091D10240E050E066E948
:1019200072E48281938166D868EE73E080E090E093
:1019300043C0DC0140E050E090E04217530779F0EB
:101940006D917D91FB018285882331F060857185E1
:10195000161617060CF491E04F5F5F4FEECF9923F8
:1019600071F1E091D002F091D10280819181FC016E
:1019700012870E94A704E091D002F091D10260E0AA
:101980008281938125D8E091D002F091D10240E08C
:1019900050E066E972E4808191812CD8E091D00218
:1019A000F091D10240E050E0BA018281938122D8C7
:1019B0006AEF70E080E090E00E94C30363C080E0C3
:1019C00090E040E08217930789F0F601A191B19170
:1019D0006F011A965C911A97552331F018966D9104
:1019E0007C91199777FD41E00196ECCFE091D00210
:1019F000F091D10280819181FC0112874423F9F09A
:101A00000E94A704E091D002F091D10260E08281AF
:101A100093810E94E804E091D002F091D10240E06D
:101A200050E0BA01808191810E94FA04E091D002D5
:101A3000F091D10240E050E066E972E4B6CF0E9436
:101A4000A704E091D002F091D10260E082819381FD
:101A50000E94E804E091D002F091D10240E050E011
:101A60006AEF72E4808191810E94FA04E091D002D1
:101A7000F091D10240E050E066E972E48281938106
:101A80000E94FA042FDC059709F0C2CE6AEF70E0DD
:101A900080E090E00E94C303E091D002F091D10277
:101AA00040E050E0BA01808191810E94FA04E09107
:101AB000D002F091D10240E050E0BA0182819381DE
:101AC0000E94FA04DBC0029709F0A7C045E750E086
:101AD0006FEF70E08CE290E06ADAE091D002F09172
:101AE000D10280819181FC0112870E94A704E091BC
:101AF000D002F091D10260E0828193810E94E804DB
:101B0000E091D002F091D10240E050E0BA01808132
:101B100091810E94FA04E091D002F091D10240E05C
:101B200050E066E972E4828193810E94FA046AEFD0
:101B300070E080E090E00E94C303D4DB8330910525
:101B4000D9F44CE150E069EF70E089E790E02FDADA
:101B5000E091D002F091D10260E0808191810E94F9
:101B6000E804E091D002F091D10282819381FC01DE
:101B700012870E94A70421C0843091053CF1843073
:101B8000910509F05DC044E150E063E570E081E853
:101B900090E00DDAE091D002F091D1028081918144
:101BA000FC0112870E94A704E091D002F091D102BB
:101BB00060E0828193810E94E804E091D002F0917C
:101BC000D10240E050E06AEF72E4A1CF813091058C
:101BD00009F079CF49E250E060E070E088E590E0FC
:101BE000E6D9E091D002F091D10280819181FC018F
:101BF00012870E94A704E091D002F091D10260E028
:101C0000828193810E94E804E091D002F091D10298
:101C100040E050E06AEF72E407C0E091D002F0913A
:101C2000D10240E050E0BA01808191810E94FA0423
:101C3000E091D002F091D10240E050E0BA0173CFC0
:101C4000059759F7E091D002F091D10240E050E0C1
:101C5000BA01808191810E94FA04E091D002F09152
:101C6000D10240E050E0BA01828193810E94FA04DF
:101C70006EEE72E080E090E00E94C3031092E102F9
:101C80001092E0028091E0029091E10297FF03C080
:101C90009195819591096091E2027091E30298D14A
:101CA0009093DF028093DE02892B39F44FEF50E0EE
:101CB00060E870E080E090E07AD98091DE02909157
:101CC000DF02019739F44EE350E061E070E087EE07
:101CD00090E06DD90E9463020DCDCF93DF93C0EDEC
:101CE000D2E08F819885E0D288819981DDD2809180
:101CF000E8029091E902D8D280E193E08AD889E0A5
:101D000093E0DF91CF9198C8AF92BF92CF92DF92CC
:101D1000FF920F931F93CF93DF93CDB7DEB72E972C
:101D20000FB6F894DEBF0FBECDBFE3E3F2E013823F
:101D3000128288EE93E0A0E0B0E084839583A683CE
:101D4000B7838AE092E09183808385EC90E0958769
:101D5000848784EC90E09787868780EC90E0918B75
:101D6000808B81EC90E0938B828B82EC90E0958B62
:101D7000848B86EC90E0978B868B118E128E138E5F
:101D8000148E07E513E089E090E0F80191838083E9
:101D900088E0C82ED12CD382C2828AE090E095835D
:101DA000848340E050E0BA01C8010E94FA04FF2495
:101DB000F394F801F286C8010E94A7040CE413E032
:101DC00087E090E0F8019183808386E090E0938340
:101DD000828395E0A92EB12CB582A48240E050E028
:101DE000BA01C8010E94FA04F801F286C8010E94F3
:101DF000A704E1E4F3E085E290E09383828380E44A
:101E000090E09583848322E830E0378326838FEF48
:101E10009FEF9187808781E090E091838083E6E364
:101E2000F3E047E250E05383428341E450E05583BE
:101E30004483378326831186108691838083EBE267
:101E4000F3E049E250E05383428342E450E055839B
:101E5000448337832683918780879183808303E03F
:101E600013E0F80182A193A19987888784A195A1A5
:101E70009B878A8786A197A19D878C87AE01485F43
:101E80005F4F63E070E09E012F5F3F4F89E093E07A
:101E90000E949906F801F5861686108A1786128A1E
:101EA000118A8FEF838B148A168A158AF78A108E0F
:101EB00082E0818FF28E138E148E158E168E8CE238
:101EC00090E091838083B382A2821482158246E1DE
:101ED00052E063E070E09E01225F3F4FCE01019629
:101EE0000E949906BE016F5F7F4F89E093E00E94D8
:101EF000FF05CE0101960E941C0786E190E09093B9
:101F000000038093FF0260E00E94620387E190E09B
:101F10009093FC028093FB0260E00E94620388E1E0
:101F200090E09093F8028093F70260E00E946203D1
:101F300089E190E09093F4028093F30260E00E94C4
:101F400062038AE190E09093F0028093EF0260E0F8
:101F50000E94620304EE12E0F801D782C682118665
:101F6000108680E290E00BD1F80195838483EEED3A
:101F7000F2E082E090E095838483118210821382E4
:101F8000128200ED12E0F801D382C282158214821F
:101F900080E190E0F4D0F80191838083D286C186FD
:101FA0001486138680E190E0EAD0F8019087878359
:101FB0002E960FB6F894DEBF0FBECDBFDF91CF9146
:101FC0001F910F91FF90DF90CF90BF90AF90089539
:101FD00097FB072E16F4009406D077FD08D035D075
:101FE00007FC05D03EF4909581959F4F089570951C
:101FF00061957F4F0895A1E21A2EAA1BBB1BFD011C
:102000000DC0AA1FBB1FEE1FFF1FA217B307E407D7
:10201000F50720F0A21BB30BE40BF50B661F771F2F
:10202000881F991F1A9469F760957095809590950F
:102030009B01AC01BD01CF010895EE0FFF1F881F6A
:102040008BBF0790F691E02D1994AA1BBB1B51E1A1
:1020500007C0AA1FBB1FA617B70710F0A61BB70B18
:10206000881F991F5A95A9F780959095BC01CD01BD
:10207000089534D008F481E0089504D06894B11133
:1020800074C0089557D088F09F5790F0B92F9927C2
:10209000B751A0F0D1F0660F771F881F991F1AF073
:1020A000BA95C9F712C0B13081F05ED0B1E00895A1
:1020B0005BC0672F782F8827B85F39F0B93FCCF322
:1020C000869577956795B395D9F73EF49095809569
:1020D000709561957F4F8F4F9F4F0895990F00081E
:1020E000550FAA0BE0E8FEEF16161706E807F907EA
:1020F000C0F012161306E407F50798F0621B730B85
:10210000840B950B39F40A2661F0232B242B252B05
:1021100021F408950A2609F4A140A6958FEF811DA8
:10212000811D089557FD9058440F551F59F05F3F8A
:1021300071F04795880F97FB991F61F09F3F79F0E9
:1021400087950895121613061406551FF2CF46956B
:10215000F1DF08C0161617061806991FF1CF8695ED
:102160007105610508940895E894BB2766277727D1
:10217000CB0197F90895B2DF08F48FEF0895CF935C
:10218000DF938230910510F482E090E0E0916403E7
:10219000F091650320E030E0C0E0D0E0309711F12D
:1021A0004081518148175907C0F04817590761F419
:1021B00082819381209719F09B838A832BC090930F
:1021C00065038093640326C02115310519F0421779
:1021D000530718F49A01BE01DF01EF010280F38179
:1021E000E02DDCCF2115310509F1281B390B2430F6
:1021F000310590F412968D919C911397611571059C
:1022000021F0FB019383828304C090936503809344
:102210006403FD01329644C0FD01E20FF31F819378
:102220009193225031092D933C933AC0209162033F
:1022300030916303232B41F4209102023091030279
:1022400030936303209362032091000230910102D6
:102250002115310541F42DB73EB74091040250914C
:102260000502241B350BE0916203F0916303E21732
:10227000F307A0F42E1B3F0B2817390778F0AC01A9
:102280004E5F5F4F2417350748F04E0F5F1F509386
:102290006303409362038193919302C0E0E0F0E016
:1022A000CF01DF91CF9108950F931F93CF93DF93C9
:1022B000009709F48CC0FC013297138212820091BE
:1022C0006403109165030115110581F420813181AA
:1022D000820F931F209162033091630328173907FF
:1022E00079F5F0936303E093620371C0D80140E095
:1022F00050E0AE17BF0750F412962D913C91139702
:10230000AD012115310509F1D901F3CF9D01DA01A4
:102310003383228360817181860F971F8217930711
:1023200069F4EC0128813981260F371F2E5F3F4F5A
:10233000318320838A819B8193838283452B29F477
:10234000F0936503E093640342C01396FC93EE930D
:102350001297ED01499159919E01240F351FE21703
:10236000F30771F480819181840F951F0296119675
:102370009C938E938281938113969C938E93129754
:10238000E0E0F0E0D80112968D919C9113970097B0
:1023900019F0F8018C01F6CF8D919C9198012E5F78
:1023A0003F4F820F931F20916203309163032817E0
:1023B000390769F4309729F4109265031092640389
:1023C00002C0138212821093630300936203DF91B1
:1023D000CF911F910F91089581E090E0F89407C08C
:1023E000DC0101C06D9341505040E0F7089511E0C9
:1023F000C7E2D1E000E005C0802FFE011EDE21967D
:10240000011DC832D10780E00807B1F7F894FFCF6B
:102410000000660380000000000090015A0157028E
:1024200035024902BC0200000000000063686F69C9
:0A2430006365203D20000D0A000046
:00000001FF
